:100000000C9473030C94BA030C94BA030C94BA03C3
:100010000C94BA030C94BA030C94BA030C94BA036C
:100020000C94BA030C94BA030C94C0290C94752850
:100030000C944D190C94BA030C94BA030C94BA03A3
:100040000C94BA030C94BA030C94BA030C94BA033C
:100050000C94BA030C940F190C94BA030C94BA03C1
:100060000C94BA030C94BA030C94BA030C94BA031C
:100070000C94BA030C94BA030C94BA030C94BA030C
:100080000C94BA030C94BA030C94BA030C94BA03FC
:100090000C94BA030C94BA030C94BA030C94BA03EC
:1000A0000C94BA030C94BA030C94BA0309070C0716
:1000B00046075D07650785072308230823082308EB
:1000C000230888078A078F07B507D807DB07DE07ED
:1000D000020871066B089C08DE081D096509AF0956
:1000E000B209B709BA09BF09C209C709CA09CD09C6
:1000F000D009D309D609D909DC09DF09E209E509E4
:10010000EA092F0A750ABF0AC20AC50AC80ACD0A37
:10011000D70ADA0AE40AE70AF10AF40AFE0A010B2E
:100120000B0B3F0F3F0F790F790FD20F7911791118
:100130007911EE0FCC10DD10DD10EA211122B82369
:100140001122B8235D228022B823752385230B2B2F
:100150000B2B1E2B1E2B142B1E2B1E2B1E2B0B2B87
:100160000B2B192B1E2B1E2B192B0000000000003F
:10017000000000000000000000000000000000007F
:1001800000000000000000000000000000007E0FE2
:1001900000D4FFFFFFC7000000780000000000004F
:1001A00000002A2B280000000000000000000000D2
:1001B000000000000029000000002C1E3420212235
:1001C00024342627252E362D3738271E1F2021229E
:1001D000232425263333362E37381F040506070817
:1001E000090A0B0C0D0E0F10111213141516171807
:1001F000191A1B1C1D2F3130232D35040506070845
:10020000090A0B0C0D0E0F101112131415161718E6
:10021000191A1B1C1D2F3130354C29001E001F00E0
:1002200020002100220023002400250026002700B2
:100230002D002E002A004A002B0014001A0008008E
:10024000150017001C0018000C00120013002F00EE
:10025000300031004B00390004001600070009008F
:100260000A000B000D000E000F00330034000000E8
:1002700028004E00E1001D001B00060019000500CB
:1002800011001000360037003800E5000000520071
:100290004D00E000E300E200000000002C00000040
:1002A0000000E6000000E4005000000051004F0094
:1002B000165C3A003B003C003D003E003F00400021
:1002C000410042004300440045004C004A00010048
:1002D000C25CC35CC55CC65CC75CC85CC95CCA5C0C
:1002E0000100460047004800005C4B000100CB5C69
:1002F000CC5C0100010001000100010001000100CF
:10030000010001000000DE5C4E00E1000100010080
:1003100001000100010001000100010001000100D5
:1003200001000000A900A800010001000100000078
:100330000000010000000000010000000100AC000E
:100340000000AA00AB000100010001000100010053
:100350000100010001000100010001000100010095
:100360000100010001000100010001000100010085
:100370000100010001000100010001000100010075
:100380000100010001000100010001000100010065
:100390000100010001000100010000000100010056
:1003A0000100010001000100010001000100010045
:1003B0000100010001000100000001000100010036
:1003C0000100010000000000010000000000010029
:1003D0000000010001000000010001000100010017
:1003E0000100010001000100010001000100010005
:1003F00001000100010001000100010001000100F5
:1004000001000100010001000100010001000100E4
:1004100001000100010001000100010001000100D4
:1004200001000100010001000100010001000100C4
:1004300000000100010001000100010001000100B5
:1004400001000100010001000100010001000000A5
:100450000100010001000100010000000000010096
:100460000000000001000000010001000000010088
:10047000010005010980A101850319012AB70015B2
:100480000126B700950175108100C0050C0901A176
:1004900001850419012AA002150126A00295017503
:1004A000108100C005010906A1018505050719E0B5
:1004B00029E7150025019508750181020507190036
:1004C00029EF1500250195F0750181020508190134
:1004D0002905950575019102950175039101C006E5
:1004E00060FF0961A1010962150026FF00952075D2
:1004F0000881020963150026FF0095207508910206
:10050000C005010906A101050719E029E715002525
:10051000019508750181029501750881010507198A
:100520000029FF150026FF009506750881000508C3
:100530001901290595057501910295017503910130
:10054000C009025B00030100A0FA090400000103D6
:10055000010100092111010001224000070581036A
:1005600008000A090401000203000000092111012A
:100570000001222200070582032000010705030372
:1005800020000109040200010300000009211101FB
:100590000001226D000705840320000A12011001EA
:1005A00000000008424B2512020001020001200356
:1005B0006B0062006400360037006D006B0069005C
:1005C00069007200670062002000760032000000BF
:1005D00010034B0042004400660061006E0073008F
:1005E00000000403090400010101010101010101EE
:1005F00002020202020202020203030303030303D4
:1006000003040404040404040505050505060606A0
:100610000606070707070708080808090909090A5D
:100620000A0A0B0B0B0C0C0C0D0D0D0E0E0E0F0F02
:100630000F10101111111212131314141515161690
:100640001717181819191A1A1B1B1C1D1D1E1E1FFF
:100650002020212222232424252626272829292A4E
:100660002B2C2D2D2E2F3031323233343536373876
:10067000393A3B3C3D3E3F40414243444546474872
:10068000494A4C4D4E4F50515354555658595A5B48
:100690005D5E5F616264656668696B6C6D6F7072E8
:1006A000737577787A7B7D7E8082838587888A8C54
:1006B0008E8F91939596989A9C9EA0A2A3A5A7A988
:1006C000ABADAFB1B3B5B7BABCBEC0C2C4C6C9CB7F
:1006D000CDCFD1D4D6D8DBDDDFE2E4E7E9EBEEF035
:1006E000F3F5F8FAFDFF11241FBECFEFDAE0DEBF0D
:1006F000CDBF04B603FE27C080914C0690914D06F5
:10070000A0914E06B0914F068730904BA740B04B5A
:10071000D1F410924C0610924D0610924E06109293
:100720004F0614BE84B7877F84BF0FB6F894A89590
:1007300080916000886180936000109260000FBE1D
:10074000E0E0F8E3099513E0A0E0B1E0E4E4FCE5C3
:1007500002C005900D92A439B107D9F726E0A4E9AB
:10076000B3E001C01D92AC34B207E1F70E94BC03B4
:100770000C94202E0C940000CF93DF93CDB7DEB7FE
:10078000AD970FB6F894DEBF0FBECDBF84B7877F9D
:1007900084BF0FB6F894A89580916000886180931B
:1007A0006000109260000FBE90E080E80FB6F894F1
:1007B00080936100909361000FBE85B7806885BF0C
:1007C00085B7806885BF8EE698E190939503809306
:1007D00094030E94B9280E945F298091E2008460FE
:1007E0008093E2007894809106068823A1F010910E
:1007F000E9001F709091EC00892F817090FD80E8D6
:10080000182B1092E9008091E80083FD0E940421DA
:100810001F701093E90082E084BD93E095BD9AEFCC
:1008200097BD80936E0080EF0E94172681EF0E9493
:10083000172684EF0E94172686EC0E94172686E66C
:100840000E9417260DE111E03CE2E32E31E0F32E89
:10085000D8018D918D010E941726E016F106C1F78F
:10086000E8E9F3E082EA93E0A1EEB3E0119211929D
:100870001D921D928E179F07C9F780E090E00E949D
:10088000452D8A3E9E4F11F00E94E01982E090E0D3
:100890000E943D2D8093D6030E94CF199093970319
:1008A000809396030E94AA27EFE3FCE93197F1F7C2
:1008B00000C000000E94AA278091E10380FF17C0BA
:1008C0006FEF83E290E00E945B2D6FEF84E290E097
:1008D0000E945B2D6FEF85E290E00E945B2D6FEF31
:1008E0007FEF80E090E00E94792D0E94EB1883E07A
:1008F00090E00E943D2D682F70E080E090E00E9423
:10090000C21B0E94751410921006E9E2F6E089E31A
:1009100096E02FEF3FEF219331938E179F07D9F782
:100920001092A403EDEBF3E08DEC93E02FEF3FEF9B
:10093000219331938E179F07D9F780E090E00E94B2
:10094000452D8A3E9E4F21F00E94E0190E94D81743
:1009500046E050E06CE170E08DE396E00E942D2DC2
:1009600080913D068C7F11F40E94D81783E290E0BD
:100970000E943D2D813281F484E290E00E943D2D61
:10098000873051F485E290E00E943D2D91E088315E
:1009900009F090E0892F01C080E080FD1DC060E07B
:1009A00087E290E00E945B2D60E086E290E00E948A
:1009B0005B2D0E94E3160E94D31661E283E290E071
:1009C0000E945B2D67E084E290E00E945B2D68E16D
:1009D00085E290E00E945B2D86E091E09093A30376
:1009E0008093A2031FEF01E09E012F5F3F4F19018B
:1009F000CE010B969CA78BA70E94AA2781110E946B
:100A00003519A7EDB3E0E1EEF3E0E12CF12C4E2D2A
:100A1000819091908D919D9188259925009709F459
:100A2000AFC0D12CAA24A394B12C9C012A213B2134
:100A3000232B09F49FC0D9A24AA38A209B2081E0DE
:100A40008114910409F480E08BA30E944119816014
:100A5000782F9DA38CA349A15AA16BA18DA10E94BF
:100A6000FD15F701EE0FFF1FE952FC4F80819181C8
:100A7000A826B926B182A082892889F08FE08E9DB0
:100A8000F0018F9DF00D1124E95BFD4FED0DF11D7F
:100A900080818F3F21F08DA7BB24B39401C0B12C7E
:100AA000A090A403EB2CF12CC7018A0D911D09978E
:100AB000A4F158E0C52ED12CCE18DF08B7016F5F26
:100AC0007F4F6C557C4FA60185EA93E00E94172E5C
:100AD000B701675F7F4F6C557C4FA6018DEA93E0AD
:100AE0000E94172EA601440F551FB701660F771FEE
:100AF000675E7F4F6C557C4F8DEB93E00E94172E05
:100B0000B7016F5E7F4F6C557C4FA60185EB93E07C
:100B10000E94172EAA94A092A4038091A40390E0AF
:100B2000CDA4AC2DB0E09D01220F331F2E563D4FBA
:100B3000AA0FBB1FBD016D567D4F41E0480F9B15AD
:100B4000B0F490E0FC01EC55FC4FD9015C9151836D
:100B5000DB015C915187CDA4C18A880F991FFC01EC
:100B6000EC55FC4F128E118E91E0842FE6CF8093CE
:100B7000A4031DC0D394AA0CBB1C2FE0D21255CFE6
:100B80003FEFE31AF30A55E0E516F10409F03FCF11
:100B90001EA31FA318A60E9441198160782F9AA74F
:100BA00089A74EA15FA168A58AA50E94FD15809125
:100BB000CD039091CE03A091CF03B091D0032FB776
:100BC000F8948090D1039090D203A090D303B0907A
:100BD000D4032FBF881A990AAA0ABB0A0E943519A2
:100BE0006093CD037093CE038093CF039093D00393
:100BF000A091A403E4EAF3E02A2F30E0CC24CA94C5
:100C0000DC2CE12CF12CC818D908EA08FB08A31742
:100C100099F0418D528D2A01612C712CC414D50498
:100C2000E604F70410F4215004C0480D591D528FFA
:100C3000418F3F5F3296EBCF2093A40320914B0668
:100C4000211109C020913D06322F337021F0F22E80
:100C5000F694F69401C0F12C209114012130E9F0B2
:100C600038F0223009F45BC0233009F462C07EC042
:100C7000109211016093390670933A0680933B06F7
:100C800090933C0689E2E4EAF3E0A0E1B6E001904B
:100C90000D928A95E1F781E03FC080910501F8123D
:100CA0000DC020913D06237030E04091040150E0DA
:100CB00081E02417350719F480E001C081E08170DC
:100CC000809313018091420690911201981709F4C4
:100CD000E3C18093120140E060E080E00E94501781
:100CE000DBC180911301882329F040E060E080E0BF
:100CF0000E94501780E0909111019F5F9093110125
:100D00008111D5C182E0809314018091130181117A
:100D1000CEC1F110CFC183E08093140127C0F092BF
:100D2000050180913D068370809304010E94D013D9
:100D3000F2CF4091390650913A0660913B0670918E
:100D40003C062FB7F8948091D1039091D203A091E3
:100D5000D303B091D4032FBF841B950BA60BB70B05
:100D60004A97A105B10510F0109214010E94C71610
:100D70009091D503891721F00E94C7168093D5035F
:100D800080910606843009F037CE83E08093E90035
:100D90008091E80082FF30CE8091E80085FF23C07B
:100DA0000E94D82881111DC020E2C22ED12CCE0174
:100DB00001967C0109C08091F100D7018D937D01DE
:100DC000B1E0CB1AD10869F08091E80085FDF3CF3E
:100DD0008091E8008B778093E8000E94D8288823D0
:100DE00099F391E001C090E08091E8008B778093C7
:100DF000E800992309F400CEE9818E2F90E0FC01F0
:100E00003197E331F10508F01EC1EA5AFF4F0C9407
:100E10000A2E1A8289E081C08A81823061F0833093
:100E200019F1813009F00FC10E9435199B838C8321
:100E30007D836E8309C186E290E00E943D2DF82EED
:100E400087E290E00E943D2D4F2D50E060E070E081
:100E5000762F652F542F44276A017B01C82AD701BA
:100E6000C6011B821C822EC0FE013196A1EEB3E0AA
:100E70008C9111969C91119712969283838332964E
:100E8000EBA4FCA4EE16FF0699F7DEC08A8182303F
:100E900009F0D9C06B817C818D819E810E94102ECA
:100EA0006B017C0187E290E00E945B2D99278F2DDA
:100EB0007E2D6D2D86E290E025C04C816B818A816C
:100EC0000E9417179D838E83BFC0ED80FE80FE2495
:100ED000EF24FE248C81CB809A812EE1C29E60019A
:100EE000112436E9939FC00CD11C1124C80ED11CCB
:100EF000C80ED11C6F2DC60188960E945B2D6E2DE9
:100F0000C60189960E945B2D9FC00E94E3169CC07B
:100F100080E152C051E05A8380E88B8395C0EA801B
:100F2000FB80FE24EF24FE24AC80B12C6101C701BC
:100F300080589D4F9601221933092A153B0508F068
:100F400083C0A0E8EA16A1E0FA0628F40E943D2D2D
:100F5000F601848303C0D60114961C92BFEFEB1AEE
:100F6000FB0AEFEFCE1ADE0AE2CFEA80FB80FE2416
:100F7000EF24FE24AC80B12C6101C70180589D4F45
:100F80009601221933092A153B0508F05DC0F0E8E7
:100F9000EF16F1E0FF0628F4D60114966C910E943A
:100FA0005B2DBFEFEB1AFB0AEFEFCE1ADE0AE5CF9F
:100FB0000E94D31649C084E08A8346C0EA80FB8041
:100FC000FE24EF24FE24AC80B12C6101C701889679
:100FD0009601221933092A153B05B0F5F8E5EF16FD
:100FE000F2E0FF0630F40E943D2DD60114968C935A
:100FF00002C0F6011482FFEFEF1AFF0A2FEFC21AA8
:10100000D20AE4CFEA80FB80FE24EF24FE24AC80E9
:10101000B12C6101C70188969601221933092A155E
:101020003B0590F438E5E31632E0F30628F4D601E8
:1010300014966C910E945B2DBFEFEB1AFB0AEFEF49
:10104000CE1ADE0AE7CF198380910606843009F0B4
:10105000D3CC8091E9008F702091EC00922F917099
:1010600020FD90E8F92EF82A82E08093E900809133
:10107000E80080FF0CC040E050E060E270E0C10199
:101080000E94D8208091E8008E778093E8008F2D11
:101090008F708093E900B0CC8F2D90E0883291055D
:1010A000A8F0809111018F5F809311012BCEFF205A
:1010B00009F45CCE0E94C71681FF58CE2FEF4FEF88
:1010C0006FEF8EE190E00E94521750CEFC01E7597D
:1010D000FF4F0C940A2EE0901101EE0CEE0C94E000
:1010E000D92EDE0C93E49D1510F483E4D82E609184
:1010F0003E0670913F06809140060E948725C62ECD
:10110000B72EA82EED1490F4EE2DF0E0DF01A85ECE
:10111000BC4F8C9190911201982331F02A2D4C2DC7
:101120006B2DCF010E945217E394ECCF81E0A2E433
:10113000AD1508F0E0CDDECDE0901101EE0CEE0C27
:10114000B4E0DB2EDE0CB3E4BD1510F4A3E4DA2E1C
:10115000B0903F06C0904006A0903E06B5018C2D91
:101160000E948725962E872E782E609141066A0D63
:101170007B2D8C2D0E948725C62EB72EA82EED1410
:10118000B8F48E2D90E0FC01E85EFC4F3081209198
:101190001201232359F030FF04C02A2D4C2D6B2D52
:1011A00003C0272D492D682D0E945217E394E7CFE5
:1011B00081E0E2E4ED1508F09ECD9CCDE0901101B8
:1011C000EE0CEE0CF4E0BF2EBE0CF3E4FB1510F4B5
:1011D000E3E4BE2E90903F068090400620914106A9
:1011E00070E4A72E3A2D329F312D1124A32EEB143B
:1011F00008F065C0CE2CD12CF601E85EFC4F908142
:10120000809112018923B9F0F601EE0FFF1FED5610
:10121000FD4F808182958F7060913E068A9D600DA2
:101220001124792D882D0E948725462F282F672F7E
:10123000C6010E945217E394DACFE0901101EE0C40
:10124000EE0C54E0B52EBE0C83E48B1510F443E491
:10125000B42E90903F06809040062091410630E4E5
:10126000A32E3A2D329F312D1124A32EEB1438F5E5
:10127000CE2CD12CF601E85EFC4F908180911201BA
:101280008923D9F0F601EE0FFF1FEE56FD4F608166
:10129000A69EB001112495E0759567959A95E1F7A2
:1012A00080913E06680F792D882D0E948725462F54
:1012B000282F672FC6010E945217E394D7CF81E0F1
:1012C00052E45B1508F017CD15CDE0901101EE0C3E
:1012D000EE0CB4E0DB2EDE0C83E48D1510F4A3E4F9
:1012E000DA2EB0903E06C0903F06A0904006609176
:1012F00041066695669566958091390690913A0605
:101300000E947D250E942B25805887FD8195880F9E
:10131000282F3A2D239F212D1124822F6B2D7C2DD8
:101320000E948725C62EB72EA82EED1490F4EE2D20
:10133000F0E0DF01A85EBC4F8C91909112019823E0
:1013400031F02A2D4C2D6B2DCF010E945217E394C2
:10135000ECCF81E052E45D1508F0CDCCCBCC86E13A
:1013600094E202C08AEE93E20E94F91EC4CC8DE0A2
:1013700095E202C08EEE94E20E949F1EBCCC83EDEB
:1013800094E202C087EB94E20E94251EB4CC88EE62
:1013900093E2EACF8FED93E2E7CF86ED93E2E4CFDD
:1013A00080E993E1E1CF81E893E1EECF84ED95E12F
:1013B000E3CF83EC95E1E0CF8FEA95E1E5CF83E5DC
:1013C00093E105C081E293E102C083EE92E10E94C5
:1013D000411F91CC8091130181111EC06091410683
:1013E00020E1620F08F46FEF8091390690913A0680
:1013F0000E947D256AE070E00E94E22D892B09F0B1
:1014000079CC0E941D2D63E470E00E94F62D60915E
:1014100012010E9476176ECCA09011018A2D880FC0
:10142000880FF4E0EF2EE80E93E49E1510F4E3E449
:10143000EE2EA82EB12CCE2CD12CAC14BD044CF425
:1014400060911201C5010E947617AFEFAA1ABA0A7D
:10145000F4CF81E0B2E4BE1508F04DCC4BCC8091C6
:10146000130181111EC06091410620E1620F08F452
:101470006FEF8091390690913A060E947D2565E0D4
:1014800070E00E94E22D892B09F034CC0E941D2DC2
:1014900063E470E00E94F62D609112010E945417DF
:1014A00029CCA09011018A2D880F880F74E0E72EB7
:1014B000E80EE3E4EE1510F463E4E62EA82EB12C5A
:1014C000CE2CD12CAC14BD044CF460911201C5019A
:1014D0000E945417FFEFAF1ABF0AF4CF81E052E425
:1014E000C52ECE1408F007CC05CCE0901101EE0C0F
:1014F000EE0C44E0D42EDE0C23E42D1510F433E47E
:10150000D32EB0903F06C0904006A0903E0660915A
:1015100041066695669566958091390690913A06E2
:101520000E947D250E942B25805887FD8195880F7C
:10153000682F2CE0629F612D11246A0D7B2D8C2D6C
:101540000E948725C62EB72EA82EED1490F4EE2DFE
:10155000F0E0DF01A85EBC4F8C91909112019823BE
:1015600031F02A2D4C2D6B2DCF010E945217E394A0
:10157000ECCF81E032E43D1508F0BDCBBBCB8BE86E
:1015800095E1F2CE82ED92E1EFCE8BEC92E102C0DA
:1015900085EC92E10E94A01FAECB80911006582FDF
:1015A000501B08F450E0852F6CEA72E137C06CEAFA
:1015B00072E133C080911006282F201B08F420E030
:1015C000822F64E772E12AC064E772E126C080914D
:1015D0001006382F301B08F430E0832F62E472E1EC
:1015E0001DC062E472E119C080911006582F501B93
:1015F00008F450E0852F6AE272E110C06AE272E1FD
:101600000CC080911006282F201B08F420E0822FA8
:1016100064E172E103C064E172E180E00E940A20AB
:101620006ACB3F924F925F926F927F928F929F927E
:10163000AF92BF92CF92DF92EF92FF920F931F93E0
:10164000CF93DF93CDB7DEB729970FB6F894DEBFFF
:101650000FBECDBFFC018081918123813481232B7A
:1016600031F09F3F31F491E08F3F19F403C091E0D6
:1016700001C090E090FD7AC67F0185E0DE01119601
:1016800001900D928A95E1F7F701228189819A8173
:10169000222349F00E94B11A182F682F89819A815C
:1016A0000E942A1B03C00E94FE1A182F69817A81AA
:1016B000812F0E943D178C01F7018281882309F454
:1016C000F2C0980122513F452031310508F019C17F
:1016D0008FEF93E00E943D2D8111EFC0025130E861
:1016E000832E32E0932E002379F08114F4E09F06DC
:1016F00009F4E3C0C4010E943D2D811101C00150D5
:101700001FEF811A910AEFCF1E821F821886198659
:10171000442443942AE0322E84010F5F1F4FC401FA
:101720000E943D2D8E831F82882309F4C6C09FEF3F
:10173000980F933060F48F834E8222E0820E911CCA
:10174000C8010E943D2D8887811102C0B6C04801A2
:101750008E010A5F1F4FF80120812223E9F2213018
:1017600009F04CC08181813049F46801F2E0CF0E6C
:10177000D11CF80182810E94FF2B0AC0823051F4F3
:101780006801F2E0CF0ED11CF80182810E948C2BFF
:10179000860186C0833049F46801F2E0CF0ED11C87
:1017A000F80182810E945A2BF3CF843019F00F5F29
:1017B0001F4F76C0F80122810E5F1F4F80E090E03E
:1017C00030E0205331092A30310568F4389EA001F9
:1017D000399E500D1124C901840F951F0F5F1F4FB3
:1017E000F8012081EDCF009709F45AC0EFE9FFE03E
:1017F0003197F1F700C000000197F5CFE22FF0E03C
:10180000E656FE4F5490822F86958695869590E0F9
:10181000FC01E657FE4F64902770712C022E02C027
:10182000759467940A94E2F7F1E06F227724FC0143
:10183000E658FE4FA490B12C022E02C0B594A79496
:101840000A94E2F731E0A322BB24FC01E659FE4FE3
:10185000C490D12C02C0D594C7942A95E2F781E0B8
:10186000C822DD246114710419F081EE0E948C2BD2
:10187000A114B10419F086EE0E948C2B852D0E94D4
:10188000FF2BAB2819F086EE0E945A2B672819F01F
:1018900081EE0E945A2BCD2819F08CE20E94FF2B7A
:1018A0000F5F1F4F58CF00313FE5130709F055C5B3
:1018B00081E00E945F1B0E94F11D8091D905877015
:1018C00009F454C5F7018281882309F44FC582E0E9
:1018D00029960FB6F894DEBF0FBECDBFDF91CF9132
:1018E0001F910F91FF90EF90DF90CF90BF90AF903E
:1018F0009F908F907F906F905F904F903F900C944F
:10190000841B0031FFE51F0711F481E005C00131A0
:101910002FE5120721F482E00E94A11BCCCF033FE8
:10192000FCE51F0749F406E221EE40EE63EF7CE59B
:10193000C7010E94EB17C1CF043F2CE5120708F046
:1019400049C1083D3CE5130731F407E225EE45EEB9
:1019500068ED7CE5EDCF093D9CE5190731F408E21F
:1019600021E045EE69ED7CE5E3CF073DECE51E07A0
:1019700031F406E221EE41EE67ED7CE5D9CF882314
:1019800009F45DC11092EB0302309CE5190708F4DD
:1019900040C10631ECE51E0730F0C8018A5F9C4566
:1019A000099708F036C10E94CF199093970380934E
:1019B00096030031FCE51F0709F4C3C008F041C0DD
:1019C00008303CE5130709F49AC0F0F404309CE5B4
:1019D000190709F487C068F40230FCE51F0709F411
:1019E00077C003301C4509F0E5C080919603826002
:1019F00076C006303CE5130709F46EC008F07BC0E2
:101A00008091960388606BC00C309CE5190709F43F
:101A100085C068F40A30FCE51F0709F474C008F0BB
:101A200079C00E94302B80919603806858C00E3098
:101A30003CE5130709F476C008F07FC08091960357
:101A40008BC00B3F9CE5190709F44FC018F5033113
:101A5000FCE51F0709F47DC078F401313CE513076C
:101A600009F473C002311C4509F0A4C00E94302B58
:101A7000809196038F7733C005319CE5190709F4EF
:101A800072C008F486C00A3F1C4509F093C08091DB
:101A900097033EC00F3F2CE5120709F45FC058F4CE
:101AA0000D3F8CE5180709F444C008F43FC080914D
:101AB000970382602DC00130EDE51E0709F475C063
:101AC00008F45DC002301D4509F074C060E06EC0CE
:101AD00080919603816003C080919603806180931A
:101AE000960368C08091960311C08091970382602D
:101AF000809397035FC0809196038062F0CF8091BE
:101B000096038064ECCF8091960388608460E7CF71
:101B10008160EECF809196038E7FE1CF8091960316
:101B20008D7FDDCF80919603877FD9CF80919703FA
:101B300018C0809197038D7FDBCF809196038F7EB5
:101B4000CECF809196038F7DCACF809196038F7BF5
:101B5000C6CF80919603877F8B7FC1CF80919703FB
:101B60008D7F8E7FC5CF8091960382FB222720F93F
:101B700091E0922790FB82F990FB83F9B0CF80919E
:101B80009703982F909591708E7F892B90FB81F908
:101B9000AFCF0E94302B8091960387FB222720F93C
:101BA00091E0922790FB87F99ACF61E08EE090E078
:101BB0000E945B2D609196031091970384E090E062
:101BC0000E945B2D612F82E290E00E945B2D0E94BB
:101BD000302B73CE053FFCE51F0731F406E221EE02
:101BE00042EE65EF7CE5A4CE053F2CE5120730F40C
:101BF00007E225EE44EE64EF7CE59ACE063F3CE535
:101C0000130709F0BCCE07E225EE46EE66EF7CE551
:101C10008FCE8091DC0506319CE5190709F58A7A9B
:101C200091E009F490E09093EC03882311F065E3D0
:101C300001C069E28FE495E00E949A190EC0063156
:101C40001C4509F0D6C08091EC03882309F48CC3AD
:101C500065E38FE495E00E9472190E94511A2DCE1F
:101C600082720A3C3CE5130709F47BC098F5053CF9
:101C7000ECE51E0709F461C0B8F4033C2CE512073B
:101C800009F451C008F054C0023C8CE5180709F073
:101C90007FC090913D0681E0892780933D06109298
:101CA00014010E94BC1709CE073C9CE5190709F4F2
:101CB0004EC008F447C0083CFCE51F0709F44CC0BF
:101CC000093C2CE5120709F063C046E355E162E4E4
:101CD00075E155C00F3C3CE5130709F455C098F475
:101CE0000C3CECE51E0709F446C008F43FC00D3C6F
:101CF0002CE5120709F446C00E3C3CE5130709F039
:101D000047C085E042C0063D8CE5180730F4013D30
:101D10001C4508F0D2CD82E138C00D35EDE51E0737
:101D200009F4CBCD35C048E755E161E875E127C03E
:101D300041E855E168E775E122C046E655E16FE606
:101D400075E11DC04FE655E166E675E118C04EE449
:101D500055E16AE575E113C04AE555E16EE475E1C8
:101D60000EC042E455E166E375E109C04EEC57E16F
:101D700064EC77E104C044EC57E16EEC77E10E943B
:101D80004A179BCD81E001C08DE00E940F1E95CDCA
:101D90000A35FDE51F0741F150F401153CE5130735
:101DA000A9F00E3D1C4529F50E94E01986CD0B35A2
:101DB0009DE51907D9F00C351D45D9F4809197039D
:101DC00082FB882780F991E0892711C00E94302B7F
:101DD000FFEF04E31CE0F15000401040E1F700C0C9
:101DE00000000E94EB1869CD81E001C080E00E94F4
:101DF000971AF701828100811181882349F0C80177
:101E00000E94B11AD82E682FC8010E942A1B04C054
:101E1000C8010E94FE1AD82EB8018D2D0E942E26D0
:101E20008C01982EF701B280A580A2949FE0A92290
:101E30008091D905877099F0BB2089F0812F807F30
:101E4000803421F080E2800F883048F082E00E94E8
:101E5000841B8091D9058770DD24D3948111D12C06
:101E6000C12EC2948FE0C8228C2D90E08C30910559
:101E700008F03FC2FC01EF56FF4F0C940A2E812F51
:101E8000807F1F70882311F01295107FBB20B9F05E
:101E9000112309F419C280E2800F883010F09110EC
:101EA00006C08091DC05182B1093DC0505C08091DD
:101EB000DB05182B1093DB050E94511A05C2802FF9
:101EC0000E945A2B112309F414C2005E10950830A9
:101ED00010F0911006C08091DC0518231093DC05EA
:101EE00005C08091DB0518231093DB050E94511A71
:101EF00000C2812F807F1F70803211F01295107FF9
:101F0000992021F0F1E09F1611F130C0BB20B1F013
:101F1000AA2081F001E0A0120DC08091970382FDFC
:101F2000E8C18091DD05182B181709F4E2C1109360
:101F3000DD05DFC18091DD05812B10C0AA2021F0D5
:101F400021E0A21609F4D5C10E944B1A27C0BB207C
:101F500041F035E03A1508F4CCC1812F0E94502B96
:101F6000C8C184E08A1508F4C4C118C0BB2049F078
:101F7000AA2099F3F701858180FFA6C18F70858320
:101F8000ECCFAA2059F0093309F0B0C1FFEF17EEEA
:101F900023E0F15010402040E1F7A6C1812F0E94BC
:101FA000452BA7C1812F86958695837019F08130C6
:101FB00059F09FC1BB2019F0C801937002C080E0A6
:101FC00090E00E94B1169BC1BB2019F0C80193702C
:101FD00002C080E090E00E949B1691C1812F837027
:101FE00009F069C0B11089C1902F929596959770AC
:101FF000990F990F802F8F70882E912CA12CB12CC6
:10200000092E04C0880C991CAA1CBB1C0A94D2F788
:1020100004FF12C04FE050E060E070E004C0440FE5
:10202000551F661F771F9A95D2F7DB01CA0180956D
:102030009095A095B09503C080E090E0DC011695E6
:102040001695412F4370423019F1C8F40091DE0516
:102050001091DF052091E0053091E105413059F004
:1020600088299929AA29BB29BC01CD0160237123A4
:10207000822393230AC0802A912AA22AB32ABC0170
:10208000CD01682979298A299B290E94C21B35C163
:1020900088299929AA29BB290091DE051091DF051D
:1020A0002091E0053091E105BC01CD016027712749
:1020B00082279327EACFBB2019F0812F817001C0BE
:1020C0008695882309F419C1902F9295969597705B
:1020D000990F990F802F8F70882E912CA12CB12CE5
:1020E000092E04C0880C991CAA1CBB1C0A94D2F7A8
:1020F00004FF12C04FE050E060E070E004C0440F05
:10210000551F661F771F9A95D2F7DB01CA0180958C
:102110009095A095B09503C080E090E0DC01169505
:102120001695412F43704230D9F068F5009143066F
:10213000109144062091450630914606413059F0F1
:1021400088299929AA29BB29BC01CD0160237123C3
:10215000822393231EC0802A912AA22AB32A13C065
:1021600088299929AA29BB29009143061091440680
:102170002091450630914606BC01CD0160277127AC
:102180008227932706C0BC01CD01682979298A29B5
:102190009B290E94551BB1C01F70BB2039F0812FB5
:1021A0000E94A11B802F0E94502BA7C0802F0E944D
:1021B000452B812F0E945F1BA0C0802F32EF93160A
:1021C00009F440C0391538F090EF991661F0E1EF4D
:1021D0009E1699F174C0F3EF9F16D9F124EF921671
:1021E00009F44EC06CC0BB2019F134E03A1508F474
:1021F00080C01F7181E090E0A0E0B0E0AC01BD01C3
:1022000004C0440F551F661F771F1A95D2F780919F
:10221000430690914406A0914506B09146068A0176
:102220009B01082719272A273B27C901B80125C088
:1022300025E02A1508F45DC0DCCFBB2029F0812FF2
:102240008F7130C0BB20D9F3812F8F710E945F1B2B
:1022500050C0BB2079F01F7181E090E0A0E0B0E0B9
:10226000BC01CD0104C0660F771F881F991F1A9506
:10227000D2F703C060E070E0CB010E94551B39C06B
:10228000BB2099F01F71812F0E94A11B80919703A1
:1022900082FD07C038E0139FC00111248360809342
:1022A000D905812F0E94A11B24C081E00E94841BBC
:1022B00081E08A15F0F482E00E94841B1AC0BB20E2
:1022C00039F0AA2009F4BBCF802F0E948C2B11C0BB
:1022D000AA2009F4B9CF893349F49FEFE7EEF3E080
:1022E0009150E040F040E1F700C00000802F0E94D4
:1022F0005A2B88EF8C0D843010F40E94C716DD2015
:10230000A9F18091D90580FD31C0F7011282859530
:10231000859585950E94A11BC7010E94110B809194
:10232000D90585958595859529960FB6F894DEBFD4
:102330000FBECDBFDF91CF911F910F91FF90EF9016
:10234000DF90CF90BF90AF909F908F907F906F90D5
:102350005F904F903F900C945F1B01319FE51907F0
:1023600009F0DDCA82E0A5CA69E273CC29960FB6EE
:10237000F894DEBF0FBECDBFDF91CF911F910F91BB
:10238000FF90EF90DF90CF90BF90AF909F908F9095
:102390007F906F905F904F903F90089583349105A8
:1023A00040F5880F991F880F991FFC01E45DFE4FCF
:1023B00052813381808183707181A82FB0E0E0E980
:1023C0008E9FC00111248D5F9B4FFC01E70FF11D13
:1023D000B4976083FC01E50FF11DB4974083830F30
:1023E000911DFC01B4972083FD01EF5FFB4F81E05D
:1023F00080830895FF920F931F93CF93DF93182F3D
:10240000062FF42EC0E0D0E02F2D402F612FCE01FB
:102410000E94CE112196C334D105B1F7DF91CF913F
:102420001F910F91FF900895EF92FF920F939701E4
:10243000201B31092F3F310519F010F02FEF30E04C
:102440002095382F320F08F43FEF832F0F91FF9024
:10245000EF900895EF92FF920F939701201B31099F
:102460002F3F310519F010F02FEF30E0322F30956B
:10247000482F430F08F44FEF842F620F0F91FF9006
:10248000EF900895EF92FF920F93972F093438F44D
:10249000B701601B71096F3F710519F010F06FEF04
:1024A00070E0485F5F4F4131510540F0A901485F3E
:1024B0005F4F4131510510F06FEF70E06095482F8C
:1024C000460F08F44FEF842F37FF02C02D5F3F4FB8
:1024D000359527953595279560913E06620F792FA2
:1024E0000F91FF90EF900895EF92FF920F93E00EFF
:1024F000F11CF90137FF03C0F195E195F10924E0E2
:10250000EE0FFF1F2A95E1F7EF3FF10519F014F0E8
:10251000EFEFF0E09A0157FF03C0319521953109A3
:1025200094E0220F331F9A95E1F72E173F070CF422
:10253000F901EE0DFF1DEF3FF10519F010F0EFEF7F
:10254000F0E02E2F2095382F320F08F43FEF832F25
:102550000F91FF90EF900895EF92FF920F939701E4
:1025600095E0099F200D311D11242F3F310519F0F1
:1025700010F02FEF30E02095382F320F08F43FEFA6
:10258000832F0F91FF90EF90089522E8241B08F409
:1025900020E0620F08954095282F429F412D11247D
:1025A000842F0895E42FF0E0EE0FFF1FEE56FD4F4D
:1025B0009081921B97FD9195292F38E1239F212D22
:1025C0001124620F08950F931F9310E0F801EE0F8E
:1025D000FF1FEE56FD4F9081905797FD9195000F8C
:1025E000111FF801ED56FD4FE081F0E0B097DF01DB
:1025F000AA0FBB1F8D010E0F1F1F2003D001219FAB
:10260000B00D1124E8E3F0E0E91BF10997FDF39523
:102610009F01220F331F89010E0F1F1F40039001DE
:10262000419F300D11242A0F3B1F37FF02C0215854
:102630003F4F220F232F221F330B620F1F910F9149
:1026400008950F931F93522F10E0F801EE0FFF1F14
:10265000ED56FD4FE081F0E0B097EE0FFF1F9F01B8
:102660005203D001539FB00D1124000F111FF80128
:10267000EE56FD4F008110E000571109000F111FA9
:1026800040039001419F300D11242A0F3B1F37FF5B
:1026900002C021583F4F220F232F221F330B620FFE
:1026A0001F910F9108950F931F93522F10E0F8017F
:1026B000EE0FFF1FED56FD4FE081F0E0B0979F0158
:1026C0005203D001539FB00D1124000F111FF801C8
:1026D000EE56FD4F008110E00057110940039001B4
:1026E000419F300D11242A0F3B1F37FF02C0215894
:1026F0003F4F220F232F221F330B620F1F910F9189
:102700000895EF920F931F9393E0099F8001112486
:10271000159507956E2D600F1F910F91EF900895FD
:10272000A22F50E0FA01EE0FFF1FED56FD4F9081F2
:10273000905297FD9195440F551FFA01EE56FD4FAB
:102740003081232F30E02A1B3109290F311D97FDDD
:102750003A95620F08950F931F93CF93DF93082F3D
:10276000000FEB0114E21093ED03EEEEF3E0DE0157
:102770008D91819383E0EE3FF807D1F724E630E0B6
:1027800041E150E06DEE73E0802F0E94AA2C105FB3
:102790006096143B41F7DF91CF911F910F910895FF
:1027A00080910104882329F063E074E084E70E94AB
:1027B000AB131092010480910204882329F063E98D
:1027C00074E087E70E94AB13109202040895EDEEC7
:1027D000F3E06083418324E630E042E050E0BF0153
:1027E000880F0C94AA2CDF92EF92FF920F931F9305
:1027F000CF93DF93262F30E0A901495B5A4F7A012E
:10280000FA01908191110AC0F7011082DF91CF91F6
:102810001F910F91FF90EF90DF900895D82EF2E175
:102820006F9FE001112400E010E0F801EC0FFD1FA4
:10283000ED5DFA4F4081602F8D2D0E94E7130F5FF1
:102840001F4F0231110589F7DFCFCF93DF93C82FD8
:102850004BE06DEF0E94E71340E06AE08C2F0E948E
:10286000E7138FE39CE90197F1F700C0000040E017
:1028700060E08C2F0E94E71340E061E08C2F0E9403
:10288000E71340E066E08C2F0E94E71340E06DEF15
:102890008C2F0E94E713D0E040E06D2F8C2F0E9418
:1028A000E713DF5FD231C1F740E06D2F8C2F0E941C
:1028B000E713DF5FD432C1F740E06D2F8C2F0E9409
:1028C000E713DF5FD43BC1F74BE06DEF8C2F0E9425
:1028D000E71341E06AE08C2F0E94E71340E06DEFC0
:1028E0008C2FDF91CF910C94E7137F928F929F9260
:1028F000AF92BF92CF92DF92EF92FF920F931F930E
:10290000CF93DF930E941D2C84E70E94251487E754
:102910000E9425140CE211E0E12CF12C42E138E098
:10292000A32EB12CCC24C394D12C77247394D8013A
:1029300011962C91119730E0C90184971296CC9191
:102940001297D0E0A4971396EC91F0E0B497BC01F5
:1029500097FF02C0695F7F4FA3E075956795AA95C1
:10296000E1F7D701AA0FBB1FAA0FBB1FA45DBE4F83
:102970002C91237030E0429FD001439FB00D112471
:10298000AD5DBA4F4D01860E911CB5010E94F62D2A
:10299000B60102C0660F771F8A95E2F7CB01D4011A
:1029A0009C91892B8C93CE01D7FD079663E095957A
:1029B00087956A95E1F7429FB001439F700D1124FE
:1029C0006D5D7A4F4B01880E911CCE01B5010E94BE
:1029D000F62DB60102C0660F771F8A95E2F7CB018C
:1029E000D4019C91892B8C93CF01F7FD079653E07E
:1029F000959587955A95E1F7429FE001439FD00D49
:102A00001124CD5DDA4FC80FD11DCF01B5010E9451
:102A1000F62DF60102C0EE0FFF1F8A95E2F7CF01F7
:102A20009881892B8883F901E95BFA4F7082FFEF67
:102A3000EF1AFF0A0C5F1F4F63E4E616F10409F07A
:102A400076CF60E084E70E94F31361E087E7DF91CF
:102A5000CF911F910F91FF90EF90DF90CF90BF909B
:102A6000AF909F908F907F900C94F313EDE3F6E07E
:102A7000438120E1421B08F440E08181628190E0C3
:102A80000C94CB20EDE3F6E0438120E1420F08F403
:102A90004FEF8181628190E00C94CB20EDE3F6E072
:102AA000628120E1621B08F460E08181438190E053
:102AB0000C94CB20EDE3F6E0628120E1620F08F494
:102AC0006FEF8181438190E00C94CB20EDE3F6E041
:102AD000818190E04381628108970C94CB20EDE3E3
:102AE000F6E0818190E04381628108960C94CB20CE
:102AF00080913D0686958695815009F487E20C9475
:102B00000F1E80913D06869586958F5F883208F06E
:102B100081E00C940F1E0F931F93CF93DF93D62F5A
:102B2000072F182FC42F822F0E942B25EC2FF0E0A7
:102B3000EE0FFF1FEE56FD4F90819058890F87FDD5
:102B40008195880F682F2CE0629F612D11246D0FF5
:102B5000702F812FDF91CF911F910F910895EF92E8
:102B60000F93CF93DF93D72FC82FC9010E19BA0146
:102B70000E948424602F681B7D2F8C2FDF91CF91C2
:102B80000F91EF9008950F93CF93DF93D72FC82F16
:102B9000C901BA010E948424682F600F7D2F8C2FF9
:102BA000DF91CF910F9108950F93CF93DF93D72F9C
:102BB000C82F47FD4195E8E3F0E0CF01841B910960
:102BC00047FD9395889FB001899F700D700D11246A
:102BD000229FC001239F900D900D1124860F971FF7
:102BE0000E944C25682F660F860F682F600F7D2F7F
:102BF0008C2FDF91CF910F9108951F93CF93DF9387
:102C0000CDB7DEB767970FB6F894DEBF0FBECDBF66
:102C1000342F4B8B252F5C8B6D8B7E8B8F8B4E894E
:102C20005F8961111092DB0586E0FE013D96DF01B0
:102C3000982F1D929A95E9F73D872E876F87598BBC
:102C4000488BDE01179601900D928A95E1F7CE012F
:102C500007960E94421C81113EC086E0FE01379615
:102C6000DE01119601900D928A95E1F7FF81E885CA
:102C70006A857B856115710531F0EF3F31F481E0A4
:102C8000FF3F19F403C081E001C080E080FD23C054
:102C90002091750530E0C901019687709927409110
:102CA000A60550E08417950779F1F983EA837D83BF
:102CB0006C8396E0929FD001939FB00D1124AA5887
:102CC000BA4FFE01319601900D929A95E1F78093EB
:102CD00075050E94CC1B16E08091A60590917505A4
:102CE0008917F9F0189FC00111248A589A4F0E9441
:102CF000421C8823B1F08091A60590E00196877070
:102D000099278093A605E8CF0E94302B1092750575
:102D10001092A605EFE6F5E086E0DF011D928A95A8
:102D2000E9F767960FB6F894DEBF0FBECDBFDF910F
:102D3000CF911F91089520914D0530914E05281790
:102D4000390771F090934E0580934D05E091A203F1
:102D5000F091A303309721F00084F185E02D0994D0
:102D6000089520914B0530914C052817390771F0D3
:102D700090934C0580934B05E091A203F091A3033F
:102D8000309721F00680F781E02D09940895E091B5
:102D9000A203F091A303309721F00190F081E02D80
:102DA000099480E00895CF93DF93C0E8D2E060E01B
:102DB000CE010E945B2D2196C11584E0D807B9F79A
:102DC000DF91CF910895CF92DF92EF92FF920F9310
:102DD0001F93CF93DF93C0E0D0E08E010A561F4FC0
:102DE0006E018EE1C80ED11CFE01E65EFD4FE5903E
:102DF000F4906F2DCE0188960E945B2D6E2DCE0132
:102E000089960E945B2D2296CC15DD0569F70C177B
:102E10001D0731F7E80108351240F9F6DF91CF912F
:102E20001F910F91FF90EF90DF90CF9008950F9337
:102E30001F93CF93DF93C42FD0E0CC0FDD1F2EE183
:102E4000629FC00DD11D112436E9839FC00DD11D95
:102E50001124CE0188960E943D2D082F10E0102FDE
:102E60000027CE0189960E943D2D9801282BC9018B
:102E7000DF91CF911F910F910895462F843038F440
:102E8000753028F46F3018F4672F0C94171780E012
:102E900090E00895882311F0FA0101C0FB01099424
:102EA0000C94FA110C94CE111F93CF93DF93FC0175
:102EB000E85EFC4F20816223A9F0EC010E941D2DE9
:102EC000182F0E941D2D612F782F809140060E949F
:102ED0008725462F282F672FCE01DF91CF911F9195
:102EE0000C945217DF91CF911F910895DF92EF92CA
:102EF000FF920F931F93CF93DF93EC01FC01E85EE9
:102F0000FC4F9081692381F1D0903F0600914006EB
:102F100010913E06E12EF12C0E941D2D282FC70195
:102F20008C549F4F68E671E00E94F62D8E199F0920
:102F300097FD039695958795959587952370612FB5
:102F4000289F600D11247D2D802F0E948725462FFC
:102F5000282F672FCE01DF91CF911F910F91FF9006
:102F6000EF90DF900C945217DF91CF911F910F914A
:102F7000FF90EF90DF90089546E050E06CE170E044
:102F80008DE396E00C944B2DEDE3F6E0248130E1E7
:102F9000230F08F42FEF24830C94BC17EDE3F6E025
:102FA000248130E1231B08F420E024830C94BC1717
:102FB000EDE3F6E081E380838091150190911601A5
:102FC000A091170181839283A3838FE784838FEF7E
:102FD00085830C94BC170F931F93CF93DF93C42F5B
:102FE000122FFC0182818823C9F04093EB030E94D9
:102FF000411990934A058093490580E28C0F8830EF
:1030000008F063C0C77081E001C0880FCA95EAF775
:10301000DF91CF911F910F910C94502B8091EB0376
:1030200048133CC02091490530914A054FB7F894A8
:103030008091D1039091D203A091D303B091D40396
:103040004FBF821B930B883C910540F5D0E2D10F16
:10305000C117B9F080E28C0F883040F4C77081E06E
:1030600001C0880FCA95EAF70E94452BD83030F589
:1030700081E0912F977001C0880F9A95EAF70E941E
:10308000502B802F0E94FF2BD830F8F4212F27706F
:1030900081E001C0880F2A95EAF70AC080E28C0F10
:1030A000883098F4C77081E001C0880FCA95EAF7AC
:1030B000DF91CF911F910F910C94452B802FDF91C1
:1030C000CF911F910F910C94FF2BDF91CF911F9106
:1030D0000F91089508958091E305089580E0089583
:1030E000CF93DF9300D01F92CDB7DEB79091060645
:1030F000943011F589837B836A839093E9008FEF85
:103100009091E800815095FD06C095ED9A95F1F7F4
:1031100000008111F5CF8091E80085FF0DC040E0EF
:1031200050E063E070E0CE0101960E94D8208091CB
:10313000E8008E778093E8000F900F900F90DF915A
:10314000CF910895BC0184E00C947018BC0183E019
:103150000C947018CF93DF9320911001222339F043
:103160002091960327FF03C060E224E002C068E0DC
:1031700021E02093E9002FEF3091E800215035FD48
:1031800006C035ED3A95F1F700002111F5CF2091F9
:10319000E80025FF1DC0EC0180911001811105C0E0
:1031A00040E050E068E070E003C070E040E050E0D4
:1031B000CE010E94D8208091E8008E778093E800AD
:1031C00080E2FE01A4EEB5E001900D928A95E1F750
:1031D000DF91CF91089581E08093E00080E28093B9
:1031E000D8001092C9008FE19EE40197F1F700C06A
:1031F000000087E090EBDC0180934C0690934D0635
:10320000A0934E06B0934F069CE088E10FB6F89469
:10321000A895809360000FBE90936000FFCF7894D4
:103220001F920F920FB60F9211248F939F93AF931B
:10323000BF938091D1039091D203A091D303B09119
:10324000D4030196A11DB11D8093D1039093D203A5
:10325000A093D303B093D403BF91AF919F918F916B
:103260000F900FBE0F901F9018952FB7F894609194
:10327000D1037091D2038091D3039091D4032FBFD7
:1032800008952FB7F8948091D1039091D203A09123
:10329000D303B091D4032FBF08951F920F920FB69E
:1032A0000F9211248F939F93AF93BF938091D1037B
:1032B0009091D203A091D303B091D4034196A11D64
:1032C000B11D8093D1039093D203A093D303B09305
:1032D000D403BF91AF919F918F910F900FBE0F902C
:1032E0001F901895209110012223C9F02091960378
:1032F00027FF15C0262F2695269526952E31C8F432
:10330000FC01E20FF11D677081E090E001C0880FC1
:103310006A95EAF780959281892382830895FC015A
:1033200006962281621301C012823196E817F907CE
:10333000C1F70895209110012223C1F02091960336
:1033400027FF14C0262F2695269526952E3130F579
:10335000FC01E20FF11D677081E090E001C0880F71
:103360006A95EAF79281892B82830895FC0132964F
:103370002FEF30E04191641789F02F3F19F441118C
:1033800001C0232F3F5F3630A9F72F3F39F0FC01F2
:10339000E20FF11D27FDFA95628308950895CF93FA
:1033A00084E090E00E943D2DC82F82E290E00E94D0
:1033B0003D2D2C2F30E0A901582BCA01CF91089543
:1033C0006AEE7EEF80E090E00E94792D60E082E07E
:1033D00090E00E945B2D60E083E090E00E945B2D16
:1033E0001092DE051092DF051092E0051092E105C3
:1033F00060E084E090E00E945B2D60E082E290E07B
:103400000E945B2D60E085E090E00E945B2D60E013
:1034100086E090E00E945B2D6FEF87E090E00E94D5
:103420005B2D40E050E0BA0188E090E00E946D2DF5
:1034300060E08DE090E00E945B2D40E050E0BA013A
:1034400088E190E00E946D2D60E087E190E00E94AD
:103450005B2D40E050E0BA018CE190E00E946D2DC0
:1034600060E070E080E290E00E94792D40E050E062
:10347000BA0188E190E00E946D2D40E050E0BA0171
:103480008FE090E00E946D2D40E050E0BA0183E1B2
:1034900090E00C946D2D8091DD0581111092DD0579
:1034A00008959091DC058091DB05892B2091DA0548
:1034B000982F922B90934F058091DD058823D9F0AA
:1034C000892B80934F0580911001882331F08091E2
:1034D000960387FF02C08EE101C086E0E1E5F5E0DA
:1034E00090E0815028F021912223D9F39F5FF9CFFA
:1034F00091110E944B1AE091A203F091A30330971F
:10350000A9F080911001882359F08091960387FFDC
:1035100007C080914F058093500585E080934F054B
:103520000280F381E02D8FE495E009940895CF9314
:10353000C0919703C2FB992790F9981781F080FBFF
:10354000C2F9C09397036091960384E090E00E94D3
:103550005B2D6C2F82E290E0CF910C945B2DCF918C
:103560000895BF92CF92DF92EF92FF920F931F9335
:10357000CF93DF938C01C0904306D0904406E09037
:103580004506F09046068091DE059091DF05A091FA
:10359000E005B091E105C82AD92AEA2AFB2ACFE141
:1035A000D0E0D701C6010C2E04C0B695A79597951B
:1035B00087950A94D2F780FD04C0219790F7B12C2B
:1035C00007C0BC2EB8018C2F0E942E260197A9F3AC
:1035D0008B2DDF91CF911F910F91FF90EF90DF9096
:1035E000CF90BF900895CF93DF93EC010E94B11A62
:1035F000BE010E942E26DF91CF9108952FE0929F69
:10360000800D1124682F669566956695982F9770A2
:1036100085E0689FB001112440E050E080E0FB01AC
:10362000E40FF51FE955FA4F208130E0092E02C062
:10363000369527950A94E2F721703327042E01C0AE
:10364000220F0A94EAF7822B4F5F5F4F45305105F6
:1036500031F708952FE0929F800D1124E82FE69511
:10366000E695E695877051E001C0550F8A95EAF717
:1036700085E0E89FF0011124E955FA4F20E030E0A1
:1036800070E04081CB01022E02C0969587950A9486
:10369000E2F78170819584278523842781932F5FAA
:1036A0003F4F2530310569F70895609343067093C5
:1036B000440680934506909346060C94222B0F9364
:1036C0001F9341E050E060E070E004C0440F551FDC
:1036D000661F771F8A95D2F7409550956095709533
:1036E0008091430690914406A0914506B09146060C
:1036F0008A019B01082319232A233B23C901B8010E
:103700001F910F910C94551B2091D9058095822310
:103710008093D905982F977041F430E0482F082EF8
:10372000000C550B2417350721F49091970392FF55
:1037300007C08595859585950E945F1B1092D905D8
:1037400008950F931F9341E050E060E070E004C0E3
:10375000440F551F661F771F8A95D2F78091430645
:1037600090914406A0914506B09146068A019B01BE
:10377000082B192B2A2B3B2BC901B8011F910F9144
:103780000C94551B6093DE057093DF058093E00574
:103790009093E1050C94222B8091A60590917505DC
:1037A000891719F08F5F8770FBCF08950F931F93D0
:1037B000CF93DF938091740582958F7009F05DC07F
:1037C00080917105882309F458C08091A605109155
:1037D000750560916F0570917005C0917205D0916B
:1037E000730591E06F3F09F090E0292F06E0811703
:1037F00009F443C0209721F07F3F21F030E003C05F
:1038000031E001C0322F90E030FD34C0089FF0015C
:10381000099FF00D1124DF01AA58BA4F11963C916F
:103820001197371327C03C91361324C012963C9150
:10383000129731111FC013964D915C9114974C1B38
:103840005D0B483C5105B0F4809174058F70806128
:1038500080937405E558FA4F80818F708061808372
:103860008FE695E00E94110BDF91CF911F910F9190
:103870000C94CC1B01968770BACFDF91CF911F912A
:103880000F9108959F92AF92BF92CF92DF92EF92E5
:10389000FF920F931F93CF93DF93CDB7DEB761975E
:1038A0000FB6F894DEBF0FBECDBF8C0185E0F801E6
:1038B000DE011D9601900D928A95E1F7F801908145
:1038C0008181E28030916F056091700540917205B1
:1038D000509173054115510531F06F3F31F421E0EE
:1038E0003F3F19F403C021E001C020E0F22FF17046
:1038F0009F2E20FD23C1F801C380D4802FE6A22E85
:1039000025E0B22EF0907105F601E41BF50BFF20C7
:1039100009F4CEC020917405E83CF10508F099C087
:10392000422F407F09F051C0681311C039130FC0F6
:10393000FE2CE1100CC02F70206120937405C5018E
:103940000E94110B80917405F801858337C1CD2841
:1039500031F08F3F31F421E09F3F19F403C021E0A3
:1039600001C020E020FD03C021E02E2502C020E0A0
:1039700030E0F22FF170FF2E20FF1DC02091A60530
:103980004091750556E0241709F4F6C030E0529FC7
:10399000F001539FF00D1124EA58FA4F618186130C
:1039A00006C06081961303C06281E61204C02F5FD7
:1039B0003F4F2770E8CFFE2CEE2009F4FFC0809126
:1039C000740581608093740550C0681307C0391373
:1039D00005C0E11003C0F80125838DC09D878E8747
:1039E0008D859E850E94F92A882369F1EE2059F180
:1039F00020917405822F82958F7090E0029774F069
:103A000080916F059091700598878F831986DB866A
:103A1000CA862C87CE0107960E94110B86E0F8011A
:103A2000AFE6B5E001900D928A95E1F70E94D61BB2
:103A30000DC06817E1F09D878E878D859E850E9459
:103A4000F92A81111EC0C8010E94110BFF24F394B2
:103A5000B5C0422F407F69F78FE695E00E94110BB9
:103A600086E0F50111928A95E9F7F12CA7C0391388
:103A7000E2CFE110E0CFF8012583C8010E94110BCD
:103A800057C0EE2001F320917405822F82958F702C
:103A900090E002971CF280916F05909170059A83D7
:103AA00089831B82DD82CC822E83CE010196B4CF26
:103AB000E83CF105E8F5FE2CEE2029F2681327C05A
:103AC000391325C02091740520FD18C0822F8295DE
:103AD0008F70482F50E04115510581F0F801258382
:103AE0004F30510541F08F5F982F9295907F822F34
:103AF0008F70892B8583C8010E94110B86E0F80125
:103B0000AFE6B5E001900D928A95E1F757C09D8729
:103B10008E878D859E850E94F92A81117FCF8091A5
:103B20007405816080937405C8010E94110B46C022
:103B300086E0F50111928A95E9F740C0EE2009F47C
:103B400082CF9D878E878D859E850E94F92AF82ECB
:103B5000882309F478CF86E0F801AFE6B5E001905C
:103B60000D928A95E1F780916F05909170050E9402
:103B7000F31A0E94D61B22C09D878E878D859E8555
:103B80000E94F31A292F22952F70223028F49F705B
:103B900039F0811105C00BC0243028F49F7049F41E
:103BA000805E883020F0C8010E94110B9F2CF92CF8
:103BB00005C0F8019581907F99F7F9CF8F2D619617
:103BC0000FB6F894DEBF0FBECDBFDF91CF911F912E
:103BD0000F91FF90EF90DF90CF90BF90AF909F90AC
:103BE00008950F931F938091430690914406A091EE
:103BF0004506B09146068C019D01067011272227CB
:103C00003327BC01CD01063011052105310511F422
:103C1000686001C0677F1F910F910C94551B9091B4
:103C20003D06937089F0811102C0946007C088320C
:103C300010F09C6903C0880F880F982B90933D0665
:103C4000109214010C94BC1708956F927F928F927A
:103C50009F92AF92BF92CF92DF92EF920F931F93FA
:103C6000CF93DF933C01C0911101CC0FCC0FD4E076
:103C7000DC0FD43408F0D3E460914106669580915E
:103C8000390690913A060E947D25182FCD1708F02D
:103C900044C08C2E912CF401E85EFC4F9081809101
:103CA00012018923C1F1F401EE0FFF1FEE56FD4F03
:103CB000C080D12C80E7C81AD108F401EE0FFF1F95
:103CC000ED56FD4FA080B12CE0E2AE1AB108CC9CBD
:103CD0009001CD9C300D300D1124AA9CC001AB9CED
:103CE000900D900D1124820F931F0E944C25082FD8
:103CF00060913E0670913F0680914006E12E95014D
:103D0000A601F30109950E948725462F282F672FCA
:103D1000C4010E945217CF5FB9CF81E0D33408F0BD
:103D200080E0DF91CF911F910F91EF90DF90CF90C6
:103D3000BF90AF909F908F907F906F900895CF929B
:103D4000DF92EF92FF920F931F93CF93DF936C015B
:103D5000C0911101CC0FCC0FD4E0DC0FD43408F0AB
:103D6000D3E46091410666958091390690913A06B8
:103D70000E947D25182FCD1778F5EC2EF12CF70138
:103D8000E85EFC4F908180911201892319F1F701BF
:103D9000EE0FFF1FED56FD4F208130E0205231091C
:103DA000F701EE0FFF1FEE56FD4F408150E04057E8
:103DB000510960913E0670913F0680914006012FA7
:103DC000F60109950E948725462F282F672FC701E6
:103DD0000E945217CF5FCFCF81E0D33408F080E04C
:103DE000DF91CF911F910F91FF90EF90DF90CF90D7
:103DF0000895DF92EF92FF920F931F93CF93DF937B
:103E00007C01C0911101CC0FCC0FD4E0DC0FD43475
:103E100008F0D3E460914106669566958091390675
:103E200090913A060E947D25D82ECD17F0F40C2FE4
:103E300010E0F801E85EFC4F908180911201892327
:103E400091F060913E0670913F06809140062D2DC5
:103E50004C2FF70109950E948725462F282F672FA1
:103E6000C8010E945217CF5FE0CF81E0D33408F041
:103E700080E0DF91CF911F910F91FF90EF90DF9045
:103E800008959F92AF92BF92CF92DF92EF92FF92EE
:103E90000F931F93CF93DF936C01C0911101CC0F4F
:103EA000CC0FD4E0DC0FD43408F0D3E460914106A9
:103EB000669566958091390690913A060E947D2517
:103EC000182F80E4810F0E942B2590E8F92EF80E20
:103ED000812F0E942B2520E8922E980ECD1700F5F9
:103EE000AC2EB12CF501E85EFC4F9081809112015F
:103EF0008923A1F060913E0670913F0680914006B3
:103F0000E12E0C2F292D4F2DF60109950E948725B2
:103F1000462F282F672FC5010E945217CF5FDECF93
:103F200081E0D33408F080E0DF91CF911F910F91B1
:103F3000FF90EF90DF90CF90BF90AF909F9008954B
:103F4000CF92DF92EF92FF920F931F93CF93DF9365
:103F50006C01C0911101CC0FCC0FD4E0DC0FD43434
:103F600008F0D3E42091410630E040E050E06FEFEC
:103F70007FEF80E090E00E947F2D8901CD17E8F56A
:103F8000EC2EF12CF701E85EFC4F9081809112013C
:103F9000892389F190911006915097FD15C0492F02
:103FA000092E000C550BFA01E05FF94F8189C81307
:103FB000F3CF440F551FFA01E05FF94F218D328D89
:103FC0002017310748F701C0980160914106C901E7
:103FD0000E947D25AC0160913E0670913F06809164
:103FE0004006F60109950E948725462F282F672F46
:103FF000C7010E945217CF5FC1CF81E0D33408F0D0
:1040000080E0DF91CF911F910F91FF90EF90DF90B3
:10401000CF9008952F923F924F925F926F927F922E
:104020008F929F92AF92BF92CF92DF92EF92FF92C8
:104030000F931F93CF93DF93CDB7DEB727970FB6BC
:10404000F894DEBF0FBECDBF282E4B012091110189
:10405000220F220F2E83122F1C5F143408F013E45A
:10406000309110063983AE81A11708F077C08E8198
:10407000682E712CF301E85EFC4F90818091120153
:10408000892309F467C030903E0640903F06522CC9
:104090001F82C301880F991FDC01AE56BD4FBB8341
:1040A000AA83C301880F991FFC01ED56FD4FFD83C4
:1040B000EC83F9815F16E0F5E52CF12CAA81BB8138
:1040C000CC90D12CF701E05FF94F8181C81AD1085B
:1040D000AC81BD81AC90B12C8185A81AB108CC9C73
:1040E0009001CD9C300D300D1124AA9CC001AB9CD9
:1040F000900D900D1124820F931F0E944C25082FC4
:10410000F701EE0FFF1FE05FF94F60914106818DCF
:10411000928D0E947D257C019501A601632D742D51
:104120008F81F4010995362E472E8F835394C1CF8A
:10413000209140068F81382F329F312D1124832FFB
:10414000632D742D0E948725462F282F672FC301CA
:104150000E9452178E818F5F8E8385CF81E013344A
:1041600008F080E027960FB6F894DEBF0FBECDBFF3
:10417000DF91CF911F910F91FF90EF90DF90CF9043
:10418000BF90AF909F908F907F906F905F904F9077
:104190003F902F90089590913D06937041F0809349
:1041A0003E0660933F06409340060C94BC1708956A
:1041B000EF92FF920F931F93CF93DF937C018B01BC
:1041C0000E94D828811119C0E70101151105A1F03D
:1041D0008091E80085FD0AC08091E8008E77809389
:1041E000E8000E94D828882381F307C08991809332
:1041F000F10001501109E9CF80E0DF91CF911F91CB
:104200000F91FF90EF9008951F93CF93DF93CDB759
:10421000DEB7AA970FB6F894DEBF0FBECDBFE8E0B9
:10422000F6E08091F100819346E0E031F407C9F7B0
:1042300080910906833009F462C030F4813071F056
:10424000823009F49CC0B3C08A3009F488C08B3036
:1042500009F46DC0893009F0AAC020C08091080619
:10426000813A09F0A4C08091E800877F8093E8003C
:1042700080910C0690910D06892B21F460E284EE6A
:1042800095E003C060E080E090E070E00E949B2A2F
:104290008091E8008B778093E80089C080910806C0
:1042A000813209F084C080910C0690910D06009730
:1042B00019F0029709F07BC08091E800877F809316
:1042C000E8008091E80082FD05C08091060681111A
:1042D000F8CF6DC02091F3008091F20090E0922B16
:1042E000029729F48091F1008B7F813021F4809135
:1042F000F1008093E3058091E8008B7754C08091B2
:104300000806813A09F053C080910C0690910D0681
:10431000892B09F04CC08091E800877F8093E800EA
:104320008091E80080FFFCCF8091100137C0809120
:1043300008068132E1F580910C0690910D06892BDB
:10434000B1F58091E800877F8093E8000E940B29F7
:1043500080910A06809310010E94302B28C0809122
:104360000806813221F58091E800877F8093E8007C
:104370000E940B2980910B068093E20518C0809162
:104380000806813AA1F48091E800877F8093E800D5
:104390008091E80080FFFCCF8091E2058093F100DE
:1043A0008091E8008E778093E8000E940B2980912D
:1043B000E80083FFDDC18091080690910906492F2E
:1043C00050E04A30510508F0D3C1FA01E356FF4FDF
:1043D0000C940A2E803821F0823809F0C9C108C037
:1043E0008091040690910506992389F082600FC0A0
:1043F00080910C068F70873008F0BAC18093E90075
:104400008091EB0085FB882780F91092E90090915C
:10441000E800977F9093E8008093F1001092F100FC
:1044200070C1282F2D7F09F0A3C1882319F0823095
:1044300061F09EC180910A06813009F099C19330E4
:1044400009F080E0809305062EC080910A06811154
:104450002AC080910C068F702FEF280F263008F0AD
:1044600087C18093E9002091EB0020FF1CC09330AE
:1044700021F48091EB00806214C09091EB00906178
:104480009093EB0021E030E0A90102C0440F551FDA
:104490008A95E2F74093EA001092EA008091EB00DF
:1044A00088608093EB001092E9008091E800877F9C
:1044B0008093E8000E940B295BC1811159C11091C2
:1044C0000A061F778091E3008078812B8093E300B8
:1044D0008091E800877F8093E8000E940B298091FB
:1044E000E80080FFFCCF8091E30080688093E300C8
:1044F000111102C082E001C083E08093060638C13A
:104500008058823008F034C120910A0630910B06A1
:104510002C3D53E0350779F583E08A838AE289836D
:104520004FB7F894DE01139620E03EE051E2E32F0E
:10453000F0E050935700E49120FF03C0E295EF7044
:104540003F5FEF708E2F90E0EA3010F0C79601C009
:10455000C0968D939D932F5F243149F74FBF809173
:10456000E800877F8093E8006AE270E0CE01019660
:104570000E949B2AB4C080910C0690910D06432F97
:10458000552743305105A9F068F44130510509F42D
:10459000FEC04230510509F0EBC08BE590E0E1E44C
:1045A000F5E04BC04132510529F14232510589F104
:1045B000DFC0C901992781309105A1F058F0029719
:1045C00009F0D6C0EEEAF5E0E4918E2F90E0EEEA35
:1045D000F5E030C0E2EEF5E0E4918E2F90E0E2EEFF
:1045E000F5E028C0E0EDF5E0E4918E2F90E0E0EDFD
:1045F000F5E020C08330910508F0BAC0880F991FFC
:10460000FC01EF5BFD4F0190F081E02D89E090E02F
:1046100014C08330910508F0ABC0FC01EE0FFF1F02
:10462000E55CFD4F0190F081E02DDC01A85CBD4F01
:104630008C9190E0009709F49BC02091E800277FBF
:104640002093E80020910E0630910F0628173907B5
:1046500008F4C90140E0009789F120910606222361
:1046600009F43DC02530D9F12091E80023FD37C081
:104670002091E80022FD2FC02091E80020FFEBCF21
:104680004091F3002091F20030E0342B009759F074
:104690002830310540F444914093F1003196019760
:1046A0002F5F3F4FF3CF41E02830310509F040E064
:1046B0002091E8002E772093E800CDCF4111CDCF97
:1046C0000AC080910606882351F0853041F0809120
:1046D000E80083FD04C08091E80082FFF2CF809162
:1046E000E8008B778093E80043C0803809F040C031
:1046F0008091E800877F8093E8008091070680938F
:10470000F1008091E8008E77D3CE811131C0809185
:104710000A0690910B069927029754F58091E800BC
:10472000877F8093E80010910A06109307060E9485
:104730000B29111106C08091E30087FD02C081E0C2
:1047400001C084E08093060642E061EC81E00E94B3
:104750002A2942E261EC84E00E942A2942E261ECCB
:1047600082E00E942A2942E260EC83E00E942A292A
:104770008091E80083FF10C08091E800877F8093DC
:10478000E8008091EB0080628093EB0005C082E13D
:1047900090E0ECE9F5E051CFAA960FB6F894DEBFB1
:1047A0000FBECDBFDF91CF911F910895E42FF0E0B0
:1047B000EE0FFF1FED56FD4F6081621B0895E42F41
:1047C000F0E0EE0FFF1FEE56FD4F6081621B089573
:1047D000622F0895E42FF0E0EE0FFF1FEE56FD4F1D
:1047E000408134EE439F412D1124E82FF0E050E04A
:1047F000445E5F4FDA01A21BB1099D01B7FF03C000
:1048000031952195310993E0220F331F9A95E1F7F5
:10481000AF01421B530B9A0157FF02C020E030E06A
:10482000582F259F212D1124822F0895E42FF0E089
:10483000EE0FFF1FEE56FD4F408134EE439F412D9A
:104840001124E72FF0E050E0445E5F4FDA01A21B35
:10485000B1099D01B7FF03C031952195310993E05E
:10486000220F331F9A95E1F7AF01421B530B9A01B8
:1048700057FF02C020E030E0279F212D1124722F26
:1048800008959091960392FF0DC0282F287128302B
:1048900019F4877F846006C0282F2471243011F416
:1048A0008B7F886093FF0DC0282F2871283119F461
:1048B000877E846106C0282F2471243111F48B7EF9
:1048C00088612091970320FF0DC0382F3871383050
:1048D00019F4877F816006C0382F3171313011F4AF
:1048E0008E7F886021FF0DC0282F2871283119F490
:1048F000877E816106C0282F2171213111F48E7EBF
:10490000886194FD877E0895FC019B01009721F446
:1049100077FF2BC080E80895AC0197FF04C04427BF
:104920005527481B590BB901640F751F37FD0CC083
:10493000241B350BC901A5E0880F991FAA95E1F743
:104940000E94F62D80E20CC0CB0165E0880F991F14
:104950006A95E1F7BA01621B730B0E94F62D80E69F
:10496000861BF7FF03C08195089580E00895EF92BC
:104970000F931F93CF93DF93D62FC72F182FC90103
:104980000E19010FBA010E948424081B202F219FB9
:10499000212D1124822F6D2F7C2FDF91CF911F911C
:1049A0000F91EF900895EF920F931F93CF93DF93A2
:1049B000D62F172FC82FC9010E19070FBA010E9451
:1049C0008424702F781B719F712D11246D2F8C2FD3
:1049D000DF91CF911F910F91EF900895FF920F9368
:1049E0001F93CF93DF93F62ED72F182FC901C12F16
:1049F000C01BBA010E948424982F990F890FC81BED
:104A00002C2F219F212D1124822F6F2D7D2FDF919F
:104A1000CF911F910F91FF900895FF920F931F93D5
:104A2000CF93DF93F62E172FD82FC901C72FC01BA6
:104A3000BA010E948424982F990F890F7C2F781B2C
:104A4000719F712D11246F2D8D2FDF91CF911F91AB
:104A50000F91FF900895482F982F46FD9095E92FCC
:104A6000EF739F7046FD9F5FE295EF70EE0FF0E0F1
:104A7000E55AFC4F2181299F802D212D11248295FB
:104A80008F702295207F822B3081982F930F892F52
:104A900047FD819580580895BC018230910508F446
:104AA0000895613E8EE1780748F49B0195E03695C4
:104AB00027959A95E1F748E0420F01C04FEF91E04A
:104AC000242F30E0290F311D35952795229FF001C5
:104AD000239FF00DF00D11246E177F0718F44FEF90
:104AE000420F04C02F3F39F091E0920F491740F771
:104AF0008FEF890F08958FEF089520E030E0869FB3
:104B0000212D969F200D311D1124C9010895CF92AA
:104B1000DF92EF92FF920F931F93CF93DF93F62EC6
:104B2000472FE82FF0E0711106C0EA51FA4F849147
:104B3000782F682F73C0272F30E0EA51FA4FE491A5
:104B4000FE2F0E2F10E056E0659FC0011124CFEF1D
:104B5000D0E0BE010E94E22D5BEA5603C001579FE0
:104B6000900D11248F0D911D8F0D911D982F990F70
:104B7000980F7E01E21AF30AE09ED001E19EB00D8B
:104B8000F09EB00D11248B2F499FA0011124452FB9
:104B900055277E01E41AF50AE09EA001E19E500D22
:104BA000F09E500D11246E01C91AD108C29E7001E9
:104BB000C39EF00CD29EF00C11242F2D3327C21B64
:104BC000D30BC09F9001C19F300DD09F300D112499
:104BD000932F6230710591F048F461157105E1F091
:104BE00061307105B9F49E2FE52F16C06430710550
:104BF00069F040F06630710579F00CC09E2FEB2F04
:104C0000832F0AC0EB2F8F2F952F06C09B2F8E2F3F
:104C1000E32F02C09B2F852F7E2F692FDF91CF912D
:104C20001F910F91FF90EF90DF90CF900895F8942F
:104C3000E82FE295EF70F0E031A1282F2F7081E08E
:104C400090E001C0880F2A95EAF7982F909593235A
:104C500091A392A1892B82A378940895CF93DF9397
:104C60000E943D17EC018238910559F1A0F481337F
:104C7000910509F473C040F48932910509F467C0C5
:104C80008A9709F472C084C08533910509F458C02D
:104C9000C997B9F07DC0833E910571F138F4803E2B
:104CA0009105B1F0823E910511F172C0863E9105E9
:104CB000B9F1873E9105C9F1843E910509F068C0BC
:104CC00024C08091960380FD5DC081FD5BC060C003
:104CD0008091960380FD50C08091970380FF36C17C
:104CE0008091960384FD30C1C3EED0E02FC1809146
:104CF000960382FF2BC1F4CF8091960382FD3FC0C3
:104D00008091970380FD3EC0EBCF8091970381FF98
:104D10001DC18091960384FD17C1C7EED0E016C176
:104D20008091960383FF12C1F4CF8091960383FD97
:104D30002CC08091970381FFECCFC4EED0E006C178
:104D40008091960385FF02C1C9E2D0E0FFC0809147
:104D5000960385FFFBC0C5E3D0E0F8C080919603C1
:104D600086FFF4C0CAE2D0E0F1C08091960386FFCE
:104D7000EDC0C1E3D0E0EAC0C9E3D0E0E7C0C2EED5
:104D8000D0E0E4C0C0EED0E0E1C0C6EED0E0DEC0CE
:104D9000C11582E5D80708F066C0C11591E5D907AD
:104DA00028F0DC2FCC27C16FD06AD0C0C83ED10517
:104DB00060F5C03ED10508F0C9C0C83AD105B0F4CD
:104DC000C53AD10540F0C55AD0E0CD59DC4FC88175
:104DD000D0E0D064BBC0C130D10509F4B7C008F43D
:104DE000B3C0C430D10508F4AFC0B0C0CF3BD105CB
:104DF00008F0AAC0C85AD0E0CC0FDD1FCA59DC4F5A
:104E00000990D881C02DD464A1C0C11520E5D20776
:104E1000E0F0CE0174E0969587957A95E1F783707E
:104E20009C2F937021E030E002C0220F331F9A952F
:104E3000E2F73C68382BCF70C695C69580E2C89FD4
:104E4000E0011124C22BD32B81C0C11580E4D80707
:104E500018F0DF70D06A7AC0CE019A9581159F4113
:104E600008F474C071C0C11586E5D807F0F5C11506
:104E700095E5D90750F08C2F0E9441248F71C82FDF
:104E8000D0E0DC2FCC27D06261C0C11524E5D20769
:104E900028F0DC2FCC27C46FD06A58C09E01237045
:104EA00033278C2F86958695C115D34578F4C1E0BC
:104EB000D0E002C0CC0FDD1F2A95E2F720E2829FEE
:104EC000C0011124C82BD92BDC6840C0C1E0D0E060
:104ED00002C0CC0FDD1F2A95E2F720E2829FC001BD
:104EE0001124C82BD92BDA6831C0C1152AE5D207A5
:104EF000E8F4C11589E5D80780F08C2F8F700E94E7
:104F0000412494E0D695C7959A95E1F7CF70D0E00B
:104F1000DC2FCC27D069C82B19C0C11598E5D9075B
:104F200098F0DC2FCC27C06FD06A10C0CE0190560D
:104F30008115904248F48D2F8F710E944124DD2706
:104F4000D0628F71D82B02C0C0E0D0E0CE01DF91DB
:104F5000CF9108959F92AF92BF92CF92DF92EF923E
:104F6000FF920F931F93CF93DF9308E111E0C8E9FD
:104F7000D3E082EAE82E83E0F82E912CCC24C3946F
:104F8000D12CB801D8018C91F894E82FE295EF70FC
:104F9000F0E021A18F70A60102C0440F551F8A9531
:104FA000E2F7CA01922F982B91A392A180958923B1
:104FB00082A3789400C0EDE1F1E020E030E0A12C84
:104FC000B12C4191842F82958F7090E0DC019096F6
:104FD0008C9190E04F7002C0959587954A95E2F7C5
:104FE00080FD08C0C601022E02C0880F991F0A94D6
:104FF000E2F702C080E090E0A82AB92A2F5F3F4F75
:105000002F303105F1F60F5F1F4FFB0180810E94A9
:105010001726F0EAFA95F1F788819981A816B90662
:1050200021F0B982A88281E001C080E0982A22960E
:10503000EC16FD0609F0A5CF992049F081E0809398
:1050400049060E9441199093480680934706809133
:1050500049068823E9F120914706309148064FB769
:10506000F8948091D1039091D203A091D303B09191
:10507000D4034FBF821B930B069750F18091980386
:10508000909199039093E2038093E10380919A03B6
:1050900090919B039093E4038093E30380919C039E
:1050A00090919D039093E6038093E50380919E0386
:1050B00090919F039093E8038093E7038091A0036E
:1050C0009091A1039093EA038093E903109249061B
:1050D000892DDF91CF911F910F91FF90EF90DF907D
:1050E000CF90BF90AF909F9008951F920F920FB6F0
:1050F0000F9211242F933F934F935F936F937F935E
:105100008F939F93AF93BF93CF93DF93EF93FF93CF
:10511000C091E900CF708091EC00D82FD17080FD54
:10512000D0E81092E9008091F000877F8093F00032
:1051300078940E9404211092E9008091F000886028
:105140008093F000CD2BCF70C093E900FF91EF91D9
:10515000DF91CF91BF91AF919F918F917F916F918F
:105160005F914F913F912F910F900FBE0F901F9025
:105170001895E8EDF0E080818E7F80831092E20048
:105180001092DA001092E100A0EEB0E08C91816004
:105190008C9380818F77808319BCA7EDB0E08C91D0
:1051A0008E7F8C9380818F7E808310924A06089533
:1051B0002091E4003091E50095E64091EC00842FC9
:1051C000817040FF23C08091E80080FD1DC0809168
:1051D0000606882399F0853099F08091EB0085FDD3
:1051E00011C04091E4005091E5002417350729F3E0
:1051F000915011F09A01E1CF84E0089582E0089582
:1052000083E0089581E0089580E008954091E800EA
:1052100042FFDDCF08958091080687FF11C080917D
:10522000E80082FD05C0809106068111F8CF11C00B
:105230008091E8008B770BC080910606882349F0A7
:105240008091E80080FFF8CF8091E8008E7780930E
:10525000E8000895982F973068F59093E900981723
:1052600039F07091EC002091ED005091F00003C0F6
:10527000242F762F50E021FD02C09F5FECCF3091AC
:10528000EB003E7F3093EB003091ED003D7F30939B
:10529000ED003091EB0031603093EB007093EC0047
:1052A0002093ED005093F0002091EE0027FDE5CF14
:1052B00080E008958F708093E90081E00895CF9297
:1052C000DF92EF92FF920F931F93CF93DF93C8ED7E
:1052D000D0E088818F7E8883E7EDF0E08081816077
:1052E000808384E082BF81E080934A0688818E7F3C
:1052F000888302EE10E0F80110821092DA0081EE4D
:10530000C82ED12CF601108288818F7788838881FE
:105310008068888388818F7D888319BC10920606F7
:1053200010920706109205061092040690EEE92EE0
:10533000F12CF70180818B7F808388818160888355
:1053400042E060E080E00E942A29F60180818E7FA1
:105350008083F80180818160808380818860808380
:10536000F70180818E7F8083888180618883DF91CF
:10537000CF911F910F91FF90EF90DF90CF90089504
:105380001F920F920FB60F9211242F933F934F93BA
:105390005F936F937F938F939F93AF93BF93EF939D
:1053A000FF938091E10082FF09C08091E20082FFBB
:1053B00005C08091E1008B7F8093E1008091DA004D
:1053C00080FF2AC08091D80080FF26C08091DA003B
:1053D0008E7F8093DA008091D90080FF18C080E131
:1053E00089BD82E189BD09B400FEFDCF81E08093D3
:1053F000060680914A0681110FC00E94B9280E94BA
:105400005F298091E20084608093E20005C019BCAE
:105410001092060610924A068091E10080FF17C0A4
:105420008091E20080FF13C08091E2008E7F809324
:10543000E2008091E20080618093E2008091D800D8
:1054400080628093D80019BC85E080930606809125
:10545000E10084FF34C08091E20084FF30C080E12D
:1054600089BD82E189BD09B400FEFDCF8091D800DD
:105470008F7D8093D8008091E1008F7E8093E10042
:105480008091E2008F7E8093E2008091E200816053
:105490008093E20080910706882311F084E007C022
:1054A0008091E30087FD02C081E001C083E080932A
:1054B00006060E94302B0E94C71610924B06809160
:1054C000E10083FF27C08091E20083FF23C0809129
:1054D000E100877F8093E10082E0809306061092CE
:1054E00007068091E1008E7F8093E1008091E200C9
:1054F0008E7F8093E2008091E20080618093E200E1
:1055000042E060E080E00E942A298091F0008860FB
:105510008093F000FF91EF91BF91AF919F918F9198
:105520007F916F915F914F913F912F910F900FBE9F
:105530000F901F90189520910E0630910F06261798
:10554000370748F06115710539F42091E8002E778E
:105550002093E80001C0B901FC0120E0611571054C
:1055600079F1809106068823F1F18530F1F180917F
:10557000E80083FD3CC08091E80082FD2EC0809150
:10558000E80080FFEBCF2091F3008091F20090E0E3
:10559000922B6115710551F08830910538F42191F5
:1055A0002093F100615071090196F3CF21E0089733
:1055B00009F020E08091E8008E778093E800CECF5C
:1055C0002111CFCF0AC080910606882361F0853073
:1055D00061F08091E80083FD0AC08091E80082FFBD
:1055E000F2CF80E0089582E0089583E0089581E09D
:1055F00008950E94F31A292F2F70E92FE295EF707A
:105600004E2F50E0FA013297EE30F105B8F4E9552B
:10561000FF4F0C940A2E803F99F018F4883E70F4E6
:105620000FC0843F59F40CC0883E50F0813F31F4E4
:1056300007C0822F869586958695089580E0089507
:1056400081E0089580E090E00E94B11680E090E053
:105650000E949B161092DB051092DA050C94511AE9
:105660001092DC0580911001882331F0809196031F
:1056700087FF02C08EE101C086E0E1E5F5E0DF01D1
:105680001D928A95E9F70C94222B882341F080958E
:105690009091DC0589238093DC050C94511A0895C0
:1056A000882339F09091DC05892B8093DC050C94DC
:1056B000511A0895882379F19CEF980F913A30F4AC
:1056C000682F8FE495E00E94721914C090E2980F41
:1056D000983090F4877021E030E0A90102C0440FB7
:1056E000551F8A95E2F7CA0180959091DC058923C0
:1056F0008093DC050C94511A9BE5980F933020F4AD
:1057000080E090E00C94B116885A873120F480E054
:1057100090E00C949B160895CF93882309F46DC0F4
:105720009CEF980F913AC8F5C82F809110018823FB
:10573000E1F08091960387FF18C0EC2FE695E6957F
:10574000E695F0E0E15BFA4F8281282F30E04C2FA4
:10575000477081E090E002C0880F991F4A95E2F7F8
:1057600082239323892B61F412C0E1E5F5E087E5FC
:1057700095E02191C21721F08E179F07D1F707C03E
:105780006C2F8FE495E00E9472190E94511A6C2FC1
:105790008FE495E00E949A1913C090E2980F983018
:1057A00090F4877021E030E0A90102C0440F551F3A
:1057B0008A95E2F7CA019091DC05892B8093DC057C
:1057C000CF910C94511AEBE5E80FE33040F4F0E090
:1057D000ED59FC4F808190E0CF910C94B116885A1E
:1057E000873158F4E82FF0E0EE0FFF1FEA59FC4F25
:1057F00080819181CF910C949B16CF9108951F9336
:10580000CF93DF93182F893319F0C0E0D0E002C0A6
:10581000C0E5D0E0812F0E948C2B209741F08FE9CA
:105820009FE00197F1F700C000002197F6CF812F8C
:10583000DF91CF911F910C945A2B1092B9008CE0FC
:105840008093B8000895EF92FF920F931F93CF9328
:10585000DF93182FEB011092BC0084EA8093BC0008
:105860000E9441197C018091BC0087FD0EC0CF3F92
:105870008FEFD807C1F30E9441198E199F098C1729
:105880009D0788F38EEF9FEF2EC08091B900887F2F
:10589000883041F08091B900887F803119F08FEF16
:1058A0009FEF21C01093BB0084E88093BC000E944E
:1058B00041198C018091BC0087FD0CC0CF3F8FEF58
:1058C000D807C1F30E944119801B910B8C179D07CB
:1058D00088F3D8CF8091B900887F883111F0803467
:1058E000F1F680E090E0DF91CF911F910F91FF9052
:1058F000EF9008950F931F93CF93DF93EB01809365
:10590000BB0084E88093BC000E9441198C01809107
:10591000BC0087FD0EC0CF3F8FEFD807C1F30E94B8
:105920004119801B910B8C179D0788F38EEF9FEF19
:105930000CC02091B900287F81E090E0283211F45A
:1059400080E090E0919581959109DF91CF911F9131
:105950000F910895CF92DF92EF92FF920F931F93D2
:10596000CF93DF936B018A017901B9010E94232C47
:10597000E6010C0D1D1DC017D10761F424E9209329
:10598000BC00DF91CF911F910F91FF90EF90DF90BE
:10599000CF90089597FDF2CFB70189910E947A2C9C
:1059A000EACF8F929F92AF92BF92CF92DF92EF9207
:1059B000FF92CF93DF93EC01688179818A819B818B
:1059C000611571058105910521F464E279ED8BE59E
:1059D00097E02DE133EF41E050E00E947F2D490137
:1059E0005A019B01AC01A7EAB1E40E949E2D6B0114
:1059F0007C01ACEEB4EFA50194010E94AC2DDC015A
:105A0000CB018C0D9D1DAE1DBF1DB7FF03C00197BF
:105A1000A109B04888839983AA83BB839F77DF91CC
:105A2000CF91FF90EF90DF90CF90BF90AF909F907D
:105A30008F9008950E94D12C089580E091E00E94FB
:105A4000D12C0895A0E0B0E0809300019093010173
:105A5000A0930201B09303010895DC01CB01FC0186
:105A6000F999FECF06C0F2BDE1BDF89A319600B4B7
:105A70000D9241505040B8F70895F999FECF92BD6C
:105A800081BDF89A992780B50895A8E1B0E042E079
:105A900050E00C942F2DDC01A40FB51F4150504055
:105AA00048F0CB01840F951F2E910E945C2D415030
:105AB0005040D0F70895262FF999FECF92BD81BDB1
:105AC000F89A019700B4021639F01FBA20BD0FB63C
:105AD000F894FA9AF99A0FBE08950396272F0E9418
