:100000000C944B040C9492040C9492040C9492045F
:100010000C9492040C9492040C9492040C94920408
:100020000C9492040C9492040C94662C0C941B2B4C
:100030000C94FF1B0C9492040C9492040C94920464
:100040000C9492040C9492040C9492040C949204D8
:100050000C9492040C94B21B0C9492040C94920491
:100060000C9492040C9492040C9492040C949204B8
:100070000C9492040C9492040C9492040C949204A8
:100080000C9492040C9492040C9492040C94920498
:100090000C9492040C9492040C9492040C94920488
:1000A0000C9492040C9492040C949204DA07E307E3
:1000B0000E084B088D08D408D708DA08DD08E208D6
:1000C000E508E808EB08EE08F308F608FB08FE0868
:1000D000010906094A098E092C0A2F0A5D0D740DC3
:1000E0007A0D1F0E1F0EB20DC20DD50D180E7D110B
:1000F00088118D11921197119C11A111A611AB11AC
:10010000B011B511BC11BE11C011C2119D0F9D0FD0
:100110009D0F9D0F9D0F231223125D125D12B012D1
:10012000CC125B145B14D912B613C313C313892406
:10013000B0246326B0246326FC241F2563262026D2
:100140003026B12DB12DC42DC42DBA2DC42DC42DF2
:10015000C42DB12DB12DBF2DC42DC42DBF2DFD3704
:100160007A585A000004E6D6B4460200210116006F
:100170000000742FE5A3E00357013D5D003D888931
:10018000C65436C3174FE4DD5A3D6D1693E90A3E57
:1001900064A244A28CAC88DF8BA2F0A99E9C2EB8EE
:1001A000A77964991D825064EE47EEDC836F6B661D
:1001B00081E33FC0391525263CD286E82A621B9F81
:1001C00038EE9C0AF5B61EA85C29E8265CE2E249F6
:1001D0005C973A723C18848DDAA38ADDB19ACC28F8
:1001E0008C017CD79295762AE537329C5B06A16A12
:1001F00080A5DC8CEE1901BB67046969A259B74977
:10020000A16BC3178E7E8A78FD0602D69F10CE683A
:10021000B386ECDBA7DFA94616F33DE956A43FDC25
:10022000ADD47C263FFFCA115047DDC900C15C8BAD
:100230004566D7A3B8745F26A6F683DB46A3D71915
:10024000DA4D05DD044CFA3229288D2C03B9E2E59C
:100250007BE0A6697F7C76604F4C9AECFFC02B9BBD
:1002600018EEBA75E2EE3AB760C709DF341BC4E690
:10027000CAE66EFC9B2EC0411E024D41533F5DA657
:10028000EE96BB53969645738A93DB6029D1307FF7
:100290001FFEF7BAD613E5D9BC0769EEF52FE4C304
:1002A00082930892FC76B2F88BBD6567653AF6DFFB
:1002B000AA4E7F2C22353545AD0000000000A5EE8A
:1002C000677DFF426AB20001D902D80600009E276E
:1002D000C96BB1C467FB020000000004595A00005A
:1002E000000000000000000000000000000000000E
:1002F00000000000000000000000000000000000FE
:1003000000007E0F00D4FFFFFFC700000078000050
:100310000000000000002A2B280000000000000060
:1003200000000000000000000029000000002C1E5A
:100330003420212224342627252E362D3738271E17
:100340001F202122232425263333362E37381F043D
:1003500005060708090A0B0C0D0E0F1011121314D5
:1003600015161718191A1B1C1D2F3130232D350493
:1003700005060708090A0B0C0D0E0F1011121314B5
:1003800015161718191A1B1C1D2F3130354C165C09
:100390001E001F0020002100220023002400250051
:1003A000260027002D002E0031002B0014001A001B
:1003B0000800150017001C0018000C0012001300A4
:1003C0002F0030002A0039610400160007000900E0
:1003D0000A000B000D000E000F00330034004C002B
:1003E0002800E1001D001B00060019000500110097
:1003F0001000360037003800E50000000251E00030
:10040000E300E200000000002C00000000000000FB
:100410000000E60001510000E40035003A003B0016
:100420003C003D003E003F004000410042004300D0
:1004300044004500010001000100520001000100DC
:100440000100B200010049000100460047004800D9
:10045000005C0100500051004F000100010001004C
:100460000100010001004A004B0001000100AC0046
:10047000AA00A900A80001000100145C010001000D
:100480004D004E00AB000000010001000100010022
:10049000000000000100000000000000000001005A
:1004A00001000000010001003A003B003C003D005B
:1004B0003E003F0040004100420043004400450030
:1004C0004C000100C25C0100C55CC65CC75CC85C36
:1004D000C95CCA5CC35C010001000100005C010052
:1004E0000100010001000100010001000100CB5CDE
:1004F000CC5C0100010001000100010001000100CD
:1005000001000100010001000100010001000100E3
:1005100001000000010001000100010000000000D6
:1005200001000000000000000000010001000000C8
:1005300001000100010001000100010001000100B3
:1005400001000100010001000100010001000100A3
:100550000100010001000100010001000100010093
:100560000100010001000100010001000100010083
:100570000100010001000100010001000100010073
:100580000100010001000100010001000100010063
:100590000100010001000100010001000100000054
:1005A0000100010001000100000000000100000046
:1005B0000000000000000100010000000100050132
:1005C0000902A10185020901A100050919012905F6
:1005D00015002501950575018102950175038101BD
:1005E0000501093009311581257F950275088106BD
:1005F00009381581257F950175088106050C0A3893
:10060000021581257F950175088106C0C005010985
:1006100080A101850319012AB700150126B70095AD
:100620000175108100C0050C0901A10185041901A3
:100630002AA002150126A002950175108100C005AF
:10064000010906A1018505050719E029E71500251F
:10065000019508750181020507190029EF1500258C
:100660000195F075018102050819012905950575A7
:10067000019102950175039101C00660FF0961A116
:10068000010962150026FF009520750881020963A3
:10069000150026FF00952075089102C00501090686
:1006A000A101050719E029E7150025019508750145
:1006B00081029501750881010507190029FF1500C0
:1006C00026FF009506750881000508190129059582
:1006D0000575019102950175039101C009025B0046
:1006E000030100A0FA09040000010301010009212F
:1006F000110100012240000705810308000A0904D6
:100700000100020300000009211101000122220062
:1007100007058203200001070503032000010904E7
:100720000200010300000009211101000122BC00A8
:100730000705840320000A12011001000000085A76
:100740004421130200010203011C037600690061C9
:10075000006C003A0066003600340063003200622C
:1007600000330063000000180344005A00360030D4
:10077000005200470042005F0057004B004C000051
:10078000000E0344005A0054004500430048000096
:10079000000403090400010101010101010101023A
:1007A0000202020202020202030303030303030321
:1007B00004040404040404050505050506060606EC
:1007C00006070707070708080808090909090A0AA8
:1007D0000A0B0B0B0C0C0C0D0D0D0E0E0E0F0F0F4C
:1007E00010101111111212131314141515161617D7
:1007F00017181819191A1A1B1B1C1D1D1E1E1F2045
:1008000020212222232424252626272829292A2B91
:100810002C2D2D2E2F3031323233343536373839B6
:100820003A3B3C3D3E3F40414243444546474849B0
:100830004A4C4D4E4F50515354555658595A5B5D82
:100840005E5F616264656668696B6C6D6F70727320
:100850007577787A7B7D7E8082838587888A8C8E87
:100860008F91939596989A9C9EA0A2A3A5A7A9ABB9
:10087000ADAFB1B3B5B7BABCBEC0C2C4C6C9CBCDAB
:10088000CFD1D4D6D8DBDDDFE2E4E7E9EBEEF0F35D
:10089000F5F8FAFDFF0011241FBECFEFDAE0DEBF4E
:1008A000CDBF04B603FE27C08091F0069091F106FB
:1008B000A091F206B091F3068730904BA740B04B61
:1008C000D1F41092F0061092F1061092F2061092F6
:1008D000F30614BE84B7877F84BF0FB6F894A8953B
:1008E00080916000886180936000109260000FBE6C
:1008F000E0E0F8E3099513E0A0E0B1E0E6EEF1E610
:1009000002C005900D92A437B107D9F726E0A4E7FD
:10091000B3E001C01D92A03FB207E1F70E9494042A
:100920000C94F1300C940000CF93DF93CDB7DEB779
:10093000E7970FB6F894DEBF0FBECDBF84B7877FB1
:1009400084BF0FB6F894A895809160008861809369
:100950006000109260000FBE90E080E80FB6F8943F
:1009600080936100909361000FBE85B7806885BF5A
:1009700085B7806885BF82EF9AE190937503809375
:1009800074030E945F2B0E94052C8091E20084601A
:100990008093E20078948091EB048823A1F0109179
:1009A000E9001F709091EC00892F817090FD80E824
:1009B000182B1092E9008091E80083FD0E94A32388
:1009C0001F701093E90082E084BD93E095BD9AEF1B
:1009D00097BD80936E0085EF0E94832884EF0E946C
:1009E000832881EF0E94832883E30E94832882E387
:1009F0000E94832805E211E063E3E62E61E0F62E13
:100A0000D8018D918D010E948328E016F106C1F76F
:100A1000E6E7F3E080E893E0A6E1B4E011921192FA
:100A20001D921D928E179F07C9F70E94532AEFEB64
:100A3000FDE53197F1F700C000000E94532A809134
:100A4000160480FF17C06FEF82E290E00E9425300D
:100A50006FEF83E290E00E9425306FEF84E290E038
:100A60000E9425306FEF7FEF80E090E00E944330DE
:100A70000E948E1B80E090E00E940F308B3E9E4FC4
:100A800011F00E94921C0E94A0161092B406EDEC88
:100A9000F6E08DED96E02FEF3FEF219331938E1727
:100AA0009F07D9F710928203EBE9F3E08BEA93E01A
:100AB0002FEF3FEF219331938E179F07D9F780E0F7
:100AC00090E00E940F308B3E9E4F21F00E94921CBE
:100AD0000E94E61945E050E06CE170E081EE96E09E
:100AE0000E94F72F8091E1068C7F11F40E94E61995
:100AF00082E290E00E9407308E3F81F483E290E032
:100B00000E940730823251F484E290E00E94073064
:100B100091E0843209F090E0892F01C080E080FDEF
:100B200002C00C942D0E80E090E00E940F308B3EAE
:100B30009E4F11F00E94921C82E090E00E940730CC
:100B400080930B040E94811C909381038093800307
:100B500083E090E00E940730682F70E080E090E032
:100B60000E94551E86E091E09093F9038093F8036C
:100B70005EE0552E442443949E012F5F3F4F1901A0
:100B80000E94532A81110E94E71BACE0B4E0E6E129
:100B9000F4E0C12CD12C7C2CA190B1908D919D9131
:100BA0008A259B25009709F44EC110E0EE24E394BA
:100BB000F12C9C012E213F21232B09F43EC119A7C2
:100BC0007AA6AE20BF2081E0A114B10409F480E030
:100BD0008BA70E94F31B8160782F9DA78CA749A546
:100BE0005AA56BA58DA50E94AA17F601EE0FFF1F4F
:100BF000E45FFB4F80819181E826F926F182E08253
:100C0000AB2881F05C9CF0015D9CF00D1124EE5B43
:100C1000FD4FE10FF11D80818F3F21F08FAB9924B3
:100C2000939401C0912C80908203E92CF12CC70190
:100C3000880D911D0997A4F188E0A82EB12CAE185B
:100C4000BF08B7016F5F7F4F6E577C4FA50183E8E8
:100C500093E00E94E130B701675F7F4F6E577C4F92
:100C6000A5018BE893E00E94E130A501440F551FD8
:100C7000B701660F771F675E7F4F6E577C4F8BE91A
:100C800093E00E94E130B7016F5E7F4F6E577C4F5B
:100C9000A50183E993E00E94E1308A948092820367
:100CA0008091820390E08FA8A82DB0E09D01220FD3
:100CB000331F28573D4FAA0FBB1FBD0167577D4FFC
:100CC00041E0480F9915B0F490E0FC01EE57FC4F5D
:100CD000D9015C915183DB015C9151878FA8818A96
:100CE000880F991FFC01EE57FC4F128E118E91E078
:100CF000842FE6CF809382038091E1068C7F843538
:100D000009F0B9C0AFEFA70D01E0070D5FEF510F7C
:100D100041E0410F511778F45C9CF0015D9CF00DAF
:100D20001124EE54FC4FE50FF11D208130E1230F1B
:100D300008F42FEF2083212F30E05C9CC0015D9CE4
:100D4000900D11248E549C4FFC01E20FF31F708113
:100D5000B0E26B2F760F08F47FEF70834E3051F0C6
:100D6000FC01E40FF11D708180E1682F760F08F41B
:100D70007FEF7083053009F430C0E02EF12C51175D
:100D800088F45E9CF0015F9CF00D1124EE54FC4F42
:100D9000E50FF11D80819DE0782F092F700F08F479
:100DA0007FEF70835E9CC0015F9C900D11248E5478
:100DB0009C4FFC01E20FF31F608170E1670F08F4A4
:100DC0006FEF60834E3049F0FC01E40FF11D60814C
:100DD0007DE0670F08F46FEF6083A71508F04BC044
:100DE000B0E0511778F45A9EF0015B9EF00D11248B
:100DF000EE54FC4FE50FF11D50816DE0560F08F4E5
:100E00005FEF50835A9EF0015B9EF00D1124EE546B
:100E1000FC4FDF01A20FB31F3C9120E1320F08F419
:100E20003FEF3C934E3039F1E40FF11D20813DE05E
:100E3000230F08F42FEF20831EC01F5FEE0CFF1C52
:100E40001E3009F0B6CE1FEFC11AD10A25E0C21636
:100E5000D10409F0A0CE8FEF8EA78FA718AA0E9409
:100E6000F31B8160782F9AAB89AB4EA55FA568A96B
:100E70008AA90E94AA178091AB039091AC03A0911C
:100E8000AD03B091AE032FB7F894C090FA03D090A1
:100E9000FB03E090FC03F090FD032FBFC81AD90AB2
:100EA000EA0AFB0A0E94E71B6093AB037093AC0352
:100EB0008093AD039093AE03A0918203E2E8F3E048
:100EC0007A2EB0E088248A94982CA12CB12C8C180E
:100ED0009D08AE08BF088BAA9CAAADAABEAAAB17F4
:100EE000B9F0418D528D4A01A12CB12C0BA91CA93E
:100EF0002DA93EA9081519052A053B0510F47A9479
:100F000004C04C0D5D1D528F418FBF5F3296E7CFFD
:100F1000709282032091EE06211109C02091E10612
:100F2000322F337021F0B22EB694B69401C0B12C9A
:100F3000209114012130F1F038F0223009F4BEC2C2
:100F4000233009F4C8C2E4C2109211016093DD0697
:100F50007093DE068093DF069093E00689E2E2E874
:100F6000F3E0A4EBB6E001900D928A95E1F7409290
:100F70001401CEC280910501B8120DC02091E10686
:100F8000237030E04091040150E081E024173507E0
:100F900019F480E001C081E08170809313014B2D32
:100FA00050E04831510508F05FC2FA01EA5AFF4F9C
:100FB0000C94D430882309F457C240E060E080E00C
:100FC0000E945E1951C2109111018DE0189F102DE1
:100FD00011240DE0010F0F3308F00EE36091E206DB
:100FE0007091E3068091E4060E94C426F62EE72E57
:100FF000D82E101708F0D3C0E12FF0E0DF01AC5F6E
:10100000BC4F8C9190911201982331F02D2D4F2DD2
:101010006E2DCF010E9460191F5FEBCF109111015F
:101020008DE0189F102D11240DE0010F0F3308F0F3
:101030000EE3E090E306F090E406D090E2066D2D1A
:101040007E2D8F2D0E94C426C62EA72E982E60912D
:10105000E5066D0D7E2D8F2D0E94C426F62EE72EFF
:10106000D82E101708F09BC0812F90E0FC01EC5F98
:10107000FC4F308120911201232359F030FF04C02E
:101080002D2D4F2D6E2D03C0292D4C2D6A2D0E9424
:1010900060191F5FE6CF109111018DE0189F102D90
:1010A00011240DE0010F0F3308F00EE3C090E306AA
:1010B000A090E4062091E50630E4D32E3D2D329F2A
:1010C000312D1124D32E101708F069C0E12EF12C18
:1010D000F701EC5FFC4F9081809112018923D9F0D8
:1010E000F701EE0FFF1FE857FD4F6081D69EB0015C
:1010F000112495E0759567959A95E1F78091E20640
:10110000680F7C2D8A2D0E94C426462F282F672F1A
:10111000C7010E9460191F5FD6CF109111018DE0A9
:10112000189F102D11240DE0010F0F3308F00EE36E
:10113000E090E206F090E306D090E4066091E506C8
:101140006695669566958091DD069091DE060E9413
:10115000721A0E94F719805887FD8195880F482FD1
:101160005D2D459F412D1124842FB7010E94C42677
:10117000F62EE72ED82E101790F4E12FF0E0DF01C5
:10118000AC5FBC4F8C9190911201982331F02D2DC2
:101190004F2D6E2DCF010E9460191F5FECCF81E0B3
:1011A0000E3308F462C160C18BED95E108C08BE796
:1011B00096E116C08FE596E11BC089ED95E10E948E
:1011C000902153C180ED95E1FACF87EC95E1F7CFFF
:1011D0008CEA95E1F4CF8DE995E10AC089E49AE1C2
:1011E0000E94342142C18EE496E1FACF8AE396E16F
:1011F0000E94B8203AC18FE695E105C08DE395E1E4
:1012000002C08FEF94E10E94DA212FC181111EC02C
:101210006091E50620E1620F08F46FEF8091DD0632
:101220009091DE060E94721A6AE070E00E94AC3073
:10123000892B09F019C10E94DE2F6EE370E00E9435
:10124000C030609112010E9484190EC18091110179
:101250009DE0899F802D11240DE0D02ED80E6EE3E5
:101260006D1510F41EE3D12EE82EF12C0D2D10E09B
:10127000E016F1064CF460911201C7010E94841936
:101280007FEFE71AF70AF4CF81E09DE39D1508F0A0
:10129000ECC0EAC081111EC06091E50620E1620F3A
:1012A00008F46FEF8091DD069091DE060E94721ABD
:1012B00065E070E00E94AC30892B09F0D5C00E9437
:1012C000DE2F6EE370E00E94C030609112010E9438
:1012D0006219CAC0809111019DE0899F802D11245F
:1012E000BDE0DB2ED80EAEE3AD1510F4AEE3DA2E82
:1012F000E82EF12C0D2D10E0E016F1064CF4609173
:101300001201C7010E946219BFEFEB1AFB0AF4CF6A
:1013100081E0EDE3ED1508F0A8C0A6C00091110131
:101320009DE0099F002D1124FDE08F2E800E8BAAD9
:10133000182D173410F016E41BAB882359F040E049
:1013400060E080E00E945E1986E4A2EBB3E01D92AB
:101350008A95E9F780911101811115C08091B00340
:101360009091B1030E94D81B21E08931910508F4C6
:1013700020E02093AF03499730F00E94F31B909335
:10138000B1038093B00310E08BA8682C712C061574
:1013900017050CF05CC0C80165E070E00E94C03029
:1013A0007B014C01589CC001599C900D1124FC01FB
:1013B000EE54FC4FE60FF71FA0808E5B9D4FFC01A3
:1013C000E60FF71F80818F3F59F1C82ED12CF6010F
:1013D000EC5FFC4F908180911201892309F13A2D35
:1013E00025E5321B08F430E07091E3062AEA4A2D25
:1013F000240F08F42FEF4091E40652E0259F200DC2
:1014000011242E5F249F212D11246AEA631B822F51
:101410000E94C426462F282F672FC6010E946019FC
:101420008091AF03882381F02A2D61E0261B08F408
:1014300020E0589CC001599C900D11248E549C4F63
:10144000FC01EE0DFF1D20830F5F1F4FA0CF81E039
:101450000BA9063450F008C088EF94E102C082EF77
:1014600094E10E943B2201C080E0909111019F5FB6
:1014700090931101811114C082E080931401809136
:10148000130181110DC0BB2011F1E091F803F0911F
:10149000F903309741F00190F081E02D099504C0E7
:1014A000BB20B1F1F2CF80E081FF32C02FEF4FEFD0
:1014B0006FEF89E290E00E9460192AC0B0920501A6
:1014C0008091E1068370809304010E949A1683E064
:1014D000809314011DC04091DD065091DE0660919D
:1014E000DF067091E0062FB7F8948091FA0390918F
:1014F000FB03A091FC03B091FD032FBF841B950B50
:10150000A60BB70B4097A105B10510F0109214017E
:1015100086E0E4E0F4E0D10101900D928A95E1F7D4
:101520001091060400910704F0900804E09009046B
:1015300010920604109207041092080410920904F5
:10154000111103C0002309F44FC08091020490914F
:1015500003040E94D81B9C0190910104992309F473
:1015600096C32333310508F43FC09F3F19F09F5FB6
:1015700090930104112361F00E94FB27111614F4CB
:1015800091E001C09FEF899F802D11248093060474
:10159000002361F00E94FB27101614F491E001C0B3
:1015A0009FEF899F802D11248093070430910604BA
:1015B0003323D1F0209107042223B1F045EB34030B
:1015C000C0011124992319F09093060402C040929F
:1015D000060455EB2503C0011124992319F09093BB
:1015E000070402C040920704F11003C0EE2009F482
:1015F0004FC08091FF03909100040E94D81B9C0172
:101600009091FE03992309F447C32536310508F468
:101610003FC09F3F19F09F5F9093FE03FF2061F052
:101620000E94D9271F1414F491E001C09FEF899FF5
:10163000802D112480930804EE2061F00E94D927A8
:101640001E1414F491E001C09FEF899F802D112496
:1016500080930904309108043323D1F020910904C8
:101660002223B1F065EB3603C0011124992319F050
:101670009093080402C04092080475EB2703C00150
:101680001124992319F09093090402C0409209048F
:101690008091060481110BC080910704811107C05D
:1016A00080910804811103C08091090481110E9476
:1016B000292A1B830C83FD82EE8286E0F101A4E0DF
:1016C000B4E001900D928A95E1F70E947418909110
:1016D0000A04891721F00E94741880930A048091EB
:1016E000EB04843009F04CCA83E08093E9008091D8
:1016F000E80082FF45CA8091E80085FF1FC00E9474
:101700007E2B811119C000E210E0710108C08091A8
:10171000F100D7018D937D010150110969F080918D
:10172000E80085FDF4CF8091E8008B778093E80096
:101730000E947E2B882399F391E001C090E0809174
:10174000E8008B778093E800992309F419CA009187
:1017500026041091270489810115110561F08E3F3F
:1017600009F06DC28A81833008F49BC185508330B3
:1017700008F065C296C18B3009F47DC108F585304B
:1017800009F459C0A8F48230B1F130F4813009F085
:1017900054C21A8289E04AC28330F1F1843009F0E0
:1017A0004CC24C816B818A810E9417199D8353C260
:1017B000873009F442C208F040C20E94C6183FC2F6
:1017C000803109F49EC058F48D3009F441C0F0F125
:1017D0008E3009F440C08F3009F466C02EC28231C9
:1017E00009F495C008F490C0833109F4B8C08E3F65
:1017F00009F457C122C28A81823009F425C283309C
:1018000009F41DC2813009F018C20E94E71B9B83B6
:101810008C837D836E8313C28A81823009F00DC26E
:101820006B817C818D819E810E94DA3085E290E01F
:101830000E94253004C22D813E8132272327322782
:101840004C816B818A810E949018F9C180E15DC052
:101850004A828AEAEBC10A811B81102701271027DF
:10186000CC80D12CBDE1CB16D10408F0E8C17101C8
:10187000C8018A5A9D4F9701221933092C153D053D
:1018800008F0DDC10A3AE1E01E0730F40E9407309B
:10189000D70114968C9302C0F70114820F5F1F4F7B
:1018A000FFEFEF1AFF0AE4CF809124049091250402
:1018B000892B09F4C4C10A811B8110270127102735
:1018C000EC80F12C2DE1E216F10408F0B8C16101C1
:1018D000C8018A5A9D4F9601221933092E153F05DA
:1018E00008F0ADC10A3A31E0130728F4D601149686
:1018F0006C910E9425300F5F1F4FBFEFCB1ADB0AA0
:10190000E7CF0E9480189BC184E08A8398C10A8136
:101910001B81102701271027CC80D12CEDE1CE169A
:10192000D10408F08CC17101C80186969701221973
:1019300033092C153D0508F082C10033F2E01F0782
:1019400030F40E940730D70114968C9302C0F7013F
:1019500014820F5F1F4FFFEFEF1AFF0AE5CF0A81D6
:101960001B81102701271027CC80D12C2DE1C21616
:10197000D10408F064C1003332E0130708F05FC1FE
:1019800080E392E0801B910B8C159D0508F457C1F4
:10199000480146E2840E911C809124049091250414
:1019A000892B11F071015EC000FF0FC0C801859640
:1019B0000E94073090E0982F88272D81822B811577
:1019C0009C4531F48FEF8D8303C0E12CF12C03C0D3
:1019D000EE24E394F12CC8018C0D9D1D560180FF6F
:1019E0001BC061E0A61AB10855E0652E712C6C0E83
:1019F0007D1E6A0C7B1CC4018C0D9D1D0E9407304E
:101A0000D3012C9130E0322F2227282B21153C4581
:101A100019F48FEFF3018083F101EE0DFF1D2FEF1D
:101A2000CF01821993098A159B0508F0BBCF8481E9
:101A300090E0982F88273581832B81159C4511F4E0
:101A4000248325833296ECCF003342E0140728F438
:101A5000D70114966C910E9425300F5F1F4FBFEF86
:101A6000EB1AFB0AC80186969701221933092C1537
:101A70003D0550F3E4C08091240490912504892B06
:101A800009F4DDC0C1010E947D23EFEFF1EE04E017
:101A9000E150F0400040E1F700C000000E948E1BC2
:101AA000CEC0EA818E2F90E08930910508F0C7C042
:101AB000FC01E259FF4F0C94D43088E0E5E1F1E0FD
:101AC000DE01919601900D928A95E1F749821A8282
:101AD0001B821C8288E0FE01B196DE011596019002
:101AE0000D928A95E1F7ABC080E889834A821B8218
:101AF0001C82A5C08C8190E0982F88272B81820FB3
:101B0000911D092E000CAA0BBB0B35E0880F991F05
:101B1000AA1FBB1F3A95D1F7AC01BD01405E5F4FD4
:101B20006F4F7F4F481759076A077B0708F487C034
:101B3000803811E09107A105B10508F080C0413857
:101B400021E052076105710520F040E851E060E0B6
:101B500070E0481B590BBC01625A7E4FC1010E94C4
:101B6000EE2F6DC040E250E06FEF70E0C1010E94C7
:101B7000EA308091240489830A831B821C821D829F
:101B80004E825DC081E090E090932704809326040C
:101B900082E390E090932304809322040E94F31B3D
:101BA00090932104809320044AC0012BB9F18091C5
:101BB0001604909117049C01369527958170182F73
:101BC000122380912004909121040E94D81B853615
:101BD0009105F0F01123E1F00E94F31B9093210492
:101BE0008093200480912204909123040197909384
:101BF000230480932204892B89F4109227041092E5
:101C0000260481E090E0909325048093240406C08C
:101C100082E390E090932304809322048091240433
:101C20008983809126048A83809122048B8307C054
:101C3000109225041092240402C08FEF8983C10101
:101C40000E947D230C94C00585E290E00E9407303D
:101C50001B821C821D828E83F2CF60E085E290E0C1
:101C60000E9425300E94C6180E9480186EEF82E202
:101C700090E00E94253062E283E290E00E942530ED
:101C800064E284E290E00E9425300C9493052D32AA
:101C9000314008F06CCCA8CC2D32314008F0BBCCE0
:101CA000F7CC3F924F925F926F927F928F929F926A
:101CB000AF92BF92CF92DF92EF92FF920F931F935A
:101CC000CF93DF93CDB7DEB729970FB6F894DEBF79
:101CD0000FBECDBFFC018081918123813481232BF4
:101CE00031F09F3F31F491E08F3F19F403C091E050
:101CF00001C090E090FD1CC67F0185E0DE011196D9
:101D000001900D928A95E1F7F701228189819A81EC
:101D1000222349F00E94481D182F682F89819A813B
:101D20000E94C11D03C00E94951D182F69817A81F0
:101D3000812F0E9445198C01F7019281992309F4A2
:101D4000F2C0980122513F452031310508F019C1F8
:101D50008FEF93E00E9407308111EFC0025136E50A
:101D6000832E32E0932E002379F08114F4E09F0655
:101D700009F4E3C0C4010E940730811101C0015081
:101D80001FEF811A910AEFCF1E821F8218861986D3
:101D9000442443942AE0322E84010F5F1F4FC40174
:101DA0000E9407308E831F82882309F4C6C09FEFEC
:101DB000980F933060F48F834E8222E0820E911C44
:101DC000C8010E9407308887811102C0B6C048014F
:101DD0008E010A5F1F4FF80120812223E9F2213092
:101DE00009F04CC08181813049F46801F2E0CF0EE6
:101DF000D11CF80182810E94C02E0AC0823051F4A9
:101E00006801F2E0CF0ED11CF80182810E94482EB9
:101E1000860186C0833049F46801F2E0CF0ED11C00
:101E2000F80182810E940F2EF3CF843019F00F5FEA
:101E30001F4F76C0F80122810E5F1F4F80E090E0B7
:101E400030E0205331092A30310568F4389EA00172
:101E5000399E500D1124C901840F951F0F5F1F4F2C
:101E6000F8012081EDCF009709F45AC0EFE9FFE0B7
:101E70003197F1F700C000000197F5CFE22FF0E0B5
:101E8000E25FFC4F5490822F86958695869590E070
:101E9000FC01E250FD4F64902770712C022E02C0AD
:101EA000759467940A94E2F7F1E06F227724FC01BD
:101EB000E251FD4FA490B12C022E02C0B594A7941C
:101EC0000A94E2F731E0A322BB24FC01E252FD4F69
:101ED000C490D12C02C0D594C7942A95E2F781E032
:101EE000C822DD246114710419F081EE0E94482E8D
:101EF000A114B10419F086EE0E94482E852D0E948F
:101F0000C02EAB2819F086EE0E940F2E672819F01C
:101F100081EE0E940F2ECD2819F08CE20E94C02E77
:101F20000F5F1F4F58CF00313FE5130709F0F7C48B
:101F300081E00E94F61D0E9484208091B504877084
:101F400009F4F6C4F7018281882309F4F1C482E020
:101F500029960FB6F894DEBF0FBECDBFDF91CF91AB
:101F60001F910F91FF90EF90DF90CF90BF90AF90B7
:101F70009F908F907F906F905F904F903F900C94C8
:101F80001B1E0031FFE51F0711F481E005C0013180
:101F90002FE5120721F482E00E94341ECCCF033FCC
:101FA000FCE51F0749F406E221EE40EE63EF7CE515
:101FB000C7010E947C1AC1CF043F2CE5120708F02C
:101FC0004AC1083D3CE5130731F407E225EE45EE32
:101FD00068ED7CE5EDCF093D8CE5180731F408E2AA
:101FE00021E045EE69ED7CE5E3CF073DECE51E071A
:101FF00031F406E221EE41EE67ED7CE5D9CF99237D
:1020000009F45EC1109228040230ECE51E0708F4C2
:1020100041C10631FCE51F0738F098012A5F3C45B5
:102020002930310508F036C10E94811C909381034C
:102030008093800300312CE5120709F4C3C008F037
:1020400041C008308CE5180709F49AC0F0F4043058
:10205000ECE51E0709F487C068F402302CE512078E
:1020600009F477C003301C4509F0E5C08091800376
:10207000826076C006308CE5180709F46EC008F05F
:102080007BC08091800388606BC00C30ECE51E073C
:1020900009F485C068F40A302CE5120709F474C00D
:1020A00008F079C00E94E52D80918003806858C0B7
:1020B0000E308CE5180709F476C008F07FC08091D7
:1020C00080038BC00B3FECE51E0709F44FC018F5E9
:1020D00003312CE5120709F47DC078F401318CE559
:1020E000180709F473C002311C4509F0A4C00E940E
:1020F000E52D809180038F7733C00531ECE51E0715
:1021000009F472C008F486C00A3F1C4509F093C068
:10211000809181033EC00F3F3CE5130709F45FC087
:1021200058F40D3F9CE5190709F444C008F43FC07A
:102130008091810382602DC00130FDE51F0709F405
:1021400075C008F45DC002301D4509F074C060E040
:102150006EC080918003816003C0809180038061A4
:102160008093800368C08091800311C080918103B7
:102170008260809381035FC0809180038062F0CF92
:10218000809180038064ECCF8091800388608460BC
:10219000E7CF8160EECF809180038E7FE1CF809189
:1021A00080038D7FDDCF80918003877FD9CF8091A1
:1021B000810318C0809181038D7FDBCF80918003E4
:1021C0008F7ECECF809180038F7DCACF8091800398
:1021D0008F7BC6CF80918003877F8B7FC1CF80911B
:1021E00081038D7F8E7FC5CF8091800382FB222764
:1021F00020F991E0922790FB82F990FB83F9B0CF10
:1022000080918103982F909591708E7F892B90FB00
:1022100081F9AFCF0E94E52D8091800387FB2227B3
:1022200020F991E0922790FB87F99ACF61E08EE048
:1022300090E00E942530609180031091810384E03A
:1022400090E00E942530612F81E290E00E942530CD
:102250000E94E52D72CE053FFCE51F0731F406E232
:1022600021EE42EE65EF7CE5A3CE053F2CE512079B
:1022700030F407E225EE44EE64EF7CE599CE063FAC
:102280003CE5130709F0BBCE07E225EE46EE66EF0C
:102290007CE58ECE8091B8040631ECE51E0709F589
:1022A0008A7A91E009F490E090932904882311F050
:1022B00065E301C069E280E394E00E944C1C0EC01B
:1022C00006311C4509F07AC080912904882309F45D
:1022D0002DC365E380E394E00E94241C0E94021D4C
:1022E0002CCE8272F801E25CFC45E431F10508F085
:1022F0004DC0E958FF4F0C94D4309091E10681E035
:1023000089278093E106109214010E94CA1915CE04
:1023100047E957E160EA77E12CC040EA57E167E915
:1023200077E127C045E857E16EE877E122C04EE843
:1023300057E165E877E11DC04DE657E169E777E1D0
:1023400018C049E757E16DE677E113C045E557E16D
:1023500061E677E10EC041E657E165E577E109C046
:102360004CED59E162ED79E104C042ED59E16CEDCB
:1023700079E10E945819E1CD81E005C084E003C0F5
:1023800089E001C08EE00E94A220D7CD01158CE526
:10239000180731F00E3D1C4589F40E94921CCDCDEA
:1023A0000E94E52DFFEF04E31CE0F15000401040D7
:1023B000E1F700C000000E948E1BBFCDF701008135
:1023C0001181992349F0C8010E94481DD82E682F19
:1023D000C8010E94C11D04C0C8010E94951DD82ECD
:1023E000B8018D2D0E949A288C01982EF701D28079
:1023F000A580A2949FE0A9228091B504877099F0EE
:10240000DD2089F0812F807F803421F080E2800FF1
:10241000883048F082E00E941B1E8091B5048770CE
:10242000CC24C3948111C12CB12EB2948FE0B82278
:102430008B2D90E08C30910508F03DC2FC01E557F2
:10244000FF4F0C94D430812F807F1F70882311F0B0
:102450001295107FDD20B9F0112309F417C280E234
:10246000800F883010F0911006C08091B804182BAE
:102470001093B80405C08091B704182B1093B704CB
:102480000E94021D03C2802F0E940F2E112309F407
:1024900012C2005E1095083010F0911006C08091B5
:1024A000B80418231093B80405C08091B70418230A
:1024B0001093B7040E94021DFEC1812F807F1F7000
:1024C000803211F01295107F992021F0F1E09F16D3
:1024D000E1F02AC0DD2081F08091B904AA2051F0FA
:1024E00001E0A01207C0182B181709F4E4C11093DB
:1024F000B904E1C1812B10C0AA2021F021E0A2166D
:1025000009F4D9C10E94FC1C27C0DD2041F035E050
:102510003A1508F4D0C1812F0E94052ECCC184E069
:102520008A1508F4C8C118C0DD2049F0AA2099F323
:10253000F701858180FFAAC18F708583ECCFAA2027
:1025400059F0093309F0B4C1FFEF17EE23E0F15061
:1025500010402040E1F7AAC1812F0E94FA2DABC1A3
:10256000812F86958695837019F0813059F0A3C12B
:10257000DD2019F0C801937002C080E090E00E9455
:102580005E1899C1DD2019F0C801937002C080E087
:1025900090E00E9448188FC1802FDD2029F00E9412
:1025A0001B280E94292A02C00E9454270E94292A1F
:1025B00082C1812F837009F06AC0D11080C1902F31
:1025C000929596959770990F990F802F8F70482E3E
:1025D000512C612C712C092E04C0440C551C661C16
:1025E000771C0A94D2F704FF12C04FE050E060E07D
:1025F00070E004C0440F551F661F771F9A95D2F7ED
:10260000DB01CA0180959095A095B09503C080E04C
:1026100090E0DC0116951695412F43704230D9F0B9
:1026200068F50091BA041091BB042091BC0430916C
:10263000BD04413059F084299529A629B729BC0148
:10264000CD0160237123822393231EC0402A512A87
:10265000622A732A13C084299529A629B7290091D3
:10266000BA041091BB042091BC043091BD04BC019C
:10267000CD01602771278227932706C0BC01CD01B9
:1026800064297529862997290E94551E14C1DD20C9
:1026900019F0812F817001C08695882309F40FC13C
:1026A000902F929596959770990F990F802F8F7014
:1026B000482E512C612C712C092E04C0440C551C41
:1026C000661C771C0A94D2F704FF12C04FE050E05A
:1026D00060E070E004C0440F551F661F771F9A9595
:1026E000D2F7DB01CA0180959095A095B09503C003
:1026F00080E090E0DC0116951695412F4370423042
:10270000D9F068F50091E6061091E7062091E806F9
:102710003091E906413059F084299529A629B72935
:10272000BC01CD0160237123822393238CC0402AF6
:10273000512A622A732A13C084299529A629B72908
:102740000091E6061091E7062091E8063091E9062F
:10275000BC01CD01602771278227932774C0BC017B
:10276000CD0164297529862997296DC01F70DD2048
:1027700029F0812F0E94341E802FCECE802F0E9400
:10278000FA2D812F49C0802F32EF931609F440C0F3
:10279000391538F090EF991661F0E1EF9E1699F136
:1027A00070C0F3EF9F16D9F124EF921609F44EC0D2
:1027B00068C0DD2019F134E03A1508F47CC01F71BF
:1027C00081E090E0A0E0B0E0AC01BD0104C0440FA6
:1027D000551F661F771F1A95D2F78091E6069091D4
:1027E000E706A091E806B091E9068A019B01082757
:1027F00019272A273B27C901B80125C025E02A153A
:1028000008F459C0DCCFDD2029F0812F8F712CC056
:10281000DD20D9F3812F8F710E94F61D4CC0DD2081
:1028200079F01F7181E090E0A0E0B0E0BC01CD0143
:1028300004C0660F771F881F991F1A95D2F703C02F
:1028400060E070E0CB010E94EC1D35C0DD2079F026
:102850001F71812F0E94341E38E0139FC001112484
:1028600083608093B504812F0E94341E24C081E0D0
:102870000E941B1E81E08A15F0F482E00E941B1E5C
:102880001AC0DD2039F0AA2009F4BFCF802F0E94A2
:10289000482E11C0AA2009F4BDCF893349F49FEF17
:1028A000E7EEF3E09150E040F040E1F700C00000B7
:1028B000802F0E940F2E88EF8B0D843010F40E9421
:1028C0007418CC20A9F18091B50480FD31C0F701C6
:1028D00012828595859585950E94341EC7010E94B8
:1028E000510E8091B50485958595859529960FB6ED
:1028F000F894DEBF0FBECDBFDF91CF911F910F9136
:10290000FF90EF90DF90CF90BF90AF909F908F900F
:102910007F906F905F904F903F900C94F61D013127
:102920008FE5180709F03BCB82E003CB69E2D2CCFC
:1029300029960FB6F894DEBF0FBECDBFDF91CF91C1
:102940001F910F91FF90EF90DF90CF90BF90AF90CD
:102950009F908F907F906F905F904F903F900895E1
:102960008E33910520F5880F991F880F991FFC0160
:10297000E55CFE4F52813381808183707181E82F45
:10298000F0E0A0EC8A9FC0011124825E9A4FDC0126
:10299000A70FB11D6C93DC01A50FB11D4C93DC0199
:1029A000A30FB11D2C93E256F94F81E08083089567
:1029B000FF920F931F93CF93DF93182F062FF42EC0
:1029C000C0E0D0E02F2D402F612FCE010E94B01427
:1029D0002196CE33D105B1F7DF91CF911F910F91A1
:1029E000FF90089522E8241B08F420E0620F089568
:1029F0004095282F429F412D1124842F08950F9335
:102A00001F9310E0F801EE0FFF1FE857FD4F908174
:102A1000905797FD9195000F111FF801E757FD4F53
:102A2000E081F0E0B097DF01AA0FBB1F8D010E0F10
:102A30001F1F2003D001219FB00D1124E8E3F0E017
:102A4000E91BF10997FDF3959F01220F331F8901BF
:102A50000E0F1F1F40039001419F300D11242A0FBC
:102A60003B1F37FF02C021583F4F220F232F221F49
:102A7000330B620F1F910F9108950F931F93522FE5
:102A800010E0F801EE0FFF1FE757FD4FE081F0E087
:102A9000B097EE0FFF1F9F015203D001539FB00D5F
:102AA0001124000F111FF801E857FD4F008110E0BD
:102AB00000571109000F111F40039001419F300D75
:102AC00011242A0F3B1F37FF02C021583F4F220F0E
:102AD000232F221F330B620F1F910F9108950F9325
:102AE0001F93522F10E0F801EE0FFF1FE757FD4F25
:102AF000E081F0E0B0979F015203D001539FB00DE9
:102B00001124000F111FF801E857FD4F008110E05C
:102B10000057110940039001419F300D11242A0FE5
:102B20003B1F37FF02C021583F4F220F232F221F88
:102B3000330B620F1F910F910895EF920F931F9324
:102B400093E0099F80011124159507956E2D600F64
:102B50001F910F91EF900895A22F50E0FA01EE0F10
:102B6000FF1FE757FD4F9081905297FD9195440FBD
:102B7000551FFA01E857FD4F3081232F30E02A1B03
:102B80003109290F311D97FD3A95620F0895E42F01
:102B9000F0E0EE0FFF1FE757FD4F6081621B0895C5
:102BA000E42FF0E0EE0FFF1FE857FD4F6081621B3E
:102BB0000895622F0895E42FF0E0EE0FFF1FE8570D
:102BC000FD4F408134EE439F412D1124E82FF0E06A
:102BD00050E0445E5F4FDA01A21BB1099D01B7FFCF
:102BE00003C031952195310993E0220F331F9A9547
:102BF000E1F7AF01421B530B9A0157FF02C020E0DF
:102C000030E0582F259F212D1124822F0895FC019B
:102C10009B01009721F477FF2BC080E80895AC0159
:102C200097FF04C044275527481B590BB901640F6F
:102C3000751F37FD0CC0241B350BC901A5E0880F9B
:102C4000991FAA95E1F70E94C03080E20CC0CB0129
:102C500065E0880F991F6A95E1F7BA01621B730B53
:102C60000E94C03080E6861BF7FF03C0819508955F
:102C700080E00895EF920F93CF93DF93D72FC82F63
:102C8000C9010E19BA010E940716602F681B7D2F1B
:102C90008C2FDF91CF910F91EF9008950F93CF93E9
:102CA000DF93D72FC82FC901BA010E940716682FDA
:102CB000600F7D2F8C2FDF91CF910F910895EF92B0
:102CC0000F931F93CF93DF93D62FC72F182FC901D0
:102CD0000E19010FBA010E940716081B202F219F11
:102CE000212D1124822F6D2F7C2FDF91CF911F91E9
:102CF0000F91EF900895FF920F931F93CF93DF935F
:102D0000F62ED72F182FC901C12FC01BBA010E9460
:102D10000716982F990F890FC81B2C2F219F212D43
:102D20001124822F6F2D7D2FDF91CF911F910F9155
:102D3000FF90089580E00E94C72281E00C94C72292
:102D4000AF92BF92CF92DF92EF92FF920F931F93B9
:102D5000CF93DF930E94DE2E65EC8EEF0E94B422AB
:102D600060E08DEF0E94B422C0E060E08C2F0E94F2
:102D7000B422CF5FC831C9F765EC8EEF0E94B42250
:102D800061E08DEF0E94B422C0E060E08C2F0E94D1
:102D9000B422CF5FC03CC9F765EC8EEF0E94B4222D
:102DA00063E08DEF0E94B4226FEF81E00E94B422B5
:102DB00061E080E00E94B4228FE39CE90197F1F783
:102DC00000C00000ABE3B1E040E050E038E1E32EAA
:102DD000C1E0D0E0FF24F3941196DC901197129695
:102DE0007C91129713966C911397CA01880F991FC3
:102DF000880F991F855C9E4FFC018081837090E055
:102E0000FD2DF695F695F695E89E9001E99E300D1C
:102E1000112424513B4F89010F0F111DED2DE77037
:102E20005E0101C0AA0CEA95EAF7F801D080AD284E
:102E3000A082E72FE695E695E69589010E0F111D14
:102E400077705E0101C0AA0C7A95EAF7F8017081EB
:102E50007A297083762F769576957695F901E70F26
:102E6000F11D67709E0101C0220F6A95EAF730815B
:102E7000232B2083FC01E45EFA4FF0824F5F5F4F0B
:102E800014964E33510509F0A7CF80E00E941A2313
:102E900081E0DF91CF911F910F91FF90EF90DF9034
:102EA000CF90BF90AF900C941A23E1EEF6E04381EF
:102EB00020E1421B08F440E08181628190E00C94A3
:102EC000A722E1EEF6E0438120E1420F08F44FEF44
:102ED0008181628190E00C94A722E1EEF6E06281AC
:102EE00020E1621B08F460E08181438190E00C9452
:102EF000A722E1EEF6E0628120E1620F08F46FEFB5
:102F00008181438190E00C94A722E1EEF6E081817B
:102F100090E04381628108970C94A722E1EEF6E0ED
:102F2000818190E04381628108960C94A722809170
:102F3000E10686958695815009F487E10C94A220DC
:102F40008091E106869586958F5F883108F081E053
:102F50000C94A2201F93CF93DF93CDB7DEB7679772
:102F60000FB6F894DEBF0FBECDBF342F4B8B252F8D
:102F70005C8B6D8B7E8B8F8B4E895F89611110927C
:102F8000B70486E0FE013D96DF01982F1D929A95C9
:102F9000E9F73D872E876F87598B488BDE0117969F
:102FA00001900D928A95E1F7CE0107960E94D51EF9
:102FB00081113EC086E0FE013796DE011196019038
:102FC0000D928A95E1F7FF81E8856A857B85611519
:102FD000710531F0EF3F31F481E0FF3F19F403C098
:102FE00081E001C080E080FD23C02091560430E0E4
:102FF000C9010196877099274091870450E0841792
:10300000950779F1F983EA837D836C8396E0929F3B
:10301000D001939FB00D1124A95ABB4FFE013196E8
:1030200001900D929A95E1F7809356040E945F1EDD
:1030300016E080918704909156048917F9F0189F43
:10304000C0011124895A9B4F0E94D51E8823B1F0DC
:103050008091870490E00196877099278093870478
:10306000E8CF0E94E52D1092560410928704E0E507
:10307000F4E086E0DF011D928A95E9F767960FB6C6
:10308000F894DEBF0FBECDBFDF91CF911F910895A1
:1030900020912E0430912F042817390771F0909356
:1030A0002F0480932E04E091F803F091F9033097F8
:1030B00021F00084F185E02D0994089520912C04DD
:1030C00030912D042817390771F090932D048093C7
:1030D0002C04E091F803F091F903309721F0068079
:1030E000F781E02D09940895E091F803F091F90338
:1030F000309721F00190F081E02D099480E008954F
:10310000CF93DF93C6E5D2E060E0CE010E94253088
:103110002196C11584E0D807B9F7DF91CF910895C2
:103120000F931F93CF93DF93843058F5653048F5A4
:103130004E3038F521159CE5390731F4E09124042F
:10314000F0912504EF2BE9F08901C42FD0E0CC0FDA
:10315000DD1F9CE1699FC00DD11D11249CE8899F52
:10316000C00DD11D1124612FCE0186960E942530FD
:10317000602FCE018796DF91CF911F910F910C9414
:103180002530DF91CF911F910F9108958F929F92DB
:10319000AF92BF92CF92DF92EF92FF920F931F9365
:1031A000CF93DF93C0902404D090250481E090E079
:1031B0009093250480932404812CE12CF12C912CF4
:1031C00000E010E0C0E0D0E05701A00EB11EFE010B
:1031D000EE0FFF1FEA0DFB1DE257FC4F25913491C6
:1031E0004C2F692D882D0E9490182196CE30D10544
:1031F00071F7045E1F4F939485E09812E3CF8CE83B
:10320000E80EF11C839484E08812D9CFD092250473
:10321000C0922404DF91CF911F910F91FF90EF9006
:10322000DF90CF90BF90AF909F908F9008950F93B5
:103230001F93CF93DF93843008F56530F8F44E3058
:10324000E8F4C42FD0E0CC0FDD1F2CE1629FC00D4D
:10325000D11D11243CE8839FC00DD11D1124CE0146
:1032600086960E94073090E0182F0027CE0187969F
:103270000E9407309801282BC90102C080E090E02D
:10328000DF91CF911F910F910895462F2091260431
:1032900030912704232B49F4843038F4753028F416
:1032A0006E3018F4672F0C94171980E090E00895A1
:1032B000882311F0FA0101C0FB0109940C94D81481
:1032C0000C94B0141F93CF93DF93FC01EC5FFC4F81
:1032D00020816223A9F0EC010E94DE2F182F0E94AA
:1032E000DE2F612F782F8091E4060E94C426462F9E
:1032F000282F672FCE01DF91CF911F910C94601979
:10330000DF91CF911F910895DF92EF92FF920F937B
:103310001F93CF93DF93EC01FC01EC5FFC4F908196
:10332000692381F1D090E3060091E4061091E20652
:10333000E12EF12C0E94DE2F282FC7018C549F4FC5
:1033400068E671E00E94C0308E199F0997FD0396D0
:1033500095958795959587952370612F289F600D8A
:1033600011247D2D802F0E94C426462F282F672FE1
:10337000CE01DF91CF911F910F91FF90EF90DF90E1
:103380000C946019DF91CF911F910F91FF90EF90F6
:10339000DF90089545E050E06CE170E081EE96E04A
:1033A0000C941530E1EEF6E0248130E1230F08F4AF
:1033B0002FEF24830C94CA19E1EEF6E0248130E16A
:1033C000231B08F420E024830C94CA19E1EEF6E0F4
:1033D00085E2808380911D0190911E01A0911F01C3
:1033E00081839283A3838FE784830C94CA19482F27
:1033F000982F46FD9095E92FEF739F7046FD9F5FD4
:10340000E295EF70EE0FF0E0ED5CFE4F2181299F19
:10341000802D212D112482958F702295207F822B63
:103420003081982F930F892F47FD819580580895FB
:10343000BC018230910508F40895613E8EE1780761
:1034400048F49B0195E0369527959A95E1F748E079
:10345000420F01C04FEF91E0242F30E0290F311DC2
:1034600035952795229FF001239FF00DF00D112433
:103470006E177F0718F44FEF420F04C02F3F39F04B
:1034800091E0920F491740F78FEF890F08958FEF62
:1034900008950F93CF93DF93D72FC82F47FD419502
:1034A000E8E3F0E0CF01841B910947FD9395889FE5
:1034B000B001899F700D700D1124229FC001239FC0
:1034C000900D900D1124860F971F0E94181A682FD7
:1034D000660F860F682F600F7D2F8C2FDF91CF91A5
:1034E0000F91089520E030E0869F212D969F200DBA
:1034F000311D1124C90108950F931F93CF93DF93BA
:10350000C42FD22FFC0182818823C9F04093280464
:103510000E94F31B90932B0480932A0480E28C0F6B
:10352000883008F057C0C77081E001C0880FCA9585
:10353000EAF7DF91CF911F910F910C94052E8091A6
:103540002804481330C080912A0490912B040E94D3
:10355000D81B883C910538F510E21D0FCD17B9F046
:1035600080E28C0F883040F4C77081E001C0880F82
:10357000CA95EAF70E94FA2D183028F581E09D2FB0
:10358000977001C0880F9A95EAF70E94052E802F48
:103590000E94C02E1830F0F4D77081E001C0880F6F
:1035A000DA95EAF70AC080E28C0F883098F4C77089
:1035B00081E001C0880FCA95EAF7DF91CF911F9192
:1035C0000F910C94FA2D802FDF91CF911F910F91C5
:1035D0000C94C02EDF91CF911F910F91089580918F
:1035E000BF04089580E00895CF93DF9300D01F9229
:1035F000CDB7DEB79091EB04943011F589837B83CE
:103600006A839093E9008FEF9091E800815095FDD7
:1036100006C095ED9A95F1F700008111F5CF8091E4
:10362000E80085FF0DC040E050E063E070E0CE01AF
:1036300001960E9451238091E8008E778093E800E4
:103640000F900F900F90DF91CF910895BC0184E00F
:103650000C94F41ABC0183E00C94F41A24E0209337
:10366000E9002FEF3091E800215035FD06C035ED1F
:103670003A95F1F700002111F5CF2091E80025FFE0
:103680000BC040E050E066E070E00E945123809162
:10369000E8008E778093E8000895CF93DF93209120
:1036A0001001222339F02091800327FF03C060E23C
:1036B00024E002C068E021E02093E9002FEF309180
:1036C000E800215035FD06C035ED3A95F1F70000D0
:1036D0002111F5CF2091E80025FF1DC0EC0180915C
:1036E0001001811105C040E050E068E070E003C0C7
:1036F00070E040E050E0CE010E9451238091E8004C
:103700008E778093E80080E2FE01A0ECB4E00190A7
:103710000D928A95E1F7DF91CF91089581E0809332
:10372000E00080E28093D8001092C9008FE19EE40F
:103730000197F1F700C0000087E090EBDC01809377
:10374000F0069093F106A093F206B093F3069CE086
:1037500088E10FB6F894A895809360000FBE90930F
:103760006000FFCF78941F920F920FB60F92112432
:103770008F939F93AF93BF938091FA039091FB0334
:10378000A091FC03B091FD030196A11DB11D809392
:10379000FA039093FB03A093FC03B093FD03BF9146
:1037A000AF919F918F910F900FBE0F901F90189522
:1037B0009C014FB7F8948091FA039091FB03A0917C
:1037C000FC03B091FD034FBF821B930B08952FB7ED
:1037D000F8946091FA037091FB038091FC0390913F
:1037E000FD032FBF08952FB7F8948091FA039091AD
:1037F000FB03A091FC03B091FD032FBF08951F921E
:103800000F920FB60F9211248F939F93AF93BF9394
:103810008091FA039091FB03A091FC03B091FD030A
:103820004196A11DB11D8093FA039093FB03A093D1
:10383000FC03B093FD03BF91AF919F918F910F90C7
:103840000FBE0F901F901895209110012223C9F0F0
:103850002091800327FF15C0262F269526952695B3
:103860002E31C8F4FC01E20FF11D677081E090E099
:1038700001C0880F6A95EAF7809592818923828337
:103880000895FC0106962281621301C012823196CE
:10389000E817F907C1F70895209110012223C1F01C
:1038A0002091800327FF14C0262F26952695269564
:1038B0002E3130F5FC01E20FF11D677081E090E0E0
:1038C00001C0880F6A95EAF79281892B8283089557
:1038D000FC0132962FEF30E04191641789F02F3FC1
:1038E00019F4411101C0232F3F5F3630A9F72F3F54
:1038F00039F0FC01E20FF11D27FDFA95628308956E
:103900000895CF9384E090E00E940730C82F81E2B1
:1039100090E00E9407302C2F30E0A901582BCA01FB
:10392000CF9108956BEE7EEF80E090E00E944330EF
:1039300060E082E090E00E94253060E083E090E06B
:103940000E9425301092BA041092BB041092BC045D
:103950001092BD0460E084E090E00E94253060E0B9
:1039600081E290E00E94253060E085E090E00E94D6
:10397000253060E086E090E00E9425306FEF87E020
:1039800090E00E94253040E050E0BA0188E090E0ED
:103990000E94373060E08DE090E00E94253040E0EA
:1039A00050E0BA0188E190E00E94373060E087E1A2
:1039B00090E00E94253040E050E0BA018CE190E0B8
:1039C0000E94373060E080E290E00E94253040E0C5
:1039D00050E0BA0188E190E00E94373040E050E0CA
:1039E000BA018FE090E00E94373040E050E0BA0129
:1039F00083E190E00C9437308091B90481111092EA
:103A0000B90408959091B8048091B704892B20914E
:103A1000B604982F922B909330048091B904882398
:103A2000D9F0892B8093300480911001882331F0E4
:103A30008091800387FF02C08EE101C086E0E2E34F
:103A4000F4E090E0815028F021912223D9F39F5F88
:103A5000F9CF91110E94FC1CE091F803F091F90359
:103A60003097A9F080911001882359F0809180034C
:103A700087FF07C0809130048093310485E08093F4
:103A800030040280F381E02D80E394E009940895EE
:103A9000BF92CF92DF92EF92FF920F931F93CF933B
:103AA000DF938C01C090E606D090E706E090E80630
:103AB000F090E9068091BA049091BB04A091BC04F7
:103AC000B091BD04C82AD92AEA2AFB2ACFE1D0E066
:103AD000D701C6010C2E04C0B695A795979587957A
:103AE0000A94D2F780FD04C0219790F7B12C07C04B
:103AF000BC2EB8018C2F0E949A280197A9F38B2D18
:103B0000DF91CF911F910F91FF90EF90DF90CF90B9
:103B1000BF900895CF93DF93EC010E94481DBE0132
:103B20000E949A28DF91CF9108952EE0929F800DF8
:103B30001124682F669566956695982F977085E095
:103B4000689FB001112440E050E080E0FB01E40FE9
:103B5000F51FE857FB4F208130E0092E02C0369553
:103B600027950A94E2F721703327042E01C0220F13
:103B70000A94EAF7822B4F5F5F4F4530510531F7CA
:103B800008952EE0929F800D1124E82FE695E6958A
:103B9000E695877051E001C0550F8A95EAF785E0F8
:103BA000E89FF0011124E857FB4F20E030E070E07F
:103BB0004081CB01022E02C0969587950A94E2F7C8
:103BC0008170819584278523842781932F5F3F4FC0
:103BD0002530310569F708956093E6067093E7068E
:103BE0008093E8069093E9060C94C82D0F931F93D9
:103BF00041E050E060E070E004C0440F551F661FD4
:103C0000771F8A95D2F74095509560957095809171
:103C1000E6069091E706A091E806B091E9068A01D0
:103C20009B01082319232A233B23C901B8011F91B3
:103C30000F910C94EC1D2091B50480958223809304
:103C4000B504982F977079F430E0482F082E000CB7
:103C5000550B2417350739F08595859585950E9474
:103C6000F61D1092B50408950F931F9341E050E0A4
:103C700060E070E004C0440F551F661F771F8A95EF
:103C8000D2F78091E6069091E706A091E806B09100
:103C9000E9068A019B01082B192B2A2B3B2BC90112
:103CA000B8011F910F910C94EC1D6093BA047093AE
:103CB000BB048093BC049093BD040C94C82D8091E8
:103CC000870490915604891719F08F5F8770FBCF96
:103CD00008950F931F93CF93DF938091550482959E
:103CE0008F7009F05DC080915204882309F458C098
:103CF0008091870410915604609150047091510492
:103D0000C0915304D091540491E06F3F09F090E0CA
:103D1000292F06E0811709F443C0209721F07F3F47
:103D200021F030E003C031E001C0322F90E030FDDF
:103D300034C0089FF001099FF00D1124DF01A95A3A
:103D4000BB4F11963C911197371327C03C91361306
:103D500024C012963C91129731111FC013964D91B9
:103D60005C9114974C1B5D0B483C5105B0F480915D
:103D700055048F70806180935504E45AFB4F808115
:103D80008F708061808380E594E00E94510EDF9106
:103D9000CF911F910F910C945F1E01968770BACF3F
:103DA000DF91CF911F910F9108959F92AF92BF9293
:103DB000CF92DF92EF92FF920F931F93CF93DF93F7
:103DC000CDB7DEB761970FB6F894DEBF0FBECDBF9B
:103DD0008C0185E0F801DE011D9601900D928A9517
:103DE000E1F7F80190818181E28030915004609187
:103DF000510440915304509154044115510531F040
:103E00006F3F31F421E03F3F19F403C021E001C0CE
:103E100020E0F22FF1709F2E20FD23C1F801C38016
:103E2000D48020E5A22E24E0B22EF0905204F601B8
:103E3000E41BF50BFF2009F4CEC020915504E83CAB
:103E4000F10508F099C0422F407F09F051C0681376
:103E500011C039130FC0FE2CE1100CC02F7020616F
:103E600020935504C5010E94510E80915504F8011C
:103E7000858337C1CD2831F08F3F31F421E09F3F5A
:103E800019F403C021E001C020E020FD03C021E0BF
:103E90002E2502C020E030E0F22FF170FF2E20FF2F
:103EA0001DC0209187044091560456E0241709F460
:103EB000F6C030E0529FF001539FF00D1124E95AF3
:103EC000FB4F6181861306C06081961303C0628137
:103ED000E61204C02F5F3F4F2770E8CFFE2CEE2084
:103EE00009F4FFC08091550481608093550450C04F
:103EF000681307C0391305C0E11003C0F80125831A
:103F00008DC09D878E878D859E850E949F2D8823DD
:103F100069F1EE2059F120915504822F82958F701E
:103F200090E0029774F0809150049091510498872A
:103F30008F831986DB86CA862C87CE0107960E945E
:103F4000510E86E0F801A0E5B4E001900D928A954B
:103F5000E1F70E94691E0DC06817E1F09D878E870A
:103F60008D859E850E949F2D81111EC0C8010E94D3
:103F7000510EFF24F394B5C0422F407F69F780E5CE
:103F800094E00E94510E86E0F50111928A95E9F7BE
:103F9000F12CA7C03913E2CFE110E0CFF80125835F
:103FA000C8010E94510E57C0EE2001F32091550424
:103FB000822F82958F7090E002971CF280915004BE
:103FC000909151049A8389831B82DD82CC822E8357
:103FD000CE010196B4CFE83CF105E8F5FE2CEE20C9
:103FE00029F2681327C0391325C02091550420FDFC
:103FF00018C0822F82958F70482F50E041155105CF
:1040000081F0F80125834F30510541F08F5F982FE3
:104010009295907F822F8F70892B8583C8010E9493
:10402000510E86E0F801A0E5B4E001900D928A956A
:10403000E1F757C09D878E878D859E850E949F2DB5
:1040400081117FCF80915504816080935504C80110
:104050000E94510E46C086E0F50111928A95E9F75B
:1040600040C0EE2009F482CF9D878E878D859E8586
:104070000E949F2DF82E882309F478CF86E0F8015E
:10408000A0E5B4E001900D928A95E1F7809150048B
:10409000909151040E948A1D0E94691E22C09D8732
:1040A0008E878D859E850E948A1D292F22952F70CF
:1040B000223028F49F7039F0811105C00BC02430E4
:1040C00028F49F7049F4805E883020F0C8010E9477
:1040D000510E9F2CF92C05C0F8019581907F99F71E
:1040E000F9CF8F2D61960FB6F894DEBF0FBECDBF0E
:1040F000DF91CF911F910F91FF90EF90DF90CF90C4
:10410000BF90AF909F9008950F931F938091E60604
:104110009091E706A091E806B091E9068C019D0117
:104120000670112722273327BC01CD010630110567
:104130002105310511F4686001C0677F1F910F915F
:104140000C94EC1D9091E106937089F0811102C0EE
:10415000946007C0883110F09C6503C0880F880FF9
:10416000982B9093E106109214010C94CA190895AB
:104170006F927F928F929F92AF92BF92CF92DF9277
:10418000EF920F931F93CF93DF933C01C0911101E6
:104190008DE0C89FC02D1124DDE0DC0FDF3308F077
:1041A000DEE36091E50666958091DD069091DE067E
:1041B0000E94721A182FCD1708F044C08C2E912C33
:1041C000F401EC5FFC4F9081809112018923C1F1D1
:1041D000F401EE0FFF1FE857FD4FC080D12C80E7A0
:1041E000C81AD108F401EE0FFF1FE757FD4FA0805A
:1041F000B12CE0E2AE1AB108CC9C9001CD9C300D00
:10420000300D1124AA9CC001AB9C900D900D11247F
:10421000820F931F0E94181A082F6091E206709176
:10422000E3068091E406E12E9501A601F3010995CC
:104230000E94C426462F282F672FC4010E946019B0
:10424000CF5FB9CF81E0DE3308F080E0DF91CF911E
:104250001F910F91EF90DF90CF90BF90AF909F9004
:104260008F907F906F900895CF92DF92EF92FF92A0
:104270000F931F93CF93DF936C01C09111018DE0D9
:10428000C89FC02D1124DDE0DC0FDF3308F0DEE332
:104290006091E50666958091DD069091DE060E94AC
:1042A000721A182FCD1778F5EC2EF12CF701EC5F70
:1042B000FC4F908180911201892319F1F701EE0FD3
:1042C000FF1FE757FD4F208130E020523109F701F1
:1042D000EE0FFF1FE857FD4F408150E04057510956
:1042E0006091E2067091E3068091E406012FF601E9
:1042F00009950E94C426462F282F672FC7010E94C8
:104300006019CF5FCFCF81E0DE3308F080E0DF912E
:10431000CF911F910F91FF90EF90DF90CF90089574
:10432000DF92EF92FF920F931F93CF93DF937C0165
:10433000C09111018DE0C89FC02D1124DDE0DC0F7C
:10434000DF3308F0DEE36091E506669566958091BF
:10435000DD069091DE060E94721AD82ECD17F0F479
:104360000C2F10E0F801EC5FFC4F9081809112015E
:10437000892391F06091E2067091E3068091E40652
:104380002D2D4C2FF70109950E94C426462F282F6A
:10439000672FC8010E946019CF5FE0CF81E0DE3354
:1043A00008F080E0DF91CF911F910F91FF90EF9087
:1043B000DF9008959F92AF92BF92CF92DF92EF92DB
:1043C000FF920F931F93CF93DF936C01C091110164
:1043D0008DE0C89FC02D1124DDE0DC0FDF3308F035
:1043E000DEE36091E506669566958091DD06909125
:1043F000DE060E94721A182F80E4810F0E94F719BE
:1044000090E8F92EF80E812F0E94F71920E8922EDD
:10441000980ECD1700F5AC2EB12CF501EC5FFC4FDA
:104420009081809112018923A1F06091E206709140
:10443000E3068091E406E12E0C2F292D4F2DF60185
:1044400009950E94C426462F282F672FC5010E9478
:104450006019CF5FDECF81E0DE3308F080E0DF91CE
:10446000CF911F910F91FF90EF90DF90CF90BF9071
:10447000AF909F900895CF92DF92EF92FF920F93AB
:104480001F93CF93DF936C01C09111018DE0C89F02
:10449000C02D1124DDE0DC0FDF3308F0DEE32091D6
:1044A000E50630E040E050E06FEF7FEF80E090E025
:1044B0000E9449308901CD17E8F5EC2EF12CF70167
:1044C000EC5FFC4F908180911201892389F19091DA
:1044D000B406915097FD15C0492F092E000C550BBD
:1044E000FA01EC54F94F8189C813F3CF440F551FDB
:1044F000FA01EC54F94F218D328D2017310748F71E
:1045000001C098016091E506C9010E94721AAC01D0
:104510006091E2067091E3068091E406F601099548
:104520000E94C426462F282F672FC7010E946019BA
:10453000CF5FC1CF81E0DE3308F080E0DF91CF9123
:104540001F910F91FF90EF90DF90CF900895909181
:10455000E106937041F08093E2066093E306409396
:10456000E4060C94CA1908958093A0066093A106EE
:1045700024E630E042E050E060EA76E080EA0E9423
:104580006B2F21E0892B09F020E0822F0895CF9234
:10459000DF92EF92FF920F931F93CF93DF93C82F79
:1045A000D0E09E012256394F6901F90180818823AC
:1045B00089F165EC8EEF0E94B42261E08DEF0E94DC
:1045C000B42220EC2C9FC0012D9F900D11249C0142
:1045D000225E3A4F790100E010E00093A006D70177
:1045E000A00FB11FE1EAF6E08D91819336E0E13B47
:1045F000F307D1F724E630E041E150E060EA76E0ED
:1046000080EA0E946B2F892B81F4005F1F4F003CD2
:10461000110519F7F6011082DF91CF911F910F91CB
:10462000FF90EF90DF90CF900895C45EDA4F81E065
:104630008883F0CFEF92FF920F931F93CF93DF9376
:10464000282F30E0A901445E5A4F7A01FA01908187
:10465000911109C0F7011082DF91CF911F910F9145
:10466000FF90EF900895C82F65EC8EEF0E94B42262
:1046700060E08DEF0E94B422F8E1CF9FE0011124A9
:1046800000E010E0F801EC0FFD1FE451FB4F6081EA
:10469000802F0E94B4220F5F1F4F0831110591F740
:1046A000D9CFEF92FF920F931F93CF93DF937C01AB
:1046B0008B010E947E2B811119C0E70101151105A4
:1046C000A1F08091E80085FD0AC08091E8008E7716
:1046D0008093E8000E947E2B882381F307C0899194
:1046E0008093F10001501109E9CF80E0DF91CF9173
:1046F0001F910F91FF90EF900895CF932091EB04BD
:104700002430F9F4C091E900CF703091EC00232FF0
:10471000217030FD20E8C22B22E02093E900209197
:10472000E80020FF0BC040E050E060E270E00E9433
:1047300051238091E8008E778093E800CF70C0937A
:10474000E900CF9108951F93CF93DF93CDB7DEB7E4
:10475000AA970FB6F894DEBF0FBECDBFE3EEF4E02C
:104760008091F100819344E0EB3EF407C9F780911A
:10477000E404833009F462C030F4813071F0823097
:1047800009F49CC0B3C08A3009F488C08B3009F4A6
:104790006DC0893009F0AAC020C08091E304813A3D
:1047A00009F0A4C08091E800877F8093E8008091A1
:1047B000E7049091E804892B21F460E280EC94E016
:1047C00003C060E080E090E070E00E94412D8091A5
:1047D000E8008B778093E80089C08091E304813200
:1047E00009F084C08091E7049091E804009719F0E3
:1047F000029709F07BC08091E800877F8093E800F2
:104800008091E80082FD05C08091EB048111F8CF12
:104810006DC02091F3008091F20090E0922B0297FE
:1048200029F48091F1008B7F813021F48091F10097
:104830008093BF048091E8008B7754C08091E3049B
:10484000813A09F053C08091E7049091E804892BE4
:1048500009F04CC08091E800877F8093E800809148
:10486000E80080FFFCCF8091100137C08091E30405
:104870008132E1F58091E7049091E804892BB1F54C
:104880008091E800877F8093E8000E94B12B80919F
:10489000E504809310010E94E52D28C08091E30477
:1048A000813221F58091E800877F8093E8000E94A3
:1048B000B12B8091E6048093BE0418C08091E3047C
:1048C000813AA1F48091E800877F8093E80080918D
:1048D000E80080FFFCCF8091BE048093F1008091BE
:1048E000E8008E778093E8000E94B12B8091E80069
:1048F00083FFE9C18091E3049091E404492F50E0E3
:104900004A30510508F0DFC1FA01E956FF4F0C9417
:10491000D430803821F0823809F0D5C108C08091A8
:10492000E0049091E104992389F082600FC08091A6
:10493000E7048F70873008F0C6C18093E90080914A
:10494000EB0085FB882780F91092E9009091E80040
:10495000977F9093E8008093F1001092F1007CC162
:10496000282F2D7F09F0AFC1882319F0823061F024
:10497000AAC18091E504813009F0A5C1933009F006
:1049800080E08093E1042EC08091E50481112AC06B
:104990008091E7048F702FEF280F263008F093C125
:1049A0008093E9002091EB0020FF1CC0933021F49C
:1049B0008091EB00806214C09091EB009061909325
:1049C000EB0021E030E0A90102C0440F551F8A9599
:1049D000E2F74093EA001092EA008091EB008860D1
:1049E0008093EB001092E9008091E800877F80932C
:1049F000E8000E94B12B67C1811165C11091E504E7
:104A00001F778091E3008078812B8093E300809171
:104A1000E800877F8093E8000E94B12B8091E80036
:104A200080FFFCCF8091E30080688093E300111148
:104A300002C082E001C083E08093EB0444C180584F
:104A4000823008F040C12091E5043091E6042C3D0D
:104A500053E0350779F583E08A838AE289834FB78B
:104A6000F894DE01139620E03EE051E2E32FF0E0FF
:104A700050935700E49120FF03C0E295EF703F5F31
:104A8000EF708E2F90E0EA3010F0C79601C0C0960C
:104A90008D939D932F5F243149F74FBF8091E8009C
:104AA000877F8093E8006AE270E0CE0101960E9461
:104AB000412DC0C08091E7049091E804432F552711
:104AC00043305105B1F068F44130510509F40AC191
:104AD0004230510509F0F7C08BE590E0ECEDF6E0CF
:104AE00057C04132510589F14232510509F43CC0A9
:104AF000EAC0C901992781309105B9F070F0823080
:104B00009105D9F0039709F0DEC0E9E4F7E0E491FC
:104B10008E2F90E0E9E4F7E038C0E1E9F7E0E491B6
:104B20008E2F90E0E1E9F7E030C0E1E8F7E0E491B2
:104B30008E2F90E0E1E8F7E028C0E7E6F7E0E491A7
:104B40008E2F90E0E7E6F7E020C08330910508F073
:104B5000BAC0880F991FFC01E45CFD4F0190F08101
:104B6000E02D89E090E014C08330910508F0ABC0DF
:104B7000FC01EE0FFF1FEA5CFD4F0190F081E02D7C
:104B8000DC01AD5CBD4F8C9190E0009709F49BC0B7
:104B90002091E800277F2093E8002091E9043091DC
:104BA000EA042817390708F4C90140E0009789F1A1
:104BB0002091EB04222309F43DC02530D9F1209146
:104BC000E80023FD37C02091E80022FD2FC020918E
:104BD000E80020FFEBCF4091F3002091F20030E09D
:104BE000342B009759F02830310540F4449140931C
:104BF000F100319601972F5F3F4FF3CF41E028300E
:104C0000310509F040E02091E8002E772093E8007C
:104C1000CDCF4111CDCF0AC08091EB04882351F054
:104C2000853041F08091E80083FD04C08091E80068
:104C300082FFF2CF8091E8008B778093E80043C039
:104C4000803809F040C08091E800877F8093E800B9
:104C50008091E2048093F1008091E8008E77C7CEC6
:104C6000811131C08091E5049091E6049927029763
:104C700054F58091E800877F8093E8001091E50467
:104C80001093E2040E94B12B111106C08091E30041
:104C900087FD02C081E001C084E08093EB0442E024
:104CA00061EC81E00E94D02B42E261EC84E00E9442
:104CB000D02B42E261EC82E00E94D02B42E260EC19
:104CC00083E00E94D02B8091E80083FF10C0809188
:104CD000E800877F8093E8008091EB0080628093FA
:104CE000EB0005C082E190E0E7E3F7E051CFAA9640
:104CF0000FB6F894DEBF0FBECDBFDF91CF911F91ED
:104D000008959091800392FF0DC0282F28712830BC
:104D100019F4877F846006C0282F2471243011F491
:104D20008B7F886093FF0DC0282F2871283119F4DC
:104D3000877E846106C0282F2471243111F48B7E74
:104D400088612091810320FF0DC0382F38713830E1
:104D500019F4877F816006C0382F3171313011F42A
:104D60008E7F886021FF0DC0282F2871283119F40B
:104D7000877E816106C0282F2171213111F48E7E3A
:104D8000886194FD877E0895CF92DF92EF92FF9223
:104D90000F931F93CF93DF93F62E472FE82FF0E06A
:104DA000711106C0EB56F84F8491782F682F73C0AD
:104DB000272F30E0EB56F84FE491FE2F0E2F10E036
:104DC00056E0659FC0011124CFEFD0E0BE010E94E4
:104DD000AC305BEA5603C001579F900D11248F0D34
:104DE000911D8F0D911D982F990F980F7E01E21A3A
:104DF000F30AE09ED001E19EB00DF09EB00D1124AB
:104E00008B2F499FA0011124452F55277E01E41ABD
:104E1000F50AE09EA001E19E500DF09E500D112478
:104E20006E01C91AD108C29E7001C39EF00CD29EB9
:104E3000F00C11242F2D3327C21BD30BC09F9001E0
:104E4000C19F300DD09F300D1124932F623071051A
:104E500091F048F461157105E1F061307105B9F424
:104E60009E2FE52F16C06430710569F040F0663062
:104E7000710579F00CC09E2FEB2F832F0AC0EB2F0A
:104E80008F2F952F06C09B2F8E2FE32F02C09B2FB5
:104E9000852F7E2F692FDF91CF911F910F91FF906A
:104EA000EF90DF90CF900895803F39F48091070410
:104EB00087FF6AC01092070467C0813F29F4809180
:104EC00007041816BCF360C090910604823F29F4D1
:104ED00097FF5AC01092060457C0833F19F4191661
:104EE000CCF352C090910804893F31F419160CF0AC
:104EF0004BC01092080448C08A3F19F497FF44C081
:104F0000F8CF8B3F39F48091090487FF3DC01092A0
:104F100009043AC08C3F29F4809109041816BCF3A7
:104F200033C0843F21F4809105048E7F17C0853FF4
:104F300021F4809105048D7F11C0863F21F480917A
:104F400005048B7F0BC0873F21F480910504877F88
:104F500005C0883F31F4809105048F7E809305045D
:104F600013C08D3F21F48091EF068E7F0BC08E3FE2
:104F700021F48091EF068D7F05C08F3F29F4809149
:104F8000EF068B7F8093EF0680910604811106C0A7
:104F900080910704811102C01092010480910804DD
:104FA000811106C080910904811102C01092FE0394
:104FB00008958091EF0680FD16C081FD16C082FD28
:104FC00018C08091FE03882391F0883290F428E085
:104FD000829FC001112468E270E00E94C030862FD9
:104FE000672B29F007C082E0089584E0089581E0EE
:104FF000089588E008958091EF0680FD14C081FD3A
:1050000014C082FD16C080910104882381F0843190
:1050100080F422E3829FC001112464E170E00E94C9
:10502000C030862F08958CE0089589E1089585E0C9
:10503000089582E30895803F21F40E94FB27819523
:1050400004C0813F29F40E94FB2780930704089540
:10505000823F21F40E94FB27819504C0833F29F4FD
:105060000E94FB27809306040895893F19F40E944B
:10507000D92705C08A3F31F40E94D92781958093B2
:10508000080408958B3F21F40E94D927819504C01C
:105090008C3F29F40E94D927809309040895843F06
:1050A00021F480910504816017C0853F21F480912F
:1050B0000504826011C0863F21F48091050484605C
:1050C0000BC0873F21F480910504886005C0883FAC
:1050D00031F48091050480618093050408958D3F2B
:1050E00021F48091EF0681600BC08E3F21F4809106
:1050F000EF06826005C08F3F29F48091EF0684603F
:105100008093EF060895F894E82FE295EF70F0E0B1
:1051100031A1282F2F7081E090E001C0880F2A95DF
:10512000EAF7982F9095932391A392A1892B82A3BC
:1051300078940895CF93DF930E944519EC0182384B
:10514000910559F1A0F48133910509F473C040F43D
:105150008932910509F467C08A9709F472C084C046
:105160008533910509F458C0C997B9F07DC0833ED5
:10517000910571F138F4803E9105B1F0823E9105C0
:1051800011F172C0863E9105B9F1873E9105C9F1D2
:10519000843E910509F068C024C08091800380FDA1
:1051A0005DC081FD5BC060C08091800380FD50C008
:1051B0008091810380FF49C18091800384FD43C1B8
:1051C000C3EED0E042C18091800382FF3EC1F4CFA4
:1051D0008091800382FD3FC08091810380FD3EC0AD
:1051E000EBCF8091810381FF30C18091800384FDEA
:1051F0002AC1C7EED0E029C18091800383FF25C179
:10520000F4CF8091800383FD2CC08091810381FFC6
:10521000ECCFC4EED0E019C18091800385FF15C1A9
:10522000C9E2D0E012C18091800385FF0EC1C5E3C1
:10523000D0E00BC18091800386FF07C1CAE2D0E0B5
:1052400004C18091800386FF00C1C1E3D0E0FDC0AE
:10525000C9E3D0E0FAC0C2EED0E0F7C0C0EED0E0C3
:10526000F4C0C6EED0E0F1C0C11581E5D80708F062
:1052700066C0C11520E5D207E0F0CE0174E0969536
:1052800087957A95E1F783709C2F937021E030E049
:1052900002C0220F331F9A95E2F73C68382BCF707B
:1052A000C695C69540E2C49FE0011124C22BD32BC2
:1052B000CCC0C83ED10560F5C03ED10508F0C5C0E0
:1052C000C83AD105B0F4C53AD10540F0C55AD0E08E
:1052D000CE5BDC4FC881D0E0D064B7C0C130D1050F
:1052E00009F4B3C008F4AFC0C430D10508F4ABC0B2
:1052F000ACC0CF3BD10508F0A6C0C85AD0E0CC0F57
:10530000DD1FCB5BDC4F0990D881C02DD4649DC0DC
:10531000C11540E2D40758F4C11581E0D80708F060
:1053200094C0C03FD10508F48EC0D0658EC0C115B1
:1053300020E4D20708F487C0DF70D06A86C0C115A8
:1053400045E5D40708F042C0C11584E5D80728F028
:10535000DC2FCC27C46FD06A78C0C11523E5D207F3
:10536000B0F0CE018370992721E030E002C0220F17
:10537000331F8A95E2F78C2F8695869540E2849FAD
:10538000C0011124E901C82BD92BDA685EC0C11510
:1053900042E5D40728F4DC2FCC27C16FD06A55C072
:1053A000CE018370992721E030E002C0220F331F25
:1053B0008A95E2F78C2F8695869540E2849FC001FE
:1053C0001124E901C82BD92BDC683FC0C11589E540
:1053D000D807B8F4C11528E5D20728F0DC2FCC2770
:1053E000C06FD06A32C0C11546E5D40760F58C2F76
:1053F0000E9481268F71C82FD0E0DC2FCC27D0628D
:1054000024C0C1158AE5D80780F48C2F8F700E94C4
:10541000812694E0D695C7959A95E1F7CF70D0E0B4
:10542000DC2FCC27D069C82B10C0CE019056811537
:10543000904248F48D2F8F710E948126DD27D06223
:105440008F71D82B02C0C0E0D0E0CE01DF91CF91A8
:1054500008950E94F31B20910604211104C020919D
:105460000704222321F090930304809302042091E7
:105470000804211104C020910904222321F09093F3
:1054800000048093FF03E091F803F091F903309753
:1054900049F082E0809304040480F581E02D84E0EB
:1054A00094E0099408959F92AF92BF92CF92DF92B9
:1054B000EF92FF920F931F93CF93DF9306E713E0D2
:1054C00080E2E82E81E0F82EC0E0D0E0912CCC24E0
:1054D000C394D12CB701D7018C91F894E82FE295B1
:1054E000EF70F0E021A18F70A60102C0440F551F9C
:1054F0008A95E2F7CA01922F982B91A392A18095E9
:10550000892382A3789400C0E5E2F1E020E030E056
:10551000A12CB12C4191842F82958F7090E0DC01F9
:1055200090968C9190E04F7002C0959587954A9522
:10553000E2F780FD08C0C601022E02C0880F991F45
:105540000A94E2F702C080E090E0A82AB92A2F5F0F
:105550003F4F2E303105F1F6BFEFEB1AFB0AFB018E
:1055600080810E948328C430D10519F0F0EAFA95B1
:10557000F1F7D8018D919C911197A816B90621F0E9
:10558000AD92BC9281E001C080E0982A21960E5F26
:105590001F4FC530D10509F09DCF992049F081E01A
:1055A0008093EC060E94F31B9093EB068093EA062F
:1055B0008091EC06882391F18091EA069091EB06A8
:1055C0000E94D81B049750F1809176039091770345
:1055D0009093170480931604809178039091790337
:1055E000909319048093180480917A0390917B031F
:1055F00090931B0480931A0480917C0390917D0307
:1056000090931D0480931C0480917E0390917F03EE
:1056100090931F0480931E041092EC06892DDF9155
:10562000CF911F910F91FF90EF90DF90CF90BF909F
:10563000AF909F9008951F920F920FB60F92112472
:105640002F933F934F935F936F937F938F939F938A
:10565000AF93BF93CF93DF93EF93FF93C091E90094
:10566000CF708091EC00D82FD17080FDD0E81092DF
:10567000E9008091F000877F8093F00078940E9489
:10568000A3231092E9008091F00088608093F000DD
:10569000CD2BCF70C093E900FF91EF91DF91CF91B7
:1056A000BF91AF919F918F917F916F915F914F913A
:1056B0003F912F910F900FBE0F901F901895E8ED1E
:1056C000F0E080818E7F80831092E2001092DA00F9
:1056D0001092E100A0EEB0E08C9181608C9380810B
:1056E0008F77808319BCA7EDB0E08C918E7F8C936F
:1056F00080818F7E80831092ED0608952091E400D2
:105700003091E50095E64091EC00842F817040FFD8
:1057100023C08091E80080FD1DC08091EB048823A8
:1057200099F0853099F08091EB0085FD11C0409192
:10573000E4005091E5002417350729F3915011F04A
:105740009A01E1CF84E0089582E0089583E008950E
:1057500081E0089580E008954091E80042FFDDCFA8
:1057600008958091E30487FF11C08091E80082FDD5
:1057700005C08091EB048111F8CF11C08091E80041
:105780008B770BC08091EB04882349F08091E8006F
:1057900080FFF8CF8091E8008E778093E80008952D
:1057A000982F973068F59093E900981739F0709129
:1057B000EC002091ED005091F00003C0242F762FD3
:1057C00050E021FD02C09F5FECCF3091EB003E7FA7
:1057D0003093EB003091ED003D7F3093ED00309140
:1057E000EB0031603093EB007093EC002093ED0000
:1057F0005093F0002091EE0027FDE5CF80E0089562
:105800008F708093E90081E00895CF92DF92EF924C
:10581000FF920F931F93CF93DF93C8EDD0E0888161
:105820008F7E8883E7EDF0E080818160808384E073
:1058300082BF81E08093ED0688818E7F888302EEAF
:1058400010E0F80110821092DA0081EEC82ED12CFF
:10585000F601108288818F778883888180688883A9
:1058600088818F7D888319BC1092EB041092E2042A
:105870001092E1041092E00490EEE92EF12CF70171
:1058800080818B7F808388818160888342E060E0B3
:1058900080E00E94D02BF60180818E7F8083F8010A
:1058A000808181608083808188608083F70180812E
:1058B0008E7F8083888180618883DF91CF911F9163
:1058C0000F91FF90EF90DF90CF9008951F920F926D
:1058D0000FB60F9211242F933F934F935F936F93C3
:1058E0007F938F939F93AF93BF93EF93FF93809199
:1058F000E10082FF09C08091E20082FF05C0809133
:10590000E1008B7F8093E1008091DA0080FF2AC064
:105910008091D80080FF26C08091DA008E7F80932E
:10592000DA008091D90080FF18C080E189BD82E152
:1059300089BD09B400FEFDCF81E08093EB04809126
:10594000ED0681110FC00E945F2B0E94052C8091F3
:10595000E20084608093E20005C019BC1092EB0461
:105960001092ED068091E10080FF17C08091E20067
:1059700080FF13C08091E2008E7F8093E2008091CF
:10598000E20080618093E2008091D8008062809381
:10599000D80019BC85E08093EB048091E10084FF7E
:1059A00034C08091E20084FF30C080E189BD82E193
:1059B00089BD09B400FEFDCF8091D8008F7D809312
:1059C000D8008091E1008F7E8093E1008091E20019
:1059D0008F7E8093E2008091E20081608093E200FC
:1059E0008091E204882311F084E007C08091E300F5
:1059F00087FD02C081E001C083E08093EB040E9438
:105A0000E52D0E9474181092EE068091E10083FF4C
:105A100027C08091E20083FF23C08091E100877F4F
:105A20008093E10082E08093EB041092E204809185
:105A3000E1008E7F8093E1008091E2008E7F809371
:105A4000E2008091E20080618093E20042E060E049
:105A500080E00E94D02B8091F00088608093F0005D
:105A6000FF91EF91BF91AF919F918F917F916F9136
:105A70005F914F913F912F910F900FBE0F901F900C
:105A800018952091E9043091EA042617370748F069
:105A90006115710539F42091E8002E772093E80014
:105AA00001C0B901FC0120E06115710579F1809117
:105AB000EB048823F1F18530F1F18091E80083FD5A
:105AC0003CC08091E80082FD2EC08091E80080FFFC
:105AD000EBCF2091F3008091F20090E0922B6115C2
