:100000000C948F040C94D6040C94D6040C94D6044F
:100010000C94D6040C94D6040C94D6040C94D604F8
:100020000C94D6040C94D6040C94BA2C0C946F2B1C
:100030000C94531C0C94D6040C94D6040C94D60443
:100040000C94D6040C94D6040C94D6040C94D604C8
:100050000C94D6040C94061C0C94D6040C94D60470
:100060000C94D6040C94D6040C94D6040C94D604A8
:100070000C94D6040C94D6040C94D6040C94D60498
:100080000C94D6040C94D6040C94D6040C94D60488
:100090000C94D6040C94D6040C94D6040C94D60478
:1000A0000C94D6040C94D6040C94D6042E0837086D
:1000B00062089F08E10828092B092E093109360931
:1000C00039093C093F09420947094A094F095209C0
:1000D00055095A099E09E209800A830AB10DC80D23
:1000E000CE0D730E730E060E160E290E6C0ED11168
:1000F000DC11E111E611EB11F011F511FA11FF110C
:10010000041209121012121214121612F10FF10F2A
:10011000F10FF10FF10F77127712B112B112041330
:100120002013AF14AF142D130A1417141714DD2461
:100130000425B7260425B72650257325B72674262F
:100140008426052E052E182E182E0E2E182E182E4B
:10015000182E052E052E132E182E182E132EFD37B1
:100160007A585A000004E6D6B4460200210116006F
:100170000000742FE5A3E0038E01425D003D8889F5
:10018000C65436C3174FE4DD5A3D6D1693E90A3E57
:100190006224E86C3A198EA318E05C66CFA35E1E59
:1001A000E5EC7F261DD74E31BD19FD5CFEA2680827
:1001B00090B5E09EA191BA52631D51DD692E60C3D6
:1001C00098D1161348C68B08B5D32C4D64E49CC552
:1001D0000F1F8C3EBC1DDEE32A285F3ADBDAF804F1
:1001E00015CD9D6B0BC1840906DB08E7FC1617785B
:1001F0001C220795EC7FD0D7ACFB5922F558063569
:10020000255EFB7E0EC65F4549F1F0480267E7F1C7
:100210001F9FDBD5FC4F5310539FF223D1FFDAE22F
:100220000B45E13541A654D691CD7DCB3203ADCA05
:100230000CB8C4419E12092545D88DD526297D0AC2
:100240007B296E76FCA513ADEE07A4F93441F0F9D5
:100250004B9414FA6BB29E92AA14BA0400CB994B39
:10026000AFAD9177A22D6307DE29856198A4BC7993
:10027000BD6B989A442DD66EC4780BE97811B3EB18
:1002800074EDCDC6B3D43777BF7303621F9E6E6320
:10029000E5F5A5C53AACCECCE5C2F9C69BCA8D0141
:1002A000DEAC0A62B8220F2EF6BEF063B00524273A
:1002B0009B1976C672F852328FF2E860625A70006B
:1002C0000000F2E6DD3103A70BC10001DE028F075B
:1002D00000000A4AD421B1C467FB020000000004F8
:1002E000595A00000000000000000000000000005B
:1002F00000000000000000000000000000000000FE
:100300000000000000007E0F00D4FFFFFFC70000C8
:10031000007800000000000000002A2B28000000E8
:1003200000000000000000000000000000290000A4
:1003300000002C1E3420212224342627252E362D81
:100340003738271E1F202122232425263333362E1B
:1003500037381F0405060708090A0B0C0D0E0F108D
:100360001112131415161718191A1B1C1D2F3130D2
:10037000232D350405060708090A0B0C0D0E0F1076
:100380001112131415161718191A1B1C1D2F3130B2
:10039000354C29001E001F002000210022002300F0
:1003A00024002500260027002D002E002A002B0007
:1003B00014001A000800150017001C0018000C009B
:1003C000120013002F003000310039000400160025
:1003D000070009000A000B000D000E000F0033009B
:1003E000340000002800E1001D001B000600190079
:1003F000050011001000360037003872520000006E
:100400004C00E000E300E200000000002C000000CF
:100410000000E600E4005000510000004F001350BF
:100420003A003B003C003D003E003F0040004100E0
:1004300042004300440045004C000100010052000E
:10044000010001000100B200010049000100460066
:1004500047004800005C0100500051004F000100BF
:10046000010001000100010001004A004B000000F2
:10047000DE5C010001000100010001000100145CCC
:10048000010001004D004E00A9000000A80001007D
:1004900001000100000000001450000000000100F5
:1004A0000100AC00AA000000AB0001003A003B00D4
:1004B0003C003D003E003F00400041004200430040
:1004C000440045004C000100C25C0100C55CC65CF4
:1004D000C75CC85CC95CCA5CC35C01000100010068
:1004E000005C0100010001000100010001000100A9
:1004F0000100CB5CCC5C010001000000DE5C01006F
:1005000001000100010001000100010001000100E3
:1005100001000100010000000100010001000100D4
:1005200000000000010000000000010001000100C7
:100530000100000001005300540055005600570010
:100540000100010001000100540055005600570051
:10055000010001005F006000610001000100010076
:1005600001005F0060006100010001001050010007
:100570005C005D005E0001000100010001005C0004
:100580005D005E00010000005800010059005A00A3
:100590005B00010001000100010059005A005B00EE
:1005A0000100000001000100620063000000000083
:1005B000580000000000620063000100010000001C
:1005C0000100165C1E001F002000210022002300F5
:1005D00024002500260027002D002E002A002B00D5
:1005E00014001A000800150017001C0018000C0069
:1005F000120013002F003000310039610400160092
:10060000070009000A000B000D000E000F00330068
:10061000340000002800E1001D001B000600190046
:10062000050011001000360037003872520000003B
:100630004C42E000E200E300000000002C0000005B
:100640000000E60010505000510000004F0005016E
:100650000902A10185020901A10005091901290565
:10066000150025019505750181029501750381012C
:100670000501093009311581257F9502750881062C
:1006800009381581257F950175088106050C0A3802
:10069000021581257F950175088106C0C0050109F5
:1006A00080A101850319012AB700150126B700951D
:1006B0000175108100C0050C0901A1018504190113
:1006C0002AA002150126A002950175108100C0051F
:1006D000010906A1018505050719E029E71500258F
:1006E000019508750181020507190029EF150025FC
:1006F0000195F07501810205081901290595057517
:10070000019102950175039101C00660FF0961A185
:10071000010962150026FF00952075088102096312
:10072000150026FF00952075089102C005010906F5
:10073000A101050719E029E71500250195087501B4
:1007400081029501750881010507190029FF15002F
:1007500026FF0095067508810005081901290595F1
:100760000575019102950175039101C009025B00B5
:10077000030100A0FA09040000010301010009219E
:10078000110100012240000705810308000A090445
:1007900001000203000000092111010001222200D2
:1007A0000705820320000107050303200001090457
:1007B0000200010300000009211101000122BC0018
:1007C0000705840320000A12011001000000085AE6
:1007D0004421110200010203011C0376006900613B
:1007E000006C003A0066003600340063003200629C
:1007F00000330063000000100344005A003600304C
:100800000052004700420000000E0344005A00540A
:1008100000450043004800000004030904000101F2
:1008200001010101010101020202020202020202AF
:10083000030303030303030304040404040404057F
:100840000505050506060606060707070707080843
:100850000808090909090A0A0A0B0B0B0C0C0C0DF4
:100860000D0D0E0E0E0F0F0F10101111111212138D
:10087000131414151516161717181819191A1A1B08
:100880001B1C1D1D1E1E1F20202122222324242567
:100890002626272829292A2B2C2D2D2E2F303132A0
:1008A00032333435363738393A3B3C3D3E3F4041B0
:1008B00042434445464748494A4C4D4E4F50515398
:1008C00054555658595A5B5D5E5F6162646566684F
:1008D000696B6C6D6F7072737577787A7B7D7E80D3
:1008E00082838587888A8C8E8F91939596989A9C1F
:1008F0009EA0A2A3A5A7A9ABADAFB1B3B5B7BABC33
:10090000BEC0C2C4C6C9CBCDCFD1D4D6D8DBDDDF03
:10091000E2E4E7E9EBEEF0F3F5F8FAFDFF0011246D
:100920001FBECFEFDAE0DEBFCDBF04B603FE27C0A7
:100930008091F6069091F706A091F806B091F9061D
:100940008730904BA740B04BD1F41092F60610922E
:10095000F7061092F8061092F90614BE84B7877F46
:1009600084BF0FB6F894A895809160008861809349
:100970006000109260000FBEE0E0F8E3099513E01C
:10098000A0E0B1E0EEE8F2E602C005900D92AA37D1
:10099000B107D9F726E0AAE7B3E001C01D92A63F50
:1009A000B207E1F70E94D8040C9445310C94000082
:1009B000CF93DF93CDB7DEB7E7970FB6F894DEBFDE
:1009C0000FBECDBF84B7877F84BF0FB6F894A895BC
:1009D00080916000886180936000109260000FBE7B
:1009E00090E080E80FB6F8948093610090936100E6
:1009F0000FBE85B7806885BF85B7806885BF86E4F0
:100A00009BE190937B0380937A030E94B32B0E9417
:100A1000592C8091E20084608093E2007894809168
:100A2000F1048823A1F01091E9001F709091EC006F
:100A3000892F817090FD80E8182B1092E900809139
:100A4000E80083FD0E94F7231F701093E90082E005
:100A500084BD93E095BD9AEF97BD80936E0085EFBE
:100A60000E94D72884EF0E94D72881EF0E94D728C0
:100A700083E30E94D72882E30E94D72805E211E091
:100A800063E3E62E61E0F62ED8018D918D010E9480
:100A9000D728E016F106C1F7ECE7F3E086E893E02B
:100AA000ACE1B4E0119211921D921D928E179F0736
:100AB000C9F70E94A72AEFEBFDE53197F1F700C0D7
:100AC00000000E94A72A80911C0480FF17C06FEFCE
:100AD00082E290E00E9479306FEF83E290E00E9422
:100AE00079306FEF84E290E00E9479306FEF7FEF12
:100AF00080E090E00E9497300E94E21B80E090E04E
:100B00000E9463308B3E9E4F11F00E94E61C0E94B3
:100B1000F4161092BA06E3EDF6E083EE96E02FEFBE
:100B20003FEF219331938E179F07D9F710928803D7
:100B3000E1EAF3E081EB93E02FEF3FEF2193319374
:100B40008E179F07D9F780E090E00E9463308B3EBC
:100B50009E4F21F00E94E61C0E943A1A45E050E0A8
:100B60006CE170E087EE96E00E944B308091E706E2
:100B70008C7F11F40E943A1A82E290E00E945B306E
:100B8000863E81F483E290E00E945B30803451F431
:100B900084E290E00E945B3091E0833D09F090E0B8
:100BA000892F01C080E080FD02C00C94810E80E09E
:100BB00090E00E9463308B3E9E4F11F00E94E61C35
:100BC00082E090E00E945B30809311040E94D51C6B
:100BD000909387038093860383E090E00E945B30CC
:100BE000682F70E080E090E00E94A91E609186036B
:100BF0006068609386031091870384E090E00E9410
:100C00007930612F81E290E00E94793086E091E0B6
:100C10009093FF038093FE035EE0552E442443949B
:100C20009E012F5F3F4F19010E94A72A81110E9448
:100C30003B1CA2E1B4E0ECE1F4E0C12CD12C7C2C13
:100C4000A190B1908D919D918A259B25009709F4E3
:100C50004EC110E0EE24E394F12C9C012E213F21A3
:100C6000232B09F43EC119A77AA6AE20BF2081E04C
:100C7000A114B10409F480E08BA70E94471C816095
:100C8000782F9DA78CA749A55AA56BA58DA50E9475
:100C9000FE17F601EE0FFF1FEE5EFB4F8081918184
:100CA000E826F926F182E082AB2881F05C9CF00115
:100CB0005D9CF00D1124EA5BFD4FE10FF11D808179
:100CC0008F3F21F08FAB9924939401C0912C809099
:100CD0008803E92CF12CC701880D911D0997A4F117
:100CE00088E0A82EB12CAE18BF08B7016F5F7F4F08
:100CF00068577C4FA50189E893E00E943531B70120
:100D0000675F7F4F68577C4FA50181E993E00E94A0
:100D10003531A501440F551FB701660F771F675E78
:100D20007F4F68577C4F81EA93E00E943531B701CD
:100D30006F5E7F4F68577C4FA50189E993E00E9461
:100D400035318A94809288038091880390E08FA83F
:100D5000A82DB0E09D01220F331F24573D4FAA0F4D
:100D6000BB1FBD0163577D4F41E0480F9915B0F49B
:100D700090E0FC01E857FC4FD9015C915183DB0105
:100D80005C9151878FA8818A880F991FFC01E857D1
:100D9000FC4F128E118E91E0842FE6CF8093880352
:100DA0008091E7068C7F843509F0B9C0AFEFA70DBD
:100DB00001E0070D5FEF510F41E0410F511778F44B
:100DC0005C9CF0015D9CF00D1124E854FC4FE50F94
:100DD000F11D208130E1230F08F42FEF2083212F14
:100DE00030E05C9CC0015D9C900D112488549C4FA8
:100DF000FC01E20FF31F7081B0E26B2F760F08F455
:100E00007FEF70834E3051F0FC01E40FF11D7081D3
:100E100080E1682F760F08F47FEF7083053009F4C6
:100E200030C0E02EF12C511788F45E9CF0015F9CDD
:100E3000F00D1124E854FC4FE50FF11D80819DE079
:100E4000782F092F700F08F47FEF70835E9CC0012C
:100E50005F9C900D112488549C4FFC01E20FF31FFE
:100E6000608170E1670F08F46FEF60834E3049F0E6
:100E7000FC01E40FF11D60817DE0670F08F46FEF66
:100E80006083A71508F04BC0B0E0511778F45A9E64
:100E9000F0015B9EF00D1124E854FC4FE50FF11DAD
:100EA00050816DE0560F08F45FEF50835A9EF001B9
:100EB0005B9EF00D1124E854FC4FDF01A20FB31F1D
:100EC0003C9120E1320F08F43FEF3C934E3039F172
:100ED000E40FF11D20813DE0230F08F42FEF208364
:100EE0001EC01F5FEE0CFF1C1E3009F0B6CE1FEFB8
:100EF000C11AD10A25E0C216D10409F0A0CE8FEFA5
:100F00008EA78FA718AA0E94471C8160782F9AABE2
:100F100089AB4EA55FA568A98AA90E94FE1780919A
:100F2000B1039091B203A091B303B091B4032FB772
:100F3000F894C0900004D0900104E0900204F09076
:100F400003042FBFC81AD90AEA0AFB0A0E943B1CF5
:100F50006093B1037093B2038093B3039093B4038F
:100F6000A0918803E8E8F3E07A2EB0E088248A9420
:100F7000982CA12CB12C8C189D08AE08BF088BAA08
:100F80009CAAADAABEAAAB17B9F0418D528D4A01F9
:100F9000A12CB12C0BA91CA92DA93EA90815190536
:100FA0002A053B0510F47A9404C04C0D5D1D528F48
:100FB000418FBF5F3296E7CF709288032091F4068D
:100FC000211109C02091E706322F337021F0B22E93
:100FD000B694B69401C0B12C209114012130F1F0E7
:100FE00038F0223009F4BEC2233009F4C8C2E4C28A
:100FF000109211016093E3067093E4068093E50676
:101000009093E60689E2E8E8F3E0AAEBB6E0019007
:101010000D928A95E1F740921401CEC280910501AC
:10102000B8120DC02091E706237030E04091040112
:1010300050E081E02417350719F480E001C081E019
:101040008170809313014B2D50E04831510508F019
:101050005FC2FA01EA5AFF4F0C942831882309F441
:1010600057C240E060E080E00E94B21951C2109186
:1010700011018DE0189F102D11240DE0010F003497
:1010800008F00FE36091E8067091E9068091EA06A6
:101090000E941827F62EE72ED82E101708F0D3C07E
:1010A000E12FF0E0DF01A65FBC4F8C91909112011F
:1010B000982331F02D2D4F2D6E2DCF010E94B419A4
:1010C0001F5FEBCF109111018DE0189F102D11249F
:1010D0000DE0010F003408F00FE3E090E906F09016
:1010E000EA06D090E8066D2D7E2D8F2D0E941827E0
:1010F000C62EA72E982E6091EB066D0D7E2D8F2D9E
:101100000E941827F62EE72ED82E101708F09BC045
:10111000812F90E0FC01E65FFC4F308120911201AD
:10112000232359F030FF04C02D2D4F2D6E2D03C009
:10113000292D4C2D6A2D0E94B4191F5FE6CF109106
:1011400011018DE0189F102D11240DE0010F0034C6
:1011500008F00FE3C090E906A090EA062091EB06A4
:1011600030E4D32E3D2D329F312D1124D32E101774
:1011700008F069C0E12EF12CF701E65FFC4F908189
:10118000809112018923D9F0F701EE0FFF1FE45778
:10119000FD4F6081D69EB001112495E0759567954D
:1011A0009A95E1F78091E806680F7C2D8A2D0E94C0
:1011B0001827462F282F672FC7010E94B4191F5FD9
:1011C000D6CF109111018DE0189F102D11240DE044
:1011D000010F003408F00FE3E090E806F090E90614
:1011E000D090EA066091EB066695669566958091CB
:1011F000E3069091E4060E94C61A0E944B1A80589A
:1012000087FD8195880F482F5D2D459F412D112425
:10121000842FB7010E941827F62EE72ED82E10171C
:1012200090F4E12FF0E0DF01A65FBC4F8C9190912C
:101230001201982331F02D2D4F2D6E2DCF010E94DC
:10124000B4191F5FECCF81E00F3308F462C160C1B5
:101250008FE296E108C08FEC96E116C083EB96E131
:101260001BC08DE296E10E94E42153C184E296E125
:10127000FACF8BE196E1F7CF80E096E1F4CF81EFF2
:1012800095E10AC08DE99AE10E94882142C182EA73
:1012900096E1FACF8EE896E10E940C213AC183ECE8
:1012A00095E105C081E995E102C083E595E10E94E1
:1012B0002E222FC181111EC06091EB0620E1620F2A
:1012C00008F46FEF8091E3069091E4060E94C61A3D
:1012D0006AE070E00E940031892B09F019C10E9478
:1012E00032306FE370E00E941431609112010E946D
:1012F000D8190EC1809111019DE0899F802D112484
:101300000DE0D02ED80E6FE36D1510F41FE3D12E33
:10131000E82EF12C0D2D10E0E016F1064CF4609152
:101320001201C7010E94D8197FEFE71AF70AF4CF1C
:1013300081E09EE39D1508F0ECC0EAC081111EC05B
:101340006091EB0620E1620F08F46FEF8091E306F5
:101350009091E4060E94C61A65E070E00E94003198
:10136000892B09F0D5C00E9432306FE370E00E94F3
:101370001431609112010E94B619CAC08091110106
:101380009DE0899F802D1124BDE0DB2ED80EAFE3B8
:10139000AD1510F4AFE3DA2EE82EF12C0D2D10E090
:1013A000E016F1064CF460911201C7010E94B619D3
:1013B000BFEFEB1AFB0AF4CF81E0EEE3ED1508F086
:1013C000A8C0A6C0009111019DE0099F002D112425
:1013D000FDE08F2E800E8BAA182D173410F016E426
:1013E0001BAB882359F040E060E080E00E94B21916
:1013F00086E4A8EBB3E01D928A95E9F7809111018C
:10140000811115C08091B6039091B7030E942C1CE6
:1014100021E08931910508F420E02093B503499734
:1014200030F00E94471C9093B7038093B60310E0FE
:101430008BA8682C712C061517050CF05CC0C80130
:1014400065E070E00E9414317B014C01589CC001A2
:10145000599C900D1124FC01E854FC4FE60FF71F36
:10146000A0808A5B9D4FFC01E60FF71F80818F3FB4
:1014700059F1C82ED12CF601E65FFC4F9081809186
:101480001201892309F13A2D25E5321B08F430E0D9
:101490007091E9062AEA4A2D240F08F42FEF4091B3
:1014A000EA0652E0259F200D11242E5F249F212D56
:1014B00011246AEA631B822F0E941827462F282FC7
:1014C000672FC6010E94B4198091B503882381F06B
:1014D0002A2D61E0261B08F420E0589CC001599C8D
:1014E000900D112488549C4FFC01EE0DFF1D2083AC
:1014F0000F5F1F4FA0CF81E00BA9063450F008C04A
:101500008CE495E102C086E495E10E948F2201C03F
:1015100080E0909111019F5F90931101811114C09F
:1015200082E0809314018091130181110DC0BB20D2
:1015300011F1E091FE03F091FF03309741F001902B
:10154000F081E02D099504C0BB20B1F1F2CF80E01D
:1015500081FF32C02FEF4FEF6FEF88E290E00E94E3
:10156000B4192AC0B09205018091E7068370809378
:1015700004010E94EE1683E0809314011DC0409187
:10158000E3065091E4066091E5067091E6062FB7F8
:10159000F8948091000490910104A0910204B0910C
:1015A00003042FBF841B950BA60BB70B4097A10517
:1015B000B10510F01092140186E0EAE0F4E0D101E8
:1015C00001900D928A95E1F710910C0400910D04A1
:1015D000F0900E04E0900F0410920C0410920D0491
:1015E00010920E0410920F04111103C0002309F48D
:1015F0004FC080910804909109040E942C1C9C010A
:1016000090910704992309F496C32333310508F414
:101610003FC09F3F19F09F5F90930704112361F033
:101620000E944F28111614F491E001C09FEF899F8A
:10163000802D112480930C04002361F00E944F2818
:10164000101614F491E001C09FEF899F802D1124A2
:1016500080930D0430910C043323D1F020910D04BC
:101660002223B1F045EB3403C0011124992319F072
:1016700090930C0402C040920C0455EB2503C0016A
:101680001124992319F090930D0402C040920D0487
:10169000F11003C0EE2009F44FC080910504909131
:1016A00006040E942C1C9C0190910404992309F4C7
:1016B00047C32536310508F43FC09F3F19F09F5FAF
:1016C00090930404FF2061F00E942D281F1414F44D
:1016D00091E001C09FEF899F802D112480930E041B
:1016E000EE2061F00E942D281E1414F491E001C038
:1016F0009FEF899F802D112480930F0430910E0459
:101700003323D1F020910F042223B1F065EB36038F
:10171000C0011124992319F090930E0402C0409245
:101720000E0475EB2703C0011124992319F090933F
:101730000F0402C040920F0480910C0481110BC071
:1017400080910D04811107C080910E04811103C0A6
:1017500080910F0481110E947D2A1B830C83FD82DE
:10176000EE8286E0F101AAE0B4E001900D928A9544
:10177000E1F70E94C81890911004891721F00E9487
:10178000C818809310048091F104843009F04CCA89
:1017900083E08093E9008091E80082FF45CA809150
:1017A000E80085FF1FC00E94D22B811119C000E202
:1017B00010E0710108C08091F100D7018D937D0187
:1017C0000150110969F08091E80085FDF4CF809106
:1017D000E8008B778093E8000E94D22B882399F34E
:1017E00091E001C090E08091E8008B778093E80061
:1017F000992309F419CA00912C0410912D048981B0
:101800000115110561F08E3F09F06DC28A818330A8
:1018100008F49BC18550833008F065C296C18B30B7
:1018200009F47DC108F5853009F459C0A8F4823067
:10183000B1F130F4813009F054C21A8289E04AC211
:101840008330F1F1843009F04CC24C816B818A8184
:101850000E946B199D8353C2873009F442C208F07D
:1018600040C20E941A193FC2803109F49EC058F448
:101870008D3009F441C0F0F18E3009F440C08F3052
:1018800009F466C02EC2823109F495C008F490C0F4
:10189000833109F4B8C08E3F09F457C122C28A814E
:1018A000823009F425C2833009F41DC2813009F069
:1018B00018C20E943B1C9B838C837D836E8313C262
:1018C0008A81823009F00DC26B817C818D819E817D
:1018D0000E942E3185E290E00E94793004C22D8171
:1018E0003E813227232732274C816B818A810E94D7
:1018F000E418F9C180E15DC04A828AEAEBC10A813D
:101900001B81102701271027CC80D12CBDE1CB16DD
:10191000D10408F0E8C17101C8018A5A9D4F9701AE
:10192000221933092C153D0508F0DDC10A3AE1E022
:101930001E0730F40E945B30D70114968C9302C0CE
:10194000F70114820F5F1F4FFFEFEF1AFF0AE4CF7A
:1019500080912A0490912B04892B09F4C4C10A8137
:101960001B81102701271027EC80F12C2DE1E216B6
:10197000F10408F0B8C16101C8018A5A9D4F96016F
:10198000221933092E153F0508F0ADC10A3A31E09E
:10199000130728F4D60114966C910E9479300F5FDA
:1019A0001F4FBFEFCB1ADB0AE7CF0E94D4189BC1B1
:1019B00084E08A8398C10A811B81102701271027A0
:1019C000CC80D12CEDE1CE16D10408F08CC1710190
:1019D000C80186969701221933092C153D0508F098
:1019E00082C10033F2E01F0730F40E945B30D70160
:1019F00014968C9302C0F70114820F5F1F4FFFEF04
:101A0000EF1AFF0AE5CF0A811B8110270127102753
:101A1000CC80D12C2DE1C216D10408F064C1003372
:101A200032E0130708F05FC180E392E0801B910B66
:101A30008C159D0508F457C1480146E2840E911C9F
:101A400080912A0490912B04892B11F071015EC0C2
:101A500000FF0FC0C80185960E945B3090E0982F70
:101A600088272D81822B81159C4531F48FEF8D8342
:101A700003C0E12CF12C03C0EE24E394F12CC80147
:101A80008C0D9D1D560180FF1BC061E0A61AB10898
:101A900055E0652E712C6C0E7D1E6A0C7B1CC401FA
:101AA0008C0D9D1D0E945B30D3012C9130E0322FB4
:101AB0002227282B21153C4519F48FEFF301808351
:101AC000F101EE0DFF1D2FEFCF01821993098A1549
:101AD0009B0508F0BBCF848190E0982F8827358143
:101AE000832B81159C4511F4248325833296ECCFFA
:101AF000003342E0140728F4D70114966C910E9439
:101B000079300F5F1F4FBFEFEB1AFB0AC8018696B3
:101B10009701221933092C153D0550F3E4C080913B
:101B20002A0490912B04892B09F4DDC0C1010E9485
:101B3000D123EFEFF1EE04E0E150F0400040E1F797
:101B400000C000000E94E21BCEC0EA818E2F90E010
:101B50008930910508F0C7C0FC01E259FF4F0C9491
:101B6000283188E0E5E1F1E0DE01919601900D92E7
:101B70008A95E1F749821A821B821C8288E0FE0165
:101B8000B196DE01159601900D928A95E1F7ABC0F2
:101B900084E889834A821B821C82A5C08C8190E0E4
:101BA000982F88272B81820F911D092E000CAA0BDC
:101BB000BB0B35E0880F991FAA1FBB1F3A95D1F7C1
:101BC000AC01BD01405E5F4F6F4F7F4F4817590713
:101BD0006A077B0708F487C0843811E09107A105E4
:101BE000B10508F080C0453821E052076105710554
:101BF00020F044E851E060E070E0481B590BBC0164
:101C0000625A7E4FC1010E9442306DC040E250E0F6
:101C10006FEF70E0C1010E943E3180912A048983F8
:101C20000A831B821C821D824E825DC081E090E08F
:101C300090932D0480932C0482E390E090932904E8
:101C4000809328040E94471C9093270480932604C5
:101C50004AC0012BB9F180911C0490911D049C0194
:101C6000369527958170182F122380912604909124
:101C700027040E942C1C85369105F0F01123E1F019
:101C80000E94471C90932704809326048091280487
:101C90009091290401979093290480932804892B1B
:101CA00089F410922D0410922C0481E090E090931E
:101CB0002B0480932A0406C082E390E090932904C9
:101CC0008093280480912A04898380912C048A833C
:101CD000809128048B8307C010922B0410922A0451
:101CE00002C08FEF8983C1010E94D1230C94140696
:101CF00085E290E00E945B301B821C821D828E83F5
:101D0000F2CF60E085E290E00E9479300E941A19DB
:101D10000E94D41866EE82E290E00E94793060E47E
:101D200083E290E00E94793063ED84E290E00E94CB
:101D300079300C94D7052D32314008F06CCCA8CC0A
:101D40002D32314008F0BBCCF7CC3F924F925F92DE
:101D50006F927F928F929F92AF92BF92CF92DF92BB
:101D6000EF92FF920F931F93CF93DF93CDB7DEB720
:101D700029970FB6F894DEBF0FBECDBFFC0180815E
:101D8000918123813481232B31F09F3F31F491E005
:101D90008F3F19F403C091E001C090E090FD1CC694
:101DA0007F0185E0DE01119601900D928A95E1F7A1
:101DB000F701228189819A81222349F00E949C1D8A
:101DC000182F682F89819A810E94151E03C00E94D6
:101DD000E91D182F69817A81812F0E9499198C0140
:101DE000F7019281992309F4F2C0980122513F45ED
:101DF0002031310508F019C18FEF93E00E945B306C
:101E00008111EFC0025136E5832E32E0932E00237C
:101E100079F08114F4E09F0609F4E3C0C4010E9444
:101E20005B30811101C001501FEF811A910AEFCF81
:101E30001E821F8218861986442443942AE0322E7B
:101E400084010F5F1F4FC4010E945B308E831F828D
:101E5000882309F4C6C09FEF980F933060F48F83F6
:101E60004E8222E0820E911CC8010E945B3088875E
:101E7000811102C0B6C048018E010A5F1F4FF801F0
:101E800020812223E9F2213009F04CC08181813088
:101E900049F46801F2E0CF0ED11CF80182810E9462
:101EA000142F0AC0823051F46801F2E0CF0ED11C29
:101EB000F80182810E949C2E860186C0833049F4FD
:101EC0006801F2E0CF0ED11CF80182810E94632EDE
:101ED000F3CF843019F00F5F1F4F76C0F8012281D5
:101EE0000E5F1F4F80E090E030E0205331092A3030
:101EF000310568F4389EA001399E500D1124C901A6
:101F0000840F951F0F5F1F4FF8012081EDCF0097C1
:101F100009F45AC0EFE9FFE03197F1F700C0000083
:101F20000197F5CFE22FF0E0EE5EFC4F5490822F48
:101F300086958695869590E0FC01EE5FFC4F649057
:101F40002770712C022E02C0759467940A94E2F7F0
:101F5000F1E06F227724FC01EE50FD4FA490B12CEC
:101F6000022E02C0B594A7940A94E2F731E0A322AE
:101F7000BB24FC01EE51FD4FC490D12C02C0D5947E
:101F8000C7942A95E2F781E0C822DD246114710428
:101F900019F081EE0E949C2EA114B10419F086EE76
:101FA0000E949C2E852D0E94142FAB2819F086EEDE
:101FB0000E94632E672819F081EE0E94632ECD28BF
:101FC00019F08CE20E94142F0F5F1F4F58CF003181
:101FD0003FE5130709F0F7C481E00E944A1E0E9402
:101FE000D8208091BB04877009F4F6C4F701828180
:101FF000882309F4F1C482E029960FB6F894DEBF75
:102000000FBECDBFDF91CF911F910F91FF90EF9049
:10201000DF90CF90BF90AF909F908F907F906F9008
:102020005F904F903F900C946F1E0031FFE51F07AB
:1020300011F481E005C001312FE5120721F482E09F
:102040000E94881ECCCF033FFCE51F0749F406E23F
:1020500021EE40EE63EF7CE5C7010E94D01AC1CFAC
:10206000043F2CE5120708F04AC1083D3CE5130780
:1020700031F407E225EE45EE68ED7CE5EDCF093D54
:102080008CE5180731F408E221E045EE69ED7CE5C6
:10209000E3CF073DECE51E0731F406E221EE41EE09
:1020A00067ED7CE5D9CF992309F45EC110922E0427
:1020B0000230ECE51E0708F441C10631FCE51F07BC
:1020C00038F098012A5F3C452930310508F036C1C7
:1020D0000E94D51C909387038093860300312CE5E2
:1020E000120709F4C3C008F041C008308CE5180796
:1020F00009F49AC0F0F40430ECE51E0709F487C037
:1021000068F402302CE5120709F477C003301C454F
:1021100009F0E5C080918603826076C006308CE5C8
:10212000180709F46EC008F07BC0809186038860B0
:102130006BC00C30ECE51E0709F485C068F40A306A
:102140002CE5120709F474C008F079C00E94392EFA
:1021500080918603806858C00E308CE5180709F41A
:1021600076C008F07FC0809186038BC00B3FECE502
:102170001E0709F44FC018F503312CE5120709F4C6
:102180007DC078F401318CE5180709F473C0023181
:102190001C4509F0A4C00E94392E809186038F77D8
:1021A00033C00531ECE51E0709F472C008F486C09F
:1021B0000A3F1C4509F093C0809187033EC00F3F42
:1021C0003CE5130709F45FC058F40D3F9CE519077F
:1021D00009F444C008F43FC08091870382602DC099
:1021E0000130FDE51F0709F475C008F45DC0023039
:1021F0001D4509F074C060E06EC080918603816067
:1022000003C08091860380618093860368C08091BB
:10221000860311C0809187038260809387035FC02B
:10222000809186038062F0CF809186038064ECCF3A
:102230008091860388608460E7CF8160EECF8091D3
:1022400086038E7FE1CF809186038D7FDDCF8091E5
:102250008603877FD9CF8091870318C08091870339
:102260008D7FDBCF809186038F7ECECF80918603DA
:102270008F7DCACF809186038F7BC6CF80918603E6
:10228000877F8B7FC1CF809187038D7F8E7FC5CF66
:102290008091860382FB222720F991E0922790FB10
:1022A00082F990FB83F9B0CF80918703982F9095A6
:1022B00091708E7F892B90FB81F9AFCF0E94392ED0
:1022C0008091860387FB222720F991E0922790FBDB
:1022D00087F99ACF61E08EE090E00E9479306091BA
:1022E00086031091870384E090E00E947930612F8B
:1022F00081E290E00E9479300E94392E72CE053F33
:10230000FCE51F0731F406E221EE42EE65EF7CE5C5
:10231000A3CE053F2CE5120730F407E225EE44EE8C
:1023200064EF7CE599CE063F3CE5130709F0BBCE90
:1023300007E225EE46EE66EF7CE58ECE8091BE0488
:102340000631ECE51E0709F58A7A91E009F490E080
:1023500090932F04882311F065E301C069E286E3BE
:1023600094E00E94A01C0EC006311C4509F07AC002
:1023700080912F04882309F42DC365E386E394E05C
:102380000E94781C0E94561D2CCE8272F801E25CDD
:10239000FC45E431F10508F04DC0E958FF4F0C94BD
:1023A00028319091E70681E089278093E706109213
:1023B00014010E941E1A15CE4BEE57E164EF77E12F
:1023C0002CC044EF57E16BEE77E127C049ED57E1B0
:1023D00062EE77E122C042EE57E169ED77E11DC080
:1023E00041EC57E16DEC77E118C04DEC57E161EC41
:1023F00077E113C049EA57E165EB77E10EC045EBA1
:1024000057E169EA77E109C040E35AE166E27AE11F
:1024100004C046E25AE160E37AE10E94AC19E1CDE2
:1024200081E005C084E003C089E001C08EE00E9425
:10243000F620D7CD01158CE5180731F00E3D1C456F
:1024400089F40E94E61CCDCD0E94392EFFEF04E3F3
:102450001CE0F15000401040E1F700C000000E9475
:10246000E21BBFCDF70100811181992349F0C8011A
:102470000E949C1DD82E682FC8010E94151E04C002
:10248000C8010E94E91DD82EB8018D2D0E94EE28AA
:102490008C01982EF701D280A580A2949FE0A922FA
:1024A0008091BB04877099F0DD2089F0812F807FB7
:1024B000803421F080E2800F883048F082E00E9472
:1024C0006F1E8091BB048770CC24C3948111C12CF2
:1024D000B12EB2948FE0B8228B2D90E08C30910514
:1024E00008F03DC2FC01E557FF4F0C942831812FC5
:1024F000807F1F70882311F01295107FDD20B9F0C6
:10250000112309F417C280E2800F883010F0911077
:1025100006C08091BE04182B1093BE0405C08091A4
:10252000BD04182B1093BD040E94561D03C2802FBA
:102530000E94632E112309F412C2005E1095083028
:1025400010F0911006C08091BE0418231093BE04B1
:1025500005C08091BD0418231093BD040E94561D30
:10256000FEC1812F807F1F70803211F01295107F85
:10257000992021F0F1E09F16E1F02AC0DD2081F0E2
:102580008091BF04AA2051F001E0A01207C0182BCF
:10259000181709F4E4C11093BF04E1C1812B10C0E6
:1025A000AA2021F021E0A21609F4D9C10E94501DF1
:1025B00027C0DD2041F035E03A1508F4D0C1812F65
:1025C0000E94592ECCC184E08A1508F4C8C118C0F5
:1025D000DD2049F0AA2099F3F701858180FFAAC187
:1025E0008F708583ECCFAA2059F0093309F0B4C16C
:1025F000FFEF17EE23E0F15010402040E1F7AAC1B1
:10260000812F0E944E2EABC1812F869586958370B7
:1026100019F0813059F0A3C1DD2019F0C801937081
:1026200002C080E090E00E94B21899C1DD2019F04C
:10263000C801937002C080E090E00E949C188FC196
:10264000802FDD2029F00E946F280E947D2A02C081
:102650000E94A8270E947D2A82C1812F837009F0E1
:102660006AC0D11080C1902F929596959770990F5E
:10267000990F802F8F70482E512C612C712C092EB0
:1026800004C0440C551C661C771C0A94D2F704FF46
:1026900012C04FE050E060E070E004C0440F551FEE
:1026A000661F771F9A95D2F7DB01CA018095909536
:1026B000A095B09503C080E090E0DC0116951695DA
:1026C000412F43704230D9F068F50091C004109159
:1026D000C1042091C2043091C304413059F08429CF
:1026E0009529A629B729BC01CD0160237123822336
:1026F00093231EC0402A512A622A732A13C08429B8
:102700009529A629B7290091C0041091C1042091F0
:10271000C2043091C304BC01CD0160277127822718
:10272000932706C0BC01CD01642975298629972904
:102730000E94A91E14C1DD2019F0812F817001C0F3
:102740008695882309F40FC1902F929596959770DE
:10275000990F990F802F8F70482E512C612C712C5E
:10276000092E04C0440C551C661C771C0A94D2F731
:1027700004FF12C04FE050E060E070E004C0440F7E
:10278000551F661F771F9A95D2F7DB01CA01809506
:102790009095A095B09503C080E090E0DC0116957F
:1027A0001695412F43704230D9F068F50091EC0640
:1027B0001091ED062091EE063091EF06413059F070
:1027C00084299529A629B729BC01CD01602371234D
:1027D000822393238CC0402A512A622A732A13C071
:1027E00084299529A629B7290091EC061091ED06B8
:1027F0002091EE063091EF06BC01CD0160277127D4
:102800008227932774C0BC01CD01642975298629CC
:1028100097296DC01F70DD2029F0812F0E94881E2E
:10282000802FCECE802F0E944E2E812F49C0802F28
:1028300032EF931609F440C0391538F090EF99162D
:1028400061F0E1EF9E1699F170C0F3EF9F16D9F198
:1028500024EF921609F44EC068C0DD2019F134E06F
:102860003A1508F47CC01F7181E090E0A0E0B0E070
:10287000AC01BD0104C0440F551F661F771F1A9598
:10288000D2F78091EC069091ED06A091EE06B09102
:10289000EF068A019B01082719272A273B27C90130
:1028A000B80125C025E02A1508F459C0DCCFDD2089
:1028B00029F0812F8F712CC0DD20D9F3812F8F71EA
:1028C0000E944A1E4CC0DD2079F01F7181E090E02B
:1028D000A0E0B0E0BC01CD0104C0660F771F881FE7
:1028E000991F1A95D2F703C060E070E0CB010E94F7
:1028F000401E35C0DD2079F01F71812F0E94881E97
:1029000038E0139FC001112483608093BB04812FA2
:102910000E94881E24C081E00E946F1E81E08A15FB
:10292000F0F482E00E946F1E1AC0DD2039F0AA2068
:1029300009F4BFCF802F0E949C2E11C0AA2009F459
:10294000BDCF893349F49FEFE7EEF3E09150E040CB
:10295000F040E1F700C00000802F0E94632E88EF56
:102960008B0D843010F40E94C818CC20A9F18091FE
:10297000BB0480FD31C0F701128285958595859550
:102980000E94881EC7010E94A50E8091BB048595F8
:102990008595859529960FB6F894DEBF0FBECDBFFD
:1029A000DF91CF911F910F91FF90EF90DF90CF902B
:1029B000BF90AF909F908F907F906F905F904F905F
:1029C0003F900C944A1E01318FE5180709F03BCB6C
:1029D00082E003CB69E2D2CC29960FB6F894DEBF31
:1029E0000FBECDBFDF91CF911F910F91FF90EF9060
:1029F000DF90CF90BF90AF909F908F907F906F901F
:102A00005F904F903F9008958F33910520F5880F88
:102A1000991F880F991FFC01E55CFE4F528133819D
:102A2000808183707181E82FF0E0A0EC8A9FC00163
:102A300011248C5D9A4FDC01A70FB11D6C93DC0152
:102A4000A50FB11D4C93DC01A30FB11D2C93EC55C8
:102A5000F94F81E080830895FF920F931F93CF93E6
:102A6000DF93182F062FF42EC0E0D0E02F2D402F3B
:102A7000612FCE010E9404152196CF33D105B1F705
:102A8000DF91CF911F910F91FF90089522E8241BB1
:102A900008F420E0620F08954095282F429F412DB1
:102AA0001124842F08950F931F9310E0F801EE0F67
:102AB000FF1FE457FD4F9081905797FD9195000FB0
:102AC000111FF801E357FD4FE081F0E0B097DF01FF
:102AD000AA0FBB1F8D010E0F1F1F2003D001219FC6
:102AE000B00D1124E8E3F0E0E91BF10997FDF3953F
:102AF0009F01220F331F89010E0F1F1F40039001FA
:102B0000419F300D11242A0F3B1F37FF02C021586F
:102B10003F4F220F232F221F330B620F1F910F9164
:102B200008950F931F93522F10E0F801EE0FFF1F2F
:102B3000E357FD4FE081F0E0B097EE0FFF1F9F01DC
:102B40005203D001539FB00D1124000F111FF80143
:102B5000E457FD4F008110E000571109000F111FCD
:102B600040039001419F300D11242A0F3B1F37FF76
:102B700002C021583F4F220F232F221F330B620F19
:102B80001F910F9108950F931F93522F10E0F8019A
:102B9000EE0FFF1FE357FD4FE081F0E0B0979F017C
:102BA0005203D001539FB00D1124000F111FF801E3
:102BB000E457FD4F008110E00057110940039001D8
:102BC000419F300D11242A0F3B1F37FF02C02158AF
:102BD0003F4F220F232F221F330B620F1F910F91A4
:102BE0000895EF920F931F9393E0099F80011124A2
:102BF000159507956E2D600F1F910F91EF90089519
:102C0000A22F50E0FA01EE0FFF1FE357FD4F908116
:102C1000905297FD9195440F551FFA01E457FD4FCF
:102C20003081232F30E02A1B3109290F311D97FDF8
:102C30003A95620F0895E42FF0E0EE0FFF1FE3577F
:102C4000FD4F6081621B0895E42FF0E0EE0FFF1F3F
:102C5000E457FD4F6081621B0895622F0895E42FB1
:102C6000F0E0EE0FFF1FE457FD4F408134EE439F2D
:102C7000412D1124E82FF0E050E0445E5F4FDA016F
:102C8000A21BB1099D01B7FF03C031952195310900
:102C900093E0220F331F9A95E1F7AF01421B530BCC
:102CA0009A0157FF02C020E030E0582F259F212DC8
:102CB0001124822F0895FC019B01009721F477FFD6
:102CC0002BC080E80895AC0197FF04C04427552726
:102CD000481B590BB901640F751F37FD0CC0241B2D
:102CE000350BC901A5E0880F991FAA95E1F70E944D
:102CF000143180E20CC0CB0165E0880F991F6A9502
:102D0000E1F7BA01621B730B0E94143180E6861B47
:102D1000F7FF03C08195089580E00895EF920F9327
:102D2000CF93DF93D72FC82FC9010E19BA010E9484
:102D30005B16602F681B7D2F8C2FDF91CF910F9139
:102D4000EF9008950F93CF93DF93D72FC82FC9012A
:102D5000BA010E945B16682F600F7D2F8C2FDF91C8
:102D6000CF910F910895EF920F931F93CF93DF931D
:102D7000D62FC72F182FC9010E19010FBA010E94B3
:102D80005B16081B202F219F212D1124822F6D2FD0
:102D90007C2FDF91CF911F910F91EF900895FF92BB
:102DA0000F931F93CF93DF93F62ED72F182FC901C0
:102DB000C12FC01BBA010E945B16982F990F890F73
:102DC000C81B2C2F219F212D1124822F6F2D7D2F89
:102DD000DF91CF911F910F91FF90089580E00E94A5
:102DE0001B2381E00C941B23AF92BF92CF92DF9202
:102DF000EF92FF920F931F93CF93DF930E94322F96
:102E000065EC8EEF0E94082360E08DEF0E9408239E
:102E1000C0E060E08C2F0E940823CF5FC831C9F763
:102E200065EC8EEF0E94082361E08DEF0E9408237D
:102E3000C0E060E08C2F0E940823CF5FC03CC9F740
:102E400065EC8EEF0E94082363E08DEF0E9408235B
:102E50006FEF81E00E94082361E080E00E94082378
:102E60008FE39CE90197F1F700C00000ABE3B1E00C
:102E700040E050E038E1E32EC1E0D0E0FF24F394DD
:102E80001196DC90119712967C91129713966C9183
:102E90001397CA01880F991F880F991F855C9E4F51
:102EA000FC018081837090E0FD2DF695F695F695F6
:102EB000E89E9001E99E300D11242E503B4F890170
:102EC0000F0F111DED2DE7705E0101C0AA0CEA95F0
:102ED000EAF7F801D080AD28A082E72FE695E695C5
:102EE000E69589010E0F111D77705E0101C0AA0CD5
:102EF0007A95EAF7F80170817A297083762F7695B2
:102F000076957695F901E70FF11D67709E0101C076
:102F1000220F6A95EAF73081232B2083FC01EE5DB6
:102F2000FA4FF0824F5F5F4F14964F33510509F00F
:102F3000A7CF80E00E946E2381E0DF91CF911F91A7
:102F40000F91FF90EF90DF90CF90BF90AF900C94D7
:102F50006E23E7EEF6E0438120E1421B08F440E0F7
:102F60008181628190E00C94FB22E7EEF6E04381E0
:102F700020E1420F08F44FEF8181628190E00C94D0
:102F8000FB22E7EEF6E0628120E1621B08F460E0DC
:102F90008181438190E00C94FB22E7EEF6E06281B0
:102FA00020E1620F08F46FEF8181438190E00C947F
:102FB000FB22E7EEF6E0818190E043816281089791
:102FC0000C94FB22E7EEF6E0818190E04381628180
:102FD00008960C94FB228091E70686958695815091
:102FE00009F487E10C94F6208091E7068695869592
:102FF0008F5F883108F081E00C94F6201F93CF9307
:10300000DF93CDB7DEB767970FB6F894DEBF0FBE7C
:10301000CDBF342F4B8B252F5C8B6D8B7E8B8F8B95
:103020004E895F8961111092BD0486E0FE013D96D4
:10303000DF01982F1D929A95E9F73D872E876F87BC
:10304000598B488BDE01179601900D928A95E1F716
:10305000CE0107960E94291F81113EC086E0FE0125
:103060003796DE01119601900D928A95E1F7FF8166
:10307000E8856A857B856115710531F0EF3F31F494
:1030800081E0FF3F19F403C081E001C080E080FDD2
:1030900023C020915C0430E0C90101968770992714
:1030A00040918D0450E08417950779F1F983EA8304
:1030B0007D836C8396E0929FD001939FB00D112485
:1030C000A35ABB4FFE01319601900D929A95E1F7FC
:1030D00080935C040E94B31E16E080918D04909151
:1030E0005C048917F9F0189FC0011124835A9B4F83
:1030F0000E94291F8823B1F080918D0490E00196F1
:103100008770992780938D04E8CF0E94392E109202
:103110005C0410928D04E6E5F4E086E0DF011D9288
:103120008A95E9F767960FB6F894DEBF0FBECDBF5C
:10313000DF91CF911F91089520913404309135048F
:103140002817390771F09093350480933404E09187
:10315000FE03F091FF03309721F00084F185E02D0C
:1031600009940895209132043091330428173907C7
:1031700071F09093330480933204E091FE03F09158
:10318000FF03309721F00680F781E02D0994089520
:10319000E091FE03F091FF03309721F00190F08160
:1031A000E02D099480E00895CF93DF93C6E5D2E047
:1031B00060E0CE010E9479302196C11584E0D807E5
:1031C000B9F7DF91CF9108950F931F93CF93DF93BA
:1031D000843058F5653048F54E3038F521159CE5BA
:1031E000390731F4E0912A04F0912B04EF2BE9F038
:1031F0008901C42FD0E0CC0FDD1F9CE1699FC00D79
:10320000D11D11249CE8899FC00DD11D1124612F6F
:10321000CE0186960E947930602FCE018796DF918D
:10322000CF911F910F910C947930DF91CF911F9125
:103230000F9108958F929F92AF92BF92CF92DF929B
:10324000EF92FF920F931F93CF93DF93C0902A04C6
:10325000D0902B0481E090E090932B0480932A047B
:10326000812CE12CF12C912C00E010E0C0E0D0E0AA
:103270005701A00EB11EFE01EE0FFF1FEA0DFB1D50
:10328000EE56FC4F259134914C2F692D882D0E94CC
:10329000E4182196CE30D10571F7045E1F4F939448
:1032A00085E09812E3CF8CE8E80EF11C839484E06B
:1032B0008812D9CFD0922B04C0922A04DF91CF91EB
:1032C0001F910F91FF90EF90DF90CF90BF90AF9044
:1032D0009F908F9008950F931F93CF93DF93843027
:1032E00008F56530F8F44E30E8F4C42FD0E0CC0F88
:1032F000DD1F2CE1629FC00DD11D11243CE8839F8E
:10330000C00DD11D1124CE0186960E945B3090E045
:10331000182F0027CE0187960E945B309801282B3A
:10332000C90102C080E090E0DF91CF911F910F9121
:103330000895462F20912C0430912D04232B49F41D
:10334000843038F4753028F46E3018F4672F0C94FC
:103350006B1980E090E00895882311F0FA0101C014
:10336000FB0109940C942C150C9404151F93CF9316
:10337000DF93FC01E65FFC4F20816223A9F0EC01A2
:103380000E943230182F0E943230612F782F8091A6
:10339000EA060E941827462F282F672FCE01DF91BB
:1033A000CF911F910C94B419DF91CF911F91089583
:1033B000DF92EF92FF920F931F93CF93DF93EC0175
:1033C000FC01E65FFC4F9081692381F1D090E90612
:1033D0000091EA061091E806E12EF12C0E943230AD
:1033E000282FC7018C549F4F68E671E00E9414316A
:1033F0008E199F0997FD03969595879595958795C5
:103400002370612F289F600D11247D2D802F0E9435
:103410001827462F282F672FCE01DF91CF911F91BC
:103420000F91FF90EF90DF900C94B419DF91CF9142
:103430001F910F91FF90EF90DF90089545E050E0CD
:103440006CE170E087EE96E00C946930E7EEF6E010
:10345000248130E1230F08F42FEF24830C941E1AEB
:10346000E7EEF6E0248130E1231B08F420E024831A
:103470000C941E1AE7EEF6E081E2808380911D0134
:1034800090911E01A0911F0181839283A3838FE7F6
:1034900084830C941E1A482F982F46FD9095E92F8F
:1034A000EF739F7046FD9F5FE295EF70EE0FF0E0C7
:1034B000ED5CFE4F2181299F802D212D11248295C5
:1034C0008F702295207F822B3081982F930F892F28
:1034D00047FD819580580895BC018230910508F41C
:1034E0000895613E8EE1780748F49B0195E036959A
:1034F00027959A95E1F748E0420F01C04FEF91E020
:10350000242F30E0290F311D35952795229FF0019A
:10351000239FF00DF00D11246E177F0718F44FEF65
:10352000420F04C02F3F39F091E0920F491740F746
:103530008FEF890F08958FEF08950F93CF93DF9347
:10354000D72FC82F47FD4195E8E3F0E0CF01841B5A
:10355000910947FD9395889FB001899F700D700D6B
:103560001124229FC001239F900D900D1124860FDE
:10357000971F0E946C1A682F660F860F682F600FC6
:103580007D2F8C2FDF91CF910F91089520E030E0B7
:10359000869F212D969F200D311D1124C90108956C
:1035A0000F931F93CF93DF93C42FD22FFC018281FF
:1035B0008823C9F040932E040E94471C9093310445
:1035C0008093300480E28C0F883008F057C0C770B9
:1035D00081E001C0880FCA95EAF7DF91CF911F9172
:1035E0000F910C94592E80912E04481330C0809175
:1035F0003004909131040E942C1C883C910538F5D0
:1036000010E21D0FCD17B9F080E28C0F883040F426
:10361000C77081E001C0880FCA95EAF70E944E2E5C
:10362000183028F581E09D2F977001C0880F9A957A
:10363000EAF70E94592E802F0E94142F1830F0F4C0
:10364000D77081E001C0880FDA95EAF70AC080E2FE
:103650008C0F883098F4C77081E001C0880FCA953C
:10366000EAF7DF91CF911F910F910C944E2E802F8E
:10367000DF91CF911F910F910C94142FDF91CF9177
:103680001F910F9108958091C504089580E00895D9
:10369000CF93DF9300D01F92CDB7DEB79091F104A6
:1036A000943011F589837B836A839093E9008FEFCF
:1036B0009091E800815095FD06C095ED9A95F1F73F
:1036C00000008111F5CF8091E80085FF0DC040E03A
:1036D00050E063E070E0CE0101960E94A523809146
:1036E000E8008E778093E8000F900F900F90DF91A5
:1036F000CF910895BC0184E00C94481BBC0183E089
:103700000C94481B24E02093E9002FEF3091E8004F
:10371000215035FD06C035ED3A95F1F70000211135
:10372000F5CF2091E80025FF0BC040E050E066E0B7
:1037300070E00E94A5238091E8008E778093E800D6
:103740000895CF93DF9320911001222339F0209127
:10375000860327FF03C060E224E002C068E021E0A6
:103760002093E9002FEF3091E800215035FD06C08D
:1037700035ED3A95F1F700002111F5CF2091E800E1
:1037800025FF1DC0EC0180911001811105C040E0B2
:1037900050E068E070E003C070E040E050E0CE012F
:1037A0000E94A5238091E8008E778093E80080E254
:1037B000FE01A6ECB4E001900D928A95E1F7DF914D
:1037C000CF91089581E08093E00080E28093D8005B
:1037D0001092C9008FE19EE40197F1F700C000004C
:1037E00087E090EBDC018093F6069093F706A093B8
:1037F000F806B093F9069CE088E10FB6F894A89516
:10380000809360000FBE90936000FFCF78941F926A
:103810000F920FB60F9211248F939F93AF93BF9384
:103820008091000490910104A0910204B0910304DE
:103830000196A11DB11D8093000490930104A093F3
:103840000204B0930304BF91AF919F918F910F90A9
:103850000FBE0F901F9018959C014FB7F894809160
:10386000000490910104A0910204B09103044FBFA1
:10387000821B930B08952FB7F89460910004709108
:10388000010480910204909103042FBF08952FB783
:10389000F8948091000490910104A0910204B091E9
:1038A00003042FBF08951F920F920FB60F92112499
:1038B0008F939F93AF93BF938091000490910104E5
:1038C000A0910204B09103044196A11DB11D809303
:1038D000000490930104A0930204B0930304BF91E9
:1038E000AF919F918F910F900FBE0F901F901895E1
:1038F000209110012223C9F02091860327FF15C0D3
:10390000262F2695269526952E31C8F4FC01E20F28
:10391000F11D677081E090E001C0880F6A95EAF7B9
:1039200080959281892382830895FC0106962281E5
:10393000621301C012823196E817F907C1F70895A2
:10394000209110012223C1F02091860327FF14C08B
:10395000262F2695269526952E3130F5FC01E20F6F
:10396000F11D677081E090E001C0880F6A95EAF769
:103970009281892B82830895FC0132962FEF30E0EB
:103980004191641789F02F3F19F4411101C0232F91
:103990003F5F3630A9F72F3F39F0FC01E20FF11DF0
:1039A00027FDFA95628308950895CF9384E090E00F
:1039B0000E945B30C82F81E290E00E945B302C2F88
:1039C00030E0A901582BCA01CF9108956BEE7EEF2C
:1039D00080E090E00E94973060E082E090E00E94FA
:1039E000793060E083E090E00E9479301092C0046A
:1039F0001092C1041092C2041092C30460E084E0EB
:103A000090E00E94793060E081E290E00E9479309D
:103A100060E085E090E00E94793060E086E090E030
:103A20000E9479306FEF87E090E00E94793040E0AB
:103A300050E0BA0188E090E00E948B3060E08DE0B9
:103A400090E00E94793040E050E0BA0188E190E0D7
:103A50000E948B3060E087E190E00E94793040E086
:103A600050E0BA018CE190E00E948B3060E080E28F
:103A700090E00E94793040E050E0BA0188E190E0A7
:103A80000E948B3040E050E0BA018FE090E00E944D
:103A90008B3040E050E0BA0183E190E00C948B3031
:103AA0008091BF0481111092BF0408959091BE04CB
:103AB0008091BD04892B2091BC04982F922B909368
:103AC00036048091BF048823D9F0892B8093360473
:103AD00080911001882331F08091860387FF02C016
:103AE0008EE101C086E0E8E3F4E090E0815028F048
:103AF00021912223D9F39F5FF9CF91110E94501D8C
:103B0000E091FE03F091FF033097A9F0809110013E
:103B1000882359F08091860387FF07C0809136047F
:103B20008093370485E0809336040280F381E02D92
:103B300086E394E009940895BF92CF92DF92EF92CA
:103B4000FF920F931F93CF93DF938C01C090EC06ED
:103B5000D090ED06E090EE06F090EF068091C00464
:103B60009091C104A091C204B091C304C82AD92A7B
:103B7000EA2AFB2ACFE1D0E0D701C6010C2E04C00F
:103B8000B695A795979587950A94D2F780FD04C0BE
:103B9000219790F7B12C07C0BC2EB8018C2F0E9442
:103BA000EE280197A9F38B2DDF91CF911F910F91F3
:103BB000FF90EF90DF90CF90BF900895CF93DF9369
:103BC000EC010E949C1DBE010E94EE28DF91CF9166
:103BD00008952EE0929F800D1124682F66956695BA
:103BE0006695982F977085E0689FB001112440E09A
:103BF00050E080E0FB01E40FF51FE257FB4F20810E
:103C000030E0092E02C0369527950A94E2F721701C
:103C10003327042E01C0220F0A94EAF7822B4F5F4C
:103C20005F4F4530510531F708952EE0929F800D8A
:103C30001124E82FE695E695E695877051E001C0DE
:103C4000550F8A95EAF785E0E89FF0011124E257C5
:103C5000FB4F20E030E070E04081CB01022E02C03B
:103C6000969587950A94E2F781708195842785233C
:103C7000842781932F5F3F4F2530310569F70895E1
:103C80006093EC067093ED068093EE069093EF063A
:103C90000C941C2E0F931F9341E050E060E070E005
:103CA00004C0440F551F661F771F8A95D2F74095B1
:103CB0005095609570958091EC069091ED06A091DD
:103CC000EE06B091EF068A019B01082319232A23EF
:103CD0003B23C901B8011F910F910C94401E209104
:103CE000BB04809582238093BB04982F977079F44E
:103CF00030E0482F082E000C550B2417350739F0FB
:103D00008595859585950E944A1E1092BB0408955D
:103D10000F931F9341E050E060E070E004C0440F57
:103D2000551F661F771F8A95D2F78091EC069091F8
:103D3000ED06A091EE06B091EF068A019B01082BDB
:103D4000192B2A2B3B2BC901B8011F910F910C9401
:103D5000401E6093C0047093C1048093C20490938A
:103D6000C3040C941C2E80918D0490915C048917DF
:103D700019F08F5F8770FBCF08950F931F93CF9338
:103D8000DF9380915B0482958F7009F05DC0809114
:103D90005804882309F458C080918D0410915C0464
:103DA0006091560470915704C0915904D0915A04FF
:103DB00091E06F3F09F090E0292F06E0811709F4A8
:103DC00043C0209721F07F3F21F030E003C031E075
:103DD00001C0322F90E030FD34C0089FF001099FF0
:103DE000F00D1124DF01A35ABB4F11963C9111979E
:103DF000371327C03C91361324C012963C9112977A
:103E000031111FC013964D915C9114974C1B5D0BA3
:103E1000483C5105B0F480915B048F7080618093C1
:103E20005B04EE59FB4F80818F708061808386E553
:103E300094E00E94A50EDF91CF911F910F910C94F9
:103E4000B31E01968770BACFDF91CF911F910F916A
:103E500008959F92AF92BF92CF92DF92EF92FF921E
:103E60000F931F93CF93DF93CDB7DEB761970FB654
:103E7000F894DEBF0FBECDBF8C0185E0F801DE01F6
:103E80001D9601900D928A95E1F7F801908181814C
:103E9000E28030915604609157044091590450914A
:103EA0005A044115510531F06F3F31F421E03F3F95
:103EB00019F403C021E001C020E0F22FF1709F2E21
:103EC00020FD23C1F801C380D48026E5A22E24E082
:103ED000B22EF0905804F601E41BF50BFF2009F414
:103EE000CEC020915B04E83CF10508F099C0422F58
:103EF000407F09F051C0681311C039130FC0FE2C68
:103F0000E1100CC02F70206120935B04C5010E945A
:103F1000A50E80915B04F801858337C1CD2831F06F
:103F20008F3F31F421E09F3F19F403C021E001C02D
:103F300020E020FD03C021E02E2502C020E030E07B
:103F4000F22FF170FF2E20FF1DC020918D044091B3
:103F50005C0456E0241709F4F6C030E0529FF001EB
:103F6000539FF00D1124E35AFB4F6181861306C065
:103F70006081961303C06281E61204C02F5F3F4F39
:103F80002770E8CFFE2CEE2009F4FFC080915B047F
:103F9000816080935B0450C0681307C0391305C06B
:103FA000E11003C0F80125838DC09D878E878D8524
:103FB0009E850E94F32D882369F1EE2059F120910E
:103FC0005B04822F82958F7090E0029774F080914D
:103FD00056049091570498878F831986DB86CA868A
:103FE0002C87CE0107960E94A50E86E0F801A6E573
:103FF000B4E001900D928A95E1F70E94BD1E0DC0BC
:104000006817E1F09D878E878D859E850E94F32D30
:1040100081111EC0C8010E94A50EFF24F394B5C0F3
:10402000422F407F69F786E594E00E94A50E86E066
:10403000F50111928A95E9F7F12CA7C03913E2CF67
:10404000E110E0CFF8012583C8010E94A50E57C0FA
:10405000EE2001F320915B04822F82958F7090E017
:1040600002971CF280915604909157049A83898399
:104070001B82DD82CC822E83CE010196B4CFE83C38
:10408000F105E8F5FE2CEE2029F2681327C039135C
:1040900025C020915B0420FD18C0822F82958F706F
:1040A000482F50E04115510581F0F80125834F302C
:1040B000510541F08F5F982F9295907F822F8F70DE
:1040C000892B8583C8010E94A50E86E0F801A6E52C
:1040D000B4E001900D928A95E1F757C09D878E87D5
:1040E0008D859E850E94F32D81117FCF80915B0489
:1040F000816080935B04C8010E94A50E46C086E0E3
:10410000F50111928A95E9F740C0EE2009F482CFBB
:104110009D878E878D859E850E94F32DF82E88239E
:1041200009F478CF86E0F801A6E5B4E001900D929D
:104130008A95E1F780915604909157040E94DE1D04
:104140000E94BD1E22C09D878E878D859E850E9400
:10415000DE1D292F22952F70223028F49F7039F010
:10416000811105C00BC0243028F49F7049F4805E93
:10417000883020F0C8010E94A50E9F2CF92C05C0A4
:10418000F8019581907F99F7F9CF8F2D61960FB641
:10419000F894DEBF0FBECDBFDF91CF911F910F917D
:1041A000FF90EF90DF90CF90BF90AF909F900895D9
:1041B0000F931F938091EC069091ED06A091EE066F
:1041C000B091EF068C019D0106701127222733273D
:1041D000BC01CD01063011052105310511F46860DF
:1041E00001C0677F1F910F910C94401E9091E706CC
:1041F000937089F0811102C0946007C0883110F07B
:104200009C6503C0880F880F982B9093E706109247
:1042100014010C941E1A08956F927F928F929F92B0
:10422000AF92BF92CF92DF92EF920F931F93CF93F3
:10423000DF933C01C09111018DE0C89FC02D112476
:10424000DDE0DC0FD03408F0DFE36091EB0666952B
:104250008091E3069091E4060E94C61A182FCD17AC
:1042600008F044C08C2E912CF401E65FFC4F908145
:10427000809112018923C1F1F401EE0FFF1FE45771
:10428000FD4FC080D12C80E7C81AD108F401EE0F91
:10429000FF1FE357FD4FA080B12CE0E2AE1AB1083A
:1042A000CC9C9001CD9C300D300D1124AA9CC001F6
:1042B000AB9C900D900D1124820F931F0E946C1ADD
:1042C000082F6091E8067091E9068091EA06E12ED8
:1042D0009501A601F30109950E941827462F282F62
:1042E000672FC4010E94B419CF5FB9CF81E0DF33DB
:1042F00008F080E0DF91CF911F910F91EF90DF9058
:10430000CF90BF90AF909F908F907F906F900895C7
:10431000CF92DF92EF92FF920F931F93CF93DF9391
:104320006C01C09111018DE0C89FC02D1124DDE00A
:10433000DC0FD03408F0DFE36091EB0666958091E6
:10434000E3069091E4060E94C61A182FCD1778F55F
:10435000EC2EF12CF701E65FFC4F90818091120169
:10436000892319F1F701EE0FFF1FE357FD4F20815D
:1043700030E020523109F701EE0FFF1FE457FD4FE7
:10438000408150E0405751096091E8067091E9067C
:104390008091EA06012FF60109950E941827462F01
:1043A000282F672FC7010E94B419CF5FCFCF81E0BC
:1043B000DF3308F080E0DF91CF911F910F91FF90E4
:1043C000EF90DF90CF900895DF92EF92FF920F93DE
:1043D0001F93CF93DF937C01C09111018DE0C89FA3
:1043E000C02D1124DDE0DC0FD03408F0DFE3609154
:1043F000EB06669566958091E3069091E4060E942F
:10440000C61AD82ECD17F0F40C2F10E0F801E65F95
:10441000FC4F908180911201892391F06091E80610
:104420007091E9068091EA062D2D4C2FF701099530
:104430000E941827462F282F672FC8010E94B41901
:10444000CF5FE0CF81E0DF3308F080E0DF91CF91F4
:104450001F910F91FF90EF90DF9008959F92AF9280
:10446000BF92CF92DF92EF92FF920F931F93CF9361
:10447000DF936C01C09111018DE0C89FC02D112404
:10448000DDE0DC0FD03408F0DFE36091EB066695E9
:1044900066958091E3069091E4060E94C61A182F53
:1044A00080E4810F0E944B1A90E8F92EF80E812FBC
:1044B0000E944B1A20E8922E980ECD1700F5AC2ED4
:1044C000B12CF501E65FFC4F9081809112018923A8
:1044D000A1F06091E8067091E9068091EA06E12E6C
:1044E0000C2F292D4F2DF60109950E941827462FD4
:1044F000282F672FC5010E94B419CF5FDECF81E05E
:10450000DF3308F080E0DF91CF911F910F91FF9092
:10451000EF90DF90CF90BF90AF909F900895CF9293
:10452000DF92EF92FF920F931F93CF93DF936C0173
:10453000C09111018DE0C89FC02D1124DDE0DC0F7A
:10454000D03408F0DFE32091EB0630E040E050E0AB
:104550006FEF7FEF80E090E00E949D308901CD17E2
:10456000E8F5EC2EF12CF701E65FFC4F908180918D
:104570001201892389F19091BA06915097FD15C0D7
:10458000492F092E000C550BFA01E654F94F818989
:10459000C813F3CF440F551FFA01E654F94F218D8C
:1045A000328D2017310748F701C098016091EB0662
:1045B000C9010E94C61AAC016091E8067091E90633
:1045C0008091EA06F60109950E941827462F282FA8
:1045D000672FC7010E94B419CF5FC1CF81E0DF33DD
:1045E00008F080E0DF91CF911F910F91FF90EF9045
:1045F000DF90CF9008959091E706937041F08093FB
:10460000E8066093E9064093EA060C941E1A0895A2
:104610008093A6066093A70624E630E042E050E0CF
:1046200066EA76E080EA0E94BF2F21E0892B09F03C
:1046300020E0822F0895CF92DF92EF92FF920F93A6
:104640001F93CF93DF93C82FD0E09E012C55394F95
:104650006901F9018081882389F165EC8EEF0E9460
:10466000082361E08DEF0E94082320EC2C9FC001FD
:104670002D9F900D11249C012C5D3A4F790100E093
:1046800010E00093A606D701A00FB11FE7EAF6E0FD
:104690008D91819336E0E73BF307D1F724E630E0D4
:1046A00041E150E066EA76E080EA0E94BF2F892B64
:1046B00081F4005F1F4F003C110519F7F6011082CD
:1046C000DF91CF911F910F91FF90EF90DF90CF90EE
:1046D0000895CE5DDA4F81E08883F0CFEF92FF92AC
:1046E0000F931F93CF93DF93282F30E0A9014E5DE6
:1046F0005A4F7A01FA019081911109C0F701108295
:10470000DF91CF911F910F91FF90EF900895C82FE7
:1047100065EC8EEF0E94082360E08DEF0E94082375
:10472000F8E1CF9FE001112400E010E0F801EC0F68
:10473000FD1FEE50FB4F6081802F0E9408230F5F0A
:104740001F4F0831110591F7D9CFEF92FF920F93C8
:104750001F93CF93DF937C018B010E94D22B811199
:1047600019C0E70101151105A1F08091E80085FD50
:104770000AC08091E8008E778093E8000E94D22BD7
:10478000882381F307C089918093F10001501109BA
:10479000E9CF80E0DF91CF911F910F91FF90EF90D3
:1047A0000895CF932091F1042430F9F4C091E900E9
:1047B000CF703091EC00232F217030FD20E8C22B08
:1047C00022E02093E9002091E80020FF0BC040E0A8
:1047D00050E060E270E00E94A5238091E8008E77AF
:1047E0008093E800CF70C093E900CF9108951F93A4
:1047F000CF93DF93CDB7DEB7AA970FB6F894DEBF9D
:104800000FBECDBFE9EEF4E08091F100819344E06A
:10481000E13FF407C9F78091EA04833009F462C0EC
:1048200030F4813071F0823009F49CC0B3C08A301A
:1048300009F488C08B3009F46DC0893009F0AAC032
:1048400020C08091E904813A09F0A4C08091E80079
:10485000877F8093E8008091ED049091EE04892B8E
:1048600021F460E286EC94E003C060E080E090E038
:1048700070E00E94952D8091E8008B778093E8008E
:1048800089C08091E904813209F084C08091ED04EF
:104890009091EE04009719F0029709F07BC0809187
:1048A000E800877F8093E8008091E80082FD05C0E2
:1048B0008091F1048111F8CF6DC02091F3008091B7
:1048C000F20090E0922B029729F48091F1008B7F07
:1048D000813021F48091F1008093C5048091E8003B
:1048E0008B7754C08091E904813A09F053C08091DC
:1048F000ED049091EE04892B09F04CC08091E80002
:10490000877F8093E8008091E80080FFFCCF809152
:10491000100137C08091E9048132E1F58091ED0406
:104920009091EE04892BB1F58091E800877F809308
:10493000E8000E94052C8091EB04809310010E94F6
:10494000392E28C08091E904813221F58091E80058
:10495000877F8093E8000E94052C8091EC0480936F
:10496000C40418C08091E904813AA1F48091E80060
:10497000877F8093E8008091E80080FFFCCF8091E2
:10498000C4048093F1008091E8008E778093E80062
:104990000E94052C8091E80083FFE9C18091E90421
:1049A0009091EA04492F50E04A30510508F0DFC1E8
:1049B000FA01E956FF4F0C942831803821F08238F3
:1049C00009F0D5C108C08091E6049091E7049923CD
:1049D00089F082600FC08091ED048F70873008F0FD
:1049E000C6C18093E9008091EB0085FB882780F9A0
:1049F0001092E9009091E800977F9093E8008093EF
:104A0000F1001092F1007CC1282F2D7F09F0AFC179
:104A1000882319F0823061F0AAC18091EB048130C3
:104A200009F0A5C1933009F080E08093E7042EC01F
:104A30008091EB0481112AC08091ED048F702FEFDB
:104A4000280F263008F093C18093E9002091EB00F5
:104A500020FF1CC0933021F48091EB00806214C0D1
:104A60009091EB0090619093EB0021E030E0A90180
:104A700002C0440F551F8A95E2F74093EA00109256
:104A8000EA008091EB0088608093EB001092E900CF
:104A90008091E800877F8093E8000E94052C67C121
:104AA000811165C11091EB041F778091E30080783C
:104AB000812B8093E3008091E800877F8093E8005A
:104AC0000E94052C8091E80080FFFCCF8091E300DC
:104AD00080688093E300111102C082E001C083E08E
:104AE0008093F10444C18058823008F040C1209185
:104AF000EB043091EC042C3D53E0350779F583E06D
:104B00008A838AE289834FB7F894DE01139620E006
:104B10003EE051E2E32FF0E050935700E49120FF94
:104B200003C0E295EF703F5FEF708E2F90E0EA30A8
:104B300010F0C79601C0C0968D939D932F5F2431CE
:104B400049F74FBF8091E800877F8093E8006AE2D1
:104B500070E0CE0101960E94952DC0C08091ED04B9
:104B60009091EE04432F552743305105B1F068F47E
:104B70004130510509F40AC14230510509F0F7C02E
:104B80008BE590E0ECE6F7E057C04132510589F142
:104B90004232510509F43CC0EAC0C901992781306D
:104BA0009105B9F070F082309105D9F0039709F0C2
:104BB000DEC0E9EDF7E0E4918E2F90E0E9EDF7E05B
:104BC00038C0E9E1F8E0E4918E2F90E0E9E1F8E007
:104BD00030C0E9E0F8E0E4918E2F90E0E9E0F8E001
:104BE00028C0E7EFF7E0E4918E2F90E0E7EFF7E0E1
:104BF00020C08330910508F0BAC0880F991FFC01CE
:104C0000E05CFD4F0190F081E02D89E090E014C060
:104C10008330910508F0ABC0FC01EE0FFF1FE65C8E
:104C2000FD4F0190F081E02DDC01A95CBD4F8C911E
:104C300090E0009709F49BC02091E800277F209323
:104C4000E8002091EF043091F0042817390708F4A8
:104C5000C90140E0009789F12091F104222309F471
:104C60003DC02530D9F12091E80023FD37C02091C7
:104C7000E80022FD2FC02091E80020FFEBCF4091FB
:104C8000F3002091F20030E0342B009759F02830E7
:104C9000310540F444914093F100319601972F5F24
:104CA0003F4FF3CF41E02830310509F040E020913B
:104CB000E8002E772093E800CDCF4111CDCF0AC078
:104CC0008091F104882351F0853041F08091E80013
:104CD00083FD04C08091E80082FFF2CF8091E8005C
:104CE0008B778093E80043C0803809F040C0809102
:104CF000E800877F8093E8008091E8048093F100CA
:104D00008091E8008E77C7CE811131C08091EB048D
:104D10009091EC049927029754F58091E800877FE1
:104D20008093E8001091EB041093E8040E94052C96
:104D3000111106C08091E30087FD02C081E001C02F
:104D400084E08093F10442E061EC81E00E94242C35
:104D500042E261EC84E00E94242C42E261EC82E0B9
:104D60000E94242C42E260EC83E00E94242C80917B
:104D7000E80083FF10C08091E800877F8093E800FF
:104D80008091EB0080628093EB0005C082E190E0AF
:104D9000E7ECF7E051CFAA960FB6F894DEBF0FBE4E
:104DA000CDBFDF91CF911F9108959091860392FF1F
:104DB0000DC0282F2871283019F4877F846006C021
:104DC000282F2471243011F48B7F886093FF0DC04D
:104DD000282F2871283119F4877E846106C0282F76
:104DE0002471243111F48B7E88612091870320FF88
:104DF0000DC0382F3871383019F4877F816006C0B4
:104E0000382F3171313011F48E7F886021FF0DC051
:104E1000282F2871283119F4877E816106C0282F38
:104E20002171213111F48E7E886194FD877E089571
:104E3000CF92DF92EF92FF920F931F93CF93DF9366
:104E4000F62E472FE82FF0E0711106C0E35EF74F12
:104E50008491782F682F73C0272F30E0E35EF74FDF
:104E6000E491FE2F0E2F10E056E0659FC001112443
:104E7000CFEFD0E0BE010E9400315BEA5603C001D3
:104E8000579F900D11248F0D911D8F0D911D982FFF
:104E9000990F980F7E01E21AF30AE09ED001E19E7D
:104EA000B00DF09EB00D11248B2F499FA00111244D
:104EB000452F55277E01E41AF50AE09EA001E19EE8
:104EC000500DF09E500D11246E01C91AD108C29EDA
:104ED0007001C39EF00CD29EF00C11242F2D3327AD
:104EE000C21BD30BC09F9001C19F300DD09F300DCE
:104EF0001124932F6230710591F048F4611571050A
:104F0000E1F061307105B9F49E2FE52F16C06430D1
:104F1000710569F040F06630710579F00CC09E2F84
:104F2000EB2F832F0AC0EB2F8F2F952F06C09B2FBF
:104F30008E2FE32F02C09B2F852F7E2F692FDF91AD
:104F4000CF911F910F91FF90EF90DF90CF90089538
:104F5000803F39F480910D0487FF6AC010920D04E0
:104F600067C0813F29F480910D041816BCF360C01E
:104F700090910C04823F29F497FF5AC010920C04C0
:104F800057C0833F19F41916CCF352C090910E0408
:104F9000893F31F419160CF04BC010920E0448C032
:104FA0008A3F19F497FF44C0F8CF8B3F39F48091C2
:104FB0000F0487FF3DC010920F043AC08C3F29F4C4
:104FC00080910F041816BCF333C0843F21F4809104
:104FD0000B048E7F17C0853F21F480910B048D7FD9
:104FE00011C0863F21F480910B048B7F0BC0873F5B
:104FF00021F480910B04877F05C0883F31F48091B4
:105000000B048F7E80930B0413C08D3F21F480919D
:10501000F5068E7F0BC08E3F21F48091F5068D7FC3
:1050200005C08F3F29F48091F5068B7F8093F506AC
:1050300080910C04811106C080910D04811102C081
:105040001092070480910E04811106C080910F0414
:10505000811102C01092040408958091F50680FD2C
:1050600016C081FD16C082FD18C0809104048823FB
:1050700091F0883290F428E0829FC001112468E208
:1050800070E00E941431862F672B29F007C082E060
:10509000089584E0089581E0089588E0089580915E
:1050A000F50680FD14C081FD14C082FD16C08091FC
:1050B0000704882381F0843180F422E3829FC001B9
:1050C000112464E170E00E941431862F08958CE071
:1050D000089589E1089585E0089582E30895803F69
:1050E00021F40E944F28819504C0813F29F40E9439
:1050F0004F2880930D040895823F21F40E944F2889
:10510000819504C0833F29F40E944F2880930C04AA
:105110000895893F19F40E942D2805C08A3F31F473
:105120000E942D28819580930E0408958B3F21F4D1
:105130000E942D28819504C08C3F29F40E942D28BF
:1051400080930F040895843F21F480910B048160C3
:1051500017C0853F21F480910B04826011C0863F07
:1051600021F480910B0484600BC0873F21F480916F
:105170000B04886005C0883F31F480910B04806186
:1051800080930B0408958D3F21F48091F506816092
:105190000BC08E3F21F48091F506826005C08F3FE1
:1051A00029F48091F50684608093F5060895F894BB
:1051B000E82FE295EF70F0E031A1282F2F7081E009
:1051C00090E001C0880F2A95EAF7982F90959323D5
:1051D00091A392A1892B82A378940895CF93DF9312
:1051E0000E949919EC018238910559F1A0F481339C
:1051F000910509F473C040F48932910509F467C040
:105200008A9709F472C084C08533910509F458C0A7
:10521000C997B9F07DC0833E910571F138F4803EA5
:105220009105B1F0823E910511F172C0863E910563
:10523000B9F1873E9105C9F1843E910509F068C036
:1052400024C08091860380FD5DC081FD5BC060C08D
:105250008091860380FD50C08091870380FF49C103
:105260008091860384FD43C1C3EED0E042C18091AA
:10527000860382FF3EC1F4CF8091860382FD3FC04A
:105280008091870380FD3EC0EBCF8091870381FF33
:1052900030C18091860384FD2AC1C7EED0E029C1C8
:1052A0008091860383FF25C1F4CF8091860383FD1F
:1052B0002CC08091870381FFECCFC4EED0E019C1F0
:1052C0008091860385FF15C1C9E2D0E012C18091AB
:1052D000860385FF0EC1C5E3D0E00BC18091860334
:1052E00086FF07C1CAE2D0E004C18091860386FF31
:1052F00000C1C1E3D0E0FDC0C9E3D0E0FAC0C2EE16
:10530000D0E0F7C0C0EED0E0F4C0C6EED0E0F1C00F
:10531000C11581E5D80708F066C0C11520E5D207A0
:10532000E0F0CE0174E0969587957A95E1F7837069
:105330009C2F937021E030E002C0220F331F9A951A
:10534000E2F73C68382BCF70C695C69540E2C49F03
:10535000E0011124C22BD32BCCC0C83ED10560F58F
:10536000C03ED10508F0C5C0C83AD105B0F4C53A71
:10537000D10540F0C55AD0E0C75BDC4FC881D0E012
:10538000D064B7C0C130D10509F4B3C008F4AFC0D0
:10539000C430D10508F4ABC0ACC0CF3BD10508F098
:1053A000A6C0C85AD0E0CC0FDD1FC45BDC4F09900B
:1053B000D881C02DD4649DC0C11540E2D40758F4F3
:1053C000C11581E0D80708F094C0C03FD10508F4AA
:1053D0008EC0D0658EC0C11520E4D20708F487C006
:1053E000DF70D06A86C0C11545E5D40708F042C019
:1053F000C11584E5D80728F0DC2FCC27C46FD06A0C
:1054000078C0C11523E5D207B0F0CE01837099278B
:1054100021E030E002C0220F331F8A95E2F78C2F83
:105420008695869540E2849FC0011124E901C82B2E
:10543000D92BDA685EC0C11542E5D40728F4DC2F09
:10544000CC27C16FD06A55C0CE018370992721E067
:1054500030E002C0220F331F8A95E2F78C2F869529
:10546000869540E2849FC0011124E901C82BD92B05
:10547000DC683FC0C11589E5D807B8F4C11528E537
:10548000D20728F0DC2FCC27C06FD06A32C0C115FC
:1054900046E5D40760F58C2F0E94D5268F71C82F62
:1054A000D0E0DC2FCC27D06224C0C1158AE5D80714
:1054B00080F48C2F8F700E94D52694E0D695C795E6
:1054C0009A95E1F7CF70D0E0DC2FCC27D069C82BBC
:1054D00010C0CE0190568115904248F48D2F8F71E7
:1054E0000E94D526DD27D0628F71D82B02C0C0E084
:1054F000D0E0CE01DF91CF9108950E94471C20910A
:105500000C04211104C020910D04222321F090935A
:1055100009048093080420910E04211104C02091F5
:105520000F04222321F09093060480930504E09158
:10553000FE03F091FF03309749F082E080930A0464
:105540000480F581E02D8AE094E0099408959F920B
:10555000AF92BF92CF92DF92EF92FF920F931F9381
:10556000CF93DF930CE713E080E2E82E81E0F82E82
:10557000C0E0D0E0912CCC24C394D12CB701D7014A
:105580008C91F894E82FE295EF70F0E021A18F70F4
:10559000A60102C0440F551F8A95E2F7CA01922F57
:1055A000982B91A392A18095892382A3789400C01F
:1055B000E5E2F1E020E030E0A12CB12C4191842F14
:1055C00082958F7090E0DC0190968C9190E04F7006
:1055D00002C0959587954A95E2F780FD08C0C601FF
:1055E000022E02C0880F991F0A94E2F702C080E0E1
:1055F00090E0A82AB92A2F5F3F4F2E303105F1F6EF
:10560000BFEFEB1AFB0AFB0180810E94D728C43050
:10561000D10519F0F0EAFA95F1F7D8018D919C9136
:105620001197A816B90621F0AD92BC9281E001C095
:1056300080E0982A21960E5F1F4FC530D10509F0F2
:105640009DCF992049F081E08093F2060E94471C8B
:105650009093F1068093F0068091F206882391F1F1
:105660008091F0069091F1060E942C1C049750F155
:1056700080917C0390917D0390931D0480931C0482
:1056800080917E0390917F0390931F0480931E046A
:105690008091800390918103909321048093200452
:1056A000809182039091830390932304809322043A
:1056B0008091840390918503909325048093240422
:1056C0001092F206892DDF91CF911F910F91FF90DB
:1056D000EF90DF90CF90BF90AF909F9008951F9272
:1056E0000F920FB60F9211242F933F934F935F9316
:1056F0006F937F938F939F93AF93BF93CF93DF93DA
:10570000EF93FF93C091E900CF708091EC00D82F08
:10571000D17080FDD0E81092E9008091F000877F81
:105720008093F00078940E94F7231092E900809112
:10573000F00088608093F000CD2BCF70C093E9001B
:10574000FF91EF91DF91CF91BF91AF919F918F9199
:105750007F916F915F914F913F912F910F900FBE6D
:105760000F901F901895E8EDF0E080818E7F808388
:105770001092E2001092DA001092E100A0EEB0E088
:105780008C9181608C9380818F77808319BCA7ED89
:10579000B0E08C918E7F8C9380818F7E808310927D
:1057A000F30608952091E4003091E50095E64091DC
:1057B000EC00842F817040FF23C08091E80080FDC1
:1057C0001DC08091F104882399F0853099F0809173
:1057D000EB0085FD11C04091E4005091E5002417D5
:1057E000350729F3915011F09A01E1CF84E0089533
:1057F00082E0089583E0089581E0089580E00895AF
:105800004091E80042FFDDCF08958091E90487FFD1
:1058100011C08091E80082FD05C08091F1048111E2
:10582000F8CF11C08091E8008B770BC08091F10414
:10583000882349F08091E80080FFF8CF8091E8004C
:105840008E778093E8000895982F973068F59093AD
:10585000E900981739F07091EC002091ED0050911B
:10586000F00003C0242F762F50E021FD02C09F5F7F
:10587000ECCF3091EB003E7F3093EB003091ED00A8
:105880003D7F3093ED003091EB0031603093EB00C1
:105890007093EC002093ED005093F0002091EE0007
:1058A00027FDE5CF80E008958F708093E90081E0C7
:1058B0000895CF92DF92EF92FF920F931F93CF93B1
:1058C000DF93C8EDD0E088818F7E8883E7EDF0E03C
:1058D00080818160808384E082BF81E08093F306D1
:1058E00088818E7F888302EE10E0F801108210928A
:1058F000DA0081EEC82ED12CF601108288818F77D4
:10590000888388818068888388818F7D888319BC9B
:105910001092F1041092E8041092E7041092E60449
:1059200090EEE92EF12CF70180818B7F80838881B6
:105930008160888342E060E080E00E94242CF601D0
:1059400080818E7F8083F801808181608083808167
:1059500088608083F70180818E7F80838881806169
:105960008883DF91CF911F910F91FF90EF90DF908F
:10597000CF9008951F920F920FB60F9211242F937C
:105980003F934F935F936F937F938F939F93AF93C7
:10599000BF93EF93FF938091E10082FF09C0809154
:1059A000E20082FF05C08091E1008B7F8093E100DF
:1059B0008091DA0080FF2AC08091D80080FF26C045
:1059C0008091DA008E7F8093DA008091D90080FF89
:1059D00018C080E189BD82E189BD09B400FEFDCF18
:1059E00081E08093F1048091F30681110FC00E9441
:1059F000B32B0E94592C8091E20084608093E200D6
:105A000005C019BC1092F1041092F3068091E100D8
:105A100080FF17C08091E20080FF13C08091E200F8
:105A20008E7F8093E2008091E20080618093E200AB
:105A30008091D80080628093D80019BC85E0809363
:105A4000F1048091E10084FF34C08091E20084FF82
:105A500030C080E189BD82E189BD09B400FEFDCF7F
:105A60008091D8008F7D8093D8008091E1008F7E57
:105A70008093E1008091E2008F7E8093E20080912C
:105A8000E20081608093E2008091E804882311F0B5
:105A900084E007C08091E30087FD02C081E001C07F
:105AA00083E08093F1040E94392E0E94C81810925E
:105AB000F4068091E10083FF27C08091E20083FF1C
:105AC00023C08091E100877F8093E10082E0809392
:105AD000F1041092E8048091E1008E7F8093E10050
