:100000000C9465040C94AC040C94AC040C94AC04F7
:100010000C94AC040C94AC040C94AC040C94AC04A0
:100020000C94AC040C94AC040C9441230C947D22ED
:100030000C941A1B0C94AC040C94AC040C94AC04FB
:100040000C94AC040C94AC040C94AC040C94AC0470
:100050000C94AC040C94CD1A0C94AC040C94AC0429
:100060000C94AC040C94AC040C94AC040C94AC0450
:100070000C94AC040C94AC040C94AC040C94AC0440
:100080000C94AC040C94AC040C94AC040C94AC0430
:100090000C94AC040C94AC040C94AC040C94AC0420
:1000A0000C94AC040C94AC040C94AC0465076E077F
:1000B0009A07DC0724086E087108740877087C0822
:1000C0007F088208850888088B089008950898089A
:1000D0009B08A0081A0C310C370CD70CD70C6F0CEE
:1000E0007F0C900CD10C33103E10431048104D1073
:1000F000521057105C10611066106B107210741063
:1001000076107810530E530E530E530E530ED91013
:10011000D9101311131166118211111311138F11BC
:100120006C12791279128520AC205F22AC205F22FC
:10013000F8201B215F221C222C22092B092B1C2BAF
:100140001C2B122B1C2B1C2B1C2B092B092B172BAC
:100150001C2B1C2B172BFD377A585A000004E6D6AF
:10016000B4460200210116000000742FE5A3E0034D
:10017000EC014D5D003D8889C65436C3174FE4E15C
:100180006D1C877B813383BE28EEBFBB1B46638D0E
:100190005CE6F4D5D0AD9D7C91247250B3435D7381
:1001A000674B1B87FEC4592BE316479509E7168E4C
:1001B000FB11C55F22BD36D09198E84AF2BA9A1871
:1001C0004FACD1BA71D0DC17F047228018040D83F0
:1001D00017ABA5F55072BBE76F3B548AFF585DEB38
:1001E000FCD56B8B30567F689B0FF1CF13C2075D38
:1001F0003A961EB9F05FE2014FB3893211BD62AA8F
:1002000043E91CA2486D0D5AAD3F843F4273FF4342
:1002100065F7598556192A703534BE474A24F78147
:1002200037E428DD7518158D49E0163C15A5A4D8CE
:100230001127A2EF6E7BFD4E7FA66D0B341B181E9F
:10024000C12273DF62B72C9B8BC7CD0246532B872D
:10025000F2C30129260BF5CA76F89E832862035261
:10026000B588315AE0AA3544EF5976620236EE423B
:100270003FD1A8C6229E27738EE561040452CA4B63
:10028000B76754D3F573ADAAA1E3EDF0A5B9FA3879
:10029000418DE895865188B26F1CE415F4678D4F47
:1002A000094D972CF2CB77ED80C357D0BCAC5DFDE8
:1002B0002D975FEFC54EAA462A5B4D1EF6352BDF04
:1002C0004ED800000000CE7A2556CDCCC85D000186
:1002D000E902ED070000974284A9B1C467FB020060
:1002E00000000004595A0000000000000000000057
:1002F00000000000000000000000000000000000FE
:10030000000000000000000000007E0F00D4FFFF8E
:10031000FFC70000007800000000000000002A2B4A
:1003200028000000000000000000000000000000A5
:100330000029000000002C1E34202122243426270E
:10034000252E362D3738271E1F202122232425262F
:100350003333362E37381F0405060708090A0B0CFD
:100360000D0E0F101112131415161718191A1B1C45
:100370001D2F3130232D350405060708090A0B0C03
:100380000D0E0F101112131415161718191A1B1C25
:100390001D2F3130354C29001E001F002000210088
:1003A0002200230024002500260027002D002E0017
:1003B0002A004A002B0014001A000800150017003C
:1003C0001C0018000C00120013002F003000310038
:1003D0004B00390004001600070009000A000B005A
:1003E0000D000E000F0033003400000028004E0006
:1003F000E1001D001B00060019000500110010009F
:10040000360037003800E500000052004D00E000E3
:10041000E300E200000000002C0000000000E60005
:100420000000E4005000000051004F00165C3A004C
:100430003B003C003D003E003F00400041004200C8
:100440004300440045004C004A000100C25CC35C0C
:10045000C55CC65CC75CC85CC95CCA5C0100460080
:1004600047004800005C4B000100CB5CCC5C010005
:100470000100010001000100010001000100010074
:100480000000DE5C4E00E1000100010001000100FF
:100490000100010001000100010001000100000055
:1004A000A900A800010001000100000000000100F7
:1004B00000000000010000000100AC000000AA00E4
:1004C000AB0001000100010001000100010001007A
:1004D0000100010001000100010001000100010014
:1004E0000100010001000100010001000100010004
:1004F00001000100010001000100010001000100F4
:1005000001000100010001000100010001000100E3
:1005100001000100010000000100010001000100D4
:1005200001000100010001000100010001000100C3
:1005300001000100000001000100010001000100B4
:1005400000000000010000000000010000000100A8
:100550000100000001000100010001000100010094
:100560000100010001000100010001000100010083
:100570000100010001000100010001000100010073
:100580000100010001000100010001000100010063
:100590000100010001000100010001000100010053
:1005A0000100010001000100010001000000010044
:1005B0000100010001000100010001000100010033
:1005C0000100010001000100010000000100010024
:1005D0000100010001000000000001000000000017
:1005E0000100000001000100000001000100050100
:1005F0000902A10185020901A100050919012905C6
:10060000150025019505750181029501750381018C
:100610000501093009311581257F9502750881068C
:1006200009381581257F950175088106050C0A3862
:10063000021581257F950175088106C0C005010955
:1006400080A101850319012AB700150126B700957D
:100650000175108100C0050C0901A1018504190173
:100660002AA002150126A002950175108100C0057F
:10067000010906A1018505050719E029E7150025EF
:10068000019508750181020507190029EF1500255C
:100690000195F07501810205081901290595057577
:1006A000019102950175039101C00660FF0961A1E6
:1006B000010962150026FF00952075088102096373
:1006C000150026FF00952075089102C00501090656
:1006D000A101050719E029E7150025019508750115
:1006E00081029501750881010507190029FF150090
:1006F00026FF009506750881000508190129059552
:100700000575019102950175039101C009025B0015
:10071000030100A0FA0904000001030101000921FE
:10072000110100012240000705810308000A0904A5
:100730000100020300000009211101000122220032
:1007400007058203200001070503032000010904B7
:100750000200010300000009211101000122BC0078
:100760000705840320000A1201100100000008425E
:100770004B25120200010203011C0376006900618F
:10078000006C003A006600360034006300320062FC
:10079000003300630000001A034D0065006C006F19
:1007A0000064007900360035002000520047004206
:1007B00000000010034B0042004400660061006E20
:1007C000007300000004030904000101010101019C
:1007D00001010102020202020202020203030303F8
:1007E00003030303040404040404040505050505C8
:1007F0000606060606070707070708080808090986
:1008000009090A0A0A0B0B0B0C0C0C0D0D0D0E0E30
:100810000E0F0F0F101011111112121313141415C3
:100820001516161717181819191A1A1B1B1C1D1D37
:100830001E1E1F202021222223242425262627288D
:1008400029292A2B2C2D2D2E2F30313232333435BD
:10085000363738393A3B3C3D3E3F404142434445C0
:10086000464748494A4C4D4E4F505153545556589F
:10087000595A5B5D5E5F616264656668696B6C6D49
:100880006F7072737577787A7B7D7E8082838587BF
:10089000888A8C8E8F91939596989A9C9EA0A2A3FD
:1008A000A5A7A9ABADAFB1B3B5B7BABCBEC0C2C402
:1008B000C6C9CBCDCFD1D4D6D8DBDDDFE2E4E7E9C2
:1008C000EBEEF0F3F5F8FAFDFF0011241FBECFEFB9
:1008D000DAE0DEBFCDBF04B603FE27C08091640618
:1008E00090916506A0916606B09167068730904B9F
:1008F000A740B04BD1F41092640610926506109296
:1009000066061092670614BE84B7877F84BF0FB651
:10091000F894A8958091600088618093600010929F
:1009200060000FBEE0E0F8E3099513E0A0E0B1E05D
:10093000EEEFFCE502C005900D92A839B107D9F79A
:1009400026E0A8E9B3E001C01D92A436B207E1F7A2
:100950000E94AE040C947D2E0C940000CF93DF9384
:10096000CDB7DEB7E8970FB6F894DEBF0FBECDBFA8
:1009700084B7877F84BF0FB6F894A89580916000F4
:10098000886180936000109260000FBE90E080E864
:100990000FB6F89480936100909361000FBE85B705
:1009A000806885BF85B7806885BF8DE09AE19093A8
:1009B0009903809398030E94C1220E94E0228091B3
:1009C000E20084608093E200789480915506882349
:1009D000A1F01091E9001F709091EC00892F8170B7
:1009E00090FD80E8182B1092E9008091E80083FDCB
:1009F0000E949F1F1F701093E90082E084BD93E066
:100A000095BD9AEF97BD80936E0080EF0E945126AE
:100A100081EF0E94512684EF0E94512686EC0E94AD
:100A2000512686E60E94512601E211E040E3E42EC1
:100A300041E0F42ED8018D918D010E945126E016DF
:100A4000F106C1F7EAE9F3E084EA93E0AAE1B4E051
:100A5000119211921D921D928E179F07C9F70E9445
:100A60002128EFEBFDE53197F1F700C000000E946F
:100A7000212880911A0480FF17C06FEF82E290E076
:100A80000E94D32D6FEF83E290E00E94D32D6FEF91
:100A900084E290E00E94D32D6FEF7FEF80E090E042
:100AA0000E94F12D0E94A91A80E090E00E94BD2DC5
:100AB0008B3E9E4F11F00E94AD1B0E9411161092AA
:100AC000D503EEEEF3E08EEF93E02FEF3FEF2193AF
:100AD00031938E179F07D9F71092A803E1ECF3E04A
:100AE00081ED93E02FEF3FEF219331938E179F0716
:100AF000D9F780E090E00E94BD2D8B3E9E4F21F003
:100B00000E94AD1B0E94FB1845E050E06CE170E0D4
:100B10008AE596E00E94A52D80915A068C7F11F4FB
:100B20000E94FB1882E290E00E94B52D8F3E81F476
:100B300083E290E00E94B52D853151F484E290E08B
:100B40000E94B52D91E0893709F090E0892F01C00E
:100B500080E080FF39C780E090E00E94BD2D8B3E91
:100B60009E4F11F00E94AD1B82E090E00E94B52DD7
:100B700080930F040E949C1B9093A5038093A40371
:100B800083E090E00E94B52D682F70E080E090E057
:100B90000E94701D6091A40360686093A40310918B
:100BA000A50384E090E00E94D32D612F81E290E0C4
:100BB0000E94D32D82E091E09093A7038093A60337
:100BC00033243A942224239466246394712C9E0146
:100BD0002F5F3F4F29010E94212881110E94021B93
:100BE000E0E1F4E0AAE1B4E000E010E0402FCD90B5
:100BF000DD90819191918C259D25009709F4B0C0DD
:100C0000B12CEE24E394F12C970128233923232BD4
:100C100009F49FC0B9A64AA7CE20DF2081E0C11405
:100C2000D10409F480E08BA70E940E1B8160782F0D
:100C30009DA78CA749A55AA56BA58DA50E9427172E
:100C4000F801EE0FFF1FE05FFB4F80819181E826E6
:100C5000F926F182E082CD2889F08FE0809FF001B3
:100C6000819FF00D1124ED5AFD4FEB0DF11D808198
:100C70008F3F21F08FABDD24D39401C0D12CC090E5
:100C8000A8030D2D10E0C8018C0D911D0997A4F14A
:100C9000E8E0EE2EF12CE01AF10AB8016F5F7F4F09
:100CA00068557C4FA70189EA93E00E946D2EB80138
:100CB000675F7F4F68557C4FA70181EB93E00E94EF
:100CC0006D2EA701440F551FB801660F771F675E91
:100CD0007F4F68557C4F81EC93E00E946D2EB801E8
:100CE0006F5E7F4F68557C4FA70189EB93E00E94B0
:100CF0006D2ECA94C092A8038091A80390E08FA89B
:100D0000A82DB0E09D01220F331F22563D4FAA0FA0
:100D1000BB1FBD0161567D4F41E0480F9D15B0F4EA
:100D200090E0FC01E855FC4FD9015C915183DB0157
:100D30005C9151878FA8818A880F991FFC01E85523
:100D4000FC4F128E118E91E0842FE6CF8093A80382
:100D50001CC0B394EE0CFF1C3FE0932EB91054CF8F
:100D60000F5F1F4F0530110509F040CF3EA63FA68B
:100D700018AA0E940E1B8160782F9AAB89AB4EA5F2
:100D80005FA568A98AA90E9427178091D103909135
:100D9000D203A091D303B091D4032FB7F894C0909D
:100DA000FE03D090FF03E0900004F09001042FBFF9
:100DB000C81AD90AEA0AFB0A0E94021B6093D103EF
:100DC0007093D2038093D3039093D403A091A8038C
:100DD000E8EAF3E0A8AFB0E00FEF1FEF20E030E06B
:100DE0000C191D092E093F090BAB1CAB2DAB3EABFB
:100DF000AB17C9F0418D528D4A01A12CB12C0BA922
:100E00001CA92DA93EA9081519052A053B0520F4A2
:100E100018AD115018AF04C04C0D5D1D528F418F9D
:100E2000BF5F3296E5CF28AD2093A803209124061A
:100E3000211108C010915A06212F237019F0169520
:100E4000169501C010E0209110012130F1F038F02A
:100E5000223009F4F0C1233009F4FAC116C210920D
:100E60000D01609356067093570680935806909331
:100E7000590689E2E8EAF3E0A5EDB3E001900D92AE
:100E80008A95E1F72092100100C2809101011813A8
:100E90000DC020915A06237030E04091000150E0CF
:100EA00081E02417350719F480E001C081E08170EA
:100EB00080930F01412F50E04431510508F09BC150
:100EC000FA01EA5AFF4F0C943E2E882309F493C18D
:100ED00040E060E080E00E94DB188DC100910D01D0
:100EE000000F000FF4E0FF2EF00E33E43F1510F476
:100EF000E3E4FE2E60915B0670915C0680915D06D6
:100F00000E949224E62ED72EC82E0F1508F0E0C0BE
:100F1000E02FF0E0DF01AC5DBC4F8C9190910E01B1
:100F2000982331F02C2D4E2D6D2DCF010E94DD1810
:100F30000F5FEBCF00910D01000F000F74E0F72E53
:100F4000F00E53E45F1510F463E4F62ED0905C06C7
:100F5000E0905D06C0905B06B6018E2D0E94922443
:100F6000B62EA72E982E60915E066C0D7D2D8E2DCF
:100F70000E949224E62ED72EC82E0F15B8F4802F8B
:100F800090E0FC01EC5DFC4F308120910E012323A9
:100F900059F030FF04C02C2D4E2D6D2D03C0292D8E
:100FA0004B2D6A2D0E94DD180F5FE7CF81E092E4A0
:100FB0009F1508F021C11FC100910D01000F000F06
:100FC00054E0D52ED00EA3E4AD1510F443E4D42E96
:100FD000B0905C06A0905D0620915E0630E4C32EC2
:100FE0003C2D329F312D1124C32E0D1538F5E02EE6
:100FF000F12CF701EC5DFC4F908180910E0189236B
:10100000D9F0F701EE0FFF1FE256FD4F6081C69E3B
:10101000B001112425E0759567952A95E1F7809137
:101020005B06680F7B2D8A2D0E949224462F282F65
:10103000672FC7010E94DD180F5FD7CF81E042E420
:101040004D1508F0D9C0D7C000910D01000F000F59
:1010500084E0F82EF00E53E45F1510F4B3E4FB2E99
:10106000D0905B06E0905C06C0905D0660915E06E5
:1010700066956695669580915606909157060E94F2
:101080008D190E941219805887FD8195880F282F8D
:101090003C2D239F212D1124822F6D2D7E2D0E940A
:1010A0009224E62ED72EC82E0F1590F4E02FF0E0F4
:1010B000DF01AC5DBC4F8C9190910E01982331F013
:1010C0002C2D4E2D6D2DCF010E94DD180F5FECCF22
:1010D00081E042E44F1508F08FC08DC088E894E1AC
:1010E00008C088E295E119C08CE095E11BC086E854
:1010F00094E10E94F12980C08DE794E1FACF84E762
:1011000094E1F7CF89E594E1F4CF8AE494E10AC051
:1011100084E699E102C08BEF94E10E9497296CC0AC
:1011200087EE94E10E941D2967C08CE194E105C01F
:101130008AEE93E102C08CEA93E10E94392A5CC0F6
:1011400000910D01000F000FA4E0BA2EB00E53E481
:101150005B1510F4F3E4BF2E20915E0630E040E012
:1011600050E06FEF7FEF80E090E00E941F2E79014A
:101170000B15E8F5C02ED12CF601EC5DFC4F9081EB
:1011800080910E01892389F19091D503915097FDAB
:1011900015C0292F092E000C330BF901EB52FC4F1F
:1011A00081890813F3CF220F331FF901EB52FC4F53
:1011B000218D328D2E153F0548F701C097016091B2
:1011C0005E06C9010E948D19AC0160915B067091A9
:1011D0005C0680915D060E940C190E949224462FA5
:1011E000282F672FC6010E94DD180F5FC1CF81E055
:1011F00092E49B1508F480E090910D019F5F90931D
:101200000D01811115C082E08093100180910F01C2
:1012100081110EC01123C1F00E94F11781FF35C06A
:101220002FEF4FEF6FEF8EE190E00E94DD182DC0A1
:10123000112359F1F1CF1093010180915A06837067
:10124000809300010E946C1583E0809310011DC003
:101250004091560650915706609158067091590674
:101260002FB7F8948091FE039091FF03A0910004A2
:10127000B09101042FBF841B950BA60BB70B4A97A7
:10128000A105B10510F01092100186E0E8E0F4E04D
:10129000D20101900D928A95E1F7E0900A04109135
:1012A0000B0400910C04F0900D0410920A041092AB
:1012B0000B0410920C0410920D04E11003C01123D2
:1012C00009F44FC080910604909107040E94F31A1C
:1012D0009C0190910504992309F48FC323333105B0
:1012E00008F43FC09F3F19F09F5F90930504EE20E4
:1012F00061F00E94C9251E1414F491E001C09FEF13
:10130000899F802D112480930A04112361F00E948B
:10131000C925111614F491E001C09FEF899F802D1B
:10132000112480930B0430910A043323D1F02091CF
:101330000B042223B1F045EB3403C001112499239F
:1013400019F090930A0402C020920A0455EB250379
:10135000C0011124992319F090930B0402C020922C
:101360000B04011103C0FF2009F44FC08091030456
:10137000909104040E94F31A9C0190910204992315
:1013800009F440C32536310508F43FC09F3F19F0EA
:101390009F5F90930204002361F00E94A72510161E
:1013A00014F491E001C09FEF899F802D1124809358
:1013B0000C04FF2061F00E94A7251F1414F491E093
:1013C00001C09FEF899F802D112480930D043091DF
:1013D0000C043323D1F020910D042223B1F045EB0E
:1013E0003403C0011124992319F090930C0402C016
:1013F00020920C0455EB2503C0011124992319F008
:1014000090930D0402C020920D0480910A04811172
:101410000BC080910B04811107C080910C048111D5
:1014200003C080910D0481110E94F727EB821C8379
:101430000D83FE8286E0F201A8E0B4E001900D92F7
:101440008A95E1F70E94F11790910E04891721F017
:101450000E94F11780930E0480915506843009F0A4
:10146000BACB83E08093E9008091E80082FFB3CBA0
:101470008091E80085FF1FC00E941C24811119C0C3
:1014800000E210E0720108C08091F100D7018D9355
:101490007D010150110969F08091E80085FDF4CFCC
:1014A0008091E8008B778093E8000E941C248823B9
:1014B00099F391E001C090E08091E8008B778093F0
:1014C000E800992309F487CB00912A0410912B049A
:1014D00089810115110561F08E3F09F068C28A818A
:1014E000833008F49BC18550833008F060C296C1F8
:1014F0008B3009F47DC108F5853009F459C0A8F492
:101500008230B1F130F4813009F050C21A8289E0A2
:1015100046C28330F1F1843009F048C24C816B81BE
:101520008A810E9494189D834DC2873009F43EC27F
:1015300008F03CC20E9443183AC2803109F49EC0B0
:1015400058F48D3009F441C0F0F18E3009F440C0F8
:101550008F3009F466C02AC2823109F495C008F4BC
:1015600090C0833109F4B8C08E3F09F457C11EC240
:101570008A81823009F41FC2833009F418C2813095
:1015800009F014C20E94021B9B838C837D836E83AF
:101590000EC28A81823009F009C26B817C818D8103
:1015A0009E810E94442E85E290E00E94D32DFFC1CF
:1015B0002D813E813227232732274C816B818A81FE
:1015C0000E940D18F4C180E15DC02A8282E8E7C163
:1015D0000A811B81102701271027CC80D12CBDE167
:1015E000CB16D10408F0E3C17201C80182589D4FA7
:1015F0009701241935092C153D0508F0D8C102388A
:10160000E1E01E0730F40E94B52DD70114968C93AB
:1016100002C0F70114820F5F1F4FFFEFEF1AFF0A9E
:10162000E4CF8091280490912904892B09F4BFC14B
:101630000A811B81102701271027EC80F12C2DE156
:10164000E216F10408F0B3C16201C80182589D4F4F
:101650009601241935092E153F0508F0A8C1023856
:1016600031E0130728F4D60114966C910E94D32D13
:101670000F5F1F4FBFEFCB1ADB0AE7CF0E94FD17AA
:1016800096C184E08A8393C10A811B8110270127B8
:101690001027CC80D12CEDE1CE16D10408F087C103
:1016A0007201C80186969701241935092C153D054C
:1016B00008F07DC10835F2E01F0730F40E94B52D17
:1016C000D70114968C9302C0F70114820F5F1F4F4D
:1016D000FFEFEF1AFF0AE5CF0A811B8110270127D0
:1016E0001027CC80D12C2DE1C216D10408F05FC1A7
:1016F000083532E0130708F05AC188E592E0801BF4
:10170000910B8C159D0508F452C1480146E2840EE8
:10171000911C8091280490912904892B11F0720169
:101720005EC000FF0EC0C80185960E94B52D90E0F6
:10173000982F88272D81822B81159C4529F43D8285
:1017400003C0E12CF12C03C0EE24E394F12CC8017A
:101750008C0D9D1D560180FF1DC081E0A81AB108A7
:10176000A5E0B0E0AC0FBD1FAA0DBB1DBCABABAB81
:10177000C4018C0D9D1D0E94B52DEBA9FCA92081F3
:1017800030E0322F2227282B21153C4519F4ABA934
:10179000BCA93C92F201EE0DFF1DCF018419950901
:1017A0008A159B0508F0BBCF848190E0982F88278D
:1017B0002581822B81159C4511F434823582329625
:1017C000ECCF0835E2E01E0728F4D70114966C919F
:1017D0000E94D32D0F5F1F4FBFEFEB1AFB0AC8010A
:1017E00086969701241935092C153D0550F3DFC065
:1017F0008091280490912904892B09F4D8C0C20152
:101800000E94D12AEFEFF1EE04E0E150F0400040F9
:10181000E1F700C000000E94A91AC9C0EA818E2F1A
:1018200090E08930910508F0C2C0FC01E659FF4FF5
:101830000C943E2E88E0E1E1F1E0DE01919601900A
:101840000D928A95E1F729821A821B821C8288E018
:10185000FE01B196DE01159601900D928A95E1F791
:10186000A6C080E989832A821B821C82A0C08C8149
:1018700090E0982F88272B81820F911D092E000C54
:10188000AA0BBB0B35E0880F991FAA1FBB1F3A9507
:10189000D1F7AC01BD01405E5F4F6F4F7F4F4817DE
:1018A00059076A077B0708F482C0803911E0910765
:1018B000A105B10508F07BC0413921E0520761055F
:1018C000710520F040E951E060E070E0481B590BE1
:1018D000BC016A5A7E4FC2010E949C2D68C040E242
:1018E00050E06FEF70E0C2010E94762E80912804D4
:1018F00089830A831B821C821D822E8258C07092AB
:101900002B0460922A0442E350E050932704409352
:1019100026040E940E1B909325048093240447C044
:10192000012BA9F180911A0490911B049C0136951A
:1019300027958170182F12238091240490912504FB
:101940000E94F31A85369105E0F01123D1F00E9430
:101950000E1B90932504809324048091260490917B
:10196000270401979093270480932604892B79F408
:1019700010922B0410922A04709229046092280479
:1019800006C082E390E09093270480932604809120
:101990002804898380912A048A83809126048B837A
:1019A00006C0109229041092280401C03982C20195
:1019B0000E94D12A10C985E290E00E94B52D1B82B9
:1019C0001C821D828E83F3CF60E085E290E00E944E
:1019D000D32D0E9443180E94FD176FEE82E290E023
:1019E0000E94D32D65E183E290E00E94D32D69E748
:1019F00084E290E00E94D32DAEC82D32314008F031
:101A000073CCAFCC2D32314008F0C2CCFECC3F922B
:101A10004F925F926F927F928F929F92AF92BF92FE
:101A2000CF92DF92EF92FF920F931F93CF93DF93AA
:101A3000CDB7DEB729970FB6F894DEBF0FBECDBF86
:101A4000FC018081918123813481232B31F09F3FE0
:101A500031F491E08F3F19F403C091E001C090E0B0
:101A600090FD1CC67F0185E0DE01119601900D926C
:101A70008A95E1F7F701228189819A81222349F031
:101A80000E94631C182F682F89819A810E94DC1C98
:101A900003C00E94B01C182F69817A81812F0E9497
:101AA000C2188C01F7019281992309F4F2C09801C0
:101AB00022513F452031310508F019C18FEF93E0E5
:101AC0000E94B52D8111EFC002513EE7832E32E016
:101AD000932E002379F08114F4E09F0609F4E3C00B
:101AE000C4010E94B52D811101C001501FEF811A60
:101AF000910AEFCF1E821F821886198644244394D0
:101B00002AE0322E84010F5F1F4FC4010E94B52DC1
:101B10008E831F82882309F4C6C09FEF980F9330ED
:101B200060F48F834E8222E0820E911CC8010E94D5
:101B3000B52D8887811102C0B6C048018E010A5FA9
:101B40001F4FF80120812223E9F2213009F04CC017
:101B50008181813049F46801F2E0CF0ED11CF80197
:101B600082810E94182C0AC0823051F46801F2E090
:101B7000CF0ED11CF80182810E94A02B860186C065
:101B8000833049F46801F2E0CF0ED11CF801828164
:101B90000E94672BF3CF843019F00F5F1F4F76C080
:101BA000F80122810E5F1F4F80E090E030E020536B
:101BB00031092A30310568F4389EA001399E500D54
:101BC0001124C901840F951F0F5F1F4FF801208159
:101BD000EDCF009709F45AC0EFE9FFE03197F1F734
:101BE00000C000000197F5CFE22FF0E0EA5EFC4F65
:101BF0005490822F86958695869590E0FC01EA5F49
:101C0000FC4F64902770712C022E02C0759467946B
:101C10000A94E2F7F1E06F227724FC01EA50FD4FCD
:101C2000A490B12C022E02C0B594A7940A94E2F7B6
:101C300031E0A322BB24FC01EA51FD4FC490D12C1A
:101C400002C0D594C7942A95E2F781E0C822DD242A
:101C50006114710419F081EE0E94A02BA114B1044B
:101C600019F086EE0E94A02B852D0E94182CAB281F
:101C700019F086EE0E94672B672819F081EE0E940A
:101C8000672BCD2819F08CE20E94182C0F5F1F4F94
:101C900058CF00313FE5130709F0F7C481E00E94F7
:101CA000111D0E94E92880911A06877009F4F6C474
:101CB000F7018281882309F4F1C482E029960FB6E6
:101CC000F894DEBF0FBECDBFDF91CF911F910F9172
:101CD000FF90EF90DF90CF90BF90AF909F908F904C
:101CE0007F906F905F904F903F900C94361D003125
:101CF000FFE51F0711F481E005C001312FE5120750
:101D000021F482E00E944F1DCCCF033FFCE51F076A
:101D100049F406E221EE40EE63EF7CE5C7010E9444
:101D20009719C1CF043F2CE5120708F04AC1083DBE
:101D30003CE5130731F407E225EE45EE68ED7CE55E
:101D4000EDCF093D8CE5180731F408E221E045EEBE
:101D500069ED7CE5E3CF073DECE51E0731F406E2D3
:101D600021EE41EE67ED7CE5D9CF992309F45EC100
:101D700010922C040230ECE51E0708F441C1063134
:101D8000FCE51F0738F098012A5F3C4529303105F2
:101D900008F036C10E949C1B9093A5038093A40376
:101DA00000312CE5120709F4C3C008F041C0083027
:101DB0008CE5180709F49AC0F0F40430ECE51E072E
:101DC00009F487C068F402302CE5120709F477C0E3
:101DD00003301C4509F0E5C08091A403826076C001
:101DE00006308CE5180709F46EC008F07BC08091BE
:101DF000A40388606BC00C30ECE51E0709F485C0B5
:101E000068F40A302CE5120709F474C008F079C0B0
:101E10000E943D2B8091A403806858C00E308CE551
:101E2000180709F476C008F07FC08091A4038BC026
:101E30000B3FECE51E0709F44FC018F503312CE504
:101E4000120709F47DC078F401318CE5180709F414
:101E500073C002311C4509F0A4C00E943D2B809143
:101E6000A4038F7733C00531ECE51E0709F472C077
:101E700008F486C00A3F1C4509F093C08091A50371
:101E80003EC00F3F3CE5130709F45FC058F40D3F17
:101E90009CE5190709F444C008F43FC08091A503EC
:101EA00082602DC00130FDE51F0709F475C008F4FC
:101EB0005DC002301D4509F074C060E06EC08091C5
:101EC000A403816003C08091A40380618093A40374
:101ED00068C08091A40311C08091A50382608093A3
:101EE000A5035FC08091A4038062F0CF8091A4031A
:101EF0008064ECCF8091A40388608460E7CF816028
:101F0000EECF8091A4038E7FE1CF8091A4038D7FDB
:101F1000DDCF8091A403877FD9CF8091A50318C01E
:101F20008091A5038D7FDBCF8091A4038F7ECECFE0
:101F30008091A4038F7DCACF8091A4038F7BC6CFED
:101F40008091A403877F8B7FC1CF8091A5038D7F74
:101F50008E7FC5CF8091A40382FB222720F991E0D8
:101F6000922790FB82F990FB83F9B0CF8091A50373
:101F7000982F909591708E7F892B90FB81F9AFCF30
:101F80000E943D2B8091A40387FB222720F991E03A
:101F9000922790FB87F99ACF61E08EE090E00E9453
:101FA000D32D6091A4031091A50384E090E00E94DA
:101FB000D32D612F81E290E00E94D32D0E943D2B12
:101FC00072CE053FFCE51F0731F406E221EE42EE3A
:101FD00065EF7CE5A3CE053F2CE5120730F407E260
:101FE00025EE44EE64EF7CE599CE063F3CE5130711
:101FF00009F0BBCE07E225EE46EE66EF7CE58ECE1D
:1020000080911D060631ECE51E0709F58A7A91E0FC
:1020100009F490E090932D04882311F065E301C04A
:1020200069E280E995E00E94671B0EC006311C45FD
:1020300009F07AC080912D04882309F42DC365E34B
:1020400080E995E00E943F1B0E941D1C2CCE8272ED
:10205000F801E25CFC45E431F10508F04DC0ED58B3
:10206000FF4F0C943E2E90915A0681E08927809371
:102070005A06109210010E94DF1815CE44E157E174
:102080006DE177E12CC04DE157E164E177E127C0D4
:1020900042E057E16BE077E122C04BE057E162E0BC
:1020A00077E11DC04AEE56E166EF76E118C046EFD3
:1020B00056E16AEE76E113C042ED56E16EED76E14F
:1020C0000EC04EED56E162ED76E109C041EF58E1F8
:1020D00067EE78E104C047EE58E161EF78E10E94D5
:1020E000D518E1CD81E005C084E003C089E001C0DE
:1020F0008EE00E940729D7CD01158CE5180731F035
:102100000E3D1C4589F40E94AD1BCDCD0E943D2B98
:10211000FFEF04E31CE0F15000401040E1F700C085
:1021200000000E94A91ABFCDF701008111819923F7
:1021300049F0C8010E94631CD82E682FC8010E9474
:10214000DC1C04C0C8010E94B01CD82EB8018D2D23
:102150000E9468268C01982EF701D280A580A29457
:102160009FE0A92280911A06877099F0DD2089F0FE
:10217000812F807F803421F080E2800F883048F00A
:1021800082E00E94361D80911A068770CC24C39489
:102190008111C12CB12EB2948FE0B8228B2D90E02A
:1021A0008C30910508F03DC2FC01E957FF4F0C94BB
:1021B0003E2E812F807F1F70882311F01295107F93
:1021C000DD20B9F0112309F417C280E2800F8830B6
:1021D00010F0911006C080911D06182B10931D065B
:1021E00005C080911C06182B10931C060E941D1C14
:1021F00003C2802F0E94672B112309F412C2005ED4
:102200001095083010F0911006C080911D0618231B
:1022100010931D0605C080911C06182310931C0600
:102220000E941D1CFEC1812F807F1F70803211F023
:102230001295107F992021F0F1E09F16E1F02AC05D
:10224000DD2081F080911E06AA2051F001E0A0124D
:1022500007C0182B181709F4E4C110931E06E1C13A
:10226000812B10C0AA2021F021E0A21609F4D9C1C7
:102270000E94171C27C0DD2041F035E03A1508F414
:10228000D0C1812F0E945D2BCCC184E08A1508F457
:10229000C8C118C0DD2049F0AA2099F3F701858153
:1022A00080FFAAC18F708583ECCFAA2059F0093333
:1022B00009F0B4C1FFEF17EE23E0F15010402040C9
:1022C000E1F7AAC1812F0E94522BABC1812F8695C5
:1022D0008695837019F0813059F0A3C1DD2019F083
:1022E000C801937002C080E090E00E94DB1799C1A2
:1022F000DD2019F0C801937002C080E090E00E94D8
:10230000C5178FC1802FDD2029F00E94E9250E948A
:10231000F72702C00E9422250E94F72782C1812F41
:10232000837009F06AC0D11080C1902F9295969564
:102330009770990F990F802F8F70482E512C612C18
:10234000712C092E04C0440C551C661C771C0A9481
:10235000D2F704FF12C04FE050E060E070E004C02C
:10236000440F551F661F771F9A95D2F7DB01CA01EC
:1023700080959095A095B09503C080E090E0DC0139
:1023800016951695412F43704230D9F068F50091AB
:102390001F0610912006209121063091220641301F
:1023A00059F084299529A629B729BC01CD016023BC
:1023B0007123822393231EC0402A512A622A732A42
:1023C00013C084299529A629B72900911F061091C9
:1023D00020062091210630912206BC01CD01602704
:1023E00071278227932706C0BC01CD016429752976
:1023F000862997290E94701D14C1DD2019F0812FB4
:10240000817001C08695882309F40FC1902F9295A1
:1024100096959770990F990F802F8F70482E512C99
:10242000612C712C092E04C0440C551C661C771CB1
:102430000A94D2F704FF12C04FE050E060E070E071
:1024400004C0440F551F661F771F9A95D2F7DB0112
:10245000CA0180959095A095B09503C080E090E06A
:10246000DC0116951695412F43704230D9F068F57E
:1024700000915F061091600620916106309162061E
:10248000413059F084299529A629B729BC01CD01ED
:1024900060237123822393238CC0402A512A622A0D
:1024A000732A13C084299529A629B72900915F06AC
:1024B000109160062091610630916206BC01CD0149
:1024C000602771278227932774C0BC01CD0164293E
:1024D0007529862997296DC01F70DD2029F0812F6D
:1024E0000E944F1D802FCECE802F0E94522B812F15
:1024F00049C0802F32EF931609F440C0391538F0E7
:1025000090EF991661F0E1EF9E1699F170C0F3EF2C
:102510009F16D9F124EF921609F44EC068C0DD2051
:1025200019F134E03A1508F47CC01F7181E090E0A5
:10253000A0E0B0E0AC01BD0104C0440F551F661F10
:10254000771F1A95D2F780915F0690916006A0914F
:102550006106B09162068A019B01082719272A2784
:102560003B27C901B80125C025E02A1508F459C048
:10257000DCCFDD2029F0812F8F712CC0DD20D9F335
:10258000812F8F710E94111D4CC0DD2079F01F71C9
:1025900081E090E0A0E0B0E0BC01CD0104C0660F96
:1025A000771F881F991F1A95D2F703C060E070E06B
:1025B000CB010E94071D35C0DD2079F01F71812FEE
:1025C0000E944F1D38E0139FC00111248360809347
:1025D0001A06812F0E944F1D24C081E00E94361DE3
:1025E00081E08A15F0F482E00E94361D1AC0DD20D9
:1025F00039F0AA2009F4BFCF802F0E94A02B11C070
:10260000AA2009F4BDCF893349F49FEFE7EEF3E048
:102610009150E040F040E1F700C00000802F0E94A0
:10262000672B88EF8B0D843010F40E94F117CC20BB
:10263000A9F180911A0680FD31C0F70112828595BB
:10264000859585950E944F1DC7010E94070D8091B9
:102650001A0685958595859529960FB6F894DEBF5F
:102660000FBECDBFDF91CF911F910F91FF90EF90E3
:10267000DF90CF90BF90AF909F908F907F906F90A2
:102680005F904F903F900C94111D01318FE518071A
:1026900009F03BCB82E003CB69E2D2CC29960FB69E
:1026A000F894DEBF0FBECDBFDF91CF911F910F9188
:1026B000FF90EF90DF90CF90BF90AF909F908F9062
:1026C0007F906F905F904F903F9008958334910575
:1026D00040F5880F991F880F991FFC01E85CFE4F99
:1026E00052813381808183707181A82FB0E0E0E94D
:1026F0008E9FC00111248C5B9B4FFC01E70FF11DE5
:10270000B4976083FC01E50FF11DB4974083830FFC
:10271000911DFC01B4972083FD01EE5BFB4F81E02E
:1027200080830895FF920F931F93CF93DF93182F09
:10273000062FF42EC0E0D0E02F2D402F612FCE01C8
:102740000E9466132196C334D105B1F7DF91CF9172
:102750001F910F91FF9008950F931F9310E0F801C0
:10276000EE0FFF1FE256FD4F9081905797FD919518
:10277000000F111FF801E156FD4FE081F0E0B09726
:10278000DF01AA0FBB1F8D010E0F1F1F2003D001F9
:10279000219FB00D1124E8E3F0E0E91BF10997FD5A
:1027A000F3959F01220F331F89010E0F1F1F400356
:1027B0009001419F300D11242A0F3B1F37FF02C0AB
:1027C00021583F4F220F232F221F330B620F1F91DF
:1027D0000F9108950F931F93522F10E0F801EE0F01
:1027E000FF1FE156FD4FE081F0E0B097EE0FFF1FB5
:1027F0009F015203D001539FB00D1124000F111FF0
:10280000F801E256FD4F008110E000571109000F5A
:10281000111F40039001419F300D11242A0F3B1FCF
:1028200037FF02C021583F4F220F232F221F330BA7
:10283000620F1F910F9108950F931F93522F10E075
:10284000F801EE0FFF1FE156FD4FE081F0E0B09779
:102850009F015203D001539FB00D1124000F111F8F
:10286000F801E256FD4F008110E0005711094003C6
:102870009001419F300D11242A0F3B1F37FF02C0EA
:1028800021583F4F220F232F221F330B620F1F911E
:102890000F910895EF920F931F9393E0099F80018A
:1028A0001124159507956E2D600F1F910F91EF90D4
:1028B0000895A22F50E0FA01EE0FFF1FE156FD4FE1
:1028C0009081905297FD9195440F551FFA01E25661
:1028D000FD4F3081232F30E02A1B3109290F311D94
:1028E00097FD3A95620F0895E42FF0E0EE0FFF1F79
:1028F000E156FD4F6081621B0895E42FF0E0EE0F7A
:10290000FF1FE256FD4F6081621B0895622F0895FC
:10291000E42FF0E0EE0FFF1FE256FD4F408134EE52
:10292000439F412D1124E82FF0E050E0445E5F4FBB
:10293000DA01A21BB1099D01B7FF03C031952195B2
:10294000310993E0220F331F9A95E1F7AF01421B43
:10295000530B9A0157FF02C020E030E0582F259F0B
:10296000212D1124822F0895FC019B01009721F451
:1029700077FF2BC080E80895AC0197FF04C044277F
:102980005527481B590BB901640F751F37FD0CC043
:10299000241B350BC901A5E0880F991FAA95E1F703
:1029A0000E940B2E80E20CC0CB0165E0880F991FBE
:1029B0006A95E1F7BA01621B730B0E940B2E80E649
:1029C000861BF7FF03C08195089580E00895EF927C
:1029D0000F93CF93DF93D72FC82FC9010E19BA01D8
:1029E0000E94B414602F681B7D2F8C2FDF91CF9134
:1029F0000F91EF9008950F93CF93DF93D72FC82FA8
:102A0000C901BA010E94B414682F600F7D2F8C2F6A
:102A1000DF91CF910F910895EF920F931F93CF9372
:102A2000DF93D62FC72F182FC9010E19010FBA0136
:102A30000E94B414081B202F219F212D1124822FC6
:102A40006D2F7C2FDF91CF911F910F91EF90089503
:102A5000FF920F931F93CF93DF93F62ED72F182F4C
:102A6000C901C12FC01BBA010E94B414982F990F3D
:102A7000890FC81B2C2F219F212D1124822F6F2DF0
:102A80007D2FDF91CF911F910F91FF9008950F93AC
:102A90001F93CF93DF93082F000FEB0114E21093E5
:102AA0002E04EFE2F4E0DE018D91819384E0EF33B8
:102AB000F807D1F724E630E041E150E06EE274E03F
:102AC000802F0E94752D105F6096143B41F7DF91B7
:102AD000CF911F910F91089580914204882329F08E
:102AE00064E474E084E70E944715109242048091E8
:102AF0004304882329F064ED74E087E70E944715BA
:102B0000109243040895EEE2F4E06083418324E6EA
:102B100030E042E050E0BF01880F0C94752DDF9249
:102B2000EF92FF920F931F93CF93DF93262F30E006
:102B3000A90148575A4F7A01FA01908191110AC0B0
:102B4000F7011082DF91CF911F910F91FF90EF90CD
:102B5000DF900895D82EF2E16F9FE001112400E08C
:102B600010E0F801EC0FFD1FEC59FA4F4081602F87
:102B70008D2D0E9483150F5F1F4F0231110589F7BC
:102B8000DFCFCF93DF93C82F4BE06DEF0E9483150B
:102B900040E06AE08C2F0E9483158FE39CE9019747
:102BA000F1F700C0000040E060E08C2F0E94831528
:102BB00040E061E08C2F0E94831540E066E08C2F9E
:102BC0000E94831540E06DEF8C2F0E948315D0E0AA
:102BD00040E06D2F8C2F0E948315DF5FD231C1F74B
:102BE00040E06D2F8C2F0E948315DF5FD432C1F738
:102BF00040E06D2F8C2F0E948315DF5FD43BC1F71F
:102C00004BE06DEF8C2F0E94831541E06AE08C2F22
:102C10000E94831540E06DEF8C2FDF91CF910C94D3
:102C200083157F928F929F92AF92BF92CF92DF9245
:102C3000EF92FF920F931F93CF93DF930E94E82CA4
:102C400084E70E94C11587E70E94C11508E311E0DF
:102C5000E12CF12C42E138E0A32EB12CCC24C3941A
:102C6000D12C77247394D80111962C91119730E0D0
:102C7000C90184971296CC911297D0E0A49713962D
:102C8000EC91F0E0B497BC0197FF02C0695F7F4F01
:102C9000A3E075956795AA95E1F7D701AA0FBB1F29
:102CA000AA0FBB1FA85CBE4F2C91237030E0429F3F
:102CB000D001439FB00D1124AC59BA4F4D01860E7F
:102CC000911CB5010E940B2EB60102C0660F771F42
:102CD0008A95E2F7CB01D4019C91892B8C93CE018C
:102CE000D7FD079663E0959587956A95E1F7429F32
:102CF000B001439F700D11246C597A4F4B01880E1F
:102D0000911CCE01B5010E940B2EB60102C0660FC8
:102D1000771F8A95E2F7CB01D4019C91892B8C9384
:102D2000CF01F7FD079653E0959587955A95E1F702
:102D3000429FE001439FD00D1124CC59DA4FC80FB8
:102D4000D11DCF01B5010E940B2EF60102C0EE0F7E
:102D5000FF1F8A95E2F7CF019881892B8883F901BB
:102D6000E857FA4F7082FFEFEF1AFF0A0C5F1F4F10
:102D700063E4E616F10409F076CF60E084E70E9490
:102D80008F1561E087E7DF91CF911F910F91FF9041
:102D9000EF90DF90CF90BF90AF909F908F907F90FB
:102DA0000C948F15EAE5F6E0438120E1421B08F41C
:102DB00040E08181628190E00C94982AEAE5F6E097
:102DC000438120E1420F08F44FEF8181628190E05E
:102DD0000C94982AEAE5F6E0628120E1621B08F48F
:102DE00060E08181438190E00C94982AEAE5F6E066
:102DF000628120E1620F08F46FEF8181438190E0EE
:102E00000C94982AEAE5F6E0818190E043816281A2
:102E100008970C94982AEAE5F6E0818190E04381D6
:102E2000628108960C94982A80915A068695869518
:102E3000815009F483E10C94072980915A06869504
:102E400086958F5F843108F081E00C9407291F93E9
:102E5000CF93DF93CDB7DEB767970FB6F894DEBF99
:102E60000FBECDBF342F4B8B252F5C8B6D8B7E8B94
:102E70008F8B4E895F89611110921C0686E0FE01DE
:102E80003D96DF01982F1D929A95E9F73D872E8791
:102E90006F87598B488BDE01179601900D928A95AA
:102EA000E1F7CE0107960E94F01D81113EC086E039
:102EB000FE013796DE01119601900D928A95E1F799
:102EC000FF81E8856A857B856115710531F0EF3FEB
:102ED00031F481E0FF3F19F403C081E001C080E0DC
:102EE00080FD23C02091B60530E0C90101968770AE
:102EF00099274091E70550E08417950779F1F98308
:102F0000EA837D836C8396E0929FD001939FB00DFE
:102F10001124A954BA4FFE01319601900D929A9551
:102F2000E1F78093B6050E947A1D16E08091E705CF
:102F30009091B6058917F9F0189FC00111248954A2
:102F40009A4F0E94F01D8823B1F08091E70590E030
:102F50000196877099278093E705E8CF0E943D2B63
:102F60001092B6051092E705E0EBF5E086E0DF0190
:102F70001D928A95E9F767960FB6F894DEBF0FBEEB
:102F8000CDBFDF91CF911F91089520918E05309193
:102F90008F052817390771F090938F0580938E0560
:102FA000E091A603F091A703309721F00084F1850A
:102FB000E02D0994089520918C0530918D052817F6
:102FC000390771F090938D0580938C05E091A603ED
:102FD000F091A703309721F00680F781E02D099446
:102FE0000895E091A603F091A703309721F0019096
:102FF000F081E02D099480E00895CF93DF93CEE730
:10300000D2E060E0CE010E94D32D2196C11584E06C
:10301000D807B9F7DF91CF9108950F931F93CF93FE
:10302000DF93843058F5653048F54F3038F5211579
:103030009CE5390731F4E0912804F0912904EF2B45
:10304000E9F08901C42FD0E0CC0FDD1F9EE1699F1C
:10305000C00DD11D112496E9899FC00DD11D1124E9
:10306000612FCE0186960E94D32D602FCE018796C8
:10307000DF91CF911F910F910C94D32DDF91CF91C0
:103080001F910F9108958F929F92AF92BF92CF920E
:10309000DF92EF92FF920F931F93CF93DF93C09035
:1030A0002804D090290481E090E090932904809333
:1030B0002804812CE12CF12C912C00E010E0C0E0E0
:1030C000D0E05701A00EB11EFE01EE0FFF1FEA0D6A
:1030D000FB1DEA56FC4F259134914C2F692D882D0C
:1030E0000E940D182196CF30D10571F7025E1F4F57
:1030F000939485E09812E3CF86E9E80EF11C83945F
:1031000084E08812D9CFD0922904C0922804DF919C
:10311000CF911F910F91FF90EF90DF90CF90BF90D4
:10312000AF909F908F9008950F931F93CF93DF934D
:10313000843008F56530F8F44F30E8F4C42FD0E05F
:10314000CC0FDD1F2EE1629FC00DD11D112436E989
:10315000839FC00DD11D1124CE0186960E94B52DEE
:1031600090E0182F0027CE0187960E94B52D980178
:10317000282BC90102C080E090E0DF91CF911F9120
:103180000F910895462F20912A0430912B04232B70
:1031900049F4843038F4753028F46F3018F4672F10
:1031A0000C94941880E090E00895882311F0FA01BF
:1031B00001C0FB0109940C9492130C94661345E032
:1031C00050E06CE170E08AE596E00C94C32DEAE5EE
:1031D000F6E0248130E1230F08F42FEF24830C94D0
:1031E000DF18EAE5F6E0248130E1231B08F420E053
:1031F00024830C94DF18EAE5F6E081E28083809175
:10320000190190911A01A0911B0181839283A383DC
:103210008FE784830C94DF1822E8241B08F420E055
:10322000620F0895482F982F46FD9095E92FEF7370
:103230009F7046FD9F5FE295EF70EE0FF0E0E05D5E
:10324000FE4F2181299F802D212D112482958F7081
:103250002295207F822B3081982F930F892F47FD55
:10326000819580580895BC018230910508F4089535
:10327000613E8EE1780748F49B0195E036952795ED
:103280009A95E1F748E0420F01C04FEF91E0242FFB
:1032900030E0290F311D35952795229FF001239F9E
:1032A000F00DF00D11246E177F0718F44FEF420F49
:1032B00004C02F3F39F091E0920F491740F78FEF8C
:1032C000890F08958FEF08950F93CF93DF93D72F32
:1032D000C82F47FD4195E8E3F0E0CF01841B910939
:1032E00047FD9395889FB001899F700D700D112443
:1032F000229FC001239F900D900D1124860F971FD0
:103300000E943319682F660F860F682F600F7D2F7C
:103310008C2FDF91CF910F91089520E030E0869FB0
:10332000212D969F200D311D1124C90108950F9361
:103330001F93CF93DF93C42FD22FFC018281882368
:10334000C9F040932C040E940E1B90938B05809330
:103350008A0580E28C0F883008F057C0C77081E082
:1033600001C0880FCA95EAF7DF91CF911F910F91A5
:103370000C945D2B80912C04481330C080918A05F9
:1033800090918B050E94F31A883C910538F510E264
:103390001D0FCD17B9F080E28C0F883040F4C77054
:1033A00081E001C0880FCA95EAF70E94522B1830BD
:1033B00028F581E09D2F977001C0880F9A95EAF754
:1033C0000E945D2B802F0E94182C1830F0F4D770CB
:1033D00081E001C0880FDA95EAF70AC080E28C0F1D
:1033E000883098F4C77081E001C0880FCA95EAF769
:1033F000DF91CF911F910F910C94522B802FDF9171
:10340000CF911F910F910C94182CDF91CF911F91A8
:103410000F91089580912606089580E00895CF9336
:10342000DF9300D01F92CDB7DEB790915506943050
:1034300011F589837B836A839093E9008FEF9091E4
:10344000E800815095FD06C095ED9A95F1F70000D2
:103450008111F5CF8091E80085FF0DC040E050E07C
:1034600063E070E0CE0101960E94A52A8091E800F9
:103470008E778093E8000F900F900F90DF91CF919F
:103480000895BC0184E00C940F1ABC0183E00C94F5
:103490000F1A24E02093E9002FEF3091E80021502B
:1034A00035FD06C035ED3A95F1F700002111F5CF55
:1034B0002091E80025FF0BC040E050E066E070E09E
:1034C0000E94A52A8091E8008E778093E8000895F5
:1034D000CF93DF9320910C01222339F02091A40394
:1034E00027FF03C060E224E002C068E021E02093EF
:1034F000E9002FEF3091E800215035FD06C035ED91
:103500003A95F1F700002111F5CF2091E80025FF51
:103510001DC0EC0180910C01811105C040E050E01C
:1035200068E070E003C070E040E050E0CE010E942F
:10353000A52A8091E8008E778093E80080E2FE0162
:10354000A7E2B6E001900D928A95E1F7DF91CF9165
:10355000089581E08093E00080E28093D80010928B
:10356000C9008FE19EE40197F1F700C0000087E0F9
:1035700090EBDC018093640690936506A093660649
:10358000B09367069CE088E10FB6F894A895809305
:1035900060000FBE90936000FFCF78941F920F924F
:1035A0000FB60F9211248F939F93AF93BF93809187
:1035B000FE039091FF03A0910004B09101040196D5
:1035C000A11DB11D8093FE039093FF03A0930004FF
:1035D000B0930104BF91AF919F918F910F900FBE57
:1035E0000F901F9018959C014FB7F8948091FE039F
:1035F0009091FF03A0910004B09101044FBF821B82
:10360000930B08952FB7F8946091FE037091FF0318
:1036100080910004909101042FBF08952FB7F89472
:103620008091FE039091FF03A0910004B0910104EA
:103630002FBF08951F920F920FB60F9211248F93F0
:103640009F93AF93BF938091FE039091FF03A0914E
:103650000004B09101044196A11DB11D8093FE03A9
:103660009093FF03A0930004B0930104BF91AF9126
:103670009F918F910F900FBE0F901F9018952091E2
:103680000C012223C9F02091A40327FF15C0262F87
:103690002695269526952E31C8F4FC01E20FF11DE2
:1036A000677081E090E001C0880F6A95EAF7809525
:1036B0009281892382830895FC01069622816213F8
:1036C00001C012823196E817F907C1F708952091D9
:1036D0000C012223C1F02091A40327FF14C0262F40
:1036E0002695269526952E3130F5FC01E20FF11D29
:1036F000677081E090E001C0880F6A95EAF79281D7
:10370000892B82830895FC0132962FEF30E041919E
:10371000641789F02F3F19F4411101C0232F3F5F37
:103720003630A9F72F3F39F0FC01E20FF11D27FDDC
:10373000FA95628308950895CF9384E090E00E9403
:10374000B52DC82F81E290E00E94B52D2C2F30E0DE
:10375000A901582BCA01CF9108956BEE7EEF80E04E
:1037600090E00E94F12D60E082E090E00E94D32D75
:1037700060E083E090E00E94D32D10921F0610922B
:103780002006109221061092220660E084E090E06C
:103790000E94D32D60E081E290E00E94D32D60E092
:1037A00085E090E00E94D32D60E086E090E00E94EA
:1037B000D32D6FEF87E090E00E94D32D40E050E0E2
:1037C000BA0188E090E00E94E52D60E08DE090E095
:1037D0000E94D32D40E050E0BA0188E190E00E94C1
:1037E000E52D60E087E190E00E94D32D40E050E0BD
:1037F000BA018CE190E00E94E52D60E080E290E06B
:103800000E94D32D40E050E0BA0188E190E00E9490
:10381000E52D40E050E0BA018FE090E00E94E52DF8
:1038200040E050E0BA0183E190E00C94E52D8091F6
:103830001E06811110921E06089590911D0680911A
:103840001C06892B20911B06982F922B9093900594
:1038500080911E068823D9F0892B80939005809152
:103860000C01882331F08091A40387FF02C08EE110
:1038700001C086E0E2E9F5E090E0815028F0219176
:103880002223D9F39F5FF9CF91110E94171CE09179
:10389000A603F091A7033097A9F080910C0188232B
:1038A00059F08091A40387FF07C080919005809311
:1038B000910585E0809390050280F381E02D80E9F9
:1038C00095E009940895BF92CF92DF92EF92FF9214
:1038D0000F931F93CF93DF938C01C0905F06D0901E
:1038E0006006E0906106F090620680911F0690915C
:1038F0002006A0912106B0912206C82AD92AEA2AD8
:10390000FB2ACFE1D0E0D701C6010C2E04C0B6954A
:10391000A795979587950A94D2F780FD04C02197C3
:1039200090F7B12C07C0BC2EB8018C2F0E946826DE
:103930000197A9F38B2DDF91CF911F910F91FF90EC
:10394000EF90DF90CF90BF900895CF93DF93EC017D
:103950000E94631CBE010E946826DF91CF910895EA
:103960002FE0929F800D1124682F669566956695CD
:10397000982F977085E0689FB001112440E050E0D7
:1039800080E0FB01E40FF51FE851FA4F208130E0A1
:10399000092E02C0369527950A94E2F72170332745
:1039A000042E01C0220F0A94EAF7822B4F5F5F4F6B
:1039B0004530510531F708952FE0929F800D112475
:1039C000E82FE695E695E695877051E001C0550F22
:1039D0008A95EAF785E0E89FF0011124E851FA4F53
:1039E00020E030E070E04081CB01022E02C09695CD
:1039F00087950A94E2F7817081958427852384272F
:103A000081932F5F3F4F2530310569F7089560930B
:103A10005F067093600680936106909362060C9433
:103A2000202B0F931F9341E050E060E070E004C052
:103A3000440F551F661F771F8A95D2F74095509502
:103A40006095709580915F0690916006A0916106E7
:103A5000B09162068A019B01082319232A233B2384
:103A6000C901B8011F910F910C94071D20911A06EE
:103A70008095822380931A06982F977079F430E00E
:103A8000482F082E000C550B2417350739F0859563
:103A9000859585950E94111D10921A0608950F9321
:103AA0001F9341E050E060E070E004C0440F551FF8
:103AB000661F771F8A95D2F780915F069091600606
:103AC000A0916106B09162068A019B01082B192B17
:103AD0002A2B3B2BC901B8011F910F910C94071D94
:103AE00060931F0670932006809321069093220610
:103AF0000C94202B8091E7059091B605891719F059
:103B00008F5F8770FBCF08950F931F93CF93DF9341
:103B10008091B50582958F7009F05DC08091B205E6
:103B2000882309F458C08091E7051091B60560918B
:103B3000B0057091B105C091B305D091B40591E085
:103B40006F3F09F090E0292F06E0811709F443C088
:103B5000209721F07F3F21F030E003C031E001C029
:103B6000322F90E030FD34C0089FF001099FF00D26
:103B70001124DF01A954BA4F11963C9111973713C4
:103B800027C03C91361324C012963C9112973111F4
:103B90001FC013964D915C9114974C1B5D0B483CD4
:103BA0005105B0F48091B5058F7080618093B505A3
:103BB000E454FA4F80818F708061808380EB95E0C0
:103BC0000E94070DDF91CF911F910F910C947A1DE8
:103BD00001968770BACFDF91CF911F910F91089511
:103BE0009F92AF92BF92CF92DF92EF92FF920F938C
:103BF0001F93CF93DF93CDB7DEB761970FB6F894DD
:103C0000DEBF0FBECDBF8C0185E0F801DE011D9641
:103C100001900D928A95E1F7F80190818181E2800F
:103C20003091B0056091B1054091B3055091B40554
:103C30004115510531F06F3F31F421E03F3F19F458
:103C400003C021E001C020E0F22FF1709F2E20FD83
:103C500023C1F801C380D48020EBA22E25E0B22E30
:103C6000F090B205F601E41BF50BFF2009F4CEC07D
:103C70002091B505E83CF10508F099C0422F407F3E
:103C800009F051C0681311C039130FC0FE2CE110A8
:103C90000CC02F7020612093B505C5010E94070D4F
:103CA0008091B505F801858337C1CD2831F08F3F6C
:103CB00031F421E09F3F19F403C021E001C020E06E
:103CC00020FD03C021E02E2502C020E030E0F22FCD
:103CD000F170FF2E20FF1DC02091E7054091B60531
:103CE00056E0241709F4F6C030E0529FF001539FCC
:103CF000F00D1124E954FA4F6181861306C06081EA
:103D0000961303C06281E61204C02F5F3F4F2770F5
:103D1000E8CFFE2CEE2009F4FFC08091B50581604C
:103D20008093B50550C0681307C0391305C0E11072
:103D300003C0F80125838DC09D878E878D859E8564
:103D40000E94F72A882369F1EE2059F12091B505E8
:103D5000822F82958F7090E0029774F08091B00569
:103D60009091B10598878F831986DB86CA862C8748
:103D7000CE0107960E94070D86E0F801A0EBB5E0A2
:103D800001900D928A95E1F70E94841D0DC068177D
:103D9000E1F09D878E878D859E850E94F72A81118F
:103DA0001EC0C8010E94070DFF24F394B5C0422F26
:103DB000407F69F780EB95E00E94070D86E0F501F2
:103DC00011928A95E9F7F12CA7C03913E2CFE110DF
:103DD000E0CFF8012583C8010E94070D57C0EE20EF
:103DE00001F32091B505822F82958F7090E00297A4
:103DF0001CF28091B0059091B1059A8389831B8252
:103E0000DD82CC822E83CE010196B4CFE83CF10551
:103E1000E8F5FE2CEE2029F2681327C0391325C0DF
:103E20002091B50520FD18C0822F82958F70482FF4
:103E300050E04115510581F0F80125834F305105BF
:103E400041F08F5F982F9295907F822F8F70892BF2
:103E50008583C8010E94070D86E0F801A0EBB5E05C
:103E600001900D928A95E1F757C09D878E878D85C9
:103E70009E850E94F72A81117FCF8091B5058160D0
:103E80008093B505C8010E94070D46C086E0F50184
:103E900011928A95E9F740C0EE2009F482CF9D8700
:103EA0008E878D859E850E94F72AF82E882309F437
:103EB00078CF86E0F801A0EBB5E001900D928A95ED
:103EC000E1F78091B0059091B1050E94A51C0E9478
:103ED000841D22C09D878E878D859E850E94A51C8E
:103EE000292F22952F70223028F49F7039F08111EC
:103EF00005C00BC0243028F49F7049F4805E8830E0
:103F000020F0C8010E94070D9F2CF92C05C0F80174
:103F10009581907F99F7F9CF8F2D61960FB6F89420
:103F2000DEBF0FBECDBFDF91CF911F910F91FF90EC
:103F3000EF90DF90CF90BF90AF909F9008951F9328
:103F4000CF93DF93CDB7DEB7AA970FB6F894DEBF55
:103F50000FBECDBFEAE4F6E08091F100819346E028
:103F6000E235F407C9F780914B06833009F462C04B
:103F700030F4813071F0823009F49CC0B3C08A30D3
:103F800009F488C08B3009F46DC0893009F0AAC0EB
:103F900020C080914A06813A09F0A4C08091E800CF
:103FA000877F8093E80080914E0690914F06892B81
:103FB00021F460E287E296E003C060E080E090E0F8
:103FC00070E00E948A2C8091E8008B778093E80053
:103FD00089C080914A06813209F084C080914E06E2
:103FE00090914F06009719F0029709F07BC08091DD
:103FF000E800877F8093E8008091E80082FD05C09B
:10400000809155068111F8CF6DC02091F300809109
:10401000F20090E0922B029729F48091F1008B7FBF
:10402000813021F48091F100809326068091E80090
:104030008B7754C080914A06813A09F053C0809131
:104040004E0690914F06892B09F04CC08091E800F4
:10405000877F8093E8008091E80080FFFCCF80910B
:104060000C0137C080914A068132E1F580914E06FD
:1040700090914F06892BB1F58091E800877F80935E
:10408000E8000E94362C80914C0680930C010E941F
:104090003D2B28C080914A06813221F58091E800AD
:1040A000877F8093E8000E94362C80914D06809394
:1040B000250618C080914A06813AA1F48091E80053
:1040C000877F8093E8008091E80080FFFCCF80919B
:1040D00025068093F1008091E8008E778093E800B8
:1040E0000E94362C8091E80083FFE9C180914A0646
:1040F00090914B06492F50E04A30510508F0DFC13E
:10410000FA01ED56FF4F0C943E2E803821F0823894
:1041100009F0D5C108C080914706909148069923BF
:1041200089F082600FC080914E068F70873008F052
:10413000C6C18093E9008091EB0085FB882780F958
:104140001092E9009091E800977F9093E8008093A7
:10415000F1001092F1007CC1282F2D7F09F0AFC132
:10416000882319F0823061F0AAC180914C06813019
:1041700009F0A5C1933009F080E0809348062EC075
:1041800080914C0681112AC080914E068F702FEFCE
:10419000280F263008F093C18093E9002091EB00AE
:1041A00020FF1CC0933021F48091EB00806214C08A
:1041B0009091EB0090619093EB0021E030E0A90139
:1041C00002C0440F551F8A95E2F74093EA0010920F
:1041D000EA008091EB0088608093EB001092E90088
:1041E0008091E800877F8093E8000E94362C67C1A9
:1041F000811165C110914C061F778091E300807892
:10420000812B8093E3008091E800877F8093E80012
:104210000E94362C8091E80080FFFCCF8091E30063
:1042200080688093E300111102C082E001C083E046
:104230008093550644C18058823008F040C12091D7
:104240004C0630914D062C3D53E0350779F583E05F
:104250008A838AE289834FB7F894DE01139620E0BF
:104260003EE051E2E32FF0E050935700E49120FF4D
:1042700003C0E295EF703F5FEF708E2F90E0EA3061
:1042800010F0C79601C0C0968D939D932F5F243187
:1042900049F74FBF8091E800877F8093E8006AE28A
:1042A00070E0CE0101960E948A2CC0C080914E061B
:1042B00090914F06432F552743305105B1F068F4D4
:1042C0004130510509F40AC14230510509F0F7C0E7
:1042D0008BE590E0ECE0F7E057C04132510589F101
:1042E0004232510509F43CC0EAC0C9019927813026
:1042F0009105B9F070F082309105D9F0039709F07B
:10430000DEC0E9E7F7E0E4918E2F90E0E9E7F7E01F
:1043100038C0E5ECF7E0E4918E2F90E0E5ECF7E0B3
:1043200030C0E3EBF7E0E4918E2F90E0E3EBF7E0B1
:1043300028C0E7E9F7E0E4918E2F90E0E7E9F7E0A5
:1043400020C08330910508F0BAC0880F991FFC0186
:10435000E35BFD4F0190F081E02D89E090E014C017
:104360008330910508F0ABC0FC01EE0FFF1FE95B45
:10437000FD4F0190F081E02DDC01AC5BBD4F8C91D5
:1043800090E0009709F49BC02091E800277F2093DC
:10439000E80020915006309151062817390708F49B
:1043A000C90140E0009789F120915506222309F4C4
:1043B0003DC02530D9F12091E80023FD37C0209180
:1043C000E80022FD2FC02091E80020FFEBCF4091B4
:1043D000F3002091F20030E0342B009759F02830A0
:1043E000310540F444914093F100319601972F5FDD
:1043F0003F4FF3CF41E02830310509F040E02091F4
:10440000E8002E772093E800CDCF4111CDCF0AC030
:1044100080915506882351F0853041F08091E80065
:1044200083FD04C08091E80082FFF2CF8091E80014
:104430008B778093E80043C0803809F040C08091BA
:10444000E800877F8093E800809149068093F1001F
:104450008091E8008E77C7CE811131C080914C06E3
:1044600090914D069927029754F58091E800877F37
:104470008093E80010914C06109349060E94362C58
:10448000111106C08091E30087FD02C081E001C0E8
:1044900084E08093550642E061EC81E00E94552C57
:1044A00042E261EC84E00E94552C42E261EC82E041
:1044B0000E94552C42E260EC83E00E94552C8091D2
:1044C000E80083FF10C08091E800877F8093E800B8
:1044D0008091EB0080628093EB0005C082E190E068
:1044E000E7E6F7E051CFAA960FB6F894DEBF0FBE0D
:1044F000CDBFDF91CF911F9108951F920F920FB6FC
:104500000F9211242F933F934F935F936F937F9359
:104510008F939F93AF93BF93CF93DF93EF93FF93CB
:10452000C091E900CF708091EC00D82FD17080FD50
:10453000D0E81092E9008091F000877F8093F0002E
:1045400078940E949F1F1092E9008091F00088608B
:104550008093F000CD2BCF70C093E900FF91EF91D5
:10456000DF91CF91BF91AF919F918F917F916F918B
:104570005F914F913F912F910F900FBE0F901F9021
:104580001895E8EDF0E080818E7F80831092E20044
:104590001092DA001092E100A0EEB0E08C91816000
:1045A0008C9380818F77808319BCA7EDB0E08C91CC
:1045B0008E7F8C9380818F7E808310922306089556
:1045C000CF92DF92EF92FF920F931F93CF93DF93DF
:1045D000C8EDD0E088818F7E8883E7EDF0E08081B0
:1045E0008160808384E082BF81E08093230688819C
:1045F0008E7F888302EE10E0F80110821092DA00BC
:1046000081EEC82ED12CF601108288818F778883A5
:1046100088818068888388818F7D888319BC109207
:10462000550610924906109248061092470690EEE1
:10463000E92EF12CF70180818B7F80838881816056
:10464000888342E060E080E00E94552CF601808182
:104650008E7F8083F8018081816080838081886083
:104660008083F70180818E7F808388818061888349
:10467000DF91CF911F910F91FF90EF90DF90CF903E
:1046800008951F920F920FB60F9211242F933F930C
:104690004F935F936F937F938F939F93AF93BF934A
:1046A000EF93FF938091E10082FF09C08091E200C7
:1046B00082FF05C08091E1008B7F8093E1008091B3
:1046C000DA0080FF2AC08091D80080FF26C0809148
:1046D000DA008E7F8093DA008091D90080FF18C0C5
:1046E00080E189BD82E189BD09B400FEFDCF81E092
:1046F000809355068091230681110FC00E94C1222C
:104700000E94E0228091E20084608093E20005C074
:1047100019BC10925506109223068091E10080FF8B
:1047200017C08091E20080FF13C08091E2008E7F6D
:104730008093E2008091E20080618093E2008091AA
:10474000D80080628093D80019BC85E0809355061C
:104750008091E10084FF34C08091E20084FF30C08A
:1047600080E189BD82E189BD09B400FEFDCF809161
:10477000D8008F7D8093D8008091E1008F7E809358
:10478000E1008091E2008F7E8093E2008091E20060
:1047900081608093E20080914906882311F084E0D3
:1047A00007C08091E30087FD02C081E001C083E083
:1047B000809355060E943D2B0E94F117109224060B
:1047C0008091E10083FF27C08091E20083FF23C036
:1047D0008091E100877F8093E10082E0809355061D
:1047E000109249068091E1008E7F8093E1008091D4
:1047F000E2008E7F8093E2008091E20080618093EE
:10480000E20042E060E080E00E94552C8091F000E0
:1048100088608093F000FF91EF91BF91AF919F91DD
:104820008F917F916F915F914F913F912F910F9059
:104830000FBE0F901F9018952091E4003091E50075
:1048400095E64091EC00842F817040FF23C0809159
:10485000E80080FD1DC080915506882399F08530C1
:1048600099F08091EB0085FD11C04091E4005091DA
:10487000E5002417350729F3915011F09A01E1CF93
:1048800084E0089582E0089583E0089581E008952A
:1048900080E008954091E80042FFDDCF08959091B7
:1048A000A40392FF0DC0282F2871283019F4877FA8
:1048B000846006C0282F2471243011F48B7F886017
:1048C00093FF0DC0282F2871283119F4877E846149
:1048D00006C0282F2471243111F48B7E8861209129
:1048E000A50320FF0DC0382F3871383019F4877FA9
:1048F000816006C0382F3171313011F48E7F8860AD
:1049000021FF0DC0282F2871283119F4877E81617D
:1049100006C0282F2171213111F48E7E886194FD0B
:10492000877E0895CF92DF92EF92FF920F931F93AD
:10493000CF93DF93F62E472FE82FF0E0711106C0DA
:10494000E753F84F8491782F682F73C0272F30E0FA
:10495000E753F84FE491FE2F0E2F10E056E0659FCD
:10496000C0011124CFEFD0E0BE010E94F72D5BEA19
:104970005603C001579F900D11248F0D911D8F0D6F
:10498000911D982F990F980F7E01E21AF30AE09E6D
:10499000D001E19EB00DF09EB00D11248B2F499FE8
:1049A000A0011124452F55277E01E41AF50AE09E47
:1049B000A001E19E500DF09E500D11246E01C91A08
:1049C000D108C29E7001C39EF00CD29EF00C11243F
:1049D0002F2D3327C21BD30BC09F9001C19F300DD9
:1049E000D09F300D1124932F6230710591F048F45F
:1049F00061157105E1F061307105B9F49E2FE52F65
:104A000016C06430710569F040F06630710579F0C8
:104A10000CC09E2FEB2F832F0AC0EB2F8F2F952FCB
:104A200006C09B2F8E2FE32F02C09B2F852F7E2F3A
:104A3000692FDF91CF911F910F91FF90EF90DF9041
:104A4000CF900895803F39F480910B0487FF6AC0AE
:104A500010920B0467C0813F29F480910B04181653
:104A6000BCF360C090910A04823F29F497FF5AC0BA
:104A700010920A0457C0833F19F41916CCF352C0A0
:104A800090910C04893F31F419160CF04BC0109230
:104A90000C0448C08A3F19F497FF44C0F8CF8B3FFD
:104AA00039F480910D0487FF3DC010920D043AC087
:104AB0008C3F29F480910D041816BCF333C0843F59
:104AC00021F4809109048E7F17C0853F21F48091E5
:104AD00009048D7F11C0863F21F4809109048B7FEA
:104AE0000BC0873F21F480910904877F05C0883F70
:104AF00031F4809109048F7E8093090413C08D3FA7
:104B000021F4809163068E7F0BC08E3F21F480914B
:104B100063068D7F05C08F3F29F4809163068B7FEC
:104B20008093630680910A04811106C080910B0472
:104B3000811102C01092050480910C04811106C0FD
:104B400080910D04811102C0109202040895809199
:104B5000630680FD16C081FD16C082FD18C08091DD
:104B60000204882391F0883290F428E0829FC001EB
:104B7000112468E270E00E940B2E862F672B29F02B
:104B800007C082E0089584E0089581E0089588E0F8
:104B900008958091630680FD14C081FD14C082FDDC
:104BA00016C080910504882381F0843180F422E3CB
:104BB000829FC001112464E170E00E940B2E862FB9
:104BC00008958CE0089589E1089585E0089582E3D1
:104BD0000895803F21F40E94C925819504C0813F3A
:104BE00029F40E94C92580930B040895823F21F483
:104BF0000E94C925819504C0833F29F40E94C925DC
:104C000080930A040895893F19F40E94A72505C0DE
:104C10008A3F31F40E94A725819580930C04089562
:104C20008B3F21F40E94A725819504C08C3F29F475
:104C30000E94A72580930D040895843F21F480915C
:104C40000904816017C0853F21F4809109048260C6
:104C500011C0863F21F48091090484600BC0873F16
:104C600021F480910904886005C0883F31F4809167
:104C7000090480618093090408958D3F21F4809197
:104C8000630681600BC08E3F21F4809163068260D1
:104C900005C08F3F29F4809163068460809363068A
:104CA0000895F894E82FE295EF70F0E031A1282FF5
:104CB0002F7081E090E001C0880F2A95EAF7982FC5
:104CC0009095932391A392A1892B82A37894089520
:104CD000CF93DF930E94C218EC018238910559F1FD
:104CE000A0F48133910509F473C040F48932910531
:104CF00009F467C08A9709F472C084C085339105AE
:104D000009F458C0C997B9F07DC0833E910571F18F
:104D100038F4803E9105B1F0823E910511F172C0E8
:104D2000863E9105B9F1873E9105C9F1843E910512
:104D300009F068C024C08091A40380FD5DC081FD9E
:104D40005BC060C08091A40380FD50C08091A5032A
:104D500080FF49C18091A40384FD43C1C3EED0E02C
:104D600042C18091A40382FF3EC1F4CF8091A4038D
:104D700082FD3FC08091A50380FD3EC0EBCF8091B6
:104D8000A50381FF30C18091A40384FD2AC1C7EE31
:104D9000D0E029C18091A40383FF25C1F4CF809185
:104DA000A40383FD2CC08091A50381FFECCFC4EE4A
:104DB000D0E019C18091A40385FF15C1C9E2D0E0FC
:104DC00012C18091A40385FF0EC1C5E3D0E00BC1E1
:104DD0008091A40386FF07C1CAE2D0E004C180919C
:104DE000A40386FF00C1C1E3D0E0FDC0C9E3D0E069
:104DF000FAC0C2EED0E0F7C0C0EED0E0F4C0C6EE1C
:104E0000D0E0F1C0C11581E5D80708F066C0C11532
:104E100020E5D207E0F0CE0174E0969587957A956B
:104E2000E1F783709C2F937021E030E002C0220FE5
:104E3000331F9A95E2F73C68382BCF70C695C6951C
:104E400040E2C49FE0011124C22BD32BCCC0C83E4A
:104E5000D10560F5C03ED10508F0C5C0C83AD105FE
:104E6000B0F4C53AD10540F0C55AD0E0C959DC4F7D
:104E7000C881D0E0D064B7C0C130D10509F4B3C057
:104E800008F4AFC0C430D10508F4ABC0ACC0CF3B10
:104E9000D10508F0A6C0C85AD0E0CC0FDD1FC65916
:104EA000DC4F0990D881C02DD4649DC0C11540E26B
:104EB000D40758F4C11581E0D80708F094C0C03F6A
:104EC000D10508F48EC0D0658EC0C11520E4D2078C
:104ED00008F487C0DF70D06A86C0C11545E5D407E5
:104EE00008F042C0C11584E5D80728F0DC2FCC2794
:104EF000C46FD06A78C0C11523E5D207B0F0CE01E7
:104F00008370992721E030E002C0220F331F8A9579
:104F1000E2F78C2F8695869540E2849FC00111248C
:104F2000E901C82BD92BDA685EC0C11542E5D40768
:104F300028F4DC2FCC27C16FD06A55C0CE01837016
:104F4000992721E030E002C0220F331F8A95E2F753
:104F50008C2F8695869540E2849FC0011124E9013B
:104F6000C82BD92BDC683FC0C11589E5D807B8F438
:104F7000C11528E5D20728F0DC2FCC27C06FD06AF6
:104F800032C0C11546E5D40760F58C2F0E944F242E
:104F90008F71C82FD0E0DC2FCC27D06224C0C11580
:104FA0008AE5D80780F48C2F8F700E944F2494E0FC
:104FB000D695C7959A95E1F7CF70D0E0DC2FCC2736
:104FC000D069C82B10C0CE0190568115904248F48C
:104FD0008D2F8F710E944F24DD27D0628F71D82BC7
:104FE00002C0C0E0D0E0CE01DF91CF9108950E94D1
:104FF0000E1B20910A04211104C020910B042223CE
:1050000021F0909307048093060420910C04211151
:1050100004C020910D04222321F090930404809376
:105020000304E091A603F091A703309749F082E0D2
:10503000809308040480F581E02D88E094E00994D1
:1050400008959F92AF92BF92CF92DF92EF92FF921C
:105050000F931F93CF93DF930AE913E08CE1E82EBF
:1050600081E0F82EC0E0D0E0912CCC24C394D12C68
:10507000B701D7018C91F894E82FE295EF70F0E03A
:1050800021A18F70A60102C0440F551F8A95E2F737
:10509000CA01922F982B91A392A18095892382A374
:1050A000789400C0E1E2F1E020E030E0A12CB12CE6
:1050B0004191842F82958F7090E0DC0190968C91C5
:1050C00090E04F7002C0959587954A95E2F780FD74
:1050D00008C0C601022E02C0880F991F0A94E2F789
:1050E00002C080E090E0A82AB92A2F5F3F4F2F30FE
:1050F0003105F1F6BFEFEB1AFB0AFB0180810E943C
:105100005126C430D10519F0F0EAFA95F1F7D8012B
:105110008D919C911197A816B90621F0AD92BC9281
:1051200081E001C080E0982A21960E5F1F4FC530B4
:10513000D10509F09DCF992049F081E08093540674
:105140000E940E1B90935306809352068091540642
:10515000882391F180915206909153060E94F31A90
:10516000049750F180919A0390919B0390931B04B4
:1051700080931A0480919C0390919D0390931D0449
:1051800080931C0480919E0390919F0390931F0431
:1051900080931E048091A0039091A1039093210419
:1051A000809320048091A2039091A3039093230401
:1051B0008093220410925406892DDF91CF911F9184
:1051C0000F91FF90EF90DF90CF90BF90AF909F90A6
:1051D00008950F931F9380915F0690916006A091B0
:1051E0006106B09162068C019D010670112722278D
:1051F0003327BC01CD01063011052105310511F41D
:10520000686001C0677F1F910F910C94071D9091FA
:105210005A06937089F0811102C0946007C08431EE
:1052200010F09C6403C0880F880F982B90935A0647
:10523000109210010C94DF1808956F927F928F9254
:105240009F92AF92BF92CF92DF92EF920F931F93F4
:10525000CF93DF933C01C0910D01CC0FCC0FD4E074
:10526000DC0FD43408F0D3E460915E06669580913B
:105270005606909157060E948D19182FCD1708F0E9
:1052800044C08C2E912CF401EC5DFC4F90818091F8
:105290000E018923C1F1F401EE0FFF1FE256FD4F0D
:1052A000C080D12C80E7C81AD108F401EE0FFF1F8F
:1052B000E156FD4FA080B12CE0E2AE1AB108CC9CC3
:1052C0009001CD9C300D300D1124AA9CC001AB9CE7
:1052D000900D900D1124820F931F0E943319082FF7
:1052E00060915B0670915C0680915D06E12E9501F0
:1052F000A601F30109950E949224462F282F672FBB
:10530000C4010E94DD18CF5FB9CF81E0D33408F02B
:1053100080E0DF91CF911F910F91EF90DF90CF90C0
:10532000BF90AF909F908F907F906F900895CF9295
:10533000DF92EF92FF920F931F93CF93DF936C0155
:10534000C0910D01CC0FCC0FD4E0DC0FD43408F0A9
:10535000D3E460915E06669580915606909157065B
:105360000E948D19182FCD1778F5EC2EF12CF7012E
:10537000EC5DFC4F908180910E01892319F1F701BA
:10538000EE0FFF1FE156FD4F208130E02052310922
:10539000F701EE0FFF1FE256FD4F408150E04057EE
:1053A000510960915B0670915C0680915D06012F4A
:1053B000F60109950E949224462F282F672FC701D6
:1053C0000E94DD18CF5FCFCF81E0D33408F080E0BA
:1053D000DF91CF911F910F91FF90EF90DF90CF90D1
:1053E0000895DF92EF92FF920F931F93CF93DF9375
:1053F0007C01C0910D01CC0FCC0FD4E0DC0FD43474
:1054000008F0D3E460915E06669566958091560635
:10541000909157060E948D19D82ECD17F0F40C2FBD
:1054200010E0F801EC5DFC4F908180910E01892322
:1054300091F060915B0670915C0680915D062D2D68
:105440004C2FF70109950E949224462F282F672F91
:10545000C8010E94DD18CF5FE0CF81E0D33408F0AF
:1054600080E0DF91CF911F910F91FF90EF90DF903F
:1054700008959F92AF92BF92CF92DF92EF92FF92E8
:105480000F931F93CF93DF936C01C0910D01CC0F4D
:10549000CC0FD4E0DC0FD43408F0D3E460915E0686
:1054A0006695669580915606909157060E948D19D3
:1054B000182F80E4810F0E94121990E8F92EF80E3F
:1054C000812F0E94121920E8922E980ECD1700F518
:1054D000AC2EB12CF501EC5DFC4F908180910E015A
:1054E0008923A1F060915B0670915C0680915D0656
:1054F000E12E0C2F292D4F2DF60109950E949224A3
:10550000462F282F672FC5010E94DD18CF5FDECF01
:1055100081E0D33408F080E0DF91CF911F910F91AB
:10552000FF90EF90DF90CF90BF90AF909F90089545
:1055300090915A06937041F080935B0660935C06ED
:1055400040935D060C94DF180895EF92FF920F933D
:105550001F93CF93DF937C018B010E941C24811148
:1055600019C0E70101151105A1F08091E80085FD42
:105570000AC08091E8008E778093E8000E941C2486
:10558000882381F307C089918093F10001501109AC
:10559000E9CF80E0DF91CF911F910F91FF90EF90C5
:1055A0000895CF93209155062430F9F4C091E90075
:1055B000CF703091EC00232F217030FD20E8C22BFA
:1055C00022E02093E9002091E80020FF0BC040E09A
:1055D00050E060E270E00E94A52A8091E8008E779A
:1055E0008093E800CF70C093E900CF9108950E94A6
:1055F000A51C292F2F70E92FE295EF704E2F50E058
:10560000FA013297EE30F105B8F4E356FF4F0C94EF
:105610003E2E803F99F018F4883E70F40FC0843F0E
:1056200059F40CC0883E50F0813F31F407C0822FFE
:10563000869586958695089580E0089581E0089581
:1056400080E090E00E94DB1780E090E00E94C517A8
:1056500010921C0610921B060E941D1CE8E0F4E04C
:1056600086E0DF011D928A95E9F7109205041092F9
:105670000204109263060C94F72710921D06809185
:105680000C01882331F08091A40387FF02C08EE1D2
:1056900001C086E0E2E9F5E0DF011D928A95E9F7B5
:1056A0000C94202B882341F0809590911D0689232E
:1056B00080931D060C941D1C0895882339F0909149
:1056C0001D06892B80931D060C941D1C08958823AC
:1056D000B1F19CEF980F913A30F4682F80E995E092
:1056E0000E943F1B14C090E2980F983090F487708E
:1056F00021E030E0A90102C0440F551F8A95E2F76E
:10570000CA01809590911D06892380931D060C94F3
:105710001D1C9BE5980F933020F480E090E00C94E2
:10572000DB1798E5980F973120F480E090E00C9417
:10573000C517803F20F00E9422250C94F72708957A
:10574000CF93882309F472C0C82F8CEF8C0F813A55
:10575000C0F580910C018823E1F08091A40387FFBC
:1057600018C0EC2FE695E695E695F0E0E057FA4F85
:105770008281282F30E04C2F477081E090E002C0FA
:10578000880F991F4A95E2F782239323892B61F4AE
:1057900012C0E2E9F5E088E995E02191C21721F015
:1057A0008E179F07D1F707C06C2F80E995E00E9404
:1057B0003F1B0E941D1C6C2F80E995E00E94671B17
:1057C00010C080E28C0F883078F4C77081E090E0E0
:1057D00001C0880FCA95EAF790911D06892B809326
:1057E0001D06CF910C941D1CEBE5EC0FE33040F44B
:1057F000F0E0E959FC4F808190E0CF910C94DB17E9
:10580000E8E5EC0FE73150F4F0E0EE0FFF1FE6594A
:10581000FC4F80819181CF910C94C517C03F30F02F
:105820008C2F0E94E925CF910C94F727CF910895F2
:105830001F93CF93DF93182F893319F0C0E0D0E086
:1058400002C0C0E5D0E0812F0E94A02B209741F03C
:105850008FE99FE00197F1F700C000002197F6CF94
:10586000812FDF91CF911F910C94672B80914A0675
:1058700087FF11C08091E80082FD05C08091550628
:105880008111F8CF11C08091E8008B770BC0809117
:105890005506882349F08091E80080FFF8CF809179
:1058A000E8008E778093E8000895982F973068F588
:1058B0009093E900981739F07091EC002091ED0079
:1058C0005091F00003C0242F762F50E021FD02C03C
:1058D0009F5FECCF3091EB003E7F3093EB00309137
:1058E000ED003D7F3093ED003091EB00316030935F
:1058F000EB007093EC002093ED005093F0002091AA
:10590000EE0027FDE5CF80E008958F708093E900D9
:1059100081E00895209150063091510626173707EF
:1059200048F06115710539F42091E8002E77209335
:10593000E80001C0B901FC0120E06115710579F1B1
:10594000809155068823F1F18530F1F18091E800CE
:1059500083FD3CC08091E80082FD2EC08091E8006C
:1059600080FFEBCF2091F3008091F20090E0922B2A
:105970006115710551F08830910538F4219120931B
:10598000F100615071090196F3CF21E0089709F009
:1059900020E08091E8008E778093E800CECF21113F
:1059A000CFCF0AC080915506882361F0853061F021
:1059B0008091E80083FD0AC08091E80082FFF2CF69
:1059C00080E0089582E0089583E0089581E00895DD
:1059D0001092B9008CE08093B8000895EF92FF9286
:1059E0000F931F93CF93DF93182FEB011092BC00FE
:1059F00084EA8093BC000E940E1B7C018091BC0055
:105A000087FD0EC0CF3F8FEFD807C1F30E940E1B5A
:105A10008E199F098C179D0788F38EEF9FEF2EC07C
:105A20008091B900887F883041F08091B900887FEB
:105A3000803119F08FEF9FEF21C01093BB0084E8F5
:105A40008093BC000E940E1B8C018091BC0087FDDE
:105A50000CC0CF3F8FEFD807C1F30E940E1B801BF5
:105A6000910B8C179D0788F3D8CF8091B900887F60
:105A7000883111F08034F1F680E090E0DF91CF9131
:105A80001F910F91FF90EF9008950F931F93CF9365
:105A9000DF93EB018093BB0084E88093BC000E94FD
:105AA0000E1B8C018091BC0087FD0EC0CF3F8FEF95
:105AB000D807C1F30E940E1B801B910B8C179D070A
:105AC00088F38EEF9FEF0CC02091B900287F81E012
:105AD00090E0283211F480E090E091958195910951
