:100000000C9459030C94A0030C94A0030C94A0032B
:100010000C94A0030C94A0030C94A0030C94A003D4
:100020000C94A0030C94A0030C94CC270C94812670
:100030000C94CE1C0C94A0030C94A0030C94A0036D
:100040000C94A0030C94A0030C94A0030C94A003A4
:100050000C94A0030C94901C0C94A0030C94A0038B
:100060000C94A0030C94A0030C94A0030C94A00384
:100070000C94A0030C94A0030C94A0030C94A00374
:100080000C94A0030C94A0030C94A0030C94A00364
:100090000C94A0030C94A0030C94A0030C94A00354
:1000A0000C94A0030C94A0030C94A0036B076E07A0
:1000B00090079D07A407C4075B085B085B085B0803
:1000C0005B08C707CA07CF07F307140817081A0801
:1000D0003C08CE08C006EB0828097009BA09BD091A
:1000E000C009C309C609C909CC09CF09D409D9096E
:1000F000DC09DF09E209E509EA09260A660AB00A0D
:10010000B30AB80A5C195C1996199619EF19961B6F
:10011000961B961B0B1AE91AFA1AFA1AA81EA81EA1
:10012000BB1EBB1EB11EBB1EBB1EBB1EA81EA81E37
:10013000B61EBB1EBB1EB61E9524BC246326BC2463
:10014000632608252B256326202630260001010181
:100150000101010101010202020202020202020384
:100160000303030303030304040404040404050554
:100170000505050606060606070707070708080817
:1001800008090909090A0A0A0B0B0B0C0C0C0D0DC6
:100190000D0E0E0E0F0F0F1010111111121213135E
:1001A0001414151516161717181819191A1A1B1BD7
:1001B0001C1D1D1E1E1F2020212222232424252633
:1001C00026272829292A2B2C2D2D2E2F303132326B
:1001D000333435363738393A3B3C3D3E3F40414277
:1001E000434445464748494A4C4D4E4F505153545D
:1001F000555658595A5B5D5E5F6162646566686911
:100200006B6C6D6F7072737577787A7B7D7E808290
:10021000838587888A8C8E8F91939596989A9C9ED9
:10022000A0A2A3A5A7A9ABADAFB1B3B5B7BABCBEE9
:10023000C0C2C4C6C9CBCDCFD1D4D6D8DBDDDFE2B6
:10024000E4E7E9EBEEF0F3F5F8FAFDFF165C1E00CB
:100250001F0020002100220023002400250026008A
:1002600027002D002E002A004A002B0014001A003F
:100270000800150017001C0018000C0012001300E5
:100280002F00300031004B003961040016000700D8
:1002900009000A000B000D000E000F0033003400AF
:1002A000000028004E00E1001D001B0006001900A0
:1002B0000500015111001000360037003800E5003C
:1002C00052000000E0000000E300E20000002C000B
:1002D0000000E6000000E4000000000050005100B3
:1002E0004F00165C3A003B003C003D003E003F00E2
:1002F000400041004200430044004500005C4A00C9
:100300000100C25CC35CC55CC65CC75CC85CC95C00
:10031000CA5C0100460047004800005C4B003961A0
:10032000CB5CCC5C01000100010001000100010078
:100330000100010001000000DE5C4E00E100010050
:1003400001000100010001000100010001000100A5
:1003500001000100A900A800000001000000010048
:100360000100000001000000010000000100000089
:100370000000AC00AA00AB00010001000100010078
:100380000100010001000100010001000100010065
:100390000100010001000100010001000100010055
:1003A0000100010001000100010001000100010045
:1003B0000100010001000100010001000100010035
:1003C0000100010001000100010001000000010026
:1003D0000100010001000100010001000100010015
:1003E0000100010001000100010001000100000006
:1003F00001000000010001000000010000000100F8
:1004000000000100000000000100010001000100E7
:1004100001000100010001000100010001000100D4
:1004200001000100010001000100010001000100C4
:1004300001000100010001000100010001000100B4
:1004400001000100010001000100010001000100A4
:100450000100010001000100010001000100010094
:100460000100000001000100010001000100010085
:100470000100010001000100010001000100010074
:100480000100010000000100000001000100000067
:100490000100000001000000010000000000010058
:1004A000010001000000000000000000000000004A
:1004B000000000000000000000000000000000003C
:1004C00000000000000000007E0F00D4FFFFFFC707
:1004D0000000007800000000000000002A2B280027
:1004E00000000000000000000000000000000029E3
:1004F000000000002C1E3420212224342627252E23
:10050000362D3738271E1F2021222324252633335A
:10051000362E37381F0405060708090A0B0C0D0E86
:100520000F101112131415161718191A1B1C1D2F52
:100530003130232D350405060708090A0B0C0D0E72
:100540000F101112131415161718191A1B1C1D2F32
:100550003130354C05010980A101850319012AB705
:1005600000150126B700950175108100C0050C0922
:1005700001A101850419012AA002150126A00295F6
:100580000175108100C005010906A1018505050757
:1005900019E029E715002501950875018102050775
:1005A000190029EF1500250195F075018102050854
:1005B00019012905950575019102950175039101B0
:1005C000C00660FF0961A1010962150026FF0095C0
:1005D00020750881020963150026FF009520750823
:1005E0009102C005010906A101050719E029E715D7
:1005F00000250195087501810295017508810105A5
:1006000007190029FF150026FF00950675088100CF
:1006100005081901290595057501910295017503D4
:100620009101C009025B00030100A0FA0904000067
:100630000103010100092111010001224000070509
:10064000810308000A0904010002030000000921D7
:100650001101000122220007058203200001070585
:100660000303200001090402000103000000092126
:1006700011010001226D000705840320000A120108
:10068000100100000008424B6860010001020001F7
:100690000A034D0041004A004100000010034B00D6
:1006A00042004400460041004E0053000000040395
:1006B000090411241FBECFEFDAE0DEBFCDBF04B6C0
:1006C00003FE27C080914D0690914E06A0914F06E3
:1006D000B09150068730904BA740B04BD1F41092A8
:1006E0004D0610924E0610924F061092500614BE00
:1006F00084B7877F84BF0FB6F894A8958091600077
:10070000886180936000109260000FBEE0E0F8E323
:10071000099513E0A0E0B1E0E8EBF7E502C0059031
:100720000D92A439B107D9F726E0A4E9B3E001C0DE
:100730001D92AD34B207E1F70E94A2030C94DA2BAC
:100740000C940000CF93DF93CDB7DEB7E1970FB6DF
:10075000F894DEBF0FBECDBF84B7877F84BF0FB6CE
:10076000F894A89580916000886180936000109251
:1007700060000FBE90E080E80FB6F89480936100AF
:10078000909361000FBE85B7806885BF85B780688C
:1007900085BF8FEE9BE190939503809394030E9415
:1007A000C5260E946B278091E20084608093E2005E
:1007B0007894809134068823A1F01091E9001F708D
:1007C0009091EC00892F817090FD80E8182B109299
:1007D000E9008091E80083FD0E94AF231F70109311
:1007E000E90082E084BD93E095BD9AEF97BD8093C8
:1007F0006E0080EF0E94581286E30E94581285E333
:100800000E94581284E30E94581287E90E945812ED
:100810000DE111E07CE2E72E71E0F72ED8018D9119
:100820008D010E945812E016F106C1F7E6E9F3E0E7
:1008300080EA93E0ACE0B4E0119211921D921D9217
:100840008E179F07C9F780E090E00E94FF2A8A3E3A
:100850009E4F11F00E94721D82E090E00E94F72AE4
:10086000809301040E94611D9093A1038093A003D3
:100870000E946A14EFEBFDE53197F1F700C000002C
:100880000E946A1480910C0480FF17C06FEF83E20E
:1008900090E00E94152B6FEF84E290E00E94152BF0
:1008A0006FEF85E290E00E94152B6FEF7FEF80E005
:1008B00090E00E94332B0E946C1C83E090E00E9429
:1008C000F72A682F70E080E090E00E94831F0E946A
:1008D000150E1092D003E9EEF3E089EF93E02FEFCD
:1008E0003FEF219331938E179F07D9F71092A303FF
:1008F000ECEBF3E08CEC93E02FEF3FEF219331939F
:100900008E179F07D9F780E090E00E94FF2A8A3E69
:100910009E4F21F00E94721D0E949E1046E050E002
:100920006CE170E082E496E00E94E72A8091420642
:100930008C7F11F40E949E1083E290E00E94F72ABF
:10094000813281F484E290E00E94F72A863051F4EB
:1009500085E290E00E94F72A91E0863109F090E06C
:10096000892F01C080E080FFD7C38091A0038068F9
:100970008093A0038091A0039091A1030E94541D35
:1009800086E091E09093FA038093F90363E4262EC6
:10099000312C8E010F5F1F4F7801065F1F4F1CA780
:1009A0000BA780913406853009F077C0809134061A
:1009B000853009F06CC080913406843009F433C06E
:1009C00040E060E080E00E947E1011E01093FF03A1
:1009D00040E060E080E00E947E101093FF031092E0
:1009E000A20380E428E130E00FB6F894A8952093A4
:1009F00060000FBE8093600083B7817F846083BFF7
:100A000083B7816083BF7894889583B78E7F83BFD7
:100A10000FB6F894A895809160008861809360007B
:100A2000109260000FBE80913306882381F10E94EE
:100A30006A14ECE0F4E081919191892B31F486E124
:100A400094E08E179F07B9F722C0E0E1E9BD82E18B
:100A500089BD09B400FEFDCF8091D8008F7D8093C1
:100A6000D8008091E00082608093E0008091E000F7
:100A700081FDFCCF0E94B2219FEFA3E2B4EF915021
:100A8000A040B040E1F700C000000E94B2210E94E7
:100A9000B2210E94F50F1092FF030E946A14811187
:100AA0000E94B61CA2E0B4E0ECE0F4E000E010E04C
:100AB000402F619071908D919D918625972500978B
:100AC00009F4AFC0D12C88248394912C9C01282157
:100AD0003921232B09F49FC0D9A24AA36820792089
:100AE00081E06114710409F480E08BA30E94C21CB0
:100AF0008160782F9DA38CA349A15AA16BA18DA1E0
:100B00000E942B0FF801EE0FFF1FEE5FFB4F80815D
:100B100091818826992691828082672889F08FE0CA
:100B2000809FF001819FF00D1124E15BFD4FED0DE1
:100B3000F11D80818F3F21F08DA79924939401C0EE
:100B4000912C8090A303092D10E0C801880D911D00
:100B50000997A4F188E0C82ED12CC01AD10AB80197
:100B60006F5F7F4F6D557C4FA60184EA93E00E9432
:100B7000D12BB801675F7F4F6D557C4FA6018CEA82
:100B800093E00E94D12BA601440F551FB801660FB8
:100B9000771F675E7F4F6D557C4F8CEB93E00E9413
:100BA000D12BB8016F5E7F4F6D557C4FA60184EB52
:100BB00093E00E94D12B8A948092A3038091A30397
:100BC00090E00DA5A02FB0E09D01220F331F265607
:100BD0003D4FAA0FBB1FBD0165567D4F41E0480F39
:100BE0009915B0F490E0FC01ED55FC4FD9015C91F2
:100BF0005183DB015C9151870DA5018B880F991FF3
:100C0000FC01ED55FC4F128E118E91E0842FE6CF42
:100C10008093A3031CC0D394880C991C2FE0D2129C
:100C200055CF0F5F1F4F0530110509F041CF8FEFF2
:100C30008EA38FA318A60E94C21C8160782F9AA74A
:100C400089A74EA15FA168A58AA50E942B0F80915C
:100C5000CC039091CD03A091CE03B091CF032FB7D9
:100C6000F8944090FB035090FC036090FD0370905B
:100C7000FE032FBF481A590A6A0A7B0A0E94B61C53
:100C80006093CC037093CD038093CE039093CF03F6
:100C9000A091A303E3EAF3E0DA2EB0E088248A947B
:100CA000982CA12CB12C84189508A608B708AB176E
:100CB00099F0418D528D8A0120E030E08016910636
:100CC000A206B30610F4DA9404C0440D551D528FE9
:100CD000418FBF5F3296EBCFD092A3032091FF03E9
:100CE000211108C010914206212F237019F016958A
:100CF000169501C010E0209114012130E9F038F080
:100D0000223009F470C0233009F477C093C01092E8
:100D1000110160933E0670933F06809340069093C6
:100D2000410689E2E3EAF3E0A0EDB3E001900D9221
:100D30008A95E1F781E054C08091050118130DC038
:100D400020914206237030E04091040150E081E0A0
:100D50002417350719F480E001C081E08170809389
:100D600013018091470690911201981709F4EDC183
:100D70008093120140E060E080E00E947E10E5C1B7
:100D800000911101000F000F34E0D32ED00E23E4A8
:100D90002D1510F423E4D22E609143067091440681
:100DA000809145060E946011C62E972E882E0D1543
:100DB00008F4FFC181E032E43D1508F435C4909198
:100DC00011019F5F909311018111CAC182E080934C
:100DD0001401809113018111C3C11111C4C183E0B9
:100DE0008093140127C010930501809142068370FF
:100DF000809304010E94700DF2CF40913E06509105
:100E00003F0660914006709141062FB7F89480919B
:100E1000FB039091FC03A091FD03B091FE032FBF53
:100E2000841B950BA60BB70B4A97A105B10510F0D3
:100E3000109214010E94F50F90910004891721F07F
:100E40000E94F50F8093000480913406843009F0ED
:100E5000A8CD83E08093E9008091E80082FFA1CDD6
:100E60008091E80085FF21C00E94E42681111BC00B
:100E700000E210E0FE0131966F0108C08091F100A0
:100E8000D6018D936D010150110969F08091E80040
:100E900085FDF4CF8091E8008B778093E8000E9475
:100EA000E426882399F391E001C090E08091E80066
:100EB0008B778093E800992309F473CDE9818E2F15
:100EC00090E0FC013197E331F10508F0F4C0EA5AF3
:100ED000FF4F0C94C42B1A8289E05FC08A81823054
:100EE00009F411C1833051F0813009F0E4C00E944F
:100EF000B61C9B838C837D836E83DFC0FE0131969D
:100F0000ACE0B4E08C9111969C911197129692836B
:100F1000838332960BA51CA50E171F0799F7CDC02A
:100F20008A81823009F0C7C06B817C818D819E816E
:100F30000E94CA2B86E290E024C04C816B818A819A
:100F40000E9445109D83E6C0CD80DE80DC24CD2448
:100F5000DC248C810B819A812EE1029F8001112477
:100F600036E9939F000D111D1124080F111D080F64
:100F7000111D6D2DC80187960E94152B6C2DC8017F
:100F800088960E94152B99C00E94111096C050E1BE
:100F90005A8393C081E08A8381E88B838EC00A8163
:100FA0001B811027012710278C80912C6701C80115
:100FB00081589D4F96012E193F092815390508F0D3
:100FC0007CC00138A1E01A0728F40E94F72AF60134
:100FD000848303C0D60114961C920F5F1F4FBFEF8E
:100FE000CB1ADB0AE4CF0A811B81102701271027C7
:100FF0008C80912C6701C80181589D4F96012E1954
:101000003F092815390508F058C00138E1E01E07EE
:1010100028F4D60114966C910E94152B0F5F1F4F78
:10102000BFEFCB1ADB0AE7CF0E94011046C084E075
:101030008A8343C00A811B811027012710278C80D7
:10104000912C6701C801879696012E193F09281532
:10105000390598F50835E2E01E0730F40E94F72ABA
:10106000D60114968C9302C0F60114820F5F1F4FB5
:10107000FFEFCF1ADF0AE6CF0A811B811027012775
:1010800010278C80912C6701C801879696012E1934
:101090003F092815390588F4083522E0120728F49D
:1010A000D60114966C910E94152B0F5F1F4FBFEF56
:1010B000CB1ADB0AE9CF8FEF898380913406843025
:1010C00009F06FCC1091E9001F709091EC00892F0E
:1010D000817090FD80E8182B82E08093E900809178
:1010E000E80080FF0CC040E050E060E270E0C70123
:1010F0000E9483238091E8008E778093E8001F7020
:101100001093E9004ECC86E290E00E94F72A1B8201
:101110001C821D828E83D1CF60E086E290E00E9427
:10112000152B0E9411100E94011061E283E290E0F1
:101130000E94152B66E084E290E00E94152B66E188
:1011400085E290E00E94152B10CC812F90E0893130
:101150009105F8F0809111018F5F8093110136CED7
:10116000112309F467CEE091F903F091FA03309767
:1011700029F00190F081E02D099501C080E081FF08
:1011800059CE2FEF4FEF6FEF8EE190E00E9480106D
:1011900051CEFC01E759FF4F0C94C42B80911301F1
:1011A000882309F441C240E060E080E00E947E10A4
:1011B0003BC2E02FF0E0DF01A05EBC4F8C9190912C
:1011C0001201982331F0282D4C2D692DCF010E945A
:1011D00080100F5FECCD00911101000F000F94E023
:1011E000D92ED00E53E45D1510F483E4D82E9090E0
:1011F0004406C090450680904306B4018C2D0E94A1
:101200006011762E672E582E60914606680D792D56
:101210008C2D0E946011C62E972E882E0D1508F079
:1012200099C1802F90E0FC01E05EFC4F308120915D
:101230001201232359F030FF04C0282D4C2D692DB5
:1012400003C0252D472D662D0E9480100F5FE6CF2D
:1012500000911101000F000FB4E09B2E900EA3E44B
:10126000A91510F4A3E49A2E7090440660904506E8
:1012700020914606F0E48F2E382D329F312D112417
:10128000832E091538F5C02ED12CF601E05EFC4FF7
:101290009081809112018923D9F0F601EE0FFF1F92
:1012A000E656FD4F6081869EB0011124E5E07595FC
:1012B0006795EA95E1F780914306680F772D862DB3
:1012C0000E946011462F282F672FC6010E948010B0
:1012D0000F5FD7CF81E052E4591508F070CDA4C15B
:1012E00000911101000F000F64E0D62ED00E83E4B0
:1012F0008D1510F453E4D52E90904306C09044060B
:101300008090450660914606669566956695809143
:101310003E0690913F060E9456110E94B7108058D9
:1013200087FD8195880F282F382D239F212D11248B
:10133000822F692D7C2D0E946011C62E972E882E3B
:101340000D1590F4E02FF0E0DF01A05EBC4F8C9112
:1013500090911201982331F0282D4C2D692DCF0149
:101360000E9480100F5FECCF81E052E45D1508F021
:1013700026CD5AC189E49CE0F8C089EE9CE016C0F5
:101380008DEC9CE00EC087E49CE0EFC08EE39CE017
:10139000ECC085E39CE0E9C08AE19CE0E6C08BE01C
:1013A0009CE00E94FB210BCD8DE291E10E94752211
:1013B00006CD8CEB9CE0FACF88EA9CE0F2CF8DED75
:1013C0009BE005C08BEA9BE002C08DE69BE00E949B
:1013D0001723F5CC8091130181111DC06091460641
:1013E00000E1600F08F46FEF80913E0690913F0698
:1013F0000E9456116AE070E00E949C2B892B09F034
:1014000013C10E94D72AB1010E94B02B6091120132
:101410000E94F01109C1C09011018C2D880F880F16
:1014200004E0080F043408F003E4C82ED12C802E09
:10143000912CC814D9040CF044C060911201C6016B
:101440000E94F0112FEFC21AD20AF3CF809113013C
:1014500081111DC06091460630E1630F08F46FEF03
:1014600080913E0690913F060E94561165E070E023
:101470000E949C2B892B09F0D7C00E94D72AB1016A
:101480000E94B02B609112010E943612CDC0C09014
:1014900011018C2D880F880F04E0080F043408F028
:1014A00003E4C82ED12C802E912CC814D9044CF4FE
:1014B00060911201C6010E9436125FEFC51AD50A6B
:1014C000F4CF81E0033408F47ACCAEC0009111016E
:1014D000000F000F44E0D42ED00E83E48D1510F4DD
:1014E00033E4D32E90904406C09045068090430686
:1014F0006091460666956695669580913E06909148
:101500003F060E9456110E94B710805887FD8195B2
:10151000880F682F2CE0629F612D1124680D792DB2
:101520008C2D0E946011C62E972E882E0D1590F4DA
:10153000E02FF0E0DF01A05EBC4F8C919091120192
:10154000982331F0282D4C2D692DCF010E94801059
:101550000F5FECCF81E092E49D1508F030CC64C0C1
:1015600088ED90E102C08CE59BE00E94CF2227CC61
:1015700000911101000F000F24E0722E700EA3E401
:10158000A71510F493E4792E2091460630E040E050
:1015900050E06FEF7FEF80E090E00E94392B69010F
:1015A0000715E8F5802E912CF401E05EFC4F908148
:1015B00080911201892389F19091D003915097FD78
:1015C00015C0292F092E000C330BF901E053FC4FF5
:1015D00081890813F3CF220F331FF901E053FC4F29
:1015E000218D328D2C153D0548F701C09601609183
:1015F0004606C9010E945611AC01609143067091E4
:101600004406809145060E94B1100E946011462F49
:10161000282F672FC4010E9480100F5FC1CF81E087
:10162000B2E4B71508F0CBCB80E0C9CB8334910589
:1016300040F5880F991F880F991FFC01EC5CFE4F45
:1016400052813381808183707181A82FB0E0E0E9FD
:101650008E9FC0011124815D9B4FFC01E70FF11D9E
:10166000B4976083FC01E50FF11DB4974083830FAD
:10167000911DFC01B4972083FD01E35DFB4F81E0E8
:1016800080830895FF920F931F93CF93DF93182FBA
:10169000062FF42EC0E0D0E02F2D402F612FCE0179
:1016A0000E94160B2196C334D105B1F7DF91CF917B
:1016B0001F910F91FF900895E42FF0E0EE0FFF1FB0
:1016C000E656FD4F9081921B97FD9195292F38E1A9
:1016D000239F212D1124620F08950F931F9310E073
:1016E000F801EE0FFF1FE656FD4F9081905797FDD2
:1016F0009195000F111FF801E556FD4FE081F0E0D4
:10170000B097DF01AA0FBB1F8D010E0F1F1F200313
:10171000D001219FB00D1124E8E3F0E0E91BF109AD
:1017200097FDF3959F01220F331F89010E0F1F1F95
:1017300040039001419F300D11242A0F3B1F37FFBA
:1017400002C021583F4F220F232F221F330B620F5D
:101750001F910F9108950F931F93522F10E0F801DE
:10176000EE0FFF1FE556FD4FE081F0E0B097EE0F62
:10177000FF1F9F015203D001539FB00D1124000F92
:10178000111FF801E656FD4F008110E000571109C6
:10179000000F111F40039001419F300D11242A0FAB
:1017A0003B1F37FF02C021583F4F220F232F221F1C
:1017B000330B620F1F910F9108950F931F93522FB8
:1017C00010E0F801EE0FFF1FE556FD4FE081F0E05D
:1017D000B0979F015203D001539FB00D1124000F09
:1017E000111FF801E656FD4F008110E00057110966
:1017F00040039001419F300D11242A0F3B1F37FFFA
:1018000002C021583F4F220F232F221F330B620F9C
:101810001F910F910895EF920F931F9393E0099FEB
:1018200080011124159507956E2D600F1F910F9162
:10183000EF900895A22F50E0FA01EE0FFF1FE5563A
:10184000FD4F9081905297FD9195440F551FFA01DD
:10185000E656FD4F3081232F30E02A1B3109290F36
:10186000311D97FD3A95620F0895E42FF0E0EE0FD9
:10187000FF1FE556FD4F6081621B0895E42FF0E0E5
:10188000EE0FFF1FE656FD4F6081621B0895622F29
:101890000895E42FF0E0EE0FFF1FE656FD4F408164
:1018A00034EE439F412D1124E82FF0E050E0445ED8
:1018B0005F4FDA01A21BB1099D01B7FF03C031954B
:1018C0002195310993E0220F331F9A95E1F7AF017B
:1018D000421B530B9A0157FF02C020E030E0582F03
:1018E000259F212D1124822F0895FC019B01009733
:1018F00021F477FF2BC080E80895AC0197FF04C066
:1019000044275527481B590BB901640F751F37FD34
:101910000CC0241B350BC901A5E0880F991FAA959F
:10192000E1F70E94B02B80E20CC0CB0165E0880F8C
:10193000991F6A95E1F7BA01621B730B0E94B02BE5
:1019400080E6861BF7FF03C08195089580E0089527
:10195000EF920F93CF93DF93D72FC82FC9010E19A2
:10196000BA010E94750C602F681B7D2F8C2FDF91B0
:10197000CF910F91EF9008950F93CF93DF93D72FCF
:10198000C82FC901BA010E94750C682F600F7D2F06
:101990008C2FDF91CF910F910895EF920F931F93AA
:1019A000CF93DF93D62FC72F182FC9010E19010F20
:1019B000BA010E94750C081B202F219F212D112494
:1019C000822F6D2F7C2FDF91CF911F910F91EF9080
:1019D0000895FF920F931F93CF93DF93F62ED72F87
:1019E000182FC901C12FC01BBA010E94750C982F76
:1019F000990F890FC81B2C2F219F212D1124822F75
:101A00006F2D7D2FDF91CF911F910F91FF90089542
:101A10009091A00392FF0DC0282F2871283019F44F
:101A2000877F846006C0282F2471243011F48B7FB7
:101A3000886093FF0DC0282F2871283119F4877E04
:101A4000846106C0282F2471243111F48B7E8861B3
:101A50002091A10320FF0DC0382F3871383019F4C0
:101A6000877F816006C0382F3171313011F48E7F4D
:101A7000886021FF0DC0282F2871283119F4877E36
:101A8000816106C0282F2171213111F48E7E886179
:101A900094FD877E08950F931F93CF93DF93082FB4
:101AA000000FEB0114E210931904EAE1F4E0DE0107
:101AB0008D91819384E0EA32F807D1F724E630E093
:101AC00041E150E069E174E0802F0E94642A105FD8
:101AD0006096143B41F7DF91CF911F910F910895CC
:101AE00080912D04882329F06FE274E084E70E943E
:101AF0004B0D10922D0480912E04882329F06FEB5A
:101B000074E086E70E944B0D10922E040895E9E1DF
:101B1000F4E06083418324E630E042E050E0BF011E
:101B2000880F0C94642ADF92EF92FF920F931F9319
:101B3000CF93DF93262F30E0A9014D585A4F7A01F9
:101B4000FA01908191110AC0F7011082DF91CF91C3
:101B50001F910F91FF90EF90DF900895D82EF2E142
:101B60006F9FE001112400E010E0F801EC0FFD1F71
:101B7000E15BFA4F4081602F8D2D0E94870D0F5F32
:101B80001F4F0231110589F7DFCFCF93DF93C82FA5
:101B90004BE06DEF0E94870D40E06AE08C2F0E94C1
:101BA000870D8FE39CE90197F1F700C0000040E04A
:101BB00060E08C2F0E94870D40E061E08C2F0E9436
:101BC000870D40E066E08C2F0E94870D40E06DEFAE
:101BD0008C2F0E94870DD0E040E06D2F8C2F0E944B
:101BE000870DDF5FD231C1F740E06D2F8C2F0E944F
:101BF000870DDF5FD432C1F740E06D2F8C2F0E943C
:101C0000870DDF5FD43BC1F74BE06DEF8C2F0E9457
:101C1000870D41E06AE08C2F0E94870D40E06DEF58
:101C20008C2FDF91CF910C94870D7F928F929F9292
:101C3000AF92BF92CF92DF92EF92FF920F931F93DA
:101C4000CF93DF930E94D72984E70E94C50D86E7D2
:101C50000E94C50D04E311E0E12CF12C42E138E0D3
:101C6000A32EB12CCC24C394D12C77247394D80107
:101C700011962C91119730E0C90184971296CC915E
:101C80001297D0E0A4971396EC91F0E0B497BC01C2
:101C900097FF02C0695F7F4FA3E075956795AA958E
:101CA000E1F7D701AA0FBB1FAA0FBB1FAC5CBE4F49
:101CB0002C91237030E0429FD001439FB00D11243E
:101CC000A15BBA4F4D01860E911CB5010E94B02B4D
:101CD000B60102C0660F771F8A95E2F7CB01D401E7
:101CE0009C91892B8C93CE01D7FD079663E0959547
:101CF00087956A95E1F7429FB001439F700D1124CB
:101D0000615B7A4F4B01880E911CCE01B5010E9498
:101D1000B02BB60102C0660F771F8A95E2F7CB01A0
:101D2000D4019C91892B8C93CF01F7FD079653E04A
:101D3000959587955A95E1F7429FE001439FD00D15
:101D40001124C15BDA4FC80FD11DCF01B5010E942C
:101D5000B02BF60102C0EE0FFF1F8A95E2F7CF010C
:101D60009881892B8883F901ED58FA4F7082FFEF33
:101D7000EF1AFF0A0C5F1F4F63E4E616F10409F047
:101D800076CF60E084E70E94930D61E086E7DF9103
:101D9000CF911F910F91FF90EF90DF90CF90BF9068
:101DA000AF909F908F907F900C94930DE2E4F6E0BB
:101DB000438120E1421B08F440E08181628190E090
:101DC0000C947623E2E4F6E0438120E1420F08F42C
:101DD0004FEF8181628190E00C947623E2E4F6E09B
:101DE000628120E1621B08F460E08181438190E020
:101DF0000C947623E2E4F6E0628120E1620F08F4BD
:101E00006FEF8181438190E00C947623E2E4F6E069
:101E1000818190E04381628108970C947623E2E40B
:101E2000F6E0818190E04381628108960C947623EC
:101E30008091420686958695815009F488E10C943C
:101E4000E52180914206869586958F5F893108F05D
:101E500081E00C94E5211F93CF93DF93CDB7DEB7DC
:101E600067970FB6F894DEBF0FBECDBF342F4B8BF4
:101E7000252F5C8B6D8B7E8B8F8B4E895F896111DB
:101E80001092090686E0FE013D96DF01982F1D9213
:101E90009A95E9F73D872E876F87598B488BDE012E
:101EA000179601900D928A95E1F7CE0107960E9450
:101EB000032081113EC086E0FE013796DE011196B7
:101EC00001900D928A95E1F7FF81E8856A857B850F
:101ED0006115710531F0EF3F31F481E0FF3F19F4F6
:101EE00003C081E001C080E080FD23C02091A305F4
:101EF00030E0C9010196877099274091D40550E0E0
:101F00008417950779F1F983EA837D836C8396E0E2
:101F1000929FD001939FB00D1124AC55BA4FFE0192
:101F2000319601900D929A95E1F78093A3050E9456
:101F30008D1F16E08091D4059091A3058917F9F0C3
:101F4000189FC00111248C559A4F0E9403208823AA
:101F5000B1F08091D40590E0019687709927809325
:101F6000D405E8CF0E94B2211092A3051092D405A7
:101F7000EDE9F5E086E0DF011D928A95E9F76796C5
:101F80000FB6F894DEBF0FBECDBFDF91CF911F918A
:101F900008952091790530917A052817390771F055
:101FA00090937A0580937905E091F903F091FA0313
:101FB000309721F00084F185E02D09940895209157
:101FC0007705309178052817390771F090937805D7
:101FD00080937705E091F903F091FA03309721F0AF
:101FE0000680F781E02D09940895E091F903F091BE
:101FF000FA03309721F00190F081E02D099480E000
:102000000895CF93DF93CFE7D2E060E0CE010E9446
:10201000152B2196C11584E0D807B9F7DF91CF9130
:102020000895CF92DF92EF92FF920F931F93CF9379
:10203000DF93C0E0D0E08E010A561F4F6E018EE1A3
:10204000C80ED11CFE01E45BFD4FE590F4906F2DAE
:10205000CE0187960E94152B6E2DCE0188960E9488
:10206000152B2296CC15DD0569F70C171D0731F7E6
:10207000E80108351240F9F6DF91CF911F910F91D9
:10208000FF90EF90DF90CF9008950F931F93CF9321
:10209000DF93C42FD0E0CC0FDD1F2EE1629FC00D77
:1020A000D11D112436E9839FC00DD11D1124CE010D
:1020B00087960E94F72A082F10E0102F0027CE01E4
:1020C00088960E94F72A9801282BC901DF91CF91A9
:1020D0001F910F910895462F843038F4753028F4FD
:1020E0006F3018F4672F0C94451080E090E008954D
:1020F000882311F0FA0101C0FB0109940C94420BF2
:102100000C94160B46E050E06CE170E082E496E03F
:102110000C94052BE2E4F6E0248130E1230F08F46F
:102120002FEF24830C948210E2E4F6E0248130E166
:10213000231B08F420E024830C948210E2E4F6E0F0
:1021400081E280838091150190911601A091170181
:1021500081839283A3838FE784838FEF85830C949D
:10216000821022E8241B08F420E0620F0895482F13
:10217000982F46FD9095E92FEF739F7046FD9F5F66
:10218000E295EF70EE0FF0E0E45DFE4F2181299FB4
:10219000802D212D112482958F702295207F822BF6
:1021A0003081982F930F892F47FD8195805808958E
:1021B0000F931F93CF93DF93D62F072F182FC42F82
:1021C000822F0E94B710EC2FF0E0EE0FFF1FE656B3
:1021D000FD4F90819058890F87FD8195880F682F5A
:1021E0002CE0629F612D11246D0F702F812FDF91E4
:1021F000CF911F910F910895BC018230910508F491
:102200000895613E8EE1780748F49B0195E036958C
:1022100027959A95E1F748E0420F01C04FEF91E012
:10222000242F30E0290F311D35952795229FF0018D
:10223000239FF00DF00D11246E177F0718F44FEF58
:10224000420F04C02F3F39F091E0920F491740F739
:102250008FEF890F08958FEF08950F93CF93DF933A
:10226000D72FC82F47FD4195E8E3F0E0CF01841B4D
:10227000910947FD9395889FB001899F700D700D5E
:102280001124229FC001239F900D900D1124860FD1
:10229000971F0E94FC10682F660F860F682F600F33
:1022A0007D2F8C2FDF91CF910F91089520E030E0AA
:1022B000869F212D969F200D311D1124C90108955F
:1022C000CF92DF92EF92FF920F931F93CF93DF9302
:1022D000F62E472FE82FF0E0711106C0E45BFE4FA9
:1022E0008491782F682F73C0272F30E0E45BFE4F76
:1022F000E491FE2F0E2F10E056E0659FC0011124DF
:10230000CFEFD0E0BE010E949C2B5BEA5603C001D8
:10231000579F900D11248F0D911D8F0D911D982F9A
:10232000990F980F7E01E21AF30AE09ED001E19E18
:10233000B00DF09EB00D11248B2F499FA0011124E8
:10234000452F55277E01E41AF50AE09EA001E19E83
:10235000500DF09E500D11246E01C91AD108C29E75
:102360007001C39EF00CD29EF00C11242F2D332748
:10237000C21BD30BC09F9001C19F300DD09F300D69
:102380001124932F6230710591F048F461157105A5
:10239000E1F061307105B9F49E2FE52F16C064306D
:1023A000710569F040F06630710579F00CC09E2F20
:1023B000EB2F832F0AC0EB2F8F2F952F06C09B2F5B
:1023C0008E2FE32F02C09B2F852F7E2F692FDF9149
:1023D000CF911F910F91FF90EF90DF90CF900895D4
:1023E000DF92EF92FF920F931F93CF93DF93EC0155
:1023F000FC01E05EFC4F9081692381F1D09044069E
:102400000091450610914306E12EF12C0E94D72A37
:10241000282FC7018C549F4F68E671E00E94B02BB3
:102420008E199F0997FD03969595879595958795A4
:102430002370612F289F600D11247D2D802F0E9415
:102440006011462F282F672FCE01DF91CF911F916A
:102450000F91FF90EF90DF900C948010DF91CF915F
:102460001F910F91FF90EF90DF9008951F93CF93EE
:10247000DF93FC01E05EFC4F20816223A9F0EC01B8
:102480000E94D72A182F0E94D72A612F782F809177
:1024900045060E946011462F282F672FCE01DF913D
:1024A000CF911F910C948010DF91CF911F910895CF
:1024B000F894E82FE295EF70F0E031A1282F2F700B
:1024C00081E090E001C0880F2A95EAF7982F909557
:1024D000932391A392A1892B82A378940895CF93FB
:1024E000DF930E946B10EC018238910559F1A0F442
:1024F0008133910509F473C040F48932910509F4E0
:1025000067C08A9709F472C084C08533910509F4C5
:1025100058C0C997B9F07DC0833E910571F138F478
:10252000803E9105B1F0823E910511F172C0863E68
:102530009105B9F1873E9105C9F1843E910509F0F5
:1025400068C024C08091A00380FD5DC081FD5BC098
:1025500060C08091A00380FD50C08091A10380FFE6
:1025600036C18091A00384FD30C1C3EED0E02FC1FD
:102570008091A00382FF2BC1F4CF8091A00382FD44
:102580003FC08091A10380FD3EC0EBCF8091A103AD
:1025900081FF1DC18091A00384FD17C1C7EED0E06B
:1025A00016C18091A00383FF12C1F4CF8091A003D4
:1025B00083FD2CC08091A10381FFECCFC4EED0E05D
:1025C00006C18091A00385FF02C1C9E2D0E0FFC02F
:1025D0008091A00385FFFBC0C5E3D0E0F8C08091E7
:1025E000A00386FFF4C0CAE2D0E0F1C08091A0034E
:1025F00086FFEDC0C1E3D0E0EAC0C9E3D0E0E7C0A8
:10260000C2EED0E0E4C0C0EED0E0E1C0C6EED0E063
:10261000DEC0C11582E5D80708F066C0C11591E596
:10262000D90728F0DC2FCC27C16FD06AD0C0C83EB4
:10263000D10560F5C03ED10508F0C9C0C83AD10542
:10264000B0F4C53AD10540F0C55AD0E0CD59DC4FC1
:10265000C881D0E0D064BBC0C130D10509F4B7C097
:1026600008F4B3C0C430D10508F4AFC0B0C0CF3B4C
:10267000D10508F0AAC0C85AD0E0CC0FDD1FCA5956
:10268000DC4F0990D881C02DD464A1C0C11520E5CC
:10269000D207E0F0CE0174E0969587957A95E1F740
:1026A00083709C2F937021E030E002C0220F331F13
:1026B0009A95E2F73C68382BCF70C695C69580E2B4
:1026C000C89FE0011124C22BD32B81C0C11580E427
:1026D000D80718F0DF70D06A7AC0CE019A958115BC
:1026E0009F4108F474C071C0C11586E5D807F0F5A4
:1026F000C11595E5D90750F08C2F0E94080D8F71F8
:10270000C82FD0E0DC2FCC27D06261C0C11524E5F2
:10271000D20728F0DC2FCC27C46FD06A58C09E01A6
:10272000237033278C2F86958695C115D34578F471
:10273000C1E0D0E002C0CC0FDD1F2A95E2F720E215
:10274000829FC0011124C82BD92BDC6840C0C1E096
:10275000D0E002C0CC0FDD1F2A95E2F720E2829F75
:10276000C0011124C82BD92BDA6831C0C1152AE564
:10277000D207E8F4C11589E5D80780F08C2F8F7057
:102780000E94080D94E0D695C7959A95E1F7CF7011
:10279000D0E0DC2FCC27D069C82B19C0C11598E533
:1027A000D90798F0DC2FCC27C06FD06A10C0CE01BB
:1027B00090568115904248F48D2F8F710E94080D1C
:1027C000DD27D0628F71D82B02C0C0E0D0E0CE01EF
:1027D000DF91CF9108950F931F93CF93DF93C42F71
:1027E000122FFC0182818823C9F040937B050E944F
:1027F000C21C909376058093750580E28C0F88301B
:1028000008F063C0C77081E001C0880FCA95EAF77D
:10281000DF91CF911F910F910C940A2980917B0534
:1028200048133CC020917505309176054FB7F89458
:102830008091FB039091FC03A091FD03B091FE03F6
:102840004FBF821B930B883C910540F5D0E2D10F1E
:10285000C117B9F080E28C0F883040F4C77081E076
:1028600001C0880FCA95EAF70E94FF28D83030F5DA
:1028700081E0912F977001C0880F9A95EAF70E9426
:102880000A29802F0E94B929D830F8F4212F277007
:1028900081E001C0880F2A95EAF70AC080E28C0F18
:1028A000883098F4C77081E001C0880FCA95EAF7B4
:1028B000DF91CF911F910F910C94FF28802FDF9112
:1028C000CF911F910F910C94B929DF91CF911F9156
:1028D0000F9108959F92AF92BF92CF92DF92EF92A5
:1028E000FF920F931F93CF93DF9308E111E0C6E9A6
:1028F000D3E080EAE82E83E0F82E912CCC24C39418
:10290000D12CB801D8018C91F894E82FE295EF70A2
:10291000F0E021A18F70A60102C0440F551F8A95D7
:10292000E2F7CA01922F982B91A392A18095892357
:1029300082A3789400C0EDE1F1E020E030E0A12C2A
:10294000B12C4191842F82958F7090E0DC0190969C
:102950008C9190E04F7002C0959587954A95E2F76B
:1029600080FD08C0C601022E02C0880F991F0A947C
:10297000E2F702C080E090E0A82AB92A2F5F3F4F1B
:102980002F303105F1F60F5F1F4FFB0180810E9450
:102990005812F0EAFA95F1F788819981A816B906DC
:1029A00021F0B982A88281E001C080E0982A2296B5
:1029B000EC16FD0609F0A5CF992049F081E080933F
:1029C00018040E94C21C90931704809316048091EF
:1029D00018048823E9F120911604309117044FB7A9
:1029E000F8948091FB039091FC03A091FD03B091BA
:1029F000FE034FBF821B930B049750F18091960307
:102A00009091970390930D0480930C048091980308
:102A10009091990390930F0480930E0480919A03F0
:102A200090919B03909311048093100480919C03D8
:102A300090919D03909313048093120480919E03C0
:102A400090919F039093150480931404109218049E
:102A5000892DDF91CF911F910F91FF90EF90DF9023
:102A6000CF90BF90AF909F9008953F924F925F920A
:102A70006F927F928F929F92AF92BF92CF92DF928E
:102A8000EF92FF920F931F93CF93DF93CDB7DEB7F3
:102A900029970FB6F894DEBF0FBECDBFFC01808131
:102AA000918123813481232B31F09F3F31F491E0D8
:102AB0008F3F19F403C091E001C090E090FD73C610
:102AC0007F0185E0DE01119601900D928A95E1F774
:102AD000F701228189819A81222349F00E94491EAF
:102AE000182F682F89819A810E94EB1E03C00E94D3
:102AF000BF1E182F69817A81812F0E946B108C0173
:102B0000F7018281882309F4F2C0980122513F45E0
:102B10002031310508F019C18FEF93E00E94F72AA8
:102B20008111EFC002513FE7832E32E0932E002344
:102B300079F08114F4E09F0609F4E3C0C4010E9417
:102B4000F72A811101C001501FEF811A910AEFCFBE
:102B50001E821F8218861986442443942AE0322E4E
:102B600084010F5F1F4FC4010E94F72A8E831F82CA
:102B7000882309F4C6C09FEF980F933060F48F83C9
:102B80004E8222E0820E911CC8010E94F72A88879B
:102B9000811102C0B6C048018E010A5F1F4FF801C3
:102BA00020812223E9F2213009F04CC0818181305B
:102BB00049F46801F2E0CF0ED11CF80182810E9435
:102BC000B9290AC0823051F46801F2E0CF0ED11C5D
:102BD000F80182810E944629860186C0833049F42B
:102BE0006801F2E0CF0ED11CF80182810E94142905
:102BF000F3CF843019F00F5F1F4F76C0F8012281A8
:102C00000E5F1F4F80E090E030E0205331092A3002
:102C1000310568F4389EA001399E500D1124C90178
:102C2000840F951F0F5F1F4FF8012081EDCF009794
:102C300009F45AC0EFE9FFE03197F1F700C0000056
:102C40000197F5CFE22FF0E0EC52FB4F5490822F2A
:102C500086958695869590E0FC01EC53FB4F649039
:102C60002770712C022E02C0759467940A94E2F7C3
:102C7000F1E06F227724FC01EC54FB4FA490B12CBF
:102C8000022E02C0B594A7940A94E2F731E0A32281
:102C9000BB24FC01EC55FB4FC490D12C02C0D59451
:102CA000C7942A95E2F781E0C822DD2461147104FB
:102CB00019F081EE0E944629A114B10419F086EEA4
:102CC0000E944629852D0E94B929AB2819F086EE6D
:102CD0000E941429672819F081EE0E941429CD283A
:102CE00019F08CE20E94B9290F5F1F4F58CF0031B5
:102CF0003FE5130709F04EC581E00E94201F0E94A6
:102D0000C72180910706877009F44DC5F7018281BC
:102D1000882309F448C582E029960FB6F894DEBFEF
:102D20000FBECDBFDF91CF911F910F91FF90EF901C
:102D3000DF90CF90BF90AF909F908F907F906F90DB
:102D40005F904F903F900C94451F0031FFE51F07A7
:102D500011F481E005C001312FE5120721F482E072
:102D60000E94621FCCCF033FFCE51F0749F406E237
:102D700021EE40EE63EF7CE5C7010E94EB13C1CF6B
:102D8000043F2CE5120708F042C1083D3CE513075B
:102D900031F407E225EE45EE68ED7CE5EDCF093D27
:102DA0009CE5190731F408E221E045EE69ED7CE588
:102DB000E3CF073DECE51E0731F406E221EE41EEDC
:102DC00067ED7CE5D9CF882309F456C110927B05C5
:102DD00002309CE5190708F439C10631ECE51E07FD
:102DE00030F0C8018A5F9C45099708F02FC10E9406
:102DF000611D9093A1038093A0030031FCE51F07A0
:102E000009F4C3C008F041C008303CE5130709F4D9
:102E10009AC0F0F404309CE5190709F487C068F4FF
:102E20000230FCE51F0709F477C003301C4509F0A8
:102E3000E5C08091A003826076C006303CE51307B0
:102E400009F46EC008F07BC08091A00388606BC05D
:102E50000C309CE5190709F485C068F40A30FCE5DC
:102E60001F0709F474C008F079C00E94B221809154
:102E7000A003806858C00E303CE5130709F476C003
:102E800008F07FC08091A0038BC00B3F9CE5190721
:102E900009F44FC018F50331FCE51F0709F47DC0A4
:102EA00078F401313CE5130709F473C002311C4585
:102EB00009F0A4C00E94B2218091A0038F7733C093
:102EC00005319CE5190709F472C008F486C00A3F71
:102ED0001C4509F093C08091A1033EC00F3F2CE533
:102EE000120709F45FC058F40D3F8CE5180709F488
:102EF00044C008F43FC08091A10382602DC001301E
:102F0000EDE51E0709F475C008F45DC002301D45EB
:102F100009F074C060E06EC08091A003816003C0BE
:102F20008091A00380618093A00368C08091A0037A
:102F300011C08091A10382608093A1035FC0809142
:102F4000A0038062F0CF8091A0038064ECCF8091D9
:102F5000A00388608460E7CF8160EECF8091A003FA
:102F60008E7FE1CF8091A0038D7FDDCF8091A00384
:102F7000877FD9CF8091A10318C08091A1038D7F55
:102F8000DBCF8091A0038F7ECECF8091A0038F7D79
:102F9000CACF8091A0038F7BC6CF8091A003877F8B
:102FA0008B7FC1CF8091A1038D7F8E7FC5CF809114
:102FB000A00382FB222720F991E0922790FB82F95F
:102FC00090FB83F9B0CF8091A103982F90959170D9
:102FD0008E7F892B90FB81F9AFCF0E94B221809127
:102FE000A00387FB222720F991E0922790FB87F925
:102FF0009ACF61E08EE090E00E94152B8091A003B3
:103000009091A1030E94541D0E94B2217ACE053FE7
:10301000FCE51F0731F406E221EE42EE65EF7CE5A8
:10302000ABCE053F2CE5120730F407E225EE44EE67
:1030300064EF7CE5A1CE063F3CE5130709F0C3CE63
:1030400007E225EE46EE66EF7CE596CE80910A0615
:1030500006319CE5190709F58A7A91E009F490E0B8
:1030600090937C05882311F065E301C069E28DE748
:1030700095E00E941F1D0EC006311C4509F0D6C008
:1030800080917C05882309F48CC365E38DE795E086
:103090000E94F71C0E94E31D34CE82720A3C3CE57C
:1030A000130709F47BC098F5053CECE51E0709F40D
:1030B00061C0B8F4033C2CE5120709F451C008F0D4
:1030C00054C0023C8CE5180709F07FC0909142067D
:1030D00081E0892780934206109214010E94821099
:1030E00010CE073C9CE5190709F44EC008F447C010
:1030F000083CFCE51F0709F44CC0093C2CE512070D
:1031000009F063C046ED5EE062EE7EE055C00F3C24
:103110003CE5130709F455C098F40C3CECE51E0798
:1031200009F446C008F43FC00D3C2CE5120709F431
:1031300046C00E3C3CE5130709F047C084E042C09E
:10314000063D8CE5180730F4013D1C4508F0D9CD4B
:103150008EE038C00D35EDE51E0709F4D2CD35C03F
:1031600048E15FE061E27FE027C041E25FE068E1C3
:103170007FE022C046E05FE06FE07FE01DC04FE0EF
:103180005FE066E07FE018C04EEE5EE06AEF7EE052
:1031900013C04AEF5EE06EEE7EE00EC042EE5EE0EF
:1031A00066ED7EE009C044E950E16AE870E104C0E0
:1031B0004AE850E164E970E10E947810A2CD81E014
:1031C00001C089E00E94E5219CCD0A35FDE51F077D
:1031D00041F150F401153CE51307A9F00E3D1C45E3
:1031E00029F50E94721D8DCD0B359DE51907D9F08B
:1031F0000C351D45D9F48091A10382FB882780F905
:1032000091E0892711C00E94B221FFEF04E31CE086
:10321000F15000401040E1F700C000000E946C1C1B
:1032200070CD81E001C080E00E94371EF7018281ED
:1032300000811181882349F0C8010E94491ED82EBF
:10324000682FC8010E94EB1E04C0C8010E94BF1E67
:10325000D82EB8018D2D0E946F128C01982EF70187
:10326000B280A580A2949FE0A92280910706877072
:1032700099F0BB2089F0812F807F803421F080E29B
:10328000800F883048F082E00E94451F8091070639
:103290008770DD24D3948111D12CC12EC2948FE08C
:1032A000C8228C2D90E08C30910508F03FC2FC01C3
:1032B000EE57FF4F0C94C42B812F807F1F70882303
:1032C00011F01295107FBB20B9F0112309F419C237
:1032D00080E2800F883010F0911006C080910A06BD
:1032E000182B10930A0605C080910906182B10931D
:1032F00009060E94E31D05C2802F0E941429112394
:1033000009F414C2005E1095083010F0911006C048
:1033100080910A06182310930A0605C080910906B9
:103320001823109309060E94E31D00C2812F807F9D
:103330001F70803211F01295107F992021F0F1E07A
:103340009F1611F130C0BB20B1F0AA2081F001E03E
:10335000A0120DC08091A10382FDE8C180910B06EF
:10336000182B181709F4E2C110930B06DFC18091E6
:103370000B06812B10C0AA2021F021E0A21609F42F
:10338000D5C10E94DD1D27C0BB2041F035E03A15B4
:1033900008F4CCC1812F0E940A29C8C184E08A1593
:1033A00008F4C4C118C0BB2049F0AA2099F3F70162
:1033B000858180FFA6C18F708583ECCFAA2059F04C
:1033C000093309F0B0C1FFEF17EE23E0F1501040D0
:1033D0002040E1F7A6C1812F0E94FF28A7C1812FBD
:1033E00086958695837019F0813059F09FC1BB2076
:1033F00019F0C801937002C080E090E00E94DF0FD6
:103400009BC1BB2019F0C801937002C080E090E01E
:103410000E94C90F91C1812F837009F069C0B1105A
:1034200089C1902F929596959770990F990F802F3B
:103430008F70882E912CA12CB12C092E04C0880CE1
:10344000991CAA1CBB1C0A94D2F704FF12C04FE0BF
:1034500050E060E070E004C0440F551F661F771F06
:103460009A95D2F7DB01CA0180959095A095B09509
:1034700003C080E090E0DC0116951695412F437063
:10348000423019F1C8F400910C0610910D062091FC
:103490000E0630910F06413059F088299929AA2942
:1034A000BB29BC01CD0160237123822393230AC071
:1034B000802A912AA22AB32ABC01CD016829792940
:1034C0008A299B290E94831F35C188299929AA2905
:1034D000BB2900910C0610910D0620910E0630912B
:1034E0000F06BC01CD016027712782279327EACF01
:1034F000BB2019F0812F817001C08695882309F4C3
:1035000019C1902F929596959770990F990F802FCA
:103510008F70882E912CA12CB12C092E04C0880C00
:10352000991CAA1CBB1C0A94D2F704FF12C04FE0DE
:1035300050E060E070E004C0440F551F661F771F25
:103540009A95D2F7DB01CA0180959095A095B09528
:1035500003C080E090E0DC0116951695412F437082
:103560004230D9F068F50091480610914906209143
:103570004A0630914B06413059F088299929AA29E9
:10358000BB29BC01CD0160237123822393231EC07C
:10359000802A912AA22AB32A13C088299929AA2904
:1035A000BB29009148061091490620914A063091A6
:1035B0004B06BC01CD01602771278227932706C0E7
:1035C000BC01CD01682979298A299B290E94161FEF
:1035D000B1C01F70BB2039F0812F0E94621F802F65
:1035E0000E940A29A7C0802F0E94FF28812F0E94D5
:1035F000201FA0C0802F32EF931609F440C0391568
:1036000038F090EF991661F0E1EF9E1699F174C0D1
:10361000F3EF9F16D9F124EF921609F44EC06CC057
:10362000BB2019F134E03A1508F480C01F7181E025
:1036300090E0A0E0B0E0AC01BD0104C0440F551F14
:10364000661F771F1A95D2F7809148069091490618
:10365000A0914A06B0914B068A019B0108271927C1
:103660002A273B27C901B80125C025E02A1508F4FF
:103670005DC0DCCFBB2029F0812F8F7130C0BB2013
:10368000D9F3812F8F710E94201F50C0BB2079F089
:103690001F7181E090E0A0E0B0E0BC01CD0104C06A
:1036A000660F771F881F991F1A95D2F703C060E035
:1036B00070E0CB010E94161F39C0BB2099F01F712A
:1036C000812F0E94621F8091A10382FD07C038E014
:1036D000139FC0011124836080930706812F0E94ED
:1036E000621F24C081E00E94451F81E08A15F0F42A
:1036F00082E00E94451F1AC0BB2039F0AA2009F4BD
:10370000BBCF802F0E94462911C0AA2009F4B9CF4F
:10371000893349F49FEFE7EEF3E09150E040F04049
:10372000E1F700C00000802F0E94142988EF8C0D63
:10373000843010F40E94F50FDD20A9F18091070676
:1037400080FD31C0F70112828595859585950E948F
:10375000621FC7010E9435158091070685958595E2
:10376000859529960FB6F894DEBF0FBECDBFDF91C9
:10377000CF911F910F91FF90EF90DF90CF90BF906E
:10378000AF909F908F907F906F905F904F903F9001
:103790000C94201F01319FE5190709F0E4CA82E06B
:1037A000ACCA69E273CC29960FB6F894DEBF0FBE9F
:1037B000CDBFDF91CF911F910F91FF90EF90DF90E0
:1037C000CF90BF90AF909F908F907F906F905F90C1
:1037D0004F903F900895089580911106089580E0DC
:1037E0000895CF93DF9300D01F92CDB7DEB79091AD
:1037F0003406943011F589837B836A839093E900C2
:103800008FEF9091E800815095FD06C095ED9A9557
:10381000F1F700008111F5CF8091E80085FF0DC020
:1038200040E050E063E070E0CE0101960E94832307
:103830008091E8008E778093E8000F900F900F90B2
:10384000DF91CF910895BC0184E00C94F11BBC0181
:1038500083E00C94F11BCF93DF932091100122237E
:1038600039F02091A00327FF03C060E224E002C0EA
:1038700068E021E02093E9002FEF3091E80021502B
:1038800035FD06C035ED3A95F1F700002111F5CF71
:103890002091E80025FF1DC0EC01809110018111ED
:1038A00005C040E050E068E070E003C070E040E038
:1038B00050E0CE010E9483238091E8008E778093B0
:1038C000E80080E2FE01A2E1B6E001900D928A9547
:1038D000E1F7DF91CF91089581E08093E00080E2ED
:1038E0008093D8001092C9008FE19EE40197F1F710
:1038F00000C0000087E090EBDC0180934D069093C0
:103900004E06A0934F06B09350069CE088E10FB698
:10391000F894A895809360000FBE90936000FFCF4D
:1039200078941F920F920FB60F9211248F939F934A
:10393000AF93BF938091FB039091FC03A091FD0393
:10394000B091FE030196A11DB11D8093FB039093DE
:10395000FC03A093FD03B093FE03BF91AF919F9131
:103960008F910F900FBE0F901F9018952FB7F8945E
:103970006091FB037091FC038091FD039091FE0325
:103980002FBF08952FB7F8948091FB039091FC030B
:10399000A091FD03B091FE032FBF08951F920F92D7
:1039A0000FB60F9211248F939F93AF93BF93809183
:1039B000A203811113C08091FB039091FC03A0919D
:1039C000FD03B091FE034196A11DB11D8093FB0341
:1039D0009093FC03A093FD03B093FE03BF91AF91BE
:1039E0009F918F910F900FBE0F901F90189520916F
:1039F00010012223C9F02091A00327FF15C0262F14
:103A00002695269526952E31C8F4FC01E20FF11D6E
:103A1000677081E090E001C0880F6A95EAF78095B1
:103A20009281892382830895FC0106962281621384
:103A300001C012823196E817F907C1F70895209165
:103A400010012223C1F02091A00327FF14C0262FCC
:103A50002695269526952E3130F5FC01E20FF11DB5
:103A6000677081E090E001C0880F6A95EAF7928163
:103A7000892B82830895FC0132962FEF30E041912B
:103A8000641789F02F3F19F4411101C0232F3F5FC4
:103A90003630A9F72F3F39F0FC01E20FF11D27FD69
:103AA000FA95628308950895CF93C92F682F84E013
:103AB00090E00E94152B6C2F82E290E0CF910C9445
:103AC000152BCF9384E090E00E94F72AC82F82E262
:103AD00090E00E94F72A2C2F30E0A901582BCA0150
:103AE000CF9108956AEE7EEF80E090E00E94332B44
:103AF00060E082E090E00E94152B60E083E090E0BF
:103B00000E94152B10920C0610920D0610920E06B4
:103B100010920F0660E084E090E00E94152B60E0B8
:103B200082E290E00E94152B60E085E090E00E9428
:103B3000152B60E086E090E00E94152B6FEF87E088
:103B400090E00E94152B40E050E0BA0188E090E040
:103B50000E94272B60E08DE090E00E94152B40E052
:103B600050E0BA0188E190E00E94272B60E087E1F5
:103B700090E00E94152B40E050E0BA018CE190E00B
:103B80000E94272B60E070E080E290E00E94332BDF
:103B900040E050E0BA0188E190E00E94272B40E02D
:103BA00050E0BA018FE090E00E94272B40E050E007
:103BB000BA0183E190E00C94272B80910B068111D0
:103BC00010920B06089590910A0680910906892BA0
:103BD00020910806982F922B90937D0580910B06DB
:103BE0008823D9F0892B80937D058091100188234B
:103BF00031F08091A00387FF02C08EE101C086E012
:103C0000EFE7F5E090E0815028F021912223D9F3ED
:103C10009F5FF9CF91110E94DD1DE091F903F091B2
:103C2000FA033097A9F080911001882359F0809110
:103C3000A00387FF07C080917D0580937E0585E006
:103C400080937D050280F381E02D8DE795E0099456
:103C5000089580E090E00E94DF0F80E090E00E94F5
:103C6000C90F10920906109208060C94E31D90915A
:103C7000A10392FB222720F9281751F080FB92F92B
:103C80009093A1038091A0039091A1030C94541DE3
:103C90000895BF92CF92DF92EF92FF920F931F93FE
:103CA000CF93DF938C01C0904806D0904906E090F6
:103CB0004A06F0904B0680910C0690910D06A0915B
:103CC0000E06B0910F06C82AD92AEA2AFB2ACFE1AC
:103CD000D0E0D701C6010C2E04C0B695A7959795E4
:103CE00087950A94D2F780FD04C0219790F7B12CF4
:103CF00007C0BC2EB8018C2F0E946F120197A9F348
:103D00008B2DDF91CF911F910F91FF90EF90DF905E
:103D1000CF90BF900895CF93DF93EC010E94491E8E
:103D2000BE010E946F12DF91CF9108950E948B1EF9
:103D3000292F2F70E92FE295EF704E2F50E0FA01F6
:103D40003297EE30F105B8F4E257FF4F0C94C42BD4
:103D5000803F99F018F4883E70F40FC0843F59F406
:103D60000CC0883E50F0813F31F407C0822F869509
:103D700086958695089580E0089581E008952FE066
:103D8000929F800D1124682F669566956695982FF1
:103D9000977085E0689FB001112440E050E080E01A
:103DA000FB01E40FF51FEB52FA4F208130E0092EA2
:103DB00002C0369527950A94E2F721703327042E26
:103DC00001C0220F0A94EAF7822B4F5F5F4F453004
:103DD000510531F708952FE0929F800D1124E82FAF
:103DE000E695E695E695877051E001C0550F8A95F6
:103DF000EAF785E0E89FF0011124EB52FA4F20E04A
:103E000030E070E04081CB01022E02C0969587958C
:103E10000A94E2F781708195842785238427819312
:103E20002F5F3F4F2530310569F7089560934806AD
:103E30007093490680934A0690934B060C94291E72
:103E40000F931F9341E050E060E070E004C0440F26
:103E5000551F661F771F8A95D2F74095509560953C
:103E600070958091480690914906A0914A06B091BC
:103E70004B068A019B01082319232A233B23C901EE
:103E8000B8011F910F910C94161F20910706809581
:103E9000822380930706982F977041F430E0482FD3
:103EA000082E000C550B2417350721F49091A1031F
:103EB00092FF07C08595859585950E94201F1092D9
:103EC000070608950F931F9341E050E060E070E013
:103ED00004C0440F551F661F771F8A95D2F7809143
:103EE000480690914906A0914A06B0914B068A0176
:103EF0009B01082B192B2A2B3B2BC901B8011F91C1
:103F00000F910C94161F60930C0670930D0680930E
:103F10000E0690930F060C94291E8091D405909163
:103F2000A305891719F08F5F8770FBCF08950F9352
:103F30001F93CF93DF938091A20582958F7009F034
:103F40005DC080919F05882309F458C08091D405F5
:103F50001091A30560919D0570919E05C091A005EB
:103F6000D091A10591E06F3F09F090E0292F06E084
:103F7000811709F443C0209721F07F3F21F030E002
:103F800003C031E001C0322F90E030FD34C0089F03
:103F9000F001099FF00D1124DF01AC55BA4F1196C5
:103FA0003C911197371327C03C91361324C01296C9
:103FB0003C91129731111FC013964D915C9114974B
:103FC0004C1B5D0B483C5105B0F48091A2058F70ED
:103FD00080618093A205E755FA4F80818F708061E0
:103FE00080838DE995E00E943515DF91CF911F9177
:103FF0000F910C948D1F01968770BACFDF91CF91EE
:104000001F910F9108959F92AF92BF92CF92DF922E
:10401000EF92FF920F931F93CF93DF93CDB7DEB74D
:1040200061970FB6F894DEBF0FBECDBF8C0185E05F
:10403000F801DE011D9601900D928A95E1F7F801D5
:1040400090818181E28030919D0560919E05409133
:10405000A0055091A1054115510531F06F3F31F494
:1040600021E03F3F19F403C021E001C020E0F22F1E
:10407000F1709F2E20FD23C1F801C380D4802DE96B
:10408000A22E25E0B22EF0909F05F601E41BF50B61
:10409000FF2009F4CEC02091A205E83CF10508F00C
:1040A00099C0422F407F09F051C0681311C03913E5
:1040B0000FC0FE2CE1100CC02F7020612093A205D0
:1040C000C5010E9435158091A205F801858337C18D
:1040D000CD2831F08F3F31F421E09F3F19F403C028
:1040E00021E001C020E020FD03C021E02E2502C018
:1040F00020E030E0F22FF170FF2E20FF1DC0209154
:10410000D4054091A30556E0241709F4F6C030E029
:10411000529FF001539FF00D1124EC55FA4F61812D
:10412000861306C06081961303C06281E61204C044
:104130002F5F3F4F2770E8CFFE2CEE2009F4FFC021
:104140008091A20581608093A20550C0681307C0CA
:10415000391305C0E11003C0F80125838DC09D8788
:104160008E878D859E850E94961E882369F1EE209C
:1041700059F12091A205822F82958F7090E00297CD
:1041800074F080919D0590919E0598878F83198684
:10419000DB86CA862C87CE0107960E94351586E0FD
:1041A000F801ADE9B5E001900D928A95E1F70E9422
:1041B000971F0DC06817E1F09D878E878D859E85BE
:1041C0000E94961E81111EC0C8010E943515FF2451
:1041D000F394B5C0422F407F69F78DE995E00E94C6
:1041E000351586E0F50111928A95E9F7F12CA7C003
:1041F0003913E2CFE110E0CFF8012583C8010E9416
:10420000351557C0EE2001F32091A205822F82952B
:104210008F7090E002971CF280919D0590919E0511
:104220009A8389831B82DD82CC822E83CE01019604
:10423000B4CFE83CF105E8F5FE2CEE2029F2681336
:1042400027C0391325C02091A20520FD18C0822F58
:1042500082958F70482F50E04115510581F0F8018B
:1042600025834F30510541F08F5F982F9295907FB5
:10427000822F8F70892B8583C8010E94351586E0B7
:10428000F801ADE9B5E001900D928A95E1F757C0CC
:104290009D878E878D859E850E94961E81117FCF7A
:1042A0008091A20581608093A205C8010E94351506
:1042B00046C086E0F50111928A95E9F740C0EE20EC
:1042C00009F482CF9D878E878D859E850E94961EDC
:1042D000F82E882309F478CF86E0F801ADE9B5E03F
:1042E00001900D928A95E1F780919D0590919E0530
:1042F0000E948B1E0E94971F22C09D878E878D85EE
:104300009E850E948B1E292F22952F70223028F423
:104310009F7039F0811105C00BC0243028F49F70C4
:1043200049F4805E883020F0C8010E9435159F2C2A
:10433000F92C05C0F8019581907F99F7F9CF8F2D61
:1043400061960FB6F894DEBF0FBECDBFDF91CF915F
:104350001F910F91FF90EF90DF90CF90BF90AF90A3
:104360009F90089510920A0680911001882331F0E1
:104370008091A00387FF02C08EE101C086E0EFE7D5
:10438000F5E0DF011D928A95E9F70C94291E0F9341
:104390001F938091480690914906A0914A06B091DA
:1043A0004B068C019D010670112722273327BC0183
:1043B000CD01063011052105310511F4686001C0F9
:1043C000677F1F910F910C94161F90914206937076
:1043D00089F0811102C0946007C0893110F09066A5
:1043E00003C0880F880F982B9093420610921401F7
:1043F0000C94821008956F927F928F929F92AF9249
:10440000BF92CF92DF92EF920F931F93CF93DF93E0
:104410003C01C0911101CC0FCC0FD4E0DC0FD4349F
:1044200008F0D3E460914606669580913E0690912F
:104430003F060E945611182FCD1708F044C08C2E4D
:10444000912CF401E05EFC4F908180911201892350
:10445000C1F1F401EE0FFF1FE656FD4FC080D12CD5
:1044600080E7C81AD108F401EE0FFF1FE556FD4F93
:10447000A080B12CE0E2AE1AB108CC9C9001CD9C9A
:10448000300D300D1124AA9CC001AB9C900D900DF5
:104490001124820F931F0E94FC10082F6091430685
:1044A0007091440680914506E12E9501A601F30125
:1044B00009950E946011462F282F672FC4010E9482
:1044C0008010CF5FB9CF81E0D33408F080E0DF9176
:1044D000CF911F910F91EF90DF90CF90BF90AF9051
:1044E0009F908F907F906F900895CF92DF92EF9280
:1044F000FF920F931F93CF93DF936C01C091110133
:10450000CC0FCC0FD4E0DC0FD43408F0D3E46091AE
:104510004606669580913E0690913F060E94561190
:10452000182FCD1778F5EC2EF12CF701E05EFC4F3B
:10453000908180911201892319F1F701EE0FFF1F7D
:10454000E556FD4F208130E020523109F701EE0F92
:10455000FF1FE656FD4F408150E0405751096091E2
:1045600043067091440680914506012FF601099596
:104570000E946011462F282F672FC7010E948010CC
:10458000CF5FCFCF81E0D33408F080E0DF91CF91CF
:104590001F910F91FF90EF90DF90CF900895DF92E1
:1045A000EF92FF920F931F93CF93DF937C01C09103
:1045B0001101CC0FCC0FD4E0DC0FD43408F0D3E4DD
:1045C000609146066695669580913E0690913F06FD
:1045D0000E945611D82ECD17F0F40C2F10E0F801E0
:1045E000E05EFC4F908180911201892391F06091EF
:1045F000430670914406809145062D2D4C2FF701FE
:1046000009950E946011462F282F672FC8010E942C
:104610008010CF5FE0CF81E0D33408F080E0DF91FD
:10462000CF911F910F91FF90EF90DF9008959F928F
:10463000AF92BF92CF92DF92EF92FF920F931F93B0
:10464000CF93DF936C01C0911101CC0FCC0FD4E05C
:10465000DC0FD43408F0D3E4609146066695669585
:1046600080913E0690913F060E945611182F80E4DB
:10467000810F0E94B71090E8F92EF80E812F0E944A
:10468000B71020E8922E980ECD1700F5AC2EB12C65
:10469000F501E05EFC4F9081809112018923A1F029
:1046A000609143067091440680914506E12E0C2FDF
:1046B000292D4F2DF60109950E946011462F282FB4
:1046C000672FC5010E948010CF5FDECF81E0D33419
:1046D00008F080E0DF91CF911F910F91FF90EF9054
:1046E000DF90CF90BF90AF909F9008959091420639
:1046F000937041F0809343066093440640934506CF
:104700000C9482100895EF92FF920F931F93CF9312
:10471000DF937C018B010E94E426811119C0E7011F
:1047200001151105A1F08091E80085FD0AC0809176
:10473000E8008E778093E8000E94E426882381F3C6
:1047400007C089918093F10001501109E9CF80E001
:10475000DF91CF911F910F91FF90EF9008951F93DC
:10476000CF93DF93CDB7DEB7AA970FB6F894DEBF2D
:104770000FBECDBFE6E3F6E08091F100819346E005
:10478000EE33F407C9F780913706833009F462C02D
:1047900030F4813071F0823009F49CC0B3C08A30AB
:1047A00009F488C08B3009F46DC0893009F0AAC0C3
:1047B00020C080913606813A09F0A4C08091E800BB
:1047C000877F8093E80080913A0690913B06892B81
:1047D00021F460E282E196E003C060E080E090E0D6
:1047E00070E00E94A1288091E8008B778093E80018
:1047F00089C080913606813209F084C080913A06E2
:1048000090913B06009719F0029709F07BC08091C8
:10481000E800877F8093E8008091E80082FD05C072
:10482000809134068111F8CF6DC02091F300809102
:10483000F20090E0922B029729F48091F1008B7F97
:10484000813021F48091F100809311068091E8007D
:104850008B7754C080913606813A09F053C080911D
:104860003A0690913B06892B09F04CC08091E800F4
:10487000877F8093E8008091E80080FFFCCF8091E3
:10488000100137C0809136068132E1F580913A06F9
:1048900090913B06892BB1F58091E800877F80934A
:1048A000E8000E94172780913806809310010E942B
:1048B000B22128C080913606813221F58091E8002E
:1048C000877F8093E8000E941727809139068093A4
:1048D000100618C080913606813AA1F48091E80054
:1048E000877F8093E8008091E80080FFFCCF809173
:1048F00010068093F1008091E8008E778093E800A5
:104900000E9417278091E80083FFDDC18091360661
:1049100090913706492F50E04A30510508F0D3C135
:10492000FA01E456FF4F0C94C42B803821F08238F2
:1049300009F0C9C108C080913206909133069923CD
:1049400089F082600FC080913A068F70873008F03E
:10495000BAC18093E9008091EB0085FB882780F93C
:104960001092E9009091E800977F9093E80080937F
:10497000F1001092F10070C1282F2D7F09F0A3C122
:10498000882319F0823061F09EC180913806813011
:1049900009F099C1933009F080E0809333062EC06E
:1049A0008091380681112AC080913A068F702FEFCE
:1049B000280F263008F087C18093E9002091EB0092
:1049C00020FF1CC0933021F48091EB00806214C062
:1049D0009091EB0090619093EB0021E030E0A90111
:1049E00002C0440F551F8A95E2F74093EA001092E7
:1049F000EA008091EB0088608093EB001092E90060
:104A00008091E800877F8093E8000E9417275BC1B0
:104A1000811159C1109138061F778091E300807889
:104A2000812B8093E3008091E800877F8093E800EA
:104A30000E9417278091E80080FFFCCF8091E3005F
:104A400080688093E300111102C082E001C083E01E
:104A50008093340638C18058823008F034C12091E8
:104A60003806309139062C3D53E0350779F583E05F
:104A70008A838AE289834FB7F894DE01139620E097
:104A80003EE051E2E32FF0E050935700E49120FF25
:104A900003C0E295EF703F5FEF708E2F90E0EA3039
:104AA00010F0C79601C0C0968D939D932F5F24315F
:104AB00049F74FBF8091E800877F8093E8006AE262
:104AC00070E0CE0101960E94A128B4C080913A0600
:104AD00090913B06432F552743305105A9F068F4C8
:104AE0004130510509F4FEC04230510509F0EBC0D8
:104AF0008BE590E0E3E2F6E04BC04132510529F14D
:104B00004232510589F1DFC0C901992781309105F1
:104B1000A1F058F0029709F0D6C0E0E9F6E0E49180
:104B20008E2F90E0E0E9F6E030C0EEEAF6E0E491A6
:104B30008E2F90E0EEEAF6E028C0ECE9F6E0E49192
:104B40008E2F90E0ECE9F6E020C08330910508F06C
:104B5000BAC0880F991FFC01E75BFD4F0190F081FF
:104B6000E02D89E090E014C08330910508F0ABC0DF
:104B7000FC01EE0FFF1FED5BFD4F0190F081E02D7A
:104B8000DC01A05CBD4F8C9190E0009709F49BC0C4
:104B90002091E800277F2093E80020913C06309187
:104BA0003D062817390708F4C90140E0009789F14C
:104BB00020913406222309F43DC02530D9F12091FB
:104BC000E80023FD37C02091E80022FD2FC020918E
:104BD000E80020FFEBCF4091F3002091F20030E09D
:104BE000342B009759F02830310540F4449140931C
:104BF000F100319601972F5F3F4FF3CF41E028300E
:104C0000310509F040E02091E8002E772093E8007C
:104C1000CDCF4111CDCF0AC080913406882351F009
:104C2000853041F08091E80083FD04C08091E80068
:104C300082FFF2CF8091E8008B778093E80043C039
:104C4000803809F040C08091E800877F8093E800B9
:104C5000809135068093F1008091E8008E77D3CE65
:104C6000811131C0809138069091390699270297B9
:104C700054F58091E800877F8093E8001091380612
:104C8000109335060E941727111106C08091E3008A
:104C900087FD02C081E001C084E08093340642E0D9
:104CA00061EC81E00E94362742E261EC84E00E94E0
:104CB000362742E261EC82E00E94362742E260EC55
:104CC00083E00E9436278091E80083FF10C0809126
:104CD000E800877F8093E8008091EB0080628093FA
:104CE000EB0005C082E190E0EEE7F6E051CFAA9636
:104CF0000FB6F894DEBF0FBECDBFDF91CF911F91ED
:104D000008951F920F920FB60F9211242F933F9385
:104D10004F935F936F937F938F939F93AF93BF93C3
:104D2000CF93DF93EF93FF93C091E900CF70809111
:104D3000EC00D82FD17080FDD0E81092E90080916E
:104D4000F000877F8093F00078940E94AF23109248
:104D5000E9008091F00088608093F000CD2BCF7047
:104D6000C093E900FF91EF91DF91CF91BF91AF9197
:104D70009F918F917F916F915F914F913F912F9173
:104D80000F900FBE0F901F901895E8EDF0E0808116
:104D90008E7F80831092E2001092DA001092E10080
:104DA000A0EEB0E08C9181608C9380818F778083BE
:104DB00019BCA7EDB0E08C918E7F8C9380818F7EA3
:104DC000808310924C0608952091E4003091E50014
:104DD00095E64091EC00842F817040FF23C08091C4
:104DE000E80080FD1DC080913406882399F085304D
:104DF00099F08091EB0085FD11C04091E400509145
:104E0000E5002417350729F3915011F09A01E1CFFD
:104E100084E0089582E0089583E0089581E0089594
:104E200080E008954091E80042FFDDCF0895809131
:104E3000360687FF11C08091E80082FD05C0809191
:104E400034068111F8CF11C08091E8008B770BC038
:104E500080913406882349F08091E80080FFF8CFE4
:104E60008091E8008E778093E8000895982F97301E
:104E700068F59093E900981739F07091EC00209153
:104E8000ED005091F00003C0242F762F50E021FD5B
:104E900002C09F5FECCF3091EB003E7F3093EB0080
:104EA0003091ED003D7F3093ED003091EB003160AB
:104EB0003093EB007093EC002093ED005093F000E2
:104EC0002091EE0027FDE5CF80E008958F7080935C
:104ED000E90081E00895CF92DF92EF92FF920F9365
:104EE0001F93CF93DF93C8EDD0E088818F7E8883B6
:104EF000E7EDF0E080818160808384E082BF81E023
:104F000080934C0688818E7F888302EE10E0F80142
:104F100010821092DA0081EEC82ED12CF601108298
:104F200088818F77888388818068888388818F7D56
:104F3000888319BC109234061092350610923306FD
:104F40001092320690EEE92EF12CF70180818B7FD2
:104F5000808388818160888342E060E080E00E94F5
:104F60003627F60180818E7F8083F8018081816001
:104F70008083808188608083F70180818E7F808339
:104F8000888180618883DF91CF911F910F91FF907D
:104F9000EF90DF90CF9008951F920F920FB60F926F
:104FA00011242F933F934F935F936F937F938F932E
:104FB0009F93AF93BF93EF93FF938091E10082FFA4
:104FC00009C08091E20082FF05C08091E1008B7FE3
:104FD0008093E1008091DA0080FF2AC08091D800A0
:104FE00080FF26C08091DA008E7F8093DA00809166
:104FF000D90080FF18C080E189BD82E189BD09B474
:1050000000FEFDCF81E08093340680914C06811133
:105010000FC00E94C5260E946B278091E200846029
:105020008093E20005C019BC1092340610924C0621
:105030008091E10080FF17C08091E20080FF13C0E3
:105040008091E2008E7F8093E2008091E200806197
:105050008093E2008091D80080628093D80019BCD0
:1050600085E0809334068091E10084FF2EC080911A
:10507000E20084FF2AC080E189BD82E189BD09B4D4
:1050800000FEFDCF8091D8008F7D8093D800809165
:10509000E1008F7E8093E1008091E2008F7E80931B
:1050A000E2008091E20081608093E2008091350609
:1050B000882311F084E007C08091E30087FD02C0DF
:1050C00081E001C083E0809334068091E10083FF9A
:1050D00027C08091E20083FF23C08091E100877F99
:1050E0008093E10082E0809334061092350680912F
:1050F000E1008E7F8093E1008091E2008E7F8093BB
:10510000E2008091E20080618093E20042E060E092
:1051100080E00E9436278091F00088608093F00044
:10512000FF91EF91BF91AF919F918F917F916F917F
:105130005F914F913F912F910F900FBE0F901F9055
:10514000189520913C0630913D062617370748F008
:105150006115710539F42091E8002E772093E8005D
:1051600001C0B901FC0120E06115710579F1809160
:1051700034068823F1F18530F1F18091E80083FD58
:105180003CC08091E80082FD2EC08091E80080FF45
:10519000EBCF2091F3008091F20090E0922B61150B
:1051A000710551F08830910538F421912093F10078
:1051B000615071090196F3CF21E0089709F020E0D2
:1051C0008091E8008E778093E800CECF2111CFCF79
:1051D0000AC080913406882361F0853061F08091A7
:1051E000E80083FD0AC08091E80082FFF2CF80E0F2
:1051F000089582E0089583E0089581E0089588236A
:1052000041F0809590910A06892380930A060C94B8
:10521000E31D0895882339F090910A06892B809325
:105220000A060C94E31D0895882379F19CEF980FEA
:10523000913A30F4682F8DE795E00E94F71C14C076
:1052400090E2980F983090F4877021E030E0A90147
:1052500002C0440F551F8A95E2F7CA0180959091CC
:105260000A06892380930A060C94E31D9BE5980F98
:10527000933020F480E090E00C94DF0F885A87315F
:1052800020F480E090E00C94C90F0895CF93882318
:1052900009F46DC09CEF980F913AC8F5C82F809122
:1052A00010018823E1F08091A00387FF18C0EC2F44
:1052B000E695E695E695F0E0E358FA4F8281282FCF
:1052C00030E04C2F477081E090E002C0880F991FBA
:1052D0004A95E2F782239323892B61F412C0EFE70A
:1052E000F5E085E895E02191C21721F08E179F0720
:1052F000D1F707C06C2F8DE795E00E94F71C0E9444
:10530000E31D6C2F8DE795E00E941F1D13C090E2F6
:10531000980F983090F4877021E030E0A90102C026
:10532000440F551F8A95E2F7CA0190910A06892B0E
:1053300080930A06CF910C94E31DEBE5E80FE33070
:1053400040F4F0E0ED59FC4F808190E0CF910C9457
:10535000DF0F885A873158F4E82FF0E0EE0FFF1F77
:10536000EA59FC4F80819181CF910C94C90FCF9164
:1053700008951F93CF93DF93182F893319F0C0E05E
:10538000D0E002C0C0E5D0E0812F0E9446292097DE
:1053900041F08FE99FE00197F1F700C000002197ED
:1053A000F6CF812FDF91CF911F910C941429109289
:1053B000B9008CE08093B8000895EF92FF920F93AC
:1053C0001F93CF93DF93182FEB011092BC0084EA58
:1053D0008093BC000E94C21C7C018091BC0087FDB0
:1053E0000EC0CF3F8FEFD807C1F30E94C21C8E19A9
:1053F0009F098C179D0788F38EEF9FEF2EC0809139
:10540000B900887F883041F08091B900887F803171
:1054100019F08FEF9FEF21C01093BB0084E88093B9
:10542000BC000E94C21C8C018091BC0087FD0CC096
:10543000CF3F8FEFD807C1F30E94C21C801B910B96
:105440008C179D0788F3D8CF8091B900887F883169
:1054500011F08034F1F680E090E0DF91CF911F9160
:105460000F91FF90EF9008950F931F93CF93DF93C9
:10547000EB018093BB0084E88093BC000E94C21CB7
:105480008C018091BC0087FD0EC0CF3F8FEFD80705
:10549000C1F30E94C21C801B910B8C179D0788F3DF
:1054A0008EEF9FEF0CC02091B900287F81E090E043
:1054B000283211F480E090E0919581959109DF9177
:1054C000CF911F910F910895CF92DF92EF92FF92AB
:1054D0000F931F93CF93DF936B018A017901B90179
:1054E0000E94DD29E6010C0D1D1DC017D10761F4D6
:1054F00024E92093BC00DF91CF911F910F91FF9081
:10550000EF90DF90CF90089597FDF2CFB70189918A
:105510000E94342AEACF8F929F92AF92BF92CF928D
:10552000DF92EF92FF92CF93DF93EC016881798154
:105530008A819B81611571058105910521F464E2E1
:1055400079ED8BE597E02DE133EF41E050E00E94EB
:10555000392B49015A019B01AC01A7EAB1E40E9431
:10556000582B6B017C01ACEEB4EFA50194010E94B5
:10557000662BDC01CB018C0D9D1DAE1DBF1DB7FF41
:1055800003C00197A109B04888839983AA83BB838C
:105590009F77DF91CF91FF90EF90DF90CF90BF90FA
:1055A000AF909F908F9008950E948B2A089580E07D
:1055B00091E00E948B2A0895A0E0B0E08093000162
:1055C00090930101A0930201B09303010895DC01BF
:1055D000CB01FC01F999FECF06C0F2BDE1BDF89AFE
:1055E000319600B40D9241505040B8F70895F999A2
:1055F000FECF92BD81BDF89A992780B50895A8E1A4
:10560000B0E042E050E00C94E92ADC01A40FB51FA1
:105610004150504048F0CB01840F951F2E910E94BD
:10562000162B41505040D0F70895262FF999FECF00
:1056300092BD81BDF89A019700B4021639F01FBAE5
:1056400020BD0FB6F894FA9AF99A0FBE0895039602
:10565000272F0E94162B0E94152B252F0E94162BF8
:10566000242F0C94162B0196272F0E94162B0C9496
:10567000152B052E97FB1EF400940E94502B57FD0E
:1056800007D00E946B2B07FC03D04EF40C94502BD8
:1056900050954095309521953F4F4F4F5F4F08955E
:1056A00090958095709561957F4F8F4F9F4F08958E
:1056B0000E948D2BA59F900DB49F900DA49F800DEF
:1056C000911D11240895B7FF0C94582B0E94582B5C
:1056D000821B930B0895A1E21A2EAA1BBB1BFD018E
:1056E0000DC0AA1FBB1FEE1FFF1FA217B307E407C1
:1056F000F50720F0A21BB30BE40BF50B661F771F19
:10570000881F991F1A9469F76095709580959095F8
:105710009B01AC01BD01CF010895A29FB001B39FD1
:10572000C001A39F700D811D1124911DB29F700DAA
:10573000811D1124911D0895AA1BBB1B51E107C0B7
:10574000AA1FBB1FA617B70710F0A61BB70B881F11
:10575000991F5A95A9F780959095BC01CD010895A0
:1057600097FB072E16F4009407D077FD09D00E940E
:105770009C2B07FC05D03EF4909581959F4F089592
:10578000709561957F4F0895EE0FFF1F0590F4917E
:10579000E02D099469279627692778278727782796
:1057A0000895FB01DC0102C001900D924150504070
:0857B000D8F70895F894FFCF2B
:1057B80001000000FFFFEC1B2B1CEB1B271C231C0C
:1057C8000100FF000300FFFFF0363534976667F7E6
:1057D800F6F5F4F1303132333792939500313129AF
:1057E8005A1B750A00344454002445550025355683
:1057F8000026364600273747002838480029394907
:10580800003242520031415100304050002F3F4F8A
:10581800002E3E4E002D3D5E002C4D5D003C4C5C44
:1058280000A7978700A6968600A5958500A494846E
:10583800002B3B4B002A3A4A0033435300AC9C8C64
:1058480000AD9D8D00AE9E8E00AF9F8F00B0A090E2
:1058580000B1A19100B2A28100B3928200A89888F9
:1058680000A9998900AA9A7900AB8A7A009B8B7B58
:105878000134445401324252013141510130405007
:10588800012F3F4F012E3E4E012D3D5E012C4D5DF7
:1058980000A393830129394901283848012737474C
:1058A8000126364601253556012445550133435313
:1058B80001AC9C8C01AD9D8D01AE9E8E01AF9F8F7A
:1058C80001B0A09001B1A191013C4C5C012A3A4A77
:1058D800012B3B4B01A4948401A5958501A69686CE
:1058E80001A7978701B2A28101B3928201A3938392
:1058F80040226DE305C105540535064E066E0600C7
:105908000102030405060708090A0B0C0D0E0F1007
:105918001112131415161718191A1B1C1D1E1F20F7
:10592800212223242526272829FF2A2B2C2D2E2F18
:1059380030313233343536373839FF3AFF3B3CFFA4
:105948003DFF3EFF3FFFFF404142040112011F009F
:105958002E033B054907560A6B097907860494020A
:10596800A200B002C402E000050F160F250F321185
:1059780040144D166717751582138F109E0FAB10C4
:10598800BA10CA10E010041C171C261D331F412230
:105998004E246D247A228820961DA41DB11DC81D91
:1059A800E01D052A1B2A2A2B372E4530523368332F
:1059B8007630832E912C9F2BAD2BC02BD62E003703
:1059C800283A3E3D5640773E933AC93CD63CE03CA7
:1059D8000104040404040404040404040404040482
:1059E800040404040404040404040404040404046F
:1059F800040404040404040404040404040404045F
:105A08000404040404040404040104040401040454
:105A1800010101818283E200E900EA00B500B600D5
:105A2800B700CD008301CC008A01920194012102C4
:105A3800230224022502260227022A02B300B40008
:045A48006F0070007B
:00000001FF
