:100000000C9497030C94DE030C94DE030C94DE0333
:100010000C94DE030C94DE030C94DE030C94DE03DC
:100020000C94DE030C94DE030C9414290C94C92761
:100030000C9455190C94DE030C94DE030C94DE032F
:100040000C94DE030C94DE030C94DE030C94DE03AC
:100050000C94DE030C9408190C94DE030C94DE035C
:100060000C94DE030C94DE030C94DE030C94DE038C
:100070000C94DE030C94DE030C94DE030C94DE037C
:100080000C94DE030C94DE030C94DE030C94DE036C
:100090000C94DE030C94DE030C94DE030C94DE035C
:1000A0000C94DE030C94DE030C94DE0385068E06AE
:1000B000C10606074F0798079B079E07A107A607DB
:1000C000A907AC07AF07B407B907BC07BF07C2074A
:1000D000C507CA070D085108300A330A570A690ACA
:1000E000700A7B0A7E0A820A860A370B370B8A0A55
:1000F0008C0A900ABB0AE30AE60AE90A120BB90E57
:10010000C40EC90ECE0ED30ED80EDD0EE20EE70ED3
:10011000EC0EF10EF80EFA0EFC0EFE0ED90CD90CF8
:10012000D90CD90CD90C5F0F5F0F990F990FEC0FF9
:100130000810971197111510F210FF10FF10D1251C
:10014000F825AB27F825AB2744266726AB27682779
:1001500078275F2A5F2A722A722A682A722A722AEC
:10016000722A5F2A5F2A6D2A722A722A6D2A00007B
:10017000000000000000000000000000000000007F
:10018000000000000000000000000000000000006F
:1001900000007E0F00D4FFFFFFC7000000780000C2
:1001A0000000000000002A2B2800000000000000D2
:1001B00000000000000000000029000000002C1ECC
:1001C0003420212224342627252E362D3738271E89
:1001D0001F202122232425263333362E37381F04AF
:1001E00005060708090A0B0C0D0E0F101112131447
:1001F00015161718191A1B1C1D2F3130232D350405
:1002000005060708090A0B0C0D0E0F101112131426
:1002100015161718191A1B1C1D2F3130354C165C7A
:100220001E001F00200021002200230024002500C2
:10023000260027002D002E002A004A002B00140063
:100240001A000800150017001C0018000C0012000E
:1002500013002F00300031004B00396104001600FC
:10026000070009000A000B000D000E000F0033000C
:100270003400000028004E00E1001D001B000600B5
:100280001900050011001000360037003800E500A5
:10029000000052004D00E000E300E200000000001A
:1002A0002C0000000000E6000151E40050000000B6
:1002B00051004F00165C3A003B003C003D003E0000
:1002C0003F004000410042004300440045004C0014
:1002D0004A000100C25CC35CC55CC65CC75CC85C0C
:1002E000C95CCA5C0100460047004800005C4B0046
:1002F0003961CB5CCC5C0100010001000100010010
:1003000001000100010001000000DE5C4E00E10080
:1003100001000100010001000100145C0100010066
:100320000100010001000000A900A8000100010077
:1003300001000000000001000000000001000100B9
:100340000100AC000000AA00AB00010001000100A8
:100350000100010001000100010001000100010095
:100360000100010001000100010001000100010085
:100370000100010001000100010001000100010075
:100380000100010001000100010001000100010065
:100390000100010001000100010001000100000056
:1003A0000100010001000100010001000100010045
:1003B0000100010001000100010001000000010036
:1003C0000100010001000100000000000100000028
:1003D0000000010001000100010000000100010017
:1003E0000100010001000100010001000100010005
:1003F00001000100010001000100010001000100F5
:1004000001000100010001000100010001000100E4
:1004100001000100010001000100010001000100D4
:1004200001000100010001000100010001000100C4
:1004300001000100000001000100010001000100B5
:1004400001000100010001000100010001000100A4
:100450000100000001000100010001000100000096
:100460000000010000000000010001000100010087
:100470000000010001000001010101010101010171
:100480000202020202020202020303030303030345
:100490000304040404040404050505050506060612
:1004A0000606070707070708080808090909090ACF
:1004B0000A0A0B0B0B0C0C0C0D0D0D0E0E0E0F0F74
:1004C0000F10101111111212131314141515161602
:1004D0001717181819191A1A1B1B1C1D1D1E1E1F71
:1004E0002020212222232424252626272829292AC0
:1004F0002B2C2D2D2E2F30313232333435363738E8
:10050000393A3B3C3D3E3F404142434445464748E3
:10051000494A4C4D4E4F50515354555658595A5BB9
:100520005D5E5F616264656668696B6C6D6F707259
:10053000737577787A7B7D7E8082838587888A8CC5
:100540008E8F91939596989A9C9EA0A2A3A5A7A9F9
:10055000ABADAFB1B3B5B7BABCBEC0C2C4C6C9CBF0
:10056000CDCFD1D4D6D8DBDDDFE2E4E7E9EBEEF0A6
:10057000F3F5F8FAFDFF05010902A1018502090161
:10058000A100050919012905150025019505750129
:100590008102950175038101050109300931158139
:1005A000257F95027508810609381581257F9501FB
:1005B00075088106050C0A38021581257F9501759D
:1005C000088106C0C005010980A101850319012A1F
:1005D000B700150126B700950175108100C0050C04
:1005E0000901A101850419012AA002150126A00212
:1005F000950175108100C005010906A10185050559
:100600000719E029E7150025019508750181020504
:1006100007190029EF1500250195F07501810205E4
:100620000819012905950575019102950175039138
:1006300001C00660FF0961A1010962150026FF00E3
:100640009520750881020963150026FF0095207525
:10065000089102C005010906A101050719E029E773
:100660001500250195087501810295017508810124
:100670000507190029FF150026FF0095067508815A
:100680000005081901290595057501910295017567
:10069000039101C009025B00030100A0FA090400F4
:1006A000000103010100092111010001224000079E
:1006B00005810308000A0904010002030000000983
:1006C00021110100012222000705820320000107F9
:1006D00005030320000109040200010300000009D2
:1006E000211101000122BC000705840320000A1229
:1006F000011001000000085A442114020001020305
:1007000001040330000000100344005A0036003595
:100710000052004700420000000E0344005A0054FB
:1007200000450043004800000004030904001124B0
:100730001FBECFEFDAE0DEBFCDBF04B603FE27C099
:100740008091600690916106A0916206B091630667
:100750008730904BA740B04BD1F4109260061092B6
:100760006106109262061092630614BE84B7877FFA
:1007700084BF0FB6F894A89580916000886180933B
:100780006000109260000FBEE0E0F8E3099513E00E
:10079000A0E0B1E0E2E2FBE502C005900D92AC39C9
:1007A000B107D9F726E0ACE9B3E001C01D92A0364D
:1007B000B207E1F70E94E0030C948F2D0C94000027
:1007C000CF93DF93CDB7DEB7E4970FB6F894DEBFD3
:1007D0000FBECDBF84B7877F84BF0FB6F894A895AE
:1007E00080916000886180936000109260000FBE6D
:1007F00090E080E80FB6F8948093610090936100D8
:100800000FBE85B7806885BF85B7806885BF88E4DF
:1008100098E190939D0380939C030E940D280E9471
:10082000B3288091E20084608093E2007894809104
:1008300046068823A1F01091E9001F709091EC000A
:10084000892F817090FD80E8182B1092E90080912B
:10085000E80083FD0E94EB241F701093E90082E002
:1008600084BD93E095BD9AEF97BD80936E0080EFB5
:100870000E946B2081EF0E946B2084EF0E946B200E
:1008800086EC0E946B2086E60E946B200DE111E051
:100890003CE2E32E31E0F32ED8018D918D010E94D0
:1008A0006B20E016F106C1F7EEE9F3E088EA93E089
:1008B000AEE1B4E0119211921D921D928E179F0726
:1008C000C9F70E943B22EFEBFDE53197F1F700C03D
:1008D00000000E943B2280911E0480FF17C06FEF32
:1008E00082E290E00E94CA2C6FEF83E290E00E94C7
:1008F000CA2C6FEF84E290E00E94CA2C6FEF7FEF6A
:1009000080E090E00E94E82C0E94E41880E090E0F3
:100910000E94B42C8B3E9E4F11F00E94E8190E9459
:1009200004141092D703E0EFF3E080E094E02FEF9F
:100930003FEF219331938E179F07D9F71092AA03A7
:10094000E3ECF3E083ED93E02FEF3FEF219331935E
:100950008E179F07D9F780E090E00E94B42C8B3E61
:100960009E4F21F00E94E8190E94BB1745E050E01D
:100970006CE170E084E596E00E949C2C8091540626
:100980008C7F11F40E94BB1782E290E00E94AC2C95
:10099000813281F483E290E00E94AC2C863051F4E5
:1009A00084E290E00E94AC2C91E0813009F090E06C
:1009B000892F01C080E080FF8DC680E090E00E941A
:1009C000B42C8B3E9E4F11F00E94E81982E090E01B
:1009D0000E94AC2C809313040E94D7199093A90312
:1009E0008093A80383E090E00E94AC2C682F70E015
:1009F00080E090E00E94AB1B86E091E090930104C0
:100A000080930004772473948E010F5F1F4FCE01F3
:100A10000B969CA78BA70E943B2281110E943D1937
:100A2000A4E1B4E0EEE1F4E0C12CD12C4C2D819096
:100A300091908D919D9188259925009709F4AEC0DC
:100A4000E12CAA24A394B12C9C012A213B21232B25
:100A500009F49DC0E9A24AA38A209B2081E0811469
:100A6000910409F480E08BA30E9449198160782FDA
:100A70009DA38CA349A15AA16BA18DA10E94A3158E
:100A8000F601EE0FFF1FEC5EFB4F80819181A826DF
:100A9000B926B182A082892889F08FE08C9DF0016F
:100AA0008D9DF00D1124ED5AFD4FEE0DF11D80814D
:100AB0008F3F21F0682EEE24E39401C0E12C90904A
:100AC000AA03CE2CD12CC601890D911D0997A4F142
:100AD000E8E0AE2EB12CAC18BD08B6016F5F7F4FB9
:100AE00066557C4FA5018BEA93E00E94862DB601E6
:100AF000675F7F4F66557C4FA50183EB93E00E94B3
:100B0000862DA501440F551FB601660F771F675E3E
:100B10007F4F66557C4F83EC93E00E94862DB60193
:100B20006F5E7F4F66557C4FA5018BEB93E00E9473
:100B3000862D9A949092AA038091AA0390E0A62D04
:100B4000B0E09D01220F331F22563D4FAA0FBB1F5D
:100B5000BD0161567D4F41E0480F9E15A8F490E01D
:100B6000FC01E655FC4FD9015C915183DB015C919E
:100B70005187618A880F991FFC01E655FC4F128E40
:100B8000118E91E0842FE7CF8093AA031FC0E394D6
:100B9000AA0CBB1C3FE0232EE21056CF2FEFC21A47
:100BA000D20A35E0C316D10409F040CF4FEF4EA36F
:100BB0004FA318A60E9449198160782F9AA789A788
:100BC0004EA15FA168A58AA50E94A3158091D303B9
:100BD0009091D403A091D503B091D6032FB7F89488
:100BE0008090020490900304A0900404B090050447
:100BF0002FBF881A990AAA0ABB0A0E943D1960935E
:100C0000D3037093D4038093D5039093D603A0911C
:100C1000AA03EAEAF3E02A2F30E022242A94322CB5
:100C2000412C512C281839084A085B082DA63EA6ED
:100C30004FA658AAA317B9F0418D528D6A01E12C35
:100C4000F12C2DA43EA44FA458A82C143D044E040E
:100C50005F0410F4215004C0480D591D528F418F7C
:100C60003F5F3296E7CF2093AA0320915E062111C1
:100C700009C020915406322F337021F0E22EE69401
:100C8000E69401C0E12C209114012130F1F038F0FC
:100C9000223009F48DC2233009F497C2B3C21092F6
:100CA0001101609350067093510680935206909301
:100CB000530689E2EAEAF3E0A7EDB3E001900D9272
:100CC0008A95E1F7709214019DC280910501E812A6
:100CD0000DC020915406237030E04091040150E093
:100CE00081E02417350719F480E001C081E08170AC
:100CF000809313014E2D50E04631510508F02EC26D
:100D0000FA01EA5AFF4F0C94792D882309F426C280
:100D100040E060E080E00E94331720C2D0901101D3
:100D2000DD0CDD0C44E0C42ECD0C54E4352E3C1417
:100D300010F434E4C32E60915506709156068091EC
:100D400057060E94AC1EB62EA72E982EDC1490F4E7
:100D5000ED2DF0E0DF01AA5DBC4F8C919091120166
:100D6000982331F0292D4B2D6A2DCF010E94351784
:100D7000D394ECCF81E023E4422E4C1408F0EFC171
:100D8000EDC1D0901101DD0CDD0C84E0C82ECD0C3E
:100D900094E4592E5C1410F4B4E4CB2EA0905606C3
:100DA000B090570690905506692D7A2D8B2D0E9494
:100DB000AC1E862E572E482E60915806690D7A2D4E
:100DC0008B2D0E94AC1EB62EA72E982EDC14B8F4E4
:100DD0008D2D90E0FC01EA5DFC4F308120911201E5
:100DE000232359F030FF04C0292D4B2D6A2D03C059
:100DF000242D482D652D0E943517D394E7CF81E02F
:100E0000A3E4DA2EDC1408F0AAC1A8C1B090110145
:100E1000BB0CBB0CE4E0AE2EAB0CF4E4FF2EFA14DA
:100E200010F474E4A72E8090560650905706209137
:100E3000580660E4962E392D329F312D1124932EC1
:100E4000BA1438F5CB2CD12CF601EA5DFC4F908119
:100E5000809112018923D9F0F601EE0FFF1FE256AF
:100E6000FD4F6081969EB001112455E07595679500
:100E70005A95E1F780915506680F782D852D0E94CF
:100E8000AC1E462F282F672FC6010E943517B3943A
:100E9000D7CF81E043E44A1508F061C15FC1D0902B
:100EA0001101DD0CDD0C34E0C32ECD0C84E48C1577
:100EB00010F424E4C22EA0905506B09056069090EF
:100EC000570660915806669566956695809150061E
:100ED000909151060E94A21E0E94501E805887FDCC
:100EE0008195880F282F392D239F212D1124822FA2
:100EF000B5010E94AC1EB62EA72E982EDC1490F4DD
:100F0000ED2DF0E0DF01AA5DBC4F8C9190911201B4
:100F1000982331F0292D4B2D6A2DCF010E943517D2
:100F2000D394ECCF81E043E44C1508F018C116C10E
:100F30008EE093E108C08BE595E118C08FE395E161
:100F400010C08CE093E10E940B2409C183E093E17F
:100F5000FACF8AEF92E1F7CF8FED92E1F4CF80EDF7
:100F600092E10E943723FBC08AE795E10E94B123FA
:100F7000F6C08EE295E1FACF8AE195E1F2CF82EAFE
:100F800092E105C080E792E102C082E392E10E9413
:100F90005324E5C081111EC06091580620E1620F04
:100FA00008F46FEF80915006909151060E94A21EA6
:100FB0006AE070E00E94512D892B09F0CFC00E9499
:100FC0008C2C64E470E00E94652D609112010E94F7
:100FD0005917C4C0C09011018C2D880F880F94E060
:100FE000992E980E94E4991510F4B4E49B2EC82E13
:100FF000D12CA92CB12CCA14DB044CF46091120141
:10100000C6010E945917AFEFCA1ADA0AF4CF81E07D
:10101000B3E4B91508F0A3C0A1C081111EC060914E
:10102000580620E1620F08F46FEF8091500690910E
:1010300051060E94A21E65E070E00E94512D892B8E
:1010400009F08CC00E948C2C64E470E00E94652D35
:10105000609112010E94371781C0C09011018C2D40
:10106000880F880FA4E09A2E980EE4E4E91510F496
:10107000F4E49F2EC82ED12CA92CB12CCA14DB0469
:101080004CF460911201C6010E943717FFEFCF1A8E
:10109000DF0AF4CF81E0E3E42E2E291408F05FC0CC
:1010A0005DC090901101990C990C64E0862E890C1A
:1010B00074E4372E381410F454E4852E2091580629
:1010C00030E040E050E06FEF7FEF80E090E00E9482
:1010D000EE2C69019814E8F5A92CB12CF501EA5D14
:1010E000FC4F908180911201892389F19091D7035F
:1010F000915097FD15C0292F092E000C330BF901D3
:10110000E952FC4F81899812F3CF220F331FF90166
:10111000E952FC4F218D328D2C153D0548F701C059
:10112000960160915806C9010E94A21EAC0160910F
:10113000550670915606809157060E94CC170E9462
:10114000AC1E462F282F672FC5010E943517939498
:10115000C1CF81E093E4492E481408F480E09091D7
:1011600011019F5F90931101811114C082E080935F
:1011700014018091130181110DC0EE2011F1E09155
:101180000004F0910104309741F00190F081E02DCE
:10119000099504C0EE20B1F1F2CF80E081FF32C0AA
:1011A0002FEF4FEF6FEF8EE190E00E9435172AC0CE
:1011B000E0920501809154068370809304010E949F
:1011C0005F1383E0809314011DC04091500650913D
:1011D000510660915206709153062FB7F894809192
:1011E000020490910304A0910404B09105042FBF60
:1011F000841B950BA60BB70B4A97A105B10510F000
:101200001092140186E0ECE0F4E0D80101900D9218
:101210008A95E1F7E0900E04D0900F04C09010047E
:10122000B090110410920E0410920F04109210044A
:1012300010921104E11003C0DD2009F44FC0809129
:101240000A0490910B040E942E199C0190910904AC
:10125000992309F458C22333310508F43FC09F3F56
:1012600019F09F5F90930904EE2061F00E94E31F44
:101270001E1414F491E001C09FEF899F802D11246A
:1012800080930E04DD2061F00E94E31F1D1414F40E
:1012900091E001C09FEF899F802D112480930F045E
:1012A00030910E043323D1F020910F042223B1F0AA
:1012B00045EB3403C0011124992319F090930E04D7
:1012C00002C070920E0435EB2303C0011124992350
:1012D00019F090930F0402C070920F04C11003C064
:1012E000BB2009F44FC080910704909108040E942C
:1012F0002E199C0190910604992309F409C2253600
:10130000310508F43FC09F3F19F09F5F909306049A
:10131000CC2061F00E94C11F1C1414F491E001C0A4
:101320009FEF899F802D112480931004BB2061F0D2
:101330000E94C11F1B1414F491E001C09FEF899F0C
:10134000802D112480931104309110043323D1F0A7
:10135000209111042223B1F045EB3403C001112484
:10136000992319F09093100402C07092100435EB89
:101370002303C0011124992319F09093110402C092
:101380007092110480910E0481110BC080910F04A2
:10139000811107C080911004811103C08091110454
:1013A00081110E941122EB82DC82CD82BE8286E016
:1013B000F801ACE0B4E001900D928A95E1F70E944B
:1013C0006D1690911204891721F00E946D1680937A
:1013D000120480914606843009F01DCB83E080938F
:1013E000E9008091E80082FF16CB8091E80085FF3C
:1013F00021C00E942C2881111BC080E2C82ED12C54
:10140000580109C08091F100D5018D935D01B1E0D3
:10141000CB1AD10869F08091E80085FDF3CF809167
:10142000E8008B778093E8000E942C28882399F3AA
:1014300091E001C090E08091E8008B778093E80014
:10144000992309F4E8CAE9818E2F90E0FC013197D5
:10145000E331F10508F00BC1E459FF4F0C94792DED
:101460001A8289E05BC08A81823009F42AC1833004
:1014700049F08130C1F40E943D199B838C837D83A8
:101480006E83F7C0F801AEE1B4E08C9111969C91A7
:10149000119712969283838332962BA43CA42E1626
:1014A0003F0699F7E6C033243A943982E2C08A8134
:1014B000823059F46B817C818D819E810E947F2DC9
:1014C00085E290E00E94CA2CD4C044244A94498208
:1014D000D0C04C816B818A810E94F2169D83F8C036
:1014E0002D813E813227232732274C816B818A81CF
:1014F0000E948916BEC00E94B316BBC055245A94E0
:101500005982B7C0CC24CA94C982B3C0DD24DA940E
:10151000D982AFC080E15BC07A8282E88B83A9C0A8
:10152000CA80DB80DC24CD24DC248C80912C2DE14E
:101530008216910408F09DC05801C60182589D4F43
:101540009501201B310B2815390508F092C032E8AF
:10155000C31631E0D30630F40E94AC2CD5011496AA
:101560008C9302C0F5011482FFEFCF1ADF0A2FEF30
:10157000A21AB20AE2CFCA80DB80DC24CD24DC24AC
:10158000AC80B12C3DE1A316B10408F072C0480153
:10159000C60182589D4F9401201B310B2A153B0533
:1015A00008F067C042E8C41641E0D40628F4D4012C
:1015B00014966C910E94CA2CBFEFCB1ADB0AEFEF96
:1015C0008E1A9E0AE5CF0E94791653C084E08A8362
:1015D00050C0CA80DB80DC24CD24DC248C80912C9C
:1015E000FDE18F16910408F044C05801C6018696AB
:1015F0009501201B310B28153905D8F528E5C216B1
:1016000022E0D20630F40E94AC2CD50114968C93C3
:1016100002C0F5011482FFEFCF1ADF0A2FEFA21AE2
:10162000B20AE4CFCA80DB80DC24CD24DC24AC8089
:10163000B12C3DE1A316B104E0F44801C601869641
:101640009401201B310B2A153B0598F448E5C4167C
:1016500042E0D40628F4D40114966C910E94CA2C5E
:10166000BFEFCB1ADB0AEFEF8E1A9E0AE7CFFFEF30
:10167000F98380914606843009F0CDC98091E90054
:101680008F702091EC00922F917020FD90E8E92E50
:10169000E82A82E08093E9008091E80080FF0CC096
:1016A00040E050E060E270E0C8010E94BF248091F9
:1016B000E8008E778093E8008E2D8F708093E9008C
:1016C000AAC985E290E00E94AC2C1B821C821D827C
:1016D0008E83CFCF60E085E290E00E94CA2C0E940A
:1016E000B3160E94791661E282E290E00E94CA2C51
:1016F00066E083E290E00E94CA2C61E084E290E020
:101700000E94CA2C5AC92D32314008F0AACDE6CD2C
:101710002D32314008F0F9CD35CE3F924F925F9295
:101720006F927F928F929F92AF92BF92CF92DF92F1
:10173000EF92FF920F931F93CF93DF93CDB7DEB756
:1017400029970FB6F894DEBF0FBECDBFFC01808194
:10175000918123813481232B31F09F3F31F491E03B
:101760008F3F19F403C091E001C090E090FD1CC6CA
:101770007F0185E0DE01119601900D928A95E1F7D7
:10178000F701228189819A81222349F00E949E1AC1
:10179000182F682F89819A810E94171B03C00E940D
:1017A000EB1A182F69817A81812F0E9420178C01F2
:1017B000F7019281992309F4F2C0980122513F4523
:1017C0002031310508F019C18FEF93E00E94AC2C55
:1017D0008111EFC002513EE7832E32E0932E0023A9
:1017E00079F08114F4E09F0609F4E3C0C4010E947B
:1017F000AC2C811101C001501FEF811A910AEFCF6B
:101800001E821F8218861986442443942AE0322EB1
:1018100084010F5F1F4FC4010E94AC2C8E831F8276
:10182000882309F4C6C09FEF980F933060F48F832C
:101830004E8222E0820E911CC8010E94AC2C888747
:10184000811102C0B6C048018E010A5F1F4FF80126
:1018500020812223E9F2213009F04CC081818130BE
:1018600049F46801F2E0CF0ED11CF80182810E9498
:101870006E2B0AC0823051F46801F2E0CF0ED11C09
:10188000F80182810E94F62A860186C0833049F4DD
:101890006801F2E0CF0ED11CF80182810E94BD2ABE
:1018A000F3CF843019F00F5F1F4F76C0F80122810B
:1018B0000E5F1F4F80E090E030E0205331092A3066
:1018C000310568F4389EA001399E500D1124C901DC
:1018D000840F951F0F5F1F4FF8012081EDCF0097F8
:1018E00009F45AC0EFE9FFE03197F1F700C00000BA
:1018F0000197F5CFE22FF0E0E256FE4F5490822F91
:1019000086958695869590E0FC01E257FE4F64909F
:101910002770712C022E02C0759467940A94E2F726
:10192000F1E06F227724FC01E258FE4FA490B12C25
:10193000022E02C0B594A7940A94E2F731E0A322E4
:10194000BB24FC01E259FE4FC490D12C02C0D594B7
:10195000C7942A95E2F781E0C822DD24611471045E
:1019600019F081EE0E94F62AA114B10419F086EE56
:101970000E94F62A852D0E946E2BAB2819F086EE68
:101980000E94BD2A672819F081EE0E94BD2ACD2849
:1019900019F08CE20E946E2B0F5F1F4F58CF003161
:1019A0003FE5130709F0F7C481E00E944C1B0E9439
:1019B000032380911606877009F4F6C4F70182812B
:1019C000882309F4F1C482E029960FB6F894DEBFAB
:1019D0000FBECDBFDF91CF911F910F91FF90EF9080
:1019E000DF90CF90BF90AF909F908F907F906F903F
:1019F0005F904F903F900C94711B0031FFE51F07E3
:101A000011F481E005C001312FE5120721F482E0D5
:101A10000E948A1BCCCF033FFCE51F0749F406E276
:101A200021EE40EE63EF7CE5C7010E94D217C1CFE3
:101A3000043F2CE5120708F04AC1083D3CE51307B6
:101A400031F407E225EE45EE68ED7CE5EDCF093D8A
:101A50008CE5180731F408E221E045EE69ED7CE5FC
:101A6000E3CF073DECE51E0731F406E221EE41EE3F
:101A700067ED7CE5D9CF992309F45EC11092280463
:101A80000230ECE51E0708F441C10631FCE51F07F2
:101A900038F098012A5F3C452930310508F036C1FD
:101AA0000E94D7199093A9038093A80300312CE5D5
:101AB000120709F4C3C008F041C008308CE51807CC
:101AC00009F49AC0F0F40430ECE51E0709F487C06D
:101AD00068F402302CE5120709F477C003301C4586
:101AE00009F0E5C08091A803826076C006308CE5DD
:101AF000180709F46EC008F07BC08091A8038860C5
:101B00006BC00C30ECE51E0709F485C068F40A30A0
:101B10002CE5120709F474C008F079C00E94932ADA
:101B20008091A803806858C00E308CE5180709F42E
:101B300076C008F07FC08091A8038BC00B3FECE516
:101B40001E0709F44FC018F503312CE5120709F4FC
:101B50007DC078F401318CE5180709F473C00231B7
:101B60001C4509F0A4C00E94932A8091A8038F7796
:101B700033C00531ECE51E0709F472C008F486C0D5
:101B80000A3F1C4509F093C08091A9033EC00F3F56
:101B90003CE5130709F45FC058F40D3F9CE51907B5
:101BA00009F444C008F43FC08091A90382602DC0AD
:101BB0000130FDE51F0709F475C008F45DC002306F
:101BC0001D4509F074C060E06EC08091A80381607B
:101BD00003C08091A80380618093A80368C08091AE
:101BE000A80311C08091A90382608093A9035FC0FC
:101BF0008091A8038062F0CF8091A8038064ECCF2D
:101C00008091A80388608460E7CF8160EECF8091E7
:101C1000A8038E7FE1CF8091A8038D7FDDCF8091D7
:101C2000A803877FD9CF8091A90318C08091A90309
:101C30008D7FDBCF8091A8038F7ECECF8091A803CC
:101C40008F7DCACF8091A8038F7BC6CF8091A803D8
:101C5000877F8B7FC1CF8091A9038D7F8E7FC5CF7A
:101C60008091A80382FB222720F991E0922790FB24
:101C700082F990FB83F9B0CF8091A903982F9095BA
:101C800091708E7F892B90FB81F9AFCF0E94932AB0
:101C90008091A80387FB222720F991E0922790FBEF
:101CA00087F99ACF61E08EE090E00E94CA2C6091A3
:101CB000A8031091A90384E090E00E94CA2C612F30
:101CC00081E290E00E94CA2C0E94932A72CE053FC6
:101CD000FCE51F0731F406E221EE42EE65EF7CE5FC
:101CE000A3CE053F2CE5120730F407E225EE44EEC3
:101CF00064EF7CE599CE063F3CE5130709F0BBCEC7
:101D000007E225EE46EE66EF7CE58ECE8091190661
:101D10000631ECE51E0709F58A7A91E009F490E0B6
:101D200090932904882311F065E301C069E28CE8EF
:101D300095E00E94A2190EC006311C4509F07AC038
:101D400080912904882309F42DC365E38CE895E08C
:101D50000E947A190E94581A2CCE8272F801E25C15
:101D6000FC45E431F10508F04DC0E158FF4F0C94FB
:101D7000792D9091540681E0892780935406109222
:101D800014010E949F1715CE47E055E160E175E10F
:101D90002CC040E155E167E075E127C045EF54E113
:101DA0006EEF74E122C04EEF54E165EF74E11DC0A7
:101DB0004DED54E169EE74E118C049EE54E16DED6A
:101DC00074E113C045EC54E161ED74E10EC041EDE6
:101DD00054E165EC74E109C041EB57E167EA77E152
:101DE00004C047EA57E161EB77E10E942D17E1CD8E
:101DF00081E005C084E003C089E001C08EE00E945C
:101E00002123D7CD01158CE5180731F00E3D1C4577
:101E100089F40E94E819CDCD0E94932AFFEF04E3D4
:101E20001CE0F15000401040E1F700C000000E94AB
:101E3000E418BFCDF70100811181992349F0C80151
:101E40000E949E1AD82E682FC8010E94171B04C03A
:101E5000C8010E94EB1AD82EB8018D2D0E94822055
:101E60008C01982EF701D280A580A2949FE0A92230
:101E700080911606877099F0DD2089F0812F807F90
:101E8000803421F080E2800F883048F082E00E94A8
:101E9000711B809116068770CC24C3948111C12CCC
:101EA000B12EB2948FE0B8228B2D90E08C3091054A
:101EB00008F03DC2FC01ED56FF4F0C94792D812FA7
:101EC000807F1F70882311F01295107FDD20B9F0FC
:101ED000112309F417C280E2800F883010F09110AE
:101EE00006C080911906182B1093190605C0809121
:101EF0001806182B109318060E94581A03C2802F38
:101F00000E94BD2A112309F412C2005E1095083008
:101F100010F0911006C0809119061823109319062D
:101F200005C0809118061823109318060E94581AAD
:101F3000FEC1812F807F1F70803211F01295107FBB
:101F4000992021F0F1E09F16E1F02AC0DD2081F018
:101F500080911A06AA2051F001E0A01207C0182BA8
:101F6000181709F4E4C110931A06E1C1812B10C0BF
:101F7000AA2021F021E0A21609F4D9C10E94521A28
:101F800027C0DD2041F035E03A1508F4D0C1812F9B
:101F90000E94B32ACCC184E08A1508F4C8C118C0D5
:101FA000DD2049F0AA2099F3F701858180FFAAC1BD
:101FB0008F708583ECCFAA2059F0093309F0B4C1A2
:101FC000FFEF17EE23E0F15010402040E1F7AAC1E7
:101FD000812F0E94A82AABC1812F86958695837098
:101FE00019F0813059F0A3C1DD2019F0C8019370B8
:101FF00002C080E090E00E94571699C1DD2019F0E0
:10200000C801937002C080E090E00E9441168FC129
:10201000802FDD2029F00E9403200E94112202C09F
:102020000E943C1F0E94112282C1812F837009F0FF
:102030006AC0D11080C1902F929596959770990F94
:10204000990F802F8F70482E512C612C712C092EE6
:1020500004C0440C551C661C771C0A94D2F704FF7C
:1020600012C04FE050E060E070E004C0440F551F24
:10207000661F771F9A95D2F7DB01CA01809590956C
:10208000A095B09503C080E090E0DC011695169510
:10209000412F43704230D9F068F500911B06109132
:1020A0001C0620911D0630911E06413059F08429EE
:1020B0009529A629B729BC01CD016023712382236C
:1020C00093231EC0402A512A622A732A13C08429EE
:1020D0009529A629B72900911B0610911C0620916D
:1020E0001D0630911E06BC01CD0160277127822795
:1020F000932706C0BC01CD0164297529862997293B
:102100000E94AB1B14C1DD2019F0812F817001C02A
:102110008695882309F40FC1902F92959695977014
:10212000990F990F802F8F70482E512C612C712C94
:10213000092E04C0440C551C661C771C0A94D2F767
:1021400004FF12C04FE050E060E070E004C0440FB4
:10215000551F661F771F9A95D2F7DB01CA0180953C
:102160009095A095B09503C080E090E0DC011695B5
:102170001695412F43704230D9F068F50091590609
:1021800010915A0620915B0630915C06413059F05F
:1021900084299529A629B729BC01CD016023712383
:1021A000822393238CC0402A512A622A732A13C0A7
:1021B00084299529A629B7290091590610915A0614
:1021C00020915B0630915C06BC01CD016027712730
:1021D0008227932774C0BC01CD0164297529862903
:1021E00097296DC01F70DD2029F0812F0E948A1B66
:1021F000802FCECE802F0E94A82A812F49C0802F09
:1022000032EF931609F440C0391538F090EF991663
:1022100061F0E1EF9E1699F170C0F3EF9F16D9F1CE
:1022200024EF921609F44EC068C0DD2019F134E0A5
:102230003A1508F47CC01F7181E090E0A0E0B0E0A6
:10224000AC01BD0104C0440F551F661F771F1A95CE
:10225000D2F78091590690915A06A0915B06B091F1
:102260005C068A019B01082719272A273B27C901F9
:10227000B80125C025E02A1508F459C0DCCFDD20BF
:1022800029F0812F8F712CC0DD20D9F3812F8F7120
:102290000E944C1B4CC0DD2079F01F7181E090E062
:1022A000A0E0B0E0BC01CD0104C0660F771F881F1D
:1022B000991F1A95D2F703C060E070E0CB010E942D
:1022C000421B35C0DD2079F01F71812F0E948A1BCF
:1022D00038E0139FC0011124836080931606812F7C
:1022E0000E948A1B24C081E00E94711B81E08A1534
:1022F000F0F482E00E94711B1AC0DD2039F0AA20A0
:1023000009F4BFCF802F0E94F62A11C0AA2009F439
:10231000BDCF893349F49FEFE7EEF3E09150E04001
:10232000F040E1F700C00000802F0E94BD2A88EF36
:102330008B0D843010F40E946D16CC20A9F1809191
:10234000160680FD31C0F701128285958595859529
:102350000E948A1BC7010E948D0B809116068595ED
:102360008595859529960FB6F894DEBF0FBECDBF33
:10237000DF91CF911F910F91FF90EF90DF90CF9061
:10238000BF90AF909F908F907F906F905F904F9095
:102390003F900C944C1B01318FE5180709F03BCBA3
:1023A00082E003CB69E2D2CC29960FB6F894DEBF67
:1023B0000FBECDBFDF91CF911F910F91FF90EF9096
:1023C000DF90CF90BF90AF909F908F907F906F9055
:1023D0005F904F903F9008958434910540F5880FA9
:1023E000991F880F991FFC01E45DFE4F52813381D4
:1023F000808183707181A82FB0E0E0E98E9FC001D9
:102400001124805C9B4FFC01E70FF11DB4976083A2
:10241000FC01E50FF11DB4974083830F911DFC0172
:10242000B4972083FD01E25CFB4F81E08083089537
:10243000FF920F931F93CF93DF93182F062FF42E45
:10244000C0E0D0E02F2D402F612FCE010E94EC1173
:102450002196C434D105B1F7DF91CF911F910F912F
:10246000FF9008950F931F9310E0F801EE0FFF1FE8
:10247000E256FD4F9081905797FD9195000F111FE7
:10248000F801E156FD4FE081F0E0B097DF01AA0FBF
:10249000BB1F8D010E0F1F1F2003D001219FB00D08
:1024A0001124E8E3F0E0E91BF10997FDF3959F01A2
:1024B000220F331F89010E0F1F1F40039001419F00
:1024C000300D11242A0F3B1F37FF02C021583F4F08
:1024D000220F232F221F330B620F1F910F9108959C
:1024E0000F931F93522F10E0F801EE0FFF1FE156DC
:1024F000FD4FE081F0E0B097EE0FFF1F9F01520308
:10250000D001539FB00D1124000F111FF801E256A6
:10251000FD4F008110E000571109000F111F40030B
:102520009001419F300D11242A0F3B1F37FF02C03D
:1025300021583F4F220F232F221F330B620F1F9171
:102540000F9108950F931F93522F10E0F801EE0F93
:10255000FF1FE156FD4FE081F0E0B0979F0152036D
:10256000D001539FB00D1124000F111FF801E25646
:10257000FD4F008110E00057110940039001419F79
:10258000300D11242A0F3B1F37FF02C021583F4F47
:10259000220F232F221F330B620F1F910F910895DB
:1025A000EF920F931F9393E0099F800111241595DB
:1025B00007956E2D600F1F910F91EF900895A22F38
:1025C00050E0FA01EE0FFF1FE156FD4F908190524F
:1025D00097FD9195440F551FFA01E256FD4F30814A
:1025E000232F30E02A1B3109290F311D97FD3A9521
:1025F000620F0895E42FF0E0EE0FFF1FE156FD4F4C
:102600006081621B0895E42FF0E0EE0FFF1FE25699
:10261000FD4F6081621B0895622F0895E42FF0E062
:10262000EE0FFF1FE256FD4F408134EE439F412DD8
:102630001124E82FF0E050E0445E5F4FDA01A21B66
:10264000B1099D01B7FF03C031952195310993E090
:10265000220F331F9A95E1F7AF01421B530B9A01EA
:1026600057FF02C020E030E0582F259F212D112474
:10267000822F08950F931F93CF93DF93082F000F9E
:10268000EB0114E210932A04EBE2F4E0DE018D91F9
:10269000819384E0EB33F807D1F724E630E041E1A1
:1026A00050E06AE274E0802F0E94192C105F60965F
:1026B000143B41F7DF91CF911F910F9108958091C5
:1026C0003E04882329F060E474E084E70E943A1312
:1026D00010923E0480913F04882329F060ED74E05D
:1026E00087E70E943A1310923F040895EAE2F4E06B
:1026F0006083418324E630E042E050E0BF01880F70
:102700000C94192CDF92EF92FF920F931F93CF93AB
:10271000DF93262F30E0A9014C575A4F7A01FA0176
:10272000908191110AC0F7011082DF91CF911F9122
:102730000F91FF90EF90DF900895D82EF2E16F9FF8
:10274000E001112400E010E0F801EC0FFD1FE05A59
:10275000FA4F4081602F8D2D0E9476130F5F1F4F1F
:102760000231110589F7DFCFCF93DF93C82F4BE0FC
:102770006DEF0E94761340E06AE08C2F0E94761382
:102780008FE39CE90197F1F700C0000040E060E0B2
:102790008C2F0E94761340E061E08C2F0E9476130C
:1027A00040E066E08C2F0E94761340E06DEF8C2FA6
:1027B0000E947613D0E040E06D2F8C2F0E9476139C
:1027C000DF5FD231C1F740E06D2F8C2F0E9476136E
:1027D000DF5FD432C1F740E06D2F8C2F0E9476135B
:1027E000DF5FD43BC1F74BE06DEF8C2F0E94761377
:1027F00041E06AE08C2F0E94761340E06DEF8C2F51
:10280000DF91CF910C9476137F928F929F92AF922B
:10281000BF92CF92DF92EF92FF920F931F93CF93CD
:10282000DF930E948C2B84E70E94B41387E70E94F9
:10283000B4130CE211E0E12CF12C42E138E0A32EBC
:10284000B12CCC24C394D12C77247394D801119645
:102850002C91119730E0C90184971296CC91129770
:10286000D0E0A4971396EC91F0E0B497BC0197FFE9
:1028700002C0695F7F4FA3E075956795AA95E1F760
:10288000D701AA0FBB1FAA0FBB1FA45DBE4F2C917F
:10289000237030E0429FD001439FB00D1124A05A15
:1028A000BA4F4D01860E911CB5010E94652DB601EF
:1028B00002C0660F771F8A95E2F7CB01D4019C9185
:1028C000892B8C93CE01D7FD079663E0959587956C
:1028D0006A95E1F7429FB001439F700D1124605A41
:1028E0007A4F4B01880E911CCE01B5010E94652DD7
:1028F000B60102C0660F771F8A95E2F7CB01D401BB
:102900009C91892B8C93CF01F7FD079653E0959509
:1029100087955A95E1F7429FE001439FD00D11241E
:10292000C05ADA4FC80FD11DCF01B5010E94652DE5
:10293000F60102C0EE0FFF1F8A95E2F7CF019881E2
:10294000892B8883F901EC57FA4F7082FFEFEF1A59
:10295000FF0A0C5F1F4F64E4E616F10409F076CF1E
:1029600060E084E70E94821361E087E7DF91CF9106
:102970001F910F91FF90EF90DF90CF90BF90AF909D
:102980009F908F907F900C948213E4E5F6E0438152
:1029900020E1421B08F440E08181628190E00C94C8
:1029A000B224E4E5F6E0438120E1420F08F44FEF62
:1029B0008181628190E00C94B224E4E5F6E06281CA
:1029C00020E1621B08F460E08181438190E00C9477
:1029D000B224E4E5F6E0628120E1620F08F46FEFD3
:1029E0008181438190E00C94B224E4E5F6E081819A
:1029F00090E04381628108970C94B224E4E5F6E00C
:102A0000818190E04381628108960C94B224809188
:102A1000540686958695815009F485E10C9421230E
:102A200080915406869586958F5F863108F081E007
:102A30000C942123EF920F93CF93DF93D72FC82FBE
:102A4000C9010E19BA010E941D1E602F681B7D2F3F
:102A50008C2FDF91CF910F91EF9008950F93CF932B
:102A6000DF93D72FC82FC901BA010E941D1E682FFE
:102A7000600F7D2F8C2FDF91CF910F910895EF92F2
:102A80000F931F93CF93DF93D62FC72F182FC90112
:102A90000E19010FBA010E941D1E081B202F219F35
:102AA000212D1124822F6D2F7C2FDF91CF911F912B
:102AB0000F91EF900895FF920F931F93CF93DF93A1
:102AC000F62ED72F182FC901C12FC01BBA010E94A3
:102AD0001D1E982F990F890FC81B2C2F219F212D68
:102AE0001124822F6F2D7D2FDF91CF911F910F9198
:102AF000FF9008950F93CF93DF93D72FC82F47FDF3
:102B00004195E8E3F0E0CF01841B910947FD9395DF
:102B1000889FB001899F700D700D1124229FC00104
:102B2000239F900D900D1124860F971F0E94711EF8
:102B3000682F660F860F682F600F7D2F8C2FDF9117
:102B4000CF910F9108951F93CF93DF93CDB7DEB749
:102B500067970FB6F894DEBF0FBECDBF342F4B8BF7
:102B6000252F5C8B6D8B7E8B8F8B4E895F896111DE
:102B70001092180686E0FE013D96DF01982F1D9207
:102B80009A95E9F73D872E876F87598B488BDE0131
:102B9000179601900D928A95E1F7CE0107960E9453
:102BA0002B1C81113EC086E0FE013796DE01119696
:102BB00001900D928A95E1F7FF81E8856A857B8512
:102BC0006115710531F0EF3F31F481E0FF3F19F4F9
:102BD00003C081E001C080E080FD23C02091B205E8
:102BE00030E0C9010196877099274091E30550E0D4
:102BF0008417950779F1F983EA837D836C8396E0E6
:102C0000929FD001939FB00D1124AD54BA4FFE0195
:102C1000319601900D929A95E1F78093B2050E944A
:102C2000B51B16E08091E3059091B2058917F9F084
:102C3000189FC00111248D549A4F0E942B1C882389
:102C4000B1F08091E30590E0019687709927809319
:102C5000E305E8CF0E94932A1092B2051092E30593
:102C6000ECEAF5E086E0DF011D928A95E9F76796C8
:102C70000FB6F894DEBF0FBECDBFDF91CF911F918D
:102C8000089520918A0530918B052817390771F036
:102C900090938B0580938A05E0910004F0910104E4
:102CA000309721F00084F185E02D0994089520915A
:102CB0008805309189052817390771F090938905A7
:102CC00080938805E0910004F0910104309721F091
:102CD0000680F781E02D09940895E0910004F091B9
:102CE0000104309721F00190F081E02D099480E0FB
:102CF0000895CF93DF93CEE7D2E060E0CE010E944B
:102D0000CA2C2196C11584E0D807B9F7DF91CF917D
:102D100008951F93CF93DF93962F843000F565308D
:102D2000F0F44F30E0F4632F122FC42FD0E0CC0F1B
:102D3000DD1F2EE1929FC00DD11D112496E9899FC0
:102D4000C00DD11D1124CE0186960E94CA2C612F80
:102D5000CE018796DF91CF911F910C94CA2CDF9101
:102D6000CF911F910895AF92BF92CF92DF92EF92D1
:102D7000FF920F931F93CF93DF93A12CE12CF12CA3
:102D8000B12C00E010E0C0E0D0E06701C00ED11E21
:102D9000FE01EE0FFF1FEC0DFD1DE25EFD4F2591C4
:102DA00034914C2F6B2D8A2D0E9489162196CF309D
:102DB000D10571F7025E1F4FB39485E0B812E3CFDF
:102DC00086E9E80EF11CA39484E0A812D9CFDF9124
:102DD000CF911F910F91FF90EF90DF90CF90BF9018
:102DE000AF9008950F931F93CF93DF93843008F52E
:102DF0006530F8F44F30E8F4C42FD0E0CC0FDD1F7D
:102E00002EE1629FC00DD11D112436E9839FC00DB4
:102E1000D11D1124CE0186960E94AC2C90E0182F73
:102E20000027CE0187960E94AC2C9801282BC9015F
:102E300002C080E090E0DF91CF911F910F91089543
:102E4000462F843038F4753028F46F3018F4672F2B
:102E50000C94F21680E090E00895882311F0FA01B6
:102E600001C0FB0109940C9418120C94EC111F93EF
:102E7000CF93DF93FC01EA5DFC4F20816223A9F030
:102E8000EC010E948C2C182F0E948C2C612F782F23
:102E9000809157060E94AC1E462F282F672FCE0127
:102EA000DF91CF911F910C943517DF91CF911F9136
:102EB0000895DF92EF92FF920F931F93CF93DF93CA
:102EC000EC01FC01EA5DFC4F9081692381F1D09017
:102ED00056060091570610915506E12EF12C0E94DE
:102EE0008C2C282FC7018C549F4F68E671E00E94FC
:102EF000652D8E199F0997FD039695958795959554
:102F000087952370612F289F600D11247D2D802FC0
:102F10000E94AC1E462F282F672FCE01DF91CF9144
:102F20001F910F91FF90EF90DF900C943517DF9178
:102F3000CF911F910F91FF90EF90DF90089545E0A2
:102F400050E06CE170E084E596E00C94BA2CE4E586
:102F5000F6E0248130E1230F08F42FEF24830C9452
:102F60009F17E4E5F6E0248130E1231B08F420E01C
:102F700024830C949F17E4E5F6E081E2808380913E
:102F8000150190911601A091170181839283A3836B
:102F90008FE784830C949F1722E8241B08F420E019
:102FA000620F08950F931F93CF93DF93C42FD22FF7
:102FB000FC0182818823C9F0409328040E944919AA
:102FC000909387058093860580E28C0F883008F007
:102FD00057C0C77081E001C0880FCA95EAF7DF913A
:102FE000CF911F910F910C94B32A8091280448131C
:102FF00030C080918605909187050E942E19883CEB
:10300000910538F510E21D0FCD17B9F080E28C0F55
:10301000883040F4C77081E001C0880FCA95EAF794
:103020000E94A82A183028F581E09D2F977001C0D2
:10303000880F9A95EAF70E94B32A802F0E946E2B80
:103040001830F0F4D77081E001C0880FDA95EAF704
:103050000AC080E28C0F883098F4C77081E001C00C
:10306000880FCA95EAF7DF91CF911F910F910C94C9
:10307000A82A802FDF91CF911F910F910C946E2B76
:10308000DF91CF911F910F910895809123060895AC
:1030900080E00895CF93DF9300D01F92CDB7DEB7C5
:1030A00090914606943011F589837B836A839093CF
:1030B000E9008FEF9091E800815095FD06C095EDF5
:1030C0009A95F1F700008111F5CF8091E80085FF16
:1030D0000DC040E050E063E070E0CE0101960E9438
:1030E000BF248091E8008E778093E8000F900F90C6
:1030F0000F90DF91CF910895BC0184E00C944A18A1
:10310000BC0183E00C944A1824E02093E9002FEFDF
:103110003091E800215035FD06C035ED3A95F1F7C4
:1031200000002111F5CF2091E80025FF0BC040E001
:1031300050E066E070E00E94BF248091E8008E7746
:103140008093E8000895CF93DF932091100122230C
:1031500039F02091A80327FF03C060E224E002C0F9
:1031600068E021E02093E9002FEF3091E800215042
:1031700035FD06C035ED3A95F1F700002111F5CF88
:103180002091E80025FF1DC0EC0180911001811104
:1031900005C040E050E068E070E003C070E040E04F
:1031A00050E0CE010E94BF248091E8008E7780938A
:1031B000E80080E2FE01A4E2B6E001900D928A955B
:1031C000E1F7DF91CF91089581E08093E00080E204
:1031D0008093D8001092C9008FE19EE40197F1F727
:1031E00000C0000087E090EBDC01809360069093C4
:1031F0006106A0936206B09363069CE088E10FB677
:10320000F894A895809360000FBE90936000FFCF64
:1032100078941F920F920FB60F9211248F939F9361
:10322000AF93BF938091020490910304A091040492
:10323000B09105040196A11DB11D809302049093E5
:103240000304A0930404B0930504BF91AF919F9130
:103250008F910F900FBE0F901F9018959C014FB744
:10326000F8948091020490910304A0910404B09119
:1032700005044FBF821B930B08952FB7F8946091FC
:1032800002047091030480910404909105042FBFFF
:1032900008952FB7F8948091020490910304A091AF
:1032A0000404B09105042FBF08951F920F920FB62A
:1032B0000F9211248F939F93AF93BF938091020439
:1032C00090910304A0910404B09105044196A11DBE
:1032D000B11D8093020490930304A0930404B0935F
:1032E0000504BF91AF919F918F910F900FBE0F90EA
:1032F0001F901895209110012223C9F02091A80356
:1033000027FF15C0262F2695269526952E31C8F421
:10331000FC01E20FF11D677081E090E001C0880FB1
:103320006A95EAF780959281892382830895FC014A
:1033300006962281621301C012823196E817F907BE
:10334000C1F70895209110012223C1F02091A80314
:1033500027FF14C0262F2695269526952E3130F569
:10336000FC01E20FF11D677081E090E001C0880F61
:103370006A95EAF79281892B82830895FC0132963F
:103380002FEF30E04191641789F02F3F19F441117C
:1033900001C0232F3F5F3630A9F72F3F39F0FC01E2
:1033A000E20FF11D27FDFA95628308950895CF93EA
:1033B00084E090E00E94AC2CC82F81E290E00E9453
:1033C000AC2C2C2F30E0A901582BCA01CF910895C5
:1033D0006BEE7EEF80E090E00E94E82C60E082E0FF
:1033E00090E00E94CA2C60E083E090E00E94CA2C2A
:1033F00010921B0610921C0610921D0610921E06BB
:1034000060E084E090E00E94CA2C60E081E290E0FD
:103410000E94CA2C60E085E090E00E94CA2C60E027
:1034200086E090E00E94CA2C6FEF87E090E00E9457
:10343000CA2C40E050E0BA0188E090E00E94DC2C09
:1034400060E08DE090E00E94CA2C40E050E0BA01BC
:1034500088E190E00E94DC2C60E087E190E00E942F
:10346000CA2C40E050E0BA018CE190E00E94DC2CD4
:1034700060E080E290E00E94CA2C40E050E0BA0197
:1034800088E190E00E94DC2C40E050E0BA018FE03F
:1034900090E00E94DC2C40E050E0BA0183E190E033
:1034A0000C94DC2C80911A06811110921A06089552
:1034B0009091190680911806892B20911706982F54
:1034C000922B90938C0580911A068823D9F0892B32
:1034D00080938C0580911001882331F08091A8039E
:1034E00087FF02C08EE101C086E0EEE8F5E090E0E3
:1034F000815028F021912223D9F39F5FF9CF9111B8
:103500000E94521AE0910004F09101043097A9F052
:1035100080911001882359F08091A80387FF07C08C
:1035200080918C0580938D0585E080938C050280C9
:10353000F381E02D8CE895E009940895BF92CF9235
:10354000DF92EF92FF920F931F93CF93DF938C0143
:10355000C0905906D0905A06E0905B06F0905C0649
:1035600080911B0690911C06A0911D06B0911E062D
:10357000C82AD92AEA2AFB2ACFE1D0E0D701C6011E
:103580000C2E04C0B695A795979587950A94D2F707
:1035900080FD04C0219790F7B12C07C0BC2EB80164
:1035A0008C2F0E9482200197A9F38B2DDF91CF9160
:1035B0001F910F91FF90EF90DF90CF90BF900895F3
:1035C000CF93DF93EC010E949E1ABE010E948220DD
:1035D000DF91CF9108952FE0929F800D1124682FE5
:1035E000669566956695982F977085E0689FB001FF
:1035F000112440E050E080E0FB01E40FF51FEC51A6
:10360000FA4F208130E0092E02C0369527950A94A2
:10361000E2F721703327042E01C0220F0A94EAF743
:10362000822B4F5F5F4F4530510531F708952FE0F2
:10363000929F800D1124E82FE695E695E695877018
:1036400051E001C0550F8A95EAF785E0E89FF00147
:103650001124EC51FA4F20E030E070E04081CB01C2
:10366000022E02C0969587950A94E2F781708195A3
:1036700084278523842781932F5F3F4F2530310591
:1036800069F708956093590670935A0680935B0614
:1036900090935C060C94762A0F931F9341E050E0C0
:1036A00060E070E004C0440F551F661F771F8A95C5
:1036B000D2F74095509560957095809159069091FC
:1036C0005A06A0915B06B0915C068A019B01082313
:1036D00019232A233B23C901B8011F910F910C9490
:1036E000421B209116068095822380931606982F00
:1036F000977079F430E0482F082E000C550B2417F2
:10370000350739F08595859585950E944C1B10925B
:10371000160608950F931F9341E050E060E070E0BB
:1037200004C0440F551F661F771F8A95D2F78091FA
:10373000590690915A06A0915B06B0915C068A01E9
:103740009B01082B192B2A2B3B2BC901B8011F9178
:103750000F910C94421B60931B0670931C06809380
:103760001D0690931E060C94762A8091E305909195
:10377000B205891719F08F5F8770FBCF08950F93FB
:103780001F93CF93DF938091B10582958F7009F0DD
:103790005DC08091AE05882309F458C08091E3058F
:1037A0001091B2056091AC057091AD05C091AF0567
:1037B000D091B00591E06F3F09F090E0292F06E02D
:1037C000811709F443C0209721F07F3F21F030E0BA
:1037D00003C031E001C0322F90E030FD34C0089FBB
:1037E000F001099FF00D1124DF01AD54BA4F11967D
:1037F0003C911197371327C03C91361324C0129681
:103800003C91129731111FC013964D915C91149702
:103810004C1B5D0B483C5105B0F48091B1058F7095
:1038200080618093B105E854FA4F80818F70806188
:1038300080838CEA95E00E948D0BDF91CF911F91E0
:103840000F910C94B51B01968770BACFDF91CF9181
:103850001F910F9108959F92AF92BF92CF92DF92E6
:10386000EF92FF920F931F93CF93DF93CDB7DEB705
:1038700061970FB6F894DEBF0FBECDBF8C0185E017
:10388000F801DE011D9601900D928A95E1F7F8018D
:1038900090818181E2803091AC056091AD054091CD
:1038A000AF055091B0054115510531F06F3F31F42E
:1038B00021E03F3F19F403C021E001C020E0F22FD6
:1038C000F1709F2E20FD23C1F801C380D4802CEA23
:1038D000A22E25E0B22EF090AE05F601E41BF50B0A
:1038E000FF2009F4CEC02091B105E83CF10508F0B5
:1038F00099C0422F407F09F051C0681311C039139D
:103900000FC0FE2CE1100CC02F7020612093B10578
:10391000C5010E948D0B8091B105F801858337C1E7
:10392000CD2831F08F3F31F421E09F3F19F403C0DF
:1039300021E001C020E020FD03C021E02E2502C0CF
:1039400020E030E0F22FF170FF2E20FF1DC020910B
:10395000E3054091B20556E0241709F4F6C030E0C3
:10396000529FF001539FF00D1124ED54FA4F6181E5
:10397000861306C06081961303C06281E61204C0FC
:103980002F5F3F4F2770E8CFFE2CEE2009F4FFC0D9
:103990008091B10581608093B10550C0681307C064
:1039A000391305C0E11003C0F80125838DC09D8740
:1039B0008E878D859E850E944D2A882369F1EE2091
:1039C00059F12091B105822F82958F7090E0029776
:1039D00074F08091AC059091AD0598878F8319861E
:1039E000DB86CA862C87CE0107960E948D0B86E067
:1039F000F801ACEAB5E001900D928A95E1F70E94DA
:103A0000BF1B0DC06817E1F09D878E878D859E8551
:103A10000E944D2A81111EC0C8010E948D0BFF24F7
:103A2000F394B5C0422F407F69F78CEA95E00E947D
:103A30008D0B86E0F50111928A95E9F7F12CA7C06C
:103A40003913E2CFE110E0CFF8012583C8010E94CD
:103A50008D0B57C0EE2001F32091B105822F829586
:103A60008F7090E002971CF28091AC059091AD05AB
:103A70009A8389831B82DD82CC822E83CE010196BC
:103A8000B4CFE83CF105E8F5FE2CEE2029F26813EE
:103A900027C0391325C02091B10520FD18C0822F01
:103AA00082958F70482F50E04115510581F0F80143
:103AB00025834F30510541F08F5F982F9295907F6D
:103AC000822F8F70892B8583C8010E948D0B86E021
:103AD000F801ACEAB5E001900D928A95E1F757C084
:103AE0009D878E878D859E850E944D2A81117FCF6F
:103AF0008091B10581608093B105C8010E948D0B52
:103B000046C086E0F50111928A95E9F740C0EE20A3
:103B100009F482CF9D878E878D859E850E944D2AD0
:103B2000F82E882309F478CF86E0F801ACEAB5E0F6
:103B300001900D928A95E1F78091AC059091AD05C9
:103B40000E94E01A0E94BF1B22C09D878E878D8530
:103B50009E850E94E01A292F22952F70223028F48A
:103B60009F7039F0811105C00BC0243028F49F707C
:103B700049F4805E883020F0C8010E948D0B9F2C94
:103B8000F92C05C0F8019581907F99F7F9CF8F2D19
:103B900061960FB6F894DEBF0FBECDBFDF91CF9117
:103BA0001F910F91FF90EF90DF90CF90BF90AF905B
:103BB0009F9008959091A80392FF0DC0282F28711F
:103BC000283019F4877F846006C0282F24712430A0
:103BD00011F48B7F886093FF0DC0282F2871283146
:103BE00019F4877E846106C0282F2471243111F4D2
:103BF0008B7E88612091A90320FF0DC0382F38717A
:103C0000383019F4877F816006C0382F3171313028
:103C100011F48E7F886021FF0DC0282F2871283174
:103C200019F4877E816106C0282F2171213111F49A
:103C30008E7E886194FD877E0895FC019B0100972C
:103C400021F477FF2BC080E80895AC0197FF04C0F2
:103C500044275527481B590BB901640F751F37FDC1
:103C60000CC0241B350BC901A5E0880F991FAA952C
:103C7000E1F70E94652D80E20CC0CB0165E0880F62
:103C8000991F6A95E1F7BA01621B730B0E94652DBB
:103C900080E6861BF7FF03C08195089580E00895B4
:103CA000482F982F46FD9095E92FEF739F7046FDA2
:103CB0009F5FE295EF70EE0FF0E0E45CFD4F218135
:103CC000299F802D212D112482958F702295207F90
:103CD000822B3081982F930F892F47FD8195805833
:103CE0000895BC018230910508F40895613E8EE18B
:103CF000780748F49B0195E0369527959A95E1F76A
:103D000048E0420F01C04FEF91E0242F30E0290F2F
:103D1000311D35952795229FF001239FF00DF00D61
:103D200011246E177F0718F44FEF420F04C02F3F86
:103D300039F091E0920F491740F78FEF890F0895FE
:103D40008FEF089520E030E0869F212D969F200D73
:103D5000311D1124C9010895CF92DF92EF92FF9295
:103D60000F931F93CF93DF93F62E472FE82FF0E0AA
:103D7000711106C0EA58FB4F8491782F682F73C0E9
:103D8000272F30E0EA58FB4FE491FE2F0E2F10E072
:103D900056E0659FC0011124CFEFD0E0BE010E9424
:103DA000512D5BEA5603C001579F900D11248F0DD2
:103DB000911D8F0D911D982F990F980F7E01E21A7A
:103DC000F30AE09ED001E19EB00DF09EB00D1124EB
:103DD0008B2F499FA0011124452F55277E01E41AFE
:103DE000F50AE09EA001E19E500DF09E500D1124B9
:103DF0006E01C91AD108C29E7001C39EF00CD29EFA
:103E0000F00C11242F2D3327C21BD30BC09F900120
:103E1000C19F300DD09F300D1124932F623071055A
:103E200091F048F461157105E1F061307105B9F464
:103E30009E2FE52F16C06430710569F040F06630A2
:103E4000710579F00CC09E2FEB2F832F0AC0EB2F4A
:103E50008F2F952F06C09B2F8E2FE32F02C09B2FF5
:103E6000852F7E2F692FDF91CF911F910F91FF90AA
:103E7000EF90DF90CF900895803F39F480910F0448
:103E800087FF6AC010920F0467C0813F29F48091B8
:103E90000F041816BCF360C090910E04823F29F401
:103EA00097FF5AC010920E0457C0833F19F4191699
:103EB000CCF352C090911004893F31F419160CF0E4
:103EC0004BC01092100448C08A3F19F497FF44C0B9
:103ED000F8CF8B3F39F48091110487FF3DC01092D9
:103EE00011043AC08C3F29F4809111041816BCF3D8
:103EF00033C0843F21F480910D048E7F17C0853F2D
:103F000021F480910D048D7F11C0863F21F48091B2
:103F10000D048B7F0BC0873F21F480910D04877FB8
:103F200005C0883F31F480910D048F7E80930D048D
:103F300013C08D3F21F480915F068E7F0BC08E3FB2
:103F400021F480915F068D7F05C08F3F29F4809119
:103F50005F068B7F80935F0680910E04811106C0FF
:103F600080910F04811102C0109209048091100405
:103F7000811106C080911104811102C010920604C3
:103F8000089580915F0680FD16C081FD16C082FDF8
:103F900018C080910604882391F0883290F428E0BC
:103FA000829FC001112468E270E00E94652D862F77
:103FB000672B29F007C082E0089584E0089581E02E
:103FC000089588E0089580915F0680FD14C081FD0A
:103FD00014C082FD16C080910904882381F08431C9
:103FE00080F422E3829FC001112464E170E00E940A
:103FF000652D862F08958CE0089589E1089585E068
:10400000089582E30895803F21F40E94E31F819583
:1040100004C0813F29F40E94E31F80930F04089598
:10402000823F21F40E94E31F819504C0833F29F45D
:104030000E94E31F80930E040895893F19F40E94A3
:10404000C11F05C08A3F31F40E94C11F8195809332
:10405000100408958B3F21F40E94C11F819504C074
:104060008C3F29F40E94C11F809311040895843F5E
:1040700021F480910D04816017C0853F21F4809167
:104080000D04826011C0863F21F480910D0484608C
:104090000BC0873F21F480910D04886005C0883FE4
:1040A00031F480910D04806180930D0408958D3F5B
:1040B00021F480915F0681600BC08E3F21F48091D6
:1040C0005F06826005C08F3F29F480915F0684609F
:1040D00080935F060895F894E82FE295EF70F0E082
:1040E00031A1282F2F7081E090E001C0880F2A9520
:1040F000EAF7982F9095932391A392A1892B82A3FD
:1041000078940895CF93DF930E942017EC018238B2
:10411000910559F1A0F48133910509F473C040F47D
:104120008932910509F467C08A9709F472C084C086
:104130008533910509F458C0C997B9F07DC0833E15
:10414000910571F138F4803E9105B1F0823E910500
:1041500011F172C0863E9105B9F1873E9105C9F112
:10416000843E910509F068C024C08091A80380FDB9
:104170005DC081FD5BC060C08091A80380FD50C020
:104180008091A90380FF49C18091A80384FD43C1A8
:10419000C3EED0E042C18091A80382FF3EC1F4CFBC
:1041A0008091A80382FD3FC08091A90380FD3EC09D
:1041B000EBCF8091A90381FF30C18091A80384FDDA
:1041C0002AC1C7EED0E029C18091A80383FF25C191
:1041D000F4CF8091A80383FD2CC08091A90381FFB7
:1041E000ECCFC4EED0E019C18091A80385FF15C1C2
:1041F000C9E2D0E012C18091A80385FF0EC1C5E3DA
:10420000D0E00BC18091A80386FF07C1CAE2D0E0CD
:1042100004C18091A80386FF00C1C1E3D0E0FDC0C6
:10422000C9E3D0E0FAC0C2EED0E0F7C0C0EED0E003
:10423000F4C0C6EED0E0F1C0C11581E5D80708F0A2
:1042400066C0C11520E5D207E0F0CE0174E0969576
:1042500087957A95E1F783709C2F937021E030E089
:1042600002C0220F331F9A95E2F73C68382BCF70BB
:10427000C695C69540E2C49FE0011124C22BD32B02
:10428000CCC0C83ED10560F5C03ED10508F0C5C020
:10429000C83AD105B0F4C53AD10540F0C55AD0E0CE
:1042A000C659DC4FC881D0E0D064B7C0C130D10559
:1042B00009F4B3C008F4AFC0C430D10508F4ABC0F2
:1042C000ACC0CF3BD10508F0A6C0C85AD0E0CC0F97
:1042D000DD1FC359DC4F0990D881C02DD4649DC027
:1042E000C11540E2D40758F4C11581E0D80708F0A1
:1042F00094C0C03FD10508F48EC0D0658EC0C115F2
:1043000020E4D20708F487C0DF70D06A86C0C115E8
:1043100045E5D40708F042C0C11584E5D80728F068
:10432000DC2FCC27C46FD06A78C0C11523E5D20733
:10433000B0F0CE018370992721E030E002C0220F57
:10434000331F8A95E2F78C2F8695869540E2849FED
:10435000C0011124E901C82BD92BDA685EC0C11550
:1043600042E5D40728F4DC2FCC27C16FD06A55C0B2
:10437000CE018370992721E030E002C0220F331F65
:104380008A95E2F78C2F8695869540E2849FC0013E
:104390001124E901C82BD92BDC683FC0C11589E580
:1043A000D807B8F4C11528E5D20728F0DC2FCC27B0
:1043B000C06FD06A32C0C11546E5D40760F58C2FB6
:1043C0000E94DA1D8F71C82FD0E0DC2FCC27D0627D
:1043D00024C0C1158AE5D80780F48C2F8F700E9405
:1043E000DA1D94E0D695C7959A95E1F7CF70D0E0A5
:1043F000DC2FCC27D069C82B10C0CE019056811578
:10440000904248F48D2F8F710E94DA1DDD27D06213
:104410008F71D82B02C0C0E0D0E0CE01DF91CF91E8
:1044200008950E94491920910E04211104C0209181
:104430000F04222321F090930B0480930A0420910F
:104440001004211104C020911104222321F0909323
:10445000080480930704E0910004F0910104309770
:1044600049F082E080930C040480F581E02D8CE01B
:1044700094E0099408959F92AF92BF92CF92DF92F9
:10448000EF92FF920F931F93CF93DF930EE913E008
:1044900088E1E82E81E0F82EC0E0D0E0912CCC2419
:1044A000C394D12CB701D7018C91F894E82FE295F1
:1044B000EF70F0E021A18F70A60102C0440F551FDC
:1044C0008A95E2F7CA01922F982B91A392A1809529
:1044D000892382A3789400C0EDE1F1E020E030E090
:1044E000A12CB12C4191842F82958F7090E0DC013A
:1044F00090968C9190E04F7002C0959587954A9563
:10450000E2F780FD08C0C601022E02C0880F991F85
:104510000A94E2F702C080E090E0A82AB92A2F5F4F
:104520003F4F2F303105F1F6BFEFEB1AFB0AFB01CD
:1045300080810E946B20C430D10519F0F0EAFA9511
:10454000F1F7D8018D919C911197A816B90621F029
:10455000AD92BC9281E001C080E0982A21960E5F66
:104560001F4FC530D10509F09DCF992049F081E05A
:10457000809321060E9449199093200680931F067C
:1045800080912106882391F180911F069091200649
:104590000E942E19049750F180919E0390919F03E1
:1045A00090931F0480931E048091A0039091A10317
:1045B00090932104809320048091A2039091A303FF
:1045C00090932304809322048091A4039091A503E7
:1045D00090932504809324048091A6039091A703CF
:1045E000909327048093260410922106892DDF9151
:1045F000CF911F910F91FF90EF90DF90CF90BF90E0
:10460000AF909F9008950F931F93809159069091BA
:104610005A06A0915B06B0915C068C019D01067064
:10462000112722273327BC01CD01063011052105B2
:10463000310511F4686001C0677F1F910F910C94E0
:10464000421B90915406937089F0811102C09460CE
:1046500007C0863110F0946503C0880F880F982B2F
:1046600090935406109214010C949F1708956F9222
:104670007F928F929F92AF92BF92CF92DF92EF92F2
:104680000F931F93CF93DF933C01C0911101CC0F87
:10469000CC0FD4E0DC0FD53408F0D4E46091580698
:1046A000669580915006909151060E94A21E182F87
:1046B000CD1708F044C08C2E912CF401EA5DFC4F1C
:1046C0009081809112018923C1F1F401EE0FFF1F47
:1046D000E256FD4FC080D12C80E7C81AD108F40102
:1046E000EE0FFF1FE156FD4FA080B12CE0E2AE1AA5
:1046F000B108CC9C9001CD9C300D300D1124AA9CAA
:10470000C001AB9C900D900D1124820F931F0E944D
:10471000711E082F609155067091560680915706BC
:10472000E12E9501A601F30109950E94AC1E462FCA
:10473000282F672FC4010E943517CF5FB9CF81E0C2
:10474000D43408F080E0DF91CF911F910F91EF906A
:10475000DF90CF90BF90AF909F908F907F906F90A1
:104760000895CF92DF92EF92FF920F931F93CF9312
:10477000DF936C01C0911101CC0FCC0FD4E0DC0FA2
:10478000D53408F0D4E460915806669580915006BF
:10479000909151060E94A21E182FCD1778F5EC2E8D
:1047A000F12CF701EA5DFC4F908180911201892381
:1047B00019F1F701EE0FFF1FE156FD4F208130E0A8
:1047C00020523109F701EE0FFF1FE256FD4F4081E5
:1047D00050E04057510960915506709156068091FE
:1047E0005706012FF60109950E94AC1E462F282F6F
:1047F000672FC7010E943517CF5FCFCF81E0D43438
:1048000008F080E0DF91CF911F910F91FF90EF9022
:10481000DF90CF900895DF92EF92FF920F931F9356
:10482000CF93DF937C01C0911101CC0FCC0FD4E06A
:10483000DC0FD53408F0D4E460915806669566958F
:1048400080915006909151060E94A21ED82ECD173D
:10485000F0F40C2F10E0F801EA5DFC4F908180919C
:104860001201892391F0609155067091560680914E
:1048700057062D2D4C2FF70109950E94AC1E462F8F
:10488000282F672FC8010E943517CF5FE0CF81E046
:10489000D43408F080E0DF91CF911F910F91FF9009
:1048A000EF90DF9008959F92AF92BF92CF92DF92E8
:1048B000EF92FF920F931F93CF93DF936C01C09100
:1048C0001101CC0FCC0FD4E0DC0FD53408F0D4E4C8
:1048D00060915806669566958091500690915106B4
:1048E0000E94A21E182F80E4810F0E94501E90E8A3
:1048F000F92EF80E812F0E94501E20E8922E980E5D
:10490000CD1700F5AC2EB12CF501EA5DFC4F90817E
:10491000809112018923A1F060915506709156068D
:1049200080915706E12E0C2F292D4F2DF601099568
:104930000E94AC1E462F282F672FC5010E943517F5
:10494000CF5FDECF81E0D43408F080E0DF91CF91FB
:104950001F910F91FF90EF90DF90CF90BF90AF909D
:104960009F90089590915406937041F0809355065E
:1049700060935606409357060C949F170895EF9244
:10498000FF920F931F93CF93DF937C018B010E94C3
:104990002C28811119C0E70101151105A1F08091A2
:1049A000E80085FD0AC08091E8008E778093E800DA
:1049B0000E942C28882381F307C089918093F100FD
:1049C00001501109E9CF80E0DF91CF911F910F9144
:1049D000FF90EF9008951F93CF93DF93CDB7DEB78D
:1049E000AA970FB6F894DEBF0FBECDBFE8E4F6E09D
:1049F0008091F100819346E0E035F407C9F780919A
:104A00004906833009F462C030F4813071F082309D
:104A100009F49CC0B3C08A3009F488C08B3009F413
:104A20006DC0893009F0AAC020C080914806813A43
:104A300009F0A4C08091E800877F8093E80080910E
:104A40004C0690914D06892B21F460E284E296E0B9
:104A500003C060E080E090E070E00E94EF29809168
:104A6000E8008B778093E80089C080914806813206
:104A700009F084C080914C0690914D06009719F082
:104A8000029709F07BC08091E800877F8093E8005F
:104A90008091E80082FD05C0809146068111F8CF23
:104AA0006DC02091F3008091F20090E0922B02976C
:104AB00029F48091F1008B7F813021F48091F10005
:104AC000809323068091E8008B7754C0809148063C
:104AD000813A09F053C080914C0690914D06892B84
:104AE00009F04CC08091E800877F8093E8008091B6
:104AF000E80080FFFCCF8091100137C0809148060C
:104B00008132E1F580914C0690914D06892BB1F5EB
:104B10008091E800877F8093E8000E945F28809161
:104B20004A06809310010E94932A28C0809148066B
:104B3000813221F58091E800877F8093E8000E9410
:104B40005F2880914B068093220618C0809148060A
:104B5000813AA1F48091E800877F8093E8008091FA
:104B6000E80080FFFCCF809122068093F1008091C5
:104B7000E8008E778093E8000E945F288091E8002B
:104B800083FFE9C18091480690914906492F50E082
:104B90004A30510508F0DFC1FA01E156FF4F0C948D
:104BA000792D803821F0823809F0D5C108C0809174
:104BB000440690914506992389F082600FC0809148
:104BC0004C068F70873008F0C6C18093E900809151
:104BD000EB0085FB882780F91092E9009091E800AE
:104BE000977F9093E8008093F1001092F1007CC1D0
:104BF000282F2D7F09F0AFC1882319F0823061F092
:104C0000AAC180914A06813009F0A5C1933009F00C
:104C100080E0809345062EC080914A0681112AC00B
:104C200080914C068F702FEF280F263008F093C12B
:104C30008093E9002091EB0020FF1CC0933021F409
:104C40008091EB00806214C09091EB009061909392
:104C5000EB0021E030E0A90102C0440F551F8A9506
:104C6000E2F74093EA001092EA008091EB0088603E
:104C70008093EB001092E9008091E800877F809399
:104C8000E8000E945F2867C1811165C110914A0642
:104C90001F778091E3008078812B8093E3008091DF
:104CA000E800877F8093E8000E945F288091E800F9
:104CB00080FFFCCF8091E30080688093E3001111B6
:104CC00002C082E001C083E08093460644C1805860
:104CD000823008F040C120914A0630914B062C3DAD
:104CE00053E0350779F583E08A838AE289834FB7F9
:104CF000F894DE01139620E03EE051E2E32FF0E06D
:104D000050935700E49120FF03C0E295EF703F5F9E
:104D1000EF708E2F90E0EA3010F0C79601C0C09679
:104D20008D939D932F5F243149F74FBF8091E80009
:104D3000877F8093E8006AE270E0CE0101960E94CE
:104D4000EF29C0C080914C0690914D06432F552706
:104D500043305105B1F068F44130510509F40AC1FE
:104D60004230510509F0F7C08BE590E0E4E9F6E048
:104D700057C04132510589F14232510509F43CC016
:104D8000EAC0C901992781309105B9F070F08230ED
:104D90009105D9F0039709F0DEC0E1E0F7E0E49176
:104DA0008E2F90E0E1E0F7E038C0E9E2F7E0E4912F
:104DB0008E2F90E0E9E2F7E030C0E9E1F7E0E4911E
:104DC0008E2F90E0E9E1F7E028C0E7E0F7E0E4911A
:104DD0008E2F90E0E7E0F7E020C08330910508F0E7
:104DE000BAC0880F991FFC01E35BFD4F0190F08171
:104DF000E02D89E090E014C08330910508F0ABC04D
:104E0000FC01EE0FFF1FE95BFD4F0190F081E02DEB
:104E1000DC01AC5BBD4F8C9190E0009709F49BC026
:104E20002091E800277F2093E80020914E063091E2
:104E30004F062817390708F4C90140E0009789F1A7
:104E400020914606222309F43DC02530D9F1209156
:104E5000E80023FD37C02091E80022FD2FC02091FB
:104E6000E80020FFEBCF4091F3002091F20030E00A
:104E7000342B009759F02830310540F44491409389
:104E8000F100319601972F5F3F4FF3CF41E028307B
:104E9000310509F040E02091E8002E772093E800EA
:104EA000CDCF4111CDCF0AC080914606882351F065
:104EB000853041F08091E80083FD04C08091E800D6
:104EC00082FFF2CF8091E8008B778093E80043C0A7
:104ED000803809F040C08091E800877F8093E80027
:104EE000809147068093F1008091E8008E77C7CECD
:104EF000811131C080914A0690914B069927029703
:104F000054F58091E800877F8093E80010914A066D
:104F1000109347060E945F28111106C08091E3009C
:104F200087FD02C081E001C084E08093460642E034
:104F300061EC81E00E947E2842E261EC84E00E9404
:104F40007E2842E261EC82E00E947E2842E260EC30
:104F500083E00E947E288091E80083FF10C080914A
:104F6000E800877F8093E8008091EB008062809367
:104F7000EB0005C082E190E0EFEEF6E051CFAA969B
:104F80000FB6F894DEBF0FBECDBFDF91CF911F915A
:104F900008951F920F920FB60F9211242F933F93F3
:104FA0004F935F936F937F938F939F93AF93BF9331
:104FB000CF93DF93EF93FF93C091E900CF7080917F
:104FC000EC00D82FD17080FDD0E81092E9008091DC
:104FD000F000877F8093F00078940E94EB24109279
:104FE000E9008091F00088608093F000CD2BCF70B5
:104FF000C093E900FF91EF91DF91CF91BF91AF9105
:105000009F918F917F916F915F914F913F912F91E0
:105010000F900FBE0F901F901895E8EDF0E0808183
:105020008E7F80831092E2001092DA001092E100ED
:10503000A0EEB0E08C9181608C9380818F7780832B
:1050400019BCA7EDB0E08C918E7F8C9380818F7E10
:10505000808310925D0608952091E4003091E50070
:1050600095E64091EC00842F817040FF23C0809131
:10507000E80080FD1DC080914606882399F08530A8
:1050800099F08091EB0085FD11C04091E4005091B2
:10509000E5002417350729F3915011F09A01E1CF6B
:1050A00084E0089582E0089583E0089581E0089502
:1050B00080E008954091E80042FFDDCF089580919F
:1050C000480687FF11C08091E80082FD05C08091ED
:1050D00046068111F8CF11C08091E8008B770BC094
:1050E00080914606882349F08091E80080FFF8CF40
:1050F0008091E8008E778093E8000895982F97308C
:1051000068F59093E900981739F07091EC002091C0
:10511000ED005091F00003C0242F762F50E021FDC8
:1051200002C09F5FECCF3091EB003E7F3093EB00ED
:105130003091ED003D7F3093ED003091EB00316018
:105140003093EB007093EC002093ED005093F0004F
:105150002091EE0027FDE5CF80E008958F708093C9
:10516000E90081E00895CF92DF92EF92FF920F93D2
:105170001F93CF93DF93C8EDD0E088818F7E888323
:10518000E7EDF0E080818160808384E082BF81E090
:1051900080935D0688818E7F888302EE10E0F8019F
:1051A00010821092DA0081EEC82ED12CF601108206
:1051B00088818F77888388818068888388818F7DC4
:1051C000888319BC10924606109247061092450635
:1051D0001092440690EEE92EF12CF70180818B7F2E
:1051E000808388818160888342E060E080E00E9463
:1051F0007E28F60180818E7F8083F8018081816026
:105200008083808188608083F70180818E7F8083A6
:10521000888180618883DF91CF911F910F91FF90EA
:10522000EF90DF90CF9008951F920F920FB60F92DC
:1052300011242F933F934F935F936F937F938F939B
:105240009F93AF93BF93EF93FF938091E10082FF11
:1052500009C08091E20082FF05C08091E1008B7F50
:105260008093E1008091DA0080FF2AC08091D8000D
:1052700080FF26C08091DA008E7F8093DA008091D3
:10528000D90080FF18C080E189BD82E189BD09B4E1
:1052900000FEFDCF81E08093460680915D0681117E
:1052A0000FC00E940D280E94B3288091E200846004
:1052B0008093E20005C019BC1092460610925D066C
:1052C0008091E10080FF17C08091E20080FF13C051
:1052D0008091E2008E7F8093E2008091E200806105
:1052E0008093E2008091D80080628093D80019BC3E
:1052F00085E0809346068091E10084FF34C0809170
:10530000E20084FF30C080E189BD82E189BD09B43B
:1053100000FEFDCF8091D8008F7D8093D8008091D2
:10532000E1008F7E8093E1008091E2008F7E809388
:10533000E2008091E20081608093E2008091470664
:10534000882311F084E007C08091E30087FD02C04C
:1053500081E001C083E0809346060E94932A0E9468
:105360006D1610925E068091E10083FF27C0809148
:10537000E20083FF23C08091E100877F8093E100FA
:1053800082E080934606109247068091E1008E7F6E
:105390008093E1008091E2008E7F8093E200809113
:1053A000E20080618093E20042E060E080E00E94E1
:1053B0007E288091F00088608093F000FF91EF914B
:1053C000BF91AF919F918F917F916F915F914F911D
:1053D0003F912F910F900FBE0F901F901895209125
:1053E0004E0630914F062617370748F061157105B4
:1053F00039F42091E8002E772093E80001C0B9012C
:10540000FC0120E06115710579F180914606882341
:10541000F1F18530F1F18091E80083FD3CC080918D
:10542000E80082FD2EC08091E80080FFEBCF209144
:10543000F3008091F20090E0922B6115710551F01C
:105440008830910538F421912093F1006150710961
:105450000196F3CF21E0089709F020E08091E80061
:105460008E778093E800CECF2111CFCF0AC08091F4
:105470004606882361F0853061F08091E80083FD65
:105480000AC08091E80082FFF2CF80E0089582E0B8
:10549000089583E0089581E008950E94E01A292F7D
:1054A0002F70E92FE295EF704E2F50E0FA013297FE
:1054B000EE30F105B8F4E755FF4F0C94792D803F9D
:1054C00099F018F4883E70F40FC0843F59F40CC072
:1054D000883E50F0813F31F407C0822F8695869533
:1054E0008695089580E0089581E0089580E090E039
:1054F0000E94571680E090E00E9441161092180614
:10550000109217060E94581AECE0F4E086E0DF01E2
:105510001D928A95E9F710920904109206041092E0
:105520005F060C94112210921906809110018823B5
:1055300031F08091A80387FF02C08EE101C086E0B0
:10554000EEE8F5E0DF011D928A95E9F70C94762AE2
:10555000882341F08095909119068923809319063C
:105560000C94581A0895882339F090911906892BC4
:10557000809319060C94581A08958823B1F19CEF72
:10558000980F913A30F4682F8CE895E00E947A19D0
:1055900014C090E2980F983090F4877021E030E0CA
:1055A000A90102C0440F551F8A95E2F7CA018095F0
:1055B000909119068923809319060C94581A9BE53B
:1055C000980F933020F480E090E00C94571698E503
:1055D000980F973120F480E090E00C944116803FC2
:1055E00020F00E943C1F0C9411220895CF93882331
:1055F00009F472C0C82F8CEF8C0F813AC0F58091EE
:1056000010018823E1F08091A80387FF18C0EC2FD8
:10561000E695E695E695F0E0E457FA4F8281282F6B
:1056200030E04C2F477081E090E002C0880F991F56
:105630004A95E2F782239323892B61F412C0EEE8A6
:10564000F5E084E995E02191C21721F08E179F07BC
:10565000D1F707C06C2F8CE895E00E947A190E9460
:10566000581A6C2F8CE895E00E94A21910C080E2B5
:105670008C0F883078F4C77081E090E001C0880F0B
:10568000CA95EAF790911906892B80931906CF9154
:105690000C94581AEBE5EC0FE33040F4F0E0E659D7
:1056A000FC4F808190E0CF910C945716E8E5EC0F09
:1056B000E73150F4F0E0EE0FFF1FE359FC4F80811B
:1056C0009181CF910C944116C03F30F08C2F0E94F5
:1056D0000320CF910C941122CF9108951F93CF9363
:1056E000DF93182F893319F0C0E0D0E002C0C0E585
:1056F000D0E0812F0E94F62A209741F08FE99FE0A9
:105700000197F1F700C000002197F6CF812FDF91BC
:10571000CF911F910C94BD2A1092B9008CE0809318
:10572000B8000895EF92FF920F931F93CF93DF93EA
:10573000182FEB011092BC0084EA8093BC000E94F9
:1057400049197C018091BC0087FD0EC0CF3F8FEFCF
:10575000D807C1F30E9449198E199F098C179D071C
:1057600088F38EEF9FEF2EC08091B900887F88303C
:1057700041F08091B900887F803119F08FEF9FEF61
:1057800021C01093BB0084E88093BC000E9449199B
:105790008C018091BC0087FD0CC0CF3F8FEFD807F4
:1057A000C1F30E944919801B910B8C179D0788F348
:1057B000D8CF8091B900887F883111F08034F1F61C
:1057C00080E090E0DF91CF911F910F91FF90EF90DB
:1057D00008950F931F93CF93DF93EB018093BB004A
:1057E00084E88093BC000E9449198C018091BC0020
:1057F00087FD0EC0CF3F8FEFD807C1F30E94491934
:10580000801B910B8C179D0788F38EEF9FEF0CC0C8
:105810002091B900287F81E090E0283211F480E0E7
:1058200090E0919581959109DF91CF911F910F9112
:105830000895CF92DF92EF92FF920F931F93CF9331
:10584000DF936B018A017901B9010E94922BE60175
:105850000C0D1D1DC017D10761F424E92093BC0075
:10586000DF91CF911F910F91FF90EF90DF90CF903C
:10587000089597FDF2CFB70189910E94E92BEACFF5
:105880008F929F92AF92BF92CF92DF92EF92FF9250
:10589000CF93DF93EC01688179818A819B816115C7
:1058A00071058105910521F464E279ED8BE597E0BE
:1058B0002DE133EF41E050E00E94EE2C49015A0106
:1058C0009B01AC01A7EAB1E40E940D2D6B017C01A4
:1058D000ACEEB4EFA50194010E941B2DDC01CB01BD
:1058E0008C0D9D1DAE1DBF1DB7FF03C00197A10903
:1058F000B04888839983AA83BB839F77DF91CF9138
:10590000FF90EF90DF90CF90BF90AF909F908F90DF
:1059100008950E94402C089580E091E00E94402C60
:105920000895A0E0B0E08093000190930101A0935E
:105930000201B09303010895DC01CB01FC01F99948
:10594000FECF06C0F2BDE1BDF89A319600B40D92CB
:1059500041505040B8F70895F999FECF92BD81BDEE
:10596000F89A992780B50895A8E1B0E042E050E0A8
:105970000C949E2CDC01A40FB51F4150504048F000
:10598000CB01840F951F2E910E94CB2C415050408B
:10599000D0F70895262FF999FECF92BD81BDF89AD0
:1059A000019700B4021639F01FBA20BD0FB6F89463
:1059B000FA9AF99A0FBE08950396272F0E94CB2CCE
:1059C0000E94CA2C252F0E94CB2C242F0C94CB2C68
:1059D0000196272F0E94CB2C0C94CA2C052E97FBE6
:1059E0001EF400940E94052D57FD07D00E94202D23
:1059F00007FC03D04EF40C94052D5095409530953E
:105A000021953F4F4F4F5F4F08959095809570952A
:105A100061957F4F8F4F9F4F08950E94422DA59F04
:105A2000900DB49F900DA49F800D911D1124089599
:105A3000B7FF0C940D2D0E940D2D821B930B089522
:105A4000A1E21A2EAA1BBB1BFD010DC0AA1FBB1F82
:105A5000EE1FFF1FA217B307E407F50720F0A21BF4
:105A6000B30BE40BF50B661F771F881F991F1A9461
:105A700069F760957095809590959B01AC01BD018B
:105A8000CF010895A29FB001B39FC001A39F700DE5
:105A9000811D1124911DB29F700D811D1124911D36
:105AA0000895AA1BBB1B51E107C0AA1FBB1FA61765
:105AB000B70710F0A61BB70B881F991F5A95A9F7B7
:105AC00080959095BC01CD01089597FB072E16F4A3
:105AD000009407D077FD09D00E94512D07FC05D016
