:100000000C9406030C944D030C944D030C944D0377
:100010000C944D030C944D030C944D030C944D0320
:100020000C944D030C944D030C9419290C94CE2779
:100030000C94361D0C944D030C944D030C944D03FD
:100040000C944D030C944D030C944D030C944D03F0
:100050000C944D030C94F81C0C944D030C944D031C
:100060000C944D030C944D030C944D030C944D03D0
:100070000C944D030C944D030C944D030C944D03C0
:100080000C944D030C944D030C944D030C944D03B0
:100090000C944D030C944D030C944D030C944D03A0
:1000A0000C944D030C944D030C944D035F066206B3
:1000B000840691069806B8064E074E074E074E076F
:1000C0004E07BB06BD06C206E60607070A070D0770
:1000D0002F07B607DB070C084F088E08D1081A094E
:1000E0001D09220925092A092D0930093309360974
:1000F00039093C093F09420945094A094D09500996
:1001000055099209D3091D0A200A230A260A2B0A37
:10011000360A390A440A470A520A550A600A630A2B
:100120006E0AC419C419FE19FE19571AFE1BFE1BCC
:10013000FE1B731A511B621B621BE2250926B027A6
:100140000926B02755267826B0276D277D27642AF3
:10015000642A772A772A6D2A772A772A772A642AC7
:10016000642A722A772A772A722A00010101010182
:100170000101010102020202020202020203030360
:100180000303030303040404040404040505050530
:1001900005060606060607070707070808080809F0
:1001A0000909090A0A0A0B0B0B0C0C0C0D0D0D0E9C
:1001B0000E0E0F0F0F101011111112121313141431
:1001C000151516161717181819191A1A1B1B1C1DA6
:1001D0001D1E1E1F202021222223242425262627FF
:1001E0002829292A2B2C2D2D2E2F30313232333431
:1001F00035363738393A3B3C3D3E3F404142434437
:1002000045464748494A4C4D4E4F50515354555618
:1002100058595A5B5D5E5F616264656668696B6CC4
:100220006D6F7072737577787A7B7D7E808283853F
:1002300087888A8C8E8F91939596989A9C9EA0A27F
:10024000A3A5A7A9ABADAFB1B3B5B7BABCBEC0C289
:10025000C4C6C9CBCDCFD1D4D6D8DBDDDFE2E4E74D
:10026000E9EBEEF0F3F5F8FAFDFF290000003A00A3
:100270003B003C003D003E003F00400041000000CC
:1002800042004300440045004B0035001E001F00A3
:100290002000210022002300240025002600270042
:1002A0002D002E0000002A0049002B0014001A0027
:1002B0000800150017001C0018000C0012001300A5
:1002C0002F003000310000004C00390004001600FF
:1002D000070009000A000B000D000E000F0033009C
:1002E00034000000280000004E00E10000001D0066
:1002F0001B00060019000500110010003600370031
:100300003800E500000052000000E000E300E200D9
:100310000000000000002C0000000000000001515F
:10032000E4005000000051004F00010000000100F7
:1003300001000100010001000100010001000000B6
:1003400001000100010001000100010001000100A5
:100350000100010001000100010001000100010095
:10036000010001000000010001000100C35C010068
:100370000100010001000100010001000100010075
:1003800001000100005C000001000100010001000B
:100390000100010001000100010001000100010055
:1003A00001000000DE5C000001000100000001000F
:1003B0000100010001000100010001000100010035
:1003C0000100010000000100000001000100010027
:1003D000000000000000010000000000000001001B
:1003E0000100010000000100010000000000000009
:1003F00000000000000000000000000000000000FD
:1004000000000000000000000000000000007E0F5F
:1004100000D4FFFFFFC700000078000000000000CC
:1004200000002A2B2800000000000000000000004F
:10043000000000000029000000002C1E34202122B2
:1004400024342627252E362D3738271E1F2021221B
:10045000232425263333362E37381F040506070894
:10046000090A0B0C0D0E0F10111213141516171884
:10047000191A1B1C1D2F3130232D350405060708C2
:10048000090A0B0C0D0E0F10111213141516171864
:10049000191A1B1C1D2F3130354C05010980A10193
:1004A000850319012AB700150126B70095017510BB
:1004B0008100C0050C0901A101850419012AA002CF
:1004C000150126A002950175108100C005010906DD
:1004D000A1018505050719E029E715002501950803
:1004E000750181020507190029EF1500250195F016
:1004F000750181020508190129059505750191020B
:10050000950175039101C00660FF0961A1010962AF
:10051000150026FF00952075088102096315002645
:10052000FF00952075089102C005010906A101058B
:100530000719E029E7150025019508750181029545
:1005400001750881010507190029FF150026FF0024
:10055000950675088100050819012905950575019D
:100560009102950175039101C009025B000301002E
:10057000A0FA090400000103010100092111010092
:10058000012240000705810308000A090401000256
:100590000300000009211101000122220007058249
:1005A00003200001070503032000010904020001E4
:1005B00003000000092111010001226D00070584DC
:1005C0000320000A1201100100000008424B08003D
:1005D0000100010200011E03420045004C004C00D6
:1005E00041002000520047004200200041004E0020
:1005F00053004900000010034B0042004400460035
:1006000041004E00530000000403090411241FBEE2
:10061000CFEFDAE0DEBFCDBF04B603FE27C0809186
:100620000A0990910B09A0910C09B0910D0987302E
:10063000904BA740B04BD1F410920A0910920B09CD
:1006400010920C0910920D0914BE84B7877F84BFE5
:100650000FB6F894A895809160008861809360003F
:10066000109260000FBEE0E0F8E3099514E0A0E00E
:10067000B1E0E6EFFAE502C005900D92AE3DB1079C
:10068000D9F729E0AEEDB4E001C01D92AA30B2075F
:10069000E1F70E944F030C94792D0C940000CF9346
:1006A000DF93CDB7DEB7E1970FB6F894DEBF0FBE8C
:1006B000CDBF84B7877F84BF0FB6F894A89580918B
:1006C0006000886180936000109260000FBE90E02F
:1006D00080E80FB6F89480936100909361000FBE9C
:1006E00085B7806885BF85B7806885BF87E59CE151
:1006F0009093DF048093DE040E9412280E94B828A1
:100700008091E20084608093E20078948091C70831
:100710008823A1F01091E9001F709091EC00892FBF
:10072000817090FD80E8182B1092E9008091E8001C
:1007300083FD0E94FC241F701093E90082E084BDB9
:1007400093E095BD9AEF97BD80936E000CE211E0A7
:1007500042E3E42E41E0F42ED8018D918D010E94F8
:10076000B012E016F106C1F702E311E032E4E32E25
:1007700031E0F32EF80181918F010E94B012E01652
:10078000F106C1F7E2EEF4E08EEE94E0AFE2B5E000
:10079000119211921D921D928E179F07C9F780E04A
:1007A00090E00E949E2C8A3E9E4F11F00E94C91D2F
:1007B00082E090E00E94962C809322050E94B81D52
:1007C0009093E1048093E0040E94C2148FE39CE9BB
:1007D0000197F1F700C000000E94C21480912F051C
:1007E00080FF17C06FEF83E290E00E94B42C6FEFA0
:1007F00084E290E00E94B42C6FEF85E290E00E94CA
:10080000B42C6FEF7FEF80E090E00E94D22C0E942A
:10081000D41C83E090E00E94962C682F70E080E06A
:1008200090E00E94AB1F0E945B0E1092D108EAEE8E
:10083000F8E08AEF98E02FEF3FEF219331938E1786
:100840009F07D9F71092EE04E7E0F5E08FEF9FEFF6
:1008500081939193A5E0E731FA07D1F780E090E02A
:100860000E949E2C8A3E9E4F21F00E94C91D0E942C
:10087000FC1046E050E06CE170E08EEF98E00E94E2
:10088000862C8091FE088C7F11F40E94FC1083E27C
:1008900090E00E94962C813281F484E290E00E94E4
:1008A000962C863051F485E290E00E94962C91E0DF
:1008B000843109F090E0892F01C080E080FF1EC3E1
:1008C00086E091E090931C0580931B05FF24FA9429
:1008D000FE0131961F018E01035F1F4F1CA70BA75E
:1008E0000E94C21481110E941E1DA3E2B5E0EFE236
:1008F000F5E000E010E0402FA190B1908D919D9126
:100900008A259B25009709F4AFC0E12CCC24C39421
:10091000D12C9C012C213D21232B09F49FC0E9A25D
:100920004AA3AC20BD2081E0A114B10409F480E009
:100930008BA30E942A1D8160782F9DA38CA349A1BF
:100940005AA16BA18DA10E946B0FF801EE0FFF1F42
:10095000ED5DFA4F80819181C826D926D182C0826F
:10096000AB2889F0F801B4E0EE0FFF1FBA95E1F76C
:10097000E75FFC4FEE0DF11D80818F3F21F08DA7C9
:10098000EE24E39401C0E12CB090EE040E2D10E0B3
:10099000C8018B0D911D0997A4F1E8E0CE2ED12C52
:1009A000C01AD10AB8016F5F7F4F62517B4FA60119
:1009B0008FEE94E00E94702DB801675F7F4F625107
:1009C0007B4FA60187EF94E00E94702DA601440F93
:1009D000551FB801660F771F675E7F4F62517B4FCF
:1009E00087E095E00E94702DB8016F5E7F4F6251E5
:1009F0007B4FA6018FEF94E00E94702DBA94B092C5
:100A0000EE048091EE0490E01DA5A12FB0E09D01C1
:100A1000220F331F27593C4FAA0FBB1FBD01665938
:100A20007C4F41E0480F9E15B0F490E0FC01E2518C
:100A3000FB4FD9015C915183DB015C9151870DA57E
:100A4000018B880F991FFC01E251FB4F128E118E12
:100A500091E0842FE6CF8093EE041BC0E394CC0C8E
:100A6000DD1C20E1E21255CF0F5F1F4F063011054C
:100A700009F041CFFEA2FFA218A60E942A1D8160A4
:100A8000782F9AA789A74EA15FA168A58AA50E9481
:100A90006B0F8091170590911805A0911905B091E1
:100AA0001A052FB7F89480901D0590901E05A09010
:100AB0001F05B09020052FBF881A990AAA0ABB0A01
:100AC0000E941E1D609317057093180580931905E9
:100AD00090931A05A091EE04EEEEF4E0EA2EB0E059
:100AE00044244A94542C612C712C481859086A08E3
:100AF0007B08AB1799F0418D528D8A0120E030E0E0
:100B0000401651066206730610F4EA9404C0480DBC
:100B1000591D528F418FBF5F3296EBCFE092EE04AA
:100B200020910909211108C01091FE08212F23707E
:100B300019F01695169501C010E02091280121307A
:100B4000F9F038F0223009F43FC0233009F449C0ED
:100B500065C0109225016093FA087093FB0880939A
:100B6000FC089093FD0889E2EEEEF4E0A1EDB8E018
:100B700001900D928A95E1F711E0109328014EC083
:100B80008091050118130DC02091FE08237030E0FC
:100B90004091040150E081E02417350719F480E00A
:100BA00001C081E0817080932701809103099091B9
:100BB0002601981709F4BBC18093260140E060E04C
:100BC00080E00E94DC10B3C1109305018091FE0803
:100BD0008370809304010E94FE0D83E080932801BE
:100BE0001DC04091FA085091FB086091FC0870917B
:100BF000FD082FB7F89480911D0590911E05A091D6
:100C00001F05B09120052FBF841B950BA60BB70BBA
:100C10004A97A105B10510F0109228010E943510E5
:100C200090912105891721F00E94351080932105AC
:100C30008091C708843009F053CE83E08093E900A7
:100C40008091E80082FF4CCE8091E80085FF21C0B2
:100C50000E94312881111BC000E210E0CE010196F4
:100C60006C0108C08091F100D6018D936D01015097
:100C7000110969F08091E80085FDF4CF8091E800CA
:100C80008B778093E8000E943128882399F391E0C4
:100C900001C090E08091E8008B778093E800992371
:100CA00009F41ECEE9818E2F90E0FC013197E331EB
:100CB000F10508F0F3C0EA5AFF4F0C94632D1A8235
:100CC00089E05EC08A81823009F40FC1833051F01F
:100CD000813009F0E3C00E941E1D9B838C837D83BD
:100CE0006E83DDC0FE013196AFE2B5E08C911196C6
:100CF0009C91119712969283838332960BA51CA523
:100D00000E171F0799F7CBC08A81823009F0C6C041
:100D10006B817C818D819E810E94692D86E290E0AD
:100D200024C04C816B818A810E94A3109D83E4C002
:100D3000CD80DE80DC24CD24DC248C810B819A8163
:100D400020E2029F8001112430EC939F000D111DC1
:100D50001124080F111D080F111D6D2DC801879654
:100D60000E94B42C6C2DC80188960E94B42C97C0A8
:100D70000E94511094C080E14EC082E08A8389E5D0
:100D80008B838DC00A811B81102701271027AC801F
:100D9000B12C6101C80189559E4F96012219330972
:100DA0002A153B0508F07BC0093552E0150730F4E1
:100DB0000E94962CD60114968C9302C0F6011482E0
:100DC0000F5F1F4FFFEFCF1ADF0AE4CF0A811B81AD
:100DD000102701271027AC80B12C6101C80189556B
:100DE0009E4F9601221933092A153B0508F057C07A
:100DF000093522E0120728F4D60114966C910E945E
:100E0000B42C0F5F1F4FBFEFCB1ADB0AE7CF0E9456
:100E1000411045C082E08A8342C00A811B811027AD
:100E200001271027AC80B12C6101C801879696017B
:100E3000221933092A153B0590F50038E1E01E0719
:100E400030F40E94962CD60114968C9302C0F601C1
:100E500014820F5F1F4FFFEFCF1ADF0AE6CF0A8120
:100E60001B81102701271027AC80B12C6101C8011C
:100E700087969601221933092A153B0580F400381C
:100E800021E0120728F4D60114966C910E94B42C2C
:100E90000F5F1F4FBFEFCB1ADB0AE9CFF9828091BA
:100EA000C708843009F01CCD1091E9001F709091A3
:100EB000EC00892F817090FD80E8182B82E08093F0
:100EC000E9008091E80080FF0CC040E050E060E263
:100ED00070E0C1010E94D0248091E8008E77809359
:100EE000E8001F701093E900FBCC86E290E00E94BE
:100EF000962C1B821C821D828E83D1CF60E086E2FD
:100F000090E00E94B42C0E9451100E94411061E2B6
:100F100083E290E00E94B42C66E084E290E00E94BC
:100F2000B42C64E185E290E00E94B42CC9CC812FFE
:100F300090E088329105D0F1809125018F5F8093F8
:100F4000250182E0809328018091270181111FC033
:100F5000112309F442CEE0911B05F0911C05309756
:100F6000D1F00190F081E02D099516C08091270104
:100F7000882329F040E060E080E00E94DC1080E0FF
:100F8000909125019F5F909325018823D1F2112331
:100F900009F444CEE0CF80E081FF40CE2FEF4FEF49
:100FA0006FEF8CE290E00E94DE1038CEFC01E75932
:100FB000FF4F0C94632D00912501000F000F54E0AA
:100FC000E52EE00E2CE62E1510F44CE6E42E609192
:100FD000FF0870910009809101090E94B811D62E76
:100FE000C72EB82E0E1590F4E02FF0E0DF01AF5BB6
:100FF000BB4F8C9190912601982331F02B2D4D2DD4
:101000006C2DCF010E94DE100F5FECCF81E03BE63C
:101010003E1508F0B5CFB3CF00912501000F000FAA
:1010200034E0E32EE00E5CE65E1510F42CE6E22ED2
:10103000C0900009D0900109B090FF086B2D7C2D65
:101040008D2D0E94B811A62E972E882E6091020930
:101050006B0D7C2D8D2D0E94B811D62EC72EB82E6B
:101060000E15B8F4802F90E0FC01EF5BFB4F308150
:1010700020912601232359F030FF04C02B2D4D2D44
:101080006C2D03C0282D4A2D692D0E94DE100F5FA4
:10109000E7CF81E09BE69E1508F072CF70CF0091FC
:1010A0002501000F000F94E0E92EE00EACE6AE152E
:1010B00010F48CE6E82EA090000990900109209190
:1010C0000209B0E4BB2E3B2D329F312D1124B32EEB
:1010D0000E1508F0A9C0C02ED12CF601EF5BFB4F16
:1010E0009081809126018923B9F0F601EE0FFF1F50
:1010F000E659FC4F808182958F706091FF088B9D2F
:10110000600D11247A2D892D0E94B811462F282FA9
:10111000672FC6010E94DE100F5FDACF0091250114
:10112000000F000FE4E0EE2EE00E8CE68E1510F4BA
:101130007CE6E72EA0900009909001092091020919
:1011400060E4B62E3B2D329F312D1124B32E0E15A7
:1011500008F06AC0C02ED12CF601EF5BFB4F9081E6
:10116000809126018923D9F0F601EE0FFF1FE75980
:10117000FC4F6081B69EB001112455E075956795CE
:101180005A95E1F78091FF08680F7A2D892D0E940A
:10119000B811462F282F672FC6010E94DE100F5F5F
:1011A000D6CF00912501000F000F34E0E32EE00EB2
:1011B0008CE68E1510F42CE6E22EC090FF08D0903D
:1011C0000009B090010960910209669566956695DF
:1011D0008091FA089091FB080E94AE110E940F11B5
:1011E000805887FD8195880F282F3B2D239F212D27
:1011F0001124822FB6010E94B811D62EC72EB82E08
:101200000E1590F4E02FF0E0DF01AF5BBB4F8C9147
:1012100090912601982331F02B2D4D2D6C2DCF016F
:101220000E94DE100F5FECCF81E05BE65E1508F0F8
:10123000A7CEA5CE84EC9CE002C088E99CE00E9489
:10124000E2229ECE8DE99DE002C08EE79DE00E94E5
:10125000882296CE83E69DE01AC087E49DE017C001
:1012600086E99CE0ECCF8DE89CE0E9CF84E89CE047
:10127000E6CF89E69CE0E3CF8AE59CE008C085E8FC
:1012800091E1E5CF86E39DE0E2CF82E29DE00E941E
:101290000E2276CE8CE29CE005C08AEF9BE002C075
:1012A0008CEB9BE00E942A236BCE80912701811159
:1012B0001EC06091020920E1620F08F46FEF809177
:1012C000FA089091FB080E94AE116AE070E00E945B
:1012D0003B2D892B09F053CE0E94762C6CE670E0F2
:1012E0000E944F2D609126010E94481248CEA09086
:1012F00025018A2D880F880F04E0080F0D3608F0AD
:101300000CE6A82EB12CC02ED12CAC14BD040CF0D0
:1013100045C060912601C5010E9448128FEFA81AAE
:10132000B80AF3CF8091270181111EC06091020994
:1013300020E1620F08F46FEF8091FA089091FB08AA
:101340000E94AE1165E070E00E943B2D892B09F0F0
:1013500016CE0E94762C6CE670E00E944F2D6091B4
:1013600026010E948E120BCEA09025018A2D880F97
:10137000880F04E0080F0D3608F00CE6A82EB12CFB
:10138000C02ED12CAC14BD044CF460912601C501D3
:101390000E948E129FEFA91AB90AF4CF81E00C3691
:1013A00008F4EECDECCD00912501000F000F94E084
:1013B000E92EE00EACE6AE1510F48CE6E82EC090F7
:1013C0000009D0900109B090FF086091020966956C
:1013D000669566958091FA089091FB080E94AE117F
:1013E0000E940F11805887FD8195880F682F2CE08F
:1013F000629F612D11246B0D7C2D8D2D0E94B811E3
:10140000D62EC72EB82E0E1590F4E02FF0E0DF0197
:10141000AF5BBB4F8C9190912601982331F02B2D1F
:101420004D2D6C2DCF010E94DE100F5FECCF81E0BF
:10143000BBE6BE1508F0A4CDA2CD80E391E1FFCEBE
:101440008BEA9BE0FCCE84EA9BE002C08EE99BE045
:101450000E94892395CD8091D108082F21E0021B9D
:1014600008F400E0802F65E87BE03BC065E87BE0A6
:1014700037C08091D108382F51E0351B08F430E097
:10148000832F6DE47BE02DC06DE47BE029C080916B
:10149000D108082F21E0021B08F400E0802F6BE147
:1014A0007BE01FC06BE17BE01BC08091D108382F2F
:1014B00051E0351B08F430E0832F63E07BE011C07E
:1014C00063E07BE00DC08091D108082F21E0021B72
:1014D00008F400E0802F6DEE7AE003C06DEE7AE054
:1014E00080E00E94F3234CCD0F931F93CF93DF93A3
:1014F0008C36910508F052C0880F991F880F991FEC
:10150000FC01E55BFE4F508152955F703181732F76
:101510007295707FC72FC52B32953F70D32FD37034
:10152000FC01E45BFE4F3081329536953695337081
:101530005181752F770F770FA72FA32BB52FB2955A
:10154000B695B695B370FC01E65BFE4F8081382FEF
:101550003370982F969596958181582F5295550FF7
:10156000550F507C052F092B86958695182F1370E3
:10157000EFE5F1E03E9FC0013F9F900D11248156A1
:10158000994FFC01E00FF11F6083C80FD91F4883FA
:10159000A80FB91F2C9381E080939E06DF91CF9115
:1015A0001F910F910895FF920F931F93CF93DF9395
:1015B000182F062FF42EC0E0D0E02F2D402F612FE2
:1015C000CE010E94740A2196CC36D105B1F7DF9185
:1015D000CF911F910F91FF900895EF92FF920F937B
:1015E0009701201B31092F3F310519F010F02FEF23
:1015F00030E02095382F320F08F43FEF832F0F9102
:10160000FF90EF900895EF92FF920F939701201BA8
:1016100031092F3F310519F010F02FEF30E0322F54
:101620003095482F430F08F44FEF842F620F0F912E
:10163000FF90EF900895EF92FF920F93972F093448
:1016400038F4B701601B71096F3F710519F010F094
:101650006FEF70E0485F5F4F4131510540F0A901E5
:10166000485F5F4F4131510510F06FEF70E06095BA
:10167000482F460F08F44FEF842F37FF02C02D5F2D
:101680003F4F35952795359527956091FF08620F57
:10169000792F0F91FF90EF900895EF92FF920F93A3
:1016A000E00EF11CF90137FF03C0F195E195F10956
:1016B00024E0EE0FFF1F2A95E1F7EF3FF10519F047
:1016C00014F0EFEFF0E09A0157FF03C03195219538
:1016D000310994E0220F331F9A95E1F72E173F0747
:1016E0000CF4F901EE0DFF1DEF3FF10519F010F0BC
:1016F000EFEFF0E02E2F2095382F320F08F43FEF58
:10170000832F0F91FF90EF900895EF92FF920F9328
:10171000970195E0099F200D311D11242F3F3105C0
:1017200019F010F02FEF30E02095382F320F08F429
:101730003FEF832F0F91FF90EF90089522E8241B35
:1017400008F420E0620F08954095282F429F412D14
:101750001124842F0895E42FF0E0EE0FFF1FE759C6
:10176000FC4F9081921B97FD9195292F38E1239F83
:10177000212D1124620F08950F931F9310E0F8019B
:10178000EE0FFF1FE759FC4F9081905797FD919501
:10179000000F111FF801E659FC4FE081F0E0B0970F
:1017A000DF01AA0FBB1F8D010E0F1F1F2003D001E9
:1017B000219FB00D1124E8E3F0E0E91BF10997FD4A
:1017C000F3959F01220F331F89010E0F1F1F400346
:1017D0009001419F300D11242A0F3B1F37FF02C09B
:1017E00021583F4F220F232F221F330B620F1F91CF
:1017F0000F9108950F931F93522F10E0F801EE0FF1
:10180000FF1FE659FC4FE081F0E0B097EE0FFF1F9D
:101810009F015203D001539FB00D1124000F111FDF
:10182000F801E759FC4F008110E000571109000F43
:10183000111F40039001419F300D11242A0F3B1FBF
:1018400037FF02C021583F4F220F232F221F330B97
:10185000620F1F910F9108950F931F93522F10E065
:10186000F801EE0FFF1FE659FC4FE081F0E0B09762
:101870009F015203D001539FB00D1124000F111F7F
:10188000F801E759FC4F008110E0005711094003AF
:101890009001419F300D11242A0F3B1F37FF02C0DA
:1018A00021583F4F220F232F221F330B620F1F910E
:1018B0000F910895EF920F931F9393E0099F80017A
:1018C0001124159507956E2D600F1F910F91EF90C4
:1018D0000895A22F50E0FA01EE0FFF1FE659FC4FCA
:1018E0009081905297FD9195440F551FFA01E75949
:1018F000FC4F3081232F30E02A1B3109290F311D85
:1019000097FD3A95620F0895E42FF0E0EE0FFF1F68
:10191000E659FC4F6081621B0895E42FF0E0EE0F62
:10192000FF1FE759FC4F6081621B0895622F0895E5
:10193000E42FF0E0EE0FFF1FE759FC4F408134EE3B
:10194000439F412D1124E82FF0E050E0445E5F4FAB
:10195000DA01A21BB1099D01B7FF03C031952195A2
:10196000310993E0220F331F9A95E1F7AF01421B33
:10197000530B9A0157FF02C020E030E0582F259FFB
:10198000212D1124822F0895E42FF0E0EE0FFF1F88
:10199000E759FC4F408134EE439F412D1124E72F3E
:1019A000F0E050E0445E5F4FDA01A21BB1099D01F7
:1019B000B7FF03C031952195310993E0220F331F02
:1019C0009A95E1F7AF01421B530B9A0157FF02C0F2
:1019D00020E030E0279F212D1124722F0895FC0173
:1019E0009B01009721F477FF2BC080E80895AC019C
:1019F00097FF04C044275527481B590BB901640FB2
:101A0000751F37FD0CC0241B350BC901A5E0880FDD
:101A1000991FAA95E1F70E944F2D80E20CC0CB01DF
:101A200065E0880F991F6A95E1F7BA01621B730B95
:101A30000E944F2D80E6861BF7FF03C08195089515
:101A400080E00895EF920F93CF93DF93D72FC82FA5
:101A5000C9010E19BA010E94EF0C602F681B7D2F7F
:101A60008C2FDF91CF910F91EF9008950F93CF932B
:101A7000DF93D72FC82FC901BA010E94EF0C682F3E
:101A8000600F7D2F8C2FDF91CF910F910895EF92F2
:101A90000F931F93CF93DF93D62FC72F182FC90112
:101AA0000E19010FBA010E94EF0C081B202F219F75
:101AB000212D1124822F6D2F7C2FDF91CF911F912B
:101AC0000F91EF900895EF920F931F93CF93DF93B1
:101AD000D62F172FC82FC9010E19070FBA010E9460
:101AE000EF0C702F781B719F712D11246D2F8C2F8F
:101AF000DF91CF911F910F91EF900895FF920F9377
:101B00001F93CF93DF93F62ED72F182FC901C12F24
:101B1000C01BBA010E94EF0C982F990F890FC81BA8
:101B20002C2F219F212D1124822F6F2D7D2FDF91AE
:101B3000CF911F910F91FF900895FF920F931F93E4
:101B4000CF93DF93F62E172FD82FC901C72FC01BB5
:101B5000BA010E94EF0C982F990F890F7C2F781BE8
:101B6000719F712D11246F2D8D2FDF91CF911F91BA
:101B70000F91FF9008959091E00492FF0DC0282FDF
:101B80002871283019F4877F846006C0282F2471BB
:101B9000243011F48B7F886093FF0DC0282F2871AB
:101BA000283119F4877E846106C0282F24712431DE
:101BB00011F48B7E88612091E10420FF0DC0382F45
:101BC0003871383019F4877F816006C0382F317141
:101BD000313011F48E7F886021FF0DC0282F2871CD
:101BE000283119F4877E816106C0282F21712131A7
:101BF00011F48E7E886194FD877E08950F931F9364
:101C0000CF93DF9380919E06882309F44DC065EC45
:101C10008EEF0E94C42460E08DEF0E94C424C0E0D7
:101C2000D0E004EB10E0CE01B8010E944F2D80936C
:101C3000110182E1FE01E156F94FA2E1B1E001900C
:101C40000D928A95E1F724E630E043E150E061E14E
:101C500071E080E60E94032C892B31F56296C6352F
:101C600081E0D80761F0C43BD105E9F665EC8EEF61
:101C70000E94C42461E08DEF0E94C424D4CF82EA84
:101C80008093110189E0E5EFF7E0A2E1B1E0019076
:101C90000D928A95E1F724E630E04AE050E061E1F8
:101CA00071E080E60E94032C10929E06DF91CF9196
:101CB0001F910F910895EF92FF920F931F93CF936F
:101CC000DF930E94762B65EC8EEF0E94C42464E0C3
:101CD0008DEF0E94C42461E080E00E94C4246FEF75
:101CE00081E00E94C42467E782E00E94C4248FE35D
:101CF0009CE90197F1F700C00000A0E0B0E0CFE55B
:101D0000D1E0FF24FA94EE24E394CD01880F991FCB
:101D1000880F991FFC01E55BFE4F308132953F70C3
:101D20002181422F4295407F642F632B22952F7093
:101D3000722F7370FC01E45BFE4F40814295469523
:101D4000469543705181E52FEE0FEE0F2E2F242B79
:101D5000352F3295369536953370FC01E65BFE4F94
:101D60004081842F837090E0542F56955695418181
:101D7000E42FE295EE0FEE0FE07C0E2F052B46953B
:101D80004695142F13708C9FA0018D9F500D9C9F22
:101D9000500D1124425C5A4FFA01E00FF11FF082FE
:101DA000FA01E60FF71FF082FA01E20FF31FF0824B
:101DB000FC01E356F94FE0821196AC36B10509F00B
:101DC000A4CF80919D06882351F165EC8EEF0E948F
:101DD000C42462E08DEF0E94C4240EE315E0C0E04D
:101DE000F80161918F018C2F0E94C424CF5FC43B06
:101DF000B9F765EC8EEF0E94C42463E08DEF0E947A
:101E0000C42402EF15E0C0E0F80161918F018C2F2E
:101E10000E94C424CF5FCB3AB9F710929D06DF91A0
:101E2000CF911F910F91FF90EF900895EEEFF8E0A2
:101E3000438120E1421B08F440E08181628190E00F
:101E40000C94B424EEEFF8E0438120E1420F08F453
:101E50004FEF8181628190E00C94B424EEEFF8E0C2
:101E6000628120E1621B08F460E08181438190E09F
:101E70000C94B424EEEFF8E0628120E1620F08F4E4
:101E80006FEF8181438190E00C94B424EEEFF8E091
:101E9000818190E04381628108970C94B424EEEF35
:101EA000F8E0818190E04381628108960C94B4242B
:101EB0008091FE0886958695815009F487E20C94FE
:101EC000F8218091FE08869586958F5F883208F00C
:101ED00081E00C94F8211F93CF93DF93CDB7DEB749
:101EE00067970FB6F894DEBF0FBECDBF342F4B8B74
:101EF000252F5C8B6D8B7E8B8F8B4E895F8961115B
:101F000010929C0886E0FE013D96DF01982F1D92FD
:101F10009A95E9F73D872E876F87598B488BDE01AD
:101F2000179601900D928A95E1F7CE0107960E94CF
:101F30002B2081113EC086E0FE013796DE0111960E
:101F400001900D928A95E1F7FF81E8856A857B858E
:101F50006115710531F0EF3F31F481E0FF3F19F475
:101F600003C081E001C080E080FD23C020912C08E7
:101F700030E0C90101968770992740915D0850E0D3
:101F80008417950779F1F983EA837D836C8396E062
:101F9000929FD001939FB00D1124A35DB74FFE0116
:101FA000319601900D929A95E1F780932C080E944A
:101FB000B51F16E080915D0890912C088917F9F003
:101FC000189FC0011124835D974F0E942B20882306
:101FD000B1F080915D0890E0019687709927809319
:101FE0005D08E8CF0E94892A10922C0810925D08A3
:101FF000E6E2F8E086E0DF011D928A95E9F7679650
:102000000FB6F894DEBF0FBECDBFDF91CF911F9109
:10201000089520910208309103082817390771F0BC
:102020009093030880930208E0911B05F0911C0532
:10203000309721F00084F185E02D099408952091D6
:102040000008309101082817390771F090930108B2
:1020500080930008E0911B05F0911C05309721F05A
:102060000680F781E02D09940895E0911B05F09119
:102070001C05309721F00190F081E02D099480E05B
:102080000895CF93DF93C7EAD1E060E0CE010E94CC
:10209000B42C2196C11584E0D807B9F7DF91CF9110
:1020A00008956F927F928F929F92AF92BF92CF923C
:1020B000DF92EF92FF920F931F93CF93DF93C0E0D5
:1020C000D0E000E010E03E0187E2680E711C630181
:1020D000C00ED11EE12CF12C4E01800E911EF40198
:1020E000EE0DFF1DE659FD4FA590B4906B2DC60176
:1020F0000E94B42C6A2DC60101960E94B42C82E085
:10210000E80EF11C82E0C80ED11C80E2E816F10452
:1021100031F7005E1F4F003C1105C9F6C054DF4F78
:10212000C03881E0D80769F6DF91CF911F910F91F8
:10213000FF90EF90DF90CF90BF90AF909F908F90E7
:102140007F906F9008950F931F93CF93DF93C42FC9
:10215000D0E0CC0FDD1F20E2629FC00DD11D112405
:1021600030EC839FC00DD11D1124CE0187960E94B3
:10217000962C082F10E0102F0027CE0188960E9481
:10218000962C9801282BC901DF91CF911F910F91B7
:102190000895462F823038F4763028F4603118F4F0
:1021A000672F0C94A31080E090E00895882311F02D
:1021B000FA0101C0FB0109940C94D30A0C94740A2F
:1021C00046E050E06CE170E08EEF98E00C94A42CB7
:1021D000EEEFF8E0248130E1230F08F42FEF2483A1
:1021E0000C94E010EEEFF8E0248130E1231B08F4BA
:1021F00020E024830C94E010EEEFF8E081E380838C
:102200008091290190912A01A0912B0181839283D1
:10221000A3838FE784838FEF85830C94E010482F8E
:10222000982F46FD9095E92FEF739F7046FD9F5FB5
:10223000E295EF70EE0FF0E0EE5BFE4F2181299FFB
:10224000802D212D112482958F702295207F822B45
:102250003081982F930F892F47FD819580580895DD
:102260000F931F93CF93DF93D62F072F182FC42FD1
:10227000822F0E940F11EC2FF0E0EE0FFF1FE759A5
:10228000FC4F90819058890F87FD8195880F682FAA
:102290002CE0629F612D11246D0F702F812FDF9133
:1022A000CF911F910F910895BC018230910508F4E0
:1022B0000895613E8EE1780748F49B0195E03695DC
:1022C00027959A95E1F748E0420F01C04FEF91E062
:1022D000242F30E0290F311D35952795229FF001DD
:1022E000239FF00DF00D11246E177F0718F44FEFA8
:1022F000420F04C02F3F39F091E0920F491740F789
:102300008FEF890F08958FEF08950F93CF93DF9389
:10231000D72FC82F47FD4195E8E3F0E0CF01841B9C
:10232000910947FD9395889FB001899F700D700DAD
:102330001124229FC001239F900D900D1124860F20
:10234000971F0E945411682F660F860F682F600F29
:102350007D2F8C2FDF91CF910F91089520E030E0F9
:10236000869F212D969F200D311D1124C9010895AE
:10237000CF92DF92EF92FF920F931F93CF93DF9351
:10238000F62E472FE82FF0E0711106C0E659FE4FF8
:102390008491782F682F73C0272F30E0E659FE4FC5
:1023A000E491FE2F0E2F10E056E0659FC00111242E
:1023B000CFEFD0E0BE010E943B2D5BEA5603C00187
:1023C000579F900D11248F0D911D8F0D911D982FEA
:1023D000990F980F7E01E21AF30AE09ED001E19E68
:1023E000B00DF09EB00D11248B2F499FA001112438
:1023F000452F55277E01E41AF50AE09EA001E19ED3
:10240000500DF09E500D11246E01C91AD108C29EC4
:102410007001C39EF00CD29EF00C11242F2D332797
:10242000C21BD30BC09F9001C19F300DD09F300DB8
:102430001124932F6230710591F048F461157105F4
:10244000E1F061307105B9F49E2FE52F16C06430BC
:10245000710569F040F06630710579F00CC09E2F6F
:10246000EB2F832F0AC0EB2F8F2F952F06C09B2FAA
:102470008E2FE32F02C09B2F852F7E2F692FDF9198
:10248000CF911F910F91FF90EF90DF90CF90089523
:10249000DF92EF92FF920F931F93CF93DF93EC01A4
:1024A000FC01EF5BFB4F9081692381F1D090000923
:1024B000009101091091FF08E12EF12C0E94762C69
:1024C000282FC7018C549F4F68E671E00E944F2D62
:1024D0008E199F0997FD03969595879595958795F4
:1024E0002370612F289F600D11247D2D802F0E9465
:1024F000B811462F282F672FCE01DF91CF911F9162
:102500000F91FF90EF90DF900C94DE10DF91CF9150
:102510001F910F91FF90EF90DF9008951F93CF933D
:10252000DF93FC01EF5BFB4F20816223A9F0EC01FC
:102530000E94762C182F0E94762C612F782F809184
:1025400001090E94B811462F282F672FCE01DF9175
:10255000CF911F910C94DE10DF91CF911F910895C0
:10256000F894E82FE295EF70F0E031A1282F2F705A
:1025700081E090E001C0880F2A95EAF7982F9095A6
:10258000932391A392A1892B82A378940895CF934A
:10259000DF930E94C910EC018238910559F1A0F433
:1025A0008133910509F473C040F48932910509F42F
:1025B00067C08A9709F472C084C08533910509F415
:1025C00058C0C997B9F07DC0833E910571F138F4C8
:1025D000803E9105B1F0823E910511F172C0863EB8
:1025E0009105B9F1873E9105C9F1843E910509F045
:1025F00068C024C08091E00480FD5DC081FD5BC0A7
:1026000060C08091E00480FD50C08091E10480FFB3
:1026100036C18091E00484FD30C1C3EED0E02FC10B
:102620008091E00482FF2BC1F4CF8091E00482FD11
:102630003FC08091E10480FD3EC0EBCF8091E1047A
:1026400081FF1DC18091E00484FD17C1C7EED0E079
:1026500016C18091E00483FF12C1F4CF8091E004A1
:1026600083FD2CC08091E10481FFECCFC4EED0E06B
:1026700006C18091E00485FF02C1C9E2D0E0FFC03D
:102680008091E00485FFFBC0C5E3D0E0F8C08091F5
:10269000E00486FFF4C0CAE2D0E0F1C08091E0041B
:1026A00086FFEDC0C1E3D0E0EAC0C9E3D0E0E7C0F7
:1026B000C2EED0E0E4C0C0EED0E0E1C0C6EED0E0B3
:1026C000DEC0C11582E5D80708F066C0C11591E5E6
:1026D000D90728F0DC2FCC27C16FD06AD0C0C83E04
:1026E000D10560F5C03ED10508F0C9C0C83AD10592
:1026F000B0F4C53AD10540F0C55AD0E0C355DB4F20
:10270000C881D0E0D064BBC0C130D10509F4B7C0E6
:1027100008F4B3C0C430D10508F4AFC0B0C0CF3B9B
:10272000D10508F0AAC0C85AD0E0CC0FDD1FC055B3
:10273000DB4F0990D881C02DD464A1C0C11520E51C
:10274000D207E0F0CE0174E0969587957A95E1F78F
:1027500083709C2F937021E030E002C0220F331F62
:102760009A95E2F73C68382BCF70C695C69580E203
:10277000C89FE0011124C22BD32B81C0C11580E476
:10278000D80718F0DF70D06A7AC0CE019A9581150B
:102790009F4108F474C071C0C11586E5D807F0F5F3
:1027A000C11595E5D90750F08C2F0E94BB0D8F7194
:1027B000C82FD0E0DC2FCC27D06261C0C11524E542
:1027C000D20728F0DC2FCC27C46FD06A58C09E01F6
:1027D000237033278C2F86958695C115D34578F4C1
:1027E000C1E0D0E002C0CC0FDD1F2A95E2F720E265
:1027F000829FC0011124C82BD92BDC6840C0C1E0E6
:10280000D0E002C0CC0FDD1F2A95E2F720E2829FC4
:10281000C0011124C82BD92BDA6831C0C1152AE5B3
:10282000D207E8F4C11589E5D80780F08C2F8F70A6
:102830000E94BB0D94E0D695C7959A95E1F7CF70AD
:10284000D0E0DC2FCC27D069C82B19C0C11598E582
:10285000D90798F0DC2FCC27C06FD06A10C0CE010A
:1028600090568115904248F48D2F8F710E94BB0DB8
:10287000DD27D0628F71D82B02C0C0E0D0E0CE013E
:10288000DF91CF9108950F931F93CF93DF93C42FC0
:10289000122FFC0182818823C9F0409304080E9412
:1028A0002A1D9093FF078093FE0780E28C0F8830EB
:1028B00008F063C0C77081E001C0880FCA95EAF7CD
:1028C000DF91CF911F910F910C94A92A8091040858
:1028D00048133CC02091FE073091FF074FB7F89492
:1028E00080911D0590911E05A0911F05B0912005B6
:1028F0004FBF821B930B883C910540F5D0E2D10F6E
:10290000C117B9F080E28C0F883040F4C77081E0C5
:1029100001C0880FCA95EAF70E949E2AD83030F588
:1029200081E0912F977001C0880F9A95EAF70E9475
:10293000A92A802F0E94582BD830F8F4212F277015
:1029400081E001C0880F2A95EAF70AC080E28C0F67
:10295000883098F4C77081E001C0880FCA95EAF703
:10296000DF91CF911F910F910C949E2A802FDF91C0
:10297000CF911F910F910C94582BDF91CF911F9104
:102980000F9108959F92AF92BF92CF92DF92EF92F4
:10299000FF920F931F93CF93DF930CE211E0C2EEEF
:1029A000D4E08EEEE82E84E0F82E912CCC24C39453
:1029B000D12CB801D8018C91F894E82FE295EF70F2
:1029C000F0E021A18F70A60102C0440F551F8A9527
:1029D000E2F7CA01922F982B91A392A180958923A7
:1029E00082A3789400C0E2E3F1E020E030E0A12C83
:1029F000B12C4191842F82958F7090E0DC019096EC
:102A00008C9190E04F7002C0959587954A95E2F7BA
:102A100080FD08C0C601022E02C0880F991F0A94CB
:102A2000E2F702C080E090E0A82AB92A2F5F3F4F6A
:102A300020313105F1F60F5F1F4FFB0180810E94AD
:102A4000B012F0EAFA95F1F788819981A816B906D3
:102A500021F0B982A88281E001C080E0982A229604
:102A6000EC16FD0609F0A5CF992049F081E080938E
:102A70003D050E942A1D90933C0580933B05809163
:102A80003D05882309F445C020913B0530913C0564
:102A90004FB7F89480911D0590911E05A0911F05D8
:102AA000B09120054FBF821B930B069790F1809148
:102AB000E2049091E3049093300580932F05809178
:102AC000E4049091E5049093320580933105809160
:102AD000E6049091E7049093340580933305809148
:102AE000E8049091E9049093360580933505809130
:102AF000EA049091EB049093380580933705809118
:102B0000EC049091ED0490933A058093390510926E
:102B10003D05892DDF91CF911F910F91FF90EF908F
:102B2000DF90CF90BF90AF909F9008953F924F92CB
:102B30005F926F927F928F929F92AF92BF92CF924D
:102B4000DF92EF92FF920F931F93CF93DF93CDB756
:102B5000DEB729970FB6F894DEBF0FBECDBFFC01DC
:102B60008081918123813481232B31F09F3F31F487
:102B700091E08F3F19F403C091E001C090E090FD17
:102B80007AC67F0185E0DE01119601900D928A954B
:102B9000E1F7F701228189819A81222349F00E947D
:102BA0009A1E182F682F89819A810E94131F03C0D3
:102BB0000E94E71E182F69817A81812F0E94C91017
:102BC0008C01F7018281882309F4F2C09801225117
:102BD0003F452031310508F019C18FEF93E00E9485
:102BE000962C8111EFC0025137EA832E99249394D9
:102BF000002379F08114F4E09F0609F4E3C0C401D6
:102C00000E94962C811101C001501FEF811A910A78
:102C1000EFCF1E821F8218861986442443942AE02F
:102C2000322E84010F5F1F4FC4010E94962C8E83A9
:102C30001F82882309F4C6C09FEF980F933060F479
:102C40008F834E8222E0820E911CC8010E94962C36
:102C50008887811102C0B6C048018E010A5F1F4FEC
:102C6000F80120812223E9F2213009F04CC0818152
:102C7000813049F46801F2E0CF0ED11CF801828165
:102C80000E94582B0AC0823051F46801F2E0CF0E46
:102C9000D11CF80182810E94E52A860186C083301A
:102CA00049F46801F2E0CF0ED11CF80182810E9444
:102CB000B32AF3CF843019F00F5F1F4F76C0F801AD
:102CC00022810E5F1F4F80E090E030E020533109F9
:102CD0002A30310568F4389EA001399E500D112428
:102CE000C901840F951F0F5F1F4FF8012081EDCFA1
:102CF000009709F45AC0EFE9FFE03197F1F700C0FF
:102D000000000197F5CFE22FF0E0E65EFB4F549014
:102D1000822F86958695869590E0FC01E65FFB4FB5
:102D200064902770712C022E02C0759467940A94E7
:102D3000E2F7F1E06F227724FC01E650FC4FA4900B
:102D4000B12C022E02C0B594A7940A94E2F731E0A8
:102D5000A322BB24FC01E651FC4FC490D12C02C03D
:102D6000D594C7942A95E2F781E0C822DD24611446
:102D7000710419F081EE0E94E52AA114B10419F042
:102D800086EE0E94E52A852D0E94582BAB2819F06B
:102D900086EE0E94B32A672819F081EE0E94B32ABA
:102DA000CD2819F08CE20E94582B0F5F1F4F58CF8F
:102DB00000313FE5130709F055C581E00E94481F27
:102DC0000E94DA2180919A08877009F454C5F701AE
:102DD0008281882309F44FC582E029960FB6F894C2
:102DE000DEBF0FBECDBFDF91CF911F910F91FF903E
:102DF000EF90DF90CF90BF90AF909F908F907F909B
:102E00006F905F904F903F900C946D1F0031FFE5E5
:102E10001F0711F481E005C001312FE5120721F4ED
:102E200082E00E948A1FCCCF033FFCE51F0749F4D4
:102E300006E221EE40EE63EF7CE5C7010E944314F9
:102E4000C1CF043F2CE5120708F049C1083D3CE51D
:102E5000130731F407E225EE45EE68ED7CE5EDCF92
:102E6000093D9CE5190731F408E221E045EE69EDE2
:102E70007CE5E3CF073DECE51E0731F406E221EEE9
:102E800041EE67ED7CE5D9CF882309F45DC110924E
:102E9000040802309CE5190708F440C10631ECE54E
:102EA0001E0730F0C8018A5F9C45099708F036C1BB
:102EB0000E94B81D9093E1048093E0040031FCE58A
:102EC0001F0709F4C3C008F041C008303CE51307F0
:102ED00009F49AC0F0F404309CE5190709F487C09E
:102EE00068F40230FCE51F0709F477C003301C4585
:102EF00009F0E5C08091E004826076C006303CE5D0
:102F0000130709F46EC008F07BC08091E00488606C
:102F10006BC00C309CE5190709F485C068F40A30D1
:102F2000FCE51F0709F474C008F079C00E94892AE3
:102F30008091E004806858C00E303CE5130709F426
:102F400076C008F07FC08091E0048BC00B3F9CE509
:102F5000190709F44FC018F50331FCE51F0709F400
:102F60007DC078F401313CE5130709F473C00231E8
:102F70001C4509F0A4C00E94892A8091E0048F7743
:102F800033C005319CE5190709F472C008F486C006
:102F90000A3F1C4509F093C08091E1043EC00F3FF9
:102FA0002CE5120709F45FC058F40D3F8CE51807B3
:102FB00009F444C008F43FC08091E10482602DC050
:102FC0000130EDE51E0709F475C008F45DC002305C
:102FD0001D4509F074C060E06EC08091E00481601E
:102FE00003C08091E00480618093E00468C0809118
:102FF000E00411C08091E10482608093E1045FC02D
:103000008091E0048062F0CF8091E0048064ECCF96
:103010008091E00488608460E7CF8160EECF80918A
:10302000E0048E7FE1CF8091E0048D7FDDCF809141
:10303000E004877FD9CF8091E10418C08091E1043A
:103040008D7FDBCF8091E0048F7ECECF8091E00436
:103050008F7DCACF8091E0048F7BC6CF8091E00442
:10306000877F8B7FC1CF8091E1048D7F8E7FC5CF1D
:103070008091E00482FB222720F991E0922790FBC7
:1030800082F990FB83F9B0CF8091E104982F90955D
:1030900091708E7F892B90FB81F9AFCF0E94892A96
:1030A0008091E00487FB222720F991E0922790FB92
:1030B00087F99ACF61E08EE090E00E94B42C609195
:1030C000E0041091E10484E090E00E94B42C612FB0
:1030D00082E290E00E94B42C0E94892A73CE053FC0
:1030E000FCE51F0731F406E221EE42EE65EF7CE5D8
:1030F000A4CE053F2CE5120730F407E225EE44EE9E
:1031000064EF7CE59ACE063F3CE5130709F0BCCEA0
:1031100007E225EE46EE66EF7CE58FCE80919D08B6
:1031200006319CE5190709F58A7A91E009F490E0E7
:1031300090930508882311F065E301C069E286E0F9
:1031400098E00E94831D0EC006311C4509F0D6C0D0
:1031500080910508882309F48CC365E386E098E034
:103160000E945B1D0E943A1E2DCE82720A3C3CE5F5
:10317000130709F47BC098F5053CECE51E0709F43C
:1031800061C0B8F4033C2CE5120709F451C008F003
:1031900054C0023C8CE5180709F07FC09091FE08EE
:1031A00081E089278093FE08109228010E94E01098
:1031B00009CE073C9CE5190709F44EC008F447C046
:1031C000083CFCE51F0709F44CC0093C2CE512073C
:1031D00009F063C046E15FE062E27FE055C00F3C6A
:1031E0003CE5130709F455C098F40C3CECE51E07C8
:1031F00009F446C008F43FC00D3C2CE5120709F461
:1032000046C00E3C3CE5130709F047C085E042C0CC
:10321000063D8CE5180730F4013D1C4508F0D2CD81
:1032200082E138C00D35EDE51E0709F4CBCD35C080
:1032300048E55FE061E67FE027C041E65FE068E5E2
:103240007FE022C046E45FE06FE47FE01DC04FE412
:103250005FE066E47FE018C04EE25FE06AE37FE093
:1032600013C04AE35FE06EE27FE00EC042E25FE03F
:1032700066E17FE009C042EF50E168EE70E104C012
:1032800048EE50E162EF70E10E94D6109BCD81E0E4
:1032900001C08DE00E94F82195CD0A35FDE51F079C
:1032A00041F150F401153CE51307A9F00E3D1C4512
:1032B00029F50E94C91D86CD0B359DE51907D9F06A
:1032C0000C351D45D9F48091E10482FB882780F9F3
:1032D00091E0892711C00E94892AFFEF04E31CE0D6
:1032E000F15000401040E1F700C000000E94D41CE3
:1032F00069CD81E001C080E00E94801EF7018281DB
:1033000000811181882349F0C8010E949A1ED82E9D
:10331000682FC8010E94131F04C0C8010E94E71E45
:10332000D82EB8018D2D0E94C7128C01982EF7015E
:10333000B280A580A2949FE0A92280919A0887700C
:1033400099F0BB2089F0812F807F803421F080E2CA
:10335000800F883048F082E00E946D1F80919A08AB
:103360008770DD24D3948111D12CC12EC2948FE0BB
:10337000C8228C2D90E08C30910508F03FC2FC01F2
:10338000EF56FF4F0C94632D812F807F1F70882391
:1033900011F01295107FBB20B9F0112309F419C266
:1033A00080E2800F883010F0911006C080919D0857
:1033B000182B10939D0805C080919C08182B109322
:1033C0009C080E943A1E05C2802F0E94B32A112336
:1033D00009F414C2005E1095083010F0911006C078
:1033E00080919D08182310939D0805C080919C082A
:1033F000182310939C080E943A1E00C2812F807FE0
:103400001F70803211F01295107F992021F0F1E0A9
:103410009F1611F130C0BB20B1F0AA2081F001E06D
:10342000A0120DC08091E10482FDE8C180919E0848
:10343000182B181709F4E2C110939E08DFC1809180
:103440009E08812B10C0AA2021F021E0A21609F4C9
:10345000D5C10E94341E27C0BB2041F035E03A158B
:1034600008F4CCC1812F0E94A92AC8C184E08A1522
:1034700008F4C4C118C0BB2049F0AA2099F3F70191
:10348000858180FFA6C18F708583ECCFAA2059F07B
:10349000093309F0B0C1FFEF17EE23E0F1501040FF
:1034A0002040E1F7A6C1812F0E949E2AA7C1812F4B
:1034B00086958695837019F0813059F09FC1BB20A5
:1034C00019F0C801937002C080E090E00E941F10C4
:1034D0009BC1BB2019F0C801937002C080E090E04E
:1034E0000E94091091C1812F837009F069C0B11049
:1034F00089C1902F929596959770990F990F802F6B
:103500008F70882E912CA12CB12C092E04C0880C10
:10351000991CAA1CBB1C0A94D2F704FF12C04FE0EE
:1035200050E060E070E004C0440F551F661F771F35
:103530009A95D2F7DB01CA0180959095A095B09538
:1035400003C080E090E0DC0116951695412F437092
:10355000423019F1C8F400919F081091A008209101
:10356000A1083091A208413059F088299929AA2947
:10357000BB29BC01CD0160237123822393230AC0A0
:10358000802A912AA22AB32ABC01CD01682979296F
:103590008A299B290E94AB1F35C188299929AA290C
:1035A000BB2900919F081091A0082091A10830919B
:1035B000A208BC01CD016027712782279327EACF9B
:1035C000BB2019F0812F817001C08695882309F4F2
:1035D00019C1902F929596959770990F990F802FFA
:1035E0008F70882E912CA12CB12C092E04C0880C30
:1035F000991CAA1CBB1C0A94D2F704FF12C04FE00E
:1036000050E060E070E004C0440F551F661F771F54
:103610009A95D2F7DB01CA0180959095A095B09557
:1036200003C080E090E0DC0116951695412F4370B1
:103630004230D9F068F500910409109105092091F4
:10364000060930910709413059F088299929AA299A
:10365000BB29BC01CD0160237123822393231EC0AB
:10366000802A912AA22AB32A13C088299929AA2933
:10367000BB29009104091091050920910609309198
:103680000709BC01CD01602771278227932706C057
:10369000BC01CD01682979298A299B290E943E1FF6
:1036A000B1C01F70BB2039F0812F0E948A1F802F6C
:1036B0000E94A92AA7C0802F0E949E2A812F0E94C3
:1036C000481FA0C0802F32EF931609F440C039156F
:1036D00038F090EF991661F0E1EF9E1699F174C001
:1036E000F3EF9F16D9F124EF921609F44EC06CC087
:1036F000BB2019F134E03A1508F480C01F7181E055
:1037000090E0A0E0B0E0AC01BD0104C0440F551F43
:10371000661F771F1A95D2F78091040990910509C9
:10372000A0910609B09107098A019B010827192772
:103730002A273B27C901B80125C025E02A1508F42E
:103740005DC0DCCFBB2029F0812F8F7130C0BB2042
:10375000D9F3812F8F710E94481F50C0BB2079F090
:103760001F7181E090E0A0E0B0E0BC01CD0104C099
:10377000660F771F881F991F1A95D2F703C060E064
:1037800070E0CB010E943E1F39C0BB2099F01F7131
:10379000812F0E948A1F8091E10482FD07C038E0DA
:1037A000139FC0011124836080939A08812F0E9487
:1037B0008A1F24C081E00E946D1F81E08A15F0F409
:1037C00082E00E946D1F1AC0BB2039F0AA2009F4C4
:1037D000BBCF802F0E94E52A11C0AA2009F4B9CFDF
:1037E000893349F49FEFE7EEF3E09150E040F04079
:1037F000E1F700C00000802F0E94B32A88EF8C0DF3
:10380000843010F40E943510DD20A9F180919A08CF
:1038100080FD31C0F70112828595859585950E94BE
:103820008A1FC7010E94961580919A0885958595F3
:10383000859529960FB6F894DEBF0FBECDBFDF91F8
:10384000CF911F910F91FF90EF90DF90CF90BF909D
:10385000AF909F908F907F906F905F904F903F9030
:103860000C94481F01319FE5190709F0DDCA82E079
:10387000A5CA69E273CC29960FB6F894DEBF0FBED5
:10388000CDBFDF91CF911F910F91FF90EF90DF900F
:10389000CF90BF90AF909F908F907F906F905F90F0
:1038A0004F903F90089508958091A408089580E076
:1038B0000895CF93DF9300D01F92CDB7DEB79091DC
:1038C000C708943011F589837B836A839093E9005C
:1038D0008FEF9091E800815095FD06C095ED9A9587
:1038E000F1F700008111F5CF8091E80085FF0DC050
:1038F00040E050E063E070E0CE0101960E94D024E9
:103900008091E8008E778093E8000F900F900F90E1
:10391000DF91CF910895BC0184E00C94591CBC0147
:1039200083E00C94591CCF93DF9320911001222344
:1039300039F02091E00427FF03C060E224E002C0D8
:1039400068E021E02093E9002FEF3091E80021505A
:1039500035FD06C035ED3A95F1F700002111F5CFA0
:103960002091E80025FF1DC0EC018091100181111C
:1039700005C040E050E068E070E003C070E040E067
:1039800050E0CE010E94D0248091E8008E77809391
:10399000E80080E2FE01A5EAB8E001900D928A9568
:1039A000E1F7DF91CF91089581E08093E00080E21C
:1039B0008093D8001092C9008FE19EE40197F1F73F
:1039C00000C0000087E090EBDC0180930A0990932F
:1039D0000B09A0930C09B0930D099CE088E10FB688
:1039E000F894A895809360000FBE90936000FFCF7D
:1039F00078941F920F920FB60F9211248F939F937A
:103A0000AF93BF9380911D0590911E05A0911F0556
:103A1000B09120050196A11DB11D80931D059093C5
:103A20001E05A0931F05B0932005BF91AF919F91F4
:103A30008F910F900FBE0F901F9018952FB7F8948D
:103A400060911D0570911E0580911F0590912005C4
:103A50002FBF08952FB7F89480911D0590911E05F2
:103A6000A0911F05B09120052FBF08951F920F92BE
:103A70000FB60F9211248F939F93AF93BF938091B2
:103A80001D0590911E05A0911F05B091200541963E
:103A9000A11DB11D80931D0590931E05A0931F05C8
:103AA000B0932005BF91AF919F918F910F900FBE62
:103AB0000F901F901895209110012223C9F020919A
:103AC000E00427FF15C0262F2695269526952E3132
:103AD000C8F4FC01E20FF11D677081E090E001C0C5
:103AE000880F6A95EAF780959281892382830895E9
:103AF000FC0106962281621301C012823196E817FA
:103B0000F907C1F70895209110012223C1F02091F7
:103B1000E00427FF14C0262F2695269526952E31E2
:103B200030F5FC01E20FF11D677081E090E001C00B
:103B3000880F6A95EAF79281892B82830895FC01A8
:103B400032962FEF30E04191641789F02F3F19F43E
:103B5000411101C0232F3F5F3630A9F72F3F39F0C5
:103B6000FC01E20FF11D27FDFA9562830895089587
:103B7000CF9384E090E00E94962CC82F82E290E0E0
:103B80000E94962C2C2F30E0A901582BCA01CF910E
:103B900008956AEE7EEF80E090E00E94D22C60E013
:103BA00082E090E00E94B42C60E083E090E00E940C
:103BB000B42C10929F081092A0081092A1081092A5
:103BC000A20860E084E090E00E94B42C60E082E211
:103BD00090E00E94B42C60E085E090E00E94B42C5C
:103BE00060E086E090E00E94B42C6FEF87E090E008
:103BF0000E94B42C40E050E0BA0188E090E00E94BE
:103C0000C62C60E08DE090E00E94B42C40E050E0D3
:103C1000BA0188E190E00E94C62C60E087E190E064
:103C20000E94B42C40E050E0BA018CE190E00E9488
:103C3000C62C60E070E080E290E00E94D22C40E070
:103C400050E0BA0188E190E00E94C62C40E050E0CC
:103C5000BA018FE090E00E94C62C40E050E0BA012B
:103C600083E190E00C94C62C80919E088111109203
:103C70009E08089590919D0880919C08892B209121
:103C80009B08982F922B9093060880919E0888237A
:103C9000D9F0892B8093060880911001882331F098
:103CA0008091E00487FF02C08EE101C086E0E8E079
:103CB000F8E090E0815028F021912223D9F39F5F12
:103CC000F9CF91110E94341EE0911B05F0911C0563
:103CD0003097A9F080911001882359F08091E00479
:103CE00087FF07C0809106088093070885E08093CE
:103CF00006080280F381E02D86E098E0099408959B
:103D0000CF93C091E104C2FB992790F9981781F0F5
:103D100080FBC2F9C093E1046091E00484E090E08C
:103D20000E94B42C6C2F82E290E0CF910C94B42CC2
:103D3000CF910895BF92CF92DF92EF92FF920F93AF
:103D40001F93CF93DF938C01C0900409D090050995
:103D5000E0900609F090070980919F089091A008D3
:103D6000A091A108B091A208C82AD92AEA2AFB2A60
:103D7000CFE1D0E0D701C6010C2E04C0B695A795BF
:103D8000979587950A94D2F780FD04C0219790F704
:103D9000B12C07C0BC2EB8018C2F0E94C71201970E
:103DA000A9F38B2DDF91CF911F910F91FF90EF9091
:103DB000DF90CF90BF900895CF93DF93EC010E94E6
:103DC0009A1EBE010E94C712DF91CF91089520E193
:103DD000929F800D1124682F669566956695982FA1
:103DE000977085E0689FB001112440E050E080E0CA
:103DF000FB01E40FF51FE25AF74F208130E0092E56
:103E000002C0369527950A94E2F721703327042ED5
:103E100001C0220F0A94EAF7822B4F5F5F4F4530B3
:103E2000510531F7089520E1929F800D1124E82F6C
:103E3000E695E695E695877051E001C0550F8A95A5
:103E4000EAF785E0E89FF0011124E25AF74F20E0FD
:103E500030E070E04081CB01022E02C0969587953C
:103E60000A94E2F7817081958427852384278193C2
:103E70002F5F3F4F2530310569F70895609304099E
:103E80007093050980930609909307090C947B2A87
:103E90000F931F9341E050E060E070E004C0440FD6
:103EA000551F661F771F8A95D2F7409550956095EC
:103EB00070958091040990910509A0910609B0912F
:103EC00007098A019B01082319232A233B23C901DF
:103ED000B8011F910F910C943E1F20919A08809574
:103EE000822380939A08982F977041F430E0482FEE
:103EF000082E000C550B2417350721F49091E1048E
:103F000092FF07C08595859585950E94481F109260
:103F10009A0808950F931F9341E050E060E070E02D
:103F200004C0440F551F661F771F8A95D2F78091F2
:103F3000040990910509A0910609B09107098A0129
:103F40009B01082B192B2A2B3B2BC901B8011F9170
:103F50000F910C943E1F60939F087093A00880936C
:103F6000A1089093A2080C947B2A80915D089091FF
:103F70002C08891719F08F5F8770FBCF08950F9376
:103F80001F93CF93DF9380912B0882958F7009F058
:103F90005DC080912808882309F458C080915D088D
:103FA00010912C086091260870912708C09129086B
:103FB000D0912A0891E06F3F09F090E0292F06E0A8
:103FC000811709F443C0209721F07F3F21F030E0B2
:103FD00003C031E001C0322F90E030FD34C0089FB3
:103FE000F001099FF00D1124DF01A35DB74F119679
:103FF0003C911197371327C03C91361324C0129679
:104000003C91129731111FC013964D915C911497FA
:104010004C1B5D0B483C5105B0F480912B088F7010
:10402000806180932B08EE5CF74F80818F708061F8
:10403000808386E298E00E949615DF91CF911F91D0
:104040000F910C94B51F01968770BACFDF91CF9175
:104050001F910F9108959F92AF92BF92CF92DF92DE
:10406000EF92FF920F931F93CF93DF93CDB7DEB7FD
:1040700061970FB6F894DEBF0FBECDBF8C0185E00F
:10408000F801DE011D9601900D928A95E1F7F80185
:1040900090818181E28030912608609127084091CB
:1040A000290850912A084115510531F06F3F31F42C
:1040B00021E03F3F19F403C021E001C020E0F22FCE
:1040C000F1709F2E20FD23C1F801C380D48026E229
:1040D000A22E28E0B22EF0902808F601E41BF50B82
:1040E000FF2009F4CEC020912B08E83CF10508F030
:1040F00099C0422F407F09F051C0681311C0391395
:104100000FC0FE2CE1100CC02F70206120932B08F3
:10411000C5010E94961580912B08F801858337C14F
:10412000CD2831F08F3F31F421E09F3F19F403C0D7
:1041300021E001C020E020FD03C021E02E2502C0C7
:1041400020E030E0F22FF170FF2E20FF1DC0209103
:104150005D0840912C0856E0241709F4F6C030E0C1
:10416000529FF001539FF00D1124E35DF74F6181E1
:10417000861306C06081961303C06281E61204C0F4
:104180002F5F3F4F2770E8CFFE2CEE2009F4FFC0D1
:1041900080912B08816080932B0850C0681307C062
:1041A000391305C0E11003C0F80125838DC09D8738
:1041B0008E878D859E850E94522A882369F1EE2084
:1041C00059F120912B08822F82958F7090E00297F1
:1041D00074F0809126089091270898878F8319861C
:1041E000DB86CA862C87CE0107960E94961586E04C
:1041F000F801A6E2B8E001900D928A95E1F70E94DD
:10420000BF1F0DC06817E1F09D878E878D859E8545
:104210000E94522A81111EC0C8010E949615FF24D7
:10422000F394B5C0422F407F69F786E298E00E9480
:10423000961586E0F50111928A95E9F7F12CA7C051
:104240003913E2CFE110E0CFF8012583C8010E94C5
:10425000961557C0EE2001F320912B08822F8295EE
:104260008F7090E002971CF28091260890912708A9
:104270009A8389831B82DD82CC822E83CE010196B4
:10428000B4CFE83CF105E8F5FE2CEE2029F26813E6
:1042900027C0391325C020912B0820FD18C0822F7C
:1042A00082958F70482F50E04115510581F0F8013B
:1042B00025834F30510541F08F5F982F9295907F65
:1042C000822F8F70892B8583C8010E94961586E006
:1042D000F801A6E2B8E001900D928A95E1F757C087
:1042E0009D878E878D859E850E94522A81117FCF62
:1042F00080912B08816080932B08C8010E9496153D
:1043000046C086E0F50111928A95E9F740C0EE209B
:1043100009F482CF9D878E878D859E850E94522AC3
:10432000F82E882309F478CF86E0F801A6E2B8E0F9
:1043300001900D928A95E1F78091260890912708C7
:104340000E94DC1E0E94BF1F22C09D878E878D8524
:104350009E850E94DC1E292F22952F70223028F482
:104360009F7039F0811105C00BC0243028F49F7074
:1043700049F4805E883020F0C8010E9496159F2C79
:10438000F92C05C0F8019581907F99F7F9CF8F2D11
:1043900061960FB6F894DEBF0FBECDBFDF91CF910F
:1043A0001F910F91FF90EF90DF90CF90BF90AF9053
:1043B0009F9008950F931F93809104099091050990
:1043C000A0910609B09107098C019D010670112783
:1043D00022273327BC01CD01063011052105310507
:1043E00011F4686001C0677F1F910F910C943E1F0C
:1043F0009091FE08937089F0811102C0946007C00B
:10440000883210F09C6903C0880F880F982B909316
:10441000FE08109228010C94E01008956F927F928C
:104420008F929F92AF92BF92CF92DF92EF920F93B3
:104430001F93CF93DF933C01C0912501CC0FCC0F8C
:10444000D4E0DC0FDD3608F0DCE660910209669509
:104450008091FA089091FB080E94AE11182FCD1799
:1044600008F044C08C2E912CF401EF5BFB4F90813F
:10447000809126018923C1F1F401EE0FFF1FE75956
:10448000FC4FC080D12C80E7C81AD108F401EE0F90
:10449000FF1FE659FC4FA080B12CE0E2AE1AB10834
:1044A000CC9C9001CD9C300D300D1124AA9CC001F4
:1044B000AB9C900D900D1124820F931F0E945411FC
:1044C000082F6091FF087091000980910109E12E89
:1044D0009501A601F30109950E94B811462F282FD6
:1044E000672FC4010E94DE10CF5FB9CF81E0DC36B8
:1044F00008F080E0DF91CF911F910F91EF90DF9056
:10450000CF90BF90AF909F908F907F906F900895C5
:10451000CF92DF92EF92FF920F931F93CF93DF938F
:104520006C01C0912501CC0FCC0FD4E0DC0FDD363F
:1045300008F0DCE66091020966958091FA08909196
:10454000FB080E94AE11182FCD1778F5EC2EF12C38
:10455000F701EF5BFB4F908180912601892319F1D0
:10456000F701EE0FFF1FE659FC4F208130E020528B
:104570003109F701EE0FFF1FE759FC4F408150E072
:10458000405751096091FF0870910009809101091D
:10459000012FF60109950E94B811462F282F672F89
:1045A000C7010E94DE10CF5FCFCF81E0DC3608F07C
:1045B00080E0DF91CF911F910F91FF90EF90DF90FE
:1045C000CF900895DF92EF92FF920F931F93CF93B6
:1045D000DF937C01C0912501CC0FCC0FD4E0DC0F20
:1045E000DD3608F0DCE660910209669566958091FB
:1045F000FA089091FB080E94AE11D82ECD17F0F466
:104600000C2F10E0F801EF5BFB4F908180912601A9
:10461000892391F06091FF08709100098091010950
:104620002D2D4C2FF70109950E94B811462F282FE8
:10463000672FC8010E94DE10CF5FE0CF81E0DC363B
:1046400008F080E0DF91CF911F910F91FF90EF90E4
:10465000DF9008959F92AF92BF92CF92DF92EF9238
:10466000FF920F931F93CF93DF936C01C0912501AD
:10467000CC0FCC0FD4E0DC0FDD3608F0DCE6609127
:104680000209669566958091FA089091FB080E9450
:10469000AE11182F80E4810F0E940F1190E8F92EBF
:1046A000F80E812F0E940F1120E8922E980ECD1740
:1046B00000F5AC2EB12CF501EF5BFB4F90818091A2
:1046C00026018923A1F06091FF0870910009809173
:1046D0000109E12E0C2F292D4F2DF60109950E947D
:1046E000B811462F282F672FC5010E94DE10CF5F1B
:1046F000DECF81E0DC3608F080E0DF91CF911F91C2
:104700000F91FF90EF90DF90CF90BF90AF909F9070
:104710000895CF92DF92EF92FF920F931F93CF9362
:10472000DF936C01C0912501CC0FCC0FD4E0DC0FDE
:10473000DD3608F0DCE62091020930E040E050E090
:104740006FEF7FEF80E090E00E94D82C8901CD17B9
:10475000E8F5EC2EF12CF701EF5BFB4F9081809197
:104760002601892389F19091D108915097FD15C0B8
:10477000492F092E000C550BFA01EF52F74F818992
:10478000C813F3CF440F551FFA01EF52F74F218D95
:10479000328D2017310748F701C098016091020956
:1047A000C9010E94AE11AC016091FF08709100092F
:1047B00080910109F60109950E94B811462F282F12
:1047C000672FC7010E94DE10CF5FC1CF81E0DC36CA
:1047D00008F080E0DF91CF911F910F91FF90EF9053
:1047E000DF90CF9008952F923F924F925F926F92F9
:1047F0007F928F929F92AF92BF92CF92DF92EF9271
:10480000FF920F931F93CF93DF93CDB7DEB7279718
:104810000FB6F894DEBF0FBECDBF282E4B012091FE
:104820002501220F220F2E83122F1C5F1D3608F048
:104830001CE63091D1083983AE81A11708F077C00A
:104840008E81682E712CF301EF5BFB4F908180917C
:104850002601892309F467C03090FF0840900009C1
:10486000522C1F82C301880F991FDC01A759BC4F2E
:10487000BB83AA83C301880F991FFC01E659FC4F33
:10488000FD83EC83F9815F16E0F5E52CF12CAA811C
:10489000BB81CC90D12CF701EF52F74F8181C81A20
:1048A000D108AC81BD81AC90B12C8185A81AB1082A
:1048B000CC9C9001CD9C300D300D1124AA9CC001E0
:1048C000AB9C900D900D1124820F931F0E945411E8
:1048D000082FF701EE0FFF1FEF52F74F609102090B
:1048E000818D928D0E94AE117C019501A601632DF0
:1048F000742D8F81F4010995362E472E8F835394A2
:10490000C1CF209101098F81382F329F312D112481
:10491000832F632D742D0E94B811462F282F672FE7
:10492000C3010E94DE108E818F5F8E8385CF81E070
:104930001C3608F080E027960FB6F894DEBF0FBE55
:10494000CDBFDF91CF911F910F91FF90EF90DF903E
:10495000CF90BF90AF909F908F907F906F905F901F
:104960004F903F902F9008959091FE08937059F0CA
:104970008093FF0860930009493C08F048EC40939D
:1049800001090C94E0100895E1E1F1E08083618376
:1049900024E630E042E050E0BF0180E60C94032CB6
:1049A000EF92FF920F931F93CF93DF937C018B01C4
:1049B0000E943128811119C0E70101151105A1F0EC
:1049C0008091E80085FD0AC08091E8008E77809391
:1049D000E8000E943128882381F307C089918093E1
:1049E000F10001501109E9CF80E0DF91CF911F91D3
:1049F0000F91FF90EF9008951F93CF93DF93CDB762
:104A0000DEB7AA970FB6F894DEBF0FBECDBFE9ECB4
:104A1000F8E08091F100819348E0E13DF407C9F7A7
:104A20008091CA08833009F462C030F4813071F09B
:104A3000823009F49CC0B3C08A3009F488C08B303E
:104A400009F46DC0893009F0AAC020C08091C9085E
:104A5000813A09F0A4C08091E800877F8093E80044
:104A60008091CD089091CE08892B21F460E285EAEF
:104A700098E003C060E080E090E070E00E94F429DC
:104A80008091E8008B778093E80089C08091C90805
:104A9000813209F084C08091CD089091CE080097B2
:104AA00019F0029709F07BC08091E800877F80931E
:104AB000E8008091E80082FD05C08091C70881115F
:104AC000F8CF6DC02091F3008091F20090E0922B1E
:104AD000029729F48091F1008B7F813021F480913D
:104AE000F1008093A4088091E8008B7754C08091F6
:104AF000C908813A09F053C08091CD089091CE0841
:104B0000892B09F04CC08091E800877F8093E800F2
:104B10008091E80080FFFCCF8091100137C0809128
:104B2000C9088132E1F58091CD089091CE08892B9A
:104B3000B1F58091E800877F8093E8000E946428A7
:104B40008091CB08809310010E94892A28C080910F
:104B5000C908813221F58091E800877F8093E800C1
:104B60000E9464288091CC088093A30818C080918B
:104B7000C908813AA1F48091E800877F8093E8001A
:104B80008091E80080FFFCCF8091A3088093F10022
:104B90008091E8008E778093E8000E9464288091DD
:104BA000E80083FFDDC18091C9089091CA08492FB0
:104BB00050E04A30510508F0D3C1FA01E356FF4FE7
:104BC0000C94632D803821F0823809F0C9C108C0E7
:104BD0008091C5089091C608992389F082600FC022
:104BE0008091CD088F70873008F0BAC18093E900BA
:104BF0008091EB0085FB882780F91092E900909165
:104C0000E800977F9093E8008093F1001092F10004
:104C100070C1282F2D7F09F0A3C1882319F082309D
:104C200061F09EC18091CB08813009F099C1933029
:104C300009F080E08093C6082EC08091CB088111D6
:104C40002AC08091CD088F702FEF280F263008F0F2
:104C500087C18093E9002091EB0020FF1CC09330B6
:104C600021F48091EB00806214C09091EB00906180
:104C70009093EB0021E030E0A90102C0440F551FE2
:104C80008A95E2F74093EA001092EA008091EB00E7
:104C900088608093EB001092E9008091E800877FA4
:104CA0008093E8000E9464285BC1811159C1109172
:104CB000CB081F778091E3008078812B8093E300FD
:104CC0008091E800877F8093E8000E9464288091AB
:104CD000E80080FFFCCF8091E30080688093E300D0
:104CE000111102C082E001C083E08093C70838C17F
:104CF0008058823008F034C12091CB083091CC0824
:104D00002C3D53E0350779F583E08A838AE2898375
:104D10004FB7F894DE01139620E03EE051E2E32F16
:104D2000F0E050935700E49120FF03C0E295EF704C
:104D30003F5FEF708E2F90E0EA3010F0C79601C011
:104D4000C0968D939D932F5F243149F74FBF80917B
:104D5000E800877F8093E8006AE270E0CE01019668
:104D60000E94F429B4C08091CD089091CE08432FC1
:104D7000552743305105A9F068F44130510509F435
:104D8000FEC04230510509F0EBC08BE590E0E9E64A
:104D9000F5E04BC04132510529F14232510589F10C
:104DA000DFC0C901992781309105A1F058F0029721
:104DB00009F0D6C0E6EDF5E0E4918E2F90E0E6ED47
:104DC000F5E030C0E8E0F6E0E4918E2F90E0E8E016
:104DD000F6E028C0E6EFF5E0E4918E2F90E0E6EFF4
:104DE000F5E020C08330910508F0BAC0880F991F04
:104DF000FC01ED5FFC4F0190F081E02D89E090E037
:104E000014C08330910508F0ABC0FC01EE0FFF1F0A
:104E1000E350FD4F0190F081E02DDC01A650BD4F25
:104E20008C9190E0009709F49BC02091E800277FC7
:104E30002093E8002091CF083091D0082817390737
:104E400008F4C90140E0009789F12091C7082223A6
:104E500009F43DC02530D9F12091E80023FD37C089
:104E60002091E80022FD2FC02091E80020FFEBCF29
:104E70004091F3002091F20030E0342B009759F07C
:104E80002830310540F444914093F1003196019768
:104E90002F5F3F4FF3CF41E02830310509F040E06C
:104EA0002091E8002E772093E800CDCF4111CDCF9F
:104EB0000AC08091C708882351F0853041F0809165
:104EC000E80083FD04C08091E80082FFF2CF80916A
:104ED000E8008B778093E80043C0803809F040C039
:104EE0008091E800877F8093E8008091C8088093D4
:104EF000F1008091E8008E77D3CE811131C080918E
:104F0000CB089091CC089927029754F58091E8003E
:104F1000877F8093E8001091CB081093C8080E9407
:104F20006428111106C08091E30087FD02C081E072
:104F300001C084E08093C70842E061EC81E00E94F8
:104F4000832842E261EC84E00E94832842E261EC23
:104F500082E00E94832842E260EC83E00E94832882
:104F60008091E80083FF10C08091E800877F8093E4
:104F7000E8008091EB0080628093EB0005C082E145
:104F800090E0E4ECF5E051CFAA960FB6F894DEBFBE
:104F90000FBECDBFDF91CF911F9108951F920F9249
:104FA0000FB60F9211242F933F934F935F936F93FC
:104FB0007F938F939F93AF93BF93CF93DF93EF93A1
:104FC000FF93C091E900CF708091EC00D82FD17091
:104FD00080FDD0E81092E9008091F000877F8093F7
:104FE000F00078940E94FC241092E9008091F00077
:104FF00088608093F000CD2BCF70C093E900FF91C3
:10500000EF91DF91CF91BF91AF919F918F917F9160
:105010006F915F914F913F912F910F900FBE0F9025
:105020001F901895E8EDF0E080818E7F80831092CC
:10503000E2001092DA001092E100A0EEB0E08C9154
:1050400081608C9380818F77808319BCA7EDB0E05D
:105050008C918E7F8C9380818F7E80831092080943
:1050600008952091E4003091E50095E64091EC0030
:10507000842F817040FF23C08091E80080FD1DC017
:105080008091C708882399F0853099F08091EB00D2
:1050900085FD11C04091E4005091E50024173507CB
:1050A00029F3915011F09A01E1CF84E0089582E054
:1050B000089583E0089581E0089580E00895409187
:1050C000E80042FFDDCF08958091C90887FF11C035
:1050D0008091E80082FD05C08091C7088111F8CF5A
:1050E00011C08091E8008B770BC08091C70888239E
:1050F00049F08091E80080FFF8CF8091E8008E773A
:105100008093E8000895982F973068F59093E90010
:10511000981739F07091EC002091ED005091F0005B
:1051200003C0242F762F50E021FD02C09F5FECCFFB
:105130003091EB003E7F3093EB003091ED003D7FEE
:105140003093ED003091EB0031603093EB007093C1
:10515000EC002093ED005093F0002091EE0027FD2D
:10516000E5CF80E008958F708093E90081E0089595
:10517000CF92DF92EF92FF920F931F93CF93DF9323
:10518000C8EDD0E088818F7E8883E7EDF0E08081F4
:105190008160808384E082BF81E0809308098881F8
:1051A0008E7F888302EE10E0F80110821092DA0000
:1051B00081EEC82ED12CF601108288818F778883EA
:1051C00088818068888388818F7D888319BC10924C
:1051D000C7081092C8081092C6081092C50890EE31
:1051E000E92EF12CF70180818B7F8083888181609B
:1051F000888342E060E080E00E948328F60180819D
:105200008E7F8083F80180818160808380818860C7
:105210008083F70180818E7F80838881806188838D
:10522000DF91CF911F910F91FF90EF90DF90CF9082
:1052300008951F920F920FB60F9211242F933F9350
:105240004F935F936F937F938F939F93AF93BF938E
:10525000EF93FF938091E10082FF09C08091E2000B
:1052600082FF05C08091E1008B7F8093E1008091F7
:10527000DA0080FF2AC08091D80080FF26C080918C
:10528000DA008E7F8093DA008091D90080FF18C009
:1052900080E189BD82E189BD09B400FEFDCF81E0D6
:1052A0008093C7088091080981110FC00E941228BD
:1052B0000E94B8288091E20084608093E20005C0DB
:1052C00019BC1092C708109208098091E10080FF74
:1052D00017C08091E20080FF13C08091E2008E7FB2
:1052E0008093E2008091E20080618093E2008091EF
:1052F000D80080628093D80019BC85E08093C708ED
:105300008091E10084FF34C08091E20084FF30C0CE
:1053100080E189BD82E189BD09B400FEFDCF8091A5
:10532000D8008F7D8093D8008091E1008F7E80939C
:10533000E1008091E2008F7E8093E2008091E200A4
:1053400081608093E2008091C808882311F084E096
:1053500007C08091E30087FD02C081E001C083E0C7
:105360008093C7080E94892A0E943510109209096B
:105370008091E10083FF27C08091E20083FF23C07A
:105380008091E100877F8093E10082E08093C708ED
:105390001092C8088091E1008E7F8093E100809197
:1053A000E2008E7F8093E2008091E2008061809332
:1053B000E20042E060E080E00E9483288091F000FB
:1053C00088608093F000FF91EF91BF91AF919F9122
:1053D0008F917F916F915F914F913F912F910F909E
:1053E0000FBE0F901F9018952091CF083091D008D4
:1053F0002617370748F06115710539F42091E80048
:105400002E772093E80001C0B901FC0120E061156E
:10541000710579F18091C7088823F1F18530F1F1A8
:105420008091E80083FD3CC08091E80082FD2EC0A1
:105430008091E80080FFEBCF2091F3008091F20093
:1054400090E0922B6115710551F08830910538F488
:1054500021912093F100615071090196F3CF21E071
:10546000089709F020E08091E8008E778093E800AB
:10547000CECF2111CFCF0AC08091C708882361F019
:10548000853061F08091E80083FD0AC08091E800DA
:1054900082FFF2CF80E0089582E0089583E00895CE
:1054A00081E008950E94DC1E292F2F70E92FE295DC
:1054B000EF704E2F50E0FA013297EE30F105B8F45C
:1054C000E955FF4F0C94632D803F99F018F4883E06
:1054D00070F40FC0843F59F40CC0883E50F0813FF7
:1054E00031F407C0822F869586958695089580E0D1
:1054F000089581E0089580E090E00E941F1080E010
:1055000090E00E94091010929C0810929B080C9445
:105510003A1E10929D0880911001882331F08091ED
:10552000E00487FF02C08EE101C086E0E8E0F8E019
:10553000DF011D928A95E9F70C947B2A882341F0BC
:10554000809590919D08892380939D080C943A1E24
:105550000895882339F090919D08892B80939D08A8
:105560000C943A1E0895882379F19CEF980F913A94
:1055700030F4682F86E098E00E945B1D14C090E232
:10558000980F983090F4877021E030E0A90102C0B4
:10559000440F551F8A95E2F7CA01809590919D08A6
:1055A000892380939D080C943A1E9BE5980F9330B5
:1055B00020F480E090E00C941F10885A873120F48A
:1055C00080E090E00C9409100895CF93882309F4AB
:1055D0006DC09CEF980F913AC8F5C82F80911001CB
:1055E0008823E1F08091E00487FF18C0EC2FE69556
:1055F000E695E695F0E0EA5FF74F8281282F30E0EC
:105600004C2F477081E090E002C0880F991F4A95A7
:10561000E2F782239323892B61F412C0E8E0F8E0DB
:105620008EE098E02191C21721F08E179F07D1F7E5
:1056300007C06C2F86E098E00E945B1D0E943A1E16
:105640006C2F86E098E00E94831D13C090E2980FB3
:10565000983090F4877021E030E0A90102C0440F37
:10566000551F8A95E2F7CA0190919D08892B809376
:105670009D08CF910C943A1EEBE5E80FE33040F41F
:10568000F0E0E355FB4F808190E0CF910C941F1028
:10569000885A873158F4E82FF0E0EE0FFF1FE055ED
:1056A000FB4F80819181CF910C940910CF91089587
:1056B0001F93CF93DF93182F893319F0C0E0D0E008
:1056C00002C0C0E5D0E0812F0E94E52A209741F07A
:1056D0008FE99FE00197F1F700C000002197F6CF16
:1056E000812FDF91CF911F910C94B32A1092B900B2
:1056F0008CE08093B8000895EF92FF920F931F9370
:10570000CF93DF93182FEB011092BC0084EA8093B3
:10571000BC000E942A1D7C018091BC0087FD0EC048
:10572000CF3F8FEFD807C1F30E942A1D8E199F0922
:105730008C179D0788F38EEF9FEF2EC08091B900E4
:10574000887F883041F08091B900887F803119F0DE
:105750008FEF9FEF21C01093BB0084E88093BC00C3
:105760000E942A1D8C018091BC0087FD0CC0CF3F98
:105770008FEFD807C1F30E942A1D801B910B8C1755
:105780009D0788F3D8CF8091B900887F883111F0C8
:105790008034F1F680E090E0DF91CF911F910F917E
:1057A000FF90EF9008950F931F93CF93DF93EB013A
:1057B0008093BB0084E88093BC000E942A1D8C016A
:1057C0008091BC0087FD0EC0CF3F8FEFD807C1F39B
:1057D0000E942A1D801B910B8C179D0788F38EEF6A
:1057E0009FEF0CC02091B900287F81E090E0283223
:1057F00011F480E090E0919581959109DF91CF912E
:105800001F910F910895CF92DF92EF92FF920F9325
:105810001F93CF93DF936B018A017901B9010E9435
:105820007C2BE6010C0D1D1DC017D10761F424E986
:105830002093BC00DF91CF911F910F91FF90EF90CB
:10584000DF90CF90089597FDF2CFB70189910E9424
:10585000D32BEACF8F929F92AF92BF92CF92DF92DB
:10586000EF92FF92CF93DF93EC01688179818A8177
:105870009B81611571058105910521F464E279ED43
:105880008BE597E02DE133EF41E050E00E94D82C0A
:1058900049015A019B01AC01A7EAB1E40E94F72C2F
:1058A0006B017C01ACEEB4EFA50194010E94052DC3
:1058B000DC01CB018C0D9D1DAE1DBF1DB7FF03C0CC
:1058C0000197A109B04888839983AA83BB839F77F6
:1058D000DF91CF91FF90EF90DF90CF90BF90AF908E
:1058E0009F908F9008950E942A2C089580E091E067
:1058F0000E942A2C0895A0E0B0E0809300019093CC
:105900000101A0930201B09303010895DC01CB01D2
:10591000FC01F999FECF06C0F2BDE1BDF89A3196BF
:1059200000B40D9241505040B8F70895F999FECF58
:1059300092BD81BDF89A992780B50895A8E1B0E09D
:1059400042E050E00C94882CDC01A40FB51F4150BC
:10595000504048F0CB01840F951F2E910E94B52C2A
:1059600041505040D0F70895262FF999FECF92BDAF
:1059700081BDF89A019700B4021639F01FBA20BD14
:105980000FB6F894FA9AF99A0FBE08950396272F46
:105990000E94B52C0E94B42C252F0E94B52C242FD8
:1059A0000C94B52C0196272F0E94B52C0C94B42C86
:1059B000052E97FB1EF400940E94EF2C57FD07D094
:1059C0000E940A2D07FC03D04EF40C94EF2C509546
:1059D0004095309521953F4F4F4F5F4F08959095DB
:1059E0008095709561957F4F8F4F9F4F08950E94CE
:1059F0002C2DA59F900DB49F900DA49F800D911DFF
:105A000011240895B7FF0C94F72C0E94F72C821BE9
:105A1000930B0895A1E21A2EAA1BBB1BFD010DC01A
:105A2000AA1FBB1FEE1FFF1FA217B307E407F5074E
:105A300020F0A21BB30BE40BF50B661F771F881F2A
:105A4000991F1A9469F760957095809590959B01C0
:105A5000AC01BD01CF010895A29FB001B39FC00169
:105A6000A39F700D811D1124911DB29F700D811D8A
:105A70001124911D0895AA1BBB1B51E107C0AA1F49
:105A8000BB1FA617B70710F0A61BB70B881F991FDF
:105A90005A95A9F780959095BC01CD01089597FB83
:105AA000072E16F4009407D077FD09D00E943B2DF5
:105AB00007FC05D03EF4909581959F4F0895709511
:105AC00061957F4F0895EE0FFF1F0590F491E02D33
:105AD00009946927962769277827872778270895C3
