:100000000C9473040C94BA040C94BA040C94BA04BF
:100010000C94BA040C94BA040C94BA040C94BA0468
:100020000C94BA040C94BA040C94392A0C947529D3
:100030000C945F1C0C94BA040C94BA040C94BA048B
:100040000C94BA040C94BA040C94BA040C94BA0438
:100050000C94BA040C94121C0C94BA040C94BA04B8
:100060000C94BA040C94BA040C94BA040C94BA0418
:100070000C94BA040C94BA040C94BA040C94BA0408
:100080000C94BA040C94BA040C94BA040C94BA04F8
:100090000C94BA040C94BA040C94BA040C94BA04E8
:1000A0000C94BA040C94BA040C94BA04DA07E3076B
:1000B000140856089508DD0827092A092F0932096E
:1000C00037093A093D0940094309460949094C09DC
:1000D0004F09520957095A095D096209A109A40982
:1000E000A909B409B709C209C509D009D309DE09AC
:1000F000E109EC09160D2E0D350DD60DD60D6D0D41
:100100007D0D8E0DCF0D34113F11441149114E114B
:10011000531158115D11621167116C117311751132
:1001200077117911540F540F540F540F540FDA11E3
:10013000DA1114121412671283121214121490128C
:100140006D137A137A13281E281E3B1E3B1E311E88
:100150003B1E3B1E3B1E281E281E361E3B1E3B1E02
:10016000361E7D27A4275729A4275729F0271328AF
:10017000572914292429FD377A585A000004E6D655
:10018000B4460200210116000000742FE5A3E0032D
:10019000E501465D003D8889C65436C3174FE4DC4F
:1001A0002AEE27A9A299D53B2D541CD803B738189D
:1001B00090222A78C6E0B6364169733133D9654B4F
:1001C0000613039DFDE9134B88ECD84799BEC44044
:1001D000BAE0B4ABBF8119EF90943F85F8CEC76009
:1001E000B3F5584DFDA6BF350D0F610DC102859BBE
:1001F0008E988056537D52361F587E153200C2129B
:10020000C3653C022AE703DEC203B69955753C96E6
:10021000D2F545C9FB4D479601A9A6D418820E8D8B
:100220002108DB3FAF16311E0AFC0664DDAA6423F9
:100230002D739E23A141A25EC41F177A49463892AE
:10024000FCCE55D96AC2FB377EE32575BD00838895
:10025000A5812C2B0ECC6F4A0A8C67EC9F22B0B77D
:1002600035762748D1D1E08F54440649255F1DCA11
:10027000AC1776F22497A355E46CCBC1D4A846CF33
:10028000804752631C4E1DB90B9EA638B6AC3D7517
:1002900027F3F3933F5DBE92BB9FDDEBBB37042A90
:1002A000DAC233B355BD9FA17675259C4645E0362D
:1002B0009811A4D7D4FBBEEF6E54ABFFFE1B430EC8
:1002C00046BAF66AC81774BA985DC875F6EB51A2BB
:1002D000DFBB84C69F27FB54FE1FB30000002965C7
:1002E0000F69C40953A80001E202E6070000553572
:1002F0004214B1C467FB020000000004595A000018
:1003000000000000000000000000000000000000ED
:1003100000000000000000000000000000000000DD
:1003200000007E0F00D4FFFFFFC700000078000030
:100330000000000000002A2B280000000000000040
:1003400000000000000000000029000000002C1E3A
:100350003420212224342627252E362D3738271EF7
:100360001F202122232425263333362E37381F041D
:1003700005060708090A0B0C0D0E0F1011121314B5
:1003800015161718191A1B1C1D2F3130232D350473
:1003900005060708090A0B0C0D0E0F101112131495
:1003A00015161718191A1B1C1D2F3130354C290032
:1003B0001E001F0020002100220023002400250031
:1003C000260027002D002E002A004A002B001400D2
:1003D0001A000800150017001C0018000C0012007D
:1003E00013002F00300031004B00390004001600CC
:1003F000070009000A000B000D000E000F0033007B
:100400003400000028004E00E1001D001B00060023
:100410001900050011001000360037003800E50013
:10042000000052004D00E000E300E2000000000088
:100430002C0000000000E6000000E4005000000076
:1004400051004F00165C3A003B003C003D003E006E
:100450003F004000410042004300440045004C0082
:100460004A000100C25CC35CC55CC65CC75CC85C7A
:10047000C95CCA5C0100460047004800005C4B00B4
:100480000100CB5CCC5C0100010001000100010017
:1004900001000100010001000000DE5C4E00E100EF
:1004A0000100010001000100010001000100010044
:1004B0000100010001000000A900A80001000100E6
:1004C0000100000000000100000000000100000029
:1004D0000100AC000000AA00AB0001000100010017
:1004E0000100010001000100010001000100010004
:1004F00001000100010001000100010001000100F4
:1005000001000100010001000100010001000100E3
:1005100001000100010001000100010001000100D3
:1005200001000100010001000100010001000000C4
:1005300001000100010001000100010001000100B3
:1005400001000100010001000100010000000100A4
:100550000100010001000100000000000100000096
:100560000000010000000100010000000100010086
:100570000100010001000100010001000100010073
:100580000100010001000100010001000100010063
:100590000100010001000100010001000100010053
:1005A0000100010001000100010001000100010043
:1005B0000100010001000100010001000100010033
:1005C0000100010000000100010001000100010024
:1005D0000100010001000100010001000100010013
:1005E0000100000001000100010001000100000005
:1005F00000000100000000000100000001000100F7
:1006000000000100010000010101010101010101DF
:1006100002020202020202020203030303030303B3
:100620000304040404040404050505050506060680
:100630000606070707070708080808090909090A3D
:100640000A0A0B0B0B0C0C0C0D0D0D0E0E0E0F0FE2
:100650000F10101111111212131314141515161670
:100660001717181819191A1A1B1B1C1D1D1E1E1FDF
:100670002020212222232424252626272829292A2E
:100680002B2C2D2D2E2F3031323233343536373856
:10069000393A3B3C3D3E3F40414243444546474852
:1006A000494A4C4D4E4F50515354555658595A5B28
:1006B0005D5E5F616264656668696B6C6D6F7072C8
:1006C000737577787A7B7D7E8082838587888A8C34
:1006D0008E8F91939596989A9C9EA0A2A3A5A7A968
:1006E000ABADAFB1B3B5B7BABCBEC0C2C4C6C9CB5F
:1006F000CDCFD1D4D6D8DBDDDFE2E4E7E9EBEEF015
:10070000F3F5F8FAFDFF05010902A10185020901CF
:10071000A100050919012905150025019505750197
:1007200081029501750381010501093009311581A7
:10073000257F95027508810609381581257F950169
:1007400075088106050C0A38021581257F9501750B
:10075000088106C0C005010980A101850319012A8D
:10076000B700150126B700950175108100C0050C72
:100770000901A101850419012AA002150126A00280
:10078000950175108100C005010906A101850505C7
:100790000719E029E7150025019508750181020573
:1007A00007190029EF1500250195F0750181020553
:1007B00008190129059505750191029501750391A7
:1007C00001C00660FF0961A1010962150026FF0052
:1007D0009520750881020963150026FF0095207594
:1007E000089102C005010906A101050719E029E7E2
:1007F0001500250195087501810295017508810193
:100800000507190029FF150026FF009506750881C8
:1008100000050819012905950575019102950175D5
:10082000039101C009025B00030100A0FA09040062
:10083000000103010100092111010001224000070C
:1008400005810308000A09040100020300000009F1
:100850002111010001222200070582032000010767
:100860000503032000010904020001030000000940
:10087000211101000122BC000705840320000A1297
:1008800001100100000008424B00010100010203B9
:10089000011C037600690061006C003A00660036B6
:1008A0000034006300320062003300630000001E69
:1008B000034B0042004400360037004D004B004916
:1008C000004900520047004200560033000000106B
:1008D000034B0042004400460041004E005300001C
:1008E00000040309040011241FBECFEFDAE0DEBFCD
:1008F000CDBF04B603FE27C08091510890915208E5
:10090000A0915308B09154088730904BA740B04B4A
:10091000D1F410925108109252081092530810927C
:10092000540814BE84B7877F84BF0FB6F894A89587
:1009300080916000886180936000109260000FBE1B
:10094000E0E0F8E3099514E0A0E0B1E0E2E6F4E6C7
:1009500002C005900D92A032B107D9F728E0A0E2BD
:10096000B4E001C01D92A135B207E1F70E94BC04BA
:100970000C942F320C940000CF93DF93CDB7DEB7E9
:10098000E7970FB6F894DEBF0FBECDBF84B7877F61
:1009900084BF0FB6F894A895809160008861809319
:1009A0006000109260000FBE90E080E80FB6F894EF
:1009B00080936100909361000FBE85B7806885BF0A
:1009C00085B7806885BF82E59BE190932104809381
:1009D00020040E94B9290E94D8298091E2008460F5
:1009E0008093E200789480911A088823A1F01091F6
:1009F000E9001F709091EC00892F817090FD80E8D4
:100A0000182B1092E9008091E80083FD0E94972640
:100A10001F701093E90082E084BD93E095BD9AEFCA
:100A200097BD80936E0080EF0E94FF2381EF0E94AC
:100A3000FF2384EF0E94FF2386EC0E94FF2386E6BB
:100A40000E94FF2309E311E048E4E42E41E0F42E84
:100A5000D8018D918D010E94FF23E016F106C1F7A8
:100A6000E2E2F4E08CE294E0ABE7B4E011921192A0
:100A70001D921D928E179F07C9F70E94CF25EFEB9D
:100A8000FDE53197F1F700C000000E94CF2580916D
:100A90007B0480FF17C06FEF82E290E00E94633119
:100AA0006FEF83E290E00E9463316FEF84E290E0A9
:100AB0000E9463316FEF7FEF80E090E00E94813110
:100AC0000E94EE1B80E090E00E944D318B3E9E4FD5
:100AD00011F00E94F61C0E94031710921B08E4E319
:100AE000F8E084E498E02FEF3FEF219331938E17E5
:100AF0009F07D9F710923104EAE4F4E08AE594E024
:100B00002FEF3FEF219331938E179F07D9F780E0A6
:100B100090E00E944D318B3E9E4F21F00E94F61CCA
:100B20000E94CB1A45E050E06CE170E088E498E068
:100B30000E943531809148088C7F11F40E94CB1AB5
:100B400082E290E00E944531833481F483E290E0B8
:100B50000E9445318C3851F484E290E00E94453186
:100B600091E08C3F09F090E0892F01C080E080FD8A
:100B700002C00C94E40D80E090E00E944D318B3E69
:100B80009E4F11F00E94F61C82E090E00E944531D9
:100B9000809370040E94E51C90932D0480932C0494
:100BA00083E090E00E944531682F70E080E090E0A3
:100BB0000E94FF1E60912C04606860932C041091C9
:100BC0002D0484E090E00E946331612F81E290E087
:100BD0000E94633186E091E090932F0480932E046D
:100BE00022242394312C9E012F5F3F4F29018091B5
:100BF0001A08853009F06FC080911A08853009F015
:100C000064C080911A08843061F140E060E080E0C7
:100C10000E94891A81E0809362041092300480E47B
:100C200048E150E00FB6F894A895409360000FBEDD
:100C30008093600083B7817F846083BF83B78160C6
:100C400083BF7894889583B78E7F83BF0FB6F8945F
:100C5000A895809160008861809360001092600088
:100C60000FBE80911008882381F10E94CF25EBE709
:100C7000F4E081919191892B31F485E894E08E170D
:100C80009F07B9F722C080E189BD82E189BD09B41F
:100C900000FEFDCF8091D8008F7D8093D800809199
:100CA000E00082608093E0008091E00081FDFCCF55
:100CB0000E942E219FEFA3E2B4EF9150A040B040DC
:100CC000E1F700C000000E942E210E942E210E9408
:100CD0009F19109262040E94CF2581110E94471C27
:100CE000A1E7B4E0EBE7F4E000E010E0402FA190D2
:100CF000B1908D919D918A259B25009709F4AFC0F5
:100D0000F12CCC24C394D12C9C012C213D21232BEC
:100D100009F49FC0F9A64AA7AC20BD2081E0A11428
:100D2000B10409F480E08BA70E94531C8160782FE6
:100D30009DA78CA749A55AA56BA58DA50E94D5187E
:100D4000F801EE0FFF1FEF58FB4F80819181C826FD
:100D5000D926D182C082AB2889F08FE0809FF00134
:100D6000819FF00D1124E555FD4FEF0DF11D8081A0
:100D70008F3F21F08BABDD24D39401C0D12CC090E8
:100D800031040D2D10E0C8018C0D911D0997A4F1BF
:100D9000E8E0EE2EF12CE01AF10AB8016F5F7F4F08
:100DA0006F5C7B4FA70182E394E00E941F32B80181
:100DB000675F7F4F6F5C7B4FA7018AE394E00E94DF
:100DC0001F32A701440F551FB801660F771F675EDA
:100DD0007F4F6F5C7B4F8AE494E00E941F32B80122
:100DE0006F5E7F4F6F5C7B4FA70182E494E00E94AF
:100DF0001F32CA94C09231048091310490E00BA953
:100E0000A02FB0E09D01220F331F2A503D4FAA0FA3
:100E1000BB1FBD0169507D4F41E0480F9D15B0F4E7
:100E200090E0FC01EF5CFB4FD9015C915183DB0149
:100E30005C9151870BA9018B880F991FFC01EF5C16
:100E4000FB4F128E118E91E0842FE6CF80933104F8
:100E50001CC0F394CC0CDD1C2FE0F21255CF0F5FB9
:100E60001F4F0530110509F041CF8FEF8EA78FA7D7
:100E700018AA0E94531C8160782F9AAB89AB4EA5AB
:100E80005FA568A98AA90E94D51880915A049091FB
:100E90005B04A0915C04B0915D042FB7F894C090FE
:100EA0005E04D0905F04E0906004F09061042FBF76
:100EB000C81AD90AEA0AFB0A0E94471C60935A041E
:100EC00070935B0480935C0490935D04A091310463
:100ED000E1E3F4E07A2EB0E088248A94982CA12CE7
:100EE000B12C8C189D08AE08BF08AB1799F0418D46
:100EF000528D8A0120E030E080169106A206B306EA
:100F000010F47A9404C04C0D5D1D528F418FBF5F69
:100F10003296EBCF7092310420916204211108C007
:100F200010914808212F237019F01695169501C0CD
:100F300010E0209128012130E9F038F0223009F446
:100F40006EC2233009F47BC297C2109225016093D0
:100F5000440870934508809346089093470889E2B7
:100F6000E1E3F4E0ABE1B8E001900D928A95E1F79E
:100F700081E05FC28091050118130DC020914808DF
:100F8000237030E04091040150E081E024173507E0
:100F900019F480E001C081E0817080932701412F26
:100FA00050E04432510508F01DC2FA01EA5AFF4FE1
:100FB0000C941232882309F415C240E060E080E00E
:100FC0000E94891A0FC200912501000F000FB4E0A2
:100FD000FB2EF00E23E52F1510F4A3E5FA2E6091F9
:100FE000490870914A0880914B080E944022E62EE1
:100FF000D72EC82E0F1590F4E02FF0E0DF01A45695
:10100000BC4F8C9190912601982331F02C2D4E2DC0
:101010006D2DCF010E948B1A0F5FECCF81E032E57E
:101020003F1508F0E0C1DEC100912501000F000F5F
:10103000F4E0FF2EF00E43E54F1510F4E3E5FE2E2D
:10104000D0904A08E0904B08C0904908B6018E2D18
:101050000E944022B62EA72E982E60914C086C0D4F
:101060007D2D8E2D0E944022E62ED72EC82E0F15E4
:10107000B8F4802F90E0FC01E456FC4F30812091C1
:101080002601232359F030FF04C02C2D4E2D6D2D49
:1010900003C0292D4B2D6A2D0E948B1A0F5FE7CFBD
:1010A00081E052E55F1508F09EC19CC100912501C9
:1010B000000F000F74E0D72ED00E83E58D1510F4CD
:1010C00063E5D62EB0904A08A0904B0820914C08BA
:1010D00050E4C52E3C2D329F312D1124C32E0D1509
:1010E00008F065C0E02EF12CF701E456FC4F90812A
:1010F000809126018923B9F0F701EE0FFF1FE95017
:10110000FD4F808182958F70609149088C9D600DA4
:1011100011247B2D8A2D0E944022462F282F672FD5
:10112000C7010E948B1A0F5FDACF00912501000FD3
:10113000000F34E0D32ED00E53E55D1510F423E5F7
:10114000D22EB0904A08A0904B0820914C0890E411
:10115000C92E3C2D329F312D1124C32E0D1538F58B
:10116000E02EF12CF701E456FC4F9081809126018E
:101170008923D9F0F701EE0FFF1FEA50FD4F608180
:10118000C69EB001112485E0759567958A95E1F7B3
:1011900080914908680F7B2D8A2D0E944022462F9E
:1011A000282F672FC7010E948B1A0F5FD7CF81E0CE
:1011B00042E54D1508F017C115C100912501000F3A
:1011C000000FA4E0FA2EF00E53E55F1510F4F3E5DE
:1011D000FF2ED0904908E0904A08C0904B086091DB
:1011E0004C086695669566958091440890914508EF
:1011F0000E9436220E94E421805887FD8195880F45
:10120000282F3C2D239F212D1124822F6D2D7E2DE3
:101210000E944022E62ED72EC82E0F1590F4E02F04
:10122000F0E0DF01A456BC4F8C91909126019823E9
:1012300031F02C2D4E2D6D2DCF010E948B1A0F5F9A
:10124000ECCF81E042E54F1508F0CDC0CBC083E480
:1012500091E202C08AE796E10E94492CC4C08EE860
:1012600098E102C08FE698E10E94EF2BBCC084E5B4
:1012700098E11AC088E398E117C088E796E1ECCFBF
:101280008FE696E1E9CF86E696E1E6CF8BE496E13C
:10129000E3CF8CE396E108C08CEA98E1E5CF87E2E2
:1012A00098E1E2CF83E198E10E94752B9CC08EE02B
:1012B00096E105C08CED95E102C08EE995E10E94B2
:1012C000912C91C081111EC060914C0820E1620FE9
:1012D00008F46FEF80914408909145080E943622EF
:1012E00065E070E00E94EA31892B09F07BC00E9422
:1012F0001C3163E570E00E94FE31609126010E947E
:101300008D1A70C0E09025018E2D880F880F04E0A3
:10131000080F043508F003E5E82EF12CC02ED12C7F
:10132000EC14FD044CF460912601C7010E948D1A53
:101330005FEFE51AF50AF4CF81E0033508F453C0F6
:1013400051C087E995E102C081E995E10E94F02C46
:101350004AC080911B0821E0082F021B08F400E01E
:10136000802F68E775E13BC068E775E137C0809181
:101370001B0821E0382F321B08F430E0832F60E493
:1013800075E12DC060E475E129C080911B0821E062
:10139000482F421B08F440E0842F6EE075E11FC027
:1013A0006EE075E11BC080911B0821E0582F521B95
:1013B00008F450E0852F66EF74E111C066EF74E128
:1013C0000DC080911B0821E0082F021B08F400E0EB
:1013D000802F60EE74E103C060EE74E180E00E9453
:1013E0005A2D01C080E0909125019F5F90932501C7
:1013F000811122C082E08093280180912701811110
:101400001BC01123A9F00E949F1981FF35C02FEF47
:101410004FEF6FEF8EE190E00E948B1A2DC010937A
:101420000501809148088370809304010E94A616EC
:1014300083E08093280120C01123F1F0E4CF409194
:1014400044085091450860914608709147082FB7AD
:10145000F89480915E0490915F04A0916004B09133
:1014600061042FBF841B950BA60BB70B4A97A105F0
:10147000B10510F01092280186E0E9E6F4E0D2010F
:1014800001900D928A95E1F710916B0400916C0424
:10149000F0906D04E0906E0410926B0410926C0456
:1014A00010926D0410926E04111103C0002309F410
:1014B00051C080916704909168040E94381C9C017F
:1014C00090916604992309F499C32333310508F4F4
:1014D00041C09F3F19F09F5F90936604112361F014
:1014E0000E947723111614F491E001C09FEF899FA9
:1014F000802D112480936B04002361F00E947723D8
:10150000101614F491E001C09FEF899F802D1124E3
:1015100080936C0430916B043323E1F020916C04D0
:101520002223C1F045EB3403C0011124992319F0A3
:1015300090936B0403C081E080936B0455EB25030B
:10154000C0011124992319F090936C0403C081E029
:1015500080936C04F11003C0EE2009F451C0809117
:101560006404909165040E94381C9C01909163046E
:10157000992309F448C32536310508F441C09F3F3B
:1015800019F09F5F90936304FF2061F00E94552340
:101590001F1414F491E001C09FEF899F802D112446
:1015A00080936D04EE2061F00E9455231E1414F404
:1015B00091E001C09FEF899F802D112480936E04DC
:1015C00030916D043323E1F020916E042223C1F0A9
:1015D00045EB3403C0011124992319F090936D0455
:1015E00003C081E080936D0455EB2503C0011124F5
:1015F000992319F090936E0403C081E080936E04E8
:1016000080916B0481110BC080916C04811107C023
:1016100080916D04811103C080916E0481110E943C
:10162000A5251B830C83FD82EE8286E0F201A9E6EC
:10163000B4E001900D928A95E1F70E949F19909174
:101640006F04891721F00E949F1980936F04809185
:101650001A08843009F0CBCA83E08093E9008091B6
:10166000E80082FFC4CA8091E80085FF1FC00E9485
:101670000E2B811119C000E210E0720108C08091A8
:10168000F100D7018D937D010150110969F080911E
:10169000E80085FDF4CF8091E8008B778093E80027
:1016A0000E940E2B882399F391E001C090E0809175
:1016B000E8008B778093E800992309F498CA009199
:1016C0008B0410918C0489810115110561F08E3F06
:1016D00009F06CC28A81833008F49CC18550833044
:1016E00008F064C297C18B3009F47EC108F58530DB
:1016F00009F459C0A8F48230B1F130F4813009F016
:1017000053C21A8289E049C28330F1F1843009F072
:101710004BC24C816B818A810E94421A9D8352C2C6
:10172000873009F441C208F03FC20E94F1193EC25D
:10173000803109F49FC058F48D3009F441C0F0F1B4
:101740008E3009F441C08F3009F467C02DC2823158
:1017500009F496C008F491C0833109F4B9C08E3FF2
:1017600009F458C121C28A81823009F424C283302D
:1017700009F41CC2813009F017C20E94471C9B83E8
:101780008C837D836E8312C28A81823009F00CC201
:101790006B817C818D819E810E94183285E290E070
:1017A0000E94633103C22D813E81322723273227D5
:1017B0004C816B818A810E94BB19F8C180E15EC0B7
:1017C00081E08A8382E8E9C10A811B811027012711
:1017D0001027CC80D12CBDE1CB16D10408F0E6C196
:1017E0007201C80182589D4F9701241935092C15A3
:1017F0003D0508F0DBC10238E1E01E0730F40E942D
:101800004531D70114968C9302C0F70114820F5F03
:101810001F4FFFEFEF1AFF0AE4CF809189049091E8
:101820008A04892B09F4C2C10A811B811027012770
:101830001027EC80F12C2DE1E216F10408F0B6C17E
:101840006201C80182589D4F9601241935092E1551
:101850003F0508F0ABC1023831E0130728F4D60188
:1018600014966C910E9463310F5F1F4FBFEFCB1A2C
:10187000DB0AE7CF0E94AB1999C184E08A8396C145
:101880000A811B81102701271027CC80D12CEDE184
:10189000CE16D10408F08AC17201C801869697015C
:1018A000241935092C153D0508F080C10835F2E0F2
:1018B0001F0730F40E944531D70114968C9302C063
:1018C000F70114820F5F1F4FFFEFEF1AFF0AE5CFFA
:1018D0000A811B81102701271027CC80D12C2DE1F4
:1018E000C216D10408F062C1083532E0130708F0CF
:1018F0005DC188E592E0801B910B8C159D0508F475
:1019000055C1480146E2840E911C80918904909152
:101910008A04892B11F072015EC000FF0FC0C8015C
:1019200085960E94453190E0982F88272D81822B43
:1019300081159C4531F48FEF8D8303C0E12CF12C90
:1019400003C0EE24E394F12CC8018C0D9D1D5601BB
:1019500080FF1BC081E0A81AB10855E0652E712CEC
:101960006C0E7D1E6A0C7B1CC4018C0D9D1D0E949B
:101970004531D3012C9130E0322F2227282B21151D
:101980003C4519F48FEFF3018083F201EE0DFF1D4A
:101990002FEFCF01841995098A159B0508F0BBCF5D
:1019A000848190E0982F88273581832B81159C4571
:1019B00011F4248325833296ECCF083542E01407D6
:1019C00028F4D70114966C910E9463310F5F1F4F6A
:1019D000BFEFEB1AFB0AC801869697012419350957
:1019E0002C153D0550F3E2C08091890490918A0442
:1019F000892B09F4DBC0C2010E94602EEFEFF1EEEB
:101A000004E0E150F0400040E1F700C000000E9417
:101A1000EE1BCCC0EA818E2F90E08930910508F052
:101A2000C5C0FC01E658FF4F0C94123288E0E9E291
:101A3000F1E0DE01919601900D928A95E1F781E047
:101A400089831A821B821C8288E0FE01B196DE0126
:101A5000159601900D928A95E1F7A8C088E88983D0
:101A600081E08A831B821C82A1C08C8190E0982F28
:101A700088272B81820F911D092E000CAA0BBB0B0E
:101A800035E0880F991FAA1FBB1F3A95D1F7AC010B
:101A9000BD01405E5F4F6F4F7F4F481759076A0780
:101AA0007B0708F483C0883811E09107A105B105D0
:101AB00008F07CC0493821E052076105710520F02B
:101AC00048E851E060E070E0481B590BBC016A58DF
:101AD0007E4FC2010E942C3169C040E250E06FEF9E
:101AE00070E0C2010E9428328091890489830A83B0
:101AF0001B821C821D8281E065C030928C04209282
:101B00008B0482E390E090938804809387040E9482
:101B1000531C909386048093850448C0012BA9F13F
:101B200080917B0490917C049C013695279581706F
:101B3000182F122380918504909186040E94381CEE
:101B400085369105E0F01123D1F00E94531C90934B
:101B5000860480938504809187049091880401977E
:101B60009093880480938704892B79F410928C04D5
:101B700010928B0430928A042092890406C082E37A
:101B800090E09093880480938704809189048983EE
:101B900080918B048A83809187048B8307C0109285
:101BA0008A041092890402C08FEF8983C2010E94C7
:101BB000602E0C94F70585E290E00E9445311B826F
:101BC0001C821D828E83F2CF60E085E290E00E944D
:101BD00063310E94F1190E94AB1963E482E290E044
:101BE0000E9463316CE883E290E00E9463316CEF05
:101BF00084E290E00E9463310C94BB052D323140A9
:101C000008F069CCA7CC2D32314008F0BACCF8CC22
:101C10003F924F925F926F927F928F929F92AF927C
:101C2000BF92CF92DF92EF92FF920F931F93CF93C9
:101C3000DF93CDB7DEB729970FB6F894DEBF0FBE9E
:101C4000CDBFFC018081918123813481232B31F030
:101C50009F3F31F491E08F3F19F403C091E001C040
:101C600090E090FD1CC67F0185E0DE011196019099
:101C70000D928A95E1F7F701228189819A812223C9
:101C800049F00E94C91D182F682F89819A810E94EE
:101C90006B1E03C00E943F1E182F69817A81812F1D
:101CA0000E94701A8C01F7019281992309F4F2C005
:101CB000980122513F452031310508F019C18FEFBD
:101CC00093E00E9445318111EFC002513EE7832E1F
:101CD00032E0932E002379F08114F4E09F0609F49A
:101CE000E3C0C4010E944531811101C001501FEFC2
:101CF000811A910AEFCF1E821F821886198644240A
:101D000043942AE0322E84010F5F1F4FC4010E94CA
:101D100045318E831F82882309F4C6C09FEF980F38
:101D2000933060F48F834E8222E0820E911CC801B2
:101D30000E9445318887811102C0B6C048018E01DA
:101D40000A5F1F4FF80120812223E9F2213009F0B8
:101D50004CC08181813049F46801F2E0CF0ED11C82
:101D6000F80182810E944C2F0AC0823051F4680130
:101D7000F2E0CF0ED11CF80182810E94D42E8601A0
:101D800086C0833049F46801F2E0CF0ED11CF8011F
:101D900082810E949B2EF3CF843019F00F5F1F4F7A
:101DA00076C0F80122810E5F1F4F80E090E030E0A6
:101DB000205331092A30310568F4389EA001399E3C
:101DC000500D1124C901840F951F0F5F1F4FF8019B
:101DD0002081EDCF009709F45AC0EFE9FFE0319779
:101DE000F1F700C000000197F5CFE22FF0E0E25DCF
:101DF000FC4F5490822F86958695869590E0FC0145
:101E0000E25EFC4F64902770712C022E02C0759424
:101E100067940A94E2F7F1E06F227724FC01E25F15
:101E2000FC4FA490B12C022E02C0B594A7940A9442
:101E3000E2F731E0A322BB24FC01E250FD4FC49045
:101E4000D12C02C0D594C7942A95E2F781E0C8222C
:101E5000DD246114710419F081EE0E94D42EA114C6
:101E6000B10419F086EE0E94D42E852D0E944C2FCD
:101E7000AB2819F086EE0E949B2E672819F081EEA0
:101E80000E949B2ECD2819F08CE20E944C2F0F5FF0
:101E90001F4F58CF00313FE5130709F0F7C481E029
:101EA0000E94A01E0E94412B8091E007877009F4D8
:101EB000F6C4F7018281882309F4F1C482E02996EF
:101EC0000FB6F894DEBF0FBECDBFDF91CF911F914B
:101ED0000F91FF90EF90DF90CF90BF90AF909F90C9
:101EE0008F907F906F905F904F903F900C94C51EA5
:101EF0000031FFE51F0711F481E005C001312FE536
:101F0000120721F482E00E94DE1ECCCF033FFCE5E5
:101F10001F0749F406E221EE40EE63EF7CE5C701BE
:101F20000E94DC1AC1CF043F2CE5120708F04AC119
:101F3000083D3CE5130731F407E225EE45EE68ED78
:101F40007CE5EDCF093D8CE5180731F408E221E08E
:101F500045EE69ED7CE5E3CF073DECE51E0731F486
:101F600006E221EE41EE67ED7CE5D9CF992309F435
:101F70005EC110928D040230ECE51E0708F441C1E9
:101F80000631FCE51F0738F098012A5F3C452930EF
:101F9000310508F036C10E94E51C90932D04809312
:101FA0002C0400312CE5120709F4C3C008F041C02D
:101FB00008308CE5180709F49AC0F0F40430ECE519
:101FC0001E0709F487C068F402302CE5120709F4F3
:101FD00077C003301C4509F0E5C080912C04826075
:101FE00076C006308CE5180709F46EC008F07BC097
:101FF00080912C0488606BC00C30ECE51E0709F45E
:1020000085C068F40A302CE5120709F474C008F0A2
:1020100079C00E942E2180912C04806858C00E3017
:102020008CE5180709F476C008F07FC080912C0475
:102030008BC00B3FECE51E0709F44FC018F50331C8
:102040002CE5120709F47DC078F401318CE51807FE
:1020500009F473C002311C4509F0A4C00E942E216E
:1020600080912C048F7733C00531ECE51E0709F40D
:1020700072C008F486C00A3F1C4509F093C08091E5
:102080002D043EC00F3F3CE5130709F45FC058F430
:102090000D3F9CE5190709F444C008F43FC0809146
:1020A0002D0482602DC00130FDE51F0709F475C0C5
:1020B00008F45DC002301D4509F074C060E06EC0D8
:1020C00080912C04816003C080912C0480618093F6
:1020D0002C0468C080912C0411C080912D04826072
:1020E00080932D045FC080912C048062F0CF80919A
:1020F0002C048064ECCF80912C0488608460E7CF4E
:102100008160EECF80912C048E7FE1CF80912C04F2
:102110008D7FDDCF80912C04877FD9CF80912D04D6
:1021200018C080912D048D7FDBCF80912C048F7E91
:10213000CECF80912C048F7DCACF80912C048F7BD1
:10214000C6CF80912C04877F8B7FC1CF80912D04D7
:102150008D7F8E7FC5CF80912C0482FB222720F9B2
:1021600091E0922790FB82F990FB83F9B0CF8091A8
:102170002D04982F909591708E7F892B90FB81F97B
:10218000AFCF0E942E2180912C0487FB222720F9BB
:1021900091E0922790FB87F99ACF61E08EE090E082
:1021A0000E94633160912C0410912D0484E090E032
:1021B0000E946331612F81E290E00E9463310E94AE
:1021C0002E2172CE053FFCE51F0731F406E221EE19
:1021D00042EE65EF7CE5A3CE053F2CE5120730F417
:1021E00007E225EE44EE64EF7CE599CE063F3CE540
:1021F000130709F0BBCE07E225EE46EE66EF7CE55D
:102200008ECE8091E3070631ECE51E0709F58A7A48
:1022100091E009F490E090938E04882311F065E337
:1022200001C069E285E597E00E94B01C0EC006314E
:102230001C4509F07AC080918E04882309F42DC3CF
:1022400065E385E597E00E94881C0E94661D2CCE00
:102250008272F801E25CFC45E431F10508F04DC002
:10226000ED57FF4F0C9412329091480881E0892776
:1022700080934808109228010E94AF1A15CE40E0C2
:1022800058E169E078E12CC049E058E160E078E18C
:1022900027C04EEE57E167EF77E122C047EF57E1E5
:1022A0006EEE77E11DC046ED57E162EE77E118C0B2
:1022B00042EE57E166ED77E113C04EEB57E16AEC71
:1022C00077E10EC04AEC57E16EEB77E109C041ECD3
:1022D0005AE167EB7AE104C047EB5AE161EC7AE13D
:1022E0000E94831AE1CD81E005C085E003C08DE046
:1022F00001C082E10E945F2BD7CD01158CE5180744
:1023000031F00E3D1C4589F40E94F61CCDCD0E9493
:102310002E21FFEF04E31CE0F15000401040E1F7F4
:1023200000C000000E94EE1BBFCDF70100811181AB
:10233000992349F0C8010E94C91DD82E682FC801F1
:102340000E946B1E04C0C8010E943F1ED82EB80117
:102350008D2D0E9416248C01982EF701D280A58025
:10236000A2949FE0A9228091E007877099F0DD2078
:1023700089F0812F807F803421F080E2800F8830C7
:1023800048F082E00E94C51E8091E0078770CC244F
:10239000C3948111C12CB12EB2948FE0B8228B2D41
:1023A00090E08C30910508F03DC2FC01E956FF4FEA
:1023B0000C941232812F807F1F70882311F01295A8
:1023C000107FDD20B9F0112309F417C280E2800FDD
:1023D000883010F0911006C08091E307182B1093FD
:1023E000E30705C08091E207182B1093E2070E94D3
:1023F000661D03C2802F0E949B2E112309F412C276
:10240000005E1095083010F0911006C08091E3072F
:1024100018231093E30705C08091E2071823109357
:10242000E2070E94661DFEC1812F807F1F708032EF
:1024300011F01295107F992021F0F1E09F16E1F044
:102440002AC0DD2081F08091E407AA2051F001E04C
:10245000A01207C0182B181709F4E4C11093E40761
:10246000E1C1812B10C0AA2021F021E0A21609F4BD
:10247000D9C10E94601D27C0DD2041F035E03A152A
:1024800008F4D0C1812F0E94912ECCC184E08A151E
:1024900008F4C8C118C0DD2049F0AA2099F3F7015B
:1024A000858180FFAAC18F708583ECCFAA2059F067
:1024B000093309F0B4C1FFEF17EE23E0F1501040EB
:1024C0002040E1F7AAC1812F0E94862EABC1812F47
:1024D00086958695837019F0813059F0A3C1DD206F
:1024E00019F0C801937002C080E090E00E94891941
:1024F00099C1DD2019F0C801937002C080E090E01E
:102500000E9473198FC1802FDD2029F00E9497232C
:102510000E94A52502C00E94D0220E94A52582C14A
:10252000812F837009F06AC0D11080C1902F9295DD
:1025300096959770990F990F802F8F70482E512C78
:10254000612C712C092E04C0440C551C661C771C90
:102550000A94D2F704FF12C04FE050E060E070E050
:1025600004C0440F551F661F771F9A95D2F7DB01F1
:10257000CA0180959095A095B09503C080E090E049
:10258000DC0116951695412F43704230D9F068F55D
:102590000091E5071091E6072091E7073091E807E1
:1025A000413059F084299529A629B729BC01CD01CC
:1025B00060237123822393231EC0402A512A622A5A
:1025C000732A13C084299529A629B7290091E50704
:1025D0001091E6072091E7073091E807BC01CD0193
:1025E000602771278227932706C0BC01CD0164298B
:1025F0007529862997290E94FF1E14C1DD2019F034
:10260000812F817001C08695882309F40FC1902F16
:10261000929596959770990F990F802F8F70482EED
:10262000512C612C712C092E04C0440C551C661CC5
:10263000771C0A94D2F704FF12C04FE050E060E02C
:1026400070E004C0440F551F661F771F9A95D2F79C
:10265000DB01CA0180959095A095B09503C080E0FC
:1026600090E0DC0116951695412F43704230D9F069
:1026700068F500914D0810914E0820914F08309157
:102680005008413059F084299529A629B729BC0161
:10269000CD0160237123822393238CC0402A512AC9
:1026A000622A732A13C084299529A629B729009183
:1026B0004D0810914E0820914F0830915008BC01F0
:1026C000CD01602771278227932774C0BC01CD01FB
:1026D00064297529862997296DC01F70DD2029F08E
:1026E000812F0E94DE1E802FCECE802F0E94862E4C
:1026F000812F49C0802F32EF931609F440C039155D
:1027000038F090EF991661F0E1EF9E1699F170C0E4
:10271000F3EF9F16D9F124EF921609F44EC068C06A
:10272000DD2019F134E03A1508F47CC01F7181E016
:1027300090E0A0E0B0E0AC01BD0104C0440F551F23
:10274000661F771F1A95D2F780914D0890914E0819
:10275000A0914F08B09150088A019B0108271927C2
:102760002A273B27C901B80125C025E02A1508F40E
:1027700059C0DCCFDD2029F0812F8F712CC0DD20E6
:10278000D9F3812F8F710E94A01E4CC0DD2079F0FB
:102790001F7181E090E0A0E0B0E0BC01CD0104C079
:1027A000660F771F881F991F1A95D2F703C060E044
:1027B00070E0CB010E94961E35C0DD2079F01F71BC
:1027C000812F0E94DE1E38E0139FC0011124836018
:1027D0008093E007812F0E94DE1E24C081E00E94CA
:1027E000C51E81E08A15F0F482E00E94C51E1AC061
:1027F000DD2039F0AA2009F4BFCF802F0E94D42E0B
:1028000011C0AA2009F4BDCF893349F49FEFE7EE48
:10281000F3E09150E040F040E1F700C00000802F6D
:102820000E949B2E88EF8B0D843010F40E949F191C
:10283000CC20A9F18091E00780FD31C0F701128220
:102840008595859585950E94DE1EC7010E94080E1C
:102850008091E00785958595859529960FB6F89422
:10286000DEBF0FBECDBFDF91CF911F910F91FF90C3
:10287000EF90DF90CF90BF90AF909F908F907F9020
:102880006F905F904F903F900C94A01E01318FE5A8
:10289000180709F03BCB82E003CB69E2D2CC299642
:1028A0000FB6F894DEBF0FBECDBFDF91CF911F9161
:1028B0000F91FF90EF90DF90CF90BF90AF909F90DF
:1028C0008F907F906F905F904F903F9008950F93FF
:1028D0001F93CF93DF938335910508F052C0880F83
:1028E000991F880F991FFC01E75BFE4F508152959D
:1028F0005F703181732F7295707FC72FC52B329512
:102900003F70D32FD370FC01E65BFE4F30813295D0
:102910003695369533705181752F770F770FA72F26
:10292000A32BB52FB295B695B695B370FC01E85BB5
:10293000FE4F8081382F3370982F96959695818120
:10294000582F5295550F550F507C052F092B869502
:102950008695182F1370EFE5F1E03E9FC0013F9F71
:10296000900D112480519A4FFC01E00FF11F6083FC
:10297000C80FD91F4883A80FB91F2C9381E08093FB
:10298000EF05DF91CF911F910F910895FF920F9363
:102990001F93CF93DF93182F062FF42EC0E0D0E0C3
:1029A0002F2D402F612FCE010E9467142196C33531
:1029B000D105B1F7DF91CF911F910F91FF9008954D
:1029C000EF92FF920F939701201B31092F3F3105A2
:1029D00019F010F02FEF30E02095382F320F08F467
:1029E0003FEF832F0F91FF90EF900895EF92FF92AA
:1029F0000F939701201B31092F3F310519F010F07B
:102A00002FEF30E0322F3095482F430F08F44FEF6F
:102A1000842F620F0F91FF90EF900895EF92FF9235
:102A20000F93972F093438F4B701601B71096F3F7A
:102A3000710519F010F06FEF70E0485F5F4F4131A2
:102A4000510540F0A901485F5F4F4131510510F039
:102A50006FEF70E06095482F460F08F44FEF842F1A
:102A600037FF02C02D5F3F4F359527953595279548
:102A700060914908620F792F0F91FF90EF900895B0
:102A8000EF92FF920F93E00EF11CF90137FF03C0A4
:102A9000F195E195F10924E0EE0FFF1F2A95E1F78A
:102AA000EF3FF10519F014F0EFEFF0E09A0157FF56
:102AB00003C031952195310994E0220F331F9A9577
:102AC000E1F72E173F070CF4F901EE0DFF1DEF3F64
:102AD000F10519F010F0EFEFF0E02E2F2095382FD0
:102AE000320F08F43FEF832F0F91FF90EF9008957E
:102AF000EF92FF920F93970195E0099F200D311DF2
:102B000011242F3F310519F010F02FEF30E0209500
:102B1000382F320F08F43FEF832F0F91FF90EF9083
:102B2000089522E8241B08F420E0620F08954095E0
:102B3000282F429F412D1124842F08950F931F9316
:102B400010E0F801EE0FFF1FEA50FD4F9081905703
:102B500097FD9195000F111FF801E950FD4FE0819D
:102B6000F0E0B097DF01AA0FBB1F8D010E0F1F1FF2
:102B70002003D001219FB00D1124E8E3F0E0E91B10
:102B8000F10997FDF3959F01220F331F89010E0F65
:102B90001F1F40039001419F300D11242A0F3B1F3E
:102BA00037FF02C021583F4F220F232F221F330B24
:102BB000620F1F910F9108950F931F93522F10E0F2
:102BC000F801EE0FFF1FE950FD4FE081F0E0B097F4
:102BD000EE0FFF1F9F015203D001539FB00D112430
:102BE000000F111FF801EA50FD4F008110E000575F
:102BF0001109000F111F40039001419F300D112456
:102C00002A0F3B1F37FF02C021583F4F220F232FAF
:102C1000221F330B620F1F910F9108950F931F9383
:102C2000522F10E0F801EE0FFF1FE950FD4FE08139
:102C3000F0E0B0979F015203D001539FB00D1124D3
:102C4000000F111FF801EA50FD4F008110E00057FE
:102C5000110940039001419F300D11242A0F3B1FA1
:102C600037FF02C021583F4F220F232F221F330B63
:102C7000620F1F910F910895EF920F931F9393E0AE
:102C8000099F80011124159507956E2D600F1F91E6
:102C90000F91EF900895A22F50E0FA01EE0FFF1F61
:102CA000E950FD4F9081905297FD9195440F551F2B
:102CB000FA01EA50FD4F3081232F30E02A1B310901
:102CC000290F311D97FD3A95620F0895E42FF0E02A
:102CD000EE0FFF1FE950FD4F6081621B0895E42F46
:102CE000F0E0EE0FFF1FEA50FD4F6081621B089578
:102CF000622F0895E42FF0E0EE0FFF1FEA50FD4F22
:102D0000408134EE439F412D1124E82FF0E050E044
:102D1000445E5F4FDA01A21BB1099D01B7FF03C0FA
:102D200031952195310993E0220F331F9A95E1F7F0
:102D3000AF01421B530B9A0157FF02C020E030E065
:102D4000582F259F212D1124822F08950F931F9313
:102D5000CF93DF938091EF05882309F44DC065EC94
:102D60008EEF0E94282E60E08DEF0E94282EC0E09A
:102D7000D0E004EB10E0CE01B8010E94FE31809358
:102D8000110182E1FE01E051FA4FA2E1B1E00190B0
:102D90000D928A95E1F724E630E043E150E061E1ED
:102DA00071E080E60E94A930892B31F56296C63524
:102DB00081E0D80761F0C43BD105E9F665EC8EEF00
:102DC0000E94282E61E08DEF0E94282ED4CF82EA47
:102DD0008093110189E0E6E4F7E0A2E1B1E001901F
:102DE0000D928A95E1F724E630E04AE050E061E197
:102DF00071E080E60E94A9301092EF05DF91CF913B
:102E00001F910F910895EF92FF920F931F93CF930D
:102E1000DF930E941C3065EC8EEF0E94282E64E048
:102E20008DEF0E94282E61E080E00E94282E6FEF37
:102E300081E00E94282E67E782E00E94282E8FE31F
:102E40009CE90197F1F700C00000A0E0B0E0CFE5F9
:102E5000D1E0FF24FA94EE24E394CD01880F991F6A
:102E6000880F991FFC01E75BFE4F308132953F7060
:102E70002181422F4295407F642F632B22952F7032
:102E8000722F7370FC01E65BFE4F408142954695C0
:102E9000469543705181E52FEE0FEE0F2E2F242B18
:102EA000352F3295369536953370FC01E85BFE4F31
:102EB0004081842F837090E0542F56955695418120
:102EC000E42FE295EE0FEE0FE07C0E2F052B4695DA
:102ED0004695142F13708C9FA0018D9F500D9C9FC1
:102EE000500D112441575B4FFA01E00FF11FF082A2
:102EF000FA01E60FF71FF082FA01E20FF31FF082EA
:102F0000FC01E251FA4FE0821196A335B10509F0B8
:102F1000A4CF8091EE05882351F165EC8EEF0E94DD
:102F2000282E62E08DEF0E94282E0FE814E0C0E00A
:102F3000F80161918F018C2F0E94282ECF5FC43B36
:102F4000B9F765EC8EEF0E94282E63E08DEF0E94AA
:102F5000282E03E415E0C0E0F80161918F018C2F69
:102F60000E94282ECF5FCB3AB9F71092EE05DF9181
:102F7000CF911F910F91FF90EF900895E8E4F8E052
:102F8000438120E1421B08F440E08181628190E0AE
:102F90000C941B2EE8E4F8E0438120E1420F08F492
:102FA0004FEF8181628190E00C941B2EE8E4F8E001
:102FB000628120E1621B08F460E08181438190E03E
:102FC0000C941B2EE8E4F8E0628120E1620F08F423
:102FD0006FEF8181438190E00C941B2EE8E4F8E0D0
:102FE000818190E04381628108970C941B2EE8E474
:102FF000F8E0818190E04381628108960C941B2E59
:103000008091480886958695815009F483E20C9456
:103010005F2B80914808869586958F5F843208F0F3
:1030200081E00C945F2BEF920F93CF93DF93D72F18
:10303000C82FC9010E19BA010E94B121602F681B67
:103040007D2F8C2FDF91CF910F91EF9008950F93EB
:10305000CF93DF93D72FC82FC901BA010E94B121A6
:10306000682F600F7D2F8C2FDF91CF910F910895E6
:10307000EF920F931F93CF93DF93D62FC72F182F65
:10308000C9010E19010FBA010E94B121081B202F9E
:10309000219F212D1124822F6D2F7C2FDF91CF9125
:1030A0001F910F91EF900895EF920F931F93CF937D
:1030B000DF93D62F172FC82FC9010E19070FBA019A
:1030C0000E94B121702F781B719F712D11246D2FDB
:1030D0008C2FDF91CF911F910F91EF900895FF9268
:1030E0000F931F93CF93DF93F62ED72F182FC9017D
:1030F000C12FC01BBA010E94B121982F990F890FCF
:10310000C81B2C2F219F212D1124822F6F2D7D2F45
:10311000DF91CF911F910F91FF900895FF920F9330
:103120001F93CF93DF93F62E172FD82FC901C72FE8
:10313000C01BBA010E94B121982F990F890F7C2FD3
:10314000781B719F712D11246F2D8D2FDF91CF91E1
:103150001F910F91FF9008950F93CF93DF93D72F77
:10316000C82F47FD4195E8E3F0E0CF01841B9109AA
:1031700047FD9395889FB001899F700D700D1124B4
:10318000229FC001239F900D900D1124860F971F41
:103190000E940522682F660F860F682F600F7D2F13
:1031A0008C2FDF91CF910F9108951F93CF93DF93D1
:1031B000CDB7DEB767970FB6F894DEBF0FBECDBFB1
:1031C000342F4B8B252F5C8B6D8B7E8B8F8B4E8999
:1031D0005F8961111092E20786E0FE013D96DF01F2
:1031E000982F1D929A95E9F73D872E876F87598B07
:1031F000488BDE01179601900D928A95E1F7CE017A
:1032000007960E947F1F81113EC086E0FE0137961F
:10321000DE01119601900D928A95E1F7FF81E88514
:103220006A857B856115710531F0EF3F31F481E0EE
:10323000FF3F19F403C081E001C080E080FD23C09E
:1032400020917C0730E0C901019687709927409151
:10325000AD0750E08417950779F1F983EA837D8300
:103260006C8396E0929FD001939FB00D1124A358D8
:10327000B84FFE01319601900D929A95E1F7809337
:103280007C070E94091F16E08091AD0790917C0792
:103290008917F9F0189FC00111248358984F0E9494
:1032A0007F1F8823B1F08091AD0790E00196877071
:1032B00099278093AD07E8CF0E942E2110927C07BA
:1032C0001092AD07E6E7F7E086E0DF011D928A95F0
:1032D000E9F767960FB6F894DEBF0FBECDBFDF915A
:1032E000CF911F91089520915307309154072817CB
:1032F000390771F09093540780935307E0912E049F
:10330000F0912F04309721F00084F185E02D09948D
:10331000089520915107309152072817390771F00D
:103320009093520780935107E0912E04F0912F045F
:10333000309721F00680F781E02D09940895E091FF
:103340002E04F0912F04309721F00190F081E02DB0
:10335000099480E00895CF93DF93CEE7D2E060E058
:10336000CE010E9463312196C11584E0D807B9F7D8
:10337000DF91CF9108950F931F93CF93DF93843004
:1033800058F5653048F54F3038F521159CE539077B
:1033900031F4E0918904F0918A04EF2BE9F089017E
:1033A000C42FD0E0CC0FDD1F9EE1699FC00DD11D61
:1033B000112496E9899FC00DD11D1124612FCE01E2
:1033C00086960E946331602FCE018796DF91CF9160
:1033D0001F910F910C946331DF91CF911F910F9149
:1033E00008958F929F92AF92BF92CF92DF92EF9209
:1033F000FF920F931F93CF93DF93C0908904D090D7
:103400008A0481E090E090938A0480938904812C5F
:10341000E12CF12C912C00E010E0C0E0D0E057014D
:10342000A00EB11EFE01EE0FFF1FEA0DFB1DE255BF
:10343000FC4F259134914C2F692D882D0E94BB198A
:103440002196CF30D10571F7025E1F4F939485E02E
:103450009812E3CF86E9E80EF11C839484E0881289
:10346000D9CFD0928A04C0928904DF91CF911F9165
:103470000F91FF90EF90DF90CF90BF90AF909F9013
:103480008F9008950F931F93CF93DF93843008F5A7
:103490006530F8F44F30E8F4C42FD0E0CC0FDD1FD6
:1034A0002EE1629FC00DD11D112436E9839FC00D0E
:1034B000D11D1124CE0186960E94453190E0182F2F
:1034C0000027CE0187960E9445319801282BC9011B
:1034D00002C080E090E0DF91CF911F910F9108959D
:1034E000462F20918B0430918C04232B49F4843097
:1034F00038F4753028F46F3018F4672F0C94421AA2
:1035000080E090E00895882311F0FA0101C0FB01EA
:1035100009940C94C6140C9467141F93CF93DF93F3
:10352000FC01E456FC4F20816223A9F0EC010E94CB
:103530001C31182F0E941C31612F782F80914B086D
:103540000E944022462F282F672FCE01DF91CF9176
:103550001F910C948B1ADF91CF911F91089545E034
:1035600050E06CE170E088E498E00C945331E8E4BA
:10357000F8E0248130E1230F08F42FEF24830C942A
:10358000AF1AE8E4F8E0248130E1231B08F420E0DE
:1035900024830C94AF1AE8E4F8E081E380838091FF
:1035A000310190913201A091330181839283A383F1
:1035B0008FE784830C94AF1A0F931F93CF93DF93FD
:1035C000C42FD22FFC0182818823C9F040938D043F
:1035D0000E94531C9093500780934F0780E28C0FFA
:1035E000883008F057C0C77081E001C0880FCA95C5
:1035F000EAF7DF91CF911F910F910C94912E80915A
:103600008D04481330C080914F07909150070E945D
:10361000381C883C910538F510E21D0FCD17B9F024
:1036200080E28C0F883040F4C77081E001C0880FC1
:10363000CA95EAF70E94862E183028F581E09D2F62
:10364000977001C0880F9A95EAF70E94912E802FFB
:103650000E944C2F1830F0F4D77081E001C0880F21
:10366000DA95EAF70AC080E28C0F883098F4C770C8
:1036700081E001C0880FCA95EAF7DF91CF911F91D1
:103680000F910C94862E802FDF91CF911F910F9177
:103690000C944C2FDF91CF911F910F910895809141
:1036A000EE07089580E00895CF93DF9300D01F9236
:1036B000CDB7DEB790911A08943011F589837B83DA
:1036C0006A839093E9008FEF9091E800815095FD17
:1036D00006C095ED9A95F1F700008111F5CF809124
:1036E000E80085FF0DC040E050E063E070E0CE01EF
:1036F00001960E94342E8091E8008E778093E80036
:103700000F900F900F90DF91CF910895BC0184E04E
:103710000C94541BBC0183E00C94541B24E02093B4
:10372000E9002FEF3091E800215035FD06C035ED5E
:103730003A95F1F700002111F5CF2091E80025FF1F
:103740000BC040E050E066E070E00E94342E8091B3
:10375000E8008E778093E8000895CF93DF9320915F
:103760001001222339F020912C0427FF03C060E2CE
:1037700024E002C068E021E02093E9002FEF3091BF
:10378000E800215035FD06C035ED3A95F1F700000F
:103790002111F5CF2091E80025FF1DC0EC0180919B
:1037A0001001811105C040E050E068E070E003C006
:1037B00070E040E050E0CE010E94342E8091E8009D
:1037C0008E778093E80080E2FE01AFEEB7E00190D3
:1037D0000D928A95E1F7DF91CF91089581E0809372
:1037E000E00080E28093D8001092C9008FE19EE44F
:1037F0000197F1F700C0000087E090EBDC018093B7
:10380000510890935208A0935308B09354089CE039
:1038100088E10FB6F894A895809360000FBE90934E
:103820006000FFCF78941F920F920FB60F92112471
:103830008F939F93AF93BF9380915E0490915F04A9
:10384000A0916004B09161040196A11DB11D809307
:103850005E0490935F04A0936004B0936104BF91F1
:10386000AF919F918F910F900FBE0F901F90189561
:103870009C014FB7F89480915E0490915F04A091F1
:103880006004B09161044FBF821B930B08952FB762
:10389000F89460915E0470915F048091600490914F
:1038A00061042FBF08952FB7F89480915E04909122
:1038B0005F04A0916004B09161042FBF08951F922E
:1038C0000F920FB60F9211248F939F93AF93BF93D4
:1038D00080913004811113C080915E0490915F0447
:1038E000A0916004B09161044196A11DB11D809327
:1038F0005E0490935F04A0936004B0936104BF9151
:10390000AF919F918F910F900FBE0F901F901895C0
:10391000209110012223C9F020912C0427FF15C00B
:10392000262F2695269526952E31C8F4FC01E20F08
:10393000F11D677081E090E001C0880F6A95EAF799
:1039400080959281892382830895FC0106962281C5
:10395000621301C012823196E817F907C1F7089582
:10396000209110012223C1F020912C0427FF14C0C4
:10397000262F2695269526952E3130F5FC01E20F4F
:10398000F11D677081E090E001C0880F6A95EAF749
:103990009281892B82830895FC0132962FEF30E0CB
:1039A0004191641789F02F3F19F4411101C0232F71
:1039B0003F5F3630A9F72F3F39F0FC01E20FF11DD0
:1039C00027FDFA95628308950895CF9384E090E0EF
:1039D0000E944531C82F81E290E00E9445312C2F92
:1039E00030E0A901582BCA01CF9108956BEE7EEF0C
:1039F00080E090E00E94813160E082E090E00E94EF
:103A0000633160E083E090E00E9463311092E5074B
:103A10001092E6071092E7071092E80760E084E052
:103A200090E00E94633160E081E290E00E946331A7
:103A300060E085E090E00E94633160E086E090E025
:103A40000E9463316FEF87E090E00E94633140E0B5
:103A500050E0BA0188E090E00E94753160E08DE0AE
:103A600090E00E94633140E050E0BA0188E190E0CC
:103A70000E94753160E087E190E00E94633140E090
:103A800050E0BA018CE190E00E94753160E080E284
:103A900090E00E94633140E050E0BA0188E190E09C
:103AA0000E94753140E050E0BA018FE090E00E9442
:103AB000753140E050E0BA0183E190E00C9475313B
:103AC0008091E40781111092E40708959091E30733
:103AD0008091E207892B2091E107982F922B9093F8
:103AE00055078091E4078823D9F0892B80935507E7
:103AF00080911001882331F080912C0487FF02C04F
:103B00008EE101C086E0E7E5F7E090E0815028F023
:103B100021912223D9F39F5FF9CF91110E94601D5B
:103B2000E0912E04F0912F043097A9F080911001BC
:103B3000882359F080912C0487FF07C08091550796
:103B40008093560785E0809355070280F381E02D2E
:103B500085E597E00994089580E090E00E94891936
:103B600080E090E00E9473191092E2071092E10742
:103B70000E94661DE9E6F4E086E0DF011D928A9569
:103B8000E9F71092660410926304109275070C9482
:103B9000A525BF92CF92DF92EF92FF920F931F93D2
:103BA000CF93DF938C01C0904D08D0904E08E090E9
:103BB0004F08F09050088091E5079091E607A0919A
:103BC000E707B091E807C82AD92AEA2AFB2ACFE1F9
:103BD000D0E0D701C6010C2E04C0B695A7959795E5
:103BE00087950A94D2F780FD04C0219790F7B12CF5
:103BF00007C0BC2EB8018C2F0E9416240197A9F390
:103C00008B2DDF91CF911F910F91FF90EF90DF905F
:103C1000CF90BF900895CF93DF93EC010E94C91D10
:103C2000BE010E941624DF91CF9108950E940B1EC1
:103C3000292F2F70E92FE295EF704E2F50E0FA01F7
:103C40003297EE30F105B8F4ED55FF4F0C94123277
:103C5000803F99F018F4883E70F40FC0843F59F407
:103C60000CC0883E50F0813F31F407C0822F86950A
:103C700086958695089580E0089581E008952FE067
:103C8000929F800D1124682F669566956695982FF2
:103C9000977085E0689FB001112440E050E080E01B
:103CA000FB01E40FF51FE255F84F208130E0092EAB
:103CB00002C0369527950A94E2F721703327042E27
:103CC00001C0220F0A94EAF7822B4F5F5F4F453005
:103CD000510531F708952FE0929F800D1124E82FB0
:103CE000E695E695E695877051E001C0550F8A95F7
:103CF000EAF785E0E89FF0011124E255F84F20E053
:103D000030E070E04081CB01022E02C0969587958D
:103D10000A94E2F781708195842785238427819313
:103D20002F5F3F4F2530310569F7089560934D08A7
:103D300070934E0880934F08909350080C94AC1DDC
:103D40000F931F9341E050E060E070E004C0440F27
:103D5000551F661F771F8A95D2F74095509560953D
:103D6000709580914D0890914E08A0914F08B091A8
:103D700050088A019B01082319232A233B23C901E8
:103D8000B8011F910F910C94961E2091E007809529
:103D900082238093E007982F977079F430E0482FC2
:103DA000082E000C550B2417350739F0859585959D
:103DB00085950E94A01E1092E00708950F931F930F
:103DC00041E050E060E070E004C0440F551F661F02
:103DD000771F8A95D2F780914D0890914E08A09157
:103DE0004F08B09150088A019B01082B192B2A2BF0
:103DF0003B2BC901B8011F910F910C94961E609343
:103E0000E5077093E6078093E7079093E8070C9423
:103E1000AC1D8091AD0790917C07891719F08F5FD9
:103E20008770FBCF08950F931F93CF93DF938091FB
:103E30007B0782958F7009F05DC080917807882399
:103E400009F458C08091AD0710917C076091760706
:103E500070917707C0917907D0917A0791E06F3F11
:103E600009F090E0292F06E0811709F443C020975C
:103E700021F07F3F21F030E003C031E001C0322F5C
:103E800090E030FD34C0089FF001099FF00D11242F
:103E9000DF01A358B84F11963C911197371327C0F3
:103EA0003C91361324C012963C91129731111FC0D9
:103EB00013964D915C9114974C1B5D0B483C51053A
:103EC000B0F480917B078F70806180937B07EE5701
:103ED000F84F80818F708061808386E797E00E9431
:103EE000080EDF91CF911F910F910C94091F01963D
:103EF0008770BACFDF91CF911F910F9108959F9254
:103F0000AF92BF92CF92DF92EF92FF920F931F93E7
:103F1000CF93DF93CDB7DEB761970FB6F894DEBFCE
:103F20000FBECDBF8C0185E0F801DE011D9601902A
:103F30000D928A95E1F7F80190818181E2803091BC
:103F40007607609177074091790750917A0741157C
:103F5000510531F06F3F31F421E03F3F19F403C0C8
:103F600021E001C020E0F22FF1709F2E20FD23C13F
:103F7000F801C380D48026E7A22E27E0B22EF0906D
:103F80007807F601E41BF50BFF2009F4CEC0209161
:103F90007B07E83CF10508F099C0422F407F09F00B
:103FA00051C0681311C039130FC0FE2CE1100CC0B2
:103FB0002F70206120937B07C5010E94080E80911D
:103FC0007B07F801858337C1CD2831F08F3F31F46D
:103FD00021E09F3F19F403C021E001C020E020FD53
:103FE00003C021E02E2502C020E030E0F22FF17066
:103FF000FF2E20FF1DC02091AD0740917C0756E0A9
:10400000241709F4F6C030E0529FF001539FF00DE1
:104010001124E358F84F6181861306C0608196131E
:1040200003C06281E61204C02F5F3F4F2770E8CFC4
:10403000FE2CEE2009F4FFC080917B078160809305
:104040007B0750C0681307C0391305C0E11003C0D7
:10405000F80125838DC09D878E878D859E850E9462
:10406000161E882369F1EE2059F120917B07822FDB
:1040700082958F7090E0029774F08091760790910E
:10408000770798878F831986DB86CA862C87CE01AF
:1040900007960E94080E86E0F801A6E7B7E00190B7
:1040A0000D928A95E1F70E94131F0DC06817E1F089
:1040B0009D878E878D859E850E94161E81111EC04C
:1040C000C8010E94080EFF24F394B5C0422F407F20
:1040D00069F786E797E00E94080E86E0F5011192E5
:1040E0008A95E9F7F12CA7C03913E2CFE110E0CFB0
:1040F000F8012583C8010E94080E57C0EE2001F385
:1041000020917B07822F82958F7090E002971CF29E
:1041100080917607909177079A8389831B82DD824D
:10412000CC822E83CE010196B4CFE83CF105E8F5B0
:10413000FE2CEE2029F2681327C0391325C02091E8
:104140007B0720FD18C0822F82958F70482F50E08A
:104150004115510581F0F80125834F30510541F09B
:104160008F5F982F9295907F822F8F70892B8583F8
:10417000C8010E94080E86E0F801A6E7B7E00190AA
:104180000D928A95E1F757C09D878E878D859E8514
:104190000E94161E81117FCF80917B0781608093E2
:1041A0007B07C8010E94080E46C086E0F501119207
:1041B0008A95E9F740C0EE2009F482CF9D878E876B
:1041C0008D859E850E94161EF82E882309F478CFCF
:1041D00086E0F801A6E7B7E001900D928A95E1F735
:1041E00080917607909177070E940B1E0E94131F03
:1041F00022C09D878E878D859E850E940B1E292F4C
:1042000022952F70223028F49F7039F0811105C05B
:104210000BC0243028F49F7049F4805E883020F071
:10422000C8010E94080E9F2CF92C05C0F801958149
:10423000907F99F7F9CF8F2D61960FB6F894DEBF76
:104240000FBECDBFDF91CF911F910F91FF90EF90E7
:10425000DF90CF90BF90AF909F9008951092E307AA
:1042600080911001882331F080912C0487FF02C0D7
:104270008EE101C086E0E7E5F7E0DF011D928A9557
:10428000E9F70C94AC1DE42FF0E0EE0FFF1FEA50AD
:10429000FD4F408134EE439F412D1124E72FF0E084
:1042A00050E0445E5F4FDA01A21BB1099D01B7FFE8
:1042B00003C031952195310993E0220F331F9A9560
:1042C000E1F7AF01421B530B9A0157FF02C020E0F8
:1042D00030E0279F212D1124722F089590912C04F6
:1042E00092FF0DC0282F2871283019F4877F846031
:1042F00006C0282F2471243011F48B7F886093FF2F
:104300000DC0282F2871283119F4877E846106C0DA
:10431000282F2471243111F48B7E886120912D0483
:1043200020FF0DC0382F3871383019F4877F816035
:1043300006C0382F3171313011F48E7F886021FF33
:104340000DC0282F2871283119F4877E816106C09D
:10435000282F2171213111F48E7E886194FD877E92
:104360000895FC019B01009721F477FF2BC080E8A2
:104370000895AC0197FF04C044275527481B590BEB
:10438000B901640F751F37FD0CC0241B350BC90123
:10439000A5E0880F991FAA95E1F70E94FE3180E2FF
:1043A0000CC0CB0165E0880F991F6A95E1F7BA014F
:1043B000621B730B0E94FE3180E6861BF7FF03C071
:1043C0008195089580E00895482F982F46FD909597
:1043D000E92FEF739F7046FD9F5FE295EF70EE0F40
:1043E000F0E0EC56FD4F2181299F802D212D1124D5
:1043F00082958F702295207F822B3081982F930F8A
:10440000892F47FD819580580895BC018230910520
:1044100008F40895613E8EE1780748F49B0195E029
:10442000369527959A95E1F748E0420F01C04FEF86
:1044300091E0242F30E0290F311D35952795229FDB
:10444000F001239FF00DF00D11246E177F0718F473
:104450004FEF420F04C02F3F39F091E0920F491700
:1044600040F78FEF890F08958FEF089520E030E037
:10447000869F212D969F200D311D1124C90108957D
:10448000CF92DF92EF92FF920F931F93CF93DF9320
:10449000F62E472FE82FF0E0711106C0EA5FF94FC2
:1044A0008491782F682F73C0272F30E0EA5FF94F8F
:1044B000E491FE2F0E2F10E056E0659FC0011124FD
:1044C000CFEFD0E0BE010E94EA315BEA5603C001A3
:1044D000579F900D11248F0D911D8F0D911D982FB9
:1044E000990F980F7E01E21AF30AE09ED001E19E37
:1044F000B00DF09EB00D11248B2F499FA001112407
:10450000452F55277E01E41AF50AE09EA001E19EA1
:10451000500DF09E500D11246E01C91AD108C29E93
:104520007001C39EF00CD29EF00C11242F2D332766
:10453000C21BD30BC09F9001C19F300DD09F300D87
:104540001124932F6230710591F048F461157105C3
:10455000E1F061307105B9F49E2FE52F16C064308B
:10456000710569F040F06630710579F00CC09E2F3E
:10457000EB2F832F0AC0EB2F8F2F952F06C09B2F79
:104580008E2FE32F02C09B2F852F7E2F692FDF9167
:10459000CF911F910F91FF90EF90DF90CF900895F2
:1045A000803F39F480916C0487FF6AC010926C04DC
:1045B00067C0813F29F480916C041816BCF360C079
:1045C00090916B04823F29F497FF5AC010926B04BC
:1045D00057C0833F19F41916CCF352C090916D0463
:1045E000893F31F419160CF04BC010926D0448C08D
:1045F0008A3F19F497FF44C0F8CF8B3F39F480917C
:104600006E0487FF3DC010926E043AC08C3F29F4BF
:1046100080916E041816BCF333C0843F21F480915E
:104620006A048E7F17C0853F21F480916A048D7FD4
:1046300011C0863F21F480916A048B7F0BC0873FB5
:1046400021F480916A04877F05C0883F31F480910E
:104650006A048F7E80936A0413C08D3F21F4809199
:1046600075078E7F0BC08E3F21F4809175078D7F7B
:1046700005C08F3F29F4809175078B7F8093750764
:1046800080916B04811106C080916C04811102C07D
:104690001092660480916D04811106C080916E04B1
:1046A000811102C01092630408958091750780FD06
:1046B00016C081FD16C082FD18C080916304882356
:1046C00091F0883290F428E0829FC001112468E2C2
:1046D00070E00E94FE31862F672B29F007C082E030
:1046E000089584E0089581E0089588E00895809118
:1046F000750780FD14C081FD14C082FD16C0809135
:104700006604882381F0843180F422E3829FC00113
:10471000112464E170E00E94FE31862F08958CE040
:10472000089589E1089585E0089582E30895803F22
:1047300021F40E947723819504C0813F29F40E94CF
:10474000772380936C040895823F21F40E9477239D
:10475000819504C0833F29F40E94772380936B04E2
:104760000895893F19F40E94552305C08A3F31F40A
:104770000E945523819580936D0408958B3F21F409
:104780000E945523819504C08C3F29F40E94552333
:1047900080936E040895843F21F480916A048160BF
:1047A00017C0853F21F480916A04826011C0863F62
:1047B00021F480916A0484600BC0873F21F48091CA
:1047C0006A04886005C0883F31F480916A04806182
:1047D00080936A0408958D3F21F48091750781606C
:1047E0000BC08E3F21F480917507826005C08F3F1A
:1047F00029F4809175078460809375070895F89473
:10480000E82FE295EF70F0E031A1282F2F7081E0C2
:1048100090E001C0880F2A95EAF7982F909593238E
:1048200091A392A1892B82A378940895CF93DF93CB
:104830000E94701AEC018238910559F1A0F481337D
:10484000910509F473C040F48932910509F467C0F9
:104850008A9709F472C084C08533910509F458C061
:10486000C997B9F07DC0833E910571F138F4803E5F
:104870009105B1F0823E910511F172C0863E91051D
:10488000B9F1873E9105C9F1843E910509F068C0F0
:1048900024C080912C0480FD5DC081FD5BC060C0A0
:1048A00080912C0480FD50C080912D0480FF49C16F
:1048B00080912C0484FD43C1C3EED0E042C18091BD
:1048C0002C0482FF3EC1F4CF80912C0482FD3FC0B6
:1048D00080912D0480FD3EC0EBCF80912D0481FF9F
:1048E00030C180912C0484FD2AC1C7EED0E029C1DB
:1048F00080912C0483FF25C1F4CF80912C0483FD8B
:104900002CC080912D0481FFECCFC4EED0E019C102
:1049100080912C0485FF15C1C9E2D0E012C18091BD
:104920002C0485FF0EC1C5E3D0E00BC180912C049F
:1049300086FF07C1CAE2D0E004C180912C0486FF43
:1049400000C1C1E3D0E0FDC0C9E3D0E0FAC0C2EECF
:10495000D0E0F7C0C0EED0E0F4C0C6EED0E0F1C0C9
:10496000C11581E5D80708F066C0C11520E5D2075A
:10497000E0F0CE0174E0969587957A95E1F7837023
:104980009C2F937021E030E002C0220F331F9A95D4
:10499000E2F73C68382BCF70C695C69540E2C49FBD
:1049A000E0011124C22BD32BCCC0C83ED10560F549
:1049B000C03ED10508F0C5C0C83AD105B0F4C53A2B
:1049C000D10540F0C55AD0E0C151DC4FC881D0E0DC
:1049D000D064B7C0C130D10509F4B3C008F4AFC08A
:1049E000C430D10508F4ABC0ACC0CF3BD10508F052
:1049F000A6C0C85AD0E0CC0FDD1FCE50DC4F0990C6
:104A0000D881C02DD4649DC0C11540E2D40758F4AC
:104A1000C11581E0D80708F094C0C03FD10508F463
:104A20008EC0D0658EC0C11520E4D20708F487C0BF
:104A3000DF70D06A86C0C11545E5D40708F042C0D2
:104A4000C11584E5D80728F0DC2FCC27C46FD06AC5
:104A500078C0C11523E5D207B0F0CE018370992745
:104A600021E030E002C0220F331F8A95E2F78C2F3D
:104A70008695869540E2849FC0011124E901C82BE8
:104A8000D92BDA685EC0C11542E5D40728F4DC2FC3
:104A9000CC27C16FD06A55C0CE018370992721E021
:104AA00030E002C0220F331F8A95E2F78C2F8695E3
:104AB000869540E2849FC0011124E901C82BD92BBF
:104AC000DC683FC0C11589E5D807B8F4C11528E5F1
:104AD000D20728F0DC2FCC27C06FD06A32C0C115B6
:104AE00046E5D40760F58C2F0E946E218F71C82F88
:104AF000D0E0DC2FCC27D06224C0C1158AE5D807CE
:104B000080F48C2F8F700E946E2194E0D695C7950B
:104B10009A95E1F7CF70D0E0DC2FCC27D069C82B75
:104B200010C0CE0190568115904248F48D2F8F71A0
:104B30000E946E21DD27D0628F71D82B02C0C0E0A9
:104B4000D0E0CE01DF91CF9108950E94531C2091B7
:104B50006B04211104C020916C04222321F0909356
:104B600068048093670420916D04211104C0209192
:104B70006E04222321F09093650480936404E091F5
:104B80002E04F0912F04309749F082E0809369045D
:104B90000480F581E02D89E694E0099408959F92C0
:104BA000AF92BF92CF92DF92EF92FF920F931F933B
:104BB000CF93DF9302E214E084E3E82E81E0F82E45
:104BC000C0E0D0E0912CCC24C394D12CB701D70104
:104BD0008C91F894E82FE295EF70F0E021A18F70AE
:104BE000A60102C0440F551F8A95E2F7CA01922F11
:104BF000982B91A392A18095892382A3789400C0D9
:104C0000E9E3F1E020E030E0A12CB12C4191842FC8
:104C100082958F7090E0DC0190968C9190E04F70BF
:104C200002C0959587954A95E2F780FD08C0C601B8
:104C3000022E02C0880F991F0A94E2F702C080E09A
:104C400090E0A82AB92A2F5F3F4F2F303105F1F6A7
:104C5000BFEFEB1AFB0AFB0180810E94FF23C430E7
:104C6000D10519F0F0EAFA95F1F7D8018D919C91F0
:104C70001197A816B90621F0AD92BC9281E001C04F
:104C800080E0982A21960E5F1F4FC530D10509F0AC
:104C90009DCF992049F081E08093EB070E94531C3F
:104CA0009093EA078093E9078091EB07882391F1BD
:104CB0008091E9079091EA070E94381C049750F10F
:104CC000809122049091230490937C0480937B0430
:104CD000809124049091250490937E0480937D0418
:104CE00080912604909127049093800480937F0400
:104CF00080912804909129049093820480938104E8
:104D000080912A0490912B049093840480938304CF
:104D10001092EB07892DDF91CF911F910F91FF909A
:104D2000EF90DF90CF90BF90AF909F9008951F932A
:104D3000CF93DF93CDB7DEB7AA970FB6F894DEBF57
:104D40000FBECDBFE2E1F8E08091F100819348E031
:104D5000EA31F407C9F780911308833009F462C07F
:104D600030F4813071F0823009F49CC0B3C08A30D5
:104D700009F488C08B3009F46DC0893009F0AAC0ED
:104D800020C080911208813A09F0A4C08091E80007
:104D9000877F8093E8008091160890911708892BEF
:104DA00021F460E28FEE97E003C060E080E090E0E5
:104DB00070E00E94BE2F8091E8008B778093E8001E
:104DC00089C080911208813209F084C08091160850
:104DD00090911708009719F0029709F07BC0809115
:104DE000E800877F8093E8008091E80082FD05C09D
:104DF00080911A088111F8CF6DC02091F300809145
:104E0000F20090E0922B029729F48091F1008B7FC1
:104E1000813021F48091F1008093EE078091E800C9
:104E20008B7754C080911208813A09F053C0809169
:104E3000160890911708892B09F04CC08091E80062
:104E4000877F8093E8008091E80080FFFCCF80910D
:104E5000100137C0809112088132E1F58091160867
:104E600090911708892BB1F58091E800877F809396
:104E7000E8000E946A2F80911408809310010E941C
:104E80002E2128C080911208813221F58091E800FE
:104E9000877F8093E8000E946A2F80911508809395
:104EA000ED0718C080911208813AA1F48091E800C2
:104EB000877F8093E8008091E80080FFFCCF80919D
:104EC000ED078093F1008091E8008E778093E800F1
:104ED0000E946A2F8091E80083FFE9C18091120847
:104EE00090911308492F50E04A30510508F0DFC176
:104EF000FA01EF54FF4F0C941232803821F08238BF
:104F000009F0D5C108C080910F089091100899232D
:104F100089F082600FC0809116088F70873008F08A
:104F2000C6C18093E9008091EB0085FB882780F95A
:104F30001092E9009091E800977F9093E8008093A9
:104F4000F1001092F1007CC1282F2D7F09F0AFC134
:104F5000882319F0823061F0AAC180911408813051
:104F600009F0A5C1933009F080E0809310082EC0AD
:104F70008091140881112AC0809116088F702FEF3C
:104F8000280F263008F093C18093E9002091EB00B0
:104F900020FF1CC0933021F48091EB00806214C08C
:104FA0009091EB0090619093EB0021E030E0A9013B
:104FB00002C0440F551F8A95E2F74093EA00109211
:104FC000EA008091EB0088608093EB001092E9008A
:104FD0008091E800877F8093E8000E946A2F67C174
:104FE000811165C1109114081F778091E3008078CA
:104FF000812B8093E3008091E800877F8093E80015
:105000000E946A2F8091E80080FFFCCF8091E3002E
:1050100080688093E300111102C082E001C083E048
:1050200080931A0844C18058823008F040C1209112
:105030001408309115082C3D53E0350779F583E0CD
:105040008A838AE289834FB7F894DE01139620E0C1
:105050003EE051E2E32FF0E050935700E49120FF4F
:1050600003C0E295EF703F5FEF708E2F90E0EA3063
:1050700010F0C79601C0C0968D939D932F5F243189
:1050800049F74FBF8091E800877F8093E8006AE28C
:1050900070E0CE0101960E94BE2FC0C0809116081C
:1050A00090911708432F552743305105B1F068F40C
:1050B0004130510509F40AC14230510509F0F7C0E9
:1050C0008BE590E0E4E2F8E057C04132510589F108
:1050D0004232510509F43CC0EAC0C9019927813028
:1050E0009105B9F070F082309105D9F0039709F07D
:1050F000DEC0E1E9F8E0E4918E2F90E0E1E9F8E02C
:1051000038C0E1EEF8E0E4918E2F90E0E1EEF8E0B7
:1051100030C0EFECF8E0E4918E2F90E0EFECF8E097
:1051200028C0EFEAF8E0E4918E2F90E0EFEAF8E093
:1051300020C08330910508F0BAC0880F991FFC0188
:10514000EB55FD4F0190F081E02D89E090E014C017
:105150008330910508F0ABC0FC01EE0FFF1FE15654
:10516000FD4F0190F081E02DDC01A456BD4F8C91E4
:1051700090E0009709F49BC02091E800277F2093DE
:10518000E80020911808309119082817390708F409
:10519000C90140E0009789F120911A08222309F4FF
:1051A0003DC02530D9F12091E80023FD37C0209182
:1051B000E80022FD2FC02091E80020FFEBCF4091B6
:1051C000F3002091F20030E0342B009759F02830A2
:1051D000310540F444914093F100319601972F5FDF
:1051E0003F4FF3CF41E02830310509F040E02091F6
:1051F000E8002E772093E800CDCF4111CDCF0AC033
:1052000080911A08882351F0853041F08091E800A0
:1052100083FD04C08091E80082FFF2CF8091E80016
:105220008B778093E80043C0803809F040C08091BC
:10523000E800877F8093E800809111088093F10057
:105240008091E8008E77C7CE811131C0809114081B
:10525000909115089927029754F58091E800877F6F
:105260008093E80010911408109311080E946A2F8F
:10527000111106C08091E30087FD02C081E001C0EA
:1052800084E080931A0842E061EC81E00E94892F5B
:1052900042E261EC84E00E94892F42E261EC82E00C
:1052A0000E94892F42E260EC83E00E94892F809166
:1052B000E80083FF10C08091E800877F8093E800BA
:1052C0008091EB0080628093EB0005C082E190E06A
:1052D000EFE7F8E051CFAA960FB6F894DEBF0FBE05
:1052E000CDBFDF91CF911F9108951F920F920FB6FE
:1052F0000F9211242F933F934F935F936F937F935C
:105300008F939F93AF93BF93CF93DF93EF93FF93CD
:10531000C091E900CF708091EC00D82FD17080FD52
:10532000D0E81092E9008091F000877F8093F00030
:1053300078940E9497261092E9008091F00088608E
:105340008093F000CD2BCF70C093E900FF91EF91D7
:10535000DF91CF91BF91AF919F918F917F916F918D
:105360005F914F913F912F910F900FBE0F901F9023
:105370001895E8EDF0E080818E7F80831092E20046
:105380001092DA001092E100A0EEB0E08C91816002
:105390008C9380818F77808319BCA7EDB0E08C91CE
:1053A0008E7F8C9380818F7E80831092EC0708958E
:1053B000CF92DF92EF92FF920F931F93CF93DF93E1
:1053C000C8EDD0E088818F7E8883E7EDF0E08081B2
:1053D0008160808384E082BF81E08093EC078881D4
:1053E0008E7F888302EE10E0F80110821092DA00BE
:1053F00081EEC82ED12CF601108288818F778883A8
:1054000088818068888388818F7D888319BC109209
:105410001A08109211081092100810920F0890EEBE
:10542000E92EF12CF70180818B7F80838881816058
:10543000888342E060E080E00E94892FF60180814D
:105440008E7F8083F8018081816080838081886085
:105450008083F70180818E7F80838881806188834B
:10546000DF91CF911F910F91FF90EF90DF90CF9040
:1054700008951F920F920FB60F9211242F933F930E
:105480004F935F936F937F938F939F93AF93BF934C
:10549000EF93FF938091E10082FF09C08091E200C9
:1054A00082FF05C08091E1008B7F8093E1008091B5
:1054B000DA0080FF2AC08091D80080FF26C080914A
:1054C000DA008E7F8093DA008091D90080FF18C0C7
:1054D00080E189BD82E189BD09B400FEFDCF81E094
:1054E00080931A088091EC0781110FC00E94B9299E
:1054F0000E94D8298091E20084608093E20005C078
:1055000019BC10921A081092EC078091E10080FFFC
:1055100017C08091E20080FF13C08091E2008E7F6F
:105520008093E2008091E20080618093E2008091AC
:10553000D80080628093D80019BC85E080931A0857
:105540008091E10084FF2EC08091E20084FF2AC098
:1055500080E189BD82E189BD09B400FEFDCF809163
:10556000D8008F7D8093D8008091E1008F7E80935A
:10557000E1008091E2008F7E8093E2008091E20062
:1055800081608093E20080911108882311F084E00B
:1055900007C08091E30087FD02C081E001C083E085
:1055A00080931A088091E10083FF27C08091E20078
:1055B00083FF23C08091E100877F8093E10082E038
:1055C00080931A08109211088091E1008E7F8093D9
:1055D000E1008091E2008E7F8093E2008091E20002
:1055E00080618093E20042E060E080E00E94892FC9
:1055F0008091F00088608093F000FF91EF91BF915F
:10560000AF919F918F917F916F915F914F913F915A
:105610002F910F900FBE0F901F9018952091E400CE
:105620003091E50095E64091EC00842F817040FFB9
:1056300023C08091E80080FD1DC080911A08882356
:1056400099F0853099F08091EB0085FD11C0409173
:10565000E4005091E5002417350729F3915011F02B
:105660009A01E1CF84E0089582E0089583E00895EF
:1056700081E0089580E008954091E80042FFDDCF89
:1056800008950F931F9380914D0890914E08A0911B
:105690004F08B09150088C019D01067011272227F8
:1056A0003327BC01CD01063011052105310511F468
:1056B000686001C0677F1F910F910C94961E9091B6
:1056C0004808937089F0811102C0946007C0843249
:1056D00010F09C6803C0880F880F982B909348089F
:1056E000109228010C94AF1A08956F927F928F92B6
:1056F0009F92AF92BF92CF92DF92EF920F931F9340
:10570000CF93DF933C01C0912501CC0FCC0FD4E0A7
:10571000DC0FD43508F0D3E560914C086695809194
:105720004408909145080E943622182FCD1708F0A2
:1057300044C08C2E912CF401E456FC4F9081809152
:1057400026018923C1F1F401EE0FFF1FEA50FD4F3E
:10575000C080D12C80E7C81AD108F401EE0FFF1FDA
:10576000E950FD4FA080B12CE0E2AE1AB108CC9C0C
:105770009001CD9C300D300D1124AA9CC001AB9C32
:10578000900D900D1124820F931F0E940522082F67
:105790006091490870914A0880914B08E12E95016B
:1057A000A601F30109950E944022462F282F672F5A
:1057B000C4010E948B1ACF5FB9CF81E0D33508F0C6
:1057C00080E0DF91CF911F910F91EF90DF90CF900C
:1057D000BF90AF909F908F907F906F900895CF92E1
:1057E000DF92EF92FF920F931F93CF93DF936C01A1
:1057F000C0912501CC0FCC0FD4E0DC0FD43508F0DC
:10580000D3E560914C0866958091440890914508D5
:105810000E943622182FCD1778F5EC2EF12CF701C7
:10582000E456FC4F908180912601892319F1F701FC
:10583000EE0FFF1FE950FD4F208130E0205231096B
:10584000F701EE0FFF1FEA50FD4F408150E0405737
:1058500051096091490870914A0880914B08012FC5
:10586000F60109950E944022462F282F672FC70175
:105870000E948B1ACF5FCFCF81E0D33508F080E054
:10588000DF91CF911F910F91FF90EF90DF90CF901C
:105890000895DF92EF92FF920F931F93CF93DF93C0
:1058A0007C01C0912501CC0FCC0FD4E0DC0FD435A6
:1058B00008F0D3E560914C086695669580914408A0
:1058C000909145080E943622D82ECD17F0F40C2F67
:1058D00010E0F801E456FC4F908180912601892365
:1058E00091F06091490870914A0880914B082D2DE4
:1058F0004C2FF70109950E944022462F282F672F31
:10590000C8010E948B1ACF5FE0CF81E0D33508F049
:1059100080E0DF91CF911F910F91FF90EF90DF908A
:1059200008959F92AF92BF92CF92DF92EF92FF9233
:105930000F931F93CF93DF936C01C0912501CC0F80
:10594000CC0FD4E0DC0FD43508F0D3E560914C08DF
:105950006695669580914408909145080E9436228C
:10596000182F80E4810F0E94E42190E8F92EF80EB0
:10597000812F0E94E42120E8922E980ECD1700F589
:10598000AC2EB12CF501E456FC4F9081809126019C
:105990008923A1F06091490870914A0880914B08D1
:1059A000E12E0C2F292D4F2DF60109950E94402242
:1059B000462F282F672FC5010E948B1ACF5FDECF9D
:1059C00081E0D33508F080E0DF91CF911F910F91F6
:1059D000FF90EF90DF90CF90BF90AF909F90089591
:1059E000CF92DF92EF92FF920F931F93CF93DF93AB
:1059F0006C01C0912501CC0FCC0FD4E0DC0FD43565
:105A000008F0D3E520914C0830E040E050E06FEF23
:105A10007FEF80E090E00E9487318901CD17E8F5A3
:105A2000EC2EF12CF701E456FC4F90818091260179
:105A3000892389F190911B08915097FD15C0492F3A
:105A4000092E000C550BFA01E55EF74F8189C8134A
:105A5000F3CF440F551FFA01E55EF74F218D328DCC
:105A60002017310748F701C0980160914C08C9011F
:105A70000E943622AC016091490870914A088091D9
:105A80004B08F60109950E944022462F282F672FC8
:105A9000C7010E948B1ACF5FC1CF81E0D33508F0D8
:105AA00080E0DF91CF911F910F91FF90EF90DF90F9
:105AB000CF9008952F923F924F925F926F927F9274
:105AC0008F929F92AF92BF92CF92DF92EF92FF920E
:105AD0000F931F93CF93DF93CDB7DEB727970FB602
