:100000000C94C7040C940E050C940E050C940E056C
:100010000C940E050C940E050C940E050C940E0514
:100020000C940E050C940E050C94022A0C943E2997
:100030000C94D6150C940E050C940E050C940E051C
:100040000C940E050C940E050C940E050C940E05E4
:100050000C940E050C9489150C940E050C940E0549
:100060000C940E050C940E050C940E050C940E05C4
:100070000C940E050C940E050C940E050C940E05B4
:100080000C940E050C940E050C940E050C940E05A4
:100090000C940E050C940E050C940E050C940E0594
:1000A0000C940E050C940E050C940E0534083D08B6
:1000B0006908AB08F3083D094009430946094B09A3
:1000C0004E095109540957095C095F096409670918
:1000D0006A096F09A909E709750D8D0D940D350E93
:1000E000350ECC0DDC0DED0D2E0E93119E11A311CE
:1000F000A811AD11B211B711BC11C111C611CB11AC
:10010000D211D411D611D811B30FB30FB30FB30F4F
:10011000B30F3912391273127312C612E21271142C
:100120007114EF12CC13D913D9139F179F17B2175D
:10013000B217A817B217B217B2179F179F17AD17AC
:10014000B217B217AD1746276D2720296D27202932
:10015000B927DC272029DD28ED28FD377A585A00F9
:100160000004E6D6B4460200210116000000742FF8
:10017000E5A3E006EB021E5D003D8889C65436C348
:10018000174FE4E298E601C498EA292DAA10AE714F
:10019000EB476A25F74F533F473FB1EC3BA4C5A956
:1001A000C9607AFD6654E31A98218EAD968ACA9E7C
:1001B000961C2FDD43C44FBB9EA16CE5DF219DF152
:1001C000F43655B7544F0D09D4D7C5FF1B7F8FDACE
:1001D000D96CF2572304CA58C2083A0DF1EE286BC5
:1001E000EC48E17F7C22284292B7B8DB53D326410A
:1001F000044AA23668325C38FF3A758D7268126C18
:10020000EC1047846403621CA1C72031BB7B2758D4
:10021000D8A96BAF790CCEE39D34B8E3BE29AC63AB
:10022000C5FE6D59C7225C2ECA84D59D6A7A14908A
:100230001ACA3D02341830DCB9A3934496846D5831
:10024000B289370DB9067C043D0358DFE6328717C3
:100250001DFDB11295FC9FD19F6A315FDBC47EDF2B
:100260009A19212721CB782176D84092ED6FE77338
:10027000300295A5CFBE6E1157FE0EBA9BB5C9448C
:10028000B7A9F6379283688B56B2906A1C844E8D5C
:100290006DB17842C4C9ED1CD4CD6D502C34879B10
:1002A000A0C18B6ED831BF316AFEBA8E0EF8E3E37F
:1002B000B7A88FE17C312866275F9B44F88547D437
:1002C000ABA5DC66870C14C4484D414767048EAD6E
:1002D000721857E77699146523E95A099889820BB1
:1002E000577987F9CEA0F6A31C5D344017B6B251FA
:1002F000C6B9DFC32D4BFF33688848D8CEC36F64BF
:100300005C871ABD2E1A8825F6A929B62C917B2365
:10031000C962236999CAA07C70B1F2B3341268FA39
:100320009CE21255329CB8AD11C00D5CAEFE3EE2AF
:10033000A1FDFD87ADA2D3B67585D35487CDB0C7D7
:100340004E138C9592EA6ED0B077CA8021199B61CA
:10035000BF1702D4F75677ED08C6776A5119881E81
:10036000DE54A3DE4F5C43E8AE23CE73E98538400C
:10037000126057A648543DF7B1A33AE1194E84489C
:10038000E379A6909DEC8409E676CB0F11A013B912
:1003900014ECE033296A00000000B7708B167FD29E
:1003A000813F0001BA04EC0D0000DD2FF519B1C446
:1003B00067FB020000000004595A00000000000022
:1003C000000000000000000000000000000000002D
:1003D00000000000000000000000000000007E0F90
:1003E00000D4FFFFFFC700000078000000000000FD
:1003F00000002A2B28000000000000000000000080
:10040000000000000029000000002C1E34202122E2
:1004100024342627252E362D3738271E1F2021224B
:10042000232425263333362E37381F0405060708C4
:10043000090A0B0C0D0E0F101112131415161718B4
:10044000191A1B1C1D2F3130232D350405060708F2
:10045000090A0B0C0D0E0F10111213141516171894
:10046000191A1B1C1D2F3130354C29001E001F008E
:100470002000210022002300240025002600270060
:100480002D002E002A004A002B0014001A0008003C
:10049000150017001C0018000C00120013002F009C
:1004A000300031004B00390004001600070009003D
:1004B0000A000B000D000E000F0033003400000096
:1004C00028004E00E1001D001B0006001900050079
:1004D0004C0011001000360037003800E5005200D3
:1004E0000000E0000000E300E20000002C0000003B
:1004F000E6000000E40000000000500051004F0042
:10050000165C3A003B003C003D003E003F004000CE
:1005100041004200430044004500005C4A000100E5
:10052000C25CC35CC55CC65CC75CC85CC95CCA5CB9
:100530000100460047004800005C4B003961CB5C7D
:10054000CC5C01000100010001000100010001007C
:10055000010001000000DE5C4E00E100010001002E
:100560000100010001000100010001000100010083
:100570000100A900A8000000010000000100010026
:100580000000010000000100000001000000000068
:10059000AC00AA00AB000100010001000100010055
:1005A0000100010001000100010001000100010043
:1005B0000100010001000100010001000100010033
:1005C0000100010001000100010001000100010023
:1005D0000100010001000100010001000100010013
:1005E0000100010001000100010000000100010004
:1005F00001000100010001000100010001000100F3
:1006000001000100010001000100010000000100E3
:1006100000000100010000000100000001000000D6
:1006200001000000000001000100010001000100C4
:1006300001000100010001000100010001000100B2
:1006400001000100010001000100010001000100A2
:100650000100010001000100010001000100010092
:100660000100010001000100010001000100010082
:100670000100010001000100010001000100010072
:100680000000010001000100010001000100010063
:100690000100010001000100010001000100010052
:1006A0000100000001000000010001000000010045
:1006B0000000010000000100000000000100010036
:1006C0000100000101010101010101010202020218
:1006D00002020202020303030303030303040404EC
:1006E00004040404050505050506060606060707B5
:1006F00007070708080808090909090A0A0A0B0B6D
:100700000B0C0C0C0D0D0D0E0E0E0F0F0F1010110B
:100710001111121213131414151516161717181891
:1007200019191A1A1B1B1C1D1D1E1E1F20202122F9
:1007300022232424252626272829292A2B2C2D2D3F
:100740002E2F30313232333435363738393A3B3C5C
:100750003D3E3F404142434445464748494A4C4D4F
:100760004E4F50515354555658595A5B5D5E5F6118
:100770006264656668696B6C6D6F707273757778AB
:100780007A7B7D7E8082838587888A8C8E8F919309
:100790009596989A9C9EA0A2A3A5A7A9ABADAFB130
:1007A000B3B5B7BABCBEC0C2C4C6C9CBCDCFD1D415
:1007B000D6D8DBDDDFE2E4E7E9EBEEF0F3F5F8FABB
:1007C000FDFF05010902A10185020901A10005093A
:1007D000190129051500250195057501810295016D
:1007E000750381010501093009311581257F9502C5
:1007F0007508810609381581257F950175088106E0
:10080000050C0A38021581257F950175088106C0FF
:10081000C005010980A101850319012AB70015014E
:1008200026B700950175108100C0050C0901A101D2
:10083000850419012AA002150126A0029501751050
:100840008100C005010906A1018505050719E029F8
:10085000E715002501950875018102050719002992
:10086000EF1500250195F075018102050819012990
:1008700005950575019102950175039101C006600A
:10088000FF0961A1010962150026FF009520750886
:1008900081020963150026FF00952075089102C0AA
:1008A00005010906A101050719E029E71500250141
:1008B00095087501810295017508810105071900E8
:1008C00029FF150026FF0095067508810005081907
:1008D000012905950575019102950175039101C0E6
:1008E00009025B00030100A0FA09040000010301F2
:1008F00001000921110100012240000705810308C0
:10090000000A09040100020300000009211101008E
:1009100001222200070582032000010705030320AE
:100920000001090402000103000000092111010077
:100930000122BC000705840320000A1201100100F7
:10094000000008424B68600100010203011C0376AD
:1009500000690061006C003A0066003600340063F4
:1009600000320062003300630000000A034D0041C2
:10097000004A004100000010034B004200440046C2
:100980000041004E0053000000040309040011243C
:100990001FBECFEFDAE0DEBFCDBF04B603FE27C037
:1009A0008091690690916A06A0916B06B0916C06E1
:1009B0008730904BA740B04BD1F41092690610924B
:1009C0006A0610926B0610926C0614BE84B7877F7D
:1009D00084BF0FB6F894A8958091600088618093D9
:1009E0006000109260000FBEE0E0F8E3099513E0AC
:1009F000A0E0B1E0E6E8F1E602C005900D92AC3966
:100A0000B107D9F726E0ACE9B3E001C01D92A936E1
:100A1000B207E1F70E9410050C94C1300C9400005D
:100A2000CF93DF93CDB7DEB7E8970FB6F894DEBF6C
:100A30000FBECDBF84B7877F84BF0FB6F894A8954B
:100A400080916000886180936000109260000FBE0A
:100A500090E080E80FB6F894809361009093610075
:100A60000FBE85B7806885BF85B7806885BF89EC74
:100A700094E190939D0380939C030E9482290E949D
:100A8000A1298091E20084608093E20078948091B3
:100A90005B068823A1F01091E9001F709091EC0093
:100AA000892F817090FD80E8182B1092E9008091C9
:100AB000E80083FD0E9460261F701093E90082E029
:100AC00084BD93E095BD9AEF97BD80936E0080EF53
:100AD0000E94C82386E30E94C82385E30E94C8239E
:100AE00084E30E94C82387E90E94C82305E211E03D
:100AF00054E3E52E51E0F52ED8018D918D010E9431
:100B0000C823E016F106C1F7EEE9F3E088EA93E0C6
:100B1000A0E2B4E0119211921D921D928E179F07D0
:100B2000C9F70E949825EFEBFDE53197F1F700C07A
:100B300000000E9498258091200480FF17C06FEF6D
:100B400082E290E00E94F52F6FEF83E290E00E9436
:100B5000F52F6FEF84E290E00E94F52F6FEF7FEFAB
:100B600080E090E00E9413300E94651580E090E0E4
:100B70000E94DF2F8B3E9E4F11F00E946D160E9447
:100B8000D21C1092D803E1EFF3E081E094E02FEF64
:100B90003FEF219331938E179F07D9F71092AB0344
:100BA000E4ECF3E084ED93E02FEF3FEF21933193FA
:100BB0008E179F07D9F780E090E00E94DF2F8B3ED1
:100BC0009E4F21F00E946D160E94AD2045E050E03E
:100BD0006CE170E080E696E00E94C72F809160068D
:100BE0008C7F11F40E94AD2082E290E00E94D72F0A
:100BF0008D3E81F483E290E00E94D72F8E3D51F428
:100C000084E290E00E94D72F91E0813F09F090E0CC
:100C1000892F01C080E080FD02C00C94430E80E06B
:100C200090E00E94DF2F8B3E9E4F11F00E946D16C8
:100C300082E090E00E94D72F809315040E945C16FA
:100C40009093A9038093A80383E090E00E94D72F9C
:100C5000682F70E080E090E00E9476186091A80311
:100C600060686093A8031091A90384E090E00E945B
:100C7000F52F612F81E290E00E94F52F86E091E050
:100C8000909302048093010433E4232E312C6624D4
:100C90006394712C9E012F5F3F4F290180915B0669
:100CA000853009F06FC080915B06853009F064C023
:100CB00080915B06843061F140E060E080E00E945A
:100CC000252081E0809307041092AA0380E448E184
:100CD00050E00FB6F894A895409360000FBE809343
:100CE000600083B7817F846083BF83B7816083BFE7
:100CF0007894889583B78E7F83BF0FB6F894A895B4
:100D000080916000886180936000109260000FBE47
:100D100080915106882381F10E949825E0E2F4E059
:100D200081919191892B31F48AE294E08E179F078B
:100D3000B9F722C080E189BD82E189BD09B400FE16
:100D4000FDCF8091D8008F7D8093D8008091E00006
:100D500082608093E0008091E00081FDFCCF0E94E2
:100D6000A51A9FEFA3E2B4EF9150A040B040E1F785
:100D700000C000000E94A51A0E94A51A0E943B1FF5
:100D8000109207040E94982581110E94BE15A6E1C9
:100D9000B4E0E0E2F4E000E010E0402FA190B19078
:100DA0008D919D918A259B25009709F4AFC0F12C68
:100DB000CC24C394D12C9C012C213D21232B09F45C
:100DC0009FC0F9A64AA7AC20BD2081E0A114B104C0
:100DD00009F480E08BA70E94CA158160782F9DA737
:100DE0008CA749A55AA56BA58DA50E94711EF80177
:100DF000EE0FFF1FEA5EFB4F80819181C826D92646
:100E0000D182C082AB2889F08FE0809FF001819F62
:100E1000F00D1124E95AFD4FEF0DF11D80818F3F38
:100E200021F08FABDD24D39401C0D12CC090AB0353
:100E30000D2D10E0C8018C0D911D0997A4F1E8E07B
:100E4000EE2EF12CE01AF10AB8016F5F7F4F655565
:100E50007C4FA7018CEA93E00E94B130B801675F34
:100E60007F4F65557C4FA70184EB93E00E94B13022
:100E7000A701440F551FB801660F771F675E7F4FAC
:100E800065557C4F84EC93E00E94B130B8016F5EF1
:100E90007F4F65557C4FA7018CEB93E00E94B130EA
:100EA000CA94C092AB038091AB0390E00FA9A02F2E
:100EB000B0E09D01220F331F2E553D4FAA0FBB1FDF
:100EC000BD016D557D4F41E0480F9D15B0F490E098
:100ED000FC01E555FC4FD9015C915183DB015C912C
:100EE00051870FA9018B880F991FFC01E555FC4F15
:100EF000128E118E91E0842FE6CF8093AB031CC03D
:100F0000F394CC0CDD1C2FE0F21255CF0F5F1F4F76
:100F10000530110509F041CF8FEF8EA78FA718AAD2
:100F20000E94CA158160782F9AAB89AB4EA55FA548
:100F300068A98AA90E94711E8091D4039091D5035B
:100F4000A091D603B091D7032FB7F894C0900304B3
:100F5000D0900404E0900504F09006042FBFC81A56
:100F6000D90AEA0AFB0A0E94BE156093D403709363
:100F7000D5038093D6039093D703A091AB03EBEAFC
:100F8000F3E0A8AFB0E088248A94982CA12CB12C6F
:100F90008C189D08AE08BF08AB17A9F0418D528D83
:100FA0008A0120E030E080169106A206B30620F404
:100FB00018AD115018AF04C04C0D5D1D528F418FFC
:100FC000BF5F3296E9CF28AD2093AB032091070491
:100FD000211108C010916006212F237019F0169579
:100FE000169501C010E0209114012130E9F038F08D
:100FF000223009F463C2233009F47BC297C21092F5
:10100000110160935C0670935D0680935E06909379
:101010005F0689E2EBEAF3E0A8EDB3E001900D9200
:101020008A95E1F781E054C28091050118130DC043
:1010300020916006237030E04091040150E081E08F
:101040002417350719F480E001C081E08170809396
:101050001301412F50E04631510508F013C2FA0147
:10106000EA5AFF4F0C94A430882309F40BC240E0E5
:1010700060E080E00E94252005C200911101000F70
:10108000000FA4E0FA2EF00E33E43F1510F4F3E461
:10109000FF2E6091610670916206809163060E9446
:1010A0000922E62ED72EC82E0F1508F0E0C0E02F3B
:1010B000F0E0DF01A85DBC4F8C9190911201982364
:1010C00031F02C2D4E2D6D2DCF010E9427200F5F6A
:1010D000EBCF00911101000F000FE4E0FE2EF00EA7
:1010E00053E45F1510F473E4F72ED0906206E0909D
:1010F0006306C0906106B6018E2D0E940922B62EAD
:10110000A72E982E609164066C0D7D2D8E2D0E9469
:101110000922E62ED72EC82E0F15B8F4802F90E0A6
:10112000FC01E85DFC4F308120911201232359F02E
:1011300030FF04C02C2D4E2D6D2D03C0292D4B2DBD
:101140006A2D0E9427200F5FE7CF81E092E49F1570
:1011500008F099C197C100911101000F000F64E0E0
:10116000D62ED00EA3E4AD1510F453E4D52EB090D6
:101170006206A09063062091640640E4C42E3C2DD4
:10118000329F312D1124C32E0D1538F5E02EF12C90
:10119000F701E85DFC4F9081809112018923D9F01D
:1011A000F701EE0FFF1FEE55FD4F6081C69EB001A7
:1011B000112435E0759567953A95E1F780916106C0
:1011C000680F7B2D8A2D0E940922462F282F672F1A
:1011D000C7010E9427200F5FD7CF81E042E44D1561
:1011E00008F051C14FC100911101000F000F94E0B0
:1011F000F92EF00E53E45F1510F483E4F82ED0902E
:101200006106E0906206C090630660916406669590
:101210006695669580915C0690915D060E94FF211F
:101220000E94AD21805887FD8195880F282F3C2D85
:10123000239F212D1124822F6D2D7E2D0E940922A6
:10124000E62ED72EC82E0F1590F4E02FF0E0DF0128
:10125000A85DBC4F8C9190911201982331F02C2DF8
:101260004E2D6D2DCF010E9427200F5FECCF81E026
:1012700042E44F1508F007C105C18CED9BE108C0A1
:1012800089E29EE116C08DE09EE11BC08AED9BE1E4
:101290000E94122CF8C081ED9BE1FACF88EC9BE113
:1012A000F7CF8DEA9BE1F4CF8EE99BE10AC088E499
:1012B0009EE10E94B82BE7C08CEF9DE1FACF88EE4B
:1012C0009DE10E943E2BDFC080E79BE105C08EE3DD
:1012D0009BE102C080E09BE10E945A2CD4C08111A6
:1012E0001DC06091640620E1620F08F46FEF8091E9
:1012F0005C0690915D060E94FF216AE070E00E940A
:101300007C30892B09F0BEC00E94AE2FB1010E9433
:101310009030609112010E944B20B4C0E090110106
:101320008E2D880F880F04E0080F043408F003E4C2
:10133000E82EF12CC02ED12CEC14FD040CF042C090
:1013400060911201C7010E944B205FEFE51AF50A78
:10135000F3CF81111DC06091640620E1620F08F493
:101360006FEF80915C0690915D060E94FF2165E021
:1013700070E00E947C30892B09F084C00E94AE2F5F
:10138000B1010E949030609112010E9429207AC020
:10139000E09011018E2D880F880F04E0080F0434AF
:1013A00008F003E4E82EF12CC02ED12CEC14FD043F
:1013B0004CF460911201C7010E9429208FEFE81AB6
:1013C000F80AF4CF81E0033408F45DC05BC00091FB
:1013D0001101000F000FB4E0BB2EB00E93E49B157B
:1013E00010F4A3E4BA2E2091640630E040E050E00F
:1013F0006FEF7FEF80E090E00E94193079010B15CC
:10140000E8F5C02ED12CF601E85DFC4F908180916B
:101410001201892389F19091D803915097FD15C04D
:10142000292F092E000C330BF901E852FC4F81895A
:101430000813F3CF220F331FF901E852FC4F218D1F
:10144000328D2E153F0548F701C097016091640663
:10145000C9010E94FF21AC01609161067091620692
:10146000809163060E94BE200E940922462F282FE9
:10147000672FC6010E9427200F5FC1CF81E0A2E441
:10148000AB1508F480E0909111019F5F90931101DA
:10149000811121C082E08093140180911301811198
:1014A0001AC01123A1F0E0910104F09102043097D9
:1014B000A9F00190F081E02D099511C0109305016C
:1014C000809160068370809304010E942D1C83E04C
:1014D000809314012BC0112349F1E5CF80E081FFF7
:1014E00025C02FEF4FEF6FEF8EE190E00E94272095
:1014F0001DC040915C0650915D0660915E06709142
:101500005F062FB7F8948091030490910404A09192
:101510000504B09106042FBF841B950BA60BB70BD7
:101520004A97A105B10510F01092140186E0EEE093
:10153000F4E0D20101900D928A95E1F71091100428
:1015400000911104F0901204E09013041092100422
:10155000109211041092120410921304111103C07E
:10156000002309F451C080910C0490910D040E9455
:10157000AF159C0190910B04992309F49EC323336A
:10158000310508F441C09F3F19F09F5F90930B0411
:10159000112361F00E944023111614F491E001C060
:1015A0009FEF899F802D112480931004002361F008
:1015B0000E944023101614F491E001C09FEF899F10
:1015C000802D112480931104309110043323E1F015
:1015D000209111042223C1F045EB3403C0011124F2
:1015E000992319F09093100403C081E080931004B4
:1015F00055EB2503C0011124992319F09093110490
:1016000003C081E080931104F11003C0EE2009F4BF
:1016100051C08091090490910A040E94AF159C0169
:1016200090910804992309F44DC32536310508F437
:1016300041C09F3F19F09F5F90930804FF2061F025
:101640000E941E231F1414F491E001C09FEF899F94
:10165000802D112480931204EE2061F00E941E233D
:101660001E1414F491E001C09FEF899F802D112476
:1016700080931304309112043323E1F0209113047A
:101680002223C1F045EB3403C0011124992319F042
:101690009093120403C081E08093120455EB25035C
:1016A000C0011124992319F09093130403C081E021
:1016B000809313048091100481110BC08091110458
:1016C000811107C080911204811103C0809113041D
:1016D00081110E946E251B830C83FD82EE8286E0C1
:1016E000F201AEE0B4E001900D928A95E1F70E941C
:1016F0003B1F90911404891721F00E943B1F809397
:10170000140480915B06843009F0C8CA83E080939A
:10171000E9008091E80082FFC1CA8091E80085FF5E
:1017200021C00E94D72A81111BC0E0E2EE2EF12CCD
:10173000820109C08091F100D8018D938D01B1E043
:10174000EB1AF10869F08091E80085FDF3CF8091F4
:10175000E8008B778093E8000E94D72A882399F3CA
:1017600091E001C090E08091E8008B778093E800E1
:10177000992309F493CA00913004109131048981AE
:101780000115110561F08E3F09F06FC28A81833027
:1017900008F49FC18550833008F067C29AC18B302E
:1017A00009F481C108F5853009F459C0A8F48230E4
:1017B000B1F130F4813009F056C21A8289E04CC28E
:1017C0008330F1F1843009F04EC24C816B818A8103
:1017D0000E94DE1F9D8355C2873009F444C208F081
:1017E00042C20E948D1F41C2803109F49FC058F44B
:1017F0008D3009F441C0F0F18E3009F441C08F30D2
:1018000009F467C030C2823109F496C008F491C06F
:10181000833109F4B9C08E3F09F45BC124C28A81C7
:10182000823009F427C2833009F41FC2813009F0E5
:101830001AC20E94BE159B838C837D836E8315C262
:101840008A81823009F00FC26B817C818D819E81FB
:101850000E94AA3085E290E00E94F52F06C22D81F9
:101860003E813227232732274C816B818A810E9457
:10187000571FFBC180E15EC081E08A8382E8ECC132
:101880000A811B81102701271027CC80D12CEDE184
:10189000CE16D10408F0E9C17201C80182589D4FEB
:1018A0009701241935092C153D0508F0DEC10238D1
:1018B000F1E01F0730F40E94D72FD70114968C93C4
:1018C00002C0F70114820F5F1F4FFFEFEF1AFF0AEC
:1018D000E4CF80912E0490912F04892B09F4C5C187
:1018E0000A811B81102701271027EC80F12C2DE1A4
:1018F000E216F10408F0B9C16201C80182589D4F97
:101900009601241935092E153F0508F0AEC102389D
:1019100031E0130728F4D60114966C910E94F52F3C
:101920000F5F1F4FBFEFCB1ADB0AE7CF0E94471FA5
:101930009CC184E08A8399C10A811B8110270127F9
:101940001027CC80D12CEDE1CE16D10408F08DC14A
:101950007201C80186969701241935092C153D0599
:1019600008F083C10835F2E01F0730F40E94D72F3A
:10197000D70114968C9302C0F70114820F5F1F4F9A
:10198000FFEFEF1AFF0AE5CF0A811B81102701271D
:101990001027CC80D12C2DE1C216D10408F065C1EE
:1019A000083532E0130708F060C188E592E0801B3B
:1019B000910B8C159D0508F458C1480146E2840E30
:1019C000911C80912E0490912F04892B11F07201AB
:1019D00061C000FF0FC0C80185960E94D72F90E01C
:1019E000982F88272D81822B81159C4531F48FEF0C
:1019F0008D8303C0E12CF12C03C0EE24E394F12C81
:101A0000C8018C0D9D1D560180FF1EC081E0A81AE3
:101A1000B108A5E0B0E0AC0FBD1FAA0DBB1DBCAB6B
:101A2000ABABC4018C0D9D1D0E94D72FEBA9FCA967
:101A3000208130E0322F2227282B21153C4521F42C
:101A40008FEFABA9BCA98C93F201EE0DFF1D2FEF18
:101A5000CF01841995098A159B0508F0B8CF8481B8
:101A600090E0982F88273581832B81159C4511F4B0
:101A7000248325833296ECCF0835E2E01E0728F454
:101A8000D70114966C910E94F52F0F5F1F4FBFEF87
:101A9000EB1AFB0AC80186969701241935092C1503
:101AA0003D0550F3E2C080912E0490912F04892BC4
:101AB00009F4DBC0C2010E94F22CEFEFF1EE04E06A
:101AC000E150F0400040E1F700C000000E946515C1
:101AD000CCC0EA818E2F90E08930910508F0C5C016
:101AE000FC01E459FF4F0C94A43088E0E5E1F1E0FB
:101AF000DE01919601900D928A95E1F781E089834C
:101B00001A821B821C8288E0FE01B196DE011596C6
:101B100001900D928A95E1F7A8C080E6898382E062
:101B20008A831B821C82A1C08C8190E0982F882719
:101B30002B81820F911D092E000CAA0BBB0B35E0E7
:101B4000880F991FAA1FBB1F3A95D1F7AC01BD01A1
:101B5000405E5F4F6F4F7F4F481759076A077B07FB
:101B600008F483C0803612E09107A105B10508F0A2
:101B70007CC0413622E052076105710520F040E645
:101B800052E060E070E0481B590BBC01665A7E4F82
:101B9000C2010E94BE2F69C040E250E06FEF70E0CA
:101BA000C2010E94BA3080912E0489830A831B826D
:101BB0001C821D8281E065C0709231046092300405
:101BC00082E390E090932D0480932C040E94CA1528
:101BD00090932B0480932A0448C0012BA9F1809193
:101BE0002004909121049C01369527958170182F2F
:101BF000122380912A0490912B040E94AF15853600
:101C00009105E0F01123D1F00E94CA1590932B04A6
:101C100080932A0480912C0490912D040197909335
:101C20002D0480932C04892B79F4109231041092A6
:101C3000300470922F0460922E0406C082E390E07C
:101C400090932D0480932C0480912E04898380919D
:101C500030048A8380912C048B8307C010922F0458
:101C600010922E0402C08FEF8983C2010E94F22CD1
:101C70000C944E0685E290E00E94D72F1B821C82B6
:101C80001D828E83F2CF60E085E290E00E94F52F06
:101C90000E948D1F0E94471F6DEE82E290E00E941D
:101CA000F52F6EED83E290E00E94F52F61EF84E264
:101CB00090E00E94F52F0C940F062D32314008F071
:101CC00064CCA2CC2D32314008F0B5CCF3CC3F929D
:101CD0004F925F926F927F928F929F92AF92BF923C
:101CE000CF92DF92EF92FF920F931F93CF93DF93E8
:101CF000CDB7DEB729970FB6F894DEBF0FBECDBFC4
:101D0000FC018081918123813481232B31F09F3F1D
:101D100031F491E08F3F19F403C091E001C090E0ED
:101D200090FD1CC67F0185E0DE01119601900D92A9
:101D30008A95E1F7F701228189819A81222349F06E
:101D40000E944017182F682F89819A810E94E217FC
:101D500003C00E94B617182F69817A81812F0E94D3
:101D60000C208C01F7019281992309F4F2C09801AB
:101D700022513F452031310508F019C18FEF93E022
:101D80000E94D72F8111EFC002513EE7832E32E02F
:101D9000932E002379F08114F4E09F0609F4E3C048
:101DA000C4010E94D72F811101C001501FEF811A79
:101DB000910AEFCF1E821F8218861986442443940D
:101DC0002AE0322E84010F5F1F4FC4010E94D72FDB
:101DD0008E831F82882309F4C6C09FEF980F93302B
:101DE00060F48F834E8222E0820E911CC8010E9413
:101DF000D72F8887811102C0B6C048018E010A5FC3
:101E00001F4FF80120812223E9F2213009F04CC054
:101E10008181813049F46801F2E0CF0ED11CF801D4
:101E200082810E94DE2D0AC0823051F46801F2E006
:101E3000CF0ED11CF80182810E94662D860186C0DA
:101E4000833049F46801F2E0CF0ED11CF8018281A1
:101E50000E942D2DF3CF843019F00F5F1F4F76C0F5
:101E6000F80122810E5F1F4F80E090E030E02053A8
:101E700031092A30310568F4389EA001399E500D91
:101E80001124C901840F951F0F5F1F4FF801208196
:101E9000EDCF009709F45AC0EFE9FFE03197F1F771
:101EA00000C000000197F5CFE22FF0E0E651FC4FB3
:101EB0005490822F86958695869590E0FC01E65297
:101EC000FC4F64902770712C022E02C075946794A9
:101ED0000A94E2F7F1E06F227724FC01E653FC4F0D
:101EE000A490B12C022E02C0B594A7940A94E2F7F4
:101EF00031E0A322BB24FC01E654FC4FC490D12C5A
:101F000002C0D594C7942A95E2F781E0C822DD2467
:101F10006114710419F081EE0E94662DA114B104C0
:101F200019F086EE0E94662D852D0E94DE2DAB28CD
:101F300019F086EE0E942D2D672819F081EE0E947F
:101F40002D2DCD2819F08CE20E94DE2D0F5F1F4F42
:101F500058CF00313FE5130709F0F7C481E00E9434
:101F600017180E940A2B8091BF04877009F4F6C4E9
:101F7000F7018281882309F4F1C482E029960FB623
:101F8000F894DEBF0FBECDBFDF91CF911F910F91AF
:101F9000FF90EF90DF90CF90BF90AF909F908F9089
:101FA0007F906F905F904F903F900C943C18003161
:101FB000FFE51F0711F481E005C001312FE512078D
:101FC00021F482E00E945518CCCF033FFCE51F07A7
:101FD00049F406E221EE40EE63EF7CE5C7010E9482
:101FE000C420C1CF043F2CE5120708F04AC1083DC8
:101FF0003CE5130731F407E225EE45EE68ED7CE59C
:10200000EDCF093D8CE5180731F408E221E045EEFB
:1020100069ED7CE5E3CF073DECE51E0731F406E210
:1020200021EE41EE67ED7CE5D9CF992309F45EC13D
:10203000109232040230ECE51E0708F441C106316B
:10204000FCE51F0738F098012A5F3C45293031052F
:1020500008F036C10E945C169093A9038093A803F0
:1020600000312CE5120709F4C3C008F041C0083064
:102070008CE5180709F49AC0F0F40430ECE51E076B
:1020800009F487C068F402302CE5120709F477C020
:1020900003301C4509F0E5C08091A803826076C03A
:1020A00006308CE5180709F46EC008F07BC08091FB
:1020B000A80388606BC00C30ECE51E0709F485C0EE
:1020C00068F40A302CE5120709F474C008F079C0EE
:1020D0000E94A51A8091A803806858C00E308CE534
:1020E000180709F476C008F07FC08091A8038BC060
:1020F0000B3FECE51E0709F44FC018F503312CE542
:10210000120709F47DC078F401318CE5180709F451
:1021100073C002311C4509F0A4C00E94A51A809129
:10212000A8038F7733C00531ECE51E0709F472C0B0
:1021300008F486C00A3F1C4509F093C08091A903AA
:102140003EC00F3F3CE5130709F45FC058F40D3F54
:102150009CE5190709F444C008F43FC08091A90325
:1021600082602DC00130FDE51F0709F475C008F439
:102170005DC002301D4509F074C060E06EC0809102
:10218000A803816003C08091A80380618093A803A5
:1021900068C08091A80311C08091A90382608093D8
:1021A000A9035FC08091A8038062F0CF8091A8034B
:1021B0008064ECCF8091A80388608460E7CF816061
:1021C000EECF8091A8038E7FE1CF8091A8038D7F11
:1021D000DDCF8091A803877FD9CF8091A90318C054
:1021E0008091A9038D7FDBCF8091A8038F7ECECF16
:1021F0008091A8038F7DCACF8091A8038F7BC6CF23
:102200008091A803877F8B7FC1CF8091A9038D7FA9
:102210008E7FC5CF8091A80382FB222720F991E011
:10222000922790FB82F990FB83F9B0CF8091A903AC
:10223000982F909591708E7F892B90FB81F9AFCF6D
:102240000E94A51A8091A80387FB222720F991E01C
:10225000922790FB87F99ACF61E08EE090E00E9490
:10226000F52F6091A8031091A90384E090E00E94EB
:10227000F52F612F81E290E00E94F52F0E94A51AB0
:1022800072CE053FFCE51F0731F406E221EE42EE77
:1022900065EF7CE5A3CE053F2CE5120730F407E29D
:1022A00025EE44EE64EF7CE599CE063F3CE513074E
:1022B00009F0BBCE07E225EE46EE66EF7CE58ECE5A
:1022C0008091C2040631ECE51E0709F58A7A91E097
:1022D00009F490E090933304882311F065E301C082
:1022E00069E284E394E00E9427160EC006311C4583
:1022F00009F07AC080913304882309F42DC365E383
:1023000084E394E00E94FF150E94DD162CCE8272B9
:10231000F801E25CFC45E431F10508F04DC0EB58F2
:10232000FF4F0C94A4309091600681E08927809340
:102330006006109214010E94912015CE45ED5DE1DA
:102340006EED7DE12CC04EED5DE165ED7DE127C0D8
:1023500043EC5DE16CEC7DE122C04CEC5DE163ECB3
:102360007DE11DC04BEA5DE167EB7DE118C047EB05
:102370005DE16BEA7DE113C043E95DE16FE97DE179
:102380000EC04FE95DE163E97DE109C043EA50E237
:1023900069E970E204C049E950E263EA70E20E9430
:1023A0001F20E1CD81E005C084E003C089E001C0C9
:1023B0008EE00E94282BD7CD01158CE5180731F04F
:1023C0000E3D1C4589F40E946D16CDCD0E94A51AC4
:1023D000FFEF04E31CE0F15000401040E1F700C0C3
:1023E00000000E946515BFCDF7010081118199237E
:1023F00049F0C8010E944017D82E682FC8010E94DA
:10240000E21704C0C8010E94B617D82EB8018D2D5E
:102410000E94DF238C01982EF701D280A580A29420
:102420009FE0A9228091BF04877099F0DD2089F098
:10243000812F807F803421F080E2800F883048F047
:1024400082E00E943C188091BF048770CC24C39422
:102450008111C12CB12EB2948FE0B8228B2D90E067
:102460008C30910508F03DC2FC01E757FF4F0C94FA
:10247000A430812F807F1F70882311F01295107F68
:10248000DD20B9F0112309F417C280E2800F8830F3
:1024900010F0911006C08091C204182B1093C20452
:1024A00005C08091C104182B1093C1040E94DD1651
:1024B00003C2802F0E942D2D112309F412C2005E49
:1024C0001095083010F0911006C08091C2041823B6
:1024D0001093C20405C08091C10418231093C10455
:1024E0000E94DD16FEC1812F807F1F70803211F0A7
:1024F0001295107F992021F0F1E09F16E1F02AC09B
:10250000DD2081F08091C304AA2051F001E0A012E7
:1025100007C0182B181709F4E4C11093C304E1C1D4
:10252000812B10C0AA2021F021E0A21609F4D9C104
:102530000E94D71627C0DD2041F035E03A1508F497
:10254000D0C1812F0E94232DCCC184E08A1508F4CC
:10255000C8C118C0DD2049F0AA2099F3F701858190
:1025600080FFAAC18F708583ECCFAA2059F0093370
:1025700009F0B4C1FFEF17EE23E0F1501040204006
:10258000E1F7AAC1812F0E94182DABC1812F86953A
:102590008695837019F0813059F0A3C1DD2019F0C0
:1025A000C801937002C080E090E00E94251F99C18D
:1025B000DD2019F0C801937002C080E090E00E9415
:1025C0000F1F8FC1802FDD2029F00E9460230E9401
:1025D0006E2502C00E9499220E946E2582C1812F21
:1025E000837009F06AC0D11080C1902F92959695A2
:1025F0009770990F990F802F8F70482E512C612C56
:10260000712C092E04C0440C551C661C771C0A94BE
:10261000D2F704FF12C04FE050E060E070E004C069
:10262000440F551F661F771F9A95D2F7DB01CA0129
:1026300080959095A095B09503C080E090E0DC0176
:1026400016951695412F43704230D9F068F50091E8
:10265000C4041091C5042091C6043091C7044130D0
:1026600059F084299529A629B729BC01CD016023F9
:102670007123822393231EC0402A512A622A732A7F
:1026800013C084299529A629B7290091C404109163
:10269000C5042091C6043091C704BC01CD01602758
:1026A00071278227932706C0BC01CD0164297529B3
:1026B000862997290E94761814C1DD2019F0812FF0
:1026C000817001C08695882309F40FC1902F9295DF
:1026D00096959770990F990F802F8F70482E512CD7
:1026E000612C712C092E04C0440C551C661C771CEF
:1026F0000A94D2F704FF12C04FE050E060E070E0AF
:1027000004C0440F551F661F771F9A95D2F7DB014F
:10271000CA0180959095A095B09503C080E090E0A7
:10272000DC0116951695412F43704230D9F068F5BB
:102730000091650610916606209167063091680643
:10274000413059F084299529A629B729BC01CD012A
:1027500060237123822393238CC0402A512A622A4A
:10276000732A13C084299529A629B72900916506E3
:10277000109166062091670630916806BC01CD0174
:10278000602771278227932774C0BC01CD0164297B
:102790007529862997296DC01F70DD2029F0812FAA
:1027A0000E945518802FCECE802F0E94182D812F89
:1027B00049C0802F32EF931609F440C0391538F024
:1027C00090EF991661F0E1EF9E1699F170C0F3EF6A
:1027D0009F16D9F124EF921609F44EC068C0DD208F
:1027E00019F134E03A1508F47CC01F7181E090E0E3
:1027F000A0E0B0E0AC01BD0104C0440F551F661F4E
:10280000771F1A95D2F78091650690916606A09180
:102810006706B09168068A019B01082719272A27B5
:102820003B27C901B80125C025E02A1508F459C085
:10283000DCCFDD2029F0812F8F712CC0DD20D9F372
:10284000812F8F710E9417184CC0DD2079F01F7105
:1028500081E090E0A0E0B0E0BC01CD0104C0660FD3
:10286000771F881F991F1A95D2F703C060E070E0A8
:10287000CB010E940D1835C0DD2079F01F71812F2A
:102880000E94551838E0139FC00111248360809383
:10289000BF04812F0E94551824C081E00E943C187B
:1028A00081E08A15F0F482E00E943C181AC0DD2015
:1028B00039F0AA2009F4BFCF802F0E94662D11C0E5
:1028C000AA2009F4BDCF893349F49FEFE7EEF3E086
:1028D0009150E040F040E1F700C00000802F0E94DE
:1028E0002D2D88EF8B0D843010F40E943B1FCC20DF
:1028F000A9F18091BF0480FD31C0F7011282859556
:10290000859585950E945518C7010E94670E809194
:10291000BF0485958595859529960FB6F894DEBFF9
:102920000FBECDBFDF91CF911F910F91FF90EF9020
:10293000DF90CF90BF90AF909F908F907F906F90DF
:102940005F904F903F900C94171801318FE5180756
:1029500009F03BCB82E003CB69E2D2CC29960FB6DB
:10296000F894DEBF0FBECDBFDF91CF911F910F91C5
:10297000FF90EF90DF90CF90BF90AF909F908F909F
:102980007F906F905F904F903F90089580912F06B9
:10299000089580E00895CF93DF9300D01F92CDB7C4
:1029A000DEB790915B06943011F589837B836A834F
:1029B0009093E9008FEF9091E800815095FD06C05B
:1029C00095ED9A95F1F700008111F5CF8091E8001F
:1029D00085FF0DC040E050E063E070E0CE0101965D
:1029E0000E94C62C8091E8008E778093E8000F90BB
:1029F0000F900F90DF91CF910895BC0184E00C946B
:102A0000CB14BC0183E00C94CB1424E02093E900A8
:102A10002FEF3091E800215035FD06C035ED3A9595
:102A2000F1F700002111F5CF2091E80025FF0BC040
:102A300040E050E066E070E00E94C62C8091E80023
:102A40008E778093E8000895CF93DF932091100153
:102A5000222339F02091A80327FF03C060E224E07D
:102A600002C068E021E02093E9002FEF3091E800F8
:102A7000215035FD06C035ED3A95F1F700002111E2
:102A8000F5CF2091E80025FF1DC0EC0180911001D9
:102A9000811105C040E050E068E070E003C070E0E4
:102AA00040E050E0CE010E94C62C8091E8008E7775
:102AB0008093E80080E2FE01A0E3B6E001900D9271
:102AC0008A95E1F7DF91CF91089581E08093E0004E
:102AD00080E28093D8001092C9008FE19EE40197B4
:102AE000F1F700C0000087E090EBDC0180936906FD
:102AF00090936A06A0936B06B0936C069CE088E105
:102B00000FB6F894A895809360000FBE9093600074
:102B1000FFCF78941F920F920FB60F9211248F93CC
:102B20009F93AF93BF938091030490910404A0916D
:102B30000504B09106040196A11DB11D8093030404
:102B400090930404A0930504B0930604BF91AF9141
:102B50009F918F910F900FBE0F901F9018959C0121
:102B60004FB7F8948091030490910404A091050458
:102B7000B09106044FBF821B930B08952FB7F894B2
:102B800060910304709104048091050490910604FF
:102B90002FBF08952FB7F8948091030490910404F7
:102BA000A0910504B09106042FBF08951F920F92C3
:102BB0000FB60F9211248F939F93AF93BF93809181
:102BC000AA03811113C08091030490910404A09181
:102BD0000504B09106044196A11DB11D8093030424
:102BE00090930404A0930504B0930604BF91AF91A1
:102BF0009F918F910F900FBE0F901F90189520916D
:102C000010012223C9F02091A80327FF15C0262F09
:102C10002695269526952E31C8F4FC01E20FF11D6C
:102C2000677081E090E001C0880F6A95EAF78095AF
:102C30009281892382830895FC0106962281621382
:102C400001C012823196E817F907C1F70895209163
:102C500010012223C1F02091A80327FF14C0262FC2
:102C60002695269526952E3130F5FC01E20FF11DB3
:102C7000677081E090E001C0880F6A95EAF7928161
:102C8000892B82830895FC0132962FEF30E0419129
:102C9000641789F02F3F19F4411101C0232F3F5FC2
:102CA0003630A9F72F3F39F0FC01E20FF11D27FD67
:102CB000FA95628308950895CF9384E090E00E948E
:102CC000D72FC82F81E290E00E94D72F2C2F30E021
:102CD000A901582BCA01CF9108956BEE7EEF80E0D9
:102CE00090E00E94133060E082E090E00E94F52FB7
:102CF00060E083E090E00E94F52F1092C4041092EF
:102D0000C5041092C6041092C70460E084E090E00D
:102D10000E94F52F60E081E290E00E94F52F60E0D4
:102D200085E090E00E94F52F60E086E090E00E9450
:102D3000F52F6FEF87E090E00E94F52F40E050E024
:102D4000BA0188E090E00E94073060E08DE090E0FA
:102D50000E94F52F40E050E0BA0188E190E00E9427
:102D6000073060E087E190E00E94F52F40E050E0FE
:102D7000BA018CE190E00E94073060E080E290E0D0
:102D80000E94F52F40E050E0BA0188E190E00E94F7
:102D9000073040E050E0BA018FE090E00E94073039
:102DA00040E050E0BA0183E190E00C94073080915C
:102DB000C30481111092C30408959091C2048091BC
:102DC000C104892B2091C004982F922B9093340436
:102DD0008091C3048823D9F0892B80933404809197
:102DE0001001882331F08091A80387FF02C08EE193
:102DF00001C086E0E6E3F4E090E0815028F0219104
:102E00002223D9F39F5FF9CF91110E94D716E09149
:102E10000104F09102043097A9F0809110018823F9
:102E200059F08091A80387FF07C0809134048093F4
:102E3000350485E0809334040280F381E02D84E33F
:102E400094E00994089580E090E00E94251F80E0BE
:102E500090E00E940F1F1092C1041092C0040E94C3
:102E6000DD16EEE0F4E086E0DF011D928A95E9F7D9
:102E700010920B0410920804109254040C946E25C6
:102E8000BF92CF92DF92EF92FF920F931F93CF9357
:102E9000DF938C01C0906506D0906606E0906706CF
:102EA000F09068068091C4049091C504A091C60476
:102EB000B091C704C82AD92AEA2AFB2ACFE1D0E078
:102EC000D701C6010C2E04C0B695A7959795879596
:102ED0000A94D2F780FD04C0219790F7B12C07C067
:102EE000BC2EB8018C2F0E94DF230197A9F38B2DF4
:102EF000DF91CF911F910F91FF90EF90DF90CF90D6
:102F0000BF900895CF93DF93EC010E944017BE015C
:102F10000E94DF23DF91CF9108950E948217292F0D
:102F20002F70E92FE295EF704E2F50E0FA013297A3
:102F3000EE30F105B8F4EB56FF4F0C94A430803F0F
:102F400099F018F4883E70F40FC0843F59F40CC017
:102F5000883E50F0813F31F407C0822F86958695D8
:102F60008695089580E0089581E008952FE0929F6E
:102F7000800D1124682F669566956695982F977039
:102F800085E0689FB001112440E050E080E0FB0143
:102F9000E40FF51FE357FB4F208130E0092E02C0FC
:102FA000369527950A94E2F721703327042E01C045
:102FB000220F0A94EAF7822B4F5F5F4F453051058D
:102FC00031F708952FE0929F800D1124E82FE695A8
:102FD000E695E695877051E001C0550F8A95EAF7AE
:102FE00085E0E89FF0011124E357FB4F20E030E03B
:102FF00070E04081CB01022E02C0969587950A941D
:10300000E2F78170819584278523842781932F5F40
:103010003F4F2530310569F7089560936506709339
:10302000660680936706909368060C9423170F93A7
:103030001F9341E050E060E070E004C0440F551F72
:10304000661F771F8A95D2F74095509560957095C9
:103050008091650690916606A0916706B09168061A
:103060008A019B01082319232A233B23C901B801A4
:103070001F910F910C940D182091BF04809582230D
:103080008093BF04982F977079F430E0482F082E72
:10309000000C550B2417350739F0859585958595D6
:1030A0000E9417181092BF0408950F931F9341E0D8
:1030B00050E060E070E004C0440F551F661F771FAA
:1030C0008A95D2F78091650690916606A091670671
:1030D000B09168068A019B01082B192B2A2B3B2BE8
:1030E000C901B8011F910F910C940D186093C4048D
:1030F0007093C5048093C6049093C7040C9423175F
:1031000080918C0490915B04891719F08F5F877010
:10311000FBCF08950F931F93CF93DF9380915A04B1
:1031200082958F7009F05DC080915704882309F45F
:1031300058C080918C0410915B046091550470918B
:103140005604C0915804D091590491E06F3F09F0A2
:1031500090E0292F06E0811709F443C0209721F061
:103160007F3F21F030E003C031E001C0322F90E01A
:1031700030FD34C0089FF001099FF00D1124DF01DC
:10318000A45ABB4F11963C911197371327C03C911D
:10319000361324C012963C91129731111FC013961A
:1031A0004D915C9114974C1B5D0B483C5105B0F45C
:1031B00080915A048F70806180935A04EF59FB4FBD
:1031C00080818F708061808385E594E00E94670E26
:1031D000DF91CF911F910F910C9480180196877009
:1031E000BACFDF91CF911F910F9108959F92AF9227
:1031F000BF92CF92DF92EF92FF920F931F93CF93E4
:10320000DF93CDB7DEB761970FB6F894DEBF0FBE80
:10321000CDBF8C0185E0F801DE011D9601900D9275
:103220008A95E1F7F80190818181E280309155041F
:10323000609156044091580450915904411551052C
:1032400031F06F3F31F421E03F3F19F403C021E03A
:1032500001C020E0F22FF1709F2E20FD23C1F80164
:10326000C380D48025E5A22E24E0B22EF09057042E
:10327000F601E41BF50BFF2009F4CEC020915A049F
:10328000E83CF10508F099C0422F407F09F051C099
:10329000681311C039130FC0FE2CE1100CC02F7041
:1032A000206120935A04C5010E94670E80915A0440
:1032B000F801858337C1CD2831F08F3F31F421E00B
:1032C0009F3F19F403C021E001C020E020FD03C0AE
:1032D00021E02E2502C020E030E0F22FF170FF2E19
:1032E00020FF1DC020918C0440915B0456E0241700
:1032F00009F4F6C030E0529FF001539FF00D112405
:10330000E45AFB4F6181861306C06081961303C0A7
:103310006281E61204C02F5F3F4F2770E8CFFE2C7A
:10332000EE2009F4FFC080915A04816080935A0412
:1033300050C0681307C0391305C0E11003C0F8017D
:1033400025838DC09D878E878D859E850E948D17D4
:10335000882369F1EE2059F120915A04822F829539
:103360008F7090E0029774F080915504909156040C
:1033700098878F831986DB86CA862C87CE010796AD
:103380000E94670E86E0F801A5E5B4E001900D9279
:103390008A95E1F70E948A180DC06817E1F09D87B1
:1033A0008E878D859E850E948D1781111EC0C80154
:1033B0000E94670EFF24F394B5C0422F407F69F747
:1033C00085E594E00E94670E86E0F50111928A95EA
:1033D000E9F7F12CA7C03913E2CFE110E0CFF801F3
:1033E0002583C8010E94670E57C0EE2001F320918B
:1033F0005A04822F82958F7090E002971CF2809180
:103400005504909156049A8389831B82DD82CC8275
:103410002E83CE010196B4CFE83CF105E8F5FE2CF1
:10342000EE2029F2681327C0391325C020915A04D1
:1034300020FD18C0822F82958F70482F50E04115D3
:10344000510581F0F80125834F30510541F08F5F20
:10345000982F9295907F822F8F70892B8583C8013A
:103460000E94670E86E0F801A5E5B4E001900D9298
:103470008A95E1F757C09D878E878D859E850E942E
:103480008D1781117FCF80915A04816080935A04F7
:10349000C8010E94670E46C086E0F50111928A9528
:1034A000E9F740C0EE2009F482CF9D878E878D8595
:1034B0009E850E948D17F82E882309F478CF86E028
:1034C000F801A5E5B4E001900D928A95E1F78091AD
:1034D0005504909156040E9482170E948A1822C0B7
:1034E0009D878E878D859E850E948217292F229524
:1034F0002F70223028F49F7039F0811105C00BC065
:10350000243028F49F7049F4805E883020F0C80190
:103510000E94670E9F2CF92C05C0F8019581907FC1
:1035200099F7F9CF8F2D61960FB6F894DEBF0FBED5
:10353000CDBFDF91CF911F910F91FF90EF90DF9062
:10354000CF90BF90AF909F9008951092C204809149
:103550001001882331F08091A80387FF02C08EE11B
:1035600001C086E0E6E3F4E0DF011D928A95E9F709
:103570000C9423178334910540F5880F991F880F09
:10358000991FFC01EC5CFE4F528133818081837076
:103590007181A82FB0E0E0E98E9FC0011124825212
:1035A0009B4FFC01E70FF11DB4976083FC01E50F11
:1035B000F11DB4974083830F911DFC01B4972083C4
:1035C000FD01E452FB4F81E080830895FF920F9349
:1035D0001F93CF93DF93182F062FF42EC0E0D0E077
:1035E0002F2D402F612FCE010E94BA1A2196C3348D
:1035F000D105B1F7DF91CF911F910F91FF90089501
:103600000F931F9310E0F801EE0FFF1FEE55FD4FD3
:103610009081905797FD9195000F111FF801ED557E
:10362000FD4FE081F0E0B097DF01AA0FBB1F8D01D5
:103630000E0F1F1F2003D001219FB00D1124E8E3BE
:10364000F0E0E91BF10997FDF3959F01220F331F6D
:1036500089010E0F1F1F40039001419F300D11245F
:103660002A0F3B1F37FF02C021583F4F220F232F45
:10367000221F330B620F1F910F9108950F931F9319
:10368000522F10E0F801EE0FFF1FED55FD4FE081C6
:10369000F0E0B097EE0FFF1F9F015203D001539F40
:1036A000B00D1124000F111FF801EE55FD4F0081E0
:1036B00010E000571109000F111F40039001419FB6
:1036C000300D11242A0F3B1F37FF02C021583F4FF6
:1036D000220F232F221F330B620F1F910F9108958A
:1036E0000F931F93522F10E0F801EE0FFF1FED55BF
:1036F000FD4FE081F0E0B0979F015203D001539F4E
:10370000B00D1124000F111FF801EE55FD4F00817F
:1037100010E00057110940039001419F300D112422
:103720002A0F3B1F37FF02C021583F4F220F232F84
:10373000221F330B620F1F910F910895EF920F9389
:103740001F9393E0099F80011124159507956E2D15
:10375000600F1F910F91EF900895A22F50E0FA0192
:10376000EE0FFF1FED55FD4F9081905297FD919503
:10377000440F551FFA01EE55FD4F3081232F30E0E5
:103780002A1B3109290F311D97FD3A95620F0895C3
:10379000E42FF0E0EE0FFF1FED55FD4F6081621B3F
:1037A0000895E42FF0E0EE0FFF1FEE55FD4F60810E
:1037B000621B0895622F0895E42FF0E0EE0FFF1FC3
:1037C000EE55FD4F408134EE439F412D1124E82FEB
:1037D000F0E050E0445E5F4FDA01A21BB1099D01A9
:1037E000B7FF03C031952195310993E0220F331FB4
:1037F0009A95E1F7AF01421B530B9A0157FF02C0A4
:1038000020E030E0582F259F212D1124822F08958C
:103810000F931F93CF93DF93082F000FEB0114E258
:103820001093C804E9ECF4E0DE018D91819384E00B
:10383000E93DF807D1F724E630E041E150E068ECDB
:1038400074E0802F0E943B2F105F6096143B41F77D
:10385000DF91CF911F910F9108958091DC0488230F
:1038600029F06EED74E084E70E94081C1092DC04DD
:103870008091DD04882329F06EE675E086E70E94DA
:10388000081C1092DD040895E8ECF4E060834183A5
:1038900024E630E042E050E0BF01880F0C943B2F5B
:1038A000DF92EF92FF920F931F93CF93DF93262F18
:1038B00030E0A9014E5D594F7A01FA0190819111D2
:1038C0000AC0F7011082DF91CF911F910F91FF90F5
:1038D000EF90DF900895D82EF2E16F9FE001112460
:1038E00000E010E0F801EC0FFD1FE250FA4F4081BC
:1038F000602F8D2D0E94441C0F5F1F4F0231110558
:1039000089F7DFCFCF93DF93C82F4BE06DEF0E9495
:10391000441C40E06AE08C2F0E94441C8FE39CE929
:103920000197F1F700C0000040E060E08C2F0E949A
:10393000441C40E061E08C2F0E94441C40E066E0A3
:103940008C2F0E94441C40E06DEF8C2F0E94441C81
:10395000D0E040E06D2F8C2F0E94441CDF5FD231FD
:10396000C1F740E06D2F8C2F0E94441CDF5FD432E2
:10397000C1F740E06D2F8C2F0E94441CDF5FD43BC9
:10398000C1F74BE06DEF8C2F0E94441C41E06AE0D0
:103990008C2F0E94441C40E06DEF8C2FDF91CF9163
:1039A0000C94441C7F928F929F92AF92BF92CF92C1
:1039B000DF92EF92FF920F931F93CF93DF930E94BA
:1039C000AE2E84E70E94821C86E70E94821C04E3DC
:1039D00011E0E12CF12C42E138E0A32EB12CCC24F3
:1039E000C394D12C77247394D80111962C911197FC
:1039F00030E0C90184971296CC911297D0E0A49739
:103A00001396EC91F0E0B497BC0197FF02C0695F98
:103A10007F4FA3E075956795AA95E1F7D701AA0FA7
:103A2000BB1FAA0FBB1FAC5CBE4F2C91237030E0B4
:103A3000429FD001439FB00D1124A250BA4F4D01B7
:103A4000860E911CB5010E949030B60102C0660F2F
:103A5000771F8A95E2F7CB01D4019C91892B8C9337
:103A6000CE01D7FD079663E0959587956A95E1F7B6
:103A7000429FB001439F700D112462507A4F4B0159
:103A8000880E911CCE01B5010E949030B60102C093
:103A9000660F771F8A95E2F7CB01D4019C91892BA1
:103AA0008C93CF01F7FD079653E0959587955A952E
:103AB000E1F7429FE001439FD00D1124C250DA4F3D
:103AC000C80FD11DCF01B5010E949030F60102C090
:103AD000EE0FFF1F8A95E2F7CF019881892B88832B
:103AE000F901EE5DF94F7082FFEFEF1AFF0A0C5FEC
:103AF0001F4F63E4E616F10409F076CF60E084E737
:103B00000E94501C61E086E7DF91CF911F910F91D9
:103B1000FF90EF90DF90CF90BF90AF909F908F90ED
:103B20007F900C94501CE0E6F6E0438120E1421BBC
:103B300008F440E08181628190E00C94B92CE0E6C9
:103B4000F6E0438120E1420F08F44FEF818162816A
:103B500090E00C94B92CE0E6F6E0628120E1621B73
:103B600008F460E08181438190E00C94B92CE0E698
:103B7000F6E0628120E1620F08F46FEF81814381FA
:103B800090E00C94B92CE0E6F6E0818190E043816E
:103B9000628108970C94B92CE0E6F6E0818190E010
:103BA0004381628108960C94B92C809160068695B9
:103BB0008695815009F485E10C94282B809160064C
:103BC000869586958F5F863108F081E00C94282BCE
:103BD000EF920F93CF93DF93D72FC82FC9010E1900
:103BE000BA010E947A21602F681B7D2F8C2FDF91F4
:103BF000CF910F91EF9008950F93CF93DF93D72F2D
:103C0000C82FC901BA010E947A21682F600F7D2F49
:103C10008C2FDF91CF910F910895EF920F931F9307
:103C2000CF93DF93D62FC72F182FC9010E19010F7D
:103C3000BA010E947A21081B202F219F212D1124D7
:103C4000822F6D2F7C2FDF91CF911F910F91EF90DD
:103C50000895FF920F931F93CF93DF93F62ED72FE4
:103C6000182FC901C12FC01BBA010E947A21982FB9
:103C7000990F890FC81B2C2F219F212D1124822FD2
:103C80006F2D7D2FDF91CF911F910F91FF900895A0
:103C90000F93CF93DF93D72FC82F47FD4195E8E3CC
:103CA000F0E0CF01841B910947FD9395889FB001F7
:103CB000899F700D700D1124229FC001239F900DCC
:103CC000900D1124860F971F0E94CE21682F660F3A
:103CD000860F682F600F7D2F8C2FDF91CF910F9172
:103CE00008951F93CF93DF93CDB7DEB767970FB6D5
:103CF000F894DEBF0FBECDBF342F4B8B252F5C8BCE
:103D00006D8B7E8B8F8B4E895F8961111092C10400
:103D100086E0FE013D96DF01982F1D929A95E9F706
:103D20003D872E876F87598B488BDE011796019050
:103D30000D928A95E1F7CE0107960E94F61881113F
:103D40003EC086E0FE013796DE01119601900D928D
:103D50008A95E1F7FF81E8856A857B8561157105A4
:103D600031F0EF3F31F481E0FF3F19F403C081E00F
:103D700001C080E080FD23C020915B0430E0C901D8
:103D800001968770992740918C0450E0841795071D
:103D900079F1F983EA837D836C8396E0929FD00169
:103DA000939FB00D1124A45ABB4FFE013196019090
:103DB0000D929A95E1F780935B040E94801816E0BB
:103DC00080918C0490915B048917F9F0189FC001D1
:103DD0001124845A9B4F0E94F6188823B1F08091D9
:103DE0008C0490E001968770992780938C04E8CF2B
:103DF0000E94A51A10925B0410928C04E5E5F4E091
:103E000086E0DF011D928A95E9F767960FB6F89470
:103E1000DEBF0FBECDBFDF91CF911F9108952091DE
:103E20002806309129062817390771F09093290642
:103E300080932806E0910104F0910204309721F06C
:103E40000084F185E02D0994089520912606309193
:103E500027062817390771F09093270680932606C6
:103E6000E0910104F0910204309721F00680F7817F
:103E7000E02D09940895E0910104F0910204309737
:103E800021F00190F081E02D099480E00895CF9316
:103E9000DF93CEE7D2E060E0CE010E94F52F2196BD
:103EA000C11584E0D807B9F7DF91CF9108950F933A
:103EB0001F93CF93DF93843058F5653048F54F302A
:103EC00038F521159CE5390731F4E0912E04F09185
:103ED0002F04EF2BE9F08901C42FD0E0CC0FDD1FB8
:103EE0009EE1699FC00DD11D112496E9899FC00DE7
:103EF000D11D1124612FCE0186960E94F52F602FCF
:103F0000CE018796DF91CF911F910F910C94F52FE1
:103F1000DF91CF911F910F9108958F929F92AF9251
:103F2000BF92CF92DF92EF92FF920F931F93CF93A6
:103F3000DF93C0902E04D0902F0481E090E0909306
:103F40002F0480932E04812CE12CF12C912C00E085
:103F500010E0C0E0D0E05701A00EB11EFE01EE0F50
:103F6000FF1FEA0DFB1DE659FB4F259134914C2FA5
:103F7000692D882D0E94571F2196CF30D10571F7EA
:103F8000025E1F4F939485E09812E3CF86E9E80E16
:103F9000F11C839484E08812D9CFD0922F04C09270
:103FA0002E04DF91CF911F910F91FF90EF90DF9042
:103FB000CF90BF90AF909F908F9008950F931F93D5
:103FC000CF93DF93843008F56530F8F44F30E8F490
:103FD000C42FD0E0CC0FDD1F2EE1629FC00DD11D9C
:103FE000112436E9839FC00DD11D1124CE01869680
:103FF0000E94D72F90E0182F0027CE0187960E94AD
:10400000D72F9801282BC90102C080E090E0DF91F2
:10401000CF911F910F910895462F20913004309138
:104020003104232B49F4843038F4753028F46F3090
:1040300018F4672F0C94DE1F80E090E00895882329
:1040400011F0FA0101C0FB0109940C94E61A0C94DA
:10405000BA1A1F93CF93DF93FC01E85DFC4F2081D8
:104060006223A9F0EC010E94AE2F182F0E94AE2F00
:10407000612F782F809163060E940922462F282FF6
:10408000672FCE01DF91CF911F910C942720DF91F4
:10409000CF911F910895DF92EF92FF920F931F939C
:1040A000CF93DF93EC01FC01E85DFC4F9081692325
:1040B00081F1D09062060091630610916106E12EB5
:1040C000F12C0E94AE2F282FC7018C549F4F68E619
:1040D00071E00E9490308E199F0997FD0396959587
:1040E0008795959587952370612F289F600D1124E2
:1040F0007D2D802F0E940922462F282F672FCE0169
:10410000DF91CF911F910F91FF90EF90DF900C9472
:104110002720DF91CF911F910F91FF90EF90DF90BB
:10412000089545E050E06CE170E080E696E00C9484
:10413000E52FE0E6F6E0248130E1230F08F42FEFCD
:1041400024830C949120E0E6F6E0248130E1231BE7
:1041500008F420E024830C949120E0E6F6E081E26C
:10416000808380911D0190911E01A0911F01818388
:104170009283A3838FE784830C94912022E8241BED
:1041800008F420E0620F08950F931F93CF93DF93FD
:10419000C42FD22FFC0182818823C9F040933204BE
:1041A0000E94CA15909325068093240680E28C0F06
:1041B000883008F057C0C77081E001C0880FCA95E9
:1041C000EAF7DF91CF911F910F910C94232D8091ED
:1041D0003204481330C080912406909125060E9435
:1041E000AF15883C910538F510E21D0FCD17B9F0D9
:1041F00080E28C0F883040F4C77081E001C0880FE6
:10420000CA95EAF70E94182D183028F581E09D2FF5
:10421000977001C0880F9A95EAF70E94232D802F8E
:104220000E94DE2D1830F0F4D77081E001C0880FB5
:10423000DA95EAF70AC080E28C0F883098F4C770EC
:1042400081E001C0880FCA95EAF7DF91CF911F91F5
:104250000F910C94182D802FDF91CF911F910F910A
:104260000C94DE2DDF91CF911F910F9108959091C5
:10427000A80392FF0DC0282F2871283019F4877FDA
:10428000846006C0282F2471243011F48B7F88604D
:1042900093FF0DC0282F2871283119F4877E84617F
:1042A00006C0282F2471243111F48B7E886120915F
:1042B000A90320FF0DC0382F3871383019F4877FDB
:1042C000816006C0382F3171313011F48E7F8860E3
:1042D00021FF0DC0282F2871283119F4877E8161B4
:1042E00006C0282F2171213111F48E7E886194FD42
:1042F000877E0895FC019B01009721F477FF2BC076
:1043000080E80895AC0197FF04C044275527481B57
:10431000590BB901640F751F37FD0CC0241B350BF9
:10432000C901A5E0880F991FAA95E1F70E94903076
:1043300080E20CC0CB0165E0880F991F6A95E1F718
:10434000BA01621B730B0E94903080E6861BF7FF58
:1043500003C08195089580E00895482F982F46FD69
:104360009095E92FEF739F7046FD9F5FE295EF7088
:10437000EE0FF0E0E05CFD4F2181299F802D212D83
:10438000112482958F702295207F822B3081982F67
:10439000930F892F47FD819580580895BC01823085
:1043A000910508F40895613E8EE1780748F49B0179
:1043B00095E0369527959A95E1F748E0420F01C0C0
:1043C0004FEF91E0242F30E0290F311D35952795CF
:1043D000229FF001239FF00DF00D11246E177F072F
:1043E00018F44FEF420F04C02F3F39F091E0920FC5
:1043F000491740F78FEF890F08958FEF089520E058
:1044000030E0869F212D969F200D311D1124C9017A
:104410000895CF92DF92EF92FF920F931F93CF9365
:10442000DF93F62E472FE82FF0E0711106C0EE5310
:10443000F94F8491782F682F73C0272F30E0EE5307
:10444000F94FE491FE2F0E2F10E056E0659FC0015A
:104450001124CFEFD0E0BE010E947C305BEA56030E
:10446000C001579F900D11248F0D911D8F0D911D2F
:10447000982F990F980F7E01E21AF30AE09ED0015F
:10448000E19EB00DF09EB00D11248B2F499FA0012D
:104490001124452F55277E01E41AF50AE09EA0015C
:1044A000E19E500DF09E500D11246E01C91AD108E5
:1044B000C29E7001C39EF00CD29EF00C11242F2DD1
:1044C0003327C21BD30BC09F9001C19F300DD09FDB
:1044D000300D1124932F6230710591F048F461156D
:1044E0007105E1F061307105B9F49E2FE52F16C01A
:1044F0006430710569F040F06630710579F00CC0E8
:104500009E2FEB2F832F0AC0EB2F8F2F952F06C0E6
:104510009B2F8E2FE32F02C09B2F852F7E2F692F7D
:10452000DF91CF911F910F91FF90EF90DF90CF908F
:104530000895803F39F48091110487FF6AC010927A
:10454000110467C0813F29F4809111041816BCF34F
:1045500060C090911004823F29F497FF5AC01092D6
:10456000100457C0833F19F41916CCF352C0909130
:104570001204893F31F419160CF04BC0109212044A
:1045800048C08A3F19F497FF44C0F8CF8B3F39F4F5
:104590008091130487FF3DC0109213043AC08C3FF2
:1045A00029F4809113041816BCF333C0843F21F41E
:1045B00080910F048E7F17C0853F21F480910F04F6
:1045C0008D7F11C0863F21F480910F048B7F0BC03B
:1045D000873F21F480910F04877F05C0883F31F425
:1045E00080910F048F7E80930F0413C08D3F21F4C0
:1045F000809154048E7F0BC08E3F21F4809154042F
:104600008D7F05C08F3F29F4809154048B7F809368
:10461000540480911004811106C08091110481110D
:1046200002C010920B0480911204811106C0809187
:104630001304811102C0109208040895809154045B
:1046400080FD16C081FD16C082FD18C0809108044F
:10465000882391F0883290F428E0829FC0011124D1
:1046600068E270E00E949030862F672B29F007C027
:1046700082E0089584E0089581E0089588E0089537
:104680008091540480FD14C081FD14C082FD16C0C9
:1046900080910B04882381F0843180F422E3829F8F
:1046A000C001112464E170E00E949030862F0895CB
:1046B0008CE0089589E1089585E0089582E30895E6
:1046C000803F21F40E944023819504C0813F29F45A
:1046D0000E944023809311040895823F21F40E9498
:1046E0004023819504C0833F29F40E944023809396
:1046F00010040895893F19F40E941E2305C08A3FC3
:1047000031F40E941E2381958093120408958B3FFB
:1047100021F40E941E23819504C08C3F29F40E943D
:104720001E23809313040895843F21F480910F0485
:10473000816017C0853F21F480910F04826011C011
:10474000863F21F480910F0484600BC0873F21F4E1
:1047500080910F04886005C0883F31F480910F0478
:10476000806180930F0408958D3F21F4809154045B
:1047700081600BC08E3F21F480915404826005C09B
:104780008F3F29F4809154048460809354040895E9
:10479000F894E82FE295EF70F0E031A1282F2F7008
:1047A00081E090E001C0880F2A95EAF7982F909554
:1047B000932391A392A1892B82A378940895CF93F8
:1047C000DF930E940C20EC018238910559F1A0F48E
:1047D0008133910509F473C040F48932910509F4DD
:1047E00067C08A9709F472C084C08533910509F4C3
:1047F00058C0C997B9F07DC0833E910571F138F476
:10480000803E9105B1F0823E910511F172C0863E65
:104810009105B9F1873E9105C9F1843E910509F0F2
:1048200068C024C08091A80380FD5DC081FD5BC08D
:1048300060C08091A80380FD50C08091A90380FFD3
:1048400049C18091A80384FD43C1C3EED0E042C1B9
:104850008091A80382FF3EC1F4CF8091A80382FD1E
:104860003FC08091A90380FD3EC0EBCF8091A9039A
:1048700081FF30C18091A80384FD2AC1C7EED0E03A
:1048800029C18091A80383FF25C1F4CF8091A8039B
:1048900083FD2CC08091A90381FFECCFC4EED0E052
:1048A00019C18091A80385FF15C1C9E2D0E012C1EA
:1048B0008091A80385FF0EC1C5E3D0E00BC18091B4
:1048C000A80386FF07C1CAE2D0E004C18091A80313
:1048D00086FF00C1C1E3D0E0FDC0C9E3D0E0FAC06B
:1048E000C2EED0E0F7C0C0EED0E0F4C0C6EED0E03B
:1048F000F1C0C11581E5D80708F066C0C11520E5F3
:10490000D207E0F0CE0174E0969587957A95E1F7AD
:1049100083709C2F937021E030E002C0220F331F80
:104920009A95E2F73C68382BCF70C695C69540E261
:10493000C49FE0011124C22BD32BCCC0C83ED105AB
:1049400060F5C03ED10508F0C5C0C83AD105B0F445
:10495000C53AD10540F0C55AD0E0C559DC4FC881F1
:10496000D0E0D064B7C0C130D10509F4B3C008F4B9
:10497000AFC0C430D10508F4ABC0ACC0CF3BD1054B
:1049800008F0A6C0C85AD0E0CC0FDD1FC259DC4FDA
:104990000990D881C02DD4649DC0C11540E2D407D0
:1049A00058F4C11581E0D80708F094C0C03FD10584
:1049B00008F48EC0D0658EC0C11520E4D20708F47B
:1049C00087C0DF70D06A86C0C11545E5D40708F0FE
:1049D00042C0C11584E5D80728F0DC2FCC27C46F6E
:1049E000D06A78C0C11523E5D207B0F0CE0183703C
:1049F000992721E030E002C0220F331F8A95E2F7A9
:104A00008C2F8695869540E2849FC0011124E90190
:104A1000C82BD92BDA685EC0C11542E5D40728F44B
:104A2000DC2FCC27C16FD06A55C0CE018370992787
:104A300021E030E002C0220F331F8A95E2F78C2F6D
:104A40008695869540E2849FC0011124E901C82B18
:104A5000D92BDC683FC0C11589E5D807B8F4C1156A
:104A600028E5D20728F0DC2FCC27C06FD06A32C0EF
:104A7000C11546E5D40760F58C2F0E9437218F7150
:104A8000C82FD0E0DC2FCC27D06224C0C1158AE526
:104A9000D80780F48C2F8F700E94372194E0D69530
:104AA000C7959A95E1F7CF70D0E0DC2FCC27D0697D
:104AB000C82B10C0CE0190568115904248F48D2F1E
:104AC0008F710E943721DD27D0628F71D82B02C0F1
:104AD000C0E0D0E0CE01DF91CF9108950E94CA15C9
:104AE00020911004211104C020911104222321F0EF
:104AF00090930D0480930C0420911204211104C0A2
:104B000020911304222321F090930A048093090436
:104B1000E0910104F0910204309749F082E0809323
:104B20000E040480F581E02D8EE094E00994089550
:104B30009F92AF92BF92CF92DF92EF92FF920F932C
:104B40001F93CF93DF930EE913E080E2E82E81E01C
:104B5000F82EC0E0D0E0912CCC24C394D12CB70126
:104B6000D7018C91F894E82FE295EF70F0E021A145
:104B70008F70A60102C0440F551F8A95E2F7CA0143
:104B8000922F982B91A392A18095892382A3789448
:104B900000C0E5E2F1E020E030E0A12CB12C419131
:104BA000842F82958F7090E0DC0190968C9190E03C
:104BB0004F7002C0959587954A95E2F780FD08C031
:104BC000C601022E02C0880F991F0A94E2F702C0A4
:104BD00080E090E0A82AB92A2F5F3F4F2F3031059F
:104BE000F1F6BFEFEB1AFB0AFB0180810E94C8239C
:104BF000C430D10519F0F0EAFA95F1F7D8018D919A
:104C00009C911197A816B90621F0AD92BC9281E053
:104C100001C080E0982A21960E5F1F4FC530D10554
:104C200009F09DCF992049F081E080932C060E94E5
:104C3000CA1590932B0680932A0680912C06882310
:104C400091F180912A0690912B060E94AF1504974E
:104C500050F180919E0390919F0390932104809343
:104C600020048091A0039091A1039093230480934A
:104C700022048091A2039091A30390932504809332
:104C800024048091A4039091A5039093270480931A
:104C900026048091A6039091A70390932904809302
:104CA000280410922C06892DDF91CF911F910F912E
:104CB000FF90EF90DF90CF90BF90AF909F900895BE
:104CC0001F93CF93DF93CDB7DEB7AA970FB6F894B3
:104CD000DEBF0FBECDBFE3E5F6E08091F10081932A
:104CE00046E0EB35F407C9F780915406833009F4A8
:104CF00062C030F4813071F0823009F49CC0B3C0DE
:104D00008A3009F488C08B3009F46DC0893009F00D
:104D1000AAC020C080915306813A09F0A4C08091B6
:104D2000E800877F8093E8008091570690915806AD
:104D3000892B21F460E280E396E003C060E080E02C
:104D400090E070E00E94502E8091E8008B77809375
:104D5000E80089C080915306813209F084C08091B7
:104D6000570690915806009719F0029709F07BC0FA
:104D70008091E800877F8093E8008091E80082FDC1
:104D800005C080915B068111F8CF6DC02091F300C2
:104D90008091F20090E0922B029729F48091F1002B
:104DA0008B7F813021F48091F10080932F068091D8
:104DB000E8008B7754C080915306813A09F053C0C4
:104DC0008091570690915806892B09F04CC080912C
:104DD000E800877F8093E8008091E80080FFFCCFA7
:104DE0008091100137C0809153068132E1F58091A6
:104DF000570690915806892BB1F58091E800877F7E
:104E00008093E8000E94FC2D80915506809310014C
:104E10000E94A51A28C080915306813221F5809105
:104E2000E800877F8093E8000E94FC2D8091560661
:104E300080932E0618C080915306813AA1F4809188
:104E4000E800877F8093E8008091E80080FFFCCF36
:104E500080912E068093F1008091E8008E778093F8
:104E6000E8000E94FC2D8091E80083FFE9C1809159
:104E7000530690915406492F50E04A30510508F0EE
:104E8000DFC1FA01ED55FF4F0C94A430803821F0BA
:104E9000823809F0D5C108C0809150069091510622
:104EA000992389F082600FC0809157068F708730F8
:104EB00008F0C6C18093E9008091EB0085FB88274C
:104EC00080F91092E9009091E800977F9093E800B4
:104ED0008093F1001092F1007CC1282F2D7F09F002
:104EE000AFC1882319F0823061F0AAC180915506C4
:104EF000813009F0A5C1933009F080E0809351061C
:104F00002EC08091550681112AC0809157068F705E
:104F10002FEF280F263008F093C18093E9002091ED
:104F2000EB0020FF1CC0933021F48091EB008062E5
:104F300014C09091EB0090619093EB0021E030E081
:104F4000A90102C0440F551F8A95E2F74093EA0079
:104F50001092EA008091EB0088608093EB00109241
:104F6000E9008091E800877F8093E8000E94FC2D93
:104F700067C1811165C1109155061F778091E300CB
:104F80008078812B8093E3008091E800877F809375
:104F9000E8000E94FC2D8091E80080FFFCCF80910A
:104FA000E30080688093E300111102C082E001C039
:104FB00083E080935B0644C18058823008F040C192
:104FC00020915506309156062C3D53E0350779F572
:104FD00083E08A838AE289834FB7F894DE011396CF
:104FE00020E03EE051E2E32FF0E050935700E491DF
:104FF00020FF03C0E295EF703F5FEF708E2F90E0CF
:10500000EA3010F0C79601C0C0968D939D932F5F34
:10501000243149F74FBF8091E800877F8093E800F3
:105020006AE270E0CE0101960E94502EC0C08091CD
:10503000570690915806432F552743305105B1F03C
:1050400068F44130510509F40AC14230510509F0B4
:10505000F7C08BE590E0E0EEF8E057C04132510533
:1050600089F14232510509F43CC0EAC0C9019927CF
:1050700081309105B9F070F082309105D9F0039735
:1050800009F0DEC0EDE4F9E0E4918E2F90E0EDE46C
:10509000F9E038C0E9E8F9E0E4918E2F90E0E9E822
:1050A000F9E030C0E7E7F9E0E4918E2F90E0E7E720
:1050B000F9E028C0EBE6F9E0E4918E2F90E0EBE612
:1050C000F9E020C08330910508F0BAC0880F991F1D
:1050D000FC01EF5AFD4F0190F081E02D89E090E056
:1050E00014C08330910508F0ABC0FC01EE0FFF1F28
:1050F000E55BFD4F0190F081E02DDC01A85BBD4F29
:105100008C9190E0009709F49BC02091E800277FE4
:105110002093E8002091590630915A062817390744
:1051200008F4C90140E0009789F120915B06222331
:1051300009F43DC02530D9F12091E80023FD37C0A6
:105140002091E80022FD2FC02091E80020FFEBCF46
:105150004091F3002091F20030E0342B009759F099
:105160002830310540F444914093F1003196019785
:105170002F5F3F4FF3CF41E02830310509F040E089
:105180002091E8002E772093E800CDCF4111CDCFBC
:105190000AC080915B06882351F0853041F08091F0
:1051A000E80083FD04C08091E80082FFF2CF809187
:1051B000E8008B778093E80043C0803809F040C056
:1051C0008091E800877F8093E80080915206809369
:1051D000F1008091E8008E77C7CE811131C08091B7
:1051E0005506909156069927029754F58091E8004C
:1051F000877F8093E80010915506109352060E9415
:10520000FC2D111106C08091E30087FD02C081E0F2
:1052100001C084E080935B0642E061EC81E00E9483
:105220001B2E42E261EC84E00E941B2E42E261EC04
:1052300082E00E941B2E42E260EC83E00E941B2E63
:105240008091E80083FF10C08091E800877F809301
:10525000E8008091EB0080628093EB0005C082E162
:1052600090E0EBE3F9E051CFAA960FB6F894DEBFD9
:105270000FBECDBFDF91CF911F9108951F920F9266
:105280000FB60F9211242F933F934F935F936F9319
:105290007F938F939F93AF93BF93CF93DF93EF93BE
:1052A000FF93C091E900CF708091EC00D82FD170AE
:1052B00080FDD0E81092E9008091F000877F809314
:1052C000F00078940E9460261092E9008091F0002E
:1052D00088608093F000CD2BCF70C093E900FF91E0
:1052E000EF91DF91CF91BF91AF919F918F917F917E
:1052F0006F915F914F913F912F910F900FBE0F9043
:105300001F901895E8EDF0E080818E7F80831092E9
:10531000E2001092DA001092E100A0EEB0E08C9171
:1053200081608C9380818F77808319BCA7EDB0E07A
:105330008C918E7F8C9380818F7E808310922D063E
:105340000895CF92DF92EF92FF920F931F93CF9326
:10535000DF93C8EDD0E088818F7E8883E7EDF0E0B1
:1053600080818160808384E082BF81E080932D060C
:1053700088818E7F888302EE10E0F80110821092FF
:10538000DA0081EEC82ED12CF601108288818F7749
:10539000888388818068888388818F7D888319BC11
:1053A00010925B061092520610925106109250060F
:1053B00090EEE92EF12CF70180818B7F808388812C
:1053C0008160888342E060E080E00E941B2EF6014D
:1053D00080818E7F8083F8018081816080838081DD
:1053E00088608083F70180818E7F808388818061DF
:1053F0008883DF91CF911F910F91FF90EF90DF9005
:10540000CF9008951F920F920FB60F9211242F93F1
:105410003F934F935F936F937F938F939F93AF933C
:10542000BF93EF93FF938091E10082FF09C08091C9
:10543000E20082FF05C08091E1008B7F8093E10054
:105440008091DA0080FF2AC08091D80080FF26C0BA
:105450008091DA008E7F8093DA008091D90080FFFE
:1054600018C080E189BD82E189BD09B400FEFDCF8D
:1054700081E080935B0680912D0681110FC00E9410
:1054800082290E94A1298091E20084608093E20039
:1054900005C019BC10925B0610922D068091E100A8
:1054A00080FF17C08091E20080FF13C08091E2006E
:1054B0008E7F8093E2008091E20080618093E20021
:1054C0008091D80080628093D80019BC85E08093D9
:1054D0005B068091E10084FF2EC08091E20084FF92
:1054E0002AC080E189BD82E189BD09B400FEFDCFFB
:1054F0008091D8008F7D8093D8008091E1008F7ECD
:105500008093E1008091E2008F7E8093E2008091A1
:10551000E20081608093E20080915206882311F0BE
:1055200084E007C08091E30087FD02C081E001C0F4
:1055300083E080935B068091E10083FF27C0809128
:10554000E20083FF23C08091E100877F8093E10028
:1055500082E080935B06109252068091E1008E7F7C
:105560008093E1008091E2008E7F8093E200809141
:10557000E20080618093E20042E060E080E00E940F
:105580001B2E8091F00088608093F000FF91EF91D6
:10559000BF91AF919F918F917F916F915F914F914B
:1055A0003F912F910F900FBE0F901F901895209153
:1055B000E4003091E50095E64091EC00842F817085
:1055C00040FF23C08091E80080FD1DC080915B06F4
:1055D000882399F0853099F08091EB0085FD11C00A
:1055E0004091E4005091E5002417350729F39150CC
:1055F00011F09A01E1CF84E0089582E0089583E0FC
:10560000089581E0089580E008954091E80042FF08
:10561000DDCF08950F931F938091650690916606E4
:10562000A0916706B09168068C019D010670112754
:1056300022273327BC01CD01063011052105310594
:1056400011F4686001C0677F1F910F910C940D18D1
:1056500090916006937089F0811102C0946007C038
:10566000863110F0946503C0880F880F982B9093B3
:105670006006109214010C94912008956F927F920D
:105680008F929F92AF92BF92CF92DF92EF920F9341
:105690001F93CF93DF933C01C0911101CC0FCC0F2E
:1056A000D4E0DC0FD43408F0D3E46091640666954E
:1056B00080915C0690915D060E94FF21182FCD1706
:1056C00008F044C08C2E912CF401E85DFC4F9081D1
:1056D000809112018923C1F1F401EE0FFF1FEE55F5
:1056E000FD4FC080D12C80E7C81AD108F401EE0F1D
:1056F000FF1FED55FD4FA080B12CE0E2AE1AB108BE
:10570000CC9C9001CD9C300D300D1124AA9CC00181
:10571000AB9C900D900D1124820F931F0E94CE21FF
:10572000082F609161067091620680916306E12EF8
:105730009501A601F30109950E940922462F282F01
:10574000672FC4010E942720CF5FB9CF81E0D334F7
:1057500008F080E0DF91CF911F910F91EF90DF90E3
:10576000CF90BF90AF909F908F907F906F90089553
:10577000CF92DF92EF92FF920F931F93CF93DF931D
:105780006C01C0911101CC0FCC0FD4E0DC0FD434EC
:1057900008F0D3E460916406669580915C06909170
:1057A0005D060E94FF21182FCD1778F5EC2EF12C05
:1057B000F701E85DFC4F908180911201892319F176
:1057C000F701EE0FFF1FED55FD4F208130E0205215
:1057D0003109F701EE0FFF1FEE55FD4F408150E0FC
:1057E000405751096091610670916206809163068D
:1057F000012FF60109950E940922462F282F672FB5
:10580000C7010E942720CF5FCFCF81E0D33408F0BB
:1058100080E0DF91CF911F910F91FF90EF90DF908B
:10582000CF900895DF92EF92FF920F931F93CF9343
:10583000DF937C01C0911101CC0FCC0FD4E0DC0FC1
:10584000D43408F0D3E4609164066695669580913F
:105850005C0690915D060E94FF21D82ECD17F0F4D2
:105860000C2F10E0F801E85DFC4F9081809112014F
:10587000892391F0609161067091620680916306C0
:105880002D2D4C2FF70109950E940922462F282F14
:10589000672FC8010E942720CF5FE0CF81E0D3347B
:1058A00008F080E0DF91CF911F910F91FF90EF9072
:1058B000DF9008959F92AF92BF92CF92DF92EF92C6
:1058C000FF920F931F93CF93DF936C01C09111014F
:1058D000CC0FCC0FD4E0DC0FD43408F0D3E46091CB
:1058E00064066695669580915C0690915D060E94BF
:1058F000FF21182F80E4810F0E94AD2190E8F92E3E
:10590000F80E812F0E94AD2120E8922E980ECD171F
:1059100000F5AC2EB12CF501E85DFC4F9081809133
:1059200012018923A1F06091610670916206809155
:105930006306E12E0C2F292D4F2DF60109950E94AB
:105940000922462F282F672FC5010E942720CF5FED
:10595000DECF81E0D33408F080E0DF91CF911F915A
:105960000F91FF90EF90DF90CF90BF90AF909F90FE
:10597000089590916006937041F080936106609362
:105980006206409363060C9491200895EF92FF9273
:105990000F931F93CF93DF937C018B010E94D72A33
:1059A000811119C0E70101151105A1F08091E800EE
:1059B00085FD0AC08091E8008E778093E8000E9400
:1059C000D72A882381F307C089918093F100015081
:1059D0001109E9CF80E0DF91CF911F910F91FF90E6
:1059E000EF900895CF9320915B062430F9F4C09195
:1059F000E900CF703091EC00232F217030FD20E8BA
:105A0000C22B22E02093E9002091E80020FF0BC088
:105A100040E050E060E270E00E94C62C8091E80017
:105A20008E778093E800CF70C093E900CF910895FE
:105A3000882341F080959091C20489238093C20409
:105A40000C94DD160895882339F09091C204892BB7
:105A50008093C2040C94DD1608958823B1F19CEF65
:105A6000980F913A30F4682F84E394E00E94FF1578
:105A700014C090E2980F983090F4877021E030E0E5
:105A8000A90102C0440F551F8A95E2F7CA0180950B
:105A90009091C20489238093C2040C94DD169BE587
:105AA000980F933020F480E090E00C94251F98E547
:105AB000980F973120F480E090E00C940F1F803F06
:105AC00020F00E9499220C946E250895CF9388238C
:105AD00009F472C0C82F8CEF8C0F813AC0F5809109
