:100000000C9430040C9477040C9477040C947704CB
:100010000C9477040C9477040C9477040C94770474
:100020000C9477040C9477040C941F2C0C945B2B89
:100030000C94F31D0C9477040C9477040C947704BF
:100040000C9477040C9477040C9477040C94770444
:100050000C9477040C94A61D0C9477040C947704EC
:100060000C9477040C9477040C9477040C94770424
:100070000C9477040C9477040C9477040C94770414
:100080000C9477040C9477040C9477040C94770404
:100090000C9477040C9477040C9477040C947704F4
:1000A0000C9477040C9477040C9477040C081508CE
:1000B00046088808C7080F0959095C0961096409DD
:1000C00069096C097109740977097A097D09800940
:1000D0008309860989098C098F099409CF090E0AB9
:1000E000B10A400B430B480B530B560B610B640BCF
:1000F0006F0B730BB00EC80ECF0E740F740F070F7B
:10010000170F2A0F6D0FD212DD12E212E712EC1256
:10011000F112F612FB12001305130A131113131335
:1001200015131713F210F210F210F210F2107813E8
:100130007813B213B21305142114B015B0152E1490
:100140000B1518151815BC1FBC1FCF1FCF1FC51FBF
:10015000CF1FCF1FCF1FBC1FBC1FCA1FCF1FCF1F5A
:10016000CA1F63298A293D2B8A293D2BD629F929C3
:100170003D2BFA2A0A2BFD377A585A000004E6D69E
:10018000B4460200210116000000742FE5A3E0052B
:1001900006019B5D003D8889C65436C3174FE4DCD9
:1001A00027A10A683949BBF9398D706A7CC17B3453
:1001B0008329198450D62B0CFCD6E2E5B852470BA4
:1001C0001AAB140E636787F50A8CF28EE0C6A4B0F2
:1001D00009EFC238425B4D08AAF47152DABDB22170
:1001E0001CD64E9AF1FB98D60254803917BCCE0E1D
:1001F000A9E084901C4B7BB3F205ABA0DB82DFD778
:10020000BB684DA0173DF2FDD0E98A5C8334625093
:10021000BFC09BFE04D051256EA53B4AEDB291852F
:10022000E214BD717EBF598F4E4C33E90141747A9F
:10023000C31475F661177F17D38DA4E621970DFBC4
:1002400017F547532B0A65338DB73F5774B7EE86C2
:10025000FC016380D15021A840C882CE18368E039D
:10026000D4FE6DBD3404ACD550099032905E1EAE04
:1002700013E028AF054CD9715BD156AB2806116B42
:1002800028E86E2F393A80FE44EB2AA50DD3B869D1
:10029000B409C89273F8B20ACE4E1E94925700E386
:1002A000C6E3FB14B8425BF0407DFF3BB067E6DF7E
:1002B00071E678E5028363FE0464C8180022C22454
:1002C000B6DC0D4F60DC9B1507BE4B74D1F186B9CF
:1002D000E6B6CE70A97DD564403A4AD59A4C3BCF5C
:1002E000F6F16F02949876DDC5D4A6460B92CE79CE
:1002F0003FAC47B3184CAACCE672BAA7D43568B95C
:10030000A822CE92267A9C135DE7DBB4C8647840BD
:100310005DE5934AE23165B554D3CA8457A8116CA0
:1003200023251BA9FE04F65AAFDD20588A7B3F0027
:100330000000FE79D65EDD28C87C0001B703870A7D
:100340000000948623FEB1C467FB02000000000495
:10035000595A0000000000000000000000000000EA
:10036000000000000000000000000000000000008D
:100370000000000000007E0F00D4FFFFFFC7000058
:10038000007800000000000000002A2B2800000078
:100390000000000000000000000000000029000034
:1003A00000002C1E3420212224342627252E362D11
:1003B0003738271E1F202122232425263333362EAB
:1003C00037381F0405060708090A0B0C0D0E0F101D
:1003D0001112131415161718191A1B1C1D2F313062
:1003E000232D350405060708090A0B0C0D0E0F1006
:1003F0001112131415161718191A1B1C1D2F313042
:10040000354C290000003A003B003C003D003E0016
:100410003F0040004100000042004300440045000E
:100420004B0035001E001F00200021002200230089
:1004300024002500260027002D002E0000002A00A1
:1004400049002B0014001A000800150017001C00BA
:1004500018000C00120013002F00300031000000C3
:100460004C00390004001600070009000A000B00C8
:100470000D000E000F0033003400000028000000C3
:100480004E00E10064001D001B000600190005007D
:1004900011001000360037003800E500000052005F
:1004A0000000E000E300E2000000000000002C007B
:1004B000000000000000E600015150000000510063
:1004C0004F000100000001000100010001000100D7
:1004D0000100010001000000010001000100010015
:1004E0000100010001000100010001000100010004
:1004F00001000100010001000100010000000100F5
:1005000001000100C35C01000100010001000100C5
:10051000010001000100010001000100005C000079
:1005200001000100010001000100010001000100C3
:10053000010001000100010001000000DE5C00007C
:1005400001000100010001000100010001000100A3
:100550000100010001000100010001000000010094
:100560000000010001000100000000000000010087
:100570000000000000000100010001000000010077
:100580000100000101010101010101010202020259
:10059000020202020203030303030303030404042D
:1005A00004040404050505050506060606060707F6
:1005B00007070708080808090909090A0A0A0B0BAE
:1005C0000B0C0C0C0D0D0D0E0E0E0F0F0F1010114D
:1005D00011111212131314141515161617171818D3
:1005E00019191A1A1B1B1C1D1D1E1E1F202021223B
:1005F00022232424252626272829292A2B2C2D2D81
:100600002E2F30313232333435363738393A3B3C9D
:100610003D3E3F404142434445464748494A4C4D90
:100620004E4F50515354555658595A5B5D5E5F6159
:100630006264656668696B6C6D6F707273757778EC
:100640007A7B7D7E8082838587888A8C8E8F91934A
:100650009596989A9C9EA0A2A3A5A7A9ABADAFB171
:10066000B3B5B7BABCBEC0C2C4C6C9CBCDCFD1D456
:10067000D6D8DBDDDFE2E4E7E9EBEEF0F3F5F8FAFC
:10068000FDFF05010902A10185020901A10005097B
:1006900019012905150025019505750181029501AE
:1006A000750381010501093009311581257F950206
:1006B0007508810609381581257F95017508810621
:1006C000050C0A38021581257F950175088106C041
:1006D000C005010980A101850319012AB700150190
:1006E00026B700950175108100C0050C0901A10114
:1006F000850419012AA002150126A0029501751092
:100700008100C005010906A1018505050719E02939
:10071000E7150025019508750181020507190029D3
:10072000EF1500250195F0750181020508190129D1
:1007300005950575019102950175039101C006604B
:10074000FF0961A1010962150026FF0095207508C7
:1007500081020963150026FF00952075089102C0EB
:1007600005010906A101050719E029E71500250182
:100770009508750181029501750881010507190029
:1007800029FF150026FF0095067508810005081948
:10079000012905950575019102950175039101C027
:1007A00009025B00030100A0FA0904000001030133
:1007B0000100092111010001224000070581030801
:1007C000000A0904010002030000000921110100D0
:1007D00001222200070582032000010705030320F0
:1007E00000010904020001030000000921110100B9
:1007F0000122BC000705840320000A120110010039
:10080000000008424B09000100010203011C0376AD
:1008100000690061006C003A006600360034006335
:1008200000320062003300630000001C03420045F8
:10083000004C004C004100200052004700420020C4
:1008400000490053004F00000010034B00420044D9
:1008500000460041004E005300000004030904005C
:1008600011241FBECFEFDAE0DEBFCDBF04B603FE1A
:1008700027C08091930990919409A0919509B09116
:1008800096098730904BA740B04BD1F41092930952
:1008900010929409109295091092960914BE84B78B
:1008A000877F84BF0FB6F894A89580916000886117
:1008B00080936000109260000FBEE0E0F8E30995BD
:1008C00014E0A0E0B1E0EEE2F8E602C005900D927F
:1008D000AE3EB107D9F729E0AEEEB4E001C01D92FB
:1008E000A339B207E1F70E9479040C9415340C94F3
:1008F0000000CF93DF93CDB7DEB7E7970FB6F8943C
:10090000DEBF0FBECDBF84B7877F84BF0FB6F8941C
:10091000A8958091600088618093600010926000CB
:100920000FBE90E080E80FB6F8948093610090933A
:1009300061000FBE85B7806885BF85B7806885BFB9
:1009400086EE9CE19093EF048093EE040E949F2B2F
:100950000E94BE2B8091E20084608093E200789434
:1009600080915C098823A1F01091E9001F7090919B
:10097000EC00892F817090FD80E8182B1092E9001F
:100980008091E80083FD0E947D281F701093E9008C
:1009900082E084BD93E095BD9AEF97BD80936E0091
:1009A00004E311E06AE3E62E61E0F62ED8018D91B2
:1009B0008D010E94DD25E016F106C1F70AE311E082
:1009C0005AE4E52E51E0F52EF80181918F010E9445
:1009D000DD25E016F106C1F7E0EFF4E08CEF94E0DE
:1009E000A1EBB5E0119211921D921D928E179F07F7
:1009F000C9F70E94AD278FEB9DE50197F1F700C085
:100A000000000E94AD278091B10580FF17C06FEFF5
:100A100082E290E00E9449336FEF83E290E00E940F
:100A200049336FEF84E290E00E9449336FEF7FEF2C
:100A300080E090E00E9467330E94821D80E090E099
:100A40000E9433338B3E9E4F11F00E948A1E0E94FB
:100A50005D1810925D09E6E7F9E086E899E02FEF6E
:100A60003FEF219331938E179F07D9F71092FF0420
:100A7000E8E1F5E088E295E02FEF3FEF2193319335
:100A80008E179F07D9F780E090E00E9433338B3EAA
:100A90009E4F21F00E948A1E0E945F1C45E050E09C
:100AA0006CE170E08AE899E00E941B3380918A092A
:100AB0008C7F11F40E945F1C82E290E00E942B3335
:100AC000853981F483E290E00E942B33813F51F419
:100AD00084E290E00E942B3391E0863009F090E0B0
:100AE000892F01C080E080FD02C00C94820F80E05D
:100AF00090E00E9433338B3E9E4F11F00E948A1E7D
:100B000082E090E00E942B338093A4050E94791E1E
:100B10009093FD048093FC0483E090E00E942B33CB
:100B2000682F70E080E090E00E94932086E091E0E2
:100B300090939105809390058E010F5F1F4F2801C0
:100B400040ED242E312C80915C09853009F06FC076
:100B500080915C09853009F064C080915C09843023
:100B600061F140E060E080E00E94C51B81E080937D
:100B700096051092FE0420E488E190E00FB6F89408
:100B8000A895809360000FBE2093600083B7817F9B
:100B9000846083BF83B7816083BF7894889583B76F
:100BA0008E7F83BF0FB6F894A8958091600088610E
:100BB00080936000109260000FBE809152098823DC
:100BC00081F10E94AD278DEB95E0E1EBF5E02191FD
:100BD0003191232B21F48E179F07C9F722C080E1A2
:100BE00089BD82E189BD09B400FEFDCF8091D800A6
:100BF0008F7D8093D8008091E00082608093E00038
:100C00008091E00081FDFCCF0E94C2221FEF23E211
:100C100034EF115020403040E1F700C000000E9446
:100C2000C2220E94C2220E94DB1A109296050E94E4
:100C3000AD2781110E94DB1DA5EAB5E0E1EBF5E0EF
:100C400000E010E0E02EA190B1908D919D918A2559
:100C50009B25009709F435C1F12CCC24C394D12CE9
:100C60009C012C213D21232B09F425C1F9A6EAA6DC
:100C7000AC20BD2081E0A114B10409F480E08BA771
:100C80000E94E71D8160782F9DA78CA749A55AA5D2
:100C90006BA58DA50E94111AF801EE0FFF1FEB55F1
:100CA000FA4F80819181C826D926D182C082AB2893
:100CB00039F0A2016F2D8E2D0E94311C982E01C09B
:100CC000912C8090FF04C92CD12CC601880D911D58
:100CD000099764F188E090E05C01AC18BD08B601AA
:100CE00060507B4FA50180E095E00E940534B6017D
:100CF000685F7A4FA50188E095E00E940534A50160
:100D0000440F551FB601660F771F685E7A4F88E162
:100D100095E00E940534B601605F7A4FA50180E13D
:100D200095E00E9405348A948092FF04D090FF04DD
:100D3000B20140E0842F8D0D941609F190E0DB01A3
:100D40005D91BD01252F30E0FC01E150FB4FD90141
:100D5000AA0FBB1FAB58BC4FAC91A183220F331F0E
:100D6000D901AA58BC4F2C912187518B880F991F0C
:100D7000FC01E150FB4F128E118E4F5FDBCF809351
:100D8000FF0480918A098C7F843609F0B0C08FEF10
:100D90008E0D21E02E0D6FEF6F0D91E09F0DB4E0F1
:100DA000000F111FBA95E1F76F1558F4F801E05DD7
:100DB000FA4FE60FF11D308140E1340F08F43FEFA8
:100DC00030834F2D50E0005D1A4FF801E40FF51FFE
:100DD000308170E2370F08F43FEF3083903149F0F3
:100DE000F801E90FF11D308170E1370F08F43FEF92
:100DF0003083263071F130E06F1580F4F901A4E002
:100E0000EE0FFF1FAA95E1F7E05DFA4FE60FF11D27
:100E100070811DE0710F08F47FEF7083E4E0220F12
:100E2000331FEA95E1F7205D3A4FF901E40FF51F12
:100E3000708110E1710F08F47FEF7083903149F0F9
:100E4000F901E90FF11D20813DE0230F08F42FEF98
:100E500020838E1508F04BC0E82FF0E06F1580F46A
:100E6000DF0174E0AA0FBB1F7A95E1F7A05DBA4FCE
:100E7000A60FB11D2C913DE0230F08F42FEF2C930A
:100E800064E0EE0FFF1F6A95E1F7E05DFA4FDF01C6
:100E9000A40FB51F2C9130E1230F08F42FEF2C93F2
:100EA000903129F1E90FF11D20813DE0230F08F475
:100EB0002FEF20831CC0F394CC0CDD1C20E1F21238
:100EC000CFCE0F5F1F4F0630110509F0BBCE8FEF5D
:100ED0008EA78FA718AA0E94E71D8160782F9AAB72
:100EE00089AB4EA55FA568A98AA90E94111A8091B5
:100EF000280590912905A0912A05B0912B052FB7BF
:100F0000F894C0909205D0909305E0909405F090ED
:100F100095052FBFC81AD90AEA0AFB0A0E94DB1DF1
:100F2000609328057093290580932A0590932B05DB
:100F3000A091FF04EFEFF4E07A2EB0E088248A94C9
:100F4000982CA12CB12C8C189D08AE08BF08AB17AB
:100F500099F0418D528D8A0120E030E08016910693
:100F6000A206B30610F47A9404C04C0D5D1D528F96
:100F7000418FBF5F3296EBCF7092FF0420919605B0
:100F8000211108C010918A09212F237019F016959C
:100F9000169501C010E0209128012130E9F038F0C9
:100FA000223009F4C9C3233009F4E1C3FDC3109210
:100FB000250160938609709387098093880990932F
:100FC000890989E2EFEFF4E0ADE5B9E001900D9217
:100FD0008A95E1F781E0BAC38091050118130DC02D
:100FE00020918A09237030E04091040150E081E0B3
:100FF0002417350719F480E001C081E081708093E7
:101000002701412F50E04432510508F079C3FA011D
:10101000EA5AFF4F0C94F833882309F471C340E077
:1010200060E080E00E94C51B6BC300912501000FAA
:10103000000F24E0F22EF00E2DE62F1510F49DE6A1
:10104000F92E60918B0970918C0980918D090E9415
:101050001E24E62ED72EC82E0F1590F4E02FF0E0B8
:10106000DF01A15BBB4F8C9190912601982331F059
:101070002C2D4E2D6D2DCF010E94C71B0F5FECCF85
:1010800081E03CE63F1508F03CC33AC300912501DE
:10109000000F000F84E0F82EF00E4DE64F1510F40F
:1010A000BDE6FB2ED0908C09E0908D09C0908B0995
:1010B000B6018E2D0E941E24B62EA72E982E60916A
:1010C0008E096C0D7D2D8E2D0E941E24E62ED72EAE
:1010D000C82E0F15B8F4802F90E0FC01E15BFB4FA8
:1010E000308120912601232359F030FF04C02C2D9C
:1010F0004E2D6D2D03C0292D4B2D6A2D0E94C71B2F
:101100000F5FE7CF81E05CE65F1508F0FAC2F8C236
:1011100000912501000F000FA4E0DA2ED00E8DE61D
:101120008D1510F4FDE6DF2EB0908C09A0908D098E
:1011300020918E09E0E4CE2E3C2D329F312D1124DA
:10114000C32E0D1508F065C0E02EF12CF701E15B10
:10115000FB4F9081809126018923B9F0F701EE0FB2
:10116000FF1FEA58FC4F808182958F7060918B0938
:101170008C9D600D11247B2D8A2D0E941E24462FEC
:10118000282F672FC7010E94C71B0F5FDACF00917E
:101190002501000F000F64E0D62ED00E5DE65D1530
:1011A00010F45DE6D52EB0908C09A0908D092091A9
:1011B0008E0940E4C42E3C2D329F312D1124C32EC4
:1011C0000D1538F5E02EF12CF701E15BFB4F908116
:1011D000809126018923D9F0F701EE0FFF1FEB580C
:1011E000FC4F6081C69EB001112435E0759567956E
:1011F0003A95E1F780918B09680F7B2D8A2D0E942B
:101200001E24462F282F672FC7010E94C71B0F5F80
:10121000D7CF81E04CE64D1508F073C271C2009142
:101220002501000F000F94E0F92EF00E5DE65F152A
:1012300010F48DE6F82ED0908B09E0908C09C090C8
:101240008D0960918E0966956695669580918609EF
:10125000909187090E9414240E94C223805887FD20
:101260008195880F282F3C2D239F212D1124822F1B
:101270006D2D7E2D0E941E24E62ED72EC82E0F1512
:1012800090F4E02FF0E0DF01A15BBB4F8C919091D7
:101290002601982331F02C2D4E2D6D2DCF010E946B
:1012A000C71B0F5FECCF81E04CE64F1508F029C259
:1012B00027C283E093E202C087ED92E20E942F2EC4
:1012C00020C284EA93E202C089EC99E10E94D52D04
:1012D00018C28EEA99E102C082E999E10E945B2D71
:1012E00010C28EEF97E1EACF85EF97E1E7CF8CEE62
:1012F00097E1E4CF81ED97E1E1CF82EC97E1EECF8A
:1013000088EE99E1E3CF81E899E1E0CF8DE699E1BC
:10131000E5CF84E997E105C082E697E102C084E267
:1013200097E10E94772EEDC181111EC060918E0958
:1013300020E1620F08F46FEF809186099091870990
:101340000E9414246AE070E00E94D033892B09F0D7
:10135000D7C10E9402336DE670E00E94E4336091D1
:1013600026010E94EB1BCCC1E09025018E2D880F39
:10137000880F04E0080F0E3608F00DE6E82EF12C79
:10138000C02ED12CEC14FD040CF043C0609126015A
:10139000C7010E94EB1B5FEFE51AF50AF3CF81113D
:1013A0001EC060918E0920E1620F08F46FEF8091FA
:1013B0008609909187090E94142465E070E00E94DC
:1013C000D033892B09F09CC10E9402336DE670E096
:1013D0000E94E433609126010E94C91B91C1E090F4
:1013E00025018E2D880F880F04E0080F0E3608F0B7
:1013F0000DE6E82EF12CC02ED12CEC14FD044CF49B
:1014000060912601C7010E94C91B8FEFE81AF80AF4
:10141000F4CF81E00D3608F474C172C1E09025016B
:101420000E2D000F000F94E0900F9BAB913610F043
:10143000A0E6ABAB882361F040E060E080E00E9472
:10144000C51B80E6E0E3F5E0DF011D928A95E9F730
:1014500080912501811115C080912D0590912E0557
:101460000E94CC1D21E08931910508F420E02093F1
:101470002C05499730F00E94E71D90932E0580932C
:101480002D05E02EF12C0BA9602E712CE614F7042B
:101490000CF061C0C70166E070E00E94E4336B01AC
:1014A0004C0104E0880C991C0A95E1F7F401E05D19
:1014B000FA4FE60FF71F0081A2010E94311C8FAB8B
:1014C00052018A2D8419EFA98E1708F031C0D50179
:1014D000EC91F0E0E15BFB4F908180912601892344
:1014E00019F1302F25E5321B08F430E070918C099A
:1014F0002AEA200F08F42FEF40918D0952E0259F32
:10150000200D11242E5F249F212D11246AEA631BD4
:10151000822F0E941E24462FD5019C91282F672FD1
:10152000892F90E00E94C71BBFEFAB1ABB0AC9CF3F
:1015300080912C05882359F021E0021B08F400E07B
:10154000C401805D9A4FFC01EC0DFD1D00833FEF4F
:10155000E31AF30A9BCF81E00BA9003608F4D1C04F
:10156000CFC0882371F040E060E080E00E94C51B9E
:1015700080E6E0E3F5E0DF011D928A95E9F710923D
:101580002F05A0E3CA2EA5E0DA2EB12CAA24AA9436
:10159000B0EC9B2E760100E001110CC080912F056C
:1015A000811108C00E940233853595401CF4F60174
:1015B000A08206C0D7018C9181508E3F08F48C9395
:1015C000A2016B2D802F0E94311C882311F1F7019D
:1015D00040813981413D78F050E0405D5109949E51
:1015E000C001959E900D11246FE270E00E94D033EF
:1015F000262F4FEF0AC0FFEF4F9FC0011124B1010A
:101600000E94D033462F20E060E0832F90E00E94BC
:10161000C71B0F5F20E1E20EF11C063009F0BCCFC2
:10162000B3943FEFC31AD30A40E1B412B3CF809111
:101630002F058F5F8D3118F480932F0561C01092B4
:101640002F0520E735E085E09EEFA0E8B5E0F90141
:10165000853021F44C914F3F09F49C9340814F3FDA
:1016600011F49083408B3196119640E955E04A176A
:101670005B0771F78150205131098111E6CF40C0DD
:101680008DE197E102C087E197E10E94D62E39C033
:1016900080915D0921E0582F521B08F450E0852FFE
:1016A0006EEF76E12AC06EEF76E11BC080915D0996
:1016B00021E0082F021B08F400E0802F66EC76E1A1
:1016C0001CC066EC76E10DC080915D0921E0382FE9
:1016D000321B08F430E0832F64E976E10EC064E940
:1016E00076E180E00AC080915D0921E0482F421B2D
:1016F00008F440E0842F6EE776E10E94402F01C09D
:1017000080E0909125019F5F90932501811121C078
:1017100082E0809328018091270181111AC0112352
:10172000A1F0E0919005F09191053097A9F001901A
:10173000F081E02D099511C01093050180918A096F
:101740008370809304010E94001883E08093280135
:101750002BC0112349F1E5CF80E081FF25C02FEF99
:101760004FEF6FEF8CE290E00E94C71B1DC04091CD
:1017700086095091870960918809709189092FB76E
:10178000F8948091920590919305A0919405B09161
:1017900095052FBF841B950BA60BB70B4A97A10588
:1017A000B10510F01092280186E0EDE9F5E0D201D4
:1017B00001900D928A95E1F700919F05E090A005B8
:1017C0001091A105F090A20510929F051092A0051E
:1017D0001092A1051092A205011103C0EE2009F498
:1017E00051C080919B0590919C050E94CC1D9C014D
:1017F00090919A05992309F49FC32333310508F486
:1018000041C09F3F19F09F5F90939A05002361F0BC
:101810000E945525101614F491E001C09FEF899F96
:10182000802D112480939F05EE2061F00E945525A4
:101830001E1414F491E001C09FEF899F802D1124A4
:101840008093A00530919F053323E1F02091A005FE
:101850002223C1F055EB3503C0011124992319F05F
:1018600090939F0503C081E080939F0535EB230390
:10187000C0011124992319F09093A00503C081E0C1
:101880008093A005111103C0FF2009F451C080917D
:101890009805909199050E94CC1D9C019091970507
:1018A000992309F44EC32536310508F441C09F3F02
:1018B00019F09F5F90939705112361F00E943325E3
:1018C000111614F491E001C09FEF899F802D11241F
:1018D0008093A105FF2061F00E9433251F1414F4AA
:1018E00091E001C09FEF899F802D11248093A20574
:1018F0003091A1053323E1F02091A2052223C1F00C
:1019000045EB3403C0011124992319F09093A105EC
:1019100003C081E08093A10555EB2503C00111248C
:10192000992319F09093A20503C081E08093A2054A
:1019300080919F0581110BC08091A005811107C086
:101940008091A105811103C08091A20581110E949F
:1019500083270B83EC821D83FE8286E0F201ADE9D2
:10196000B5E001900D928A95E1F70E94DB1A909103
:10197000A305891721F00E94DB1A8093A3058091AB
:101980005C09843009F0DFC883E08093E90080912E
:10199000E80082FFD8C88091E80085FF21C00E943E
:1019A000F42C81111BC0F0E2EF2EF12C820109C052
:1019B0008091F100D8018D938D01B1E0EB1AF1080F
:1019C00069F08091E80085FDF3CF8091E8008B7786
:1019D0008093E8000E94F42C882399F391E001C0E1
:1019E00090E08091E8008B778093E800992309F4D8
:1019F000AAC80091C3051091C4058981011511057C
:101A000061F08E3F09F070C28A81833008F49CC176
:101A10008550833008F068C297C18B3009F47EC1CD
:101A200008F5853009F459C0A8F48230B1F130F4DA
:101A3000813009F057C21A8289E04DC28330F1F13A
:101A4000843009F04FC24C816B818A810E947E1BD9
:101A50009D8356C2873009F445C208F043C20E94F4
:101A60002D1B42C2803109F49FC058F48D3009F417
:101A700041C0F0F18E3009F441C08F3009F467C0E5
:101A800031C2823109F496C008F491C0833109F45F
:101A9000B9C08E3F09F458C125C28A81823009F449
:101AA00028C2833009F420C2813009F01BC20E9491
:101AB000DB1D9B838C837D836E8316C28A8182307B
:101AC00009F010C26B817C818D819E810E94FE3362
:101AD00085E290E00E94493307C22D813E81322782
:101AE000232732274C816B818A810E94F71AFCC11F
:101AF00080E15EC082E08A838AE5EDC10A811B81B4
:101B0000102701271027CC80D12CEDE1CE16D1046F
:101B100008F0EAC17201C8018A559E4F9701241945
:101B200035092C153D0508F0DFC10A35F2E01F0725
:101B300030F40E942B33D70114968C9302C0F70126
:101B400014820F5F1F4FFFEFEF1AFF0AE4CF80915F
:101B5000C1059091C205892B09F4C6C10A811B8178
:101B6000102701271027EC80F12C2DE1E216F1045B
:101B700008F0BAC16201C8018A559E4F9601241926
:101B800035092E153F0508F0AFC10A3532E01307BD
:101B900028F4D60114966C910E9449330F5F1F4FB1
:101BA000BFEFCB1ADB0AE7CF0E94E71A9DC182E0A4
:101BB0008A839AC10A811B81102701271027CC80B4
:101BC000D12CEDE1CE16D10408F08EC17201C8010E
:101BD00086969701241935092C153D0508F084C116
:101BE0000038F1E01F0730F40E942B33D701149620
:101BF0008C9302C0F70114820F5F1F4FFFEFEF1AA3
:101C0000FF0AE5CF0A811B81102701271027CC800E
:101C1000D12C2DE1C216D10408F066C1480136E28C
:101C2000830E911C003841E0140708F05DC180E884
:101C300091E0801B910B8C159D0508F455C1809196
:101C4000C1059091C205892B11F072015EC000FFA1
:101C50000FC0C80185960E942B3390E0982F8827EB
:101C60002D81822B81159C4531F48FEF8D8303C02C
:101C7000E12CF12C03C0EE24E394F12CC601800F7B
:101C8000911F560180FF1BC081E0A81AB10855E0E2
:101C9000652E712C6C0E7D1E6A0C7B1CC4018C0D94
:101CA0009D1D0E942B33D3012C9130E0322F22272F
:101CB000282B21153C4519F48FEFF3018083F201A5
:101CC000EE0DFF1D2FEFCF01841995098A159B0595
:101CD00008F0BBCF848190E0982F88273581832B33
:101CE00081159C4511F4248325833296ECCF00386E
:101CF00041E0140728F4D70114966C910E944933EF
:101D00000F5F1F4FBFEFEB1AFB0AC80186969701C2
:101D1000241935092C153D0550F3E6C08091C10505
:101D20009091C205892B09F4DFC0C2010E944630A0
:101D3000EFEFF1EE04E0E150F0400040E1F700C0C9
:101D400000000E94821DD0C0EA818E2F90E0893071
:101D5000910508F0C9C0FC01E658FF4F0C94F83318
:101D600088E0E9E2F1E0DE01919601900D928A951A
:101D7000E1F781E089831A821B821C8288E0FE01E0
:101D8000B196DE01159601900D928A95E1F7ACC0EF
:101D90008CED898381E08A831B821C82A5C08C81A3
:101DA00090E0982F88272B81820F911D092E000C1F
:101DB000AA0BBB0B35E0880F991FAA1FBB1F3A95D2
:101DC000D1F7AC01BD01405E5F4F6F4F7F4F4817A9
:101DD00059076A077B0708F487C08C3D11E091071B
:101DE000A105B10508F080C04D3D21E05207610515
:101DF000710520F04CED51E060E070E0481B590B9C
:101E0000BC016A587E4FC2010E9412336DC040E28D
:101E100050E06FEF70E0C2010E940E348091C10566
:101E200089830A831B821C821D8281E069C081E054
:101E300090E09093C4058093C30582E390E0909373
:101E4000C0058093BF050E94E71D9093BE05809357
:101E5000BD054AC0012BB9F18091B1059091B20541
:101E60009C01369527958170182F12238091BD050E
:101E70009091BE050E94CC1D85369105F0F011238E
:101E8000E1F00E94E71D9093BE058093BD0580910F
:101E9000BF059091C00501979093C0058093BF0541
:101EA000892B89F41092C4051092C30581E090E05B
:101EB0009093C2058093C10506C082E390E09093A1
:101EC000C0058093BF058091C10589838091C305BA
:101ED0008A838091BF058B8307C01092C205109240
:101EE000C10502C08FEF8983C2010E9446300C9465
:101EF000A30585E290E00E942B331B821C821D8289
:101F00008E83F2CF60E085E290E00E9449330E9428
:101F10002D1B0E94E71A65E982E290E00E94493396
:101F200061EF83E290E00E94493366E084E290E052
:101F30000E9449330C9477052D32314008F063CC70
:101F4000A1CC2D32314008F0B4CCF2CC3F924F926C
:101F50005F926F927F928F929F92AF92BF92CF9239
:101F6000DF92EF92FF920F931F93CF93DF93CDB742
:101F7000DEB729970FB6F894DEBF0FBECDBFFC01C8
:101F80008081918123813481232B31F09F3F31F473
:101F900091E08F3F19F403C091E001C090E090FD03
:101FA0001CC67F0185E0DE01119601900D928A9595
:101FB000E1F7F701228189819A81222349F00E9469
:101FC0005D1F182F682F89819A810E94FF1F03C00F
:101FD0000E94D31F182F69817A81812F0E94AC1B28
:101FE0008C01F7019281992309F4F2C098012251E2
:101FF0003F452031310508F019C18FEF93E00E9471
:102000002B338111EFC0025136EA832E9924939429
:10201000002379F08114F4E09F0609F4E3C0C401C1
:102020000E942B33811101C001501FEF811A910AC8
:10203000EFCF1E821F8218861986442443942AE01B
:10204000322E84010F5F1F4FC4010E942B338E83F9
:102050001F82882309F4C6C09FEF980F933060F465
:102060008F834E8222E0820E911CC8010E942B3386
:102070008887811102C0B6C048018E010A5F1F4FD8
:10208000F80120812223E9F2213009F04CC081813E
:10209000813049F46801F2E0CF0ED11CF801828151
:1020A0000E9432310AC0823051F46801F2E0CF0E52
:1020B000D11CF80182810E94BA30860186C083302B
:1020C00049F46801F2E0CF0ED11CF80182810E9430
:1020D0008130F3CF843019F00F5F1F4F76C0F801C5
:1020E00022810E5F1F4F80E090E030E020533109E5
:1020F0002A30310568F4389EA001399E500D112414
:10210000C901840F951F0F5F1F4FF8012081EDCF8C
:10211000009709F45AC0EFE9FFE03197F1F700C0EA
:1021200000000197F5CFE22FF0E0EE57FC4F5490FE
:10213000822F86958695869590E0FC01EE58FC4F9F
:1021400064902770712C022E02C0759467940A94D3
:10215000E2F7F1E06F227724FC01EE59FC4FA490E6
:10216000B12C022E02C0B594A7940A94E2F731E094
:10217000A322BB24FC01EE5AFC4FC490D12C02C018
:10218000D594C7942A95E2F781E0C822DD24611432
:10219000710419F081EE0E94BA30A114B10419F053
:1021A00086EE0E94BA30852D0E943231AB2819F09C
:1021B00086EE0E948130672819F081EE0E948130FE
:1021C000CD2819F08CE20E9432310F5F1F4F58CF9B
:1021D00000313FE5130709F0F7C481E00E94342085
:1021E0000E94272D80912209877009F4F6C4F70117
:1021F0008281882309F4F1C482E029960FB6F8940D
:10220000DEBF0FBECDBFDF91CF911F910F91FF9029
:10221000EF90DF90CF90BF90AF909F908F907F9086
:102220006F905F904F903F900C9459200031FFE5E4
:102230001F0711F481E005C001312FE5120721F4D9
:1022400082E00E947220CCCF033FFCE51F0749F4D7
:1022500006E221EE40EE63EF7CE5C7010E94701CB0
:10226000C1CF043F2CE5120708F04AC1083D3CE508
:10227000130731F407E225EE45EE68ED7CE5EDCF7E
:10228000093D8CE5180731F408E221E045EE69EDDF
:102290007CE5E3CF073DECE51E0731F406E221EED5
:1022A00041EE67ED7CE5D9CF992309F45EC1109228
:1022B000C5050230ECE51E0708F441C10631FCE516
:1022C0001F0738F098012A5F3C452930310508F096
:1022D00036C10E94791E9093FD048093FC04003166
:1022E0002CE5120709F4C3C008F041C008308CE5A2
:1022F000180709F49AC0F0F40430ECE51E0709F45D
:1023000087C068F402302CE5120709F477C0033067
:102310001C4509F0E5C08091FC04826076C006305F
:102320008CE5180709F46EC008F07BC08091FC04AE
:1023300088606BC00C30ECE51E0709F485C068F4BA
:102340000A302CE5120709F474C008F079C00E9425
:10235000C2228091FC04806858C00E308CE51807BA
:1023600009F476C008F07FC08091FC048BC00B3F5D
:10237000ECE51E0709F44FC018F503312CE51207F0
:1023800009F47DC078F401318CE5180709F473C0B5
:1023900002311C4509F0A4C00E94C2228091FC04B5
:1023A0008F7733C00531ECE51E0709F472C008F4DD
:1023B00086C00A3F1C4509F093C08091FD043EC0D1
:1023C0000F3F3CE5130709F45FC058F40D3F9CE54F
:1023D000190709F444C008F43FC08091FD048260ED
:1023E0002DC00130FDE51F0709F475C008F45DC07C
:1023F00002301D4509F074C060E06EC08091FC049D
:10240000816003C08091FC0480618093FC0468C0FB
:102410008091FC0411C08091FD0482608093FD04D2
:102420005FC08091FC048062F0CF8091FC048064E6
:10243000ECCF8091FC0488608460E7CF8160EECFB0
:102440008091FC048E7FE1CF8091FC048D7FDDCFF5
:102450008091FC04877FD9CF8091FD0418C08091C2
:10246000FD048D7FDBCF8091FC048F7ECECF8091E9
:10247000FC048F7DCACF8091FC048F7BC6CF8091F6
:10248000FC04877F8B7FC1CF8091FD048D7F8E7F81
:10249000C5CF8091FC0482FB222720F991E092278E
:1024A00090FB82F990FB83F9B0CF8091FD04982FC7
:1024B000909591708E7F892B90FB81F9AFCF0E9410
:1024C000C2228091FC0487FB222720F991E0922709
:1024D00090FB87F99ACF61E08EE090E00E9449334B
:1024E0006091FC041091FD0484E090E00E94493367
:1024F000612F81E290E00E9449330E94C22272CE95
:10250000053FFCE51F0731F406E221EE42EE65EFE0
:102510007CE5A3CE053F2CE5120730F407E225EE5B
:1025200044EE64EF7CE599CE063F3CE5130709F0E5
:10253000BBCE07E225EE46EE66EF7CE58ECE8091BF
:1025400025090631ECE51E0709F58A7A91E009F4C0
:1025500090E09093C605882311F065E301C069E21D
:102560008DE898E00E94441E0EC006311C4509F01B
:102570007AC08091C605882309F42DC365E38DE8F0
:1025800098E00E941C1E0E94FA1E2CCE8272F80156
:10259000E25CFC45E431F10508F04DC0ED57FF4F1A
:1025A0000C94F83390918A0981E0892780938A09F5
:1025B000109228010E94431C15CE4AE559E163E6BA
:1025C00079E12CC043E659E16AE579E127C048E4A6
:1025D00059E161E579E122C041E559E168E479E139
:1025E0001DC040E359E16CE379E118C04CE359E1C7
:1025F00060E379E113C048E159E164E279E10EC09A
:1026000044E259E168E179E109C045E55CE16BE448
:102610007CE104C04BE45CE165E57CE10E94BF1B0A
:10262000E1CD81E005C085E003C08DE001C082E11D
:102630000E94452DD7CD01158CE5180731F00E3DD0
:102640001C4589F40E948A1ECDCD0E94C222FFEF54
:1026500004E31CE0F15000401040E1F700C000002E
:102660000E94821DBFCDF70100811181992349F09D
:10267000C8010E945D1FD82E682FC8010E94FF1F4D
:1026800004C0C8010E94D31FD82EB8018D2D0E940E
:10269000F4258C01982EF701D280A580A2949FE0AA
:1026A000A92280912209877099F0DD2089F0812F7D
:1026B000807F803421F080E2800F883048F082E013
:1026C0000E945920809122098770CC24C3948111E3
:1026D000C12CB12EB2948FE0B8228B2D90E08C30BB
:1026E000910508F03DC2FC01E956FF4F0C94F83308
:1026F000812F807F1F70882311F01295107FDD20BD
:10270000B9F0112309F417C280E2800F883010F06D
:10271000911006C080912509182B1093250905C03A
:1027200080912409182B109324090E94FA1E03C2D9
:10273000802F0E948130112309F412C2005E10958F
:10274000083010F0911006C08091250918231093CD
:10275000250905C0809124091823109324090E949B
:10276000FA1EFEC1812F807F1F70803211F01295FA
:10277000107F992021F0F1E09F16E1F02AC0DD20C2
:1027800081F080912609AA2051F001E0A01207C033
:10279000182B181709F4E4C110932609E1C1812B05
:1027A00010C0AA2021F021E0A21609F4D9C10E948C
:1027B000F41E27C0DD2041F035E03A1508F4D0C101
:1027C000812F0E947730CCC184E08A1508F4C8C1FB
:1027D00018C0DD2049F0AA2099F3F701858180FF18
:1027E000AAC18F708583ECCFAA2059F0093309F074
:1027F000B4C1FFEF17EE23E0F15010402040E1F7A5
:10280000AAC1812F0E946C30ABC1812F869586951D
:10281000837019F0813059F0A3C1DD2019F0C8018F
:10282000937002C080E090E00E94C51A99C1DD203B
:1028300019F0C801937002C080E090E00E94AF1AC6
:102840008FC1802FDD2029F00E9475250E948327EB
:1028500002C00E94AE240E94832782C1812F837010
:1028600009F06AC0D11080C1902F9295969597700B
:10287000990F990F802F8F70482E512C612C712C3D
:10288000092E04C0440C551C661C771C0A94D2F710
:1028900004FF12C04FE050E060E070E004C0440F5D
:1028A000551F661F771F9A95D2F7DB01CA018095E5
:1028B0009095A095B09503C080E090E0DC0116955E
:1028C0001695412F43704230D9F068F500912709E1
:1028D000109128092091290930912A09413059F095
:1028E00084299529A629B729BC01CD01602371232C
:1028F000822393231EC0402A512A622A732A13C0BE
:1029000084299529A629B72900912709109128091A
:102910002091290930912A09BC01CD016027712736
:102920008227932706C0BC01CD0164297529862919
:1029300097290E94932014C1DD2019F0812F817006
:1029400001C08695882309F40FC1902F9295969522
:102950009770990F990F802F8F70482E512C612CF2
:10296000712C092E04C0440C551C661C771C0A945B
:10297000D2F704FF12C04FE050E060E070E004C006
:10298000440F551F661F771F9A95D2F7DB01CA01C6
:1029900080959095A095B09503C080E090E0DC0113
:1029A00016951695412F43704230D9F068F5009185
:1029B0008F0910919009209191093091920941302D
:1029C00059F084299529A629B729BC01CD01602396
:1029D0007123822393238CC0402A512A622A732AAE
:1029E00013C084299529A629B72900918F09109130
:1029F00090092091910930919209BC01CD01602785
:102A000071278227932774C0BC01CD0164297529E1
:102A1000862997296DC01F70DD2029F0812F0E9423
:102A20007220802FCECE802F0E946C30812F49C023
:102A3000802F32EF931609F440C0391538F090EF2B
:102A4000991661F0E1EF9E1699F170C0F3EF9F16B1
:102A5000D9F124EF921609F44EC068C0DD2019F1B7
:102A600034E03A1508F47CC01F7181E090E0A0E0EA
:102A7000B0E0AC01BD0104C0440F551F661F771FB5
:102A80001A95D2F780918F0990919009A0919109A0
:102A9000B09192098A019B01082719272A273B2711
:102AA000C901B80125C025E02A1508F459C0DCCFBA
:102AB000DD2029F0812F8F712CC0DD20D9F3812FEB
:102AC0008F710E9434204CC0DD2079F01F7181E0AD
:102AD00090E0A0E0B0E0BC01CD0104C0660F771F1C
:102AE000881F991F1A95D2F703C060E070E0CB01F0
:102AF0000E942A2035C0DD2079F01F71812F0E94AD
:102B0000722038E0139FC001112483608093220952
:102B1000812F0E94722024C081E00E94592081E010
:102B20008A15F0F482E00E9459201AC0DD2039F0A5
:102B3000AA2009F4BFCF802F0E94BA3011C0AA206A
:102B400009F4BDCF893349F49FEFE7EEF3E09150EC
:102B5000E040F040E1F700C00000802F0E9481308B
:102B600088EF8B0D843010F40E94DB1ACC20A9F181
:102B70008091220980FD31C0F701128285958595EB
:102B800085950E947220C7010E94A60F809122099C
:102B900085958595859529960FB6F894DEBF0FBE6D
:102BA000CDBFDF91CF911F910F91FF90EF90DF90FC
:102BB000CF90BF90AF909F908F907F906F905F90DD
:102BC0004F903F900C94342001318FE5180709F0A5
:102BD0003BCB82E003CB69E2D2CC29960FB6F894C6
:102BE000DEBF0FBECDBFDF91CF911F910F91FF9040
:102BF000EF90DF90CF90BF90AF909F908F907F909D
:102C00006F905F904F903F9008950F931F93CF93D5
:102C1000DF938D36910508F052C0880F991F880FF9
:102C2000991FFC01E55BFE4F508152955F70318129
:102C3000732F7295707FC72FC52B32953F70D32F9E
:102C4000D370FC01E45BFE4F3081329536953695AA
:102C500033705181752F770F770FA72FA32BB52FC7
:102C6000B295B695B695B370FC01E65BFE4F8081D8
:102C7000382F3370982F969596958181582F5295BD
:102C8000550F550F507C052F092B86958695182FCB
:102C90001370EFE5F1E03E9FC0013F9F900D1124BE
:102CA000885D984FFC01E00FF11F6083C80FD91FAA
:102CB0004883A80FB91F2C9381E080932707DF91E9
:102CC000CF911F910F910895FF920F931F93CF9370
:102CD000DF93182F062FF42EC0E0D0E02F2D402FC9
:102CE000612FCE010E9405162196CD36D105B1F790
:102CF000DF91CF911F910F91FF900895EF92FF9276
:102D00000F939701201B31092F3F310519F010F067
:102D10002FEF30E02095382F320F08F43FEF832F4C
:102D20000F91FF90EF900895EF92FF920F93972FDE
:102D3000093438F4B701601B71096F3F710519F050
:102D400010F06FEF70E0485F5F4F4131510540F088
:102D5000A901485F5F4F4131510510F06FEF70E0FE
:102D60006095482F460F08F44FEF842F37FF02C0BD
:102D70002D5F3F4F359527953595279560918B09A8
:102D8000620F792F0F91FF90EF900895EF92FF92CD
:102D90000F93E00EF11CF90137FF03C0F195E195A7
:102DA000F10924E0EE0FFF1F2A95E1F7EF3FF1054F
:102DB00019F014F0EFEFF0E09A0157FF03C03195DE
:102DC0002195310994E0220F331F9A95E1F72E17D0
:102DD0003F070CF4F901EE0DFF1DEF3FF10519F06F
:102DE00010F0EFEFF0E02E2F2095382F320F08F47F
:102DF0003FEF832F0F91FF90EF900895EF92FF9296
:102E00000F93970195E0099F200D311D11242F3F4D
:102E1000310519F010F02FEF30E02095382F320FE8
:102E200008F43FEF832F0F91FF90EF90089522E871
:102E3000241B08F420E0620F08954095282F429F3C
:102E4000412D1124842F08950F931F9310E0F80152
:102E5000EE0FFF1FEB58FC4F9081905797FD919517
:102E6000000F111FF801EA58FC4FE081F0E0B09725
:102E7000DF01AA0FBB1F8D010E0F1F1F2003D00102
:102E8000219FB00D1124E8E3F0E0E91BF10997FD63
:102E9000F3959F01220F331F89010E0F1F1F40035F
:102EA0009001419F300D11242A0F3B1F37FF02C0B4
:102EB00021583F4F220F232F221F330B620F1F91E8
:102EC0000F9108950F931F93522F10E0F801EE0F0A
:102ED000FF1FEA58FC4FE081F0E0B097EE0FFF1FB4
:102EE0009F015203D001539FB00D1124000F111FF9
:102EF000F801EB58FC4F008110E000571109000F5A
:102F0000111F40039001419F300D11242A0F3B1FD8
:102F100037FF02C021583F4F220F232F221F330BB0
:102F2000620F1F910F9108950F931F93522F10E07E
:102F3000F801EE0FFF1FEA58FC4FE081F0E0B09778
:102F40009F015203D001539FB00D1124000F111F98
:102F5000F801EB58FC4F008110E0005711094003C5
:102F60009001419F300D11242A0F3B1F37FF02C0F3
:102F700021583F4F220F232F221F330B620F1F9127
:102F80000F910895EF920F931F9393E0099F800193
:102F90001124159507956E2D600F1F910F91EF90DD
:102FA0000895A22F50E0FA01EE0FFF1FEA58FC4FE0
:102FB0009081905297FD9195440F551FFA01EB585F
:102FC000FC4F3081232F30E02A1B3109290F311D9E
:102FD00097FD3A95620F0895E42FF0E0EE0FFF1F82
:102FE000EA58FC4F6081621B0895E42FF0E0EE0F79
:102FF000FF1FEB58FC4F6081621B0895622F0895FC
:103000000F931F93CF93DF9380912707882309F4B1
:103010004DC065EC8EEF0E940E3060E08DEF0E9497
:103020000E30C0E0D0E004EB10E0CE01B8010E9409
:10303000E4338093110182E1FE01E85DF84FA2E1E3
:10304000B1E001900D928A95E1F724E630E043E18A
:1030500050E061E171E080E60E948F32892B31F50A
:103060006296C63581E0D80761F0C43BD105E9F628
:1030700065EC8EEF0E940E3061E08DEF0E940E3005
:10308000D4CF82EA8093110189E0EEE7F8E0A2E173
:10309000B1E001900D928A95E1F724E630E04AE034
:1030A00050E061E171E080E60E948F3210922707C4
:1030B000DF91CF911F910F910895EF92FF920F939F
:1030C0001F93CF93DF930E94023265EC8EEF0E9434
:1030D0000E3064E08DEF0E940E3061E080E00E94CF
:1030E0000E306FEF81E00E940E3067E782E00E94B1
:1030F0000E308FE39CE90197F1F700C00000A0E0DB
:10310000B0E0CFE5D1E0FF24FA94EE24E394CD01C2
:10311000880F991F880F991FFC01E55BFE4F3081D6
:1031200032953F702181422F4295407F642F632B5F
:1031300022952F70722F7370FC01E45BFE4F40816B
:1031400042954695469543705181E52FEE0FEE0F5F
:103150002E2F242B352F3295369536953370FC0162
:10316000E65BFE4F4081842F837090E0542F56958C
:1031700056954181E42FE295EE0FEE0FE07C0E2F85
:10318000052B46954695142F13708C9FA0018D9F9B
:10319000500D9C9F500D112449535A4FFA01E00FD6
:1031A000F11FF082FA01E60FF71FF082FA01E20F39
:1031B000F31FF082FC01EA5DF84FE0821196AD3614
:1031C000B10509F0A4CF80912607882351F165EC61
:1031D0008EEF0E940E3062E08DEF0E940E3007EC01
:1031E00015E0C0E0F80161918F018C2F0E940E3034
:1031F000CF5FC43BB9F765EC8EEF0E940E3063E001
:103200008DEF0E940E300BE716E0C0E0F8016191EF
:103210008F018C2F0E940E30CF5FCB3AB9F71092FE
:103220002607DF91CF911F910F91FF90EF900895A6
:10323000EAE8F9E0438120E1421B08F440E08181A3
:10324000628190E00C940130EAE8F9E0438120E1EA
:10325000420F08F44FEF8181628190E00C940130BD
:10326000EAE8F9E0628120E1621B08F460E0818114
:10327000438190E00C940130EAE8F9E0628120E1BA
:10328000620F08F46FEF8181438190E00C9401306C
:10329000EAE8F9E0818190E04381628108970C942B
:1032A0000130EAE8F9E0818190E04381628108968B
:1032B0000C94013080918A0986958695815009F495
:1032C00083E20C94452D80918A09869586958F5FBF
:1032D000843208F081E00C94452DEF920F93CF9348
:1032E000DF93D72FC82FC9010E19BA010E9471238D
:1032F000602F681B7D2F8C2FDF91CF910F91EF9066
:1033000008950F93CF93DF93D72FC82FC901BA0128
:103310000E947123682F600F7D2F8C2FDF91CF913A
:103320000F910895EF920F931F93CF93DF93D62FB2
:10333000C72F182FC9010E19010FBA010E9471235E
:10334000081B202F219F212D1124822F6D2F7C2FD0
:10335000DF91CF911F910F91EF900895EF920F930E
:103360001F93CF93DF93D62F172FC82FC9010E19A4
:10337000070FBA010E947123702F781B719F712D66
:1033800011246D2F8C2FDF91CF911F910F91EF9012
:103390000895FF920F931F93CF93DF93F62ED72FAD
:1033A000182FC901C12FC01BBA010E947123982F89
:1033B000990F890FC81B2C2F219F212D1124822F9B
:1033C0006F2D7D2FDF91CF911F910F91FF90089569
:1033D0000F93CF93DF93D72FC82F47FD4195E8E395
:1033E000F0E0CF01841B910947FD9395889FB001C0
:1033F000899F700D700D1124229FC001239F900D95
:10340000900D1124860F971F0E94E323682F660FEB
:10341000860F682F600F7D2F8C2FDF91CF910F913A
:1034200008951F93CF93DF93CDB7DEB767970FB69D
:10343000F894DEBF0FBECDBF342F4B8B252F5C8B96
:103440006D8B7E8B8F8B4E895F8961111092240961
:1034500086E0FE013D96DF01982F1D929A95E9F7CF
:103460003D872E876F87598B488BDE011796019019
:103470000D928A95E1F7CE0107960E9413218111E2
:103480003EC086E0FE013796DE01119601900D9256
:103490008A95E1F7FF81E8856A857B85611571056D
:1034A00031F0EF3F31F481E0FF3F19F403C081E0D8
:1034B00001C080E080FD23C02091B40830E0C90144
:1034C0000196877099274091E50850E08417950789
:1034D00079F1F983EA837D836C8396E0929FD00132
:1034E000939FB00D1124AB54B74FFE01319601905C
:1034F0000D929A95E1F78093B4080E949D2016E002
:103500008091E5089091B4088917F9F0189FC001DF
:1035100011248B54974F0E9413218823B1F080917E
:10352000E50890E00196877099278093E508E8CF39
:103530000E94C2221092B4081092E508EEEAF8E068
:1035400086E0DF011D928A95E9F767960FB6F89439
:10355000DEBF0FBECDBFDF91CF911F9108952091A7
:103560008B0830918C082817390771F090938C08DC
:1035700080938B08E0919005F0919105309721F0B0
:103580000084F185E02D09940895209189083091F7
:103590008A082817390771F090938A088093890860
:1035A000E0919005F0919105309721F00680F78128
:1035B000E02D09940895E0919005F09191053097E0
:1035C00021F00190F081E02D099480E00895CF93DF
:1035D000DF93C6EAD1E060E0CE010E944933219634
:1035E000C11584E0D807B9F7DF91CF9108950F9303
:1035F0001F93CF93DF93823058F5663048F5403102
:1036000038F521159CE5390731F4E091C105F091B9
:10361000C205EF2BE9F08901C42FD0E0CC0FDD1FEC
:1036200090E2699FC00DD11D112490EC899FC00DBF
:10363000D11D1124612FCE0186960E944933602F3F
:10364000CE018796DF91CF911F910F910C94493352
:10365000DF91CF911F910F9108958F929F92AF921A
:10366000BF92CF92DF92EF92FF920F931F93CF936F
:10367000DF93C090C105D090C20581E090E09093A7
:10368000C2058093C105812CE12CF12C912C00E026
:1036900010E0C0E0D0E05701A00EB11EF501EC0F24
:1036A000FD1FEE0FFF1FEE5FFB4F259134914C2F56
:1036B000692D882D0E94F71A2196C031D10571F726
:1036C000005F1F4F939486E09812E3CF80E6E80EE8
:1036D000F11C839482E08812D9CFD092C205C092A7
:1036E000C105DF91CF911F910F91FF90EF90DF9077
:1036F000CF90BF90AF909F908F9008950F931F939E
:10370000CF93DF93823008F56630F8F44031E8F467
:10371000C42FD0E0CC0FDD1F20E2629FC00DD11D71
:10372000112430EC839FC00DD11D1124CE0186964B
:103730000E942B3390E0182F0027CE0187960E941D
:103740002B339801282BC90102C080E090E0DF9163
:10375000CF911F910F910895462F2091C30530916D
:10376000C405232B49F4823038F4763028F46031D4
:1037700018F4672F0C947E1B80E090E00895882356
:1037800011F0FA0101C0FB0109940C9464160C9429
:1037900005161F93CF93DF93FC01E15BFB4F208164
:1037A0006223A9F0EC010E940233182F0E94023319
:1037B000612F782F80918D090E941E24462F282F7B
:1037C000672FCE01DF91CF911F910C94C71BDF9122
:1037D000CF911F910895DF92EF92FF920F931F9365
:1037E000CF93DF93EC01FC01E15BFB4F90816923F8
:1037F00081F1D0908C0900918D0910918B09E12EF7
:10380000F12C0E940233282FC7018C549F4F68E689
:1038100071E00E94E4338E199F0997FD03969595F8
:103820008795959587952370612F289F600D1124AA
:103830007D2D802F0E941E24462F282F672FCE011A
:10384000DF91CF911F910F91FF90EF90DF900C943B
:10385000C71BDF91CF911F910F91FF90EF90DF90E9
:10386000089520E1829FC0011124FC01EB5EFC4F12
:10387000E60FF11D80818F3F21F0FA01808381E006
:10388000089580E0089545E050E06CE170E08AE83A
:1038900099E00C943933EAE8F9E0248130E1230F10
:1038A00008F42FEF24830C94431CEAE8F9E0248108
:1038B00030E1231B08F420E024830C94431CEAE845
:1038C000F9E081E380838091310190913201A091F0
:1038D000330181839283A3838FE784830C94431CF9
:1038E0000F931F93CF93DF93C42FD22FFC018281BC
:1038F0008823C9F04093C5050E94E71D909388086E
:103900008093870880E28C0F883008F057C0C7701A
:1039100081E001C0880FCA95EAF7DF91CF911F912E
:103920000F910C9477308091C505481330C0809179
:103930008708909188080E94CC1D883C910538F535
:1039400010E21D0FCD17B9F080E28C0F883040F4E3
:10395000C77081E001C0880FCA95EAF70E946C30F9
:10396000183028F581E09D2F977001C0880F9A9537
:10397000EAF70E947730802F0E9432311830F0F43D
:10398000D77081E001C0880FDA95EAF70AC080E2BB
:103990008C0F883098F4C77081E001C0880FCA95F9
:1039A000EAF7DF91CF911F910F910C946C30802F2B
:1039B000DF91CF911F910F910C943231DF91CF9114
:1039C0001F910F91089580913009089580E0089526
:1039D000CF93DF9300D01F92CDB7DEB790915C09F3
:1039E000943011F589837B836A839093E9008FEF8C
:1039F0009091E800815095FD06C095ED9A95F1F7FC
:103A000000008111F5CF8091E80085FF0DC040E0F6
:103A100050E063E070E0CE0101960E941A30809180
:103A2000E8008E778093E8000F900F900F90DF9161
:103A3000CF910895BC0184E00C94E81CBC0183E0A4
:103A40000C94E81C24E02093E9002FEF3091E8006B
:103A5000215035FD06C035ED3A95F1F700002111F2
:103A6000F5CF2091E80025FF0BC040E050E066E074
:103A700070E00E941A308091E8008E778093E80011
:103A80000895CF93DF9320911001222339F02091E4
:103A9000FC0427FF03C060E224E002C068E021E0EC
:103AA0002093E9002FEF3091E800215035FD06C04A
:103AB00035ED3A95F1F700002111F5CF2091E8009E
:103AC00025FF1DC0EC0180911001811105C040E06F
:103AD00050E068E070E003C070E040E050E0CE01EC
:103AE0000E941A308091E8008E778093E80080E28F
:103AF000FE01A1E3B9E001900D928A95E1F7DF9113
:103B0000CF91089581E08093E00080E28093D80017
:103B10001092C9008FE19EE40197F1F700C0000008
:103B200087E090EBDC018093930990939409A09334
:103B30009509B09396099CE088E10FB6F894A89592
:103B4000809360000FBE90936000FFCF78941F9227
:103B50000F920FB60F9211248F939F93AF93BF9341
:103B60008091920590919305A0919405B09195054F
:103B70000196A11DB11D8093920590939305A0938A
:103B80009405B0939505BF91AF919F918F910F9040
:103B90000FBE0F901F9018959C014FB7F89480911D
:103BA000920590919305A0919405B09195054FBF12
:103BB000821B930B08952FB7F89460919205709132
:103BC000930580919405909195052FBF08952FB787
:103BD000F8948091920590919305A0919405B091ED
:103BE00095052FBF08951F920F920FB60F921124C3
:103BF0008F939F93AF93BF938091FE04811113C065
:103C00008091920590919305A0919405B0919505AE
:103C10004196A11DB11D8093920590939305A093A9
:103C20009405B0939505BF91AF919F918F910F909F
:103C30000FBE0F901F901895209110012223C9F0FC
:103C40002091FC0427FF15C0262F26952695269542
:103C50002E31C8F4FC01E20FF11D677081E090E0A5
:103C600001C0880F6A95EAF7809592818923828343
:103C70000895FC0106962281621301C012823196DA
:103C8000E817F907C1F70895209110012223C1F028
:103C90002091FC0427FF14C0262F269526952695F3
:103CA0002E3130F5FC01E20FF11D677081E090E0EC
:103CB00001C0880F6A95EAF79281892B8283089563
:103CC000FC0132962FEF30E04191641789F02F3FCD
:103CD00019F4411101C0232F3F5F3630A9F72F3F60
:103CE00039F0FC01E20FF11D27FDFA95628308957A
:103CF0000895CF9384E090E00E942B33C82F81E297
:103D000090E00E942B332C2F30E0A901582BCA01E0
:103D1000CF9108956BEE7EEF80E090E00E946733D4
:103D200060E082E090E00E94493360E083E090E050
:103D30000E944933109227091092280910922909EC
:103D400010922A0960E084E090E00E94493360E02C
:103D500081E290E00E94493360E085E090E00E94BB
:103D6000493360E086E090E00E9449336FEF87E0DE
:103D700090E00E94493340E050E0BA0188E090E0D2
:103D80000E945B3360E08DE090E00E94493340E0A8
:103D900050E0BA0188E190E00E945B3360E087E187
:103DA00090E00E94493340E050E0BA018CE190E09D
:103DB0000E945B3360E080E290E00E94493340E083
:103DC00050E0BA0188E190E00E945B3340E050E0AF
:103DD000BA018FE090E00E945B3340E050E0BA010E
:103DE00083E190E00C945B3380912609811110925D
:103DF000260908959091250980912409892B209105
:103E00002309982F922B90938D088091260988235F
:103E1000D9F0892B80938D0880911001882331F08F
:103E20008091FC0487FF02C08EE101C086E0EFE8CC
:103E3000F8E090E0815028F021912223D9F39F5F90
:103E4000F9CF91110E94F41EE0919005F091910537
:103E50003097A9F080911001882359F08091FC04DB
:103E600087FF07C080918D0880938E0885E080933E
:103E70008D080280F381E02D8DE898E00994089583
:103E800080E090E00E94C51A80E090E00E94AF1AA6
:103E900010922409109223090E94FA1EEDE9F5E020
:103EA00086E0DF011D928A95E9F710929A0510923B
:103EB00097051092AD080C948327BF92CF92DF92A2
:103EC000EF92FF920F931F93CF93DF938C01C090DB
:103ED0008F09D0909009E0909109F090920980911B
:103EE000270990912809A0912909B0912A09C82A87
:103EF000D92AEA2AFB2ACFE1D0E0D701C6010C2E4D
:103F000004C0B695A795979587950A94D2F780FD3A
:103F100004C0219790F7B12C07C0BC2EB8018C2F9C
:103F20000E94F4250197A9F38B2DDF91CF911F916A
:103F30000F91FF90EF90DF90CF90BF900895CF93B7
:103F4000DF93EC010E945D1FBE010E94F425DF910A
:103F5000CF9108950E949F1F292F2F70E92FE2957E
:103F6000EF704E2F50E0FA013297EE30F105B8F4C1
:103F7000ED55FF4F0C94F833803F99F018F4883ECC
:103F800070F40FC0843F59F40CC0883E50F0813F5C
:103F900031F407C0822F869586958695089580E036
:103FA000089581E0089520E1929F800D1124682FEB
:103FB000669566956695982F977085E0689FB00125
:103FC000112440E050E080E0FB01E40FF51FEA51CE
:103FD000F74F208130E0092E02C0369527950A94CC
:103FE000E2F721703327042E01C0220F0A94EAF76A
:103FF000822B4F5F5F4F4530510531F7089520E127
:10400000929F800D1124E82FE695E695E69587703E
:1040100051E001C0550F8A95EAF785E0E89FF0016D
:104020001124EA51F74F20E030E070E04081CB01ED
:10403000022E02C0969587950A94E2F781708195C9
:1040400084278523842781932F5F3F4F25303105B7
:1040500069F7089560938F0970939009809391098F
:10406000909392090C94401F0F931F9341E050E0EE
:1040700060E070E004C0440F551F661F771F8A95EB
:10408000D2F7409550956095709580918F099091E9
:104090009009A0919109B09192098A019B0108238E
:1040A00019232A233B23C901B8011F910F910C94B6
:1040B0002A20209122098095822380932209982F1B
:1040C000977079F430E0482F082E000C550B241718
:1040D000350739F08595859585950E943420109295
:1040E000220908950F931F9341E050E060E070E0D3
:1040F00004C0440F551F661F771F8A95D2F7809121
:104100008F0990919009A0919109B09192098A012B
:104110009B01082B192B2A2B3B2BC901B8011F919E
:104120000F910C942A20609327097093280980939B
:10413000290990932A090C94401F8091E5089091D9
:10414000B408891719F08F5F8770FBCF08950F931C
:104150001F93CF93DF938091B30882958F7009F0FE
:104160005DC08091B008882309F458C08091E508AB
:104170001091B4086091AE087091AF08C091B10879
:10418000D091B20891E06F3F09F090E0292F06E04E
:10419000811709F443C0209721F07F3F21F030E0E0
:1041A00003C031E001C0322F90E030FD34C0089FE1
:1041B000F001099FF00D1124DF01AB54B74F1196A8
:1041C0003C911197371327C03C91361324C01296A7
:1041D0003C91129731111FC013964D915C91149729
:1041E0004C1B5D0B483C5105B0F48091B3088F70B7
:1041F00080618093B308E654F74F80818F708061AF
:1042000080838EEA98E00E94A60FDF91CF911F91E4
:104210000F910C949D2001968770BACFDF91CF91BA
:104220001F910F9108959F92AF92BF92CF92DF920C
:10423000EF92FF920F931F93CF93DF93CDB7DEB72B
:1042400061970FB6F894DEBF0FBECDBF8C0185E03D
:10425000F801DE011D9601900D928A95E1F7F801B3
:1042600090818181E2803091AE086091AF084091E9
:10427000B1085091B2084115510531F06F3F31F44A
:1042800021E03F3F19F403C021E001C020E0F22FFC
:10429000F1709F2E20FD23C1F801C380D4802EEA47
:1042A000A22E28E0B22EF090B008F601E41BF50B28
:1042B000FF2009F4CEC02091B308E83CF10508F0D6
:1042C00099C0422F407F09F051C0681311C03913C3
:1042D0000FC0FE2CE1100CC02F7020612093B3089A
:1042E000C5010E94A60F8091B308F801858337C1EC
:1042F000CD2831F08F3F31F421E09F3F19F403C006
:1043000021E001C020E020FD03C021E02E2502C0F5
:1043100020E030E0F22FF170FF2E20FF1DC0209131
:10432000E5084091B40856E0241709F4F6C030E0DF
:10433000529FF001539FF00D1124EB54F74F618110
:10434000861306C06081961303C06281E61204C022
:104350002F5F3F4F2770E8CFFE2CEE2009F4FFC0FF
:104360008091B30881608093B30850C0681307C080
:10437000391305C0E11003C0F80125838DC09D8766
:104380008E878D859E850E94AA1F882369F1EE2065
:1043900059F12091B308822F82958F7090E0029797
:1043A00074F08091AE089091AF0898878F8319863A
:1043B000DB86CA862C87CE0107960E94A60F86E070
:1043C000F801AEEAB8E001900D928A95E1F70E94FB
:1043D000A7200DC06817E1F09D878E878D859E858B
:1043E0000E94AA1F81111EC0C8010E94A60FFF24AF
:1043F000F394B5C0422F407F69F78EEA98E00E949F
:10440000A60F86E0F50111928A95E9F7F12CA7C075
:104410003913E2CFE110E0CFF8012583C8010E94F3
:10442000A60F57C0EE2001F32091B308822F82958A
:104430008F7090E002971CF28091AE089091AF08C7
:104440009A8389831B82DD82CC822E83CE010196E2
:10445000B4CFE83CF105E8F5FE2CEE2029F2681314
:1044600027C0391325C02091B30820FD18C0822F22
:1044700082958F70482F50E04115510581F0F80169
:1044800025834F30510541F08F5F982F9295907F93
:10449000822F8F70892B8583C8010E94A60F86E02A
:1044A000F801AEEAB8E001900D928A95E1F757C0A5
:1044B0009D878E878D859E850E94AA1F81117FCF43
:1044C0008091B30881608093B308C8010E94A60F51
:1044D00046C086E0F50111928A95E9F740C0EE20CA
:1044E00009F482CF9D878E878D859E850E94AA1FA5
:1044F000F82E882309F478CF86E0F801AEEAB8E018
:1045000001900D928A95E1F78091AE089091AF08E5
:104510000E949F1F0E94A72022C09D878E878D85A5
:104520009E850E949F1F292F22952F70223028F4EC
:104530009F7039F0811105C00BC0243028F49F70A2
:1045400049F4805E883020F0C8010E94A60F9F2C9D
:10455000F92C05C0F8019581907F99F7F9CF8F2D3F
:1045600061960FB6F894DEBF0FBECDBFDF91CF913D
:104570001F910F91FF90EF90DF90CF90BF90AF9081
:104580009F9008951092250980911001882331F0A1
:104590008091FC0487FF02C08EE101C086E0EFE855
:1045A000F8E0DF011D928A95E9F70C94401FE42F93
:1045B000F0E0EE0FFF1FEB58FC4F408134EE439FBD
:1045C000412D1124E82FF0E050E0445E5F4FDA0106
:1045D000A21BB1099D01B7FF03C031952195310997
:1045E00093E0220F331F9A95E1F7AF01421B530B63
:1045F0009A0157FF02C020E030E0582F259F212D5F
:104600001124822F0895E42FF0E0EE0FFF1FEB58E6
:10461000FC4F408134EE439F412D1124E72FF0E001
:1046200050E0445E5F4FDA01A21BB1099D01B7FF64
:1046300003C031952195310993E0220F331F9A95DC
:10464000E1F7AF01421B530B9A0157FF02C020E074
:1046500030E0279F212D1124722F08959091FC04A2
:1046600092FF0DC0282F2871283019F4877F8460AD
:1046700006C0282F2471243011F48B7F886093FFAB
:104680000DC0282F2871283119F4877E846106C057
:10469000282F2471243111F48B7E88612091FD0430
:1046A00020FF0DC0382F3871383019F4877F8160B2
:1046B00006C0382F3171313011F48E7F886021FFB0
:1046C0000DC0282F2871283119F4877E816106C01A
:1046D000282F2171213111F48E7E886194FD877E0F
:1046E0000895FC019B01009721F477FF2BC080E81F
:1046F0000895AC0197FF04C044275527481B590B68
:10470000B901640F751F37FD0CC0241B350BC9019F
:10471000A5E0880F991FAA95E1F70E94E43380E293
:104720000CC0CB0165E0880F991F6A95E1F7BA01CB
:10473000621B730B0E94E43380E6861BF7FF03C005
:104740008195089580E00895FF920F931F93CF9372
:10475000DF93F62E172FD82FC901C72FC01BBA0120
:104760000E947123982F990F890F7C2F781B719FBE
:10477000712D11246F2D8D2FDF91CF911F910F91EE
:10478000FF900895482F982F46FD9095E92FEF73DD
:104790009F7046FD9F5FE295EF70EE0FF0E0E250F4
:1047A000FD4F2181299F802D212D112482958F700D
:1047B0002295207F822B3081982F930F892F47FDE0
:1047C000819580580895BC018230910508F40895C0
:1047D000613E8EE1780748F49B0195E03695279578
:1047E0009A95E1F748E0420F01C04FEF91E0242F86
:1047F00030E0290F311D35952795229FF001239F29
:10480000F00DF00D11246E177F0718F44FEF420FD3
:1048100004C02F3F39F091E0920F491740F78FEF16
:10482000890F08958FEF089520E030E0869F212DB5
:10483000969F200D311D1124C9010895CF92DF925A
:10484000EF92FF920F931F93CF93DF93F62E472F94
:10485000E82FF0E0711106C0EE57FA4F8491782FDF
:10486000682F73C0272F30E0EE57FA4FE491FE2FE8
:104870000E2F10E056E0659FC0011124CFEFD0E06D
:10488000BE010E94D0335BEA5603C001579F900DD2
:1048900011248F0D911D8F0D911D982F990F980F39
:1048A0007E01E21AF30AE09ED001E19EB00DF09E77
:1048B000B00D11248B2F499FA0011124452F55279E
:1048C0007E01E41AF50AE09EA001E19E500DF09EE3
:1048D000500D11246E01C91AD108C29E7001C39EE9
:1048E000F00CD29EF00C11242F2D3327C21BD30BBA
:1048F000C09F9001C19F300DD09F300D1124932F88
:104900006230710591F048F461157105E1F0613094
:104910007105B9F49E2FE52F16C06430710569F05A
:1049200040F06630710579F00CC09E2FEB2F832F7D
:104930000AC0EB2F8F2F952F06C09B2F8E2FE32FB2
:1049400002C09B2F852F7E2F692FDF91CF911F9162
:104950000F91FF90EF90DF90CF900895803F39F452
:104960008091A00587FF6AC01092A00567C0813FB3
:1049700029F48091A0051816BCF360C090919F05A2
:10498000823F29F497FF5AC010929F0557C0833F7A
:1049900019F41916CCF352C09091A105893F31F456
:1049A00019160CF04BC01092A10548C08A3F19F4AB
:1049B00097FF44C0F8CF8B3F39F48091A20587FF61
:1049C0003DC01092A2053AC08C3F29F48091A20507
:1049D0001816BCF333C0843F21F480919E058E7F6E
:1049E00017C0853F21F480919E058D7F11C0863FC1
:1049F00021F480919E058B7F0BC0873F21F480912D
:104A00009E05877F05C0883F31F480919E058F7E8B
:104A100080939E0513C08D3F21F48091AD088E7F59
:104A20000BC08E3F21F48091AD088D7F05C08F3F74
:104A300029F48091AD088B7F8093AD0880919F050C
:104A4000811106C08091A005811102C010929A05C3
:104A50008091A105811106C08091A205811102C03B
:104A60001092970508958091AD0880FD16C081FDD4
:104A700016C082FD18C080919705882391F0883276
:104A800090F428E0829FC001112468E270E00E9447
:104A9000E433862F672B29F007C082E0089584E075
:104AA000089581E0089588E008958091AD0880FD23
:104AB00014C081FD14C082FD16C080919A05882320
:104AC00081F0843180F422E3829FC001112464E1EB
:104AD00070E00E94E433862F08958CE0089589E108
:104AE000089585E0089582E30895803F21F40E94AF
:104AF0005525819504C0813F29F40E945525809356
:104B0000A0050895823F21F40E945525819504C097
:104B1000833F29F40E94552580939F050895893F7E
:104B200019F40E94332505C08A3F31F40E943325D1
:104B300081958093A10508958B3F21F40E94332530
:104B4000819504C08C3F29F40E9433258093A205EF
:104B50000895843F21F480919E05816017C0853FB0
:104B600021F480919E05826011C0863F21F48091DE
:104B70009E0584600BC0873F21F480919E0588606C
:104B800005C0883F31F480919E05806180939E0529
:104B900008958D3F21F48091AD0881600BC08E3F58
:104BA00021F48091AD08826005C08F3F29F4809187
:104BB000AD0884608093AD080895F894E82FE295DD
:104BC000EF70F0E031A1282F2F7081E090E001C05C
:104BD000880F2A95EAF7982F9095932391A392A195
:104BE000892B82A378940895CF93DF930E94AC1B06
:104BF000EC018238910559F1A0F48133910509F453
:104C000073C040F48932910509F467C08A9709F4AA
:104C100072C084C08533910509F458C0C997B9F0B2
:104C20007DC0833E910571F138F4803E9105B1F06D
:104C3000823E910511F172C0863E9105B9F1873E21
:104C40009105C9F1843E910509F068C024C08091A6
:104C5000FC0480FD5DC081FD5BC060C08091FC04F0
:104C600080FD50C08091FD0480FF49C18091FC040B
:104C700084FD43C1C3EED0E042C18091FC0482FFB9
:104C80003EC1F4CF8091FC0482FD3FC08091FD04C1
:104C900080FD3EC0EBCF8091FD0481FF30C180914B
:104CA000FC0484FD2AC1C7EED0E029C18091FC0438
:104CB00083FF25C1F4CF8091FC0483FD2CC080913B
:104CC000FD0481FFECCFC4EED0E019C18091FC045B
:104CD00085FF15C1C9E2D0E012C18091FC0485FFB7
:104CE0000EC1C5E3D0E00BC18091FC0486FF07C173
:104CF000CAE2D0E004C18091FC0486FF00C1C1E398
:104D0000D0E0FDC0C9E3D0E0FAC0C2EED0E0F7C009
:104D1000C0EED0E0F4C0C6EED0E0F1C0C11581E530
:104D2000D80708F066C0C11520E5D207E0F0CE0133
:104D300074E0969587957A95E1F783709C2F937030
:104D400021E030E002C0220F331F9A95E2F73C6861
:104D5000382BCF70C695C69540E2C49FE001112460
:104D6000C22BD32BCCC0C83ED10560F5C03ED105C7
:104D700008F0C5C0C83AD105B0F4C53AD10540F035
:104D8000C55AD0E0C454DB4FC881D0E0D064B7C06E
:104D9000C130D10509F4B3C008F4AFC0C430D105A7
:104DA00008F4ABC0ACC0CF3BD10508F0A6C0C85AD0
:104DB000D0E0CC0FDD1FC154DB4F0990D881C02D4E
:104DC000D4649DC0C11540E2D40758F4C11581E0F8
:104DD000D80708F094C0C03FD10508F48EC0D06554
:104DE0008EC0C11520E4D20708F487C0DF70D06AF6
:104DF00086C0C11545E5D40708F042C0C11584E559
:104E0000D80728F0DC2FCC27C46FD06A78C0C11532
:104E100023E5D207B0F0CE018370992721E030E07E
:104E200002C0220F331F8A95E2F78C2F8695869554
:104E300040E2849FC0011124E901C82BD92BDA6814
:104E40005EC0C11542E5D40728F4DC2FCC27C16F22
:104E5000D06A55C0CE018370992721E030E002C0AE
:104E6000220F331F8A95E2F78C2F8695869540E2B4
:104E7000849FC0011124E901C82BD92BDC683FC0F5
:104E8000C11589E5D807B8F4C11528E5D20728F07F
:104E9000DC2FCC27C06FD06A32C0C11546E5D407DD
:104EA00060F58C2F0E942E238F71C82FD0E0DC2F4D
:104EB000CC27D06224C0C1158AE5D80780F48C2F96
:104EC0008F700E942E2394E0D695C7959A95E1F7AE
:104ED000CF70D0E0DC2FCC27D069C82B10C0CE011A
:104EE00090568115904248F48D2F8F710E942E2389
:104EF000DD27D0628F71D82B02C0C0E0D0E0CE0198
:104F0000DF91CF9108950E94E71D20919F05211107
:104F100004C02091A005222321F090939C0580934A
:104F20009B052091A105211104C02091A2052223F7
:104F300021F09093990580939805E0919005F09168
:104F40009105309749F082E080939D050480F581BA
:104F5000E02D8DE995E0099408959F92AF92BF925C
:104F6000CF92DF92EF92FF920F931F93CF93DF9335
:104F700000EF14E084E3E82E81E0F82EC0E0D0E0FA
:104F8000912CCC24C394D12CB701D7018C91F894E7
:104F9000E82FE295EF70F0E021A18F70A60102C02A
:104FA000440F551F8A95E2F7CA01922F982B91A3BF
:104FB00092A18095892382A3789400C0EAE3F1E06E
:104FC00020E030E0A12CB12C4191842F82958F708C
:104FD00090E0DC0190968C9190E04F7002C0959526
:104FE00087954A95E2F780FD08C0C601022E02C0EF
:104FF000880F991F0A94E2F702C080E090E0A82A87
:10500000B92A2F5F3F4F20313105F1F6BFEFEB1A80
:10501000FB0AFB0180810E94DD25C530D10519F016
:10502000F0EAFA95F1F7D8018D919C911197A816A5
:10503000B90621F0AD92BC9281E001C080E0982ACF
:1050400021960E5F1F4FC630D10509F09DCF9920E4
:1050500049F081E080932D090E94E71D90932C096F
:1050600080932B0980912D098823D1F180912B0900
:1050700090912C090E94CC1D049790F18091F0042E
:105080009091F1049093B2058093B1058091F20460
:105090009091F3049093B4058093B3058091F40448
:1050A0009091F5049093B6058093B5058091F60430
:1050B0009091F7049093B8058093B7058091F80418
:1050C0009091F9049093BA058093B9058091FA0400
:1050D0009091FB049093BC058093BB0510922D0921
:1050E000892DDF91CF911F910F91FF90EF90DF906D
:1050F000CF90BF90AF909F9008951F93CF93DF9371
:10510000CDB7DEB7AA970FB6F894DEBF0FBECDBFFE
:10511000E4E5F9E08091F100819349E0EC35F40792
:10512000C9F780915509833009F462C030F48130A9
:1051300071F0823009F49CC0B3C08A3009F488C091
:105140008B3009F46DC0893009F0AAC020C080916D
:105150005409813A09F0A4C08091E800877F8093C8
:10516000E8008091580990915909892B21F460E257
:1051700081E399E003C060E080E090E070E00E948D
:10518000A4318091E8008B778093E80089C08091FA
:105190005409813209F084C08091580990915909CD
:1051A000009719F0029709F07BC08091E800877F93
:1051B0008093E8008091E80082FD05C080915C0941
:1051C0008111F8CF6DC02091F3008091F20090E042
:1051D000922B029729F48091F1008B7F813021F48A
:1051E0008091F100809330098091E8008B7754C062
:1051F00080915409813A09F053C0809158099091E7
:105200005909892B09F04CC08091E800877F809371
:10521000E8008091E80080FFFCCF8091100137C04A
:10522000809154098132E1F5809158099091590992
:10523000892BB1F58091E800877F8093E8000E9478
:10524000503180915609809310010E94C22228C0DB
:1052500080915409813221F58091E800877F809305
:10526000E8000E9450318091570980932F0918C09F
:1052700080915409813AA1F48091E800877F80935E
:10528000E8008091E80080FFFCCF80912F09809397
:10529000F1008091E8008E778093E8000E94503101
:1052A0008091E80083FFE9C18091540990915509EC
:1052B000492F50E04A30510508F0DFC1FA01EF54A0
:1052C000FF4F0C94F833803821F0823809F0D5C1B3
:1052D00008C08091510990915209992389F0826008
:1052E0000FC0809158098F70873008F0C6C1809335
:1052F000E9008091EB0085FB882780F91092E90096
:105300009091E800977F9093E8008093F1001092CD
:10531000F1007CC1282F2D7F09F0AFC1882319F03F
:10532000823061F0AAC180915609813009F0A5C18F
:10533000933009F080E0809352092EC08091560985
:1053400081112AC0809158098F702FEF280F2630C5
:1053500008F093C18093E9002091EB0020FF1CC06E
:10536000933021F48091EB00806214C09091EB00A7
:1053700090619093EB0021E030E0A90102C0440F5E
:10538000551F8A95E2F74093EA001092EA00809157
:10539000EB0088608093EB001092E9008091E800B8
:1053A000877F8093E8000E94503167C1811165C1F9
:1053B000109156091F778091E3008078812B8093AC
:1053C000E3008091E800877F8093E8000E945031DD
:1053D0008091E80080FFFCCF8091E300806880939B
:1053E000E300111102C082E001C083E080935C09F8
:1053F00044C18058823008F040C120915609309154
:1054000057092C3D53E0350779F583E08A838AE21A
:1054100089834FB7F894DE01139620E03EE051E215
:10542000E32FF0E050935700E49120FF03C0E29592
:10543000EF703F5FEF708E2F90E0EA3010F0C7966C
:1054400001C0C0968D939D932F5F243149F74FBFC4
:105450008091E800877F8093E8006AE270E0CE01E7
:1054600001960E94A431C0C08091580990915909B9
:10547000432F552743305105B1F068F441305105B1
:1054800009F40AC14230510509F0F7C08BE590E0FC
:10549000E0EAF7E057C04132510589F14232510547
:1054A00009F43CC0EAC0C901992781309105B9F0DF
:1054B00070F082309105D9F0039709F0DEC0EDE07D
:1054C000F8E0E4918E2F90E0EDE0F8E038C0EBE5F5
:1054D000F8E0E4918E2F90E0EBE5F8E030C0E9E4ED
:1054E000F8E0E4918E2F90E0E9E4F8E028C0EBE2E8
:1054F000F8E0E4918E2F90E0EBE2F8E020C08330FA
:10550000910508F0BAC0880F991FFC01E15FFC4FBC
:105510000190F081E02D89E090E014C08330910586
:1055200008F0ABC0FC01EE0FFF1FE75FFC4F0190DE
:10553000F081E02DDC01AA5FBC4F8C9190E00097D8
:1055400009F49BC02091E800277F2093E800209178
:105550005A0930915B092817390708F4C90140E05E
:10556000009789F120915C09222309F43DC0253080
:10557000D9F12091E80023FD37C02091E80022FDF9
:105580002FC02091E80020FFEBCF4091F300209145
:10559000F20030E0342B009759F02830310540F408
:1055A00044914093F100319601972F5F3F4FF3CF25
:1055B00041E02830310509F040E02091E8002E77E5
:1055C0002093E800CDCF4111CDCF0AC080915C0976
:1055D000882351F0853041F08091E80083FD04C0BC
:1055E0008091E80082FFF2CF8091E8008B77809372
:1055F000E80043C0803809F040C08091E800877F10
:105600008093E800809153098093F1008091E80035
:105610008E77C7CE811131C080915609909157097C
:105620009927029754F58091E800877F8093E800DE
:1056300010915609109353090E945031111106C060
:105640008091E30087FD02C081E001C084E0809387
:105650005C0942E061EC81E00E946F3142E261EC62
:1056600084E00E946F3142E261EC82E00E946F317F
:1056700042E260EC83E00E946F318091E80083FF9A
:1056800010C08091E800877F8093E8008091EB0054
:1056900080628093EB0005C082E190E0EBEFF7E0E1
:1056A00051CFAA960FB6F894DEBF0FBECDBFDF91E3
:1056B000CF911F9108951F920F920FB60F92112450
:1056C0002F933F934F935F936F937F938F939F930A
:1056D000AF93BF93CF93DF93EF93FF93C091E90014
:1056E000CF708091EC00D82FD17080FDD0E810925F
:1056F000E9008091F000877F8093F00078940E9409
:105700007D281092E9008091F00088608093F0007D
:10571000CD2BCF70C093E900FF91EF91DF91CF9136
:10572000BF91AF919F918F917F916F915F914F91B9
:105730003F912F910F900FBE0F901F901895E8ED9D
:10574000F0E080818E7F80831092E2001092DA0078
:105750001092E100A0EEB0E08C9181608C9380818A
:105760008F77808319BCA7EDB0E08C918E7F8C93EE
:1057700080818F7E808310922E090895CF92DF92D0
:10578000EF92FF920F931F93CF93DF93C8EDD0E07A
:1057900088818F7E8883E7EDF0E08081816080835F
:1057A00084E082BF81E080932E0988818E7F888388
:1057B00002EE10E0F80110821092DA0081EEC82E9D
:1057C000D12CF601108288818F7788838881806848
:1057D000888388818F7D888319BC10925C09109220
:1057E0005309109252091092510990EEE92EF12CB2
:1057F000F70180818B7F808388818160888342E08C
:1058000060E080E00E946F31F60180818E7F8083AE
:10581000F801808181608083808188608083F701C6
:1058200080818E7F8083888180618883DF91CF91A2
:105830001F910F91FF90EF90DF90CF9008951F92EE
:105840000F920FB60F9211242F933F934F935F93B4
:105850006F937F938F939F93AF93BF93EF93FF9338
:105860008091E10082FF09C08091E20082FF05C0C3
:105870008091E1008B7F8093E1008091DA0080FFCE
:105880002AC08091D80080FF26C08091DA008E7FE8
:105890008093DA008091D90080FF18C080E189BD33
:1058A00082E189BD09B400FEFDCF81E080935C09EF
:1058B00080912E0981110FC00E949F2B0E94BE2B48
:1058C0008091E20084608093E20005C019BC1092D0
:1058D0005C0910922E098091E10080FF17C0809131
:1058E000E20080FF13C08091E2008E7F8093E2008F
:1058F0008091E20080618093E2008091D800806214
:105900008093D80019BC85E080935C098091E10008
:1059100084FF2EC08091E20084FF2AC080E189BD0F
:1059200082E189BD09B400FEFDCF8091D8008F7D52
:105930008093D8008091E1008F7E8093E100809178
:10594000E2008F7E8093E2008091E200816080938C
:10595000E20080915309882311F084E007C0809110
:10596000E30087FD02C081E001C083E080935C0911
:105970008091E10083FF27C08091E20083FF23C074
:105980008091E100877F8093E10082E080935C0951
:10599000109253098091E1008E7F8093E100809105
:1059A000E2008E7F8093E2008091E200806180932C
:1059B000E20042E060E080E00E946F318091F00000
:1059C00088608093F000FF91EF91BF91AF919F911C
:1059D0008F917F916F915F914F913F912F910F9098
:1059E0000FBE0F901F9018952091E4003091E500B4
:1059F00095E64091EC00842F817040FF23C0809198
:105A0000E80080FD1DC080915C09882399F08530F5
:105A100099F08091EB0085FD11C04091E400509118
:105A2000E5002417350729F3915011F09A01E1CFD1
:105A300084E0089582E0089583E0089581E0089568
:105A400080E008954091E80042FFDDCF08950F9374
:105A50001F9380918F0990919009A0919109B09125
:105A600092098C019D010670112722273327BC0162
:105A7000CD01063011052105310511F4686001C022
:105A8000677F1F910F910C942A2090918A0993703F
:105A900089F0811102C0946007C0843210F09C68C4
:105AA00003C0880F880F982B90938A0910922801C1
:105AB0000C94431C08956F927F928F929F92AF92A5
:105AC000BF92CF92DF92EF920F931F93CF93DF930A
:105AD0003C01C0912501CC0FCC0FD4E0DC0FDE36A9
