:100000000C94F0030C9437040C9437040C943704CC
:100010000C9437040C9437040C9437040C94370474
:100020000C9437040C9437040C9423160C945F152D
:100030000C94C41E0C9437040C9437040C943704AD
:100040000C9437040C9437040C9437040C94370444
:100050000C9437040C940D180C9437040C9437044A
:100060000C9437040C9437040C9437040C94370424
:100070000C9437040C9437040C9437040C94370414
:100080000C9437040C9437040C9437040C94370404
:100090000C9437040C9437040C9437040C943704F4
:1000A0000C9437040C9437040C943704D109D1090B
:1000B0000C0A0C0A660A840A8E0B8E0B8F0A030B3D
:1000C000140B140BD20FD50F15102C103410541024
:1000D0005710A810DE1083118311ED10EF10F310EC
:1000E00018113A113D114011631173139A13411500
:1000F0009A134115E61309144115FE140E15BB277A
:10010000BB27CE27CE27C427CE27CE27CE27BB2777
:10011000BB27C927CE27CE27C92700000000000033
:1001200000000000000000000000000000000000CF
:1001300000000000000000000000000000007E0F32
:1001400000D4FFFFFFC7000000780000000000009F
:1001500000002A2B28000000000000000000000022
:10016000000000000029000000002C1E3420212285
:1001700024342627252E362D3738271E1F202122EE
:10018000232425263333362E37381F040506070867
:10019000090A0B0C0D0E0F10111213141516171857
:1001A000191A1B1C1D2F3130232D35040506070895
:1001B000090A0B0C0D0E0F10111213141516171837
:1001C000191A1B1C1D2F3130354C00047F3F1F6452
:1001D0003214643214783C1E1E140A05050109020B
:1001E000A10185020901A1000509190129081500CD
:1001F0002501950875018102050109300931158134
:10020000257F95027508810609381581257F95019E
:1002100075088106050C0A38021581257F95017540
:10022000088106C0C005010980A101850319012AC2
:10023000B700150126B700950175108100C0050CA7
:100240000901A101850419012AA002150126A002B5
:10025000950175108100C005010906A101850505FC
:100260000719E029E71500250195087501810205A8
:1002700007190029EF1500250195F0750181020588
:1002800008190129059505750191029501750391DC
:1002900001C00660FF0961A1010962150026FF0087
:1002A0009520750881020963150026FF00952075C9
:1002B000089102C005010906A101050719E029E717
:1002C00015002501950875018102950175088101C8
:1002D0000507190029FF150026FF009506750881FE
:1002E000000508190129059505750191029501750B
:1002F000039101C009025B00030100A0FA09040098
:100300000001030101000921110100012240000741
:10031000058103080001090401000203000000092F
:10032000211101000122220007058203200001079C
:100330000503032000010904020001030000000975
:10034000211101000122B6000705840320000112DB
:10035000010002000000085A44602201000102006E
:10036000010A0344005A0036003000000010034B1D
:100370000042004400460061006E0073000000046B
:100380000309042223252628292A2C2D2F30323335
:100390003536383A3B3D3E4042434547494A4C4E4C
:1003A0005051535557595A5C5E6062646668696B78
:1003B0006D6F71737577797B7D7F81838587898A7E
:1003C0008C8E90929496989A9C9E9FA1A3A5A7A884
:1003D000AAACAEAFB1B3B4B6B8B9BBBCBEBFC1C2B4
:1003E000C3C5C6C7C9CACBCCCDCED0D1D2D2D3D447
:1003F000D5D6D7D7D8D9D9DADADBDBDBDCDCDCDC65
:10040000DCDDDDDDDDDCDCDCDCDCDBDBDBDADAD932
:10041000D9D8D7D7D6D5D4D3D2D2D1D0CECDCCCBB4
:10042000CAC9C7C6C5C3C2C1BFBEBCBBB9B8B6B4D2
:10043000B3B1AFAEACAAA8A7A5A3A19F9E9C9A9862
:10044000969492908E8C8A89878583817F7D7B7933
:10045000777573716F6D6B6968666462605E5C5A14
:100460005957555351504E4C4A4947454342403ED7
:100470003D3B3A3836353332302F2D2C2A29282669
:10048000252322165C1E001F0020002100220023CD
:100490000024002500260027002D002E0000002A41
:1004A000002B00000014001A000800150017001CA3
:1004B0000018000C00120013002F0030003100392A
:1004C00000000004001600070009000A000B000DE0
:1004D000000E000F003300340028000000E100008F
:1004E000001D001B00060019000500110010003659
:1004F00000370038000000E5000000E000E30000E5
:1005000000E2002C0000002C0000002C000000E69F
:1005100000E70000000151E40035003A003B003CD8
:10052000003D003E003F00400041004200430044C7
:1005300000450001004C0001000000C25CC35CC526
:100540005CC65CC75CC85CC95CCA5C010001000198
:10055000000100005C010000000100010001000139
:100560000001000100010001000100010001000183
:100570000000000100010001000100BD5CBF5CBE85
:100580005CC05C01000100010001000000010001ED
:100590000001000100000001000100000001000056
:1005A0000001000000010001000100010001000144
:1005B0000001000100010001000100010001000133
:1005C0000001000100010001000100010001000024
:1005D0000001000100010001000100010001000113
:1005E0000001000100010001000100010000000104
:1005F00000010001000100010001000100010001F3
:1006000000010001000100000001000100010001E3
:1006100000010001000100010001000100010001D2
:1006200000000001000100010001000000010001C4
:1006300000000001000000010000000100010001B5
:1006400000010001000100010001000100010001A2
:100650000001000100010001000100010001000192
:100660000001000100000001000100010001000183
:100670000001000100010001000100010001000172
:100680000001000000010001000100010001000163
:100690000001000100010001000100010000000153
:1006A0000001000100010001000100010001000142
:1006B0000001000100010000000100010001000133
:1006C0000000000100010000000100000001000026
:1006D0000001000100010001000100000101010111
:1006E00001010101010202020202020202020303ED
:1006F00003030303030304040404040404050505BD
:10070000050506060606060707070707080808087E
:10071000090909090A0A0A0B0B0B0C0C0C0D0D0D2B
:100720000E0E0E0F0F0F10101111111212131314C1
:1007300014151516161717181819191A1A1B1B1C39
:100740001D1D1E1E1F202021222223242425262693
:10075000272829292A2B2C2D2D2E2F3031323233C8
:100760003435363738393A3B3C3D3E3F40414243D1
:100770004445464748494A4C4D4E4F5051535455B5
:100780005658595A5B5D5E5F616264656668696B65
:100790006C6D6F7072737577787A7B7D7E808283E3
:1007A0008587888A8C8E8F91939596989A9C9EA027
:1007B000A2A3A5A7A9ABADAFB1B3B5B7BABCBEC034
:1007C000C2C4C6C9CBCDCFD1D4D6D8DBDDDFE2E4FD
:1007D000E7E9EBEEF0F3F5F8FAFDFFFFAA7F5540ED
:1007E00011241FBECFEFDAE0DEBFCDBF04B603FE9B
:1007F00027C08091C8029091C902A091CA02B0910D
:10080000CB028730904BA740B04BD1F41092C80276
:100810001092C9021092CA021092CB0214BE84B781
:10082000877F84BF0FB6F894A89580916000886197
:1008300080936000109260000FBEE0E0F8E309953D
:1008400011E0A0E0B1E0E2E8F4E502C005900D920D
:10085000A239B107D9F722E0A2E9B1E001C01D92A7
:10086000A83CB207E1F70E940E0C0C943F2A0C94AE
:1008700000001F93CF93DF93CDB7DEB767970FB616
:10088000F894DEBF0FBECDBF4B8B5C8B6D8B7E8B28
:100890008F8B611110924B0286E09E01235F3F4FC8
:1008A000D901E82F1D92EA95E9F795E0FE017396CC
:1008B000D90101900D929A95E1F79C894E895F8943
:1008C0007B897D879E876F87598B488BF901DE0175
:1008D000179601900D928A95E1F7CE0107960E9436
:1008E000BE1C81113EC086E0FE013796DE011196E6
:1008F00001900D928A95E1F7FF81E8856A857B85F5
:100900006115710531F0EF3F31F481E0FF3F19F4DB
:1009100003C081E001C080E080FD23C02091170268
:1009200030E0C9010196877099274091480250E054
:100930008417950779F1F983EA837D836C8396E0C8
:10094000929FD001939FB00D1124A85EBD4FFE0170
:10095000319601900D929A95E1F7809317020E94CB
:100960003B1C16E080914802909117028917F9F01C
:10097000189FC0011124885E9D4F0E94BE1C8823D1
:10098000B1F08091480290E001968770992780939A
:100990004802E8CF0E94D227109217021092480214
:1009A000E1E1F2E086E0DF011D928A95E9F76796C2
:1009B0000FB6F894DEBF0FBECDBFDF91CF911F9170
:1009C000089581FD02C02A9A08952A9808953F92B9
:1009D0004F925F926F927F928F929F92AF92BF924F
:1009E000CF92DF92EF92FF920F931F93CF93DF93FB
:1009F000CDB7DEB729970FB6F894DEBF0FBECDBFD7
:100A0000FC018081918123813481232B31F09F3F30
:100A100031F491E08F3F19F403C091E001C090E000
:100A200090FDE4C67F0185E0DE01119601900D92F4
:100A30008A95E1F7F701228189819A81222349F081
:100A40000E940127182F682F89819A810E945C27B4
:100A500003C00E943027182F69817A81812F0E945C
:100A60005F208C01F7018281882309F4F2C098018C
:100A700022513F452031310508F019C18FEF93E035
:100A80000E9445298111EFC0025130E8832E32E0E7
:100A9000932E002379F08114F4E09F0609F4E3C05B
:100AA000C4010E944529811101C001502FEF821A13
:100AB000920AEFCF1E821F8218861986442443941F
:100AC0002AE0322E84010F5F1F4FC4010E94452986
:100AD0008E831F82882309F4C6C09FEF980F93303E
:100AE00060F48F834E8232E0830E911CC8010E9415
:100AF00045298887811102C0B6C048018E010A5F6E
:100B00001F4FF80120812223E9F2213009F04CC067
:100B10008181813049F46801F2E0CF0ED11CF801E7
:100B200082810E9427290AC0823051F46801F2E0D4
:100B3000CF0ED11CF80182810E946328860186C0F5
:100B4000833049F46801F2E0CF0ED11CF8018281B4
:100B50000E94FC27F3CF843019F00F5F1F4F76C03F
:100B6000F80122810E5F1F4F80E090E030E02053BB
:100B700031092A30310568F4389EA001399E500DA4
:100B80001124C901840F951F0F5F1F4FF8012081A9
:100B9000EDCF009709F45AC0EFE9FFE03197F1F784
:100BA00000C000000197F5CFE22FF0E0E65BFE4FBA
:100BB0005490822F86958695869590E0FC01E65CA0
:100BC000FE4F64902770712C022E02C075946794BA
:100BD0000A94E2F7F1E06F227724FC01E65DFE4F14
:100BE000A490B12C022E02C0B594A7940A94E2F707
:100BF00031E0A322BB24FC01E65EFE4FC490D12C61
:100C000002C0D594C7942A95E2F781E0C822DD247A
:100C10006114710419F081EE0E946328A114B104DB
:100C200019F086EE0E946328852D0E942729AB28A3
:100C300019F086EE0E94FC27672819F081EE0E94C9
:100C4000FC27CD2819F08CE20E9427290F5F1F4F47
:100C500058CF0031EFE51E0709F0BFC581E00E94C3
:100C60008B270E94821280914902877009F4BEC5C9
:100C7000F7018281882309F4B9C582E029960FB66D
:100C8000F894DEBF0FBECDBFDF91CF911F910F91C2
:100C9000FF90EF90DF90CF90BF90AF909F908F909C
:100CA0007F906F905F904F903F900C941E1C00318E
:100CB0003FE5130711F481E005C001319FE51907F5
:100CC00021F482E00E949727CCCF0D3BFCE51F0763
:100CD00081F480919202982F969596959695C9F1F8
:100CE000915E990F990F990F8770892B80939202CB
:100CF00024C00E3B2CE5120708F43EC00F3BECE588
:100D00001E0769F108F44CC5003C2CE5120709F0F8
:100D100045C090919202892F8695869586958F5F22
:100D20008F71863008F055C5880F880F880F97702F
:100D3000892B8093920280919202887F91E009F43E
:100D400090E08091920290FB80F9809392020E9441
:100D50001C21809192028695869586950AC0809185
:100D6000920280FF12C58E7F809392020E941C2106
:100D700080E00E94B72077CF0B3B3CE5130711F4CE
:100D800085E005C00C3B9CE5190741F480E00E941A
:100D90002121809192020E941C2165CF033FFCE536
:100DA0001F0799F406E221EE40EE63EF7CE509C0EF
:100DB000073DECE51E0711F506E221EE41EE67ED79
:100DC0007CE5C7010E94821F4ECF043F2CE512072D
:100DD00008F03FC1083D3CE5130731F407E225EE7A
:100DE00045EE68ED7CE5EDCF093D9CE5190701F77F
:100DF00008E221E045EE69ED7CE5E3CF882309F4C4
:100E00005DC11092950202309CE5190708F440C1BB
:100E10000631ECE51E0730F0C8018A5F9C45099752
:100E200008F036C10E94321B9093BD018093BC0133
:100E30000031FCE51F0709F4C3C008F041C00830C9
:100E40003CE5130709F49AC0F0F404309CE5190757
:100E500009F487C068F40230FCE51F0709F477C085
:100E600003301C4509F0E5C08091BC01826076C06A
:100E700006303CE5130709F46EC008F07BC0809192
:100E8000BC0188606BC00C309CE5190709F485C073
:100E900068F40A30FCE51F0709F474C008F079C053
:100EA0000E94D2278091BC01806858C00E303CE57A
:100EB000130709F476C008F07FC08091BC018BC095
:100EC0000B3F9CE5190709F44FC018F50331FCE509
:100ED0001F0709F47DC078F401313CE5130709F4DC
:100EE00073C002311C4509F0A4C00E94D227809132
:100EF000BC018F7733C005319CE5190709F472C036
:100F000008F486C00A3F1C4509F093C08091BD01DA
:100F10003EC00F3F2CE5120709F45FC058F40D3FA7
:100F20008CE5180709F444C008F43FC08091BD0166
:100F300082602DC00130EDE51E0709F475C008F48C
:100F40005DC002301D4509F074C060E06EC0809144
:100F5000BC01816003C08091BC0180618093BC01B1
:100F600068C08091BC0111C08091BD0182608093F6
:100F7000BD015FC08091BC018062F0CF8091BC0157
:100F80008064ECCF8091BC0188608460E7CF816091
:100F9000EECF8091BC018E7FE1CF8091BC018D7F2F
:100FA000DDCF8091BC01877FD9CF8091BD0118C072
:100FB0008091BD018D7FDBCF8091BC018F7ECECF34
:100FC0008091BC018F7DCACF8091BC018F7BC6CF41
:100FD0008091BC01877F8B7FC1CF8091BD018D7FC8
:100FE0008E7FC5CF8091BC0182FB222720F991E042
:100FF000922790FB82F990FB83F9B0CF8091BD01DD
:10100000982F909591708E7F892B90FB81F9AFCFAF
:101010000E94D2278091BC0187FB222720F991E012
:10102000922790FB87F99ACF61E08EE090E00E94D2
:1010300059296091BC011091BD0184E090E00E94AB
:101040005929612F82E290E00E9459290E94D227FB
:101050000ACE053FFCE51F0731F406E221EE42EE21
:1010600065EF7CE5AECE053F2CE5120730F407E2D4
:1010700025EE44EE64EF7CE5A4CE063F3CE5130785
:1010800009F0BCCE07E225EE46EE66EF7CE599CE90
:1010900080914C0206319CE5190709F58A7A91E0A6
:1010A00009F490E090939401882311F065E301C066
:1010B00069E281EF91E00E94151F0EC006311C45C8
:1010C00009F026C180919401882309F48DC365E35A
:1010D00081EF91E00E94ED1E0E94BE1BC4CD827282
:1010E0000C3C3CE5130709F4C2C008F045C0063CBF
:1010F000ECE51E0709F4A7C0D8F4033C2CE5120761
:1011000009F497C030F4023C8CE5180709F46CC070
:10111000CEC0043C9CE5190709F490C0053CECE501
:101120001E0709F0C4C046E455E26FE475E2A3C0AF
:10113000093CFCE51F0709F490C078F4073C3CE546
:10114000130709F485C0083C9CE5190709F0AFC0F6
:101150004AE355E26EE275E28EC00A3CECE51E07FA
:1011600009F480C00B3CFCE51F0709F0A0C04EE964
:1011700053E26FEA73E27FC0013D2CE5120709F4E8
:1011800086C0A0F40E3C8CE5180709F47AC008F478
:1011900075C00F3CECE51E0709F476C0003DFCE588
:1011A0001F0709F084C06EE089E079C0043D2CE59A
:1011B000120709F472C068F4023D8CE5180709F4BF
:1011C00069C0033D9CE5190709F071C061E088E141
:1011D0006BC0053DECE51E0709F464C00D35FDE567
:1011E0001F0709F440CD63C080918D0280FF1BC0B2
:1011F0008E7F80938D0260918D0270918E0280911E
:101200008F02909190020E948C23109259022FEF2E
:1012100030E782E0215030408040E1F700C000001C
:101220000E94932120CD816080938D0261E086959C
:101230003BC043E955E26CE975E21DC04CE955E25B
:1012400063E975E218C04FE455E266E475E213C045
:101250004EE255E26AE375E20EC046E155E262E213
:1012600075E209C042E255E266E175E204C04FEA68
:1012700053E26EE973E20E947721F5CC61E081E0F0
:1012800013C065E082E00BC068E086E008C064E15E
:101290008FE005C067E185E102C062E289E10E945A
:1012A0006521E1CC61E083E20E945825DCCC0A355F
:1012B0009DE5190741F150F40115FCE51F07A9F060
:1012C0000E3D1C4529F50E944E1BCDCC0B353DE54E
:1012D0001307D9F00C351D45D9F48091BD0182FB6F
:1012E000882780F991E0892711C00E94D2279FEFBB
:1012F000E4E3FCE09150E040F040E1F700C0000082
:101300000E94E917B0CC81E001C080E00E94041C7B
:10131000F701828100811181882349F0C8010E9470
:101320000127D82E682FC8010E945C2704C0C8017D
:101330000E943027D82EB8018D2D0E945F200E9478
:101340009819B82E192F982EF7010281A580A29422
:101350009FE0A92280914902877099F0002389F0CB
:10136000812F807F803421F080E28B0D883048F01F
:1013700082E00E941E1C809149028770DD24D39474
:101380008111D12CC12EC2948FE0C8228C2D90E007
:101390008C30910508F0C2C1FC01EA5AFF4F0C9451
:1013A000E729812F807F1F70882311F01295107F0D
:1013B0000023B9F0112309F49DC180E28B0D883020
:1013C00010F0911006C080914C02182B10934C0223
:1013D00005C080914B02182B10934B020E94BE1B3C
:1013E00089C18B2D0E94FC27112309F497C180E24B
:1013F0008B0D1095883010F0911006C080914C0232
:10140000182310934C0205C080914B0218231093AF
:101410004B020E94BE1B82C1812F807F1F708032D1
:1014200011F01295107F8B2D992021F0F1E09F167D
:1014300011F130C00023B1F0AA2081F021E0A21206
:101440000DC08091BD0182FD69C180914D02182BB4
:10145000181709F463C110934D0260C180914D02C9
:10146000812B10C0AA2021F031E0A31609F456C147
:101470000E94B81B27C0002341F085E08A1508F4BC
:101480004DC1812F0E94F22749C194E09A1508F4BA
:1014900045C118C0002349F0AA2099F3F7018581BE
:1014A00080FF28C18F708583ECCFAA2059F0893343
:1014B00009F031C1FFEF27EE33E0F150204030401A
:1014C000E1F727C1812F0E94E72728C1812F869548
:1014D0008695837019F0813061F020C1002321F0DE
:1014E0008B2D912F937002C080E090E00E94601FCE
:1014F0001DC1002321F08B2D912F937002C080E03D
:1015000090E00E944A1F12C18B2D002319F00E9407
:10151000892602C00E94D0250E94A62507C1812FDE
:101520008370A9F50111FEC04B2D42954695477079
:10153000440F440F8B2D8F7090E09C01042E01C04E
:10154000220F0A94EAF7B4FE08C08FE090E001C0D1
:10155000880F4A95EAF7809501C080E016951695A8
:101560001370123069F088F490914E02113019F026
:10157000822B892302C0922B892B0E94A227D2C0E2
:10158000822B90914E028927F8CF822BF6CF002331
:1015900019F0812F817001C08695882309F4C2C09B
:1015A0004B2D429546954770440F440F8B2D8F70FD
:1015B00090E09C01042E01C0220F0A94EAF7B4FEC9
:1015C00008C08FE090E001C0880F4A95EAF7809547
:1015D00001C080E0169516951370123059F078F41A
:1015E0009091F001113019F0822B892309C0922BC0
:1015F000892B06C0822B9091F001892701C0822B94
:101600000E9487278FC01F70002339F0812F0E940E
:1016100097278B2D0E94F22785C08B2D0E94E727EC
:10162000812F0E948B277EC08B2D92EF991659F146
:10163000991538F0E0EF9E1659F0F1EF9F16F1F092
:1016400055C023EF921631F134EF931681F14EC05D
:10165000002379F084E08A1508F460C01F7181E0EE
:1016600090E001C0880F1A95EAF79091F001892760
:101670001BC095E09A1508F451C0F0CF002329F063
:10168000812F8F7126C00023D9F3812F8F710E9483
:101690008B2744C0002339F01F7181E001C0880FFF
:1016A0001A95EAF701C080E00E94872737C000231F
:1016B00099F01F71812F0E9497278091BD0182FDB3
:1016C00007C0E8E01E9FC001112483608093490297
:1016D000812F0E94972722C081E00E941E1CF1E00A
:1016E000FA15E0F482E00E941E1C18C0002331F0BD
:1016F000AA2031F28B2D0E94632810C0AA2029F263
:10170000893349F42FEF37EE83E021503040804099
:10171000E1F700C000008B2D0E94FC2788EF8C0DA4
:10172000843020F40E94761F0E94E104DD2009F439
:101730005DC08091490280FD59C0F70112828595F4
:10174000859585950E949727C7010E94E70480919F
:10175000490285958595859529960FB6F894DEBF43
:101760000FBECDBFDF91CF911F910F91FF90EF90F2
:10177000DF90CF90BF90AF909F908F907F906F90B1
:101780005F904F903F900C948B27816080939202E2
:10179000813019F489E08093920280919202D7CA35
:1017A00020919202822F869586958695482F50E04B
:1017B0004530510554F48F5F982F990F990F990F69
:1017C000822F8770892B8093920280919202816090
:1017D000BCCA977090939202AECA0131FFE51F0711
:1017E00009F0DCCA82E03BCA69E272CC29960FB6E6
:1017F000F894DEBF0FBECDBFDF91CF911F910F9147
:10180000FF90EF90DF90CF90BF90AF909F908F9020
:101810007F906F905F904F903F900895CF93DF93AC
:10182000CDB7DEB7AA970FB6F894DEBF0FBECDBF17
:1018300084B7877F84BF0FB6F894A8958091600025
:10184000886180936000109260000FBE90E080E895
:101850000FB6F89480936100909361000FBE85B736
:10186000806885BF85B7806885BF8EE498E19093D6
:101870009301809392010E94A3150E94C21580914A
:10188000E20084608093E20078948091E6018823EE
:10189000A1F01091E9001F709091EC00892F8170E8
:1018A00090FD80E8182B1092E9008091E80083FDFC
:1018B0000E948D121F701093E90082E084BD93E0B6
:1018C00095BD9AEF97BD80936E000E949E20811176
:1018D00002C00E948A2009E111E0FEE1EF2EF1E052
:1018E000FF2EF80181918F018F3F11F00E94931814
:1018F000E016F106B1F70EE111E0F80181918F01D8
:101900008F3F11F00E949318F1E00D321F07A9F7E5
:10191000E5E9F1E0AEEAB1E0119211921D921D925B
:1019200021E0EF39F207C1F70E94431B811102C089
:101930000E944E1B82E090E00E9445298093A30103
:101940000E94321B9093BD018093BC010E94AA1893
:101950008FE39CE90197F1F700C000000E94AA18EC
:101960008091AE0180FF08C06FEF7FEF80E090E0D4
:101970000E9477290E94E91783E090E00E944529A0
:101980000E94A227229A2A9A269A2E9882E280936F
:10199000800089E1809381008FEF9FEF9093870013
:1019A000809386000E943A210E943A2180919F01F3
:1019B000811133C00E94431B811104C00E944E1B41
:1019C0000E94C02388E090E00E944D2960938D0220
:1019D00070938E0280938F02909390026E7F71F4C9
:1019E0000E94C02388E090E00E944D2960938D0200
:1019F00070938E0280938F02909390020E947923BD
:101A00001092590280918D0280FF04C060E086959B
:101A10000E94582581E080939F0180E091E090939F
:101A200099028093980278E1C72ED12CE0E43E2EF3
:101A3000BB24B394AA24A3948E010F5F1F4F8091FF
:101A4000E601853009F07DC050E1E52E62E1F62E19
:101A50008091E601853009F05BC08091E601843019
:101A600009F443C080E00E94B72080E00E94E104B6
:101A7000109259028091A101811116C0A092A1017A
:101A800080918D02982F91709093A0018E7F80930A
:101A90008D029FEFE0E7F2E09150E040F040E1F787
:101AA00000C000000E94932110929C020FB6F8948F
:101AB000A895C09260000FBE3092600083B7817F0E
:101AC000846083BF83B7816083BF7894889583B730
:101AD0008E7F83BF0FB6F894A895809160008861CF
:101AE00080936000109260000FBE8091E501882312
:101AF00009F4AECF0E94AA18EEEAF1E0819191912B
:101B0000892B09F02AC421E0E83BF207B9F7A0CFFE
:101B10000E94D2270E943A210E94761F0E94E1046F
:101B20001092A1018091A001882349F080918D023B
:101B3000816080938D0260E086950E9458250E9406
:101B40007D210E94AA18882359F08FB7F8944091FC
:101B5000B8015091B9016091BA017091BB018FBF7A
:101B6000A4EAB1E0EEEAF1E0E12CF12C7E2D219126
:101B700031918D919D9182279327009779F160E0B3
:101B800088248394912CAC0148215921452B09F1DB
:101B900069A37AA32821392181E0232B09F480E06D
:101BA0008BA30E9442188160782F9DA38CA349A12A
:101BB0005AA16BA18DA10E943904F701EE0FFF1FFE
:101BC000EC55FE4F808191818826992691828082F2
:101BD0001CC06F5F880C991C6F30A9F63FEFE31AA9
:101BE000F30A45E0E416F10409F68FEF8EA38FA304
:101BF00018A60E9442188160782F9AA789A74EA143
:101C00005FA168A58AA50E943904809159028823A2
:101C100009F498C080915802E0918D02E695E81B86
:101C2000E0935402823059F4F0E0E852FE4FE49120
:101C3000EE2EF12C20EB822E2EE1922E5EC086300D
:101C400059F4F0E0EB52FE4FE491EE2EF12C90EAC5
:101C5000892E9EE1992E51C0893061F4E695F0E01D
:101C6000EE52FE4FE491EE2EF12C8EE3882E83E2AD
:101C7000982E43C08F3061F4E695F0E0E153FE4FBB
:101C8000E491EE2EF12CBAED8B2EB2E29B2E35C0F4
:101C9000853159F4F0E0E453FE4FE491EE2EF12C3F
:101CA000ACE88A2EA2E29A2E28C08831B1F08332A5
:101CB00049F4EAECF1E0E590F490F0E68F2EFEE1D5
:101CC0009F2E1BC0843289F070EDE72E77E0F72E4F
:101CD000EFE58E2EEEE19E2E10C058E2E52EF12C9F
:101CE00063E0862E62E2962E08C034EFE32EFF24D6
:101CF000F39449EC842E41E2942E8091550288237E
:101D000061F0109255020E94421890935302809302
:101D1000520210925702109256020E944218E0910D
:101D20005202F09153028E1B9F0B8F3F9F4750F43E
:101D3000EE0EFF1EF0925302E092520282E592E014
:101D4000F401099586E0E4EAF2E0D80101900D92F1
:101D50008A95E1F78090A6029090A702E090A802F1
:101D6000F090A9021092A6021092A7021092A80267
:101D70001092A902811003C0992009F44FC08091EC
:101D8000A2029091A3020E9433189C0190919E029E
:101D9000992309F4F8C22333310508F43FC09F3F6B
:101DA00019F09F5F90939E02882061F00E9469263F
:101DB000181414F491E001C09FEF899F802D112425
:101DC0008093A602992061F00E946926191414F4E8
:101DD00091E001C09FEF899F802D11248093A7027D
:101DE0003091A6023323D1F02091A7022223B1F033
:101DF00045EB3403C0011124992319F09093A602F6
:101E000002C0B092A60235EB2303C001112499232E
:101E100019F09093A70202C0B092A702E11003C08C
:101E2000FF2009F44FC08091A0029091A1020E946E
:101E300033189C0190919D02992309F4A9C225367B
:101E4000310508F43FC09F3F19F09F5F90939D02BA
:101E5000EE2061F00E9447261E1414F491E001C0A8
:101E60009FEF899F802D11248093A802FF2061F0AD
:101E70000E9447261F1414F491E001C09FEF899F30
:101E8000802D11248093A9023091A8023323D1F030
:101E90002091A9022223B1F045EB3403C0011124A3
:101EA000992319F09093A80202C0B092A80235EBD2
:101EB0002303C0011124992319F09093A90202C0B1
:101EC000B092A9028091A60281110BC08091A70255
:101ED000811107C08091A802811103C08091A902DD
:101EE00081110E94A6258B829C82ED82FE8286E073
:101EF000F801A4EAB2E001900D928A95E1F70E9400
:101F0000761F9091A201891731F00E94761F80936D
:101F1000A2010E94E1048091E601843009F08FCD96
:101F200083E08093E9008091E80082FF88CD809172
:101F3000E80085FF21C00E94F81681111BC020E235
:101F4000E22EF12C480109C08091F100F401819347
:101F50004F01F1E0EF1AF10869F08091E80085FD8A
:101F6000F3CF8091E8008B778093E8000E94F81609
:101F7000882399F391E001C090E08091E8008B778D
:101F80008093E800992309F45ACDE9818E2F90E0DF
:101F9000FC013197E331F10508F0B5C1EE59FF4F6F
:101FA0000C94E7291A8289E01CC18A81823099F059
:101FB000833051F1813009F0A6C12FB7F894809198
:101FC000B8019091B901A091BA01B091BB012FBFA6
:101FD000BB83AC8346C086E290E00E944529F82E80
:101FE00087E290E00E9445294F2D50E060E070E0CC
:101FF000762F652F542F44273A014B01682AD401CC
:10200000C3011B821C822DC0F801CE010B96AEEAE3
:10201000B1E02C9111963C91119712963283238353
:1020200032968E179F07A9F770C18A81823009F016
:102030006AC16B817C818D819E810E94ED292B017B
:102040003C0187E290E00E9459299927872D762D3F
:10205000652D86E290E025C04C816B818A810E94CB
:1020600039209D838E8351C18D809E809824892440
:1020700098248C81EB809A812EE1E29E70011124DC
:1020800036E9939FE00CF11C1124E80EF11CE80ED8
:10209000F11C692DC70188960E945929682DC70136
:1020A00089960E94592931C10E9405202EC18A813A
:1020B000893061F48B8145E0849FC00111246FEF6A
:1020C00070E00E949D29862F0E9421218A818138FB
:1020D000B1F050F4803809F018C120E04B816091D4
:1020E0008F0280918E0231C0823859F1833809F015
:1020F0000CC120E0409190026C818B8126C060E091
:102100008B810E9458259B8180918D02911111C075
:102110008E7F80938D02109259028FEF90E7E2E05C
:1021200081509040E040E1F700C000000E94932100
:10213000ECC0816080938D0260E086950E945825F6
:10214000E4C08B8180939102E0C00E947F24DDC0B7
:102150008A81893021F08A3089F41B82D6C080912F
:102160009202869586958695FFEF8F9FC001112478
:1021700065E070E00E949D296B83C7C0813899F0AB
:1021800030F4803809F0C1C0809190022AC08238B2
:1021900091F0833809F0B9C080918E028B838091D1
:1021A0008F028C83B2C080918D0280FF02C0869521
:1021B00018C080E016C08091910213C080919202F5
:1021C0000E941C2160918D0270918E0280918F027D
:1021D000909190020E948C2398C080E14FC0BA82F7
:1021E00080E88B8392C0EA80FB80FE24EF24FE24EB
:1021F0008C80912C3801C70180589D4F9301201B82
:10220000310B2815390508F080C020E8E21621E0DE
:10221000F20628F40E944529F301848302C0F301E9
:102220001482FFEFEF1AFF0A2FEF621A720AE3CF50
:10223000EA80FB80FE24EF24FE248C80912C380160
:10224000C70180589D4F9301201B310B281539057C
:1022500008F05BC030E8E31631E0F30620F4F30148
:1022600064810E945929FFEFEF1AFF0A2FEF621ACB
:10227000720AE6CF0E94F51F48C084E08A8345C0F9
:10228000EA80FB80FE24EF24FE248C80912C380110
:10229000C70188969301201B310B28153905A8F535
:1022A00038E5E31632E0F30628F40E944529F301ED
:1022B000848302C0F3011482FFEFEF1AFF0A2FEFAD
:1022C000621A720AE5CFEA80FB80FE24EF24FE2426
:1022D0008C80912C3801C70188969301201B310B0B
:1022E0002815390590F438E5E31632E0F30620F4BA
:1022F000F30164810E945929FFEFEF1AFF0A2FEFC3
:10230000621A720AE8CF8FEF89838091E6018430E8
:1023100009F095CB8091E9008F702091EC00922F0D
:10232000917020FD90E8F92EF82A82E08093E90070
:102330008091E80080FF0CC040E050E060E270E077
:10234000C8010E942B178091E8008E778093E800E7
:102350008F2D8F708093E90072CBE9BCF9BC09B472
:1023600000FEFDCF8091D8008F7D8093D8008091B2
:10237000E00082608093E0008091E00081FDFCCF6E
:102380000E94D22765CB2D32314008F00ACD46CDD0
:102390002D32314008F059CD95CD8091E80187FF6D
:1023A00011C08091E80082FD05C08091E601811195
:1023B000F8CF11C08091E8008B770BC08091E601C7
:1023C000882349F08091E80080FFF8CF8091E800F1
:1023D0008E778093E8000895982F973068F5909352
:1023E000E900981739F07091EC002091ED005091C0
:1023F000F00003C0242F762F50E021FD02C09F5F24
:10240000ECCF3091EB003E7F3093EB003091ED004C
:102410003D7F3093ED003091EB0031603093EB0065
:102420007093EC002093ED005093F0002091EE00AB
:1024300027FDE5CF80E008958F708093E90081E06B
:1024400008952091EE013091EF012617370748F0EB
:102450006115710539F42091E8002E772093E8008A
:1024600001C0B901FC0120E06115710579F180918D
:10247000E6018823F1F18530F1F18091E80083FDD8
:102480003CC08091E80082FD2EC08091E80080FF72
:10249000EBCF2091F3008091F20090E0922B611538
:1024A000710551F08830910538F421912093F100A5
:1024B000615071090196F3CF21E0089709F020E0FF
:1024C0008091E8008E778093E800CECF2111CFCFA6
:1024D0000AC08091E601882361F0853061F0809127
:1024E000E80083FD0AC08091E80082FFF2CF80E01F
:1024F000089582E0089583E0089581E00895809131
:10250000C30108958091F001982F9670963011F4D0
:10251000886001C0877F0C9487271F93CF93DF9338
:10252000CDB7DEB7AA970FB6F894DEBF0FBECDBF0A
:10253000E8EEF1E08091F100819341E0E03FF407A3
:10254000C9F78091E901833009F462C030F4813029
:1025500071F0823009F49CC0B3C08A3009F488C09D
:102560008B3009F46DC0893009F0AAC020C0809179
:10257000E801813A09F0A4C08091E800877F809348
:10258000E8008091EC019091ED01892B21F460E24B
:1025900084EC91E003C060E080E090E070E00E9495
:1025A00021128091E8008B778093E80089C08091A8
:1025B000E801813209F084C08091EC019091ED0135
:1025C000009719F0029709F07BC08091E800877F9F
:1025D0008093E8008091E80082FD05C08091E601CB
:1025E0008111F8CF6DC02091F3008091F20090E04E
:1025F000922B029729F48091F1008B7F813021F496
:102600008091F1008093C3018091E8008B7754C0E2
:102610008091E801813A09F053C08091EC019091DA
:10262000ED01892B09F04CC08091E800877F8093F1
:10263000E8008091E80080FFFCCF80910A0137C05C
:102640008091E8018132E1F58091EC019091ED01FA
:10265000892BB1F58091E800877F8093E8000E9484
:10266000CD118091EA0180930A010E94D22728C0EF
:102670008091E801813221F58091E800877F809385
:10268000E8000E94CD118091EB018093C20118C037
:102690008091E801813AA1F48091E800877F8093DE
:1026A000E8008091E80080FFFCCF8091C201809318
:1026B000F1008091E8008E778093E8000E94CD11B0
:1026C0008091E80083FFDDC18091E8019091E901EC
:1026D000492F50E04A30510508F0D3C1FA01EB58B8
:1026E000FF4F0C94E729803821F0823809F0C9C1E6
:1026F00008C08091E4019091E501992389F08260FE
:102700000FC08091EC018F70873008F0BAC18093C0
:10271000E9008091EB0085FB882780F91092E900A1
:102720009091E800977F9093E8008093F1001092D9
:10273000F10070C1282F2D7F09F0A3C1882319F063
:10274000823061F09EC18091EA01813009F099C127
:10275000933009F080E08093E5012EC08091EA017A
:1027600081112AC08091EC018F702FEF280F263045
:1027700008F087C18093E9002091EB0020FF1CC086
:10278000933021F48091EB00806214C09091EB00B3
:1027900090619093EB0021E030E0A90102C0440F6A
:1027A000551F8A95E2F74093EA001092EA00809163
:1027B000EB0088608093EB001092E9008091E800C4
:1027C000877F8093E8000E94CD115BC1811159C1C0
:1027D0001091EA011F778091E3008078812B80932C
:1027E000E3008091E800877F8093E8000E94CD118C
:1027F0008091E80080FFFCCF8091E30080688093A7
:10280000E300111102C082E001C083E08093E60181
:1028100038C18058823008F034C12091EA013091EB
:10282000EB012C3D53E0350779F583E08A838AE29A
:1028300089834FB7F894DE01139620E03EE051E221
:10284000E32FF0E050935700E49120FF03C0E2959E
:10285000EF703F5FEF708E2F90E0EA3010F0C79678
:1028600001C0C0968D939D932F5F243149F74FBFD0
:102870008091E800877F8093E8006AE270E0CE01F3
:1028800001960E942112B4C08091EC019091ED015B
:10289000432F552743305105A9F068F441305105C5
:1028A00009F4FEC04230510509F0EBC08BE590E021
:1028B000E4EFF2E04BC04132510529F142325105BB
:1028C00089F1DFC0C901992781309105A1F058F045
:1028D000029709F0D6C0E1E6F3E0E4918E2F90E094
:1028E000E1E6F3E030C0EFE7F3E0E4918E2F90E013
:1028F000EFE7F3E028C0EDE6F3E0E4918E2F90E0FF
:10290000EDE6F3E020C08330910508F0BAC0880FEF
:10291000991FFC01EA5CFE4F0190F081E02D89E0F7
:1029200090E014C08330910508F0ABC0FC01EE0FBD
:10293000FF1FE05DFE4F0190F081E02DDC01A35D03
:10294000BE4F8C9190E0009709F49BC02091E80065
:10295000277F2093E8002091EE013091EF012817A6
:10296000390708F4C90140E0009789F12091E60198
:10297000222309F43DC02530D9F12091E80023FD40
:1029800037C02091E80022FD2FC02091E80020FFF1
:10299000EBCF4091F3002091F20030E0342B009710
:1029A00059F02830310540F444914093F1003196BC
:1029B00001972F5F3F4FF3CF41E02830310509F0F9
:1029C00040E02091E8002E772093E800CDCF411120
:1029D000CDCF0AC08091E601882351F0853041F0C7
:1029E0008091E80083FD04C08091E80082FFF2CF6F
:1029F0008091E8008B778093E80043C0803809F02D
:102A000040C08091E800877F8093E8008091E701D3
:102A10008093F1008091E8008E77D3CE811131C090
:102A20008091EA019091EB019927029754F58091EA
:102A3000E800877F8093E8001091EA011093E70196
:102A40000E94CD11111106C08091E30087FD02C0E4
:102A500081E001C084E08093E60142E061EC81E026
:102A60000E94EC1142E261EC84E00E94EC1142E22F
:102A700061EC82E00E94EC1142E260EC83E00E9493
:102A8000EC118091E80083FF10C08091E800877FFF
:102A90008093E8008091EB0080628093EB0005C09A
:102AA00082E190E0EFE4F3E051CFAA960FB6F894FC
:102AB000DEBF0FBECDBFDF91CF911F9108951F9252
:102AC0000F920FB60F9211242F933F934F935F9362
:102AD0006F937F938F939F93AF93BF93CF93DF9326
:102AE000EF93FF93C091E900CF708091EC00D82F55
:102AF000D17080FDD0E81092E9008091F000877FCE
:102B00008093F00078940E948D121092E9008091D9
:102B1000F00088608093F000CD2BCF70C093E90067
:102B2000FF91EF91DF91CF91BF91AF919F918F91E5
:102B30007F916F915F914F913F912F910F900FBEB9
:102B40000F901F901895E8EDF0E080818E7F8083D4
:102B50001092E2001092DA001092E100A0EEB0E0D4
:102B60008C9181608C9380818F77808319BCA7EDD5
:102B7000B0E08C918E7F8C9380818F7E80831092C9
:102B8000C1010895CF92DF92EF92FF920F931F93AE
:102B9000CF93DF93C8EDD0E088818F7E8883E7ED07
:102BA000F0E080818160808384E082BF81E0809357
:102BB000C10188818E7F888302EE10E0F8011082C7
:102BC0001092DA0081EEC82ED12CF6011082888195
:102BD0008F77888388818068888388818F7D8883C8
:102BE00019BC1092E6011092E7011092E5011092D3
:102BF000E40190EEE92EF12CF70180818B7F808338
:102C000088818160888342E060E080E00E94EC116E
:102C1000F60180818E7F8083F801808181608083CE
:102C2000808188608083F70180818E7F80838881A6
:102C300080618883DF91CF911F910F91FF90EF907A
:102C4000DF90CF9008951F920F920FB60F9211242C
:102C50002F933F934F935F936F937F938F939F93A4
:102C6000AF93BF93EF93FF938091E10082FF09C080
:102C70008091E20082FF05C08091E1008B7F80930C
:102C8000E1008091DA0080FF2AC08091D80080FFA7
:102C900026C08091DA008E7F8093DA008091D9007F
:102CA00080FF18C080E189BD82E189BD09B400FEC2
:102CB000FDCF81E08093E6018091C10181110FC0B9
:102CC0000E94A3150E94C2158091E2008460809347
:102CD000E20005C019BC1092E6011092C10180917A
:102CE000E10080FF17C08091E20080FF13C0809157
:102CF000E2008E7F8093E2008091E2008061809309
:102D0000E2008091D80080628093D80019BC85E0F1
:102D10008093E6018091E10084FF2EC08091E20063
:102D200084FF2AC080E189BD82E189BD09B400FE2B
:102D3000FDCF8091D8008F7D8093D8008091E100F5
:102D40008F7E8093E1008091E2008F7E8093E2008D
:102D50008091E20081608093E2008091E701882306
:102D600011F084E007C08091E30087FD02C081E09C
:102D700001C083E08093E6018091E10083FF27C0DA
:102D80008091E20083FF23C08091E100877F8093E0
:102D9000E10082E08093E6011092E7018091E1007A
:102DA0008E7F8093E1008091E2008E7F8093E2002D
:102DB0008091E20080618093E20042E060E080E088
:102DC0000E94EC118091F00088608093F000FF91E8
:102DD000EF91BF91AF919F918F917F916F915F9193
:102DE0004F913F912F910F900FBE0F901F9018950C
:102DF0002091E4003091E50095E64091EC00842FAD
:102E0000817040FF23C08091E80080FD1DC080914B
:102E1000E601882399F0853099F08091EB0085FDDB
:102E200011C04091E4005091E5002417350729F3C3
:102E3000915011F09A01E1CF84E0089582E0089565
:102E400083E0089581E0089580E008954091E800CE
:102E500042FFDDCF0895EF92FF920F931F93CF9320
:102E6000DF937C018B010E94F816811119C0E701E4
:102E700001151105A1F08091E80085FD0AC080913F
:102E8000E8008E778093E8000E94F816882381F38B
:102E900007C089918093F10001501109E9CF80E0CA
:102EA000DF91CF911F910F91FF90EF900895909136
:102EB000E601943029F58093BE017093C0016093C0
:102EC000BF019093E9008FEF9091E800815095FD4C
:102ED00006C095ED9A95F1F700008111F5CF80912C
:102EE000E80085FF0DC040E050E063E070E08EEB4D
:102EF00091E00E942B178091E8008E778093E80084
:102F00000895BC0184E00C945717BC0183E00C9435
:102F1000571724E02093E9002FEF3091E80021506B
:102F200035FD06C035ED3A95F1F700002111F5CFDA
:102F30002091E80025FF0BC040E050E066E070E023
:102F40000E942B178091E8008E778093E800089507
:102F5000CF93DF9320910A01222339F02091BC0105
:102F600027FF03C060E224E002C068E021E0209374
:102F7000E9002FEF3091E800215035FD06C035ED16
:102F80003A95F1F700002111F5CF2091E80025FFD7
:102F90001DC0EC0180910A01811105C040E050E0A4
:102FA00068E070E003C070E040E050E0CE010E94B5
:102FB0002B178091E8008E778093E80080E2FE0175
:102FC000A4ECB1E001900D928A95E1F7DF91CF91E9
:102FD000089581E08093E00080E28093D800109211
:102FE000C9008FE19EE40197F1F700C0000087E07F
:102FF00090EBDC018093C8029093C902A093CA02AF
:10300000B093CB029CE088E10FB6F894A89580932A
:1030100060000FBE90936000FFCF78941F920F92D4
:103020000FB60F9211248F939F93AF93BF9380910C
:10303000B8019091B901A091BA01B091BB0101967C
:10304000A11DB11D8093B8019093B901A093BA015D
:10305000B093BB01BF91AF919F918F910F900FBE25
:103060000F901F9018959C014FB7F8948091B8016C
:103070009091B901A091BA01B091BB014FBF821BE1
:10308000930B08952FB7F8948091B8019091B901EE
:10309000A091BA01B091BB012FBF089580E00895BF
:1030A0009091BC0192FF0DC0282F2871283019F48F
:1030B000877F846006C0282F2471243011F48B7F11
:1030C000886093FF0DC0282F2871283119F4877E5E
:1030D000846106C0282F2471243111F48B7E88610D
:1030E0002091BD0120FF0DC0382F3871383019F400
:1030F000877F816006C0382F3171313011F48E7FA7
:10310000886021FF0DC0282F2871283119F4877E8F
:10311000816106C0282F2171213111F48E7E8861D2
:1031200094FD877E0895F894E82FE295EF70F0E023
:1031300031A1282F2F7081E090E001C0880F2A95DF
:10314000EAF7982F9095932391A392A1892B82A3BC
:10315000789408956F927F928F929F92AF92BF92D0
:10316000CF92DF92EF92FF920F931F93CF93DF9353
:10317000CDB7DEB72A970FB6F894DEBF0FBECDBF2E
:10318000AE014F5F5F4F7A018AE0DA011D928A95A6
:10319000E9F709E111E06A018EE1682E81E0782EFD
:1031A00088248394912CF80180818F3F09F44DC0CD
:1031B000F894E82FE295EF70F0E021A18F70A40160
:1031C00002C0440F551F8A95E2F7CA01922F982B2F
:1031D00091A392A18095892382A3789400C0EEE107
:1031E000F1E020E030E0A12CB12C81918F3FC1F0C3
:1031F000A82FA295AF70B0E090964C9150E08F70E0
:10320000DA0102C0B595A7958A95E2F7A0FD08C03E
:10321000C401022E02C0880F991F0A94E2F702C06F
:1032200080E090E0A82AB92A2F5F3F4F2F30310568
:10323000E1F6F80180818F3F11F00E949318F0EAC7
:10324000FA95F1F7D601AD92BC920F5F1F4FB2E035
:10325000CB0ED11C6016710609F0A5CF4AE050E0F4
:10326000B70185E991E00E94322A11E0009709F444
:1032700010E0892B89F08AE0F701A5E9B1E001901F
:103280000D928A95E1F781E0809351020E944218E5
:103290009093500280934F0280915102882391F1C4
:1032A00080914F02909150020E943318059750F17F
:1032B00080919501909196019093AF018093AE011A
:1032C00080919701909198019093B1018093B00102
:1032D0008091990190919A019093B3018093B201EA
:1032E00080919B0190919C019093B5018093B401D2
:1032F00080919D0190919E019093B7018093B601BA
:1033000010925102812F2A960FB6F894DEBF0FBE9D
:10331000CDBFDF91CF911F910F91FF90EF90DF9084
:10332000CF90BF90AF909F908F907F906F900895B7
:10333000CF93DF938238910569F1B0F48133910521
:1033400009F46FC048F48932910509F465C08A32E6
:10335000910509F46BC08AC08533910509F457C003
:1033600089339105B9F082C0833E910571F138F43B
:10337000803E9105B1F0823E910511F177C0863E05
:103380009105B9F1873E9105C9F1843E910509F097
:103390006DC024C02091BC0120FD53C021FD51C04F
:1033A00065C08091BC0180FD46C08091BD0180FF59
:1033B00048C08091BC0184FD50C183EE90E04FC1B4
:1033C0008091BC0182FF3AC0F4CF8091BC0182FDA4
:1033D00035C08091BD0180FD34C0EBCF8091BD012F
:1033E00081FF35C08091BC0184FD37C187EE90E03C
:1033F00036C18091BC0183FF27C0F4CF8091BC010E
:1034000083FD22C08091BD0181FD21C0EBCF809161
:10341000BC0185FD1FC021C08091BC0185FD1DC080
:1034200019C08091BC0186FD1BC01DC08091BC01EC
:1034300086FD19C015C089E390E011C182EE90E0CD
:103440000EC180EE90E00BC186EE90E008C184EEE4
:1034500090E005C189E290E002C185E390E0FFC001
:103460008AE290E0FCC081E390E0F9C0811531E58B
:10347000930708F069C0811540E59407F0F09C01BE
:1034800074E0369527957A95E1F7922F9370482F3F
:10349000437021E030E002C0220F331F4A95E2F76B
:1034A0003C68392B982F9F709695969540E2949F93
:1034B000C0011124822B932BD2C0883E910568F560
:1034C000803E910508F0CBC0883A9105B8F4853A62
:1034D000910548F0855AE82FF0E0E45CFE4F8081CA
:1034E00090E09064BCC08130910509F4B3C008F449
:1034F000B4C08430910508F4B0C0B1C08F3B9105D1
:1035000008F0ABC0885AE82FF0E0EE0FFF1FE15C37
:10351000FE4F808191819464A2C0811520E29207C0
:1035200058F4811531E0930708F099C0803F910568
:1035300008F493C0906593C0811540E4940708F4A3
:103540008CC09F70906A8BC0811525E5920708F0AA
:1035500042C0811534E5930728F0982F8827846F9F
:10356000906A7DC0811543E59407B0F09C012370FB
:10357000332741E050E002C0440F551F2A95E2F77F
:10358000282F2695269580E2289F90011124CA01B4
:10359000822B932B9A6863C0811522E5920728F449
:1035A000982F8827816F906A5AC09C012370332717
:1035B00041E050E002C0440F551F2A95E2F7282F42
:1035C0002695269580E2289F90011124CA01822B1E
:1035D000932B9C6844C0EC01811539E59307A8F44E
:1035E0008115984528F09C2F8827806F906A37C0F6
:1035F000C11586E5D80788F58C2F0E9450188F7169
:1036000090E0982F882790622AC081152AE59207BA
:1036100090F48C2F8F700E94501894E0D695C79527
:103620009A95E1F7CF70D0E0DC2FCC27D0699E01CE
:10363000282BC90114C090568115904270F48D2F2B
:103640008F710E945018282F2F71CE0199279062F8
:10365000922B05C081E090E002C080E090E0DF9115
:10366000CF910895CF9384E090E00E944529C82F20
:1036700082E290E00E9445292C2F30E0A901582BCE
:10368000CA01CF91089580E090E00E945329893EBD
:103690009E4F11F40C949E2080E0089569EE7EEF19
:1036A00080E090E00E94772960E082E090E00E9454
:1036B000592960E083E090E00E94592910924E025F
:1036C00060E084E090E00E94592960E082E290E0AE
:1036D0000E94592960E085E090E00E94592960E04D
:1036E00086E090E00E9459296FEF87E090E00E9409
:1036F000592940E050E0BA0188E090E00E946B292F
:1037000060E08DE090E00E94592940E050E0BA016D
:1037100088E190E00E946B2960E087E190E00E94E0
:10372000592940E050E0BA018CE190E00E946B29F9
:1037300060E070E080E290E00E94772940E050E095
:10374000BA0188E190E00E946B2980E00E946C2021
:103750000E948A2040E050E0BA018FE090E00E9491
:103760006B2940E050E0BA0183E190E00C946B29B2
:1037700080914D02811110924D02089590914C025A
:1037800080914B02892B20914A02982F922B909383
:10379000F10180914D028823D9F0892B8093F101AA
:1037A00080910A01882331F08091BC0187FF02C01B
:1037B0008EE101C086E0E3EFF1E090E0815028F077
:1037C00021912223D9F39F5FF9CF91110E94B81B59
:1037D000E0919802F09199023097A9F080910A0146
:1037E000882359F08091BC0187FF07C08091F101C7
:1037F0008093F20185E08093F1010280F381E02D56
:1038000081EF91E009940895CF93C091BD01C2FB6F
:10381000992790F9981781F080FBC2F9C093BD01F8
:103820006091BC0184E090E00E9459296C2F82E2F3
:1038300090E0CF910C945929CF910895209149029D
:103840008095822380934902982F977041F430E04D
:10385000482F082E000C550B2417350721F49091A2
:10386000BD0192FF07C08595859585950E948B27A0
:103870001092490208958091480290911702891789
:1038800019F08F5F8770FBCF08950F931F93CF932D
:10389000DF938091160282958F7009F05DC0809150
:1038A0001302882309F458C080914802109117022E
:1038B0006091110270911202C0911402D091150210
:1038C00091E06F3F09F090E0292F06E0811709F49D
:1038D00043C0209721F07F3F21F030E003C031E06A
:1038E00001C0322F90E030FD34C0089FF001099FE5
:1038F000F00D1124DF01A85EBD4F11963C91119788
:10390000371327C03C91361324C012963C9112976E
:1039100031111FC013964D915C9114974C1B5D0B98
:10392000483C5105B0F4809116028F7080618093FD
:103930001602E35EFD4F80818F708061808381E19C
:1039400092E00E94E704DF91CF911F910F910C94B8
:103950003B1C01968770BACFDF91CF911F910F91D9
:103960000895CF93DF93EC010E940127BE010E94CE
:103970005F200E949819DF91CF9108959F92AF9296
:10398000BF92CF92DF92EF92FF920F931F93CF934C
:10399000DF93CDB7DEB761970FB6F894DEBF0FBEE9
:1039A000CDBF8C0185E0F801DE011D9601900D92DE
:1039B0008A95E1F7F801E28090911102609112027C
:1039C00040911402509115024115510531F06F3F9D
:1039D00031F481E09F3F19F403C081E001C080E031
:1039E000F82FF1709F2E80FD1AC1F80130812181DE
:1039F000C380D48081E1A82E82E0B82EF09013021B
:103A0000F601E41BF50BFF2009F4C6C080911602F5
:103A1000E83CF10508F091C0482F407F09F050C004
:103A2000621311C093130FC0FE2CE1100CC08F70F5
:103A3000806180931602C5010E94E70480911602FE
:103A4000F801858329C1CD2831F02F3F31F481E081
:103A50003F3F19F403C081E001C080E080FD03C056
:103A600081E08E2502C080E090E0F82FF170FF2EFB
:103A700080FF1CC0809148024091170256E08417D5
:103A800009F4E8C090E0589FF001599FF00D11240F
:103A9000E85EFD4F6181261306C06081631303C099
:103AA0006281E61203C001968770E9CFFE2CEE20FA
:103AB00009F4F2C08091160281608093160249C019
:103AC000621306C0931304C0E11002C0F80186C05F
:103AD000C8010E94A627882351F1EE2041F12091D0
:103AE0001602822F82958F7090E0029774F0809179
:103AF00011029091120298878F831986DB86CA86FD
:103B00002C87CE0107960E94E70486E0F801A1E128
:103B1000B2E001900D928A95E1F70E94451C0AC01F
:103B20006217C9F0C8010E94A62781111EC0C801F2
:103B30000E94E704FF24F394AFC0482F407F81F731
:103B400081E192E00E94E70486E0F50111928A95F6
:103B5000E9F7F12CA1C09313E5CFE110E3CFF80111
:103B60008583C8010E94E70454C0EE2001F3209130
:103B70001602822F82958F7090E0029734F2809126
:103B80001102909112029A8389831B82DD82CC827A
:103B90002E83CE010196B7CFE83CF105D0F5FE2C7F
:103BA000EE2029F2621327C0931325C0209116023C
:103BB00020FD18C0822F82958F70482F50E041154C
:103BC000510581F0F80125834F30510541F08F5F99
:103BD000982F9295907F822F8F70892B8583C801B3
:103BE0000E94E70486E0F801A1E1B2E001900D92A5
:103BF0008A95E1F751C0C8010E94A627811185CF9F
:103C000080911602816080931602C8010E94E70429
:103C100043C086E0F50111928A95E9F73DC0EE2098
:103C200009F485CFC8010E94A627F82E882309F43D
:103C30007ECF86E0F801A1E1B2E001900D928A9575
:103C4000E1F780911102909112020E94B11C0E9432
:103C5000451C22C03D872E878D859E850E94B11C04
:103C6000292F22952F70223028F49F7039F081116E
:103C700005C00BC0243028F49F7049F4805E883062
:103C800020F0C8010E94E7049F2CF92C05C0F80120
:103C90009581907F99F7F9CF8F2D61960FB6F894A3
:103CA000DEBF0FBECDBFDF91CF911F910F91FF906F
:103CB000EF90DF90CF90BF90AF909F9008950895C0
:103CC0000F931F93CF93DF9300D01F92CDB7DEB732
:103CD0008C0180915C0281110AC09E012F5F3F4FD1
:103CE0004FEF6FEF0E94CF238A8180935C02F8012F
:103CF0008481813051F028F0823061F440915C027F
:103D00000AC080915C0240E007C060915C0240E024
:103D100080E003C040E080E060E00E946823F8019A
:103D2000848190E0019663E070E00E94B129848371
:103D30000F900F900F90DF91CF911F910F910895E9
:103D4000CF93DF93EC01EDE8F2E0438162818C8157
:103D50000E9465248C818F5F8C83DF91CF910895C1
:103D6000CF93DF93EC01EC81F0E0ED57FC4F4491F1
:103D7000EDE8F2E0628181810E9465248C818F5F91
:103D80008C83DF91CF9108951F920F920FB60F92FF
:103D900011248F939F93AF93BF9380919C028111C5
:103DA00013C08091B8019091B901A091BA01B0916E
:103DB000BB014196A11DB11D8093B8019093B9013B
:103DC000A093BA01B093BB01BF91AF919F918F9126
:103DD0000F900FBE0F901F90189520910A0122237B
:103DE000C9F02091BC0127FF15C0262F26952695E6
:103DF00026952E31C8F4FC01E20FF11D677081E0B9
:103E000090E001C0880F6A95EAF780959281892336
:103E100082830895FC0106962281621301C01282FA
:103E20003196E817F907C1F7089520910A01222376
:103E3000C1F02091BC0127FF14C0262F269526959E
:103E400026952E3130F5FC01E20FF11D677081E0FF
:103E500090E001C0880F6A95EAF79281892B8283EE
:103E60000895FC0132962FEF30E04191641789F0FC
:103E70002F3F19F4411101C0232F3F5F3630A9F7BE
:103E80002F3F39F0FC01E20FF11D27FDFA95628307
:103E90000895089520919A0230919B0228173907BE
:103EA00071F090939B0280939A02E0919802F091B6
:103EB0009902309721F00084F185E02D099408954E
:103EC00020919602309197022817390771F090934C
:103ED000970280939602E0919802F09199023097B0
:103EE00021F00680F781E02D09940895E091980271
:103EF000F0919902309721F00190F081E02D099422
:103F000080E008950F931F93CF93DF93C42FD22F98
:103F1000FC0182818823C9F0409395020E944218D7
:103F2000909394028093930280E28C0F883008F083
:103F300057C0C77081E001C0880FCA95EAF7DF91CA
:103F4000CF911F910F910C94F22780919502481305
:103F500030C080919302909194020E943318883C63
:103F6000910538F510E21D0FCD17B9F080E28C0FE6
:103F7000883040F4C77081E001C0880FCA95EAF725
:103F80000E94E727183028F581E09D2F977001C027
:103F9000880F9A95EAF70E94F227802F0E9427291E
:103FA0001830F0F4D77081E001C0880FDA95EAF795
:103FB0000AC080E28C0F883098F4C77081E001C09D
:103FC000880FCA95EAF7DF91CF911F910F910C945A
:103FD000E727802FDF91CF911F910F910C94272914
:103FE000DF91CF911F910F910895CF93DF93C0E898
:103FF000D2E060E0CE010E9459292196C11584E0EB
:10400000D807B9F7DF91CF910895CF92DF92EF9261
:10401000FF920F931F93CF93DF93C0E0D0E08E0108
:104020000A561F4F6E018EE1C80ED11CFE01ED57DE
:10403000FB4FE590F4906F2DCE0188960E94592990
:104040006E2DCE0189960E9459292296CC15DD0548
:1040500069F70C171D0731F7E80108351240F9F62A
:10406000DF91CF911F910F91FF90EF90DF90CF9054
:1040700008950F931F93CF93DF93C42FD0E0CC0FFD
:10408000DD1F2EE1629FC00DD11D112436E9839FF3
:10409000C00DD11D1124CE0188960E944529082FFC
:1040A00010E0102F0027CE0189960E944529980123
:1040B000282BC901DF91CF911F910F910895462FB1
:1040C000843038F4753028F46F3018F4672F0C946E
:1040D000392080E090E00895CF93C82F811102C06D
:1040E0006FEF01C061E283E290E00E945929C111A3
:1040F00002C06FEF01C060E184E290E00E945929A4
:10410000C11102C06FEF01C061E285E290E0CF9182
:104110000C94592980E00E946C2060E087E290E0D6
:104120000E94592960E086E290E00E9459290E948D
:1041300005200E94F51F81E00C946C2083E290E042
:104140000E944529813281F484E290E00E94452951
:10415000803151F485E290E00E94452991E081325E
:1041600009F090E0892F01C080E081700895CF921E
:10417000DF92EF92FF92863048F4811108C090914F
:1041800080009F7D909380002E9806C085E09091DE
:104190008000906290938000282F30E0AFEFBFEF57
:1041A0000E94FC2925E030E040E050E00E94C52953
:1041B000B42FA32F922F8827492F5A2F6B2F7727A1
:1041C000CA014C3724E1520728F469E070E00E94EC
:1041D0009D2929C0DB01CA018A50974DAF4FBF4FBF
:1041E0006627782F892F9A2F25EF38E241E050E09B
:1041F0000E94C52969017A01CA01B9010E948D296D
:104200009B01AC01C701B6010E948D29BB27A92FD4
:10421000982F872F009721E0A207B10511F0BC016C
:1042200002C06FEF7FEF70938B0060938A00FF9066
:10423000EF90DF90CF900895682F86E090E00C9487
:104240005929863008F085E0909192029770282FC6
:10425000220F220F220F922B90939202987F21E03F
:1042600009F420E09091920220FB90F99093920241
:104270000C94B7200E94431B81110AC00E944E1B60
:104280008091920284708962809392020E941C2124
:1042900086E090E00E94452980939202282F26957F
:1042A0002695269530E02630310524F08770886207
:1042B000809392028091920280FF04C08695869539
:1042C000869501C080E00C94B72090918D0290FFFC
:1042D00004C09695981740F003C0811105C090E086
:1042E000961710F40C949C2561E00C9458258823B3
:1042F00011F0FA0101C0FB01099460918D026695ED
:1043000070E04BE050E08BE091E00E94252A892B81
:1043100019F481E0809359020E944218909353024D
:1043200080935202089580918D0280FF0AC06A9A9C
:104330008EB18B7F9EB194602FB7F894EDE5F2E0DB
:104340000BC0EDE5F2E0118210821282339632E06A
:10435000ED38F307C1F7EBCF32E0ED38F30789F022
:10436000319148E09EB9000000C037FF8EB9330F8D
:10437000000000C000C000C08EB900C04A9591F78F
:10438000EBCF2FBF8FE594E00197F1F700C000005D
:104390000895EF92FF920F931F93CF93DF938C01B9
:1043A000CDE5D2E0E12CF12CF8018481F8E0EF16A4
:1043B000F1041CF4882339F002C0811104C09E016D
:1043C0004091900202C09E0140E060918F02809176
:1043D0008E020E94CF238FEFE81AF80A239690E10D
:1043E000E916F10409F70E949321F801848190E015
:1043F0000196817099278483DF91CF911F910F914E
:10440000FF90EF9008958F929F92AF92BF92CF92BC
:10441000DF92EF92FF920F931F93CF93DF93EC0104
:104420004C81042F10E09801D8010E94FC299B01C7
:10443000AC010E94122A6B017C01E0E2F0E0E01B7B
:10444000F10BA5E5B0E09B01AC010E94122A4B01E3
:104450005C019F01DF010E94F4299B01AC010E94D5
:104460001D2A9B01AC012C0D3D1D4E1D5F1DC5017C
:10447000B4010E94C529822FF22E99E2921728F0EA
:1044800093E0299F900111240DC025E530E0281B01
:104490003109C901880F991F280F391F37FF02C042
:1044A0002F5F3F4F35952795122F10959DE5C92E0B
:1044B00092E0D92E00E085E5E82EEF1801FD02C05C
:1044C0008E2D01C08F2D9601412F60918F020E9489
:1044D000CF230F5F83E0C80ED11C003179F70E9413
:1044E00093218C81811102C091E003C0803219F4C4
:1044F0009FEF9093180190911801890F8C83DF91A1
:10450000CF911F910F91FF90EF90DF90CF90BF90D0
:10451000AF909F908F9008950F931F93CF93DF9349
:10452000CDE5D2E0FE01118210821282339682E044
:10453000ED38F807C1F700E010E080915B02082E2B
:10454000000C990B0817190794F080911701082E99
:10455000000C990B8017910754F09E014091900236
:1045600060918F0280918E020E94CF2303C0198236
:1045700018821A820F5F1F4F239600311105E9F64A
:104580000E9493218091160190915B02980F909365
:104590005B0220911701280F20931701121614F4C3
:1045A0009F301CF0819580931601DF91CF911F9170
:1045B0000F910895CF92DF92EF92FF920F931F9386
:1045C000CF93DF93FC01828180FF03C0DD24DA9466
:1045D00002C0DD24D394CDE5D2E000E010E01982E2
:1045E00018821A8294E0E92EF12CC12C80915A0293
:1045F0008C0D813114F08F7002C087FD805F082E12
:10460000000C990B0817190791F4809190028E9D68
:10461000A0018F9D500D11245595479555954795AF
:104620009E0160918F0280918E020E94CF23CD0C5B
:10463000F1E0EF1AF108D1F60F5F1F4F239600311A
:10464000110569F60E94932180915A0291E0D912D6
:1046500006C0811102C08FE006C0815004C090E006
:1046600001968F70992780935A02DF91CF911F9105
:104670000F91FF90EF90DF90CF900895EF92FF920F
:104680001F93CF93DF93EC018DE5E82E82E0F82EA7
:1046900010E08C8197014091900260918F02810F10
:1046A0000E94CF23115F83E0E80EF11C103F89F7D1
:1046B0000E9493219A818C8190FF02C08F5F01C07C
:1046C00081508C83DF91CF911F91FF90EF900895DF
:1046D00090918D0290FF0CC0EDE5F2E08183608344
:1046E0004283339692E0ED38F907C1F70C94932199
:1046F000089580918D02282F269530E021153105EF
:1047000019F48170826005C02532310524F0817072
:10471000886480938D020895CF92DF92EF92FF928A
:104720006B017C010E947923B701A60188E090E02B
:10473000FF90EF90DF90CF900C946B2980919102C5
:10474000882319F081508093910260918D027091BD
:104750008E0280918F02909190020C948C23809114
:104760009102833018F48F5F8093910260918D02E3
:1047700070918E0280918F02909190020C948C2304
:10478000EDE8F2E083E0808311828FEF8283838300
:10479000148260817181828193810C948C23AF9209
:1047A000BF92CF92DF92EF92FF920F931F93CF931E
:1047B000DF93E82EF62EE901E42FF0E0611106C048
:1047C000E552F94FE4914E2F2E2F71C0062F10E0C5
:1047D000E552F94F4491F42FC42ED12C26E0829F4C
:1047E000C00111242FEF30E0B9010E949D295BEA3E
:1047F0005603C001579F900D11248E0D911D8E0DF3
:10480000911D582F550F580FD901A01BB10BAC9D0E
:10481000C001AD9D900DBC9D900D1124E92FF59E1A
:10482000D0011124AB2FBB277901EA1AFB0AEC9CBB
:10483000D001ED9CB00DFC9CB00D11245901A51ABE
:10484000B108A09E7001A19EF00CB09EF00C112446
:10485000EF2CFF242E193F092C9D80012D9D100D5A
:104860003C9D100D1124212F6230710591F048F408
:1048700061157105E1F061307105B9F4242F4B2FFA
:1048800016C06430710569F040F06630710579F04A
:104890000CC0242F492FE12F0AC0492FEF2F2B2FB7
:1048A00006C0292FE42F412F02C0292FEB2F498367
:1048B0002883EA83DF91CF911F910F91FF90EF90B2
:1048C000DF90CF90BF90AF900895CF93DF9300D04B
:1048D0001F92CDB7DEB790918D0290FF0AC09E0166
:1048E0002F5F3F4F0E94CF234B8169818A810E94B5
:1048F00068230F900F900F90DF91CF9108957F92D2
:104900008F929F92AF92BF92CF92DF92EF92FF92DF
:104910000F931F93CF93DF9300D01F92CDB7DEB7D5
:10492000182FD62E042FC22E90918D0290FF6DC0AD
:10493000E92FE695AE2FB0E0A359BE4F8C9180933E
:1049400058029E7F923061F49E012F5F3F4F812F6E
:104950000E94CF234B8169818A810E94682343C0D2
:10496000823019F4009190023EC0863019F4109103
:104970008E0239C08930D9F38931A9F5E9512E2F3A
:104980002170722EE695F0E0E552F84F85909490F4
:104990003DE5A32E32E0B32EE12CF12C99248E9C20
:1049A000C0018F9C900D9E9C900D112424E0969543
:1049B00087952A95E1F7711002C0810F03C0212F5E
:1049C000281B822F9501402F6D2D0E94CF238FEF42
:1049D000E81AF80A23E0A20EB11C80E1E816F104FF
:1049E000F1F60E94932110938E02D0928F020093D1
:1049F0009002CC2051F060918D0270918E028091D6
:104A00008F02909190020E948C230F900F900F9034
:104A1000DF91CF911F910F91FF90EF90DF90CF909A
:104A2000BF90AF909F908F907F900895EDE8F2E057
:104A3000438128E0421B08F440E021E0628181814B
:104A40000C947F24EDE8F2E0438128E0420F08F463
:104A50004FEF21E0628181810C947F24EDE8F2E048
:104A6000628128E0621B08F460E021E043818181DB
:104A70000C947F24EDE8F2E0628128E0620F08F4F4
:104A80006FEF21E0438181810C947F24EDE8F2E017
:104A9000818121E04381628188500C947F24EDE87C
:104AA000F2E0818121E043816281885F0C947F2460
:104AB00090918D0290FF36C09170811102C092607A
:104AC00006C0853210F0986402C0880F982B90932E
:104AD0008D02662351F060918D0270918E0280915B
:104AE0008F02909190020E948C2360918D026695B6
:104AF00070E04BE050E08BE091E00E94252A892B8A
:104B000019F01092590202C00E947D2181E0809329
:104B1000550220E04091900260918F0280918E02B8
:104B20000C947F24089580918D028695815009F41C
:104B300084E261E00C94582580918D0286958F5F08
:104B4000853208F081E061E00C9458250E944218FB
:104B50002091A602211104C02091A702222321F056
:104B60009093A3028093A2022091A802211104C075
:104B70002091A902222321F09093A1028093A00208
:104B8000E0919802F0919902309749F082E0809389
:104B9000A4020480F581E02D84EA92E0099408954E
:104BA000803F39F49091A70297FF35C01092A70279
:104BB00059C0813F29F49091A7021916BCF32BC06C
:104BC0009091A602823F29F497FF25C01092A60279
:104BD00049C0833F19F41916CCF31DC09091A80267
:104BE000893F29F41916BCF41092A8023BC08A3FF1
:104BF00019F497FF10C0F8CF8B3F39F49091A902B8
:104C000097FF09C01092A9022DC08C3F21F490910A
:104C1000A9021916BCF39CE0980F953080F421E0AE
:104C200030E0A90102C0440F551F9A95E2F7CA016E
:104C300080959091A50289238093A50213C08D3F92
:104C400021F480919F028E7F0BC08E3F21F48091D2
:104C50009F028D7F05C08F3F29F480919F028B7F3B
:104C600080939F028091A602811106C08091A702C5
:104C7000811102C010929E028091A802811106C08B
:104C80008091A902811102C010929D020895809125
:104C90009F0280FD16C081FD16C082FD18C0809164
:104CA0009D02882391F0883290F428E0829FC00111
:104CB000112468E270E00E94B129862F672B29F049
:104CC00007C082E0089584E0089581E0089588E0B7
:104CD000089580919F0280FD14C081FD14C082FD63
:104CE00016C080919E02882381F0843180F422E3F3
:104CF000829FC001112464E170E00E94B129862FD7
:104D000008958CE0089589E1089585E0089582E38F
:104D10000895803F21F40E946926819504C0813F57
:104D200029F40E9469268093A7020895823F21F406
:104D30000E946926819504C0833F29F40E94692658
:104D40008093A6020895893F19F40E94472605C062
:104D50008A3F31F40E94472681958093A8020895E6
:104D60008B3F21F40E944726819504C08C3F29F493
:104D70000E9447268093A90208959CE0980F9530E1
:104D800078F421E030E0A90102C0440F551F9A9544
:104D9000E2F7CA019091A502892B8093A50208959C
:104DA0008D3F21F480919F0281600BC08E3F21F4E2
:104DB00080919F02826005C08F3F29F480919F02FD
:104DC000846080939F02089580E090E00E94601FBD
:104DD00080E090E00E944A1F10924B0210924A021B
:104DE0000E94BE1BE4EAF2E086E0DF011D928A9594
:104DF000E9F710929E0210929D0210929F020C946D
:104E0000A625CF92DF92FF920F931F93CF93DF934C
:104E10006C010091F00180914E02082BC7E0D0E0B8
:104E200010E0C8010C2E02C0959587950A94E2F710
:104E300080FD04C02197A8F7F12C09C0FC2EB60113
:104E40008C2F0E945F200E949819019799F38F2D53
:104E5000DF91CF911F910F91FF90DF90CF90089538
:104E60002FE0929F800D1124682F669566956695B8
:104E7000982F977083E0689FB001112440E050E0C4
:104E800080E0FB01E40FF51FE655FD4F208130E087
:104E9000092E02C0369527950A94E2F72170332730
:104EA000042E01C0220F0A94EAF7822B4F5F5F4F56
:104EB0004330510531F708952FE0929F800D112462
:104EC000E82FE695E695E695877051E001C0550F0D
:104ED0008A95EAF783E0E89FF0011124E655FD4F3B
:104EE00020E030E070E04081CB01022E02C09695B8
:104EF00087950A94E2F7817081958427852384271A
:104F000081932F5F3F4F2330310569F708958093D8
:104F1000F0010C94E42621E030E001C0220F8A95D4
:104F2000EAF720958091F00182230C94872721E0F5
:104F300030E001C0220F8A95EAF78091F001822BC0
:104F40000C94872780934E020C94E426FC01808108
:104F500091810E94B11C292F2F70E92FE295EF70EB
:104F60004E2F50E0FA013297EE30F105B8F4E158D7
:104F7000FF4F0C94E729803F99F018F4883E70F4B5
:104F80000FC0843F59F40CC0883E50F0813F31F48B
:104F900007C0822F869586958695089580E00895AE
:104FA00081E0089510924C0280910A01882331F02B
:104FB0008091BC0187FF02C08EE101C086E0E3EF73
:104FC000F1E0DF011D928A95E9F70C94E42688232D
:104FD00041F0809590914C02892380934C020C946F
:104FE000BE1B0895882339F090914C02892B809341
:104FF0004C020C94BE1B0895882309F463C08238C8
:1050000069F40E94761F81FF5DC069E381EF91E042
:105010000E94151F0E94BE1B69E30EC0833891F4E5
:105020000E94761F80FF4EC063E581EF91E00E94F1
:10503000151F0E94BE1B63E581EF91E00E94ED1EEB
:105040000C94BE1B843869F40E94761F82FF3AC01C
:1050500067E481EF91E00E94151F0E94BE1B67E488
:10506000EBCF9CEF980F913A10F4682FE5CF90E2C8
:10507000980F983088F4877021E030E0A90102C0D1
:10508000440F551F8A95E2F7CA01809590914C0212
:10509000892380934C02D4CF9BE5980F933020F462
:1050A00080E090E00C94601F98E5980F973120F411
:1050B00080E090E00C944A1F803F20F00E94D025B1
:1050C0000C94A6250895CF93882309F4BEC0C82F59
:1050D0008238B1F40E94761F81FDB7C069E381EF89
:1050E00091E00E94151F0E94BE1B2FEF81EE94E0FD
:1050F000215080409040E1F700C0000069E317C0F4
:105100008338E1F40E94761F80FD9FC063E581EF44
:1051100091E00E94151F0E94BE1B2FEF81EE94E0CC
:10512000215080409040E1F700C0000063E581EF2E
:1051300091E00E94ED1ECF910C94BE1B8438B1F417
:105140000E94761F82FD81C067E481EF91E00E949A
:10515000151F0E94BE1B2FEF81EE94E0215080406E
:105160009040E1F700C0000067E4E1CF8CEF8C0FC6
:10517000813AC0F580910A018823E1F08091BC0159
:1051800087FF18C0EC2FE695E695E695F0E0EF5026
:10519000FE4F8281282F30E04C2F477081E090E055
:1051A00002C0880F991F4A95E2F782239323892B27
:1051B00061F412C0E3EFF1E089EF91E02191C217B1
:1051C00021F08E179F07D1F707C06C2F81EF91E078
:1051D0000E94ED1E0E94BE1B6C2F81EF91E00E9489
:1051E000151FA9CF80E28C0F883068F4C77081E06A
:1051F00090E001C0880FCA95EAF790914C02892B84
:1052000080934C0298CFEBE5EC0FE33040F4F0E0F4
:10521000E45CFE4F808190E0CF910C94601FE8E544
:10522000EC0FE73150F4F0E0EE0FFF1FE15CFE4FB2
:1052300080819181CF910C944A1FC03F30F08C2F18
:105240000E948926CF910C94A625CF9108951F9393
:10525000CF93DF93182F893319F0C0E0D0E002C05C
:10526000C0E5D0E0812F0E946328209741F08FE9AC
:105270009FE00197F1F700C000002197F6CF812F42
:10528000DF91CF911F910C94FC27F999FECF92BD2D
:1052900081BDF89A992780B50895A6E1B0E044E071
:1052A00050E00C947F29A8E1B0E042E050E00C947B
:1052B0007F29262FF999FECF92BD81BDF89A0197DB
:1052C00000B4021639F01FBA20BD0FB6F894FA9A4E
:1052D000F99A0FBE08950396272F0E945A290E941B
:1052E0005929252F0E945A29242F0C945A290196B6
:1052F000272F0E945A290C945929DC01CB01FC016B
:10530000F999FECF06C0F2BDE1BDF89A319600B41E
:105310000D9241505040B8F70895DB018F939F9351
:105320000E94122ABF91AF91A29F800D911DA39F51
:10533000900DB29F900D11240895AA1BBB1B51E143
:1053400007C0AA1FBB1FA617B70710F0A61BB70BF5
:10535000881F991F5A95A9F780959095BC01CD019A
:10536000089597FB072E16F4009407D077FD09D017
:105370000E949D2907FC05D03EF4909581959F4F92
:105380000895709561957F4F0895A1E21A2EAA1B8A
:10539000BB1BFD010DC0AA1FBB1FEE1FFF1FA217E5
:1053A000B307E407F50720F0A21BB30BE40BF50BE2
:1053B000661F771F881F991F1A9469F7609570956B
:1053C000809590959B01AC01BD01CF010895EE0F32
:1053D000FF1F0590F491E02D09946927962769270E
:1053E00078278727782708950E94FC29332312F411
:1053F0008A1B9B0B0C940D2AA29FB001B39FC00186
:10540000A39F700D811D1124911DB29F700D811DF0
:105410001124911D08950E94FC29B7FF0895821B55
:10542000930B08950E94FC29A59F900DB49F900DA9
:10543000A49F800D911D11240895B7FF0C94122A8A
:105440000E94122A821B930B0895FC014150504088
:1054500030F001900616D1F73197CF0108958827D3
:1054600099270895FB01DC0104C08D9101908019FA
:1054700021F441505040C8F7881B990B0895F894C7
:02548000FFCF5C
:105482007F12A8178917851781170101191A1B1C8A
:105492001D1E1F2021220102019091929395F0F18D
:1054A200C66766379431303534979633F44022B666
:1054B200B4029202DC0106031F033F03818283E2EE
:1054C20000E900EA00B500B600B700CD008301CCC8
:1054D200008A01920194012102230224022502265C
:1054E2000227022A02B300B4006F0070000001021A
:1054F2000202020606060909090909090F0F0F0F20
:105502000F0F15151518191919191919191919192A
:02551200232450
:00000001FF
