:100000000C949C030C94E3030C94E3030C94E3031F
:100010000C94E3030C94E3030C94E3030C94E303C8
:100020000C94E3030C94E3030C947C2A0C94312984
:100030000C94A41D0C94E3030C94E3030C94E303CD
:100040000C94E3030C94E3030C94E3030C94E30398
:100050000C94E3030C94661D0C94E3030C94E303EB
:100060000C94E3030C94E3030C94E3030C94E30378
:100070000C94E3030C94E3030C94E3030C94E30368
:100080000C94E3030C94E3030C94E3030C94E30358
:100090000C94E3030C94E3030C94E3030C94E30348
:1000A0000C94E3030C94E3030C94E3039F07A2076F
:1000B000C407D107D807F807960896089608960847
:1000C0009608FB07FD07020828084B084E08510850
:1000D000750807070B093C097A09B909FC09450AA3
:1000E000480A4D0A500A550A580A5B0A5E0A610A14
:1000F000640A670A6A0A6D0A700A750A780A7B0A36
:10010000800ABF0A030B4D0B500B530B560B5B0BB6
:10011000660B690B740B770B820B850B900B930BA3
:100120009E0B321A321A6C1A6C1AC51A6C1C6C1C93
:100130006C1CE11ABF1BD01BD01B7E1F7E1F911FA2
:10014000911F871F911F911F911F7E1F7E1F8C1F64
:10015000911F911F8C1F45276C2713296C2713298A
:10016000B827DB271329D028E0280001010101016D
:100170000101010102020202020202020203030360
:100180000303030303040404040404040505050530
:1001900005060606060607070707070808080809F0
:1001A0000909090A0A0A0B0B0B0C0C0C0D0D0D0E9C
:1001B0000E0E0F0F0F101011111112121313141431
:1001C000151516161717181819191A1A1B1B1C1DA6
:1001D0001D1E1E1F202021222223242425262627FF
:1001E0002829292A2B2C2D2D2E2F30313232333431
:1001F00035363738393A3B3C3D3E3F404142434437
:1002000045464748494A4C4D4E4F50515354555618
:1002100058595A5B5D5E5F616264656668696B6CC4
:100220006D6F7072737577787A7B7D7E808283853F
:1002300087888A8C8E8F91939596989A9C9EA0A27F
:10024000A3A5A7A9ABADAFB1B3B5B7BABCBEC0C289
:10025000C4C6C9CBCDCFD1D4D6D8DBDDDFE2E4E74D
:10026000E9EBEEF0F3F5F8FAFDFF29001E001F00A0
:100270002000210022002300240025002600270062
:100280002D002E002A002B0014001A000800150073
:1002900017001C0018000C00120013002F00300083
:1002A0003100390004001600070009000A000B00A5
:1002B0000D000E000F003300340000002800E100A4
:1002C0001D001B000600190005001100100036007B
:1002D00037003872520000004C00E000E300E200FA
:1002E000000000002C0000000000E600E4005000C8
:1002F000510000004F0013503A003B003C003D000D
:100300003E003F00400041004200430044004500E1
:100310004C00010001005200010001000100B20088
:10032000010049000100460047004800005C010050
:10033000500051004F0001000100010001000100C8
:1003400001004A004B000000DE5C010001000100DA
:10035000010001000100145C010001004D004E008D
:10036000A9000000A8000100010001000000000039
:1003700014500000000001000100AC00AA000000C1
:10038000AB0001003A003B003C003D003E003F0056
:100390004000410042004300440045004C00010081
:1003A000C25C0100C55CC65CC75CC85CC95CCA5C59
:1003B000C35C010001000100005C010001000100BC
:1003C00001000100010001000100CB5CCC5C0100D8
:1003D00001000000DE5C01000100010001000100DD
:1003E0000100010001000100010001000100000006
:1003F00001000100010001000000000001000000F8
:100400000000010001000100010000000100530094
:100410005400550056005700010001000100010082
:100420005400550056005700010001005F006000B5
:10043000610001000100010001005F006000610037
:1004400001000100105001005C005D005E00010031
:100450000100010001005C005D005E000100000081
:100460005800010059005A005B0001000100010022
:10047000010059005A005B0001000000010001006A
:1004800062006300000000005800000000006200ED
:1004900063000100010000000100165C1E001F0047
:1004A0002000210022002300240025002600270030
:1004B0002D002E002A002B0014001A000800150041
:1004C00017001C0018000C00120013002F00300051
:1004D0003100396104001600070009000A000B0012
:1004E0000D000E000F003300340000002800E10072
:1004F0001D001B0006001900050011001000360049
:1005000037003872520000004C42E000E200E30085
:10051000000000002C0000000000E6001050500019
:10052000510000004F00000000000000000000002B
:1005300000000000000000000000000000000000BB
:10054000000000000000000000007E0F00D4FFFF4C
:10055000FFC70000007800000000000000002A2B08
:100560002800000000000000000000000000000063
:100570000029000000002C1E3420212224342627CC
:10058000252E362D3738271E1F20212223242526ED
:100590003333362E37381F0405060708090A0B0CBB
:1005A0000D0E0F101112131415161718191A1B1C03
:1005B0001D2F3130232D350405060708090A0B0CC1
:1005C0000D0E0F101112131415161718191A1B1CE3
:1005D0001D2F3130354C05010980A101850319011A
:1005E0002AB700150126B700950175108100C005D6
:1005F0000C0901A101850419012AA002150126A0F8
:1006000002950175108100C005010906A10185054B
:10061000050719E029E715002501950875018102F4
:100620000507190029EF1500250195F075018102D4
:1006300005081901290595057501910295017503B4
:100640009101C00660FF0961A1010962150026FF42
:10065000009520750881020963150026FF0095208A
:1006600075089102C005010906A101050719E029D5
:10067000E71500250195087501810295017508812E
:10068000010507190029FF150026FF0095067508CA
:10069000810005081901290595057501910295014B
:1006A00075039101C009025B00030100A0FA09046F
:1006B0000000010301010009211101000122400095
:1006C000070581030800010904010002030000007E
:1006D00009211101000122220007058203200001E7
:1006E00007050303200001090402000103000000C4
:1006F000092111010001226D00070584032000017A
:1007000012011001000000085A44211102000102E8
:100710000001100344005A00360030005200470028
:10072000420000000E0344005A00540045004300FC
:10073000480000000403090411241FBECFEFDAE0D3
:10074000DEBFCDBF04B603FE27C080919206909114
:100750009306A0919406B09195068730904BA740E0
:10076000B04BD1F410929206109293061092940618
:100770001092950614BE84B7877F84BF0FB6F89495
:10078000A89580916000886180936000109260005D
:100790000FBEE0E0F8E3099513E0A0E0B1E0E8E186
:1007A000FDE502C005900D92A237B107D9F726E00A
:1007B000A2E7B3E001C01D92A239B207E1F70E949F
:1007C000E5030C948A2E0C940000CF93DF93CDB7F1
:1007D000DEB7AD970FB6F894DEBF0FBECDBF84B7BE
:1007E000877F84BF0FB6F894A895809160008861D8
:1007F00080936000109260000FBE90E080E80FB61A
:10080000F89480936100909361000FBE85B7806873
:1008100085BF85B7806885BF85EC9CE190937303A5
:10082000809372030E9475290E941B2A8091E20026
:1008300084608093E2007894809188048823A1F0FA
:100840001091E9001F709091EC00892F817090FD4C
:1008500080E8182B1092E9008091E80083FD0E9447
:100860005F261F701093E90082E084BD93E095BD80
:100870009AEF97BD80936E0085EF0E942E1384EF50
:100880000E942E1381EF0E942E1383E30E942E13E9
:1008900082E30E942E130DE111E04BE2E42E41E0D1
:1008A000F42ED8018D918D010E942E13E016F106D1
:1008B000C1F7E4E7F3E08EE793E0A1ECB3E0119237
:1008C00011921D921D928E179F07C9F780E090E04C
:1008D0000E94AF2D8A3E9E4F11F00E94481E82E07A
:1008E00090E00E94A72D8093B6030E94371E90933C
:1008F0007F0380937E030E944015EFE3FCE931976C
:10090000F1F700C000000E9440158091C10380FFF4
:1009100017C06FEF83E290E00E94C52D6FEF84E275
:1009200090E00E94C52D6FEF85E290E00E94C52DFA
:100930006FEF7FEF80E090E00E94E32D0E94421D68
:1009400083E090E00E94A72D682F70E080E090E0A7
:100950000E9459200E94FD0E10925A06E3E7F6E02D
:1009600083E896E02FEF3FEF219331938E179F0797
:10097000D9F710928103EAE9F3E08AEA93E02FEFD6
:100980003FEF219331938E179F07D9F780E090E0D6
:100990000E94AF2D8A3E9E4F21F00E94481E0E9469
:1009A0007A1146E050E06CE170E087E896E00E9442
:1009B000972D809187068C7F11F40E947A1183E233
:1009C00090E00E94A72D813281F484E290E00E94A1
:1009D000A72D883051F485E290E00E94A72D91E088
:1009E000803309F090E0892F01C080E080FFD1C3FF
:1009F00080917E03806880937E0380917E03909136
:100A00007F030E942A1E86E091E09093AF038093BB
:100A1000AE033FE3232E312C8E010F5F1F4F9E014B
:100A2000255F3F4F3CA72BA780918804853009F0B4
:100A300078C080918804853009F06DC08091880469
:100A4000843009F434C040E060E080E00E945A1134
:100A5000FF24F394F092B40340E060E080E00E9451
:100A60005A11F092B4031092800380E4A8E1B0E040
:100A70000FB6F894A895A09360000FBE8093600015
:100A800083B7817F846083BF83B7816083BF78949D
:100A9000889583B78E7F83BF0FB6F894A895809111
:100AA0006000886180936000109260000FBE8091AA
:100AB0008704882381F10E944015E1ECF3E08191E5
:100AC0009191892B31F42BEC33E02E173F07B9F7C6
:100AD00022C0F0E1F9BD82E189BD09B400FEFDCF7D
:100AE0008091D8008F7D8093D8008091E000826053
:100AF0008093E0008091E00081FDFCCF0E9488227D
:100B00003FEF53E284EF315050408040E1F700C0A6
:100B100000000E9488220E9488220E94D110109218
:100B2000B4030E94401581110E948C1DA7EBB3E015
:100B3000E1ECF3E0E12CF12C4E2D819091908D9120
:100B40009D9188259925009709F4AFC0D12CAA243E
:100B5000A394B12C9C012A213B21232B09F49FC093
:100B6000D9A24AA38A209B2081E08114910409F430
:100B700080E08BA30E94981D8160782F9DA38CA399
:100B800049A15AA16BA18DA10E940710F701EE0F98
:100B9000FF1FE954FC4F80819181A826B926B182BC
:100BA000A082892889F08EE08E9DF0018F9DF00D46
:100BB0001124E25CFD4FED0DF11D80818F3F21F08E
:100BC0008DA7DD24D39401C0D12C90908103ED2C0E
:100BD000F12CC701890D911D0997A4F1E8E0AE2E13
:100BE000B12CAE18BF08B7016F5F7F4F6F577C4FB6
:100BF000A50182E893E00E94812EB701675F7F4FD5
:100C00006F577C4FA5018AE893E00E94812EA501D1
:100C1000440F551FB701660F771F675E7F4F6F57F1
:100C20007C4F8AE993E00E94812EB7016F5E7F4F6F
:100C30006F577C4FA50182E993E00E94812E9A9420
:100C4000909281038091810390E0EDA5AE2FB0E0FA
:100C50009D01220F331F2C573D4FAA0FBB1FBD0113
:100C60006B577D4F41E0480F9D15B0F490E0FC01BB
:100C7000EF57FC4FD9015C915183DB015C915187A7
:100C8000BDA5B18B880F991FFC01EF57FC4F128E49
:100C9000118E91E0842FE6CF809381031EC0D39400
:100CA000AA0CBB1C2EE0D21255CF3FEFE31AF30A79
:100CB00055E0E516F10409F03FCF8FEF8EA38FA327
:100CC00018A60E94981D8160782F9AA789A74EA127
:100CD0005FA168A58AA50E9407108091AA03909140
:100CE000AB03A091AC03B091AD032FB7F894809003
:100CF000B0039090B103A090B203B090B3032FBFA4
:100D0000881A990AAA0ABB0A0E948C1D6093AA033A
:100D10007093AB038093AC039093AD03A0918103D8
:100D2000E1E8F3E02A2F30E044244A94542C612C6B
:100D3000712C481859086A087B08A31799F0418D4F
:100D4000528D6A01E12CF12C4C145D046E047F0479
:100D500010F4215004C0480D591D528F418F3F5F40
:100D60003296EBCF209381032091B403211109C067
:100D700020918706322F337021F0F22EF694F694EC
:100D800001C0F12C209114012130E9F038F022301B
:100D900009F45BC0233009F462C07EC010921101D7
:100DA00060938306709384068093850690938606ED
:100DB00089E2E1E8F3E0AAE5B6E001900D928A95B8
:100DC000E1F781E03FC080910501F8120DC020914C
:100DD0008706237030E04091040150E081E0241741
:100DE000350719F480E001C081E081708093130120
:100DF00080918C0690911201981709F4E3C18093B9
:100E0000120140E060E080E00E945A11DBC1809155
:100E10001301882329F040E060E080E00E945A112D
:100E200080E0909111019F5F909311018111D5C1D4
:100E300082E080931401809113018111CEC1F110E1
:100E4000CFC183E08093140127C0F0920501809107
:100E500087068370809304010E94F70EF2CF4091C1
:100E600083065091840660918506709186062FB79F
:100E7000F8948091B0039091B103A091B203B09126
:100E8000B3032FBF841B950BA60BB70B4A97A10585
:100E9000B10510F0109214010E94D1109091B50389
:100EA000891721F00E94D1108093B50380918804A6
:100EB000843009F0B9CD83E08093E9008091E800A7
:100EC00082FFB2CD8091E80085FF23C00E94942963
:100ED00081111DC080E2E82EF12CCE0101965C014B
:100EE00009C08091F100D5018D935D01B1E0EB1A4D
:100EF000F10869F08091E80085FDF3CF8091E8006A
:100F00008B778093E8000E949429882399F391E0DD
:100F100001C090E08091E8008B778093E8009923EE
:100F200009F482CDE9818E2F90E0FC013197E33105
:100F3000F10508F0FBC0EA5AFF4F0C94742E1A8298
:100F400089E05EC08A81823009F41AC1833051F091
:100F5000813009F0EBC00E948C1D9B838C837D83C4
:100F60006E83E6C0FE013196A1ECB3E08C91119640
:100F70009C91119712969283838332962BA53CA560
:100F80002E173F0799F7D4C08A81823009F0CEC06E
:100F90006B817C818D819E810E947A2E86E290E019
:100FA00024C04C816B818A810E9421119D83EFC0F6
:100FB000AD80BE80BA24AB24BA248C81EB809A81A8
:100FC0003CE1E39E700111245CE8959FE00CF11C6C
:100FD0001124E80EF11CE80EF11C6B2DC701879659
:100FE0000E94C52D6A2DC70188960E94C52DA0C0FC
:100FF0000E94ED109DC080E152C081E08A8389EAA1
:101000008B8396C0EA80FB80FE24EF24FE248C8034
:10101000912C5801C701895A9D4F9501201B310B16
:101020002815390508F084C0A9EAEA16A1E0FA06F5
:1010300028F40E94A72DF501848303C0D5011496DE
:101040001C92BFEFEB1AFB0AEFEFAE1ABE0AE2CF1B
:10105000EA80FB80FE24EF24FE248C80912C580132
:10106000C701895A9D4F9501201B310B2815390561
:1010700008F05EC0F9EAEF16F1E0FF0628F4D501AA
:1010800014966C910E94C52DBFEFEB1AFB0AEFEF8F
:10109000AE1ABE0AE5CF0E94DD104AC084E08A8302
:1010A00047C0EA80FB80FE24EF24FE248C80912C34
:1010B0005801C70187969501201B310B281539056A
:1010C000B8F5F0E3EF16F2E0FF0630F40E94A72D2A
:1010D000D50114968C9302C0F5011482FFEFEF1A2C
:1010E000FF0A2FEFA21AB20AE4CFEA80FB80FE24A7
:1010F000EF24FE248C80912C5801C701879695011E
:10110000201B310B2815390598F430E3E31632E043
:10111000F30628F4D50114966C910E94C52DBFEFFB
:10112000EB1AFB0AEFEFAE1ABE0AE7CF8FEF898307
:1011300080918804843009F077CC8091E9008F7029
:101140002091EC00922F917020FD90E8F92EF82A62
:1011500082E08093E9008091E80080FF0CC040E0CD
:1011600050E060E270E0C8010E9433268091E80000
:101170008E778093E8008F2D8F708093E90054CC98
:1011800086E290E00E94A72D1B821C821D828E8326
:10119000CFCF60E086E290E00E94C52D0E94ED1066
:1011A0000E94DD1061E283E290E00E94C52D68E0BC
:1011B00084E290E00E94C52D60E385E290E00E9409
:1011C000C52D16CC8F2D90E088329105F8F08091D6
:1011D00011018F5F809311012BCEFF2009F45CCEAB
:1011E000E091AE03F091AF03309729F00190F081C8
:1011F000E02D099501C080E081FF4ECE2FEF4FEF2B
:101200006FEF88E290E00E945C1146CEFC01E75946
:10121000FF4F0C94742EE0901101EE0CEE0CA4E044
:10122000DA2EDE0C8FE38D1510F4FFE3DF2E6091D4
:1012300088067091890680918A060E943612B62E21
:10124000A72E982EED1490F4EE2DF0E0DF01AE5FA6
:10125000BC4F8C9190911201982331F0292D4B2D88
:101260006A2DCF010E945C11E394ECCF81E09EE3F4
:101270009D1508F0D6CDD4CDE0901101EE0CEE0C0A
:10128000E4E0DE2EDE0CAFE3AD1510F47FE3D72EE5
:10129000A0908906B0908A0690908806692D7A2DD4
:1012A0008B2D0E943612862E772E682E60918B062B
:1012B000690D7A2D8B2D0E943612B62EA72E982EF0
:1012C000ED1408F0E4C18E2D90E0FC01EE5FFC4FC0
:1012D000308120911201232359F030FF04C0292DC1
:1012E0004B2D6A2D03C0262D482D672D0E945C11C1
:1012F000E394E6CFE0901101EE0CEE0C64E0D62E04
:10130000DE0CEFE3ED1510F45FE3D52E8090890637
:1013100070908A0620918B0640E4942E392D329FDE
:10132000312D1124932EED1408F0A9C0AE2CB12C50
:10133000F501EE5FFC4F9081809112018923B9F095
:10134000F501EE0FFF1FEB57FD4F808182958F70E7
:1013500060918806899D600D1124782D872D0E944B
:101360003612462F282F672FC5010E945C11E39487
:10137000DACFE0901101EE0CEE0C24E0D22EDE0C60
:101380008FE38D1510F49FE3D92E8090890670901D
:101390008A0620918B0680E4982E392D329F312DBC
:1013A0001124932EED1408F06AC0AE2CB12CF50177
:1013B000EE5FFC4F9081809112018923D9F0F501F5
:1013C000EE0FFF1FEC57FD4F6081969EB001112478
:1013D000B5E075956795BA95E1F780918806680F35
:1013E000782D872D0E943612462F282F672FC50192
:1013F0000E945C11E394D6CFE0901101EE0CEE0C4C
:10140000E4E0DE2EDE0C8FE38D1510F47FE3D72EA3
:10141000A0908806B090890690908A0660918B060D
:1014200066956695669580918306909184060E94E4
:101430002C120E948D11805887FD8195880F282FCE
:10144000392D239F212D1124822FB5010E943612A0
:10145000B62EA72E982EED1490F4EE2DF0E0DF01BD
:10146000AE5FBC4F8C9190911201982331F0292DE1
:101470004B2D6A2DCF010E945C11E394ECCF81E0EB
:101480005EE35D1508F0CDCCCBCC8DEB9DE002C0CA
:1014900081E99DE00E94A523C4CC86E99EE002C0BC
:1014A00087E79EE00E944B23BCCC8CE59EE01AC0EF
:1014B00080E49EE017C08FE89DE0ECCF86E89DE0D9
:1014C000E9CF8DE79DE0E6CF82E69DE0E3CF83E5BF
:1014D0009DE008C083E092E1E5CF8FE29EE0E2CF9D
:1014E0008BE19EE00E94D1229CCC85E29DE005C06C
:1014F00083EF9CE002C085EB9CE00E94F12391CC3D
:101500008091130181111DC060918B0620E1620F53
:1015100008F46FEF80918306909184060E942C124C
:101520006AE070E00E944C2E892B09F079CC0E9471
:10153000872DB1010E94602E609112010E94C61297
:101540006FCCA09011018A2D880F880F64E0E62EE1
:10155000E80E3FE33E1510F45FE3E52EA82EB12C14
:101560008E2C912CA814B9040CF047C06091120184
:10157000C5010E94C6125FEFA51AB50AF3CF80918C
:10158000130181111DC060918B0620E1620F08F4E8
:101590006FEF80918306909184060E942C1265E083
:1015A00070E00E944C2E892B09F03ACC0E94872DC6
:1015B000B1010E94602E609112010E940C1330CC88
:1015C000A09011018A2D880F880F44E0E42EE80EC8
:1015D0003FE33E1510F43FE3E32EA82EB12C8E2CF2
:1015E000912CA814B9044CF460911201C5010E9419
:1015F0000C135FEFA51AB50AF4CF81E09EE39E15A8
:1016000008F00FCC0DCCE0901101EE0CEE0C24E0B4
:10161000D22EDE0CAFE3AD1510F49FE3D92EA090CF
:101620008906B0908A069090880660918B06669530
:101630006695669580918306909184060E942C128F
:101640000E948D11805887FD8195880F682F2CE0AE
:10165000629F612D1124690D7A2D8B2D0E94361207
:10166000B62EA72E982EED1490F4EE2DF0E0DF01AB
:10167000AE5FBC4F8C9190911201982331F0292DCF
:101680004B2D6A2DCF010E945C11E394ECCF81E0D9
:10169000BEE3BD1508F0C5CBC3CB8EEA91E1FACE0F
:1016A00084EA9CE0F7CE8DE99CE002C087E99CE0EB
:1016B0000E945024B6CB80915A0621E0382F321B6D
:1016C00008F430E0832F6EE77CE03BC06EE77CE0FF
:1016D00037C080915A0621E0582F521B08F450E081
:1016E000852F66E47CE02DC066E47CE029C0809113
:1016F0005A0621E0382F321B08F430E0832F64E1D2
:101700007CE01FC064E17CE01BC080915A0621E0B0
:10171000582F521B08F450E0852F6CEF7BE011C06E
:101720006CEF7BE00DC080915A0621E0382F321B10
:1017300008F430E0832F66EE7BE003C066EE7BE0CA
:1017400080E00E94C3246DCB8F33910520F5880F74
:10175000991F880F991FFC01ED5CFE4F5281338168
:10176000808183707181E82FF0E0A0EC8A9FC00136
:1017700011248C539B4FDC01A70FB11D6C93DC012E
:10178000A50FB11D4C93DC01A30FB11D2C93EC5B95
:10179000F94F81E080830895FF920F931F93CF93B9
:1017A000DF93182F062FF42EC0E0D0E02F2D402F0E
:1017B000612FCE010E94A40B2196CF33D105B1F742
:1017C000DF91CF911F910F91FF900895EF92FF92BB
:1017D0000F939701201B31092F3F310519F010F0AD
:1017E0002FEF30E02095382F320F08F43FEF832F92
:1017F0000F91FF90EF900895EF92FF920F93970152
:10180000201B31092F3F310519F010F02FEF30E088
:10181000322F3095482F430F08F44FEF842F620F7B
:101820000F91FF90EF900895EF92FF920F93972FF3
:10183000093438F4B701601B71096F3F710519F065
:1018400010F06FEF70E0485F5F4F4131510540F09D
:10185000A901485F5F4F4131510510F06FEF70E013
:101860006095482F460F08F44FEF842F37FF02C0D2
:101870002D5F3F4F359527953595279560918806C3
:10188000620F792F0F91FF90EF900895EF92FF92E2
:101890000F93E00EF11CF90137FF03C0F195E195BC
:1018A000F10924E0EE0FFF1F2A95E1F7EF3FF10564
:1018B00019F014F0EFEFF0E09A0157FF03C03195F3
:1018C0002195310994E0220F331F9A95E1F72E17E5
:1018D0003F070CF4F901EE0DFF1DEF3FF10519F084
:1018E00010F0EFEFF0E02E2F2095382F320F08F494
:1018F0003FEF832F0F91FF90EF900895EF92FF92AB
:101900000F93970195E0099F200D311D11242F3F62
:10191000310519F010F02FEF30E02095382F320FFD
:1019200008F43FEF832F0F91FF90EF90089522E886
:10193000241B08F420E0620F08954095282F429F51
:10194000412D1124842F0895E42FF0E0EE0FFF1FA6
:10195000EC57FD4F9081921B97FD9195292F38E10F
:10196000239F212D1124620F08950F931F9310E0E0
:10197000F801EE0FFF1FEC57FD4F9081905797FD38
:101980009195000F111FF801EB57FD4FE081F0E03A
:10199000B097DF01AA0FBB1F8D010E0F1F1F200381
:1019A000D001219FB00D1124E8E3F0E0E91BF1091B
:1019B00097FDF3959F01220F331F89010E0F1F1F03
:1019C00040039001419F300D11242A0F3B1F37FF28
:1019D00002C021583F4F220F232F221F330B620FCB
:1019E0001F910F9108950F931F93522F10E0F8014C
:1019F000EE0FFF1FEB57FD4FE081F0E0B097EE0FC9
:101A0000FF1F9F015203D001539FB00D1124000FFF
:101A1000111FF801EC57FD4F008110E0005711092C
:101A2000000F111F40039001419F300D11242A0F18
:101A30003B1F37FF02C021583F4F220F232F221F89
:101A4000330B620F1F910F9108950F931F93522F25
:101A500010E0F801EE0FFF1FEB57FD4FE081F0E0C3
:101A6000B0979F015203D001539FB00D1124000F76
:101A7000111FF801EC57FD4F008110E000571109CC
:101A800040039001419F300D11242A0F3B1F37FF67
:101A900002C021583F4F220F232F221F330B620F0A
:101AA0001F910F910895EF920F931F9393E0099F59
:101AB00080011124159507956E2D600F1F910F91D0
:101AC000EF900895A22F50E0FA01EE0FFF1FEB57A1
:101AD000FD4F9081905297FD9195440F551FFA014B
:101AE000EC57FD4F3081232F30E02A1B3109290F9D
:101AF000311D97FD3A95620F0895E42FF0E0EE0F47
:101B0000FF1FEB57FD4F6081621B0895E42FF0E04B
:101B1000EE0FFF1FEC57FD4F6081621B0895622F8F
:101B20000895E42FF0E0EE0FFF1FEC57FD4F4081CA
:101B300034EE439F412D1124E82FF0E050E0445E45
:101B40005F4FDA01A21BB1099D01B7FF03C03195B8
:101B50002195310993E0220F331F9A95E1F7AF01E8
:101B6000421B530B9A0157FF02C020E030E0582F70
:101B7000259F212D1124822F0895E42FF0E0EE0FF0
:101B8000FF1FEC57FD4F408134EE439F412D112440
:101B9000E72FF0E050E0445E5F4FDA01A21BB1098D
:101BA0009D01B7FF03C031952195310993E0220FC4
:101BB000331F9A95E1F7AF01421B530B9A0157FF70
:101BC00002C020E030E0279F212D1124722F0895BC
:101BD000FC019B01009721F477FF2BC080E808955A
:101BE000AC0197FF04C044275527481B590BB90186
:101BF000640F751F37FD0CC0241B350BC901A5E010
:101C0000880F991FAA95E1F70E94602E80E20CC010
:101C1000CB0165E0880F991F6A95E1F7BA01621B55
:101C2000730B0E94602E80E6861BF7FF03C0819530
:101C3000089580E00895EF920F93CF93DF93D72F0D
:101C4000C82FC9010E19BA010E94E80D602F681B48
:101C50007D2F8C2FDF91CF910F91EF9008950F93EF
:101C6000CF93DF93D72FC82FC901BA010E94E80D87
:101C7000682F600F7D2F8C2FDF91CF910F910895EA
:101C8000EF920F931F93CF93DF93D62FC72F182F69
:101C9000C9010E19010FBA010E94E80D081B202F7F
:101CA000219F212D1124822F6D2F7C2FDF91CF9129
:101CB0001F910F91EF900895EF920F931F93CF9381
:101CC000DF93D62F172FC82FC9010E19070FBA019E
:101CD0000E94E80D702F781B719F712D11246D2FBC
:101CE0008C2FDF91CF911F910F91EF900895FF926C
:101CF0000F931F93CF93DF93F62ED72F182FC90181
:101D0000C12FC01BBA010E94E80D982F990F890FAF
:101D1000C81B2C2F219F212D1124822F6F2D7D2F49
:101D2000DF91CF911F910F91FF900895FF920F9334
:101D30001F93CF93DF93F62E172FD82FC901C72FEC
:101D4000C01BBA010E94E80D982F990F890F7C2FB4
:101D5000781B719F712D11246F2D8D2FDF91CF91E5
:101D60001F910F91FF90089590917E0392FF0DC0F7
:101D7000282F2871283019F4877F846006C0282F07
:101D80002471243011F48B7F886093FF0DC0282FBD
:101D90002871283119F4877E846106C0282F2471A8
:101DA000243111F48B7E886120917F0320FF0DC0C8
:101DB000382F3871383019F4877F816006C0382F8A
:101DC0003171313011F48E7F886021FF0DC0282FD2
:101DD0002871283119F4877E816106C0282F21716E
:101DE000213111F48E7E886194FD877E089580E014
:101DF0000E94A92581E00C94A925AF92BF92CF92B1
:101E0000DF92EF92FF920F931F93CF93DF930E9485
:101E1000872C65EC8EEF0E94962560E08DEF0E9486
:101E20009625C0E060E08C2F0E949625CF5FC831D8
:101E3000C9F765EC8EEF0E94962561E08DEF0E9458
:101E40009625C0E060E08C2F0E949625CF5FC03CB5
:101E5000C9F765EC8EEF0E94962563E08DEF0E9436
:101E600096256FEF81E00E94962561E080E00E9458
:101E700096258FE39CE90197F1F700C00000A3E3EA
:101E8000B1E040E050E038E1E32EC1E0D0E0FF24D3
:101E9000F3941196DC90119712967C9112971396F9
:101EA0006C911397CA01880F991F880F991F8D5C39
:101EB0009E4FFC018081837090E0FD2DF695F69594
:101EC000F695E89E9001E99E300D11242E563B4F69
:101ED00089010F0F111DED2DE7705E0101C0AA0CE5
:101EE000EA95EAF7F801D080AD28A082E72FE695C1
:101EF000E695E69589010E0F111D77705E0101C010
:101F0000AA0C7A95EAF7F80170817A297083762F06
:101F1000769576957695F901E70FF11D67709E012C
:101F200001C0220F6A95EAF73081232B2083FC0140
:101F3000EE53FB4FF0824F5F5F4F14964F335105C6
:101F400009F0A7CF80E00E94FC2581E0DF91CF91CE
:101F50001F910F91FF90EF90DF90CF90BF90AF90C7
:101F60000C94FC25E7E8F6E0438120E1421B08F4ED
:101F700040E08181628190E00C948925E7E8F6E0F9
:101F8000438120E1420F08F44FEF8181628190E0AC
:101F90000C948925E7E8F6E0628120E1621B08F4F1
:101FA00060E08181438190E00C948925E7E8F6E0C8
:101FB000628120E1620F08F46FEF8181438190E03C
:101FC0000C948925E7E8F6E0818190E04381628105
:101FD00008970C948925E7E8F6E0818190E0438139
:101FE000628108960C94892580918706869586954E
:101FF000815009F487E20C94BB2280918706869574
:1020000086958F5F883208F081E00C94BB221F9385
:10201000CF93DF93CDB7DEB767970FB6F894DEBFE7
:102020000FBECDBF342F4B8B252F5C8B6D8B7E8BE2
:102030008F8B4E895F89611110925D0486E0FE01ED
:102040003D96DF01982F1D929A95E9F73D872E87DF
:102050006F87598B488BDE01179601900D928A95F8
:10206000E1F7CE0107960E94D92081113EC086E09B
:10207000FE013796DE01119601900D928A95E1F7E7
:10208000FF81E8856A857B856115710531F0EF3F39
:1020900031F481E0FF3F19F403C081E001C080E02A
:1020A00080FD23C02091FC0330E0C90101968770B8
:1020B000992740912D0450E08417950779F1F98311
:1020C000EA837D836C8396E0929FD001939FB00D4D
:1020D0001124A350BC4FFE01319601900D929A95A8
:1020E000E1F78093FC030E94632016E080912D04A9
:1020F0009091FC038917F9F0189FC00111248350B7
:102100009C4F0E94D9208823B1F080912D0490E04B
:1021100001968770992780932D04E8CF0E9488222A
:102120001092FC0310922D04E6EFF3E086E0DF014D
:102130001D928A95E9F767960FB6F894DEBF0FBE39
:10214000CDBFDF91CF911F9108952091D20330919F
:10215000D3032817390771F09093D3038093D203E8
:10216000E091AE03F091AF03309721F00084F18548
:10217000E02D099408952091D0033091D1032817C0
:10218000390771F09093D1038093D003E091AE03AF
:10219000F091AF03309721F00680F781E02D09948C
:1021A0000895E091AE03F091AF03309721F00190D4
:1021B000F081E02D099480E00895CF93DF93C7E587
:1021C000D2E060E0CE010E94C52D2196C11584E0C9
:1021D000D807B9F7DF91CF910895CF92DF92EF92B0
:1021E000FF920F931F93CF93DF93C0E0D0E08E0157
:1021F00004571F4F6E018CE1C80ED11CFE01E65939
:10220000FD4FE590F4906F2DCE0187960E94C52D6D
:102210006E2DCE0188960E94C52D2296CC15DD0527
:1022200069F70C171D0731F7E80100331240F9F682
:10223000DF91CF911F910F91FF90EF90DF90CF90A2
:1022400008950F931F93CF93DF93C42FD0E0CC0F4B
:10225000DD1F2CE1629FC00DD11D11243CE8839F3E
:10226000C00DD11D1124CE0187960E94A72D082FE5
:1022700010E0102F0027CE0188960E94A72D98010C
:10228000282BC901DF91CF911F910F910895462FFF
:10229000843038F4753028F46E3018F4672F0C94BD
:1022A000211180E090E00895882311F0FA0101C027
:1022B000FB0109940C94CC0B0C94A40B46E050E069
:1022C0006CE170E087E896E00C94B52DE7E8F6E065
:1022D000248130E1230F08F42FEF24830C945E1146
:1022E000E7E8F6E0248130E1231B08F420E02483B2
:1022F0000C945E11E7E8F6E081E38083809115019C
:1023000090911601A091170181839283A3838FE797
:1023100084838FEF85830C945E11482F982F46FDA0
:102320009095E92FEF739F7046FD9F5FE295EF70E8
:10233000EE0FF0E0E55DFE4F2181299F802D212DDC
:10234000112482958F702295207F822B3081982FC7
:10235000930F892F47FD8195805808950F931F9300
:10236000CF93DF93D62F072F182FC42F822F0E94D1
:102370008D11EC2FF0E0EE0FFF1FEC57FD4F908119
:102380009058890F87FD8195880F682F2CE0629FF8
:10239000612D11246D0F702F812FDF91CF911F912F
:1023A0000F910895BC018230910508F40895613EB3
:1023B0008EE1780748F49B0195E0369527959A952C
:1023C000E1F748E0420F01C04FEF91E0242F30E0E9
:1023D000290F311D35952795229FF001239FF00D80
:1023E000F00D11246E177F0718F44FEF420F04C051
:1023F0002F3F39F091E0920F491740F78FEF890F87
:1024000008958FEF08950F93CF93DF93D72FC82FA1
:1024100047FD4195E8E3F0E0CF01841B910947FDBA
:102420009395889FB001899F700D700D1124229F94
:10243000C001239F900D900D1124860F971F0E94BD
:10244000D211682F660F860F682F600F7D2F8C2F9B
:10245000DF91CF910F91089520E030E0869F212DEC
:10246000969F200D311D1124C9010895CF92DF924E
:10247000EF92FF920F931F93CF93DF93F62E472F88
:10248000E82FF0E0711106C0E659FE4F8491782FD5
:10249000682F73C0272F30E0E659FE4FE491FE2FDE
:1024A0000E2F10E056E0659FC0011124CFEFD0E061
:1024B000BE010E944C2E5BEA5603C001579F900D4F
:1024C00011248F0D911D8F0D911D982F990F980F2D
:1024D0007E01E21AF30AE09ED001E19EB00DF09E6B
:1024E000B00D11248B2F499FA0011124452F552792
:1024F0007E01E41AF50AE09EA001E19E500DF09ED7
:10250000500D11246E01C91AD108C29E7001C39EDC
:10251000F00CD29EF00C11242F2D3327C21BD30BAD
:10252000C09F9001C19F300DD09F300D1124932F7B
:102530006230710591F048F461157105E1F0613088
:102540007105B9F49E2FE52F16C06430710569F04E
:1025500040F06630710579F00CC09E2FEB2F832F71
:102560000AC0EB2F8F2F952F06C09B2F8E2FE32FA6
:1025700002C09B2F852F7E2F692FDF91CF911F9156
:102580000F91FF90EF90DF90CF900895DF92EF9240
:10259000FF920F931F93CF93DF93EC01FC01EE5F4B
:1025A000FC4F9081692381F1D090890600918A06C1
:1025B00010918806E12EF12C0E94872D282FC7014B
:1025C0008C549F4F68E671E00E94602E8E199F091F
:1025D00097FD039695958795959587952370612F1F
:1025E000289F600D11247D2D802F0E943612462FCA
:1025F000282F672FCE01DF91CF911F910F91FF9070
:10260000EF90DF900C945C11DF91CF911F910F91AF
:10261000FF90EF90DF9008951F93CF93DF93FC011D
:10262000EE5FFC4F20816223A9F0EC010E94872D10
:10263000182F0E94872D612F782F80918A060E9483
:102640003612462F282F672FCE01DF91CF911F9191
:102650000C945C11DF91CF911F910895F894E82FAD
:10266000E295EF70F0E031A1282F2F7081E090E02B
:1026700001C0880F2A95EAF7982F9095932391A38C
:1026800092A1892B82A378940895CF93DF930E941F
:102690004711EC018238910559F1A0F4813391057D
:1026A00009F473C040F48932910509F467C08A9730
:1026B00009F472C084C08533910509F458C0C997E4
:1026C000B9F07DC0833E910571F138F4803E9105EB
:1026D000B1F0823E910511F172C0863E9105B9F1CB
:1026E000873E9105C9F1843E910509F068C024C078
:1026F00080917E0380FD5DC081FD5BC060C08091E4
:102700007E0380FD50C080917F0380FF36C18091A1
:102710007E0384FD30C1C3EED0E02FC180917E03E3
:1027200082FF2BC1F4CF80917E0382FD3FC0809158
:102730007F0380FD3EC0EBCF80917F0381FF1DC1F1
:1027400080917E0384FD17C1C7EED0E016C1809151
:102750007E0383FF12C1F4CF80917E0383FD2CC0E2
:1027600080917F0381FFECCFC4EED0E006C1809161
:102770007E0385FF02C1C9E2D0E0FFC080917E03E5
:1027800085FFFBC0C5E3D0E0F8C080917E0386FFE3
:10279000F4C0CAE2D0E0F1C080917E0386FFEDC0B4
:1027A000C1E3D0E0EAC0C9E3D0E0E7C0C2EED0E0C8
:1027B000E4C0C0EED0E0E1C0C6EED0E0DEC0C1159E
:1027C00082E5D80708F066C0C11591E5D90728F061
:1027D000DC2FCC27C16FD06AD0C0C83ED10560F5D0
:1027E000C03ED10508F0C9C0C83AD105B0F4C53A19
:1027F000D10540F0C55AD0E0CF5BDC4FC881D0E0B6
:10280000D064BBC0C130D10509F4B7C008F4B3C06F
:10281000C430D10508F4AFC0B0C0CF3BD10508F03B
:10282000AAC0C85AD0E0CC0FDD1FCC5BDC4F0990AA
:10283000D881C02DD464A1C0C11520E5D207E0F035
:10284000CE0174E0969587957A95E1F783709C2F79
:10285000937021E030E002C0220F331F9A95E2F717
:102860003C68382BCF70C695C69580E2C89FE001C2
:102870001124C22BD32B81C0C11580E4D80718F0D6
:10288000DF70D06A7AC0CE019A9581159F4108F415
:1028900074C071C0C11586E5D807F0F5C11595E57E
:1028A000D90750F08C2F0E94B40E8F71C82FD0E042
:1028B000DC2FCC27D06261C0C11524E5D20728F0F7
:1028C000DC2FCC27C46FD06A58C09E0123703327F9
:1028D0008C2F86958695C115D34578F4C1E0D0E05C
:1028E00002C0CC0FDD1F2A95E2F720E2829FC001D3
:1028F0001124C82BD92BDC6840C0C1E0D0E002C055
:10290000CC0FDD1F2A95E2F720E2829FC00111243F
:10291000C82BD92BDA6831C0C1152AE5D207E8F4F3
:10292000C11589E5D80780F08C2F8F700E94B40EF6
:1029300094E0D695C7959A95E1F7CF70D0E0DC2F5B
:10294000CC27D069C82B19C0C11598E5D90798F0D4
:10295000DC2FCC27C06FD06A10C0CE0190568115F5
:10296000904248F48D2F8F710E94B40EDD27D06203
:102970008F71D82B02C0C0E0D0E0CE01DF91CF91A3
:1029800008950F931F93CF93DF93C42F122FFC0151
:1029900082818823C9F04093D4030E94981D9093AC
:1029A000CF038093CE0380E28C0F883008F063C0A1
:1029B000C77081E001C0880FCA95EAF7DF91CF9117
:1029C0001F910F910C94BA2B8091D40348133CC0F3
:1029D0002091CE033091CF034FB7F8948091B0038C
:1029E0009091B103A091B203B091B3034FBF821B8A
:1029F000930B883C910540F5D0E2D10FC117B9F097
:102A000080E28C0F883040F4C77081E001C0880FED
:102A1000CA95EAF70E94AF2BD83030F581E0912FAC
:102A2000977001C0880F9A95EAF70E94BA2B802F01
:102A30000E94692CD830F8F4212F277081E001C062
:102A4000880F2A95EAF70AC080E28C0F883098F444
:102A5000C77081E001C0880FCA95EAF7DF91CF9176
:102A60001F910F910C94AF2B802FDF91CF911F916D
:102A70000F910C94692CDF91CF911F910F910895C4
:102A80009F92AF92BF92CF92DF92EF92FF920F93FD
:102A90001F93CF93DF9308E111E0C4E7D3E08EE703
:102AA000E82E83E0F82E912CCC24C394D12CB801CD
:102AB000D8018C91F894E82FE295EF70F0E021A115
:102AC0008F70A60102C0440F551F8A95E2F7CA0114
:102AD000922F982B91A392A18095892382A3789419
:102AE00000C0EDE1F1E020E030E0A12CB12C4191FB
:102AF000842F82958F7090E0DC0190968C9190E00D
:102B00004F7002C0959587954A95E2F780FD08C001
:102B1000C601022E02C0880F991F0A94E2F702C074
:102B200080E090E0A82AB92A2F5F3F4F2E30310570
:102B3000F1F60F5F1F4FFB0180810E942E13F0EA18
:102B4000FA95F1F788819981A816B90621F0B98222
:102B5000A88281E001C080E0982A2296EC16FD064A
:102B600009F0A5CF992049F081E08093CD030E9420
:102B7000981D9093CC038093CB038091CD03882341
:102B8000E9F12091CB033091CC034FB7F8948091B9
:102B9000B0039091B103A091B203B091B3034FBFC2
:102BA000821B930B069750F18091740390917503EB
:102BB0009093C2038093C103809176039091770331
:102BC0009093C4038093C303809178039091790319
:102BD0009093C6038093C50380917A0390917B0301
:102BE0009093C8038093C70380917C0390917D03E9
:102BF0009093CA038093C9031092CD03892DDF916E
:102C0000CF911F910F91FF90EF90DF90CF90BF90E9
:102C1000AF909F9008953F924F925F926F927F92F4
:102C20008F929F92AF92BF92CF92DF92EF92FF92DC
:102C30000F931F93CF93DF93CDB7DEB729970FB6CE
:102C4000F894DEBF0FBECDBFFC018081918123814E
:102C50003481232B31F09F3F31F491E08F3F19F401
:102C600003C091E001C090E090FD73C67F0185E054
:102C7000DE01119601900D928A95E1F7F70122810C
:102C800089819A81222349F00E941F1F182F682FE3
:102C900089819A810E94C11F03C00E94951F182F2D
:102CA00069817A81812F0E9447118C01F70182810D
:102CB000882309F4F2C0980122513F4520313105A3
:102CC00008F019C18FEF93E00E94A72D8111EFC08A
:102CD000025137E5832E32E0932E002379F08114E0
:102CE000F4E09F0609F4E3C0C4010E94A72D8111FE
:102CF00001C001501FEF811A910AEFCF1E821F827F
:102D000018861986442443942AE0322E84010F5FEA
:102D10001F4FC4010E94A72D8E831F82882309F4B0
:102D2000C6C09FEF980F933060F48F834E8222E0ED
:102D3000820E911CC8010E94A72D8887811102C0B4
:102D4000B6C048018E010A5F1F4FF801208122237F
:102D5000E9F2213009F04CC08181813049F46801E9
:102D6000F2E0CF0ED11CF80182810E94692C0AC0CA
:102D7000823051F46801F2E0CF0ED11CF80182815B
:102D80000E94F62B860186C0833049F46801F2E088
:102D9000CF0ED11CF80182810E94C42BF3CF843066
:102DA00019F00F5F1F4F76C0F80122810E5F1F4F91
:102DB00080E090E030E0205331092A30310568F49A
:102DC000389EA001399E500D1124C901840F951F12
:102DD0000F5F1F4FF8012081EDCF009709F45AC013
:102DE000EFE9FFE03197F1F700C000000197F5CF60
:102DF000E22FF0E0EA5AFA4F5490822F869586959A
:102E0000869590E0FC01EA5BFA4F64902770712C84
:102E1000022E02C0759467940A94E2F7F1E06F22E3
:102E20007724FC01EA5CFA4FA490B12C022E02C078
:102E3000B594A7940A94E2F731E0A322BB24FC01E5
:102E4000EA5DFA4FC490D12C02C0D594C7942A955C
:102E5000E2F781E0C822DD246114710419F081EEEB
:102E60000E94F62BA114B10419F086EE0E94F62BF5
:102E7000852D0E94692CAB2819F086EE0E94C42B88
:102E8000672819F081EE0E94C42BCD2819F08CE23E
:102E90000E94692C0F5F1F4F58CF00313FE5130789
:102EA00009F04EC581E00E94F61F0E949D2280918C
:102EB0005B04877009F44DC5F7018281882309F40A
:102EC00048C582E029960FB6F894DEBF0FBECDBF8D
:102ED000DF91CF911F910F91FF90EF90DF90CF90F6
:102EE000BF90AF909F908F907F906F905F904F902A
:102EF0003F900C941B200031FFE51F0711F481E087
:102F000005C001312FE5120721F482E00E9438202C
:102F1000CCCF033FFCE51F0749F406E221EE40EE6B
:102F200063EF7CE5C7010E94C114C1CF043F2CE5CB
:102F3000120708F042C1083D3CE5130731F407E2EF
:102F400025EE45EE68ED7CE5EDCF093D9CE51907E2
:102F500031F408E221E045EE69ED7CE5E3CF073D81
:102F6000ECE51E0731F406E221EE41EE67ED7CE56B
:102F7000D9CF882309F456C11092D40302309CE5BE
:102F8000190708F439C10631ECE51E0730F0C80115
:102F90008A5F9C45099708F02FC10E94371E9093C5
:102FA0007F0380937E030031FCE51F0709F4C3C053
:102FB00008F041C008303CE5130709F49AC0F0F46A
:102FC00004309CE5190709F487C068F40230FCE579
:102FD0001F0709F477C003301C4509F0E5C0809154
:102FE0007E03826076C006303CE5130709F46EC0AC
:102FF00008F07BC080917E0388606BC00C309CE53C
:10300000190709F485C068F40A30FCE51F0709F4C4
:1030100074C008F079C00E94882280917E03806885
:1030200058C00E303CE5130709F476C008F07FC0A5
:1030300080917E038BC00B3F9CE5190709F44FC0BC
:1030400018F50331FCE51F0709F47DC078F4013160
:103050003CE5130709F473C002311C4509F0A4C014
:103060000E94882280917E038F7733C005319CE5D2
:10307000190709F472C008F486C00A3F1C4509F01C
:1030800093C080917F033EC00F3F2CE5120709F4E7
:103090005FC058F40D3F8CE5180709F444C008F4EC
:1030A0003FC080917F0382602DC00130EDE51E0797
:1030B00009F475C008F45DC002301D4509F074C004
:1030C00060E06EC080917E03816003C080917E03CA
:1030D000806180937E0368C080917E0311C08091DF
:1030E0007F03826080937F035FC080917E03806254
:1030F000F0CF80917E038064ECCF80917E03886066
:103100008460E7CF8160EECF80917E038E7FE1CF38
:1031100080917E038D7FDDCF80917E03877FD9CF25
:1031200080917F0318C080917F038D7FDBCF8091DA
:103130007E038F7ECECF80917E038F7DCACF80911C
:103140007E038F7BC6CF80917E03877F8B7FC1CF2D
:1031500080917F038D7F8E7FC5CF80917E0382FB20
:10316000222720F991E0922790FB82F990FB83F9C6
:10317000B0CF80917F03982F909591708E7F892B8F
:1031800090FB81F9AFCF0E94882280917E0387FB5C
:10319000222720F991E0922790FB87F99ACF61E0EE
:1031A0008EE090E00E94C52D80917E0390917F0378
:1031B0000E942A1E0E9488227ACE053FFCE51F0746
:1031C00031F406E221EE42EE65EF7CE5ABCE053F41
:1031D0002CE5120730F407E225EE44EE64EF7CE5BF
:1031E000A1CE063F3CE5130709F0C3CE07E225EE6A
:1031F00046EE66EF7CE596CE80915E0406319CE556
:10320000190709F58A7A91E009F490E09093D503C3
:10321000882311F065E301C069E286ED93E00E9426
:10322000F51D0EC006311C4509F0D6C08091D503AE
:10323000882309F48CC365E386ED93E00E94CD1DDD
:103240000E94B91E34CE82720A3C3CE5130709F491
:103250007BC098F5053CECE51E0709F461C0B8F4A5
:10326000033C2CE5120709F451C008F054C0023C9D
:103270008CE5180709F07FC09091870681E08927C7
:1032800080938706109214010E945E1110CE073CB5
:103290009CE5190709F44EC008F447C0083CFCE55A
:1032A0001F0709F44CC0093C2CE5120709F063C064
:1032B00042EB5FE06EEB7FE055C00F3C3CE513074F
:1032C00009F455C098F40C3CECE51E0709F446C01F
:1032D00008F43FC00D3C2CE5120709F446C00E3C33
:1032E0003CE5130709F047C085E042C0063D8CE588
:1032F000180730F4013D1C4508F0D9CD82E138C0F3
:103300000D35EDE51E0709F4D2CD35C044EF5FE081
:103310006DEF7FE027C04DEF5FE064EF7FE022C0FC
:1033200042EE5FE06BEE7FE01DC04BEE5FE062EED1
:103330007FE018C04AEC5FE066ED7FE013C046ED29
:103340005FE06AEC7FE00EC04EEB5FE062EB7FE097
:1033500009C040E751E166E671E104C046E651E18B
:1033600060E771E10E945411A2CD81E001C08DE0BF
:103370000E94BB229CCD0A35FDE51F0741F150F4A8
:1033800001153CE51307A9F00E3D1C4529F50E94E7
:10339000481E8DCD0B359DE51907D9F00C351D451F
:1033A000D9F480917F0382FB882780F991E08927F7
:1033B00011C00E948822FFEF04E31CE0F15000409E
:1033C0001040E1F700C000000E94421D70CD81E076
:1033D00001C080E00E940D1FF701828100811181F0
:1033E000882349F0C8010E941F1FD82E682FC801EA
:1033F0000E94C11F04C0C8010E94951FD82EB801A9
:103400008D2D0E9445138C01982EF701B280A58066
:10341000A2949FE0A92280915B04877099F0BB2061
:1034200089F0812F807F803421F080E2800F883006
:1034300048F082E00E941B2080915B048770DD24AD
:10344000D3948111D12CC12EC2948FE0C8228C2D2F
:1034500090E08C30910508F03FC2FC01EF56FF4F21
:103460000C94742E812F807F1F70882311F0129589
:10347000107FBB20B9F0112309F419C280E2800F3C
:10348000883010F0911006C080915E04182B1093C4
:103490005E0405C080915D04182B10935D040E94AA
:1034A000B91E05C2802F0E94C42B112309F414C237
:1034B000005E1095083010F0911006C080915E04F7
:1034C000182310935E0405C080915D0418231093A7
:1034D0005D040E94B91E00C2812F807F1F70803260
:1034E00011F01295107F992021F0F1E09F1611F153
:1034F00030C0BB20B1F0AA2081F001E0A0120DC0C5
:1035000080917F0382FDE8C180915F04182B18171A
:1035100009F4E2C110935F04DFC180915F04812B45
:1035200010C0AA2021F021E0A21609F4D5C10E9402
:10353000B31E27C0BB2041F035E03A1508F4CCC1DA
:10354000812F0E94BA2BC8C184E08A1508F4C4C137
:1035500018C0BB2049F0AA2099F3F701858180FFAC
:10356000A6C18F708583ECCFAA2059F0093309F0EA
:10357000B0C1FFEF17EE23E0F15010402040E1F71B
:10358000A6C1812F0E94AF2BA7C1812F869586955A
:10359000837019F0813059F09FC1BB2019F0C80128
:1035A000937002C080E090E00E94BB109BC1BB20E2
:1035B00019F0C801937002C080E090E00E94A5104D
:1035C00091C1812F837009F069C0B11089C1902F1A
:1035D000929596959770990F990F802F8F70882EDE
:1035E000912CA12CB12C092E04C0880C991CAA1C6A
:1035F000BB1C0A94D2F704FF12C04FE050E060E019
:1036000070E004C0440F551F661F771F9A95D2F7CC
:10361000DB01CA0180959095A095B09503C080E02C
:1036200090E0DC0116951695412F4370423019F158
:10363000C8F40091600410916104209162043091FB
:103640006304413059F088299929AA29BB29BC0172
:10365000CD0160237123822393230AC0802A912AFB
:10366000A22AB32ABC01CD01682979298A299B297C
:103670000E94592035C188299929AA29BB2900917E
:103680006004109161042091620430916304BC01D4
:10369000CD016027712782279327EACFBB2019F03D
:1036A000812F817001C08695882309F419C1902F5C
:1036B000929596959770990F990F802F8F70882EFD
:1036C000912CA12CB12C092E04C0880C991CAA1C89
:1036D000BB1C0A94D2F704FF12C04FE050E060E038
:1036E00070E004C0440F551F661F771F9A95D2F7EC
:1036F000DB01CA0180959095A095B09503C080E04C
:1037000090E0DC0116951695412F43704230D9F0B8
:1037100068F500918D0610918E0620918F063091EC
:103720009006413059F088299929AA29BB29BC0162
:10373000CD0160237123822393231EC0802A912A06
:10374000A22AB32A13C088299929AA29BB29009142
:103750008D0610918E0620918F0630919006BC0147
:10376000CD01602771278227932706C0BC01CD01B8
:10377000682979298A299B290E94EC1FB1C01F70F2
:10378000BB2039F0812F0E943820802F0E94BA2B55
:10379000A7C0802F0E94AF2B812F0E94F61FA0C0D0
:1037A000802F32EF931609F440C0391538F090EFAE
:1037B000991661F0E1EF9E1699F174C0F3EF9F1630
:1037C000D9F124EF921609F44EC06CC0BB2019F158
:1037D00034E03A1508F480C01F7181E090E0A0E069
:1037E000B0E0AC01BD0104C0440F551F661F771F38
:1037F0001A95D2F780918D0690918E06A0918F0632
:10380000B09190068A019B01082719272A273B2798
:10381000C901B80125C025E02A1508F45DC0DCCF38
:10382000BB2029F0812F8F7130C0BB20D9F3812FAD
:103830008F710E94F61F50C0BB2079F01F7181E08C
:1038400090E0A0E0B0E0BC01CD0104C0660F771F9E
:10385000881F991F1A95D2F703C060E070E0CB0172
:103860000E94EC1F39C0BB2099F01F71812F0E946C
:10387000382080917F0382FD07C038E0139FC0018C
:103880001124836080935B04812F0E94382024C020
:1038900081E00E941B2081E08A15F0F482E00E9402
:1038A0001B201AC0BB2039F0AA2009F4BBCF802FFF
:1038B0000E94F62B11C0AA2009F4B9CF893349F42C
:1038C0009FEFE7EEF3E09150E040F040E1F700C0F9
:1038D0000000802F0E94C42B88EF8C0D843010F4E0
:1038E0000E94D110DD20A9F180915B0480FD31C0E0
:1038F000F70112828595859585950E943820C7012C
:103900000E940B1680915B04859585958595299677
:103910000FB6F894DEBF0FBECDBFDF91CF911F91E0
:103920000F91FF90EF90DF90CF90BF90AF909F905E
:103930008F907F906F905F904F903F900C94F61F08
:1039400001319FE5190709F0E4CA82E0ACCA69E2D7
:1039500073CC29960FB6F894DEBF0FBECDBFDF91B2
:10396000CF911F910F91FF90EF90DF90CF90BF907C
:10397000AF909F908F907F906F905F904F903F900F
:103980000895089580916504089580E00895CF9387
:10399000DF9300D01F92CDB7DEB7909188049430AA
:1039A00011F589837B836A839093E9008FEF90916F
:1039B000E800815095FD06C095ED9A95F1F700005D
:1039C0008111F5CF8091E80085FF0DC040E050E007
:1039D00063E070E0CE0101960E9433268091E800FA
:1039E0008E778093E8000F900F900F90DF91CF912A
:1039F0000895BC0184E00C94C71CBC0183E00C94C6
:103A0000C71CCF93DF9320911001222339F020911E
:103A10007E0327FF03C060E224E002C068E021E0EB
:103A20002093E9002FEF3091E800215035FD06C0CA
:103A300035ED3A95F1F700002111F5CF2091E8001E
:103A400025FF1DC0EC0180911001811105C040E0EF
:103A500050E068E070E003C070E040E050E0CE016C
:103A60000E9433268091E8008E778093E80080E200
:103A7000FE01A6E6B4E001900D928A95E1F7DF9190
:103A8000CF91089581E08093E00080E28093D80098
:103A90001092C9008FE19EE40197F1F700C0000089
:103AA00087E090EBDC018093920690939306A093BD
:103AB0009406B09395069CE088E10FB6F894A8951B
:103AC000809360000FBE90936000FFCF78941F92A8
:103AD0000F920FB60F9211248F939F93AF93BF93C2
:103AE0008091B0039091B103A091B203B091B30360
:103AF0000196A11DB11D8093B0039093B103A093D3
:103B0000B203B093B303BF91AF919F918F910F9088
:103B10000FBE0F901F9018952FB7F8946091B003C7
:103B20007091B1038091B2039091B3032FBF0895B8
:103B30002FB7F8948091B0039091B103A091B20394
:103B4000B091B3032FBF08951F920F920FB60F923B
:103B500011248F939F93AF93BF9380918003811122
:103B600013C08091B0039091B103A091B203B091C2
:103B7000B3034196A11DB11D8093B0039093B1038F
:103B8000A093B203B093B303BF91AF919F918F9174
:103B90000F900FBE0F901F901895209110012223B7
:103BA000C9F020917E0327FF15C0262F2695269564
:103BB00026952E31C8F4FC01E20FF11D677081E0FB
:103BC00090E001C0880F6A95EAF780959281892379
:103BD00082830895FC0106962281621301C012823D
:103BE0003196E817F907C1F70895209110012223B3
:103BF000C1F020917E0327FF14C0262F269526951D
:103C000026952E3130F5FC01E20FF11D677081E041
:103C100090E001C0880F6A95EAF79281892B828330
:103C20000895FC0132962FEF30E04191641789F03E
:103C30002F3F19F4411101C0232F3F5F3630A9F700
:103C40002F3F39F0FC01E20FF11D27FDFA95628349
:103C500008950895CF93C92F682F84E090E00E94C3
:103C6000C52D6C2F82E290E0CF910C94C52DCF939F
:103C700084E090E00E94A72DC82F82E290E00E948D
:103C8000A72D2C2F30E0A901582BCA01CF91089500
:103C90006AEE7EEF80E090E00E94E32D60E082E03B
:103CA00090E00E94C52D60E083E090E00E94C52D69
:103CB00010926004109261041092620410926304E6
:103CC00060E084E090E00E94C52D60E082E290E038
:103CD0000E94C52D60E085E090E00E94C52D60E067
:103CE00086E090E00E94C52D6FEF87E090E00E9493
:103CF000C52D40E050E0BA0188E090E00E94D72D49
:103D000060E08DE090E00E94C52D40E050E0BA01F7
:103D100088E190E00E94D72D60E087E190E00E946A
:103D2000C52D40E050E0BA018CE190E00E94D72D13
:103D300060E070E080E290E00E94E32D40E050E01F
:103D4000BA0188E190E00E94D72D40E050E0BA012E
:103D50008FE090E00E94D72D40E050E0BA0183E16F
:103D600090E00C94D72D80915F04811110925F0434
:103D7000089590915E0480915D04892B20915C04EC
:103D8000982F922B9093D60380915F048823D9F0CB
:103D9000892B8093D60380911001882331F0809184
:103DA0007E0387FF02C08EE101C086E0E8EDF3E00C
:103DB00090E0815028F021912223D9F39F5FF9CF21
:103DC00091110E94B31EE091AE03F091AF033097C2
:103DD000A9F080911001882359F080917E0387FF1C
:103DE00007C08091D6038093D70385E08093D603E4
:103DF0000280F381E02D86ED93E00994089580E040
:103E000090E00E94BB1080E090E00E94A51010920C
:103E10005D0410925C040C94B91E90917F0392FB98
:103E2000222720F9281751F080FB92F990937F0305
:103E300080917E0390917F030C942A1E0895BF9277
:103E4000CF92DF92EF92FF920F931F93CF93DF9366
:103E50008C01C0908D06D0908E06E0908F06F09079
:103E600090068091600490916104A0916204B091E9
:103E70006304C82AD92AEA2AFB2ACFE1D0E0D70175
:103E8000C6010C2E04C0B695A795979587950A9400
:103E9000D2F780FD04C0219790F7B12C07C0BC2E4B
:103EA000B8018C2F0E9445130197A9F38B2DDF9148
:103EB000CF911F910F91FF90EF90DF90CF90BF9027
:103EC0000895CF93DF93EC010E941F1FBE010E9453
:103ED0004513DF91CF9108950E94611F292F2F7004
:103EE000E92FE295EF704E2F50E0FA013297EE3055
:103EF000F105B8F4E356FF4F0C94742E803F99F00F
:103F000018F4883E70F40FC0843F59F40CC0883E0A
:103F100050F0813F31F407C0822F869586958695B3
:103F2000089580E0089581E008952EE0929F800D2D
:103F30001124682F669566956695982F977085E091
:103F4000689FB001112440E050E080E0FB01E40FE5
:103F5000F51FE25DFB4F208130E0092E02C036954F
:103F600027950A94E2F721703327042E01C0220F0F
:103F70000A94EAF7822B4F5F5F4F4530510531F7C6
:103F800008952EE0929F800D1124E82FE695E69586
:103F9000E695877051E001C0550F8A95EAF785E0F4
:103FA000E89FF0011124E25DFB4F20E030E070E07B
:103FB0004081CB01022E02C0969587950A94E2F7C4
:103FC0008170819584278523842781932F5F3F4FBC
:103FD0002530310569F7089560938D0670938E063C
:103FE00080938F06909390060C94FF1E0F931F935F
:103FF00041E050E060E070E004C0440F551F661FD0
:10400000771F8A95D2F7409550956095709580916D
:104010008D0690918E06A0918F06B09190068A0130
:104020009B01082319232A233B23C901B8011F91AF
:104030000F910C94EC1F20915B0480958223809358
:104040005B04982F977041F430E0482F082E000C45
:10405000550B2417350721F490917F0392FF07C079
:104060008595859585950E94F61F10925B040895AD
:104070000F931F9341E050E060E070E004C0440FF4
:10408000551F661F771F8A95D2F780918D069091F4
:104090008E06A0918F06B09190068A019B01082B95
:1040A000192B2A2B3B2BC901B8011F910F910C949E
:1040B000EC1F60936004709361048093620490939A
:1040C00063040C94FF1E80912D049091FC038917CA
:1040D00019F08F5F8770FBCF08950F931F93CF93D5
:1040E000DF938091FB0382958F7009F05DC0809112
:1040F000F803882309F458C080912D041091FC0323
:104100006091F6037091F703C091F903D091FA031F
:1041100091E06F3F09F090E0292F06E0811709F444
:1041200043C0209721F07F3F21F030E003C031E011
:1041300001C0322F90E030FD34C0089FF001099F8C
:10414000F00D1124DF01A350BC4F11963C91119743
:10415000371327C03C91361324C012963C91129716
:1041600031111FC013964D915C9114974C1B5D0B40
:10417000483C5105B0F48091FB038F7080618093BF
:10418000FB03EE5FFB4F80818F708061808386EF41
:1041900093E00E940B16DF91CF911F910F910C9429
:1041A000632001968770BACFDF91CF911F910F9155
:1041B00008959F92AF92BF92CF92DF92EF92FF92BB
:1041C0000F931F93CF93DF93CDB7DEB761970FB6F1
:1041D000F894DEBF0FBECDBF8C0185E0F801DE0193
:1041E0001D9601900D928A95E1F7F80190818181E9
:1041F000E2803091F6036091F7034091F90350910A
:10420000FA034115510531F06F3F31F421E03F3F92
:1042100019F403C021E001C020E0F22FF1709F2EBD
:1042200020FD23C1F801C380D48026EFA22E23E015
:10423000B22EF090F803F601E41BF50BFF2009F411
:10424000CEC02091FB03E83CF10508F099C0422F55
:10425000407F09F051C0681311C039130FC0FE2C04
:10426000E1100CC02F7020612093FB03C5010E9458
:104270000B168091FB03F801858337C1CD2831F0FF
:104280008F3F31F421E09F3F19F403C021E001C0CA
:1042900020E020FD03C021E02E2502C020E030E018
:1042A000F22FF170FF2E20FF1DC020912D044091B0
:1042B000FC0356E0241709F4F6C030E0529FF001E9
:1042C000539FF00D1124E350FC4F6181861306C00B
:1042D0006081961303C06281E61204C02F5F3F4FD6
:1042E0002770E8CFFE2CEE2009F4FFC08091FB037D
:1042F00081608093FB0350C0681307C0391305C069
:10430000E11003C0F80125838DC09D878E878D85C0
:104310009E850E946C1F882369F1EE2059F120913F
:10432000FB03822F82958F7090E0029774F080914A
:10433000F6039091F70398878F831986DB86CA86E8
:104340002C87CE0107960E940B1686E0F801A6EF97
:10435000B3E001900D928A95E1F70E946D200DC0A7
:104360006817E1F09D878E878D859E850E946C1F62
:1043700081111EC0C8010E940B16FF24F394B5C022
:10438000422F407F69F786EF93E00E940B1686E08C
:10439000F50111928A95E9F7F12CA7C03913E2CF04
:1043A000E110E0CFF8012583C8010E940B1657C029
:1043B000EE2001F32091FB03822F82958F7090E015
:1043C00002971CF28091F6039091F7039A838983F8
:1043D0001B82DD82CC822E83CE010196B4CFE83CD5
:1043E000F105E8F5FE2CEE2029F2681327C03913F9
:1043F00025C02091FB0320FD18C0822F82958F706D
:10440000482F50E04115510581F0F80125834F30C8
:10441000510541F08F5F982F9295907F822F8F707A
:10442000892B8583C8010E940B1686E0F801A6EF50
:10443000B3E001900D928A95E1F757C09D878E8772
:104440008D859E850E946C1F81117FCF8091FB031B
:1044500081608093FB03C8010E940B1646C086E072
:10446000F50111928A95E9F740C0EE2009F482CF58
:104470009D878E878D859E850E946C1FF82E8823D0
:1044800009F478CF86E0F801A6EFB3E001900D9231
:104490008A95E1F78091F6039091F7030E94611FDE
:1044A0000E946D2022C09D878E878D859E850E94EB
:1044B000611F292F22952F70223028F49F7039F028
:1044C000811105C00BC0243028F49F7049F4805E30
:1044D000883020F0C8010E940B169F2CF92C05C0D3
:1044E000F8019581907F99F7F9CF8F2D61960FB6DE
:1044F000F894DEBF0FBECDBFDF91CF911F910F911A
:10450000FF90EF90DF90CF90BF90AF909F90089575
:1045100010925E0480911001882331F080917E0317
:1045200087FF02C08EE101C086E0E8EDF3E0DF0125
:104530001D928A95E9F70C94FF1E0F931F938091AB
:104540008D0690918E06A0918F06B09190068C01F9
:104550009D010670112722273327BC01CD010630AB
:1045600011052105310511F4686001C0677F1F91B5
:104570000F910C94EC1F90918706937089F0811134
:1045800002C0946007C0883210F09C6903C0880F95
:10459000880F982B90938706109214010C945E114B
:1045A00008956F927F928F929F92AF92BF92CF9217
:1045B000DF92EF920F931F93CF93DF933C01C09153
:1045C0001101CC0FCC0FD4E0DC0FD03408F0DFE3C6
:1045D00060918B06669580918306909184060E9477
:1045E0002C12182FCD1708F044C08C2E912CF401FA
:1045F000EE5FFC4F9081809112018923C1F1F4019B
:10460000EE0FFF1FEC57FD4FC080D12C80E7C81A7A
:10461000D108F401EE0FFF1FEB57FD4FA080B12C26
:10462000E0E2AE1AB108CC9C9001CD9C300D300D6B
:104630001124AA9CC001AB9C900D900D1124820FF7
:10464000931F0E94D211082F6091880670918906ED
:1046500080918A06E12E9501A601F30109950E9439
:104660003612462F282F672FC4010E945C11CF5F9E
:10467000B9CF81E0DF3308F080E0DF91CF911F9167
:104680000F91EF90DF90CF90BF90AF909F908F9061
:104690007F906F900895CF92DF92EF92FF920F93E9
:1046A0001F93CF93DF936C01C0911101CC0FCC0FFE
:1046B000D4E0DC0FD03408F0DFE360918B06669520
:1046C00080918306909184060E942C12182FCD179A
:1046D00078F5EC2EF12CF701EE5FFC4F9081809184
:1046E0001201892319F1F701EE0FFF1FEB57FD4F60
:1046F000208130E020523109F701EE0FFF1FEC5707
:10470000FD4F408150E040575109609188067091FB
:10471000890680918A06012FF60109950E943612BA
:10472000462F282F672FC7010E945C11CF5FCFCF84
:1047300081E0DF3308F080E0DF91CF911F910F918E
:10474000FF90EF90DF90CF900895DF92EF92FF926D
:104750000F931F93CF93DF938C01C0911101CC0F66
:10476000CC0FD4E0DC0FD03408F0DFE360918B068F
:104770006695669521E0620F08F46FEF80918306DD
:10478000909184060E942C12D82ECD17F0F4EC2EB6
:10479000F12CF701EE5FFC4F90818091120189238B
:1047A00091F0609188067091890680918A062D2D7E
:1047B0004C2FF80109950E943612462F282F672F9B
:1047C000C7010E945C11CF5FE0CF81E0DF3308F0CA
:1047D00080E0DF91CF911F910F91FF90EF90DF90DC
:1047E00008959F92AF92BF92CF92DF92EF92FF9285
:1047F0000F931F93CF93DF936C01C0911101CC0FE6
:10480000CC0FD4E0DC0FD03408F0DFE360918B06EE
:104810006695669580918306909184060E942C127D
:10482000182F80E4810F0E948D1190E8F92EF80E68
:10483000812F0E948D1120E8922E980ECD1700F541
:10484000AC2EB12CF501EE5FFC4F908180911201EE
:104850008923A1F0609188067091890680918A066B
:10486000E12E0C2F292D4F2DF60109950E943612AD
:10487000462F282F672FC5010E945C11CF5FDECF26
:1048800081E0DF3308F080E0DF91CF911F910F913D
:10489000FF90EF90DF90CF90BF90AF909F900895E2
:1048A000CF92DF92EF92FF920F931F93CF93DF93FC
:1048B0008C01C0911101CC0FCC0FD4E0DC0FD034AF
:1048C00008F0DFE320918B0631E0230F08F42FEF8F
:1048D00030E040E050E06FEF7FEF80E090E00E943A
:1048E000E92D7901CD1708F041C0CC2ED12CF6016D
:1048F000EE5FFC4F9081809112018923A9F1909184
:104900005A06915097FD15C0492F092E000C550BE2
:10491000FA01E65AF94F8189C813F3CF440F551FA6
:10492000FA01E65AF94F218D328D2E153F0548F7D1
:1049300001C0970160918B0641E0640F08F46FEFAE
:10494000C9010E942C12AC01609188067091890601
:1049500080918A06F80109950E943612462F282F69
:10496000672FC6010E945C11CF5FBCCF81E0DF33AF
:1049700008F080E0DF91CF911F910F91FF90EF90B1
:10498000DF90CF9008952F923F924F925F926F9257
:104990007F928F929F92AF92BF92CF92DF92EF92CF
:1049A000FF920F931F93CF93DF93CDB7DEB7279777
:1049B0000FB6F894DEBF0FBECDBF282E4B0120915D
:1049C0001101220F220F2E83122F1C5F103408F0CA
:1049D0001FE330915A063983AE81A11708F07CC0DD
:1049E0008E81682E712CF301EE5FFC4F90818091D7
:1049F0001201892309F46CC0309088064090890622
:104A0000522C1F82C301880F991FDC01AC57BD4F88
:104A1000BB83AA83C301880F991FFC01EB57FD4F8D
:104A2000FD83EC83F9815F1608F040C0E52CF12C82
:104A3000AA81BB81CC90D12CF701E65AF94F818134
:104A4000C81AD108AC81BD81AC90B12C8185A81A5F
:104A5000B108CC9C9001CD9C300D300D1124AA9C46
:104A6000C001AB9C900D900D1124820F931F0E94EA
:104A7000D211082F60918B0621E0620F08F46FEFCE
:104A8000F701EE0FFF1FE65AF94F818D928D0E94BC
:104A90002C127C019501A601632D742D8F81F401E8
:104AA0000995362E472E8F835394BCCF20918A06CA
:104AB0008F81382F329F312D1124832F632D742D38
:104AC0000E943612462F282F672FC3010E945C11C7
:104AD0008E818F5F8E8380CF81E01F3308F080E06E
:104AE00027960FB6F894DEBF0FBECDBFDF91CF91F2
:104AF0001F910F91FF90EF90DF90CF90BF90AF90FC
:104B00009F908F907F906F905F904F903F902F90ED
:104B1000089590918706937041F080938806609382
:104B2000890640938A060C945E1108958093460688
:104B30006093470624E630E042E050E066E476E029
:104B400080EA0E94142D21E0892B09F020E0822FB9
:104B50000895CF92DF92EF92FF920F931F93CF931E
:104B6000DF93C82FD0E09E012C5B394F6901F9011A
:104B70008081882389F165EC8EEF0E94962561E0A3
:104B80008DEF0E94962520EC2C9FC0012D9F900D4B
:104B900011249C012C533B4F790100E010E000935D
:104BA0004606D701A00FB11FE7E4F6E08D9181938F
:104BB00036E0E735F307D1F724E630E041E150E095
:104BC00066E476E080EA0E94142D892B81F4005F70
:104BD0001F4F003C110519F7F6011082DF91CF91AC
:104BE0001F910F91FF90EF90DF90CF900895CE53DB
:104BF000DB4F81E08883F0CFEF92FF920F931F93FA
:104C0000CF93DF93282F30E0A9014E535B4F7A01F9
:104C1000FA019081911109C0F7011082DF91CF91C3
:104C20001F910F91FF90EF900895C82F65EC8EEFC4
:104C30000E94962560E08DEF0E949625F8E1CF9FB7
:104C4000E001112400E010E0F801EC0FFD1FEE562A
:104C5000FB4F6081802F0E9496250F5F1F4F083108
:104C6000110591F7D9CFEF92FF920F931F93CF9336
:104C7000DF937C018B010E949429811119C0E70107
:104C800001151105A1F08091E80085FD0AC0809111
:104C9000E8008E778093E8000E949429882381F3AE
:104CA00007C089918093F10001501109E9CF80E09C
:104CB000DF91CF911F910F91FF90EF9008951F9377
:104CC000CF93DF93CDB7DEB7AA970FB6F894DEBFC8
:104CD0000FBECDBFEAE8F4E08091F100819344E09B
:104CE000E239F407C9F780918B04833009F462C07C
:104CF00030F4813071F0823009F49CC0B3C08A3046
:104D000009F488C08B3009F46DC0893009F0AAC05D
:104D100020C080918A04813A09F0A4C08091E80003
:104D2000877F8093E80080918E0490918F04892B77
:104D300021F460E286E694E003C060E080E090E069
:104D400070E00E94512B8091E8008B778093E800FF
:104D500089C080918A04813209F084C080918E04D8
:104D600090918F04009719F0029709F07BC0809111
:104D7000E800877F8093E8008091E80082FD05C00D
:104D8000809188048111F8CF6DC02091F30080914B
:104D9000F20090E0922B029729F48091F1008B7F32
:104DA000813021F48091F100809365048091E800C6
:104DB0008B7754C080918A04813A09F053C0809166
:104DC0008E0490918F04892B09F04CC08091E800EB
:104DD000877F8093E8008091E80080FFFCCF80917E
:104DE000100137C080918A048132E1F580918E04F0
:104DF00090918F04892BB1F58091E800877F809393
:104E0000E8000E94C72980918C04809310010E94C1
:104E1000882228C080918A04813221F58091E8009F
:104E2000877F8093E8000E94C72980918D0480933A
:104E3000640418C080918A04813AA1F48091E8004A
:104E4000877F8093E8008091E80080FFFCCF80910D
:104E500064048093F1008091E8008E778093E800ED
:104E60000E94C7298091E80083FFDDC180918A04F8
:104E700090918B04492F50E04A30510508F0D3C17E
:104E8000FA01E555FF4F0C94742E803821F08238DA
:104E900009F0C9C108C080918604909187049923C4
:104EA00089F082600FC080918E048F70873008F087
:104EB000BAC18093E9008091EB0085FB882780F9D7
:104EC0001092E9009091E800977F9093E80080931A
:104ED000F1001092F10070C1282F2D7F09F0A3C1BD
:104EE000882319F0823061F09EC180918C0481305A
:104EF00009F099C1933009F080E0809387042EC0B7
:104F000080918C0481112AC080918E048F702FEFC4
:104F1000280F263008F087C18093E9002091EB002C
:104F200020FF1CC0933021F48091EB00806214C0FC
:104F30009091EB0090619093EB0021E030E0A901AB
:104F400002C0440F551F8A95E2F74093EA00109281
:104F5000EA008091EB0088608093EB001092E900FA
:104F60008091E800877F8093E8000E94C7295BC199
:104F7000811159C110918C041F778091E3008078D2
:104F8000812B8093E3008091E800877F8093E80085
:104F90000E94C7298091E80080FFFCCF8091E30048
:104FA00080688093E300111102C082E001C083E0B9
:104FB0008093880438C18058823008F034C1209131
:104FC0008C0430918D042C3D53E0350779F583E056
:104FD0008A838AE289834FB7F894DE01139620E032
:104FE0003EE051E2E32FF0E050935700E49120FFC0
:104FF00003C0E295EF703F5FEF708E2F90E0EA30D4
:1050000010F0C79601C0C0968D939D932F5F2431F9
:1050100049F74FBF8091E800877F8093E8006AE2FC
:1050200070E0CE0101960E94512BB4C080918E0495
:1050300090918F04432F552743305105A9F068F410
:105040004130510509F4FEC04230510509F0EBC072
:105050008BE590E0E5EAF6E04BC04132510529F1DD
:105060004232510589F1DFC0C9019927813091058C
:10507000A1F058F0029709F0D6C0E2E1F7E0E49120
:105080008E2F90E0E2E1F7E030C0E4E3F7E0E49156
:105090008E2F90E0E4E3F7E028C0E4E2F7E0E4914B
:1050A0008E2F90E0E4E2F7E020C08330910508F015
:1050B000BAC0880F991FFC01E85CFD4F0190F08198
:1050C000E02D89E090E014C08330910508F0ABC07A
:1050D000FC01EE0FFF1FEE5CFD4F0190F081E02D13
:1050E000DC01A15DBD4F8C9190E0009709F49BC05D
:1050F0002091E800277F2093E800209190043091D0
:1051000091042817390708F4C90140E0009789F194
:1051100020918804222309F43DC02530D9F1209143
:10512000E80023FD37C02091E80022FD2FC0209128
:10513000E80020FFEBCF4091F3002091F20030E037
:10514000342B009759F02830310540F444914093B6
:10515000F100319601972F5F3F4FF3CF41E02830A8
:10516000310509F040E02091E8002E772093E80017
:10517000CDCF4111CDCF0AC080918804882351F052
:10518000853041F08091E80083FD04C08091E80003
:1051900082FFF2CF8091E8008B778093E80043C0D4
:1051A000803809F040C08091E800877F8093E80054
:1051B000809189048093F1008091E8008E77D3CEAE
:1051C000811131C080918C0490918D0499270297B0
:1051D00054F58091E800877F8093E80010918C045B
:1051E000109389040E94C729111106C08091E30021
:1051F00087FD02C081E001C084E08093880442E022
:1052000061EC81E00E94E62942E261EC84E00E94C8
:10521000E62942E261EC82E00E94E62942E260EC8B
:1052200083E00E94E6298091E80083FF10C080910E
:10523000E800877F8093E8008091EB008062809394
:10524000EB0005C082E190E0E0E0F7E051CFAA96E4
:105250000FB6F894DEBF0FBECDBFDF91CF911F9187
:1052600008951F920F920FB60F9211242F933F9320
:105270004F935F936F937F938F939F93AF93BF935E
:10528000CF93DF93EF93FF93C091E900CF708091AC
:10529000EC00D82FD17080FDD0E81092E900809109
:1052A000F000877F8093F00078940E945F26109230
:1052B000E9008091F00088608093F000CD2BCF70E2
:1052C000C093E900FF91EF91DF91CF91BF91AF9132
:1052D0009F918F917F916F915F914F913F912F910E
:1052E0000F900FBE0F901F901895E8EDF0E08081B1
:1052F0008E7F80831092E2001092DA001092E1001B
:10530000A0EEB0E08C9181608C9380818F77808358
:1053100019BCA7EDB0E08C918E7F8C9380818F7E3D
:1053200080831092910608952091E4003091E50069
:1053300095E64091EC00842F817040FF23C080915E
:10534000E80080FD1DC080918804882399F0853095
:1053500099F08091EB0085FD11C04091E4005091DF
:10536000E5002417350729F3915011F09A01E1CF98
:1053700084E0089582E0089583E0089581E008952F
:1053800080E008954091E80042FFDDCF08958091CC
:105390008A0487FF11C08091E80082FD05C08091DA
:1053A00088048111F8CF11C08091E8008B770BC081
:1053B00080918804882349F08091E80080FFF8CF2D
:1053C0008091E8008E778093E8000895982F9730B9
:1053D00068F59093E900981739F07091EC002091EE
:1053E000ED005091F00003C0242F762F50E021FDF6
:1053F00002C09F5FECCF3091EB003E7F3093EB001B
:105400003091ED003D7F3093ED003091EB00316045
:105410003093EB007093EC002093ED005093F0007C
:105420002091EE0027FDE5CF80E008958F708093F6
:10543000E90081E00895CF92DF92EF92FF920F93FF
:105440001F93CF93DF93C8EDD0E088818F7E888350
:10545000E7EDF0E080818160808384E082BF81E0BD
:105460008093910688818E7F888302EE10E0F80198
:1054700010821092DA0081EEC82ED12CF601108233
:1054800088818F77888388818068888388818F7DF1
:10549000888319BC109288041092890410928704A2
:1054A0001092860490EEE92EF12CF70180818B7F1B
:1054B000808388818160888342E060E080E00E9490
:1054C000E629F60180818E7F8083F80180818160EA
:1054D0008083808188608083F70180818E7F8083D4
:1054E000888180618883DF91CF911F910F91FF9018
:1054F000EF90DF90CF9008951F920F920FB60F920A
:1055000011242F933F934F935F936F937F938F93C8
:105510009F93AF93BF93EF93FF938091E10082FF3E
:1055200009C08091E20082FF05C08091E1008B7F7D
:105530008093E1008091DA0080FF2AC08091D8003A
:1055400080FF26C08091DA008E7F8093DA00809100
:10555000D90080FF18C080E189BD82E189BD09B40E
:1055600000FEFDCF81E08093880480919106811137
:105570000FC00E9475290E941B2A8091E20084605E
:105580008093E20005C019BC109288041092910625
:105590008091E10080FF17C08091E20080FF13C07E
:1055A0008091E2008E7F8093E2008091E200806132
:1055B0008093E2008091D80080628093D80019BC6B
:1055C00085E0809388048091E10084FF2EC0809163
:1055D000E20084FF2AC080E189BD82E189BD09B46F
:1055E00000FEFDCF8091D8008F7D8093D800809100
:1055F000E1008F7E8093E1008091E2008F7E8093B6
:10560000E2008091E20081608093E2008091890451
:10561000882311F084E007C08091E30087FD02C079
:1056200081E001C083E0809388048091E10083FFE2
:1056300027C08091E20083FF23C08091E100877F33
:105640008093E10082E08093880410928904809125
:10565000E1008E7F8093E1008091E2008E7F809355
:10566000E2008091E20080618093E20042E060E02D
:1056700080E00E94E6298091F00088608093F0002D
:10568000FF91EF91BF91AF919F918F917F916F911A
:105690005F914F913F912F910F900FBE0F901F90F0
:1056A000189520919004309191042617370748F0FF
:1056B0006115710539F42091E8002E772093E800F8
:1056C00001C0B901FC0120E06115710579F18091FB
:1056D00088048823F1F18530F1F18091E80083FDA1
:1056E0003CC08091E80082FD2EC08091E80080FFE0
:1056F000EBCF2091F3008091F20090E0922B6115A6
:10570000710551F08830910538F421912093F10012
:10571000615071090196F3CF21E0089709F020E06C
:105720008091E8008E778093E800CECF2111CFCF13
:105730000AC080918804882361F0853061F08091EF
:10574000E80083FD0AC08091E80082FFF2CF80E08C
:10575000089582E0089583E0089581E00895882304
:1057600041F0809590915E04892380935E040C94AF
:10577000B91E0895882339F090915E04892B809397
:105780005E040C94B91E0895882379F19CEF980F5C
:10579000913A30F4682F86ED93E00E94CD1D14C03D
:1057A00090E2980F983090F4877021E030E0A901E2
:1057B00002C0440F551F8A95E2F7CA018095909167
:1057C0005E04892380935E040C94B91E9BE5980FB8
:1057D000933020F480E090E00C94BB10885A87311D
:1057E00020F480E090E00C94A5100895CF938823D6
:1057F00009F46DC09CEF980F913AC8F5C82F8091BD
:1058000010018823E1F080917E0387FF18C0EC2F00
:10581000E695E695E695F0E0EA52FC4F8281282F66
:1058200030E04C2F477081E090E002C0880F991F54
:105830004A95E2F782239323892B61F412C0E8EDA5
:10584000F3E08EED93E02191C21721F08E179F07B0
:10585000D1F707C06C2F86ED93E00E94CD1D0E940A
:10586000B91E6C2F86ED93E00E94F51D13C090E2E7
:10587000980F983090F4877021E030E0A90102C0C1
:10588000440F551F8A95E2F7CA0190915E04892B57
:1058900080935E04CF910C94B91EEBE5E80FE330E2
:1058A00040F4F0E0EF5BFC4F808190E0CF910C94EE
:1058B000BB10885A873158F4E82FF0E0EE0FFF1F35
:1058C000EC5BFC4F80819181CF910C94A510CF911E
:1058D00008951F93CF93DF93182F893319F0C0E0F9
:1058E000D0E002C0C0E5D0E0812F0E94F62B2097C7
:1058F00041F08FE99FE00197F1F700C00000219788
:10590000F6CF812FDF91CF911F910C94C42B109271
:10591000B9008CE08093B8000895EF92FF920F9346
:105920001F93CF93DF93182FEB011092BC0084EAF2
:105930008093BC000E94981D7C018091BC0087FD73
:105940000EC0CF3F8FEFD807C1F30E94981D8E196C
:105950009F098C179D0788F38EEF9FEF2EC08091D3
:10596000B900887F883041F08091B900887F80310C
:1059700019F08FEF9FEF21C01093BB0084E8809354
:10598000BC000E94981D8C018091BC0087FD0CC05A
:10599000CF3F8FEFD807C1F30E94981D801B910B5A
:1059A0008C179D0788F3D8CF8091B900887F883104
:1059B00011F08034F1F680E090E0DF91CF911F91FB
:1059C0000F91FF90EF9008950F931F93CF93DF9364
:1059D000EB018093BB0084E88093BC000E94981D7B
:1059E0008C018091BC0087FD0EC0CF3F8FEFD807A0
:1059F000C1F30E94981D801B910B8C179D0788F3A3
:105A00008EEF9FEF0CC02091B900287F81E090E0DD
:105A1000283211F480E090E0919581959109DF9111
:105A2000CF911F910F910895CF92DF92EF92FF9245
:105A30000F931F93CF93DF936B018A017901B90113
:105A40000E948D2CE6010C0D1D1DC017D10761F4BD
:105A500024E92093BC00DF91CF911F910F91FF901B
:105A6000EF90DF90CF90089597FDF2CFB701899125
:105A70000E94E42CEACF8F929F92AF92BF92CF9276
:105A8000DF92EF92FF92CF93DF93EC0168817981EF
:105A90008A819B81611571058105910521F464E27C
:105AA00079ED8BE597E02DE133EF41E050E00E9486
:105AB000E92D49015A019B01AC01A7EAB1E40E941A
:105AC000082E6B017C01ACEEB4EFA50194010E949D
:105AD000162EDC01CB018C0D9D1DAE1DBF1DB7FF29
