:100000000C945B030C94A2030C94A2030C94A20323
:100010000C94A2030C94A2030C94A2030C94A203CC
:100020000C94A2030C94A2030C94152A0C94CA28D5
:100030000C94541D0C94A2030C94A2030C94A203E0
:100040000C94A2030C94A2030C94A2030C94A2039C
:100050000C94A2030C94161D0C94A2030C94A203FE
:100060000C94A2030C94A2030C94A2030C94A2037C
:100070000C94A2030C94A2030C94A2030C94A2036C
:100080000C94A2030C94A2030C94A2030C94A2035C
:100090000C94A2030C94A2030C94A2030C94A2034C
:1000A0000C94A2030C94A2030C94A20348074B07E0
:1000B0006D077A078107A1073F083F083F083F08FF
:1000C0003F08A407A607AB07D107F407F707FA070D
:1000D0001E08B006B408E50823096209A509EE095F
:1000E000F109F609F909FE09010A040A070A0A0AD0
:1000F0000D0A100A130A160A190A1E0A210A240AEE
:10010000290A680AAC0AF60AF90AFC0AFF0A040B73
:100110000F0B120B1D0B200B2B0B2E0B390B3C0B5B
:10012000470BE219E2191C1A1C1A751A1C1C1C1C1C
:100130001C1C911A6F1B801B801B291F291F3C1F31
:100140003C1F321F3C1F3C1F3C1F291F291F371F0C
:100150003C1F3C1F371FDE260527AC280527AC288F
:1001600051277427AC286928792800010101010171
:100170000101010102020202020202020203030360
:100180000303030303040404040404040505050530
:1001900005060606060607070707070808080809F0
:1001A0000909090A0A0A0B0B0B0C0C0C0D0D0D0E9C
:1001B0000E0E0F0F0F101011111112121313141431
:1001C000151516161717181819191A1A1B1B1C1DA6
:1001D0001D1E1E1F202021222223242425262627FF
:1001E0002829292A2B2C2D2D2E2F30313232333431
:1001F00035363738393A3B3C3D3E3F404142434437
:1002000045464748494A4C4D4E4F50515354555618
:1002100058595A5B5D5E5F616264656668696B6CC4
:100220006D6F7072737577787A7B7D7E808283853F
:1002300087888A8C8E8F91939596989A9C9EA0A27F
:10024000A3A5A7A9ABADAFB1B3B5B7BABCBEC0C289
:10025000C4C6C9CBCDCFD1D4D6D8DBDDDFE2E4E74D
:10026000E9EBEEF0F3F5F8FAFDFF29001E001F00A0
:100270002000210022002300240025002600270062
:100280002D002E002A002B0014001A000800150073
:1002900017001C0018000C00120013002F00300083
:1002A0003100390004001600070009000A000B00A5
:1002B0000D000E000F003300340000002800E100A4
:1002C0001D001B000600190005001100100036007B
:1002D00037003800E50000000000E000E300E20025
:1002E000000000002C00000000000000E600E70015
:1002F00065000000E400165C3A003B003C003D0055
:100300003E003F00400041004200430044004500E1
:100310004C00010001005200010001000100B20088
:10032000010049000100460047004800005C010050
:10033000500051004F0001000100010001000100C8
:1003400001004A004B0000000100AC00AA00A90017
:10035000A80001000100145C010001004D004E00E6
:10036000AB000000000001000100010000000000DF
:100370000100000000000000010001000100000079
:10038000010001003A003B003C003D003E003F0000
:100390004000410042004300440045004C00010081
:1003A000C25C0100C55CC65CC75CC85CC95CCA5C59
:1003B000C35C010001000100005C010001000100BC
:1003C00001000100010001000100CB5CCC5C0100D8
:1003D0000100000001000100010001000100010016
:1003E0000100010001000100010001000100000006
:1003F00000000100010001000000000001000000F9
:1004000000000000010001000100000001000100E7
:1004100001000100010001000100010001000100D4
:1004200001000100010001000100010001000100C4
:1004300001000100010001000100010001000100B4
:1004400001000100010001000100010001000100A4
:100450000100010001000100010001000100000095
:100460000100010001000100010001000100010084
:100470000100010001000100010000000000010076
:100480000100010000000000010000000000000069
:100490000100010001000000010000000000000058
:1004A000000000000000000000000000000000004C
:1004B00000000000000000000000000000007E0FAF
:1004C00000D4FFFFFFC7000000780000000000001C
:1004D00000002A2B2800000000000000000000009F
:1004E000000000000029000000002C1E3420212202
:1004F00024342627252E362D3738271E1F2021226B
:10050000232425263333362E37381F0405060708E3
:10051000090A0B0C0D0E0F101112131415161718D3
:10052000191A1B1C1D2F3130232D35040506070811
:10053000090A0B0C0D0E0F101112131415161718B3
:10054000191A1B1C1D2F3130354C05010980A101E2
:10055000850319012AB700150126B700950175100A
:100560008100C0050C0901A101850419012AA0021E
:10057000150126A002950175108100C0050109062C
:10058000A1018505050719E029E715002501950852
:10059000750181020507190029EF1500250195F065
:1005A000750181020508190129059505750191025A
:1005B000950175039101C00660FF0961A1010962FF
:1005C000150026FF00952075088102096315002695
:1005D000FF00952075089102C005010906A10105DB
:1005E0000719E029E7150025019508750181029595
:1005F00001750881010507190029FF150026FF0074
:1006000095067508810005081901290595057501EC
:100610009102950175039101C009025B000301007D
:10062000A0FA0904000001030101000921110100E1
:10063000012240000705810308000A0904010002A5
:100640000300000009211101000122220007058298
:100650000320000107050303200001090402000133
:1006600003000000092111010001226D000705842B
:100670000320000A12011001000000085A44211250
:100680000200010200011A0344005A003600300043
:100690005200470042005F0041004E0053004900F5
:1006A00000000E0344005A00540045004300480077
:1006B00000000403090411241FBECFEFDAE0DEBFFF
:1006C000CDBF04B603FE27C08091840690918506B5
:1006D000A0918606B09187068730904BA740B04B1B
:1006E000D1F410928406109285061092860610921C
:1006F000870614BE84B7877F84BF0FB6F894A89589
:1007000080916000886180936000109260000FBE4D
:10071000E0E0F8E3099513E0A0E0B1E0EAE4FCE5ED
:1007200002C005900D92A436B107D9F726E0A4E6E1
:10073000B3E001C01D92A438B207E1F70E94A40300
:100740000C94232E0C940000CF93DF93CDB7DEB72B
:10075000AD970FB6F894DEBF0FBECDBF84B7877FCD
:1007600084BF0FB6F894A89580916000886180934B
:100770006000109260000FBE90E080E80FB6F89421
:1007800080936100909361000FBE85B7806885BF3C
:1007900085B7806885BF85E79CE19093650380936A
:1007A00064030E940E290E94B4298091E2008460B3
:1007B0008093E200789480917A048823A1F01091CC
:1007C000E9001F709091EC00892F817090FD80E806
:1007D000182B1092E9008091E80083FD0E94F82513
:1007E0001F701093E90082E084BD93E095BD9AEFFD
:1007F00097BD80936E0085EF0E94D71284EF0E9410
:10080000D71281EF0E94D71283E30E94D71282E3AE
:100810000E94D7120DE111E04BE2E42E41E0F42EEC
:10082000D8018D918D010E94D712E016F106C1F713
:10083000E8E6F3E082E793E0A3EBB3E011921192D4
:100840001D921D928E179F07C9F780E090E00E94CD
:10085000482D8A3E9E4F11F00E94EB1D82E090E0F1
:100860000E94402D8093A8030E94DA1D9093670395
:10087000809366030E94E914EFE3FCE93197F1F7F6
:1008800000C000000E94E9148091B30380FF17C0EC
:100890006FEF83E290E00E945E2D6FEF84E290E0C4
:1008A0000E945E2D6FEF85E290E00E945E2D6FEF5B
:1008B0007FEF80E090E00E947C2D0E94F21C83E09C
:1008C00090E00E94402D682F70E080E090E00E9450
:1008D00004200E94A60E10924C06E5E6F6E085E79D
:1008E00096E02FEF3FEF219331938E179F07D9F7B3
:1008F00010927303ECE8F3E08CE993E02FEF3FEF05
:10090000219331938E179F07D9F780E090E00E94E2
:10091000482D8A3E9E4F21F00E94EB1D0E9423111C
:1009200046E050E06CE170E089E796E00E94302DEF
:10093000809179068C7F11F40E94231183E290E06C
:100940000E94402D813281F484E290E00E94402D8B
:10095000863051F485E290E00E94402D91E086318E
:1009600009F090E0892F01C080E080FFBBC386E0E2
:1009700091E09093A1038093A0033DE3232E312CBB
:100980008E010F5F1F4F9E01255F3F4F3CA72BA796
:1009900080917A04853009F06DC080917A048530A9
:1009A00009F062C080917A04843009F434C040E0D8
:1009B00060E080E00E940311FF24F394F092A6030C
:1009C00040E060E080E00E940311F092A6031092E4
:1009D000720380E4A8E1B0E00FB6F894A895A09364
:1009E00060000FBE8093600083B7817F846083BF07
:1009F00083B7816083BF7894889583B78E7F83BFE8
:100A00000FB6F894A895809160008861809360008B
:100A1000109260000FBE80917904882329F10E9412
:100A2000E914E3EBF3E081919191892B31F42DEB03
:100A300033E02E173F07B9F717C0F0E1F9BD82E1A7
:100A400089BD09B400FEFDCF8091D8008F7D8093D1
:100A5000D8008091E00082608093E0008091E00007
:100A600081FDFCCF0E9433220E9433220E947A1023
:100A70001092A6030E94E91481110E943C1DA9EA6C
:100A8000B3E0E3EBF3E0E12CF12C4E2D819091905B
:100A90008D919D9188259925009709F4AFC0D12C9F
:100AA000AA24A394B12C9C012A213B21232B09F4D5
:100AB0009FC0D9A24AA38A209B2081E0811491047F
:100AC00009F480E08BA30E94481D8160782F9DA3CC
:100AD0008CA349A15AA16BA18DA10E94B00FF7016F
:100AE000EE0FFF1FE755FC4F80819181A826B926A4
:100AF000B182A082892889F08EE08E9DF0018F9DC1
:100B0000F00D1124EA5CFD4FED0DF11D80818F3F4A
:100B100021F08DA7DD24D39401C0D12C90907303D4
:100B2000ED2CF12CC701890D911D0997A4F1E8E086
:100B3000AE2EB12CAE18BF08B7016F5F7F4F6D5856
:100B40007C4FA50184E793E00E941A2EB701675FEE
:100B50007F4F6D587C4FA5018CE793E00E941A2EC1
:100B6000A501440F551FB701660F771F675E7F4FC2
:100B70006D587C4F8CE893E00E941A2EB7016F5E8F
:100B80007F4F6D587C4FA50184E893E00E941A2E98
:100B90009A94909273038091730390E03DA5A32FE4
:100BA000B0E09D01220F331F24583D4FAA0FBB1FF9
:100BB000BD0163587D4F41E0480F9D15B0F490E0B2
:100BC000FC01ED58FC4FD9015C915183DB015C9134
:100BD0005187BDA5B18B880F991FFC01ED58FC4FC3
:100BE000128E118E91E0842FE6CF809373031EC086
:100BF000D394AA0CBB1C2EE0D21255CF3FEFE31AC0
:100C0000F30A55E0E516F10409F03FCF8FEF8EA30C
:100C10008FA318A60E94481D8160782F9AA789A7E4
:100C20004EA15FA168A58AA50E94B00F80919C0388
:100C300090919D03A0919E03B0919F032FB7F894CC
:100C40008090A2039090A303A090A403B090A5036A
:100C50002FBF881A990AAA0ABB0A0E943C1D6093FA
:100C60009C0370939D0380939E0390939F03A09198
:100C70007303E3E7F3E02A2F30E044244A94542C32
:100C8000612C712C481859086A087B08A31799F041
:100C9000418D528D6A01E12CF12C4C145D046E04DF
:100CA0007F0410F4215004C0480D591D528F418F0C
:100CB0003F5F3296EBCF209373032091A60321115F
:100CC00009C020917906322F337021F0F22EF6946C
:100CD000F69401C0F12C209114012130E9F038F094
:100CE000223009F45BC0233009F462C07EC0109248
:100CF0001101609375067093760680937706909342
:100D0000780689E2E3E7F3E0ACE4B6E001900D9207
:100D10008A95E1F781E03FC080910501F8120DC08E
:100D200020917906237030E04091040150E081E089
:100D30002417350719F480E001C081E081708093A9
:100D4000130180917E0690911201981709F4E3C176
:100D50008093120140E060E080E00E940311DBC15B
:100D600080911301882329F040E060E080E00E9438
:100D7000031180E0909111019F5F90931101811107
:100D8000D5C182E080931401809113018111CEC1FD
:100D9000F110CFC183E08093140127C0F0920501C8
:100DA000809179068370809304010E94A00EF2CF97
:100DB000409175065091760660917706709178069D
:100DC0002FB7F8948091A2039091A303A091A4035C
:100DD000B091A5032FBF841B950BA60BB70B4A97A9
:100DE000A105B10510F0109214010E947A109091A3
:100DF000A703891721F00E947A108093A70380919E
:100E00007A04843009F0C4CD83E08093E9008091B6
:100E1000E80082FFBDCD8091E80085FF23C00E94DD
:100E20002D2981111DC080E2E82EF12CCE01019602
:100E30005C0109C08091F100D5018D935D01B1E0A5
:100E4000EB1AF10869F08091E80085FDF3CF8091FD
:100E5000E8008B778093E8000E942D29882399F37E
:100E600091E001C090E08091E8008B778093E800EA
:100E7000992309F48DCDE9818E2F90E0FC01319703
:100E8000E331F10508F0FBC0EA5AFF4F0C940D2E38
:100E90001A8289E05EC08A81823009F41AC18330E7
:100EA00051F0813009F0EBC00E943C1D9B838C8384
:100EB0007D836E83E6C0FE013196A3EBB3E08C9197
:100EC00011969C91119712969283838332962BA54B
:100ED0003CA52E173F0799F7D4C08A81823009F0CC
:100EE000CEC06B817C818D819E810E94132E86E213
:100EF00090E024C04C816B818A810E94CA109D833E
:100F0000EFC0AD80BE80BA24AB24BA248C81EB80C4
:100F10009A813CE1E39E700111245CE8959FE00C0E
:100F2000F11C1124E80EF11CE80EF11C6B2DC70119
:100F300087960E945E2D6A2DC70188960E945E2DBD
:100F4000A0C00E9496109DC080E152C081E08A83BB
:100F500089EA8B8396C0EA80FB80FE24EF24FE247E
:100F60008C80912C5801C701895A9D4F9501201BF7
:100F7000310B2815390508F084C0A9EAEA16A1E06A
:100F8000FA0628F40E94402DF501848303C0D501A0
:100F900014961C92BFEFEB1AFB0AEFEFAE1ABE0AD3
:100FA000E2CFEA80FB80FE24EF24FE248C80912C8B
:100FB0005801C701895A9D4F9501201B310B2815F7
:100FC000390508F05EC0F9EAEF16F1E0FF0628F4F3
:100FD000D50114966C910E945E2DBFEFEB1AFB0AAF
:100FE000EFEFAE1ABE0AE5CF0E9486104AC084E039
:100FF0008A8347C0EA80FB80FE24EF24FE248C8095
:10100000912C5801C70187969501201B310B28159B
:101010003905B8F5F0E3EF16F2E0FF0630F40E9470
:10102000402DD50114968C9302C0F5011482FFEF78
:10103000EF1AFF0A2FEFA21AB20AE4CFEA80FB8070
:10104000FE24EF24FE248C80912C5801C701879642
:101050009501201B310B2815390598F430E3E31670
:1010600032E0F30628F4D50114966C910E945E2DAF
:10107000BFEFEB1AFB0AEFEFAE1ABE0AE7CF8FEF16
:10108000898380917A04843009F082CC8091E900D0
:101090008F702091EC00922F917020FD90E8F92E36
:1010A000F82A82E08093E9008091E80080FF0CC07C
:1010B00040E050E060E270E0C8010E94CC258091E1
:1010C000E8008E778093E8008F2D8F708093E90081
:1010D0005FCC86E290E00E94402D1B821C821D8224
:1010E0008E83CFCF60E086E290E00E945E2D0E946A
:1010F00096100E94861061E283E290E00E945E2DCD
:1011000066E084E290E00E945E2D66E185E290E078
:101110000E945E2D2CCC8F2D90E088329105F8F046
:10112000809111018F5F809311012BCEFF2009F474
:101130005CCEE091A003F091A103309729F00190DB
:10114000F081E02D099501C080E081FF4ECE2FEFA8
:101150004FEF6FEF88E290E00E94051146CEFC0150
:10116000E759FF4F0C940D2EE0901101EE0CEE0CA0
:10117000A4E0DA2EDE0C8DE38D1510F4FDE3DF2EF6
:1011800060917A0670917B0680917C060E94DF1147
:10119000B62EA72E982EED1490F4EE2DF0E0DF0180
:1011A000AA50BD4F8C9190911201982331F0292DB6
:1011B0004B2D6A2DCF010E940511E394ECCF81E005
:1011C0009CE39D1508F0D6CDD4CDE0901101EE0C36
:1011D000EE0CE4E0DE2EDE0CADE3AD1510F47DE3A5
:1011E000D72EA0907B06B0907C0690907A06692D51
:1011F0007A2D8B2D0E94DF11862E772E682E60911E
:101200007D06690D7A2D8B2D0E94DF11B62EA72E3B
:10121000982EED1408F0E4C18E2D90E0FC01EA5008
:10122000FD4F308120911201232359F030FF04C07B
:10123000292D4B2D6A2D03C0262D482D672D0E9488
:101240000511E394E6CFE0901101EE0CEE0C64E0A2
:10125000D62EDE0CEDE3ED1510F45DE3D52E809077
:101260007B0670907C0620917D0640E4942E392DFB
:10127000329F312D1124932EED1408F0A9C0AE2C0D
:10128000B12CF501EA50FD4F908180911201892324
:10129000B9F0F501EE0FFF1FE358FD4F80818295F5
:1012A0008F7060917A06899D600D1124782D872DAD
:1012B0000E94DF11462F282F672FC5010E940511BC
:1012C000E394DACFE0901101EE0CEE0C24E0D22E84
:1012D000DE0C8DE38D1510F49DE3D92E80907B06F6
:1012E00070907C0620917D0680E4982E392D329FE7
:1012F000312D1124932EED1408F06AC0AE2CB12CC0
:10130000F501EA50FD4F9081809112018923D9F0B7
:10131000F501EE0FFF1FE458FD4F6081969EB0016E
:101320001124B5E075956795BA95E1F780917A0635
:10133000680F782D872D0E94DF11462F282F672FE9
:10134000C5010E940511E394D6CFE0901101EE0C87
:10135000EE0CE4E0DE2EDE0C8DE38D1510F47DE363
:10136000D72EA0907A06B0907B0690907C06609174
:101370007D066695669566958091750690917606D0
:101380000E94D5110E943611805887FD8195880FE3
:10139000282F392D239F212D1124822FB5010E9442
:1013A000DF11B62EA72E982EED1490F4EE2DF0E05E
:1013B000DF01AA50BD4F8C9190911201982331F01A
:1013C000292D4B2D6A2DCF010E940511E394ECCFFE
:1013D00081E05CE35D1508F0CDCCCBCC86E69DE0EA
:1013E00002C08AE39DE00E945023C4CC8FE39EE0BC
:1013F00002C080E29EE00E94F622BCCC85E09EE026
:101400001AC089EE9DE017C088E39DE0ECCF8FE223
:101410009DE0E9CF86E29DE0E6CF8BE09DE0E3CF63
:101420008CEF9CE008C08CEA91E1E5CF88ED9DE06F
:10143000E2CF84EC9DE00E947C229CCC8EEC9CE070
:1014400005C08CE99CE002C08EE59CE00E949823D8
:1014500091CC8091130181111DC060917D0620E126
:10146000620F08F46FEF80917506909176060E94E6
:10147000D5116AE070E00E94E52D892B09F079CC46
:101480000E94202DB1010E94F92D609112010E944D
:101490006F126FCCA09011018A2D880F880F64E025
:1014A000E62EE80E3DE33E1510F45DE3E52EA82E92
:1014B000B12C8E2C912CA814B9040CF047C060916B
:1014C0001201C5010E946F125FEFA51AB50AF3CF92
:1014D0008091130181111DC060917D0620E1620F92
:1014E00008F46FEF80917506909176060E94D511F1
:1014F00065E070E00E94E52D892B09F03ACC0E944E
:10150000202DB1010E94F92D609112010E94B512A7
:1015100030CCA09011018A2D880F880F44E0E42E72
:10152000E80E3DE33E1510F43DE3E32EA82EB12C6A
:101530008E2C912CA814B9044CF460911201C501B1
:101540000E94B5125FEFA51AB50AF4CF81E09CE3C3
:101550009E1508F00FCC0DCCE0901101EE0CEE0CB6
:1015600024E0D22EDE0CADE3AD1510F49DE3D92EB0
:10157000A0907B06B0907C0690907A0660917D06E4
:1015800066956695669580917506909176060E949F
:10159000D5110E943611805887FD8195880F682FDC
:1015A0002CE0629F612D1124690D7A2D8B2D0E94F4
:1015B000DF11B62EA72E982EED1490F4EE2DF0E04C
:1015C000DF01AA50BD4F8C9190911201982331F008
:1015D000292D4B2D6A2DCF010E940511E394ECCFEC
:1015E00081E0BCE3BD1508F0C5CBC3CB87E591E135
:1015F000FACE8DE49CE0F7CE86E49CE002C080E465
:101600009CE00E94F723B6CB80914C0621E0382F56
:10161000321B08F430E0832F67E27CE03BC067E2D6
:101620007CE037C080914C0621E0582F521B08F413
:1016300050E0852F6FEE7BE02DC06FEE7BE029C080
:1016400080914C0621E0382F321B08F430E0832FC4
:101650006DEB7BE01FC06DEB7BE01BC080914C0607
:1016600021E0582F521B08F450E0852F65EA7BE0FB
:1016700011C065EA7BE00DC080914C0621E0382F57
:10168000321B08F430E0832F6FE87BE003C06FE883
:101690007BE080E00E9461246DCB8D33910520F5C5
:1016A000880F991F880F991FFC01ED5CFE4F528136
:1016B0003381808183707181E82FF0E0A0EC8A9FF4
:1016C000C00111248A549B4FDC01A70FB11D6C93FC
:1016D000DC01A50FB11D4C93DC01A30FB11D2C93B0
:1016E000EA5CF94F81E080830895FF920F931F9386
:1016F000CF93DF93182F062FF42EC0E0D0E02F2DCC
:10170000402F612FCE010E944D0B2196CD33D10584
:10171000B1F7DF91CF911F910F91FF900895EF9254
:10172000FF920F939701201B31092F3F310519F0CC
:1017300010F02FEF30E02095382F320F08F43FEFF4
:10174000832F0F91FF90EF900895EF92FF920F93E8
:101750009701201B31092F3F310519F010F02FEFB1
:1017600030E0322F3095482F430F08F44FEF842F8D
:10177000620F0F91FF90EF900895EF92FF920F93F9
:10178000972F093438F4B701601B71096F3F710559
:1017900019F010F06FEF70E0485F5F4F4131510575
:1017A00040F0A901485F5F4F4131510510F06FEFE4
:1017B00070E06095482F460F08F44FEF842F37FFF5
:1017C00002C02D5F3F4F3595279535952795609140
:1017D0007A06620F792F0F91FF90EF900895EF92A4
:1017E000FF920F93E00EF11CF90137FF03C0F19552
:1017F000E195F10924E0EE0FFF1F2A95E1F7EF3F95
:10180000F10519F014F0EFEFF0E09A0157FF03C073
:1018100031952195310994E0220F331F9A95E1F714
:101820002E173F070CF4F901EE0DFF1DEF3FF105F8
:1018300019F010F0EFEFF0E02E2F2095382F320F37
:1018400008F43FEF832F0F91FF90EF900895EF92F0
:10185000FF920F93970195E0099F200D311D1124F0
:101860002F3F310519F010F02FEF30E02095382F81
:10187000320F08F43FEF832F0F91FF90EF90089500
:1018800022E8241B08F420E0620F08954095282FD9
:10189000429F412D1124842F0895E42FF0E0EE0F94
:1018A000FF1FE458FD4F9081921B97FD9195292FC2
:1018B00038E1239F212D1124620F08950F931F9368
:1018C00010E0F801EE0FFF1FE458FD4F9081905794
:1018D00097FD9195000F111FF801E358FD4FE0812E
:1018E000F0E0B097DF01AA0FBB1F8D010E0F1F1F85
:1018F0002003D001219FB00D1124E8E3F0E0E91BA3
:10190000F10997FDF3959F01220F331F89010E0FF7
:101910001F1F40039001419F300D11242A0F3B1FD0
:1019200037FF02C021583F4F220F232F221F330BB6
:10193000620F1F910F9108950F931F93522F10E084
:10194000F801EE0FFF1FE358FD4FE081F0E0B09784
:10195000EE0FFF1F9F015203D001539FB00D1124C2
:10196000000F111FF801E458FD4F008110E00057EF
:101970001109000F111F40039001419F300D1124E8
:101980002A0F3B1F37FF02C021583F4F220F232F42
:10199000221F330B620F1F910F9108950F931F9316
:1019A000522F10E0F801EE0FFF1FE358FD4FE081CA
:1019B000F0E0B0979F015203D001539FB00D112466
:1019C000000F111FF801E458FD4F008110E000578F
:1019D000110940039001419F300D11242A0F3B1F34
:1019E00037FF02C021583F4F220F232F221F330BF6
:1019F000620F1F910F910895EF920F931F9393E041
:101A0000099F80011124159507956E2D600F1F9178
:101A10000F91EF900895A22F50E0FA01EE0FFF1FF3
:101A2000E358FD4F9081905297FD9195440F551FBB
:101A3000FA01E458FD4F3081232F30E02A1B310991
:101A4000290F311D97FD3A95620F0895E42FF0E0BC
:101A5000EE0FFF1FE358FD4F6081621B0895E42FD6
:101A6000F0E0EE0FFF1FE458FD4F6081621B089508
:101A7000622F0895E42FF0E0EE0FFF1FE458FD4FB2
:101A8000408134EE439F412D1124E82FF0E050E0D7
:101A9000445E5F4FDA01A21BB1099D01B7FF03C08D
:101AA00031952195310993E0220F331F9A95E1F783
:101AB000AF01421B530B9A0157FF02C020E030E0F8
:101AC000582F259F212D1124822F0895E42FF0E017
:101AD000EE0FFF1FE458FD4F408134EE439F412D30
:101AE0001124E72FF0E050E0445E5F4FDA01A21BC3
:101AF000B1099D01B7FF03C031952195310993E0EC
:101B0000220F331F9A95E1F7AF01421B530B9A0145
:101B100057FF02C020E030E0279F212D1124722FB3
:101B20000895FC019B01009721F477FF2BC080E80A
:101B30000895AC0197FF04C044275527481B590B53
:101B4000B901640F751F37FD0CC0241B350BC9018B
:101B5000A5E0880F991FAA95E1F70E94F92D80E270
:101B60000CC0CB0165E0880F991F6A95E1F7BA01B7
:101B7000621B730B0E94F92D80E6861BF7FF03C0E2
:101B80008195089580E00895EF920F93CF93DF93AE
:101B9000D72FC82FC9010E19BA010E94910D602FCD
:101BA000681B7D2F8C2FDF91CF910F91EF900895BF
:101BB0000F93CF93DF93D72FC82FC901BA010E948B
:101BC000910D682F600F7D2F8C2FDF91CF910F919A
:101BD0000895EF920F931F93CF93DF93D62FC72FC4
:101BE000182FC9010E19010FBA010E94910D081B8F
:101BF000202F219F212D1124822F6D2F7C2FDF91EB
:101C0000CF911F910F91EF900895EF920F931F9333
:101C1000CF93DF93D62F172FC82FC9010E19070FA7
:101C2000BA010E94910D702F781B719F712D1124A4
:101C30006D2F8C2FDF91CF911F910F91EF90089511
:101C4000FF920F931F93CF93DF93F62ED72F182F6A
:101C5000C901C12FC01BBA010E94910D982F990F85
:101C6000890FC81B2C2F219F212D1124822F6F2D0E
:101C70007D2FDF91CF911F910F91FF900895FF92DB
:101C80000F931F93CF93DF93F62E172FD82FC901F1
:101C9000C72FC01BBA010E94910D982F990F890F71
:101CA0007C2F781B719F712D11246F2D8D2FDF914B
:101CB000CF911F910F91FF9008959091660392FF2D
:101CC0000DC0282F2871283019F4877F846006C042
:101CD000282F2471243011F48B7F886093FF0DC06E
:101CE000282F2871283119F4877E846106C0282F97
:101CF0002471243111F48B7E88612091670320FFC9
:101D00000DC0382F3871383019F4877F816006C0D4
:101D1000382F3171313011F48E7F886021FF0DC072
:101D2000282F2871283119F4877E816106C0282F59
:101D30002171213111F48E7E886194FD877E089592
:101D400080E00E94422581E00C944225AF92BF9230
:101D5000CF92DF92EF92FF920F931F93CF93DF9377
:101D60000E94202C65EC8EEF0E942F2560E08DEF05
:101D70000E942F25C0E060E08C2F0E942F25CF5FAE
:101D8000C831C9F765EC8EEF0E942F2561E08DEF19
:101D90000E942F25C0E060E08C2F0E942F25CF5F8E
:101DA000C03CC9F765EC8EEF0E942F2563E08DEFF4
:101DB0000E942F256FEF81E00E942F2561E080E0D7
:101DC0000E942F258FE39CE90197F1F700C00000E6
:101DD000A3E3B1E040E050E038E1E32EC1E0D0E021
:101DE000FF24F3941196DC90119712967C91129730
:101DF00013966C911397CA01880F991F880F991F2A
:101E00008D5C9E4FFC018081837090E0FD2DF695E6
:101E1000F695F695E89E9001E99E300D11242C5719
:101E20003B4F89010F0F111DED2DE7705E0101C0C1
:101E3000AA0CEA95EAF7F801D080AD28A082E72F36
:101E4000E695E695E69589010E0F111D77705E0106
:101E500001C0AA0C7A95EAF7F80170817A2970839B
:101E6000762F769576957695F901E70FF11D6770D7
:101E70009E0101C0220F6A95EAF73081232B20834F
:101E8000FC01EC54FB4FF0824F5F5F4F14964D33D3
:101E9000510509F0A7CF80E00E94952581E0DF91F0
:101EA000CF911F910F91FF90EF90DF90CF90BF9057
:101EB000AF900C949525E9E7F6E0438120E1421BC1
:101EC00008F440E08181628190E00C942225E9E7EA
:101ED000F6E0438120E1420F08F44FEF81816281F7
:101EE00090E00C942225E9E7F6E0628120E1621B94
:101EF00008F460E08181438190E00C942225E9E7B9
:101F0000F6E0628120E1620F08F46FEF8181438186
:101F100090E00C942225E9E7F6E0818190E043818E
:101F2000628108970C942225E9E7F6E0818190E030
:101F30004381628108960C942225809179068695CA
:101F40008695815009F487E20C9466228091790687
:101F5000869586958F5F883208F081E00C94662222
:101F60001F93CF93DF93CDB7DEB767970FB6F89483
:101F7000DEBF0FBECDBF342F4B8B252F5C8B6D8BFF
:101F80007E8B8F8B4E895F89611110924F0486E0A2
:101F9000FE013D96DF01982F1D929A95E9F73D8746
:101FA0002E876F87598B488BDE01179601900D9213
:101FB0008A95E1F7CE0107960E94842081113EC0E8
:101FC00086E0FE013796DE01119601900D928A950A
:101FD000E1F7FF81E8856A857B856115710531F040
:101FE000EF3F31F481E0FF3F19F403C081E001C00D
:101FF00080E080FD23C02091EE0330E0C90101960E
:102000008770992740911F0450E08417950779F154
:10201000F983EA837D836C8396E0929FD001939F3E
:10202000B00D1124A151BC4FFE01319601900D92CB
:102030009A95E1F78093EE030E940E2016E08091BE
:102040001F049091EE038917F9F0189FC001112425
:1020500081519C4F0E9484208823B1F080911F04FD
:1020600090E001968770992780931F04E8CF0E9423
:1020700033221092EE0310921F04E8EEF3E086E0A4
:10208000DF011D928A95E9F767960FB6F894DEBFD7
:102090000FBECDBFDF91CF911F9108952091C40352
:1020A0003091C5032817390771F09093C5038093C9
:1020B000C403E091A003F091A103309721F00084C4
:1020C000F185E02D099408952091C2033091C30356
:1020D0002817390771F09093C3038093C203E091EE
:1020E000A003F091A103309721F00680F781E02D45
:1020F00009940895E091A003F091A103309721F095
:102100000190F081E02D099480E00895CF93DF9352
:10211000C7E5D2E060E0CE010E945E2D2196C11598
:1021200084E0D807B9F7DF91CF910895CF92DF927D
:10213000EF92FF920F931F93CF93DF93C0E0D0E015
:102140008E0104571F4F6E018CE1C80ED11CFE0199
:10215000E659FD4FE590F4906F2DCE0187960E94D1
:102160005E2D6E2DCE0188960E945E2D2296CC1596
:10217000DD0569F70C171D0731F7E8010033124040
:10218000F9F6DF91CF911F910F91FF90EF90DF90C3
:10219000CF9008950F931F93CF93DF93C42FD0E078
:1021A000CC0FDD1F2CE1629FC00DD11D11243CE836
:1021B000839FC00DD11D1124CE0187960E94402D12
:1021C000082F10E0102F0027CE0188960E94402D86
:1021D0009801282BC901DF91CF911F910F9108958C
:1021E000462F843038F4753028F46E3018F4672F99
:1021F0000C94CA1080E090E00895882311F0FA0151
:1022000001C0FB0109940C94750B0C944D0B46E036
:1022100050E06CE170E089E796E00C944E2DE9E720
:10222000F6E0248130E1230F08F42FEF24830C948F
:102230000711E9E7F6E0248130E1231B08F420E0F0
:1022400024830C940711E9E7F6E081E38083809111
:10225000150190911601A091170181839283A383A8
:102260008FE784838FEF85830C940711482F982F75
:1022700046FD9095E92FEF739F7046FD9F5FE295B5
:10228000EF70EE0FF0E0E55DFE4F2181299F802D7C
:10229000212D112482958F702295207F822B3081F1
:1022A000982F930F892F47FD8195805808950F939C
:1022B0001F93CF93DF93D62F072F182FC42F822F72
:1022C0000E943611EC2FF0E0EE0FFF1FE458FD4F97
:1022D00090819058890F87FD8195880F682F2CE099
:1022E000629F612D11246D0F702F812FDF91CF918F
:1022F0001F910F910895BC018230910508F4089553
:10230000613E8EE1780748F49B0195E0369527956C
:102310009A95E1F748E0420F01C04FEF91E0242F7A
:1023200030E0290F311D35952795229FF001239F1D
:10233000F00DF00D11246E177F0718F44FEF420FC8
:1023400004C02F3F39F091E0920F491740F78FEF0B
:10235000890F08958FEF08950F93CF93DF93D72FB1
:10236000C82F47FD4195E8E3F0E0CF01841B9109B8
:1023700047FD9395889FB001899F700D700D1124C2
:10238000229FC001239F900D900D1124860F971F4F
:102390000E947B11682F660F860F682F600F7D2FBC
:1023A0008C2FDF91CF910F91089520E030E0869F30
:1023B000212D969F200D311D1124C9010895CF9222
:1023C000DF92EF92FF920F931F93CF93DF93F62E3E
:1023D000472FE82FF0E0711106C0E659FE4F8491B7
:1023E000782F682F73C0272F30E0E659FE4FE49115
:1023F000FE2F0E2F10E056E0659FC0011124CFEF95
:10240000D0E0BE010E94E52D5BEA5603C001579F54
:10241000900D11248F0D911D8F0D911D982F990FE7
:10242000980F7E01E21AF30AE09ED001E19EB00D02
:10243000F09EB00D11248B2F499FA0011124452F30
:1024400055277E01E41AF50AE09EA001E19E500D99
:10245000F09E500D11246E01C91AD108C29E700160
:10246000C39EF00CD29EF00C11242F2D3327C21BDB
:10247000D30BC09F9001C19F300DD09F300D112410
:10248000932F6230710591F048F461157105E1F008
:1024900061307105B9F49E2FE52F16C064307105C7
:1024A00069F040F06630710579F00CC09E2FEB2F7B
:1024B000832F0AC0EB2F8F2F952F06C09B2F8E2FB7
:1024C000E32F02C09B2F852F7E2F692FDF91CF91A5
:1024D0001F910F91FF90EF90DF90CF900895DF92C2
:1024E000EF92FF920F931F93CF93DF93EC01FC01C8
:1024F000EA50FD4F9081692381F1D0907B060091D5
:102500007C0610917A06E12EF12C0E94202D282FB6
:10251000C7018C549F4F68E671E00E94F92D8E1917
:102520009F0997FD039695958795959587952370B7
:10253000612F289F600D11247D2D802F0E94DF11B7
:10254000462F282F672FCE01DF91CF911F910F913A
:10255000FF90EF90DF900C940511DF91CF911F91C8
:102560000F91FF90EF90DF9008951F93CF93DF932B
:10257000FC01EA50FD4F20816223A9F0EC010E948A
:10258000202D182F0E94202D612F782F80917C06FE
:102590000E94DF11462F282F672FCE01DF91CF91A8
:1025A0001F910C940511DF91CF911F910895F8941C
:1025B000E82FE295EF70F0E031A1282F2F7081E035
:1025C00090E001C0880F2A95EAF7982F9095932301
:1025D00091A392A1892B82A378940895CF93DF933E
:1025E0000E94F010EC018238910559F1A0F481337A
:1025F000910509F473C040F48932910509F467C06C
:102600008A9709F472C084C08533910509F458C0D3
:10261000C997B9F07DC0833E910571F138F4803ED1
:102620009105B1F0823E910511F172C0863E91058F
:10263000B9F1873E9105C9F1843E910509F068C062
:1026400024C08091660380FD5DC081FD5BC060C0D9
:102650008091660380FD50C08091670380FF36C182
:102660008091660384FD30C1C3EED0E02FC180911C
:10267000660382FF2BC1F4CF8091660382FD3FC0C9
:102680008091670380FD3EC0EBCF8091670381FF9F
:102690001DC18091660384FD17C1C7EED0E016C14D
:1026A0008091660383FF12C1F4CF8091660383FD9E
:1026B0002CC08091670381FFECCFC4EED0E006C14F
:1026C0008091660385FF02C1C9E2D0E0FFC080911E
:1026D000660385FFFBC0C5E3D0E0F8C080916603C8
:1026E00086FFF4C0CAE2D0E0F1C08091660386FFA5
:1026F000EDC0C1E3D0E0EAC0C9E3D0E0E7C0C2EE7C
:10270000D0E0E4C0C0EED0E0E1C0C6EED0E0DEC074
:10271000C11582E5D80708F066C0C11591E5D90753
:1027200028F0DC2FCC27C16FD06AD0C0C83ED105BD
:1027300060F5C03ED10508F0C9C0C83AD105B0F473
:10274000C53AD10540F0C55AD0E0CD5CDC4FC88118
:10275000D0E0D064BBC0C130D10509F4B7C008F4E3
:10276000B3C0C430D10508F4AFC0B0C0CF3BD10571
:1027700008F0AAC0C85AD0E0CC0FDD1FCA5CDC4FFD
:102780000990D881C02DD464A1C0C11520E5D2071D
:10279000E0F0CE0174E0969587957A95E1F7837025
:1027A0009C2F937021E030E002C0220F331F9A95D6
:1027B000E2F73C68382BCF70C695C69580E2C89F7B
:1027C000E0011124C22BD32B81C0C11580E4D807AE
:1027D00018F0DF70D06A7AC0CE019A9581159F41BA
:1027E00008F474C071C0C11586E5D807F0F5C115AD
:1027F00095E5D90750F08C2F0E945D0E8F71C82F80
:10280000D0E0DC2FCC27D06261C0C11524E5D2070F
:1028100028F0DC2FCC27C46FD06A58C09E012370EB
:1028200033278C2F86958695C115D34578F4C1E062
:10283000D0E002C0CC0FDD1F2A95E2F720E2829F94
:10284000C0011124C82BD92BDC6840C0C1E0D0E006
:1028500002C0CC0FDD1F2A95E2F720E2829FC00163
:102860001124C82BD92BDA6831C0C1152AE5D2074B
:10287000E8F4C11589E5D80780F08C2F8F700E948D
:102880005D0E94E0D695C7959A95E1F7CF70D0E0AC
:10289000DC2FCC27D069C82B19C0C11598E5D90702
:1028A00098F0DC2FCC27C06FD06A10C0CE019056B4
:1028B0008115904248F48D2F8F710E945D0EDD27A7
:1028C000D0628F71D82B02C0C0E0D0E0CE01DF9182
:1028D000CF9108950F931F93CF93DF93C42F122F9F
:1028E000FC0182818823C9F04093C6030E94481DE1
:1028F0009093C1038093C00380E28C0F883008F06E
:1029000063C0C77081E001C0880FCA95EAF7DF9104
:10291000CF911F910F910C94532B8091C6034813B4
:102920003CC02091C0033091C1034FB7F89480910F
:10293000A2039091A303A091A403B091A5034FBF5C
:10294000821B930B883C910540F5D0E2D10FC11753
:10295000B9F080E28C0F883040F4C77081E001C08C
:10296000880FCA95EAF70E94482BD83030F581E0ED
:10297000912F977001C0880F9A95EAF70E94532B08
:10298000802F0E94022CD830F8F4212F277081E08C
:1029900001C0880F2A95EAF70AC080E28C0F8830C0
:1029A00098F4C77081E001C0880FCA95EAF7DF91FB
:1029B000CF911F910F910C94482B802FDF91CF91D5
:1029C0001F910F910C94022CDF91CF911F910F91C9
:1029D00008959F92AF92BF92CF92DF92EF92FF92B3
:1029E0000F931F93CF93DF9308E111E0C8E6D3E084
:1029F00082E7E82E83E0F82E912CCC24C394D12CCE
:102A0000B801D8018C91F894E82FE295EF70F0E0CE
:102A100021A18F70A60102C0440F551F8A95E2F7CD
:102A2000CA01922F982B91A392A18095892382A30A
:102A3000789400C0EDE1F1E020E030E0A12CB12C71
:102A40004191842F82958F7090E0DC0190968C915B
:102A500090E04F7002C0959587954A95E2F780FD0A
:102A600008C0C601022E02C0880F991F0A94E2F71F
:102A700002C080E090E0A82AB92A2F5F3F4F2E3095
:102A80003105F1F60F5F1F4FFB0180810E94D712C5
:102A9000F0EAFA95F1F788819981A816B90621F034
:102AA000B982A88281E001C080E0982A2296EC16C3
:102AB000FD0609F0A5CF992049F081E08093BF037E
:102AC0000E94481D9093BE038093BD038091BF0375
:102AD0008823E9F12091BD033091BE034FB7F894EC
:102AE0008091A2039091A303A091A403B091A503A8
:102AF0004FBF821B930B069750F180916803909112
:102B000069039093B4038093B30380916A03909117
:102B10006B039093B6038093B50380916C039091FF
:102B20006D039093B8038093B70380916E039091E7
:102B30006F039093BA038093B903809170039091CF
:102B400071039093BC038093BB031092BF03892D44
:102B5000DF91CF911F910F91FF90EF90DF90CF9079
:102B6000BF90AF909F9008953F924F925F926F9267
:102B70007F928F929F92AF92BF92CF92DF92EF920D
:102B8000FF920F931F93CF93DF93CDB7DEB72997B3
:102B90000FB6F894DEBF0FBECDBFFC0180819181DE
:102BA00023813481232B31F09F3F31F491E08F3F1B
:102BB00019F403C091E001C090E090FD7AC67F0156
:102BC00085E0DE01119601900D928A95E1F7F701FB
:102BD000228189819A81222349F00E94CA1E182FDE
:102BE000682F89819A810E946C1F03C00E94401F38
:102BF000182F69817A81812F0E94F0108C01F701D2
:102C00008281882309F4F2C0980122513F45203186
:102C1000310508F019C18FEF93E00E94402D81111A
:102C2000EFC0025137E5832E32E0932E002379F076
:102C30008114F4E09F0609F4E3C0C4010E94402D12
:102C4000811101C001501FEF811A910AEFCF1E823E
:102C50001F8218861986442443942AE0322E840168
:102C60000F5F1F4FC4010E94402D8E831F82882357
:102C700009F4C6C09FEF980F933060F48F834E82A3
:102C800022E0820E911CC8010E94402D888781118C
:102C900002C0B6C048018E010A5F1F4FF8012081B3
:102CA0002223E9F2213009F04CC08181813049F4BE
:102CB0006801F2E0CF0ED11CF80182810E94022C43
:102CC0000AC0823051F46801F2E0CF0ED11CF80145
:102CD00082810E948F2B860186C0833049F468016F
:102CE000F2E0CF0ED11CF80182810E945D2BF3CF60
:102CF000843019F00F5F1F4F76C0F80122810E5FFC
:102D00001F4F80E090E030E0205331092A30310538
:102D100068F4389EA001399E500D1124C901840F1A
:102D2000951F0F5F1F4FF8012081EDCF009709F429
:102D30005AC0EFE9FFE03197F1F700C000000197BA
:102D4000F5CFE22FF0E0E653FB4F5490822F8695AB
:102D50008695869590E0FC01E654FB4F64902770C1
:102D6000712C022E02C0759467940A94E2F7F1E088
:102D70006F227724FC01E655FB4FA490B12C022E64
:102D800002C0B594A7940A94E2F731E0A322BB24D1
:102D9000FC01E656FB4FC490D12C02C0D594C794D9
:102DA0002A95E2F781E0C822DD246114710419F04C
:102DB00081EE0E948F2BA114B10419F086EE0E94BF
:102DC0008F2B852D0E94022CAB2819F086EE0E94D5
:102DD0005D2B672819F081EE0E945D2BCD2819F03C
:102DE0008CE20E94022C0F5F1F4F58CF00313FE54D
:102DF000130709F055C581E00E94A11F0E944822D7
:102E000080914D04877009F454C5F70182818823AD
:102E100009F44FC582E029960FB6F894DEBF0FBEC5
:102E2000CDBFDF91CF911F910F91FF90EF90DF9079
:102E3000CF90BF90AF909F908F907F906F905F905A
:102E40004F903F900C94C61F0031FFE51F0711F40F
:102E500081E005C001312FE5120721F482E00E94D4
:102E6000E31FCCCF033FFCE51F0749F406E221EE48
:102E700040EE63EF7CE5C7010E946A14C1CF043FB6
:102E80002CE5120708F049C1083D3CE5130731F471
:102E900007E225EE45EE68ED7CE5EDCF093D9CE5CA
:102EA000190731F408E221E045EE69ED7CE5E3CF56
:102EB000073DECE51E0731F406E221EE41EE67ED39
:102EC0007CE5D9CF882309F45DC11092C603023096
:102ED0009CE5190708F440C10631ECE51E0730F007
:102EE000C8018A5F9C45099708F036C10E94DA1D27
:102EF00090936703809366030031FCE51F0709F494
:102F0000C3C008F041C008303CE5130709F49AC07B
:102F1000F0F404309CE5190709F487C068F4023026
:102F2000FCE51F0709F477C003301C4509F0E5C034
:102F300080916603826076C006303CE5130709F491
:102F40006EC008F07BC08091660388606BC00C3057
:102F50009CE5190709F485C068F40A30FCE51F07F1
:102F600009F474C008F079C00E943322809166038E
:102F7000806858C00E303CE5130709F476C008F0AD
:102F80007FC0809166038BC00B3F9CE5190709F455
:102F90004FC018F50331FCE51F0709F47DC078F434
:102FA00001313CE5130709F473C002311C4509F0F7
:102FB000A4C00E943322809166038F7733C005310D
:102FC0009CE5190709F472C008F486C00A3F1C4545
:102FD00009F093C0809167033EC00F3F2CE51207B4
:102FE00009F45FC058F40D3F8CE5180709F444C09C
:102FF00008F43FC08091670382602DC00130EDE589
:103000001E0709F475C008F45DC002301D4509F0C3
:1030100074C060E06EC080916603816003C08091DF
:10302000660380618093660368C08091660311C067
:10303000809167038260809367035FC0809166031D
:103040008062F0CF809166038064ECCF809166034C
:1030500088608460E7CF8160EECF809166038E7FC9
:10306000E1CF809166038D7FDDCF80916603877FFE
:10307000D9CF8091670318C0809167038D7FDBCF24
:10308000809166038F7ECECF809166038F7DCACFFD
:10309000809166038F7BC6CF80916603877F8B7F8D
:1030A000C1CF809167038D7F8E7FC5CF80916603EE
:1030B00082FB222720F991E0922790FB82F990FB76
:1030C00083F9B0CF80916703982F909591708E7F90
:1030D000892B90FB81F9AFCF0E9433228091660348
:1030E00087FB222720F991E0922790FB87F99ACF5E
:1030F00061E08EE090E00E945E2D60916603109189
:10310000670384E090E00E945E2D612F82E290E0F0
:103110000E945E2D0E94332273CE053FFCE51F07FF
:1031200031F406E221EE42EE65EF7CE5A4CE053FE8
:103130002CE5120730F407E225EE44EE64EF7CE55F
:103140009ACE063F3CE5130709F0BCCE07E225EE18
:1031500046EE66EF7CE58FCE8091500406319CE50B
:10316000190709F58A7A91E009F490E09093C70372
:10317000882311F065E301C069E288EC93E00E94C6
:10318000A51D0EC006311C4509F0D6C08091C703AD
:10319000882309F48CC365E388EC93E00E947D1DCD
:1031A0000E945C1E2DCE82720A3C3CE5130709F496
:1031B0007BC098F5053CECE51E0709F461C0B8F446
:1031C000033C2CE5120709F451C008F054C0023C3E
:1031D0008CE5180709F07FC09091790681E0892776
:1031E00080937906109214010E94071109CE073CC2
:1031F0009CE5190709F44EC008F447C0083CFCE5FB
:103200001F0709F44CC0093C2CE5120709F063C004
:103210004BE55FE067E67FE055C00F3C3CE51307F8
:1032200009F455C098F40C3CECE51E0709F446C0BF
:1032300008F43FC00D3C2CE5120709F446C00E3CD3
:103240003CE5130709F047C085E042C0063D8CE528
:10325000180730F4013D1C4508F0D2CD82E138C09A
:103260000D35EDE51E0709F4CBCD35C04DE95FE026
:1032700066EA7FE027C046EA5FE06DE97FE022C0B2
:103280004BE85FE064E97FE01DC044E95FE06BE884
:103290007FE018C043E75FE06FE77FE013C04FE7D0
:1032A0005FE063E77FE00EC047E65FE06BE57FE04D
:1032B00009C049E151E16FE071E104C04FE051E123
:1032C00069E171E10E94FD109BCD81E001C08DE0BC
:1032D0000E94662295CD0A35FDE51F0741F150F4A5
:1032E00001153CE51307A9F00E3D1C4529F50E9488
:1032F000EB1D86CD0B359DE51907D9F00C351D4525
:10330000D9F48091670382FB882780F991E08927AF
:1033100011C00E943322FFEF04E31CE0F150004093
:103320001040E1F700C000000E94F21C69CD81E06E
:1033300001C080E00E94B01EF701828100811181EE
:10334000882349F0C8010E94CA1ED82E682FC801E0
:103350000E946C1F04C0C8010E94401FD82EB801F3
:103360008D2D0E94EE128C01982EF701B280A5805F
:10337000A2949FE0A92280914D04877099F0BB2010
:1033800089F0812F807F803421F080E2800F8830A7
:1033900048F082E00E94C61F80914D048770DD24B2
:1033A000D3948111D12CC12EC2948FE0C8228C2DD0
:1033B00090E08C30910508F03FC2FC01EF56FF4FC2
:1033C0000C940D2E812F807F1F70882311F0129591
:1033D000107FBB20B9F0112309F419C280E2800FDD
:1033E000883010F0911006C080915004182B109373
:1033F000500405C080914F04182B10934F040E9475
:103400005C1E05C2802F0E945D2B112309F414C29B
:10341000005E1095083010F0911006C080915004A5
:1034200018231093500405C080914F041823109363
:103430004F040E945C1E00C2812F807F1F7080326B
:1034400011F01295107F992021F0F1E09F1611F1F3
:1034500030C0BB20B1F0AA2081F001E0A0120DC065
:103460008091670382FDE8C180915104182B1817E1
:1034700009F4E2C110935104DFC180915104812B02
:1034800010C0AA2021F021E0A21609F4D5C10E94A3
:10349000561E27C0BB2041F035E03A1508F4CCC1D8
:1034A000812F0E94532BC8C184E08A1508F4C4C13F
:1034B00018C0BB2049F0AA2099F3F701858180FF4D
:1034C000A6C18F708583ECCFAA2059F0093309F08B
:1034D000B0C1FFEF17EE23E0F15010402040E1F7BC
:1034E000A6C1812F0E94482BA7C1812F8695869562
:1034F000837019F0813059F09FC1BB2019F0C801C9
:10350000937002C080E090E00E9464109BC1BB20D9
:1035100019F0C801937002C080E090E00E944E1044
:1035200091C1812F837009F069C0B11089C1902FBA
:10353000929596959770990F990F802F8F70882E7E
:10354000912CA12CB12C092E04C0880C991CAA1C0A
:10355000BB1C0A94D2F704FF12C04FE050E060E0B9
:1035600070E004C0440F551F661F771F9A95D2F76D
:10357000DB01CA0180959095A095B09503C080E0CD
:1035800090E0DC0116951695412F4370423019F1F9
:10359000C8F40091520410915304209154043091C6
:1035A0005504413059F088299929AA29BB29BC0121
:1035B000CD0160237123822393230AC0802A912A9C
:1035C000A22AB32ABC01CD01682979298A299B291D
:1035D0000E94042035C188299929AA29BB29009174
:1035E0005204109153042091540430915504BC01AD
:1035F000CD016027712782279327EACFBB2019F0DE
:10360000812F817001C08695882309F419C1902FFC
:10361000929596959770990F990F802F8F70882E9D
:10362000912CA12CB12C092E04C0880C991CAA1C29
:10363000BB1C0A94D2F704FF12C04FE050E060E0D8
:1036400070E004C0440F551F661F771F9A95D2F78C
:10365000DB01CA0180959095A095B09503C080E0EC
:1036600090E0DC0116951695412F43704230D9F059
:1036700068F500917F0610918006209181063091B7
:103680008206413059F088299929AA29BB29BC0111
:10369000CD0160237123822393231EC0802A912AA7
:1036A000A22AB32A13C088299929AA29BB290091E3
:1036B0007F06109180062091810630918206BC0120
:1036C000CD01602771278227932706C0BC01CD0159
:1036D000682979298A299B290E94971FB1C01F70E8
:1036E000BB2039F0812F0E94E31F802F0E94532BB3
:1036F000A7C0802F0E94482B812F0E94A11FA0C02D
:10370000802F32EF931609F440C0391538F090EF4E
:10371000991661F0E1EF9E1699F174C0F3EF9F16D0
:10372000D9F124EF921609F44EC06CC0BB2019F1F8
:1037300034E03A1508F480C01F7181E090E0A0E009
:10374000B0E0AC01BD0104C0440F551F661F771FD8
:103750001A95D2F780917F0690918006A0918106FC
:10376000B09182068A019B01082719272A273B2747
:10377000C901B80125C025E02A1508F45DC0DCCFD9
:10378000BB2029F0812F8F7130C0BB20D9F3812F4E
:103790008F710E94A11F50C0BB2079F01F7181E082
:1037A00090E0A0E0B0E0BC01CD0104C0660F771F3F
:1037B000881F991F1A95D2F703C060E070E0CB0113
:1037C0000E94971F39C0BB2099F01F71812F0E9462
:1037D000E31F8091670382FD07C038E0139FC0019B
:1037E0001124836080934D04812F0E94E31F24C025
:1037F00081E00E94C61F81E08A15F0F482E00E94F9
:10380000C61F1AC0BB2039F0AA2009F4BBCF802FF5
:103810000E948F2B11C0AA2009F4B9CF893349F433
:103820009FEFE7EEF3E09150E040F040E1F700C099
:103830000000802F0E945D2B88EF8C0D843010F4E7
:103840000E947A10DD20A9F180914D0480FD31C0E5
:10385000F70112828595859585950E94E31FC70122
:103860000E94B41580914D0485958595859529967E
:103870000FB6F894DEBF0FBECDBFDF91CF911F9181
:103880000F91FF90EF90DF90CF90BF90AF909F90FF
:103890008F907F906F905F904F903F900C94A11FFE
:1038A00001319FE5190709F0DDCA82E0A5CA69E286
:1038B00073CC29960FB6F894DEBF0FBECDBFDF9153
:1038C000CF911F910F91FF90EF90DF90CF90BF901D
:1038D000AF909F908F907F906F905F904F903F90B0
:1038E0000895089580915704089580E00895CF9336
:1038F000DF9300D01F92CDB7DEB790917A04943059
:1039000011F589837B836A839093E9008FEF90910F
:10391000E800815095FD06C095ED9A95F1F70000FD
:103920008111F5CF8091E80085FF0DC040E050E0A7
:1039300063E070E0CE0101960E94CC258091E80002
:103940008E778093E8000F900F900F90DF91CF91CA
:103950000895BC0184E00C94771CBC0183E00C94B6
:10396000771CCF93DF9320911001222339F020910F
:10397000660327FF03C060E224E002C068E021E0A4
:103980002093E9002FEF3091E800215035FD06C06B
:1039900035ED3A95F1F700002111F5CF2091E800BF
:1039A00025FF1DC0EC0180911001811105C040E090
:1039B00050E068E070E003C070E040E050E0CE010D
:1039C0000E94CC258091E8008E778093E80080E209
:1039D000FE01A8E5B4E001900D928A95E1F7DF9130
:1039E000CF91089581E08093E00080E28093D80039
:1039F0001092C9008FE19EE40197F1F700C000002A
:103A000087E090EBDC018093840690938506A09379
:103A10008606B09387069CE088E10FB6F894A895D7
:103A2000809360000FBE90936000FFCF78941F9248
:103A30000F920FB60F9211248F939F93AF93BF9362
:103A40008091A2039091A303A091A403B091A50338
:103A50000196A11DB11D8093A2039093A303A0938F
:103A6000A403B093A503BF91AF919F918F910F9045
:103A70000FBE0F901F9018952FB7F8946091A20376
:103A80007091A3038091A4039091A5032FBF089583
:103A90002FB7F8948091A2039091A303A091A4035F
:103AA000B091A5032FBF08951F920F920FB60F92EA
:103AB00011248F939F93AF93BF93809172038111D1
:103AC00013C08091A2039091A303A091A403B0918D
:103AD000A5034196A11DB11D8093A2039093A3035A
:103AE000A093A403B093A503BF91AF919F918F9131
:103AF0000F900FBE0F901F90189520911001222358
:103B0000C9F02091660327FF15C0262F269526951C
:103B100026952E31C8F4FC01E20FF11D677081E09B
:103B200090E001C0880F6A95EAF780959281892319
:103B300082830895FC0106962281621301C01282DD
:103B40003196E817F907C1F7089520911001222353
:103B5000C1F02091660327FF14C0262F26952695D5
:103B600026952E3130F5FC01E20FF11D677081E0E2
:103B700090E001C0880F6A95EAF79281892B8283D1
:103B80000895FC0132962FEF30E04191641789F0DF
:103B90002F3F19F4411101C0232F3F5F3630A9F7A1
:103BA0002F3F39F0FC01E20FF11D27FDFA956283EA
:103BB00008950895CF9384E090E00E94402DC82F8F
:103BC00082E290E00E94402D2C2F30E0A901582B7A
:103BD000CA01CF9108956AEE7EEF80E090E00E94E6
:103BE0007C2D60E082E090E00E945E2D60E083E04A
:103BF00090E00E945E2D1092520410925304109295
:103C000054041092550460E084E090E00E945E2D20
:103C100060E082E290E00E945E2D60E085E090E04E
:103C20000E945E2D60E086E090E00E945E2D6FEFC6
:103C300087E090E00E945E2D40E050E0BA0188E00D
:103C400090E00E94702D60E08DE090E00E945E2D7B
:103C500040E050E0BA0188E190E00E94702D60E001
:103C600087E190E00E945E2D40E050E0BA018CE1D7
:103C700090E00E94702D60E070E080E290E00E9491
:103C80007C2D40E050E0BA0188E190E00E94702D68
:103C900040E050E0BA018FE090E00E94702D40E0DB
:103CA00050E0BA0183E190E00C94702D80915104B2
:103CB00081111092510408959091500480914F0405
:103CC000892B20914E04982F922B9093C8038091BA
:103CD00051048823D9F0892B8093C8038091100167
:103CE000882331F08091660387FF02C08EE101C016
:103CF00086E0EAECF3E090E0815028F02191222365
:103D0000D9F39F5FF9CF91110E94561EE091A00355
:103D1000F091A1033097A9F080911001882359F008
:103D20008091660387FF07C08091C8038093C90311
:103D300085E08093C8030280F381E02D88EC93E056
:103D40000994089580E090E00E94641080E090E083
:103D50000E944E1010924F0410924E040C945C1E60
:103D6000CF93C0916703C2FB992790F9981781F010
:103D700080FBC2F9C09367036091660384E090E022
:103D80000E945E2D6C2F82E290E0CF910C945E2D0C
:103D9000CF910895BF92CF92DF92EF92FF920F934F
:103DA0001F93CF93DF938C01C0907F06D090800645
:103DB000E0908106F0908206809152049091530425
:103DC000A0915404B0915504C82AD92AEA2AFB2AA2
:103DD000CFE1D0E0D701C6010C2E04C0B695A7955F
:103DE000979587950A94D2F780FD04C0219790F7A4
:103DF000B12C07C0BC2EB8018C2F0E94EE12019787
:103E0000A9F38B2DDF91CF911F910F91FF90EF9030
:103E1000DF90CF90BF900895CF93DF93EC010E9485
:103E2000CA1EBE010E94EE12DF91CF9108950E943A
:103E30000C1F292F2F70E92FE295EF704E2F50E0C5
:103E4000FA013297EE30F105B8F4E356FF4F0C94C7
:103E50000D2E803F99F018F4883E70F40FC0843F17
:103E600059F40CC0883E50F0813F31F407C0822FD6
:103E7000869586958695089580E0089581E0089559
:103E80002EE0929F800D1124682F669566956695A9
:103E9000982F977085E0689FB001112440E050E0B2
:103EA00080E0FB01E40FF51FE05EFB4F208130E076
:103EB000092E02C0369527950A94E2F72170332720
:103EC000042E01C0220F0A94EAF7822B4F5F5F4F46
:103ED0004530510531F708952EE0929F800D112451
:103EE000E82FE695E695E695877051E001C0550FFD
:103EF0008A95EAF785E0E89FF0011124E05EFB4F28
:103F000020E030E070E04081CB01022E02C09695A7
:103F100087950A94E2F78170819584278523842709
:103F200081932F5F3F4F2530310569F708956093E6
:103F30007F067093800680938106909382060C948E
:103F4000A21E0F931F9341E050E060E070E004C0B8
:103F5000440F551F661F771F8A95D2F740955095DD
:103F60006095709580917F0690918006A091810662
:103F7000B09182068A019B01082319232A233B233F
:103F8000C901B8011F910F910C94971F20914D0406
:103F90008095822380934D04982F977041F430E0F0
:103FA000482F082E000C550B2417350721F490914B
:103FB000670392FF07C08595859585950E94A11F8F
:103FC00010924D0408950F931F9341E050E060E07C
:103FD00070E004C0440F551F661F771F8A95D2F703
:103FE00080917F0690918006A0918106B091820613
:103FF0008A019B01082B192B2A2B3B2BC901B801E5
:104000001F910F910C94971F609352047093530467
:1040100080935404909355040C94A21E80911F0425
:104020009091EE03891719F08F5F8770FBCF089589
:104030000F931F93CF93DF938091ED0382958F7041
:1040400009F05DC08091EA03882309F458C080918B
:104050001F041091EE036091E8037091E903C09191
:10406000EB03D091EC0391E06F3F09F090E0292F32
:1040700006E0811709F443C0209721F07F3F21F02B
:1040800030E003C031E001C0322F90E030FD34C099
:10409000089FF001099FF00D1124DF01A151BC4FD1
:1040A00011963C911197371327C03C91361324C0C9
:1040B00012963C91129731111FC013964D915C914D
:1040C00014974C1B5D0B483C5105B0F48091ED03F7
:1040D0008F7080618093ED03EC50FC4F80818F7076
:1040E0008061808388EE93E00E94B415DF91CF91C8
:1040F0001F910F910C940E2001968770BACFDF911B
:10410000CF911F910F9108959F92AF92BF92CF923E
:10411000DF92EF92FF920F931F93CF93DF93CDB770
:10412000DEB761970FB6F894DEBF0FBECDBF8C012E
:1041300085E0F801DE011D9601900D928A95E1F768
:10414000F80190818181E2803091E8036091E90378
:104150004091EB035091EC034115510531F06F3F55
:1041600031F421E03F3F19F403C021E001C020E019
:10417000F22FF1709F2E20FD23C1F801C380D4805F
:1041800028EEA22E23E0B22EF090EA03F601E41B03
:10419000F50BFF2009F4CEC02091ED03E83CF105BA
:1041A00008F099C0422F407F09F051C0681311C038
:1041B00039130FC0FE2CE1100CC02F70206120932A
:1041C000ED03C5010E94B4158091ED03F8018583CC
:1041D00037C1CD2831F08F3F31F421E09F3F19F4F2
:1041E00003C021E001C020E020FD03C021E02E2516
:1041F00002C020E030E0F22FF170FF2E20FF1DC042
:1042000020911F044091EE0356E0241709F4F6C0F4
:1042100030E0529FF001539FF00D1124E151FC4F0B
:104220006181861306C06081961303C06281E61225
:1042300004C02F5F3F4F2770E8CFFE2CEE2009F41B
:10424000FFC08091ED0381608093ED0350C068133F
:1042500007C0391305C0E11003C0F80125838DC0E4
:104260009D878E878D859E850E94171F882369F103
:10427000EE2059F12091ED03822F82958F7090E00E
:10428000029774F08091E8039091E90398878F83F7
:104290001986DB86CA862C87CE0107960E94B41544
:1042A00086E0F801A8EEB3E001900D928A95E1F75F
:1042B0000E9418200DC06817E1F09D878E878D85BC
:1042C0009E850E94171F81111EC0C8010E94B4154F
:1042D000FF24F394B5C0422F407F69F788EE93E046
:1042E0000E94B41586E0F50111928A95E9F7F12C48
:1042F000A7C03913E2CFE110E0CFF8012583C80150
:104300000E94B41557C0EE2001F32091ED03822FD7
:1043100082958F7090E002971CF28091E803909153
:10432000E9039A8389831B82DD82CC822E83CE01AE
:104330000196B4CFE83CF105E8F5FE2CEE2029F219
:10434000681327C0391325C02091ED0320FD18C044
:10435000822F82958F70482F50E04115510581F0D2
:10436000F80125834F30510541F08F5F982F9295CA
:10437000907F822F8F70892B8583C8010E94B4158E
:1043800086E0F801A8EEB3E001900D928A95E1F77E
:1043900057C09D878E878D859E850E94171F81112E
:1043A0007FCF8091ED0381608093ED03C8010E946F
:1043B000B41546C086E0F50111928A95E9F740C030
:1043C000EE2009F482CF9D878E878D859E850E9481
:1043D000171FF82E882309F478CF86E0F801A8EE9D
:1043E000B3E001900D928A95E1F78091E8039091F6
:1043F000E9030E940C1F0E94182022C09D878E870F
:104400008D859E850E940C1F292F22952F702230AA
:1044100028F49F7039F0811105C00BC0243028F4B6
:104420009F7049F4805E883020F0C8010E94B41566
:104430009F2CF92C05C0F8019581907F99F7F9CF51
:104440008F2D61960FB6F894DEBF0FBECDBFDF9102
:10445000CF911F910F91FF90EF90DF90CF90BF9081
:10446000AF909F900895109250048091100188237E
:1044700031F08091660387FF02C08EE101C086E0C3
:10448000EAECF3E0DF011D928A95E9F70C94A21E95
:104490000F931F9380917F0690918006A0918106D3
:1044A000B09182068C019D010670112722273327C7
:1044B000BC01CD01063011052105310511F46860FC
:1044C00001C0677F1F910F910C94971F90917906FF
:1044D000937089F0811102C0946007C0883210F097
:1044E0009C6903C0880F880F982B909379061092CF
:1044F00014010C94071108956F927F928F929F92EE
:10450000AF92BF92CF92DF92EF920F931F93CF9310
:10451000DF933C01C0911101CC0FCC0FD4E0DC0F34
:10452000DE3308F0DDE360917D06669580917506C7
:10453000909176060E94D511182FCD1708F044C02F
:104540008C2E912CF401EA50FD4F90818091120144
:104550008923C1F1F401EE0FFF1FE458FD4FC08025
:10456000D12C80E7C81AD108F401EE0FFF1FE358E1
:10457000FD4FA080B12CE0E2AE1AB108CC9C9001B6
:10458000CD9C300D300D1124AA9CC001AB9C900D28
:10459000900D1124820F931F0E947B11082F6091B0
:1045A0007A0670917B0680917C06E12E9501A6012A
:1045B000F30109950E94DF11462F282F672FC401B0
:1045C0000E940511CF5FB9CF81E0DD3308F080E0B4
:1045D000DF91CF911F910F91EF90DF90CF90BF901F
:1045E000AF909F908F907F906F900895CF92DF92C1
:1045F000EF92FF920F931F93CF93DF936C01C091C3
:104600001101CC0FCC0FD4E0DC0FDE3308F0DDE37A
:1046100060917D06669580917506909176060E9460
:10462000D511182FCD1778F5EC2EF12CF701EA50A3
:10463000FD4F908180911201892319F1F701EE0F4E
:10464000FF1FE358FD4F208130E020523109F70170
:10465000EE0FFF1FE458FD4F408150E040575109D5
:1046600060917A0670917B0680917C06012FF6019D
:1046700009950E94DF11462F282F672FC7010E943E
:104680000511CF5FCFCF81E0DD3308F080E0DF910F
:10469000CF911F910F91FF90EF90DF90CF900895F1
:1046A000DF92EF92FF920F931F93CF93DF937C01E2
:1046B000C0911101CC0FCC0FD4E0DC0FDE3308F039
:1046C000DDE360917D066695669580917506909113
:1046D00076060E94D511D82ECD17F0F40C2F10E0DD
:1046E000F801EA50FD4F908180911201892391F0E9
:1046F00060917A0670917B0680917C062D2D4C2F5F
:10470000F70109950E94DF11462F282F672FC80156
:104710000E940511CF5FE0CF81E0DD3308F080E03B
:10472000DF91CF911F910F91FF90EF90DF9008954F
:104730009F92AF92BF92CF92DF92EF92FF920F9330
:104740001F93CF93DF936C01C0911101CC0FCC0F5D
:10475000D4E0DC0FDE3308F0DDE360917D06669582
:10476000669580917506909176060E94D511182F56
:1047700080E4810F0E94361190E8F92EF80E812F07
:104780000E94361120E8922E980ECD1700F5AC2E1F
:10479000B12CF501EA50FD4F9081809112018923DF
:1047A000A1F060917A0670917B0680917C06E12EE3
:1047B0000C2F292D4F2DF60109950E94DF11462F50
:1047C000282F672FC5010E940511CF5FDECF81E042
:1047D000DD3308F080E0DF91CF911F910F91FF90C2
:1047E000EF90DF90CF90BF90AF909F900895CF92C1
:1047F000DF92EF92FF920F931F93CF93DF936C01A1
:10480000C0911101CC0FCC0FD4E0DC0FDE3308F0E7
:10481000DDE320917D0630E040E050E06FEF7FEF78
:1048200080E090E00E94822D8901CD17E8F5EC2E02
:10483000F12CF701EA50FD4F9081809112018923FC
:1048400089F190914C06915097FD15C0492F092E82
:10485000000C550BFA01E45BF94F8189C813F3CFC3
:10486000440F551FFA01E45BF94F218D328D20175B
:10487000310748F701C0980160917D06C9010E9487
:10488000D511AC0160917A0670917B0680917C060F
:10489000F60109950E94DF11462F282F672FC701C7
:1048A0000E940511CF5FC1CF81E0DD3308F080E0C9
:1048B000DF91CF911F910F91FF90EF90DF90CF90FC
:1048C00008952F923F924F925F926F927F928F92B4
:1048D0009F92AF92BF92CF92DF92EF92FF920F938F
:1048E0001F93CF93DF93CDB7DEB727970FB6F8941A
:1048F000DEBF0FBECDBF282E4B0120911101220F2C
:10490000220F2E83122F1C5F1E3308F01DE33091FF
:104910004C063983AE81A11708F077C08E81682ECE
:10492000712CF301EA50FD4F90818091120189238F
:1049300009F467C030907A0640907B06522C1F82A3
:10494000C301880F991FDC01A458BD4FBB83AA8304
:10495000C301880F991FFC01E358FD4FFD83EC83D1
:10496000F9815F16E0F5E52CF12CAA81BB81CC9092
:10497000D12CF701E45BF94F8181C81AD108AC81D1
:10498000BD81AC90B12C8185A81AB108CC9C900156
:10499000CD9C300D300D1124AA9CC001AB9C900D14
:1049A000900D1124820F931F0E947B11082FF70195
:1049B000EE0FFF1FE45BF94F60917D06818D928DB4
:1049C0000E94D5117C019501A601632D742D8F8164
:1049D000F4010995362E472E8F835394C1CF209131
:1049E0007C068F81382F329F312D1124832F632D28
:1049F000742D0E94DF11462F282F672FC3010E94BC
:104A000005118E818F5F8E8385CF81E01D3308F085
:104A100080E027960FB6F894DEBF0FBECDBFDF91C2
:104A2000CF911F910F91FF90EF90DF90CF90BF90AB
:104A3000AF909F908F907F906F905F904F903F903E
:104A40002F90089590917906937041F080937A06A3
:104A500060937B0640937C060C9407110895809325
:104A600038066093390624E630E042E050E068E31F
:104A700076E080EA0E94AD2C21E0892B09F020E04D
:104A8000822F0895CF92DF92EF92FF920F931F93A0
:104A9000CF93DF93C82FD0E09E012A5C394F690184
:104AA000F9018081882389F165EC8EEF0E942F2522
:104AB00061E08DEF0E942F2520EC2C9FC0012D9FDF
:104AC000900D11249C012A543B4F790100E010E025
:104AD00000933806D701A00FB11FE9E3F6E08D91EE
:104AE000819336E0E934F307D1F724E630E041E181
:104AF00050E068E376E080EA0E94AD2C892B81F4D7
:104B0000005F1F4F003C110519F7F6011082DF917D
:104B1000CF911F910F91FF90EF90DF90CF9008956C
:104B2000CC54DB4F81E08883F0CFEF92FF920F935C
:104B30001F93CF93DF93282F30E0A9014C545B4F94
:104B40007A01FA019081911109C0F7011082DF9179
:104B5000CF911F910F91FF90EF900895C82F65ECB2
:104B60008EEF0E942F2560E08DEF0E942F25F8E147
:104B7000CF9FE001112400E010E0F801EC0FFD1FD1
:104B8000EC57FB4F6081802F0E942F250F5F1F4F36
:104B90000831110591F7D9CFEF92FF920F931F9330
:104BA000CF93DF937C018B010E942D29811119C0C5
:104BB000E70101151105A1F08091E80085FD0AC00B
:104BC0008091E8008E778093E8000E942D29882349
:104BD00081F307C089918093F10001501109E9CF59
:104BE00080E0DF91CF911F910F91FF90EF9008959A
:104BF0001F93CF93DF93CDB7DEB7AA970FB6F89484
:104C0000DEBF0FBECDBFECE7F4E08091F1008193F1
:104C100044E0E438F407C9F780917D04833009F457
:104C200062C030F4813071F0823009F49CC0B3C0AE
:104C30008A3009F488C08B3009F46DC0893009F0DE
:104C4000AAC020C080917C04813A09F0A4C0809160
:104C5000E800877F8093E800809180049091810430
:104C6000892B21F460E288E594E003C060E080E0F5
:104C700090E070E00E94EA2A8091E8008B778093B0
:104C8000E80089C080917C04813209F084C0809161
:104C9000800490918104009719F0029709F07BC07D
:104CA0008091E800877F8093E8008091E80082FD92
:104CB00005C080917A048111F8CF6DC02091F30076
:104CC0008091F20090E0922B029729F48091F100FC
:104CD0008B7F813021F48091F10080935704809183
:104CE000E8008B7754C080917C04813A09F053C06E
:104CF0008091800490918104892B09F04CC08091AF
:104D0000E800877F8093E8008091E80080FFFCCF77
:104D10008091100137C080917C048132E1F580914F
:104D2000800490918104892BB1F58091E800877F00
:104D30008093E8000E94602980917E048093100196
:104D40000E94332228C080917C04813221F5809119
:104D5000E800877F8093E8000E94602980917F04AB
:104D60008093560418C080917C04813AA1F480910C
:104D7000E800877F8093E8008091E80080FFFCCF07
:104D8000809156048093F1008091E8008E778093A3
:104D9000E8000E9460298091E80083FFDDC18091D6
:104DA0007C0490917D04492F50E04A30510508F071
:104DB000D3C1FA01E555FF4F0C940D2E803821F038
:104DC000823809F0C9C108C08091780490917904B3
:104DD000992389F082600FC0809180048F708730A2
:104DE00008F0BAC18093E9008091EB0085FB882729
:104DF00080F91092E9009091E800977F9093E80085
:104E00008093F1001092F10070C1282F2D7F09F0DE
:104E1000A3C1882319F0823061F09EC180917E0485
:104E2000813009F099C1933009F080E080937904D2
:104E30002EC080917E0481112AC0809180048F70E1
:104E40002FEF280F263008F087C18093E9002091CA
:104E5000EB0020FF1CC0933021F48091EB008062B6
:104E600014C09091EB0090619093EB0021E030E052
:104E7000A90102C0440F551F8A95E2F74093EA004A
:104E80001092EA008091EB0088608093EB00109212
:104E9000E9008091E800877F8093E8000E94602904
:104EA0005BC1811159C110917E041F778091E3008D
:104EB0008078812B8093E3008091E800877F809346
:104EC000E8000E9460298091E80080FFFCCF80917B
:104ED000E30080688093E300111102C082E001C00A
:104EE00083E080937A0438C18058823008F034C15E
:104EF00020917E0430917F042C3D53E0350779F5F5
:104F000083E08A838AE289834FB7F894DE0113969F
:104F100020E03EE051E2E32FF0E050935700E491AF
:104F200020FF03C0E295EF703F5FEF708E2F90E09F
:104F3000EA3010F0C79601C0C0968D939D932F5F05
:104F4000243149F74FBF8091E800877F8093E800C4
:104F50006AE270E0CE0101960E94EA2AB4C0809114
:104F6000800490918104432F552743305105A9F0C7
:104F700068F44130510509F4FEC04230510509F092
:104F8000EBC08BE590E0E9E1F6E04BC04132510522
:104F900029F14232510589F1DFC0C90199278130D9
:104FA0009105A1F058F0029709F0D6C0E6E8F6E0C6
:104FB000E4918E2F90E0E6E8F6E030C0E2EBF6E018
:104FC000E4918E2F90E0E2EBF6E028C0E2EAF6E012
:104FD000E4918E2F90E0E2EAF6E020C08330910564
:104FE00008F0BAC0880F991FFC01E05DFD4F0190E9
:104FF000F081E02D89E090E014C08330910508F045
:10500000ABC0FC01EE0FFF1FE65DFD4F0190F0818C
:10501000E02DDC01A95DBD4F8C9190E0009709F473
:105020009BC02091E800277F2093E8002091820414
:10503000309183042817390708F4C90140E000972C
:1050400089F120917A04222309F43DC02530D9F159
:105050002091E80023FD37C02091E80022FD2FC0F9
:105060002091E80020FFEBCF4091F3002091F20067
:1050700030E0342B009759F02830310540F444914A
:105080004093F100319601972F5F3F4FF3CF41E0FE
:105090002830310509F040E02091E8002E77209378
:1050A000E800CDCF4111CDCF0AC080917A0488238A
:1050B00051F0853041F08091E80083FD04C080917B
:1050C000E80082FFF2CF8091E8008B778093E800C0
:1050D00043C0803809F040C08091E800877F80930A
:1050E000E80080917B048093F1008091E8008E7746
:1050F000D3CE811131C080917E0490917F04992795
:10510000029754F58091E800877F8093E800109122
:105110007E0410937B040E946029111106C08091C7
:10512000E30087FD02C081E001C084E080937A043F
:1051300042E061EC81E00E947F2942E261EC84E080
:105140000E947F2942E261EC82E00E947F2942E2D4
:1051500060EC83E00E947F298091E80083FF10C00B
:105160008091E800877F8093E8008091EB00806267
:105170008093EB0005C082E190E0E4E7F6E051CFD8
:10518000AA960FB6F894DEBF0FBECDBFDF91CF91C8
:105190001F9108951F920F920FB60F9211242F9313
:1051A0003F934F935F936F937F938F939F93AF93AF
:1051B000BF93CF93DF93EF93FF93C091E900CF703C
:1051C0008091EC00D82FD17080FDD0E81092E900DA
:1051D0008091F000877F8093F00078940E94F825FA
:1051E0001092E9008091F00088608093F000CD2B50
:1051F000CF70C093E900FF91EF91DF91CF91BF9104
:10520000AF919F918F917F916F915F914F913F915E
:105210002F910F900FBE0F901F901895E8EDF0E0C2
:1052200080818E7F80831092E2001092DA001092CB
:10523000E100A0EEB0E08C9181608C9380818F774B
:10524000808319BCA7EDB0E08C918E7F8C93808118
:105250008F7E80831092830608952091E400309120
:10526000E50095E64091EC00842F817040FF23C05B
:105270008091E80080FD1DC080917A04882399F018
:10528000853099F08091EB0085FD11C04091E400DC
:105290005091E5002417350729F3915011F09A0138
:1052A000E1CF84E0089582E0089583E0089581E0ED
:1052B000089580E008954091E80042FFDDCF089511
:1052C00080917C0487FF11C08091E80082FD05C0B9
:1052D00080917A048111F8CF11C08091E8008B771A
:1052E0000BC080917A04882349F08091E80080FF08
:1052F000F8CF8091E8008E778093E8000895982F8A
:10530000973068F59093E900981739F07091EC00A8
:105310002091ED005091F00003C0242F762F50E033
:1053200021FD02C09F5FECCF3091EB003E7F3093B8
:10533000EB003091ED003D7F3093ED003091EB00BC
:1053400031603093EB007093EC002093ED005093AC
:10535000F0002091EE0027FDE5CF80E008958F70EA
:105360008093E90081E00895CF92DF92EF92FF925F
:105370000F931F93CF93DF93C8EDD0E088818F7E8A
:105380008883E7EDF0E080818160808384E082BFE4
:1053900081E08093830688818E7F888302EE10E00F
:1053A000F80110821092DA0081EEC82ED12CF6019D
:1053B000108288818F77888388818068888388813C
:1053C0008F7D888319BC10927A0410927B0410920E
:1053D00079041092780490EEE92EF12CF701808187
:1053E0008B7F808388818160888342E060E080E0F9
:1053F0000E947F29F60180818E7F8083F801808161
:1054000081608083808188608083F70180818E7FC6
:105410008083888180618883DF91CF911F910F9174
:10542000FF90EF90DF90CF9008951F920F920FB6EC
:105430000F9211242F933F934F935F936F937F931A
:105440008F939F93AF93BF93EF93FF938091E1006E
:1054500082FF09C08091E20082FF05C08091E100D7
:105460008B7F8093E1008091DA0080FF2AC08091D9
:10547000D80080FF26C08091DA008E7F8093DA000A
:105480008091D90080FF18C080E189BD82E189BD8B
:1054900009B400FEFDCF81E080937A0480918306F9
:1054A00081110FC00E940E290E94B4298091E20050
:1054B00084608093E20005C019BC10927A041092B7
:1054C00083068091E10080FF17C08091E20080FF99
:1054D00013C08091E2008E7F8093E2008091E20011
:1054E00080618093E2008091D80080628093D80030
:1054F00019BC85E080937A048091E10084FF2EC07E
:105500008091E20084FF2AC080E189BD82E189BDEB
:1055100009B400FEFDCF8091D8008F7D8093D80024
:105520008091E1008F7E8093E1008091E2008F7E88
:105530008093E2008091E20081608093E20080919C
:105540007B04882311F084E007C08091E30087FD8D
:1055500002C081E001C083E080937A048091E10081
:1055600083FF27C08091E20083FF23C08091E10088
:10557000877F8093E10082E080937A0410927B041D
:105580008091E1008E7F8093E1008091E2008E7F28
:105590008093E2008091E20080618093E20042E02B
:1055A00060E080E00E947F298091F0008860809315
:1055B000F000FF91EF91BF91AF919F918F917F91FB
:1055C0006F915F914F913F912F910F900FBE0F9070
:1055D0001F90189520918204309183042617370775
:1055E00048F06115710539F42091E8002E77209379
:1055F000E80001C0B901FC0120E06115710579F1F5
:1056000080917A048823F1F18530F1F18091E800EE
:1056100083FD3CC08091E80082FD2EC08091E800AF
:1056200080FFEBCF2091F3008091F20090E0922B6D
:105630006115710551F08830910538F4219120935E
:10564000F100615071090196F3CF21E0089709F04C
:1056500020E08091E8008E778093E800CECF211182
:10566000CFCF0AC080917A04882361F0853061F041
:105670008091E80083FD0AC08091E80082FFF2CFAC
:1056800080E0089582E0089583E0089581E0089520
:10569000882341F080959091500489238093500491
:1056A0000C945C1E0895882339F090915004892B46
:1056B000809350040C945C1E0895882379F19CEF2C
:1056C000980F913A30F4682F88EC93E00E947D1D8A
:1056D00014C090E2980F983090F4877021E030E089
:1056E000A90102C0440F551F8A95E2F7CA018095AF
:1056F000909150048923809350040C945C1E9BE588
:10570000980F933020F480E090E00C946410885A55
:10571000873120F480E090E00C944E100895CF93F0
:10572000882309F46DC09CEF980F913AC8F5C82FF3
:10573000809110018823E1F08091660387FF18C0F3
:10574000EC2FE695E695E695F0E0E853FC4F828174
:10575000282F30E04C2F477081E090E002C0880F86
:10576000991F4A95E2F782239323892B61F412C093
:10577000EAECF3E080ED93E02191C21721F08E175F
:105780009F07D1F707C06C2F88EC93E00E947D1D26
:105790000E945C1E6C2F88EC93E00E94A51D13C034
:1057A00090E2980F983090F4877021E030E0A901E2
:1057B00002C0440F551F8A95E2F7CA019091500428
:1057C000892B80935004CF910C945C1EEBE5E80F7D
:1057D000E33040F4F0E0ED5CFC4F808190E0CF914D
:1057E0000C946410885A873158F4E82FF0E0EE0FDB
:1057F000FF1FEA5CFC4F80819181CF910C944E1089
:10580000CF9108951F93CF93DF93182F893319F009
:10581000C0E0D0E002C0C0E5D0E0812F0E948F2B15
:10582000209741F08FE99FE00197F1F700C0000059
:105830002197F6CF812FDF91CF911F910C945D2B93
:105840001092B9008CE08093B8000895EF92FF9217
:105850000F931F93CF93DF93182FEB011092BC008F
:1058600084EA8093BC000E94481D7C018091BC00AA
:1058700087FD0EC0CF3F8FEFD807C1F30E94481DB0
:105880008E199F098C179D0788F38EEF9FEF2EC00E
:105890008091B900887F883041F08091B900887F7D
:1058A000803119F08FEF9FEF21C01093BB0084E887
:1058B0008093BC000E94481D8C018091BC0087FD34
:1058C0000CC0CF3F8FEFD807C1F30E94481D801B4B
:1058D000910B8C179D0788F3D8CF8091B900887FF2
:1058E000883111F08034F1F680E090E0DF91CF91C3
:1058F0001F910F91FF90EF9008950F931F93CF93F7
:10590000DF93EB018093BB0084E88093BC000E948E
:10591000481D8C018091BC0087FD0EC0CF3F8FEFEA
:10592000D807C1F30E94481D801B910B8C179D075F
:1059300088F38EEF9FEF0CC02091B900287F81E0A3
:1059400090E0283211F480E090E0919581959109E2
:10595000DF91CF911F910F910895CF92DF92EF9237
:10596000FF920F931F93CF93DF936B018A0179010D
:10597000B9010E94262CE6010C0D1D1DC017D10790
:1059800061F424E92093BC00DF91CF911F910F9126
:10599000FF90EF90DF90CF90089597FDF2CFB70181
:1059A00089910E947D2CEACF8F929F92AF92BF92F5
:1059B000CF92DF92EF92FF92CF93DF93EC01688159
:1059C00079818A819B81611571058105910521F499
:1059D00064E279ED8BE597E02DE133EF41E050E0B3
:1059E0000E94822D49015A019B01AC01A7EAB1E452
:1059F0000E94A12D6B017C01ACEEB4EFA5019401D6
:105A00000E94AF2DDC01CB018C0D9D1DAE1DBF1D75
:105A1000B7FF03C00197A109B04888839983AA837F
:105A2000BB839F77DF91CF91FF90EF90DF90CF9076
:105A3000BF90AF909F908F9008950E94D42C0895AE
:105A400080E091E00E94D42C0895A0E0B0E0809323
:105A5000000190930101A0930201B0930301089506
:105A6000DC01CB01FC01F999FECF06C0F2BDE1BD1E
:105A7000F89A319600B40D9241505040B8F708950D
:105A8000F999FECF92BD81BDF89A992780B5089506
:105A9000A8E1B0E042E050E00C94322DDC01A40F0C
:105AA000B51F4150504048F0CB01840F951F2E91F7
:105AB0000E945F2D41505040D0F70895262FF9994C
:105AC000FECF92BD81BDF89A019700B4021639F05D
:105AD0001FBA20BD0FB6F894FA9AF99A0FBE08952E
