:100000000C9406030C944D030C944D030C944D0377
:100010000C944D030C944D030C944D030C944D0320
:100020000C944D030C944D030C94D6290C948B28FE
:100030000C94A31D0C944D030C944D030C944D0390
:100040000C944D030C944D030C944D030C944D03F0
:100050000C944D030C94651D0C944D030C944D03AE
:100060000C944D030C944D030C944D030C944D03D0
:100070000C944D030C944D030C944D030C944D03C0
:100080000C944D030C944D030C944D030C944D03B0
:100090000C944D030C944D030C944D030C944D03A0
:1000A0000C944D030C944D030C944D03ED06F00697
:1000B00012071F0726074607DC07DC07DC07DC07FB
:1000C000DC0749074B0750077407950798079B07FC
:1000D000BD0757064F088008BE08FD08400989097A
:1000E0008C099109940999099C099F09A209A509FC
:1000F000A809AB09AE09B109B409B909BC09BF091E
:10010000C409000A400A8A0A8D0A900A930A980ACA
:10011000A30AA60AB10AB40ABF0AC20ACD0AD00AC3
:10012000DB0A311A311A6B1A6B1AC41A6B1C6B1C5E
:100130006B1CE01ABE1BCF1BCF1B781F781F8B1FB9
:100140008B1F811F8B1F8B1F8B1F781F781F861F94
:100150008B1F8B1F861F9F26C6266D28C6266D28DF
:10016000122735276D282A283A28000101010101AC
:100170000101010102020202020202020203030360
:100180000303030303040404040404040505050530
:1001900005060606060607070707070808080809F0
:1001A0000909090A0A0A0B0B0B0C0C0C0D0D0D0E9C
:1001B0000E0E0F0F0F101011111112121313141431
:1001C000151516161717181819191A1A1B1B1C1DA6
:1001D0001D1E1E1F202021222223242425262627FF
:1001E0002829292A2B2C2D2D2E2F30313232333431
:1001F00035363738393A3B3C3D3E3F404142434437
:1002000045464748494A4C4D4E4F50515354555618
:1002100058595A5B5D5E5F616264656668696B6CC4
:100220006D6F7072737577787A7B7D7E808283853F
:1002300087888A8C8E8F91939596989A9C9EA0A27F
:10024000A3A5A7A9ABADAFB1B3B5B7BABCBEC0C289
:10025000C4C6C9CBCDCFD1D4D6D8DBDDDFE2E4E74D
:10026000E9EBEEF0F3F5F8FAFDFF290000003A00A3
:100270003B003C003D003E003F00400041000000CC
:1002800042004300440045004B0035001E001F00A3
:100290002000210022002300240025002600270042
:1002A0002D002E0000002A0049002B0014001A0027
:1002B0000800150017001C0018000C0012001300A5
:1002C0002F003000310000004C00390004001600FF
:1002D000070009000A000B000D000E000F0033009C
:1002E00034000000280000004E00E10000001D0066
:1002F0001B00060019000500110010003600370031
:100300003800E500000052000000E000E300E200D9
:100310000000000000002C0000000000000001515F
:10032000E4005000000051004F00010000000100F7
:1003300001000100010001000100010001000000B6
:1003400001000100010001000100010001000100A5
:100350000100010001000100010001000100010095
:10036000010001000000010001000100C35C010068
:100370000100010001000100010001000100010075
:1003800001000100005C000001000100010001000B
:100390000100010001000100010001000100010055
:1003A00001000000DE5C000001000100000001000F
:1003B0000100010001000100010001000100010035
:1003C0000100010000000100000001000100010027
:1003D000000000000000010000000000000001001B
:1003E0000100010000000100010000000000000009
:1003F00000000000000000000000000000000000FD
:1004000000000000000000000000000000007E0F5F
:1004100000D4FFFFFFC700000078000000000000CC
:1004200000002A2B2800000000000000000000004F
:10043000000000000029000000002C1E34202122B2
:1004400024342627252E362D3738271E1F2021221B
:10045000232425263333362E37381F040506070894
:10046000090A0B0C0D0E0F10111213141516171884
:10047000191A1B1C1D2F3130232D350405060708C2
:10048000090A0B0C0D0E0F10111213141516171864
:10049000191A1B1C1D2F3130354C05010980A10193
:1004A000850319012AB700150126B70095017510BB
:1004B0008100C0050C0901A101850419012AA002CF
:1004C000150126A002950175108100C005010906DD
:1004D000A1018505050719E029E715002501950803
:1004E000750181020507190029EF1500250195F016
:1004F000750181020508190129059505750191020B
:10050000950175039101C00660FF0961A1010962AF
:10051000150026FF00952075088102096315002645
:10052000FF00952075089102C005010906A101058B
:100530000719E029E7150025019508750181029545
:1005400001750881010507190029FF150026FF0024
:10055000950675088100050819012905950575019D
:100560009102950175039101C009025B000301002E
:10057000A0FA090400000103010100092111010092
:10058000012240000705810308000A090401000256
:100590000300000009211101000122220007058249
:1005A00003200001070503032000010904020001E4
:1005B00003000000092111010001226D00070584DC
:1005C0000320000A1201100100000008424B08003D
:1005D0000100010200011E03420045004C004C00D6
:1005E00041002000520047004200200041004E0020
:1005F00053004900000010034B0042004400460035
:1006000041004E00530000000403090411241FBEE2
:10061000CFEFDAE0DEBFCDBF04B603FE27C0809186
:100620000B0990910C09A0910D09B0910E0987302A
:10063000904BA740B04BD1F410920B0910920C09CB
:1006400010920D0910920E0914BE84B7877F84BFE3
:100650000FB6F894A895809160008861809360003F
:10066000109260000FBEE0E0F8E3099514E0A0E00E
:10067000B1E0ECECFBE502C005900D92AE3DB10798
:10068000D9F729E0AEEDB4E001C01D92AB30B2075E
:10069000E1F70E944F030C94E42D0C940000CF93DB
:1006A000DF93CDB7DEB7E1970FB6F894DEBF0FBE8C
:1006B000CDBF84B7877F84BF0FB6F894A89580918B
:1006C0006000886180936000109260000FBE90E02F
:1006D00080E80FB6F89480936100909361000FBE9C
:1006E00085B7806885BF85B7806885BF84EC9CE14D
:1006F0009093DF048093DE040E94CF280E94752926
:100700008091E20084608093E20078948091C9082F
:100710008823A1F01091E9001F709091EC00892FBF
:10072000817090FD80E8182B1092E9008091E8001C
:1007300083FD0E94B9251F701093E90082E084BDFB
:1007400093E095BD9AEF97BD80936E000CE211E0A7
:1007500062E3E62E61E0F62ED8018D918D010E94B4
:100760001D13E016F106C1F702E311E052E4E52E95
:1007700051E0F52EF80181918F010E941D13E016C2
:10078000F106C1F7E2EEF4E08EEE94E0A1E3B5E00D
:10079000119211921D921D928E179F07C9F780E04A
:1007A00090E00E94092D8A3E9E4F11F00E943A1E51
:1007B00082E090E00E94012D809324050E94291E72
:1007C0009093E1048093E0040E942F158FE39CE94D
:1007D0000197F1F700C000000E942F1580913105AC
:1007E00080FF17C06FEF83E290E00E941F2D6FEF34
:1007F00084E290E00E941F2D6FEF85E290E00E945E
:100800001F2D6FEF7FEF80E090E00E943D2D0E9452
:10081000411D83E090E00E94012D682F70E080E090
:1008200090E00E9453200E94C80E1092D308ECEE74
:10083000F8E08CEF98E02FEF3FEF219331938E1784
:100840009F07D9F71092EF04E8E0F5E088E195E022
:100850002FEF3FEF219331938E179F07D9F780E059
:1008600090E00E94092D8A3E9E4F21F00E943A1E80
:100870000E94691146E050E06CE170E080E099E090
:100880000E94F12C809100098C7F11F40E94691163
:1008900083E290E00E94012D813281F484E290E0B5
:1008A0000E94012D863051F485E290E00E94012DD6
:1008B00091E0863109F090E0892F01C080E080FF4F
:1008C000ACC386E091E090931D0580931C0530E158
:1008D000C32E4CE6242E312CFE0131967F018E0171
:1008E000035F1F4F1CA70BA78091C908853009F033
:1008F0006BC08091C908853009F060C08091C9083B
:10090000843009F433C040E060E080E00E94491187
:1009100011E01093220540E060E080E00E94491160
:10092000109322051092EE0480E428E130E00FB627
:10093000F894A895209360000FBE8093600083B761
:10094000817F846083BF83B7816083BF78948895FB
:1009500083B78E7F83BF0FB6F894A895809160000F
:10096000886180936000109260000FBE8091C8087B
:10097000882321F10E942F15E1E3F5E08191919107
:10098000892B31F48DE395E08E179F07B9F716C0D8
:10099000C9BC82E189BD09B400FEFDCF8091D800B9
:1009A0008F7D8093D8008091E00082608093E0008A
:1009B0008091E00081FDFCCF0E9482220E94822271
:1009C0000E94A210109222050E942F1581110E94F0
:1009D0008B1DE5E2F5E0A1E3B5E000E010E0402F7B
:1009E0008D909D908191919188259925009709F48A
:1009F000AFC0D12CAA24A394B12C9C012A213B2165
:100A0000232B09F49FC0D9A24AA38A209B2081E00E
:100A10008114910409F480E08BA30E94971D8160EA
:100A2000782F9DA38CA349A15AA16BA18DA10E94EF
:100A3000D80FF801EE0FFF1FEB5DFA4F8081918117
:100A4000A826B926B182A082892889F0F801B4E0ED
:100A5000EE0FFF1FBA95E1F7E75FFC4FED0DF11DBB
:100A600080818F3F21F08DA7DD24D39401C0D12C4C
:100A70009090EF040D2D10E0C801890D911D09978C
:100A8000A4F1E8E0AE2EB12CA01AB10AB8016F5F54
:100A90007F4F61517B4FA50180EF94E00E94DB2DD9
:100AA000B801675F7F4F61517B4FA50188EF94E0EC
:100AB0000E94DB2DA501440F551FB801660F771F5B
:100AC000675E7F4F61517B4F88E095E00E94DB2D90
:100AD000B8016F5E7F4F61517B4FA50180E095E0CB
:100AE0000E94DB2D9A949092EF048091EF0490E0A5
:100AF0000DA5A02FB0E09D01220F331F27593C4FB9
:100B0000AA0FBB1FBD0166597C4F41E0480F9D15E0
:100B1000B0F490E0FC01E151FB4FD9015C915183AD
:100B2000DB015C9151870DA5018B880F991FFC019A
:100B3000E151FB4F128E118E91E0842FE6CF80930E
:100B4000EF041CC0D394AA0CBB1C20E1D21255CFD9
:100B50000F5F1F4F0630110509F041CF8FEF8EA3B5
:100B60008FA318A60E94971D8160782F9AA789A746
:100B70004EA15FA168A58AA50E94D80F8091180593
:100B800090911905A0911A05B0911B052FB7F89403
:100B900080901E0590901F05A0902005B090210523
:100BA0002FBF881A990AAA0ABB0A0E948B1D60935C
:100BB00018057093190580931A0590931B05A09151
:100BC000EF04EFEEF4E0DA2EB0E044244A94542C23
:100BD000612C712C481859086A087B08AB1799F0EA
:100BE000418D528D8A0120E030E0401651066206A8
:100BF000730610F4DA9404C0480D591D528F418FCA
:100C0000BF5F3296EBCFD092EF04209122052111E5
:100C100008C010910009212F237019F01695169520
:100C200001C010E0209128012130E9F038F0223095
:100C300009F45BC0233009F462C07EC01092250124
:100C40006093FC087093FD088093FE089093FF0862
:100C500089E2EFEEF4E0A3EDB8E001900D928A9501
:100C6000E1F781E03FC08091050118130DC020918C
:100C70000009237030E04091040150E081E0241726
:100C8000350719F480E001C081E08170809327016D
:100C90008091050990912601981709F4D7C1809396
:100CA000260140E060E080E00E944911CFC18091C0
:100CB0002701882329F040E060E080E00E9449118C
:100CC00080E0909125019F5F909325018111C9C11A
:100CD00082E080932801809127018111C2C1111106
:100CE000C3C183E08093280127C010930501809140
:100CF00000098370809304010E946B0EF2CF409133
:100D0000FC085091FD086091FE087091FF082FB714
:100D1000F89480911E0590911F05A0912005B09137
:100D200021052FBF841B950BA60BB70B4A97A10576
:100D3000B10510F0109228010E94A2109091230595
:100D4000891721F00E94A210809323058091C90881
:100D5000843009F0C9CD83E08093E9008091E800F8
:100D600082FFC2CD8091E80085FF21C00E94EE285D
:100D700081111BC000E210E0CE0101965C0108C0A9
:100D80008091F100D5018D935D010150110969F049
:100D90008091E80085FDF4CF8091E8008B77809307
:100DA000E8000E94EE28882399F391E001C090E0CA
:100DB0008091E8008B778093E800992309F494CD23
:100DC000E9818E2F90E0FC013197E331F10508F0C5
:100DD000F3C0EA5AFF4F0C94CE2D1A8289E05EC010
:100DE0008A81823009F410C1833051F0813009F0DA
:100DF000E3C00E948B1D9B838C837D836E83DEC04A
:100E0000FE013196A1E3B5E08C9111969C9111976A
:100E100012969283838332960BA51CA50E171F078B
:100E200099F7CCC08A81823009F0C6C06B817C8181
:100E30008D819E810E94D42D86E290E024C04C8159
:100E40006B818A810E9410119D83E5C0AD80BE80B8
:100E5000BA24AB24BA248C810B819A8120E2029FB0
:100E60008001112430EC939F000D111D1124080FF7
:100E7000111D080F111D6B2DC80187960E941F2D93
:100E80006A2DC80188960E941F2D98C00E94BE102E
:100E900095C0CA8293C082E08A8389E58B838EC025
:100EA0000A811B811027012710278C80912C570164
:100EB000C80189559E4F95012E193F0928153905FE
:100EC00008F07CC0093552E0150730F40E94012D6E
:100ED000D50114968C9302C0F50114820F5F1F4F49
:100EE000FFEFAF1ABF0AE4CF0A811B811027012749
:100EF00010278C80912C5701C80189559E4F950170
:100F00002E193F092815390508F058C0093522E087
:100F1000120728F4D50114966C910E941F2D0F5FC3
:100F20001F4FBFEFAB1ABB0AE7CF0E94AE1046C0FF
:100F300082E08A8343C00A811B8110270127102782
:100F40008C80912C5701C801879695012E193F0975
:100F50002815390598F50038E1E01E0730F40E94A5
:100F6000012DD50114968C9302C0F50114820F5FF8
:100F70001F4FFFEFAF1ABF0AE6CF0A811B81102770
:100F8000012710278C80912C5701C8018796950165
:100F90002E193F092815390588F4003821E0120779
:100FA00028F4D50114966C910E941F2D0F5F1F4FDE
:100FB000BFEFAB1ABB0AE9CF8FEF89838091C908D5
:100FC000843009F091CC1091E9001F709091EC00F1
:100FD000892F817090FD80E8182B82E08093E900D2
:100FE0008091E80080FF0CC040E050E060E270E0DB
:100FF000C7010E948D258091E8008E778093E800DC
:101000001F701093E90070CC86E290E00E94012DE1
:101010001B821C821D828E83D1CF60E086E290E02D
:101020000E941F2D0E94BE100E94AE1061E283E25A
:1010300090E00E941F2D66E084E290E00E941F2D48
:1010400066E185E290E00E941F2D3BCC812F90E06D
:1010500088329105F8F0809125018F5F80932501FA
:1010600037CE112309F468CEE0911C05F0911D05DF
:10107000309729F00190F081E02D099501C080E0C2
:1010800081FF5ACE2FEF4FEF6FEF8CE290E00E947E
:101090004B1152CEFC01E759FF4F0C94CE2D00911D
:1010A0002501000F000F54E0D52ED00E2CE62D1593
:1010B00010F44CE6D42E60910109709102098091E0
:1010C00003090E942512B62EA72E982E0D1590F416
:1010D000E02FF0E0DF01AF5BBB4F8C9190912601D8
:1010E000982331F0292D4B2D6A2DCF010E944B11F1
:1010F0000F5FECCF81E03BE63D1508F0E2CDE0CD9F
:1011000000912501000F000F34E0D32ED00E5CE6D5
:101110005D1510F42CE6D22EA0900209B0900309C0
:1011200090900109692D7A2D8B2D0E942512862E13
:10113000772E682E60910409690D7A2D8B2D0E94FF
:101140002512B62EA72E982E0D1508F0DDC1802F82
:1011500090E0FC01EF5BFB4F3081209126012323BF
:1011600059F030FF04C0292D4B2D6A2D03C0262DC8
:10117000482D672D0E944B110F5FE6CF009125018E
:10118000000F000F94E0D92ED00EACE6AD1510F490
:101190008CE6D82E809002097090030920910409F2
:1011A000B0E49B2E392D329F312D1124932E0D1535
:1011B00008F0A9C0A02EB12CF501EF5BFB4F908188
:1011C000809126018923B9F0F501EE0FFF1FE65942
:1011D000FC4F808182958F7060910109899D600D1F
:1011E0001124782D872D0E942512462F282F672F36
:1011F000C5010E944B110F5FDACF00912501000F4E
:10120000000FE4E0DE2ED00E8CE68D1510F47CE6A7
:10121000D72E80900209709003092091040960E4A0
:10122000962E392D329F312D1124932E0D1508F055
:101230006AC0A02EB12CF501EF5BFB4F908180912D
:1012400026018923D9F0F501EE0FFF1FE759FC4F66
:101250006081969EB001112455E0759567955A9569
:10126000E1F780910109680F782D872D0E942512E2
:10127000462F282F672FC5010E944B110F5FD6CF35
:1012800000912501000F000F34E0D32ED00E8CE624
:101290008D1510F42CE6D22EA0900109B090020911
:1012A0009090030960910409669566956695809112
:1012B000FC089091FD080E941B120E947C1180582E
:1012C00087FD8195880F282F392D239F212D1124EB
:1012D000822FB5010E942512B62EA72E982E0D152D
:1012E00090F4E02FF0E0DF01AF5BBB4F8C91909169
:1012F0002601982331F0292D4B2D6A2DCF010E9414
:101300004B110F5FECCF81E05BE65D1508F0D9CCA7
:10131000D7CC81E39DE002C085E09DE00E949F2341
:10132000D0CC8AE09EE002C08BEE9DE00E94452377
:10133000C8CC80ED9DE01AC084EB9DE017C083E02F
:101340009DE0ECCF8AEF9CE0E9CF81EF9CE0E6CF17
:1013500086ED9CE0E3CF87EC9CE008C082EF91E152
:10136000E5CF83EA9DE0E2CF8FE89DE00E94CB22AB
:10137000A8CC89E99CE005C087E69CE002C089E230
:101380009CE00E94E7239DCC8091270181111DC024
:10139000609104090C2D600F08F46FEF8091FC0838
:1013A0009091FD080E941B126AE070E00E94A62D39
:1013B000892B09F085CC0E94E12CB1010E94BA2D45
:1013C000609126010E94B5127BCCA09025018A2D48
:1013D000880F880F04E0080F0D3608F00CE6A82EE1
:1013E000B12C802E912CA814B9040CF044C060914B
:1013F0002601C5010E94B5122FEFA21AB20AF3CF3F
:101400008091270181111DC0609104093C2D630F5B
:1014100008F46FEF8091FC089091FD080E941B1268
:1014200065E070E00E94A62D892B09F049CC0E944E
:10143000E12CB1010E94BA2D609126010E94FB129D
:101440003FCCA09025018A2D880F880F04E0080F5B
:101450000D3608F00CE6A82EB12C802E912CA81485
:10146000B9044CF460912601C5010E94FB125FEFA4
:10147000A51AB50AF4CF81E00C3608F422CC20CCB2
:1014800000912501000F000F94E0D92ED00E8CE6BC
:101490008D1510F48CE6D82EA0900209B0900309A7
:1014A0009090010960910409669566956695809112
:1014B000FC089091FD080E941B120E947C1180582C
:1014C00087FD8195880F682F2CE0629F612D112484
:1014D000690D7A2D8B2D0E942512B62EA72E982EDF
:1014E0000D1590F4E02FF0E0DF01AF5BBB4F8C9166
:1014F00090912601982331F0292D4B2D6A2DCF0193
:101500000E944B110F5FECCF81E09BE69D1508F028
:10151000D8CBD6CB8DE991E101CF88E19CE0FECE1E
:1015200081E19CE002C08BE09CE00E944624C9CB94
:101530008091D30821E0082F021B08F400E0802FDF
:1015400062EF7BE03BC062EF7BE037C08091D30865
:1015500021E0382F321B08F430E0832F6AEB7BE068
:101560002DC06AEB7BE029C08091D30821E0582F81
:10157000521B08F450E0852F68E87BE01FC068E844
:101580007BE01BC08091D30821E0082F021B08F4E8
:1015900000E0802F60E77BE011C060E77BE00DC0DA
:1015A0008091D30821E0382F321B08F430E0832FDC
:1015B0006AE57BE003C06AE57BE080E00E94B0243E
:1015C00080CB0F931F93CF93DF938C36910508F058
:1015D00052C0880F991F880F991FFC01E55BFE4FD1
:1015E000508152955F703181732F7295707FC72F34
:1015F000C52B32953F70D32FD370FC01E45BFE4FB7
:10160000308132953695369533705181752F770F2D
:10161000770FA72FA32BB52FB295B695B695B370BC
:10162000FC01E65BFE4F8081382F3370982F969532
:1016300096958181582F5295550F550F507C052F47
:10164000092B86958695182F1370EFE5F1E03E9FE4
:10165000C0013F9F900D11248F55994FFC01E00F61
:10166000F11F6083C80FD91F4883A80FB91F2C939F
:1016700081E08093A006DF91CF911F910F91089593
:10168000FF920F931F93CF93DF93182F062FF42E03
:10169000C0E0D0E02F2D402F612FCE010E94E10A43
:1016A0002196CC36D105B1F7DF91CF911F910F91E3
:1016B000FF900895EF92FF920F939701201B31093D
:1016C0002F3F310519F010F02FEF30E02095382F23
:1016D000320F08F43FEF832F0F91FF90EF900895A2
:1016E000EF92FF920F939701201B31092F3F310595
:1016F00019F010F02FEF30E0322F3095482F430FC4
:1017000008F44FEF842F620F0F91FF90EF90089530
:10171000EF92FF920F93972F093438F4B701601BB3
:1017200071096F3F710519F010F06FEF70E0485FBD
:101730005F4F4131510540F0A901485F5F4F413192
:10174000510510F06FEF70E06095482F460F08F4D8
:101750004FEF842F37FF02C02D5F3F4F3595279500
:101760003595279560910109620F792F0F91FF90B0
:10177000EF900895EF92FF920F93E00EF11CF901A4
:1017800037FF03C0F195E195F10924E0EE0FFF1F4B
:101790002A95E1F7EF3FF10519F014F0EFEFF0E0D3
:1017A0009A0157FF03C031952195310994E0220F2A
:1017B000331F9A95E1F72E173F070CF4F901EE0D50
:1017C000FF1DEF3FF10519F010F0EFEFF0E02E2FC5
:1017D0002095382F320F08F43FEF832F0F91FF90A1
:1017E000EF900895EF92FF920F93970195E0099F74
:1017F000200D311D11242F3F310519F010F02FEF6E
:1018000030E02095382F320F08F43FEF832F0F91EF
:10181000FF90EF90089522E8241B08F420E0620F67
:1018200008954095282F429F412D1124842F08951B
:10183000E42FF0E0EE0FFF1FE759FC4F9081921B61
:1018400097FD9195292F38E1239F212D1124620FB7
:1018500008950F931F9310E0F801EE0FFF1FE75953
:10186000FC4F9081905797FD9195000F111FF80143
:10187000E659FC4FE081F0E0B097DF01AA0FBB1FF3
:101880008D010E0F1F1F2003D001219FB00D1124C9
:10189000E8E3F0E0E91BF10997FDF3959F01220FC2
:1018A000331F89010E0F1F1F40039001419F300D10
:1018B00011242A0F3B1F37FF02C021583F4F220F30
:1018C000232F221F330B620F1F910F9108950F9347
:1018D0001F93522F10E0F801EE0FFF1FE659FC4F47
:1018E000E081F0E0B097EE0FFF1F9F015203D0019F
:1018F000539FB00D1124000F111FF801E759FC4F41
:10190000008110E000571109000F111F40039001E2
:10191000419F300D11242A0F3B1F37FF02C0215871
:101920003F4F220F232F221F330B620F1F910F9166
:1019300008950F931F93522F10E0F801EE0FFF1F31
:10194000E659FC4FE081F0E0B0979F015203D001CF
:10195000539FB00D1124000F111FF801E759FC4FE0
:10196000008110E00057110940039001419F300DA4
:1019700011242A0F3B1F37FF02C021583F4F220F6F
:10198000232F221F330B620F1F910F910895EF92A7
:101990000F931F9393E0099F8001112415950795DC
:1019A0006E2D600F1F910F91EF900895A22F50E0C0
:1019B000FA01EE0FFF1FE659FC4F9081905297FD00
:1019C0009195440F551FFA01E759FC4F3081232FA1
:1019D00030E02A1B3109290F311D97FD3A95620F1E
:1019E0000895E42FF0E0EE0FFF1FE659FC4F6081F1
:1019F000621B0895E42FF0E0EE0FFF1FE759FC4F44
:101A00006081621B0895622F0895E42FF0E0EE0FCD
:101A1000FF1FE759FC4F408134EE439F412D1124B5
:101A2000E82FF0E050E0445E5F4FDA01A21BB109FD
:101A30009D01B7FF03C031952195310993E0220F35
:101A4000331F9A95E1F7AF01421B530B9A0157FFE1
:101A500002C020E030E0582F259F212D1124822F35
:101A60000895E42FF0E0EE0FFF1FE759FC4F40818F
:101A700034EE439F412D1124E72FF0E050E0445E07
:101A80005F4FDA01A21BB1099D01B7FF03C0319579
:101A90002195310993E0220F331F9A95E1F7AF01A9
:101AA000421B530B9A0157FF02C020E030E0279FF2
:101AB000212D1124722F0895FC019B01009721F420
:101AC00077FF2BC080E80895AC0197FF04C044273E
:101AD0005527481B590BB901640F751F37FD0CC002
:101AE000241B350BC901A5E0880F991FAA95E1F7C2
:101AF0000E94BA2D80E20CC0CB0165E0880F991FCF
:101B00006A95E1F7BA01621B730B0E94BA2D80E659
:101B1000861BF7FF03C08195089580E00895EF923A
:101B20000F93CF93DF93D72FC82FC9010E19BA0196
:101B30000E945C0D602F681B7D2F8C2FDF91CF9151
:101B40000F91EF9008950F93CF93DF93D72FC82F66
:101B5000C901BA010E945C0D682F600F7D2F8C2F88
:101B6000DF91CF910F910895EF920F931F93CF9331
:101B7000DF93D62FC72F182FC9010E19010FBA01F5
:101B80000E945C0D081B202F219F212D1124822FE4
:101B90006D2F7C2FDF91CF911F910F91EF900895C2
:101BA000EF920F931F93CF93DF93D62F172FC82F4A
:101BB000C9010E19070FBA010E945C0D702F781B26
:101BC000719F712D11246D2F8C2FDF91CF911F915B
:101BD0000F91EF900895FF920F931F93CF93DF9390
:101BE000F62ED72F182FC901C12FC01BBA010E9492
:101BF0005C0D982F990F890FC81B2C2F219F212D29
:101C00001124822F6F2D7D2FDF91CF911F910F9186
:101C1000FF900895FF920F931F93CF93DF93F62EBB
:101C2000172FD82FC901C72FC01BBA010E945C0D06
:101C3000982F990F890F7C2F781B719F712D11247C
:101C40006F2D8D2FDF91CF911F910F91FF900895F0
:101C50009091E00492FF0DC0282F2871283019F4CC
:101C6000877F846006C0282F2471243011F48B7F75
:101C7000886093FF0DC0282F2871283119F4877EC2
:101C8000846106C0282F2471243111F48B7E886171
:101C90002091E10420FF0DC0382F3871383019F43D
:101CA000877F816006C0382F3171313011F48E7F0B
:101CB000886021FF0DC0282F2871283119F4877EF4
:101CC000816106C0282F2171213111F48E7E886137
:101CD00094FD877E08950F931F93CF93DF93809198
:101CE000A006882309F44DC065EC8EEF0E94812583
:101CF00060E08DEF0E948125C0E0D0E004EB10E0B1
:101D0000CE01B8010E94BA2D8093110182E1FE013B
:101D1000EF55F94FA2E1B1E001900D928A95E1F7FC
:101D200024E630E043E150E061E171E080E60E94AA
:101D30006E2C892B31F56296C63581E0D80761F0AB
:101D4000C43BD105E9F665EC8EEF0E94812561E088
:101D50008DEF0E948125D4CF82EA8093110189E022
:101D6000E7EFF7E0A2E1B1E001900D928A95E1F78B
:101D700024E630E04AE050E061E171E080E60E9454
:101D80006E2C1092A006DF91CF911F910F910895B4
:101D9000EF92FF920F931F93CF93DF930E94E12B5B
:101DA00065EC8EEF0E94812564E08DEF0E94812515
:101DB00061E080E00E9481256FEF81E00E94812533
:101DC00067E782E00E9481258FE39CE90197F1F7A4
:101DD00000C00000A0E0B0E0CFE5D1E0FF24FA941D
:101DE000EE24E394CD01880F991F880F991FFC0101
:101DF000E55BFE4F308132953F702181422F429545
:101E0000407F642F632B22952F70722F7370FC011B
:101E1000E45BFE4F40814295469546954370518163
:101E2000E52FEE0FEE0F2E2F242B352F3295369502
:101E300036953370FC01E65BFE4F4081842F837042
:101E400090E0542F569556954181E42FE295EE0F80
:101E5000EE0FE07C0E2F052B46954695142F137040
:101E60008C9FA0018D9F500D9C9F500D1124405CB4
:101E70005A4FFA01E00FF11FF082FA01E60FF71F47
:101E8000F082FA01E20FF31FF082FC01E156F94FF4
:101E9000E0821196AC36B10509F0A4CF80919F067F
:101EA000882351F165EC8EEF0E94812562E08DEF71
:101EB0000E94812500E415E0C0E0F80161918F01E6
:101EC0008C2F0E948125CF5FC43BB9F765EC8EEF64
:101ED0000E94812563E08DEF0E94812504EF15E0CB
:101EE000C0E0F80161918F018C2F0E948125CF5FA6
:101EF000CB3AB9F710929F06DF91CF911F910F91C6
:101F0000FF90EF900895E0E0F9E0438120E1421B6B
:101F100008F440E08181628190E00C947125E0E05A
:101F2000F9E0438120E1420F08F44FEF81816281A3
:101F300090E00C947125E0E0F9E0628120E1621B01
:101F400008F460E08181438190E00C947125E0E029
:101F5000F9E0628120E1620F08F46FEF8181438133
:101F600090E00C947125E0E0F9E0818190E04381FC
:101F7000628108970C947125E0E0F9E0818190E09E
:101F80004381628108960C947125809100098695A1
:101F90008695815009F487E20C94B522809100095E
:101FA000869586958F5F883208F081E00C94B52283
:101FB0001F93CF93DF93CDB7DEB767970FB6F89433
:101FC000DEBF0FBECDBF342F4B8B252F5C8B6D8BAF
:101FD0007E8B8F8B4E895F89611110929E0886E0FF
:101FE000FE013D96DF01982F1D929A95E9F73D87F6
:101FF0002E876F87598B488BDE01179601900D92C3
:102000008A95E1F7CE0107960E94D32081113EC048
:1020100086E0FE013796DE01119601900D928A95B9
:10202000E1F7FF81E8856A857B856115710531F0EF
:10203000EF3F31F481E0FF3F19F403C081E001C0BC
:1020400080E080FD23C020912E0830E0C901019678
:102050008770992740915F0850E08417950779F1C0
:10206000F983EA837D836C8396E0929FD001939FEE
:10207000B00D1124A15DB74FFE01319601900D9274
:102080009A95E1F780932E080E945D2016E08091DA
:102090005F0890912E088917F9F0189FC00111244C
:1020A000815D974F0E94D3208823B1F080915F0813
:1020B00090E001968770992780935F08E8CF0E948F
:1020C000822210922E0810925F08E8E2F8E086E083
:1020D000DF011D928A95E9F767960FB6F894DEBF87
:1020E0000FBECDBFDF91CF911F91089520910408BD
:1020F000309105082817390771F0909305088093EF
:102100000408E0911C05F0911D05309721F0008432
:10211000F185E02D0994089520910208309103087B
:102120002817390771F09093030880930208E09113
:102130001C05F0911D05309721F00680F781E02DF8
:1021400009940895E0911C05F0911D05309721F048
:102150000190F081E02D099480E00895CF93DF9302
:10216000C7EAD1E060E0CE010E941F2D2196C11583
:1021700084E0D807B9F7DF91CF9108956F927F92ED
:102180008F929F92AF92BF92CF92DF92EF92FF9287
:102190000F931F93CF93DF93C0E0D0E000E010E0F7
:1021A0003E0187E2680E711C6301C00ED11EE12C56
:1021B000F12C4E01800E911EF401EE0DFF1DE6592B
:1021C000FD4FA590B4906B2DC6010E941F2D6A2D66
:1021D000C60101960E941F2D82E0E80EF11C82E0EC
:1021E000C80ED11C80E2E816F10431F7005E1F4FE3
:1021F000003C1105C9F6C054DF4FC03881E0D80754
:1022000069F6DF91CF911F910F91FF90EF90DF90D2
:10221000CF90BF90AF909F908F907F906F900895D8
:102220000F931F93CF93DF93C42FD0E0CC0FDD1F0C
:1022300020E2629FC00DD11D112430EC839FC00DA0
:10224000D11D1124CE0187960E94012D082F10E088
:10225000102F0027CE0188960E94012D9801282B6F
:10226000C901DF91CF911F910F910895462F8230C0
:1022700038F4763028F4603118F4672F0C9410117C
:1022800080E090E00895882311F0FA0101C0FB017D
:1022900009940C94400B0C94E10A46E050E06CE188
:1022A00070E080E099E00C940F2DE0E0F9E02481EB
:1022B00030E1230F08F42FEF24830C944D11E0E05C
:1022C000F9E0248130E1231B08F420E024830C94FE
:1022D0004D11E0E0F9E081E3808380912901909144
:1022E0002A01A0912B0181839283A3838FE78483AA
:1022F0008FEF85830C944D11482F982F46FD9095B4
:10230000E92FEF739F7046FD9F5FE295EF70EE0F30
:10231000F0E0EE5BFE4F2181299F802D212D1124BD
:1023200082958F702295207F822B3081982F930F7A
:10233000892F47FD8195805808950F931F93CF9360
:10234000DF93D62F072F182FC42F822F0E947C11C6
:10235000EC2FF0E0EE0FFF1FE759FC4F90819058F3
:10236000890F87FD8195880F682F2CE0629F612D72
:1023700011246D0F702F812FDF91CF911F910F913D
:102380000895BC018230910508F40895613E8EE104
:10239000780748F49B0195E0369527959A95E1F7E3
:1023A00048E0420F01C04FEF91E0242F30E0290FA9
:1023B000311D35952795229FF001239FF00DF00DDB
:1023C00011246E177F0718F44FEF420F04C02F3F00
:1023D00039F091E0920F491740F78FEF890F089578
:1023E0008FEF08950F93CF93DF93D72FC82F47FD1B
:1023F0004195E8E3F0E0CF01841B910947FD9395F7
:10240000889FB001899F700D700D1124229FC0011B
:10241000239F900D900D1124860F971F0E94C111CC
:10242000682F660F860F682F600F7D2F8C2FDF912E
:10243000CF910F91089520E030E0869F212D969F47
:10244000200D311D1124C9010895CF92DF92EF9222
:10245000FF920F931F93CF93DF93F62E472FE82F12
:10246000F0E0711106C0E659FE4F8491782F682F75
:1024700073C0272F30E0E659FE4FE491FE2F0E2F58
:1024800010E056E0659FC0011124CFEFD0E0BE01FF
:102490000E94A62D5BEA5603C001579F900D1124A0
:1024A0008F0D911D8F0D911D982F990F980F7E0103
:1024B000E21AF30AE09ED001E19EB00DF09EB00D4D
:1024C00011248B2F499FA0011124452F55277E01F0
:1024D000E41AF50AE09EA001E19E500DF09E500D19
:1024E00011246E01C91AD108C29E7001C39EF00C5E
:1024F000D29EF00C11242F2D3327C21BD30BC09F6B
:102500009001C19F300DD09F300D1124932F623068
:10251000710591F048F461157105E1F061307105C4
:10252000B9F49E2FE52F16C06430710569F040F0B4
:102530006630710579F00CC09E2FEB2F832F0AC0F7
:10254000EB2F8F2F952F06C09B2F8E2FE32F02C0CE
:102550009B2F852F7E2F692FDF91CF911F910F9198
:10256000FF90EF90DF90CF900895DF92EF92FF926F
:102570000F931F93CF93DF93EC01FC01EF5BFB4FB5
:102580009081692381F1D090020900910309109193
:102590000109E12EF12C0E94E12C282FC7018C5457
:1025A0009F4F68E671E00E94BA2D8E199F0997FD32
:1025B000039695958795959587952370612F289F0C
:1025C000600D11247D2D802F0E942512462F282F6B
:1025D000672FCE01DF91CF911F910F91FF90EF9068
:1025E000DF900C944B11DF91CF911F910F91FF90D1
:1025F000EF90DF9008951F93CF93DF93FC01EF5B83
:10260000FB4F20816223A9F0EC010E94E12C182FDE
:102610000E94E12C612F782F809103090E942512DE
:10262000462F282F672FCE01DF91CF911F910C9459
:102630004B11DF91CF911F910895F894E82FE29507
:10264000EF70F0E031A1282F2F7081E090E001C001
:10265000880F2A95EAF7982F9095932391A392A13A
:10266000892B82A378940895CF93DF930E9436112B
:10267000EC018238910559F1A0F48133910509F4F8
:1026800073C040F48932910509F467C08A9709F450
:1026900072C084C08533910509F458C0C997B9F058
:1026A0007DC0833E910571F138F4803E9105B1F013
:1026B000823E910511F172C0863E9105B9F1873EC7
:1026C0009105C9F1843E910509F068C024C080914C
:1026D000E00480FD5DC081FD5BC060C08091E004CE
:1026E00080FD50C08091E10480FF36C18091E004FC
:1026F00084FD30C1C3EED0E02FC18091E00482FFA1
:102700002BC1F4CF8091E00482FD3FC08091E104B1
:1027100080FD3EC0EBCF8091E10481FF1DC180911F
:10272000E00484FD17C1C7EED0E016C18091E0043B
:1027300083FF12C1F4CF8091E00483FD2CC080910F
:10274000E10481FFECCFC4EED0E006C18091E0044B
:1027500085FF02C1C9E2D0E0FFC08091E00485FF9F
:10276000FBC0C5E3D0E0F8C08091E00486FFF4C070
:10277000CAE2D0E0F1C08091E00486FFEDC0C1E381
:10278000D0E0EAC0C9E3D0E0E7C0C2EED0E0E4C0E8
:10279000C0EED0E0E1C0C6EED0E0DEC0C11582E5FB
:1027A000D80708F066C0C11591E5D90728F0DC2FDD
:1027B000CC27C16FD06AD0C0C83ED10560F5C03EFD
:1027C000D10508F0C9C0C83AD105B0F4C53AD10561
:1027D00040F0C55AD0E0C355DB4FC881D0E0D0648B
:1027E000BBC0C130D10509F4B7C008F4B3C0C430D0
:1027F000D10508F4AFC0B0C0CF3BD10508F0AAC0E6
:10280000C85AD0E0CC0FDD1FC055DB4F0990D881EE
:10281000C02DD464A1C0C11520E5D207E0F0CE01DF
:1028200074E0969587957A95E1F783709C2F937065
:1028300021E030E002C0220F331F9A95E2F73C6896
:10284000382BCF70C695C69580E2C89FE001112451
:10285000C22BD32B81C0C11580E4D80718F0DF70DC
:10286000D06A7AC0CE019A9581159F4108F474C050
:1028700071C0C11586E5D807F0F5C11595E5D907F2
:1028800050F08C2F0E94280E8F71C82FD0E0DC2FC3
:10289000CC27D06261C0C11524E5D20728F0DC2F17
:1028A000CC27C46FD06A58C09E01237033278C2F69
:1028B00086958695C115D34578F4C1E0D0E002C075
:1028C000CC0FDD1F2A95E2F720E2829FC001112480
:1028D000C82BD92BDC6840C0C1E0D0E002C0CC0FCF
:1028E000DD1F2A95E2F720E2829FC0011124C82B48
:1028F000D92BDA6831C0C1152AE5D207E8F4C11531
:1029000089E5D80780F08C2F8F700E94280E94E004
:10291000D695C7959A95E1F7CF70D0E0DC2FCC27FC
:10292000D069C82B19C0C11598E5D90798F0DC2FDC
:10293000CC27C06FD06A10C0CE019056811590424E
:1029400048F48D2F8F710E94280EDD27D0628F7181
:10295000D82B02C0C0E0D0E0CE01DF91CF91089526
:102960000F931F93CF93DF93C42F122FFC0182810B
:102970008823C9F0409306080E94971D9093010890
:102980008093000880E28C0F883008F063C0C77025
:1029900081E001C0880FCA95EAF7DF91CF911F91BE
:1029A0000F910C94142B8091060848133CC0209181
:1029B0000008309101084FB7F89480911E0590915E
:1029C0001F05A0912005B09121054FBF821B930BDD
:1029D000883C910540F5D0E2D10FC117B9F080E2F3
:1029E0008C0F883040F4C77081E001C0880FCA9511
:1029F000EAF70E94092BD83030F581E0912F9770CB
:102A000001C0880F9A95EAF70E94142B802F0E942C
:102A1000C32BD830F8F4212F277081E001C0880F34
:102A20002A95EAF70AC080E28C0F883098F4C770C4
:102A300081E001C0880FCA95EAF7DF91CF911F911D
:102A40000F910C94092B802FDF91CF911F910F9143
:102A50000C94C32BDF91CF911F910F9108959F92FA
:102A6000AF92BF92CF92DF92EF92FF920F931F939C
:102A7000CF93DF930CE211E0C2EED4E08EEEE82EAD
:102A800084E0F82E912CCC24C394D12CB801D80129
:102A90008C91F894E82FE295EF70F0E021A18F700F
:102AA000A60102C0440F551F8A95E2F7CA01922F72
:102AB000982B91A392A18095892382A3789400C03A
:102AC000E2E3F1E020E030E0A12CB12C4191842F31
:102AD00082958F7090E0DC0190968C9190E04F7021
:102AE00002C0959587954A95E2F780FD08C0C6011A
:102AF000022E02C0880F991F0A94E2F702C080E0FC
:102B000090E0A82AB92A2F5F3F4F20313105F1F616
:102B10000F5F1F4FFB0180810E941D13F0EAFA95A1
:102B2000F1F788819981A816B90621F0B982A882A7
:102B300081E001C080E0982A2296EC16FD0609F09B
:102B4000A5CF992049F081E080933F050E94971D11
:102B500090933E0580933D0580913F05882309F4BD
:102B600045C020913D0530913E054FB7F8948091C6
:102B70001E0590911F05A0912005B09121054FBF22
:102B8000821B930B069790F18091E2049091E304ED
:102B900090933205809331058091E4049091E5048F
:102BA00090933405809333058091E6049091E70477
:102BB00090933605809335058091E8049091E9045F
:102BC00090933805809337058091EA049091EB0447
:102BD00090933A05809339058091EC049091ED042F
:102BE00090933C0580933B0510923F05892DDF9122
:102BF000CF911F910F91FF90EF90DF90CF90BF90FA
:102C0000AF909F9008953F924F925F926F927F9204
:102C10008F929F92AF92BF92CF92DF92EF92FF92EC
:102C20000F931F93CF93DF93CDB7DEB729970FB6DE
:102C3000F894DEBF0FBECDBFFC018081918123815E
:102C40003481232B31F09F3F31F491E08F3F19F411
:102C500003C091E001C090E090FD7AC67F0185E05D
:102C6000DE01119601900D928A95E1F7F70122811C
:102C700089819A81222349F00E94191F182F682FF9
:102C800089819A810E94BB1F03C00E948F1F182F49
:102C900069817A81812F0E9436118C01F70182812E
:102CA000882309F4F2C0980122513F4520313105B3
:102CB00008F019C18FEF93E00E94012D8111EFC040
:102CC000025137EA832E99249394002379F08114DA
:102CD000F4E09F0609F4E3C0C4010E94012D8111B4
:102CE00001C001501FEF811A910AEFCF1E821F828F
:102CF00018861986442443942AE0322E84010F5FFB
:102D00001F4FC4010E94012D8E831F82882309F466
:102D1000C6C09FEF980F933060F48F834E8222E0FD
:102D2000820E911CC8010E94012D8887811102C06A
:102D3000B6C048018E010A5F1F4FF801208122238F
:102D4000E9F2213009F04CC08181813049F46801F9
:102D5000F2E0CF0ED11CF80182810E94C32B0AC081
:102D6000823051F46801F2E0CF0ED11CF80182816B
:102D70000E94502B860186C0833049F46801F2E03E
:102D8000CF0ED11CF80182810E941E2BF3CF84301C
:102D900019F00F5F1F4F76C0F80122810E5F1F4FA1
:102DA00080E090E030E0205331092A30310568F4AA
:102DB000389EA001399E500D1124C901840F951F22
:102DC0000F5F1F4FF8012081EDCF009709F45AC023
:102DD000EFE9FFE03197F1F700C000000197F5CF70
:102DE000E22FF0E0E65EFB4F5490822F86958695A9
:102DF000869590E0FC01E65FFB4F64902770712C94
:102E0000022E02C0759467940A94E2F7F1E06F22F3
:102E10007724FC01E650FC4FA490B12C022E02C096
:102E2000B594A7940A94E2F731E0A322BB24FC01F5
:102E3000E651FC4FC490D12C02C0D594C7942A957A
:102E4000E2F781E0C822DD246114710419F081EEFB
:102E50000E94502BA114B10419F086EE0E94502B51
:102E6000852D0E94C32BAB2819F086EE0E941E2BE5
:102E7000672819F081EE0E941E2BCD2819F08CE2F4
:102E80000E94C32B0F5F1F4F58CF00313FE5130740
:102E900009F055C581E00E94F01F0E9497228091A1
:102EA0009C08877009F454C5F7018281882309F4CE
:102EB0004FC582E029960FB6F894DEBF0FBECDBF96
:102EC000DF91CF911F910F91FF90EF90DF90CF9006
:102ED000BF90AF909F908F907F906F905F904F903A
:102EE0003F900C9415200031FFE51F0711F481E09D
:102EF00005C001312FE5120721F482E00E94322043
:102F0000CCCF033FFCE51F0749F406E221EE40EE7B
:102F100063EF7CE5C7010E94B014C1CF043F2CE5EC
:102F2000120708F049C1083D3CE5130731F407E2F8
:102F300025EE45EE68ED7CE5EDCF093D9CE51907F2
:102F400031F408E221E045EE69ED7CE5E3CF073D91
:102F5000ECE51E0731F406E221EE41EE67ED7CE57B
:102F6000D9CF882309F45DC11092060802309CE590
:102F7000190708F440C10631ECE51E0730F0C8011E
:102F80008A5F9C45099708F036C10E94291E9093DC
:102F9000E1048093E0040031FCE51F0709F4C3C09D
:102FA00008F041C008303CE5130709F49AC0F0F47A
:102FB00004309CE5190709F487C068F40230FCE589
:102FC0001F0709F477C003301C4509F0E5C0809164
:102FD000E004826076C006303CE5130709F46EC059
:102FE00008F07BC08091E00488606BC00C309CE5E9
:102FF000190709F485C068F40A30FCE51F0709F4D5
:1030000074C008F079C00E9482228091E004806838
:1030100058C00E303CE5130709F476C008F07FC0B5
:103020008091E0048BC00B3F9CE5190709F44FC069
:1030300018F50331FCE51F0709F47DC078F4013170
:103040003CE5130709F473C002311C4509F0A4C024
:103050000E9482228091E0048F7733C005319CE585
:10306000190709F472C008F486C00A3F1C4509F02C
:1030700093C08091E1043EC00F3F2CE5120709F494
:103080005FC058F40D3F8CE5180709F444C008F4FC
:103090003FC08091E10482602DC00130EDE51E0744
:1030A00009F475C008F45DC002301D4509F074C014
:1030B00060E06EC08091E004816003C08091E00414
:1030C00080618093E00468C08091E00411C0809129
:1030D000E10482608093E1045FC08091E00480623B
:1030E000F0CF8091E0048064ECCF8091E0048860B0
:1030F0008460E7CF8160EECF8091E0048E7FE1CFE6
:103100008091E0048D7FDDCF8091E004877FD9CF6F
:103110008091E10418C08091E1048D7FDBCF809124
:10312000E0048F7ECECF8091E0048F7DCACF809166
:10313000E0048F7BC6CF8091E004877F8B7FC1CF77
:103140008091E1048D7F8E7FC5CF8091E00482FB6A
:10315000222720F991E0922790FB82F990FB83F9D6
:10316000B0CF8091E104982F909591708E7F892B3C
:1031700090FB81F9AFCF0E9482228091E00487FB0F
:10318000222720F991E0922790FB87F99ACF61E0FE
:103190008EE090E00E941F2D6091E0041091E10408
:1031A00084E090E00E941F2D612F82E290E00E9457
:1031B0001F2D0E94822273CE053FFCE51F0731F4CC
:1031C00006E221EE42EE65EF7CE5A4CE053F2CE55C
:1031D000120730F407E225EE44EE64EF7CE59ACE68
:1031E000063F3CE5130709F0BCCE07E225EE46EEAC
:1031F00066EF7CE58FCE80919F0806319CE519072C
:1032000009F58A7A91E009F490E090930708882301
:1032100011F065E301C069E288E098E00E94F41DC6
:103220000EC006311C4509F0D6C0809107088823DE
:1032300009F48CC365E388E098E00E94CC1D0E94ED
:10324000AB1E2DCE82720A3C3CE5130709F47BC00D
:1032500098F5053CECE51E0709F461C0B8F4033CA1
:103260002CE5120709F451C008F054C0023C8CE56B
:10327000180709F07FC09091000981E089278093A9
:103280000009109228010E944D1109CE073C9CE5CF
:10329000190709F44EC008F447C0083CFCE51F07B5
:1032A00009F44CC0093C2CE5120709F063C043E85F
:1032B0005FE06FE87FE055C00F3C3CE5130709F481
:1032C00055C098F40C3CECE51E0709F446C008F420
:1032D0003FC00D3C2CE5120709F446C00E3C3CE50E
:1032E000130709F047C085E042C0063D8CE518078A
:1032F00030F4013D1C4508F0D2CD82E138C00D35D7
:10330000EDE51E0709F4CBCD35C045EC5FE06EEC72
:103310007FE027C04EEC5FE065EC7FE022C043EB2E
:103320005FE06CEB7FE01DC04CEB5FE063EB7FE0A8
:1033300018C04BE95FE067EA7FE013C047EA5FE04F
:103340006BE97FE00EC04FE85FE063E87FE009C013
:103350004FE551E165E571E104C045E551E16FE5F7
:1033600071E10E9443119BCD81E001C08DE00E947C
:10337000B52295CD0A35FDE51F0741F150F4011541
:103380003CE51307A9F00E3D1C4529F50E943A1EA5
:1033900086CD0B359DE51907D9F00C351D45D9F4BF
:1033A0008091E10482FB882780F991E0892711C090
:1033B0000E948222FFEF04E31CE0F1500040104025
:1033C000E1F700C000000E94411D69CD81E001C00D
:1033D00080E00E94FF1EF701828100811181882315
:1033E00049F0C8010E94191FD82E682FC8010E94F9
:1033F000BB1F04C0C8010E948F1FD82EB8018D2D9D
:103400000E9434138C01982EF701B280A580A294FB
:103410009FE0A92280919C08877099F0BB2089F0D9
:10342000812F807F803421F080E2800F883048F047
:1034300082E00E94152080919C088770DD24D3943F
:103440008111D12CC12EC2948FE0C8228C2D90E026
:103450008C30910508F03FC2FC01EF56FF4F0C94F1
:10346000CE2D812F807F1F70882311F01295107F41
:10347000BB20B9F0112309F419C280E2800F883013
:1034800010F0911006C080919F08182B10939F0890
:1034900005C080919E08182B10939E080E94AB1EB9
:1034A00005C2802F0E941E2B112309F414C2005E56
:1034B0001095083010F0911006C080919F081823D5
:1034C00010939F0805C080919E08182310939E08B2
:1034D0000E94AB1E00C2812F807F1F70803211F0CE
:1034E0001295107F992021F0F1E09F1611F130C064
:1034F000BB20B1F0AA2081F001E0A0120DC08091A4
:10350000E10482FDE8C18091A008182B181709F486
:10351000E2C11093A008DFC18091A008812B10C0E8
:10352000AA2021F021E0A21609F4D5C10E94A51E0F
:1035300027C0BB2041F035E03A1508F4CCC1812FFB
:103540000E94142BC8C184E08A1508F4C4C118C0B5
:10355000BB2049F0AA2099F3F701858180FFA6C11D
:103560008F708583ECCFAA2059F0093309F0B0C1E0
:10357000FFEF17EE23E0F15010402040E1F7A6C125
:10358000812F0E94092BA7C1812F86958695837074
:1035900019F0813059F09FC1BB2019F0C801937018
:1035A00002C080E090E00E948C109BC1BB2019F00B
:1035B000C801937002C080E090E00E94761091C133
:1035C000812F837009F069C0B11089C1902F929545
:1035D00096959770990F990F802F8F70882E912C48
:1035E000A12CB12C092E04C0880C991CAA1CBB1C50
:1035F0000A94D2F704FF12C04FE050E060E070E0A0
:1036000004C0440F551F661F771F9A95D2F7DB0140
:10361000CA0180959095A095B09503C080E090E098
:10362000DC0116951695412F4370423019F1C8F40C
:103630000091A1081091A2082091A3083091A4083C
:10364000413059F088299929AA29BB29BC01CD010B
:1036500060237123822393230AC0802A912AA22AFD
:10366000B32ABC01CD01682979298A299B290E94A6
:10367000532035C188299929AA29BB290091A1087D
:103680001091A2082091A3083091A408BC01CD019B
:103690006027712782279327EACFBB2019F0812F5B
:1036A000817001C08695882309F419C1902F9295E5
:1036B00096959770990F990F802F8F70882E912C67
:1036C000A12CB12C092E04C0880C991CAA1CBB1C6F
:1036D0000A94D2F704FF12C04FE050E060E070E0BF
:1036E00004C0440F551F661F771F9A95D2F7DB0160
:1036F000CA0180959095A095B09503C080E090E0B8
:10370000DC0116951695412F43704230D9F068F5CB
:1037100000910609109107092091080930910909C3
:10372000413059F088299929AA29BB29BC01CD012A
:1037300060237123822393231EC0802A912AA22A08
:10374000B32A13C088299929AA29BB2900910609FF
:10375000109107092091080930910909BC01CD0198
:10376000602771278227932706C0BC01CD016829F5
:1037700079298A299B290E94E61FB1C01F70BB20AE
:1037800039F0812F0E943220802F0E94142BA7C075
:10379000802F0E94092B812F0E94F01FA0C0802F34
:1037A00032EF931609F440C0391538F090EF9916AE
:1037B00061F0E1EF9E1699F174C0F3EF9F16D9F115
:1037C00024EF921609F44EC06CC0BB2019F134E00E
:1037D0003A1508F480C01F7181E090E0A0E0B0E0ED
:1037E000AC01BD0104C0440F551F661F771F1A9519
:1037F000D2F78091060990910709A0910809B0912C
:1038000009098A019B01082719272A273B27C90193
:10381000B80125C025E02A1508F45DC0DCCFBB2027
:1038200029F0812F8F7130C0BB20D9F3812F8F7188
:103830000E94F01F50C0BB2079F01F7181E090E022
:10384000A0E0B0E0BC01CD0104C0660F771F881F67
:10385000991F1A95D2F703C060E070E0CB010E9477
:10386000E61F39C0BB2099F01F71812F0E943220C2
:103870008091E10482FD07C038E0139FC00111244C
:10388000836080939C08812F0E94322024C081E0B5
:103890000E94152081E08A15F0F482E00E94152034
:1038A0001AC0BB2039F0AA2009F4BBCF802F0E9498
:1038B000502B11C0AA2009F4B9CF893349F49FEFE6
:1038C000E7EEF3E09150E040F040E1F700C0000087
:1038D000802F0E941E2B88EF8C0D843010F40E94E4
:1038E000A210DD20A9F180919C0880FD31C0F70174
:1038F00012828595859585950E943220C7010E9488
:10390000031680919C0885958595859529960FB617
:10391000F894DEBF0FBECDBFDF91CF911F910F9105
:10392000FF90EF90DF90CF90BF90AF909F908F90DF
:103930007F906F905F904F903F900C94F01F0131FB
:103940009FE5190709F0DDCA82E0A5CA69E273CCD8
:1039500029960FB6F894DEBF0FBECDBFDF91CF9191
:103960001F910F91FF90EF90DF90CF90BF90AF909D
:103970009F908F907F906F905F904F903F900895B1
:1039800008958091A608089580E00895CF93DF936D
:1039900000D01F92CDB7DEB79091C908943011F5D1
:1039A00089837B836A839093E9008FEF9091E8008D
:1039B000815095FD06C095ED9A95F1F700008111B3
:1039C000F5CF8091E80085FF0DC040E050E063E056
:1039D00070E0CE0101960E948D258091E8008E77DF
:1039E0008093E8000F900F900F90DF91CF91089592
:1039F000BC0184E00C94C61CBC0183E00C94C61C82
:103A0000CF93DF9320911001222339F02091E0041D
:103A100027FF03C060E224E002C068E021E02093B9
:103A2000E9002FEF3091E800215035FD06C035ED5B
:103A30003A95F1F700002111F5CF2091E80025FF1C
:103A40001DC0EC0180911001811105C040E050E0E3
:103A500068E070E003C070E040E050E0CE010E94FA
:103A60008D258091E8008E778093E80080E2FE014A
:103A7000A7EAB8E001900D928A95E1F7DF91CF9126
:103A8000089581E08093E00080E28093D800109256
:103A9000C9008FE19EE40197F1F700C0000087E0C4
:103AA00090EBDC0180930B0990930C09A0930D0916
:103AB000B0930E099CE088E10FB6F894A895809326
:103AC00060000FBE90936000FFCF78941F920F921A
:103AD0000FB60F9211248F939F93AF93BF93809152
:103AE0001E0590911F05A0912005B091210501961A
:103AF000A11DB11D80931E0590931F05A093200565
:103B0000B0932105BF91AF919F918F910F900FBE00
:103B10000F901F9018952FB7F89460911E05709123
:103B20001F0580912005909121052FBF08952FB783
:103B3000F89480911E0590911F05A0912005B091E9
:103B400021052FBF08951F920F920FB60F921124D7
:103B50008F939F93AF93BF938091EE04811113C015
:103B600080911E0590911F05A0912005B09121051F
:103B70004196A11DB11D80931E0590931F05A09332
:103B80002005B0932105BF91AF919F918F910F9028
:103B90000FBE0F901F901895209110012223C9F09D
:103BA0002091E00427FF15C0262F269526952695FF
:103BB0002E31C8F4FC01E20FF11D677081E090E046
:103BC00001C0880F6A95EAF78095928189238283E4
:103BD0000895FC0106962281621301C0128231967B
:103BE000E817F907C1F70895209110012223C1F0C9
:103BF0002091E00427FF14C0262F269526952695B0
:103C00002E3130F5FC01E20FF11D677081E090E08C
:103C100001C0880F6A95EAF79281892B8283089503
:103C2000FC0132962FEF30E04191641789F02F3F6D
:103C300019F4411101C0232F3F5F3630A9F72F3F00
:103C400039F0FC01E20FF11D27FDFA95628308951A
:103C50000895CF9384E090E00E94012DC82F82E266
:103C600090E00E94012D2C2F30E0A901582BCA01B1
:103C7000CF9108956AEE7EEF80E090E00E943D2DA6
:103C800060E082E090E00E941F2D60E083E090E021
:103C90000E941F2D1092A1081092A2081092A30852
:103CA0001092A40860E084E090E00E941F2D60E084
:103CB00082E290E00E941F2D60E085E090E00E948B
:103CC0001F2D60E086E090E00E941F2D6FEF87E0DF
:103CD00090E00E941F2D40E050E0BA0188E090E0A3
:103CE0000E94312D60E08DE090E00E941F2D40E0A9
:103CF00050E0BA0188E190E00E94312D60E087E158
:103D000090E00E941F2D40E050E0BA018CE190E06D
:103D10000E94312D60E070E080E290E00E943D2D35
:103D200040E050E0BA0188E190E00E94312D40E08F
:103D300050E0BA018FE090E00E94312D40E050E069
:103D4000BA0183E190E00C94312D8091A00881119B
:103D50001092A008089590919F0880919E08892B49
:103D600020919D08982F922B909308088091A0088D
:103D70008823D9F0892B809308088091100188232B
:103D800031F08091E00487FF02C08EE101C086E03F
:103D9000EAE0F8E090E0815028F021912223D9F365
:103DA0009F5FF9CF91110E94A51EE0911C05F09133
:103DB0001D053097A9F080911001882359F080915A
:103DC000E00487FF07C0809108088093090885E018
:103DD000809308080280F381E02D88E098E0099440
:103DE000089580E090E00E948C1080E090E00E94B6
:103DF000761010929E0810929D080C94AB1ECF93E3
:103E0000C091E104C2FB992790F9981781F080FBDB
:103E1000C2F9C093E1046091E00484E090E00E9464
:103E20001F2D6C2F82E290E0CF910C941F2DCF912B
:103E30000895BF92CF92DF92EF92FF920F931F935C
:103E4000CF93DF938C01C0900609D0900709E090D2
:103E50000809F09009098091A1089091A208A09109
:103E6000A308B091A408C82AD92AEA2AFB2ACFE1DC
:103E7000D0E0D701C6010C2E04C0B695A795979542
:103E800087950A94D2F780FD04C0219790F7B12C52
:103E900007C0BC2EB8018C2F0E9434130197A9F3E0
:103EA0008B2DDF91CF911F910F91FF90EF90DF90BD
:103EB000CF90BF900895CF93DF93EC010E94191F1C
:103EC000BE010E943413DF91CF9108950E945B1FC1
:103ED000292F2F70E92FE295EF704E2F50E0FA0155
:103EE0003297EE30F105B8F4E356FF4F0C94CE2D27
:103EF000803F99F018F4883E70F40FC0843F59F465
:103F00000CC0883E50F0813F31F407C0822F869567
:103F100086958695089580E0089581E0089520E1D2
:103F2000929F800D1124682F669566956695982F4F
:103F3000977085E0689FB001112440E050E080E078
:103F4000FB01E40FF51FE05AF74F208130E0092E06
:103F500002C0369527950A94E2F721703327042E84
:103F600001C0220F0A94EAF7822B4F5F5F4F453062
:103F7000510531F7089520E1929F800D1124E82F1B
:103F8000E695E695E695877051E001C0550F8A9554
:103F9000EAF785E0E89FF0011124E05AF74F20E0AE
:103FA00030E070E04081CB01022E02C096958795EB
:103FB0000A94E2F781708195842785238427819371
:103FC0002F5F3F4F2530310569F70895609306094B
:103FD0007093070980930809909309090C94F11EC6
:103FE0000F931F9341E050E060E070E004C0440F85
:103FF000551F661F771F8A95D2F74095509560959B
:1040000070958091060990910709A0910809B091D7
:1040100009098A019B01082319232A233B23C9018B
:10402000B8011F910F910C94E61F20919C08809578
:10403000822380939C08982F977041F430E0482F9A
:10404000082E000C550B2417350721F49091E1043C
:1040500092FF07C08595859585950E94F01F109267
:104060009C0808950F931F9341E050E060E070E0DA
:1040700004C0440F551F661F771F8A95D2F78091A1
:10408000060990910709A0910809B09109098A01D0
:104090009B01082B192B2A2B3B2BC901B8011F911F
:1040A0000F910C94E61F6093A1087093A20880936F
:1040B000A3089093A4080C94F11E80915F0890913E
:1040C0002E08891719F08F5F8770FBCF08950F9323
:1040D0001F93CF93DF9380912D0882958F7009F005
:1040E0005DC080912A08882309F458C080915F0838
:1040F00010912E086091280870912908C0912B0812
:10410000D0912C0891E06F3F09F090E0292F06E054
:10411000811709F443C0209721F07F3F21F030E060
:1041200003C031E001C0322F90E030FD34C0089F61
:10413000F001099FF00D1124DF01A15DB74F119629
:104140003C911197371327C03C91361324C0129627
:104150003C91129731111FC013964D915C911497A9
:104160004C1B5D0B483C5105B0F480912D088F70BD
:10417000806180932D08EC5CF74F80818F708061A7
:10418000808388E298E00E940316DF91CF911F910F
:104190000F910C945D2001968770BACFDF91CF917B
:1041A0001F910F9108959F92AF92BF92CF92DF928D
:1041B000EF92FF920F931F93CF93DF93CDB7DEB7AC
:1041C00061970FB6F894DEBF0FBECDBF8C0185E0BE
:1041D000F801DE011D9601900D928A95E1F7F80134
:1041E00090818181E2803091280860912908409176
:1041F0002B0850912C084115510531F06F3F31F4D7
:1042000021E03F3F19F403C021E001C020E0F22F7C
:10421000F1709F2E20FD23C1F801C380D48028E2D5
:10422000A22E28E0B22EF0902A08F601E41BF50B2E
:10423000FF2009F4CEC020912D08E83CF10508F0DC
:1042400099C0422F407F09F051C0681311C0391343
:104250000FC0FE2CE1100CC02F70206120932D08A0
:10426000C5010E94031680912D08F801858337C18E
:10427000CD2831F08F3F31F421E09F3F19F403C086
:1042800021E001C020E020FD03C021E02E2502C076
:1042900020E030E0F22FF170FF2E20FF1DC02091B2
:1042A0005F0840912E0856E0241709F4F6C030E06C
:1042B000529FF001539FF00D1124E15DF74F618192
:1042C000861306C06081961303C06281E61204C0A3
:1042D0002F5F3F4F2770E8CFFE2CEE2009F4FFC080
:1042E00080912D08816080932D0850C0681307C00D
:1042F000391305C0E11003C0F80125838DC09D87E7
:104300008E878D859E850E94661F882369F1EE2029
:1043100059F120912D08822F82958F7090E002979D
:1043200074F0809128089091290898878F831986C6
:10433000DB86CA862C87CE0107960E94031686E08C
:10434000F801A8E2B8E001900D928A95E1F70E9489
:1043500067200DC06817E1F09D878E878D859E854B
:104360000E94661F81111EC0C8010E940316FF240F
:10437000F394B5C0422F407F69F788E298E00E942D
:10438000031686E0F50111928A95E9F7F12CA7C092
:104390003913E2CFE110E0CFF8012583C8010E9474
:1043A000031657C0EE2001F320912D08822F82952D
:1043B0008F7090E002971CF2809128089091290854
:1043C0009A8389831B82DD82CC822E83CE01019663
:1043D000B4CFE83CF105E8F5FE2CEE2029F2681395
:1043E00027C0391325C020912D0820FD18C0822F29
:1043F00082958F70482F50E04115510581F0F801EA
:1044000025834F30510541F08F5F982F9295907F13
:10441000822F8F70892B8583C8010E94031686E046
:10442000F801A8E2B8E001900D928A95E1F757C033
:104430009D878E878D859E850E94661F81117FCF07
:1044400080912D08816080932D08C8010E94031679
:1044500046C086E0F50111928A95E9F740C0EE204A
:1044600009F482CF9D878E878D859E850E94661F69
:10447000F82E882309F478CF86E0F801A8E2B8E0A6
:1044800001900D928A95E1F7809128089091290872
:104490000E945B1F0E94672022C09D878E878D85AA
:1044A0009E850E945B1F292F22952F70223028F4B1
:1044B0009F7039F0811105C00BC0243028F49F7023
:1044C00049F4805E883020F0C8010E9403169F2CBA
:1044D000F92C05C0F8019581907F99F7F9CF8F2DC0
:1044E00061960FB6F894DEBF0FBECDBFDF91CF91BE
:1044F0001F910F91FF90EF90DF90CF90BF90AF9002
:104500009F90089510929F0880911001882331F0A8
:104510008091E00487FF02C08EE101C086E0EAE0FE
:10452000F8E0DF011D928A95E9F70C94F11E0F93D4
:104530001F938091060990910709A0910809B091F5
:1045400009098C019D010670112722273327BC0120
:10455000CD01063011052105310511F4686001C057
:10456000677F1F910F910C94E61F90910009937043
:1045700089F0811102C0946007C0883210F09C69F4
:1045800003C0880F880F982B909300091092280180
:104590000C944D1108956F927F928F929F92AF92DB
:1045A000BF92CF92DF92EF920F931F93CF93DF933F
:1045B0003C01C0912501CC0FCC0FD4E0DC0FDD36DF
:1045C00008F0DCE66091040966958091FC08909102
:1045D000FD080E941B12182FCD1708F044C08C2E26
:1045E000912CF401EF5BFB4F908180912601892390
:1045F000C1F1F401EE0FFF1FE759FC4FC080D12C31
:1046000080E7C81AD108F401EE0FFF1FE659FC4FEE
:10461000A080B12CE0E2AE1AB108CC9C9001CD9CF8
:10462000300D300D1124AA9CC001AB9C900D900D53
:104630001124820F931F0E94C111082F609101095C
:104640007091020980910309E12E9501A601F30101
:1046500009950E942512462F282F672FC4010E941A
:104660004B11CF5FB9CF81E0DC3608F080E0DF91FD
:10467000CF911F910F91EF90DF90CF90BF90AF90AF
:104680009F908F907F906F900895CF92DF92EF92DE
:10469000FF920F931F93CF93DF936C01C09125017D
:1046A000CC0FCC0FD4E0DC0FDD3608F0DCE66091F7
:1046B000040966958091FC089091FD080E941B12E8
:1046C000182FCD1778F5EC2EF12CF701EF5BFB4F8F
:1046D000908180912601892319F1F701EE0FFF1FC8
:1046E000E659FC4F208130E020523109F701EE0FEE
:1046F000FF1FE759FC4F408150E04057510960913E
:1047000001097091020980910309012FF6010995B1
:104710000E942512462F282F672FC7010E944B1198
:10472000CF5FCFCF81E0DC3608F080E0DF91CF9122
:104730001F910F91FF90EF90DF90CF900895DF923F
:10474000EF92FF920F931F93CF93DF937C01C09161
:104750002501CC0FCC0FD4E0DC0FDD3608F0DCE611
:1047600060910409669566958091FC089091FD081A
:104770000E941B12D82ECD17F0F40C2F10E0F80178
:10478000EF5BFB4F908180912601892391F060912E
:10479000010970910209809103092D2D4C2FF70119
:1047A00009950E942512462F282F672FC8010E94C5
:1047B0004B11CF5FE0CF81E0DC3608F080E0DF9185
:1047C000CF911F910F91FF90EF90DF9008959F92EE
:1047D000AF92BF92CF92DF92EF92FF920F931F930F
:1047E000CF93DF936C01C0912501CC0FCC0FD4E0A7
:1047F000DC0FDD3608F0DCE660910409669566950D
:104800008091FC089091FD080E941B12182F80E4F3
:10481000810F0E947C1190E8F92EF80E812F0E94E2
:104820007C1120E8922E980ECD1700F5AC2EB12CFD
:10483000F501EF5BFB4F9081809126018923A1F068
:10484000609101097091020980910309E12E0C2FFA
:10485000292D4F2DF60109950E942512462F282F4C
:10486000672FC5010E944B11CF5FDECF81E0DC36A0
:1048700008F080E0DF91CF911F910F91FF90EF90B2
:10488000DF90CF90BF90AF909F900895CF92DF922E
:10489000EF92FF920F931F93CF93DF936C01C09120
:1048A0002501CC0FCC0FD4E0DC0FDD3608F0DCE6C0
:1048B0002091040930E040E050E06FEF7FEF80E0AE
:1048C00090E00E94432D8901CD17E8F5EC2EF12CE4
:1048D000F701EF5BFB4F908180912601892389F1DD
:1048E0009091D308915097FD15C0492F092E000CC7
:1048F000550BFA01ED52F74F8189C813F3CF440FDE
:10490000551FFA01ED52F74F218D328D20173107D7
:1049100048F701C0980160910409C9010E941B1267
:10492000AC01609101097091020980910309F601BF
:1049300009950E942512462F282F672FC7010E9434
:104940004B11CF5FC1CF81E0DC3608F080E0DF9112
:10495000CF911F910F91FF90EF90DF90CF9008952E
:104960002F923F924F925F926F927F928F929F927F
:10497000AF92BF92CF92DF92EF92FF920F931F936D
:10498000CF93DF93CDB7DEB727970FB6F894DEBF8E
:104990000FBECDBF282E4B0120912501220F220FE3
:1049A0002E83122F1C5F1D3608F01CE63091D308B1
:1049B0003983AE81A11708F077C08E81682E712CE3
:1049C000F301EF5BFB4F908180912601892309F46D
:1049D00067C03090010940900209522C1F82C30128
:1049E000880F991FDC01A759BC4FBB83AA83C30161
:1049F000880F991FFC01E659FC4FFD83EC83F98178
:104A00005F16E0F5E52CF12CAA81BB81CC90D12C6E
:104A1000F701ED52F74F8181C81AD108AC81BD81F1
:104A2000AC90B12C8185A81AB108CC9C9001CD9C8A
:104A3000300D300D1124AA9CC001AB9C900D900D3F
:104A40001124820F931F0E94C111082FF701EE0F4E
:104A5000FF1FED52F74F60910409818D928D0E94E6
:104A60001B127C019501A601632D742D8F81F40129
:104A70000995362E472E8F835394C1CF2091030979
:104A80008F81382F329F312D1124832F632D742D68
:104A90000E942512462F282F672FC3010E944B1119
:104AA0008E818F5F8E8385CF81E01C3608F080E099
:104AB00027960FB6F894DEBF0FBECDBFDF91CF9122
:104AC0001F910F91FF90EF90DF90CF90BF90AF902C
:104AD0009F908F907F906F905F904F903F902F901E
:104AE000089590910009937059F0809301096093A3
:104AF0000209493C08F048EC409303090C944D111D
:104B00000895E1E1F1E08083618324E630E042E052
:104B100050E0BF0180E60C946E2CEF92FF920F9351
:104B20001F93CF93DF937C018B010E94EE288111AC
:104B300019C0E70101151105A1F08091E80085FD7C
:104B40000AC08091E8008E778093E8000E94EE28EA
:104B5000882381F307C089918093F10001501109E6
:104B6000E9CF80E0DF91CF911F910F91FF90EF90FF
:104B700008951F93CF93DF93CDB7DEB7AA970FB6F3
:104B8000F894DEBF0FBECDBFEBECF8E08091F100F2
:104B9000819348E0E33DF407C9F78091CC08833066
:104BA00009F462C030F4813071F0823009F49CC0A5
:104BB000B3C08A3009F488C08B3009F46DC08930E5
:104BC00009F0AAC020C08091CB08813A09F0A4C0A6
:104BD0008091E800877F8093E8008091CF089091D2
:104BE000D008892B21F460E287EA98E003C060E0F6
:104BF00080E090E070E00E94AB2A8091E8008B7723
:104C00008093E80089C08091CB08813209F084C08C
:104C10008091CF089091D008009719F0029709F081
:104C20007BC08091E800877F8093E8008091E80056
:104C300082FD05C08091C9088111F8CF6DC0209117
:104C4000F3008091F20090E0922B029729F480917A
:104C5000F1008B7F813021F48091F1008093A608D0
:104C60008091E8008B7754C08091CB08813A09F09D
:104C700053C08091CF089091D008892B09F04CC087
:104C80008091E800877F8093E8008091E80080FFB2
:104C9000FCCF8091100137C08091CB088132E1F5C3
:104CA0008091CF089091D008892BB1F58091E800D0
:104CB000877F8093E8000E9421298091CD0880930E
:104CC00010010E94822228C08091CB08813221F5F8
:104CD0008091E800877F8093E8000E9421298091DD
:104CE000CE088093A50818C08091CB08813AA1F422
:104CF0008091E800877F8093E8008091E80080FF42
:104D0000FCCF8091A5088093F1008091E8008E7718
:104D10008093E8000E9421298091E80083FFDDC193
:104D20008091CB089091CC08492F50E04A30510532
:104D300008F0D3C1FA01E555FF4F0C94CE2D803811
:104D400021F0823809F0C9C108C08091C70890914C
:104D5000C808992389F082600FC08091CF088F70B6
:104D6000873008F0BAC18093E9008091EB0085FBA1
:104D7000882780F91092E9009091E800977F90933E
:104D8000E8008093F1001092F10070C1282F2D7F70
:104D900009F0A3C1882319F0823061F09EC180918F
:104DA000CD08813009F099C1933009F080E08093FB
:104DB000C8082EC08091CD0881112AC08091CF08EB
:104DC0008F702FEF280F263008F087C18093E900FD
:104DD0002091EB0020FF1CC0933021F48091EB0068
:104DE000806214C09091EB0090619093EB0021E001
:104DF00030E0A90102C0440F551F8A95E2F74093A5
:104E0000EA001092EA008091EB0088608093EB004A
:104E10001092E9008091E800877F8093E8000E946B
:104E200021295BC1811159C11091CD081F77809153
:104E3000E3008078812B8093E3008091E800877FF6
:104E40008093E8000E9421298091E80080FFFCCF38
:104E50008091E30080688093E300111102C082E03A
:104E600001C083E08093C90838C18058823008F0BF
:104E700034C12091CD083091CE082C3D53E0350748
:104E800079F583E08A838AE289834FB7F894DE015B
:104E9000139620E03EE051E2E32FF0E050935700FC
:104EA000E49120FF03C0E295EF703F5FEF708E2F1B
:104EB00090E0EA3010F0C79601C0C0968D939D93A4
:104EC0002F5F243149F74FBF8091E800877F80939F
:104ED000E8006AE270E0CE0101960E94AB2AB4C0FD
:104EE0008091CF089091D008432F5527433051052A
:104EF000A9F068F44130510509F4FEC04230510573
:104F000009F0EBC08BE590E0E9E6F5E04BC04132FB
:104F1000510529F14232510589F1DFC0C9019927B4
:104F200081309105A1F058F0029709F0D6C0E6ED66
:104F3000F5E0E4918E2F90E0E6EDF5E030C0E8E09A
:104F4000F6E0E4918E2F90E0E8E0F6E028C0E6EF8E
:104F5000F5E0E4918E2F90E0E6EFF5E020C083309D
:104F6000910508F0BAC0880F991FFC01ED5FFC4F56
:104F70000190F081E02D89E090E014C0833091052C
:104F800008F0ABC0FC01EE0FFF1FE350FD4F019096
:104F9000F081E02DDC01A650BD4F8C9190E0009790
:104FA00009F49BC02091E800277F2093E80020911E
:104FB000D1083091D2082817390708F4C90140E018
:104FC000009789F12091C908222309F43DC02530BA
:104FD000D9F12091E80023FD37C02091E80022FD9F
:104FE0002FC02091E80020FFEBCF4091F3002091EB
:104FF000F20030E0342B009759F02830310540F4AE
:1050000044914093F100319601972F5F3F4FF3CFCA
:1050100041E02830310509F040E02091E8002E778A
:105020002093E800CDCF4111CDCF0AC08091C908AF
:10503000882351F0853041F08091E80083FD04C061
:105040008091E80082FFF2CF8091E8008B77809317
:10505000E80043C0803809F040C08091E800877FB5
:105060008093E8008091CA088093F1008091E80065
:105070008E77D3CE811131C08091CD089091CE082A
:105080009927029754F58091E800877F8093E80084
:105090001091CD081093CA080E942129111106C051
:1050A0008091E30087FD02C081E001C084E080932D
:1050B000C90842E061EC81E00E94402942E261ECD3
:1050C00084E00E94402942E261EC82E00E94402993
:1050D00042E260EC83E00E9440298091E80083FF77
:1050E00010C08091E800877F8093E8008091EB00FA
:1050F00080628093EB0005C082E190E0E4ECF5E093
:1051000051CFAA960FB6F894DEBF0FBECDBFDF9188
:10511000CF911F9108951F920F920FB60F921124F5
:105120002F933F934F935F936F937F938F939F93AF
:10513000AF93BF93CF93DF93EF93FF93C091E900B9
:10514000CF708091EC00D82FD17080FDD0E8109204
:10515000E9008091F000877F8093F00078940E94AE
:10516000B9251092E9008091F00088608093F000EA
:10517000CD2BCF70C093E900FF91EF91DF91CF91DC
:10518000BF91AF919F918F917F916F915F914F915F
:105190003F912F910F900FBE0F901F901895E8ED43
:1051A000F0E080818E7F80831092E2001092DA001E
:1051B0001092E100A0EEB0E08C9181608C93808130
:1051C0008F77808319BCA7EDB0E08C918E7F8C9394
:1051D00080818F7E808310920A0908952091E400D7
:1051E0003091E50095E64091EC00842F817040FFFE
:1051F00023C08091E80080FD1DC08091C9088823EC
:1052000099F0853099F08091EB0085FD11C04091B7
:10521000E4005091E5002417350729F3915011F06F
:105220009A01E1CF84E0089582E0089583E0089533
:1052300081E0089580E008954091E80042FFDDCFCD
:1052400008958091CB0887FF11C08091E80082FD0E
:1052500005C08091C9088111F8CF11C08091E80084
:105260008B770BC08091C908882349F08091E800B2
:1052700080FFF8CF8091E8008E778093E800089552
:10528000982F973068F59093E900981739F070914E
:10529000EC002091ED005091F00003C0242F762FF8
:1052A00050E021FD02C09F5FECCF3091EB003E7FCC
:1052B0003093EB003091ED003D7F3093ED00309165
:1052C000EB0031603093EB007093EC002093ED0025
:1052D0005093F0002091EE0027FDE5CF80E0089587
:1052E0008F708093E90081E00895CF92DF92EF9272
:1052F000FF920F931F93CF93DF93C8EDD0E0888187
:105300008F7E8883E7EDF0E080818160808384E098
:1053100082BF81E080930A0988818E7F888302EEB4
:1053200010E0F80110821092DA0081EEC82ED12C24
:10533000F601108288818F778883888180688883CE
:1053400088818F7D888319BC1092C9081092CA0881
:105350001092C8081092C70890EEE92EF12CF701C0
:1053600080818B7F808388818160888342E060E0D8
:1053700080E00E944029F60180818E7F8083F801C1
:10538000808181608083808188608083F701808153
:105390008E7F8083888180618883DF91CF911F9188
:1053A0000F91FF90EF90DF90CF9008951F920F9292
:1053B0000FB60F9211242F933F934F935F936F93E8
:1053C0007F938F939F93AF93BF93EF93FF938091BE
:1053D000E10082FF09C08091E20082FF05C0809158
:1053E000E1008B7F8093E1008091DA0080FF2AC08A
:1053F0008091D80080FF26C08091DA008E7F809354
:10540000DA008091D90080FF18C080E189BD82E177
:1054100089BD09B400FEFDCF81E08093C908809169
:105420000A0981110FC00E94CF280E94752980911E
:10543000E20084608093E20005C019BC1092C908A4
:1054400010920A098091E10080FF17C08091E2006C
:1054500080FF13C08091E2008E7F8093E2008091F4
:10546000E20080618093E2008091D80080628093A6
:10547000D80019BC85E08093C9088091E10084FFC1
:105480002EC08091E20084FF2AC080E189BD82E1C4
:1054900089BD09B400FEFDCF8091D8008F7D809337
:1054A000D8008091E1008F7E8093E1008091E2003E
:1054B0008F7E8093E2008091E20081608093E20021
:1054C0008091CA08882311F084E007C08091E3002E
:1054D00087FD02C081E001C083E08093C90880910C
:1054E000E10083FF27C08091E20083FF23C0809109
:1054F000E100877F8093E10082E08093C9081092E9
:10550000CA088091E1008E7F8093E1008091E200E3
:105510008E7F8093E2008091E20080618093E200C0
:1055200042E060E080E00E9440298091F0008860C5
:105530008093F000FF91EF91BF91AF919F918F9178
:105540007F916F915F914F913F912F910F900FBE7F
:105550000F901F9018952091D1083091D2082617EE
:10556000370748F06115710539F42091E8002E776E
:105570002093E80001C0B901FC0120E0611571052C
:1055800079F18091C9088823F1F18530F1F180919A
:10559000E80083FD3CC08091E80082FD2EC0809130
:1055A000E80080FFEBCF2091F3008091F20090E0C3
:1055B000922B6115710551F08830910538F42191D5
:1055C0002093F100615071090196F3CF21E0089713
:1055D00009F020E08091E8008E778093E800CECF3C
:1055E0002111CFCF0AC08091C908882361F085308E
:1055F00061F08091E80083FD0AC08091E80082FF9D
:10560000F2CF80E0089582E0089583E0089581E07C
:105610000895882341F0809590919F088923809375
:105620009F080C94AB1E0895882339F090919F0831
:10563000892B80939F080C94AB1E0895882379F1E1
:105640009CEF980F913A30F4682F88E098E00E9420
:10565000CC1D14C090E2980F983090F4877021E030
:1056600030E0A90102C0440F551F8A95E2F7CA0134
:10567000809590919F08892380939F080C94AB1E7E
:105680009BE5980F933020F480E090E00C948C1010
:10569000885A873120F480E090E00C9476100895C9
:1056A000CF93882309F46DC09CEF980F913AC8F509
:1056B000C82F809110018823E1F08091E00487FFDA
:1056C00018C0EC2FE695E695E695F0E0E85FF74F19
:1056D0008281282F30E04C2F477081E090E002C09B
:1056E000880F991F4A95E2F782239323892B61F44F
:1056F00012C0EAE0F8E080E198E02191C21721F0C1
:105700008E179F07D1F707C06C2F88E098E00E94A2
:10571000CC1D0E94AB1E6C2F88E098E00E94F41D07
:1057200013C090E2980F983090F4877021E030E039
:10573000A90102C0440F551F8A95E2F7CA01909152
:105740009F08892B80939F08CF910C94AB1EEBE5AB
:10575000E80FE33040F4F0E0E355FB4F808190E048
:10576000CF910C948C10885A873158F4E82FF0E0D0
:10577000EE0FFF1FE055FB4F80819181CF910C947C
:105780007610CF9108951F93CF93DF93182F89330D
:1057900019F0C0E0D0E002C0C0E5D0E0812F0E9447
:1057A000502B209741F08FE99FE00197F1F700C05F
:1057B00000002197F6CF812FDF91CF911F910C949C
:1057C0001E2B1092B9008CE08093B8000895EF92E0
:1057D000FF920F931F93CF93DF93182FEB0110923B
:1057E000BC0084EA8093BC000E94971D7C018091DC
:1057F000BC0087FD0EC0CF3F8FEFD807C1F30E94DA
:10580000971D8E199F098C179D0788F38EEF9FEFC8
:105810002EC08091B900887F883041F08091B90016
:10582000887F803119F08FEF9FEF21C01093BB006C
:1058300084E88093BC000E94971D8C018091BC007D
:1058400087FD0CC0CF3F8FEFD807C1F30E94971D93
:10585000801B910B8C179D0788F3D8CF8091B900DE
:10586000887F883111F08034F1F680E090E0DF919C
:10587000CF911F910F91FF90EF9008950F931F9379
:10588000CF93DF93EB018093BB0084E88093BC004F
:105890000E94971D8C018091BC0087FD0EC0CF3FF8
:1058A0008FEFD807C1F30E94971D801B910B8C17B7
:1058B0009D0788F38EEF9FEF0CC02091B900287FE1
:1058C00081E090E0283211F480E090E0919581959C
:1058D0009109DF91CF911F910F910895CF92DF929F
:1058E000EF92FF920F931F93CF93DF936B018A0187
:1058F0007901B9010E94E72BE6010C0D1D1DC017AF
:10590000D10761F424E92093BC00DF91CF911F916E
:105910000F91FF90EF90DF90CF90089597FDF2CF19
:10592000B70189910E943E2CEACF8F929F92AF924D
:10593000BF92CF92DF92EF92FF92CF93DF93EC0171
:10594000688179818A819B81611571058105910545
:1059500021F464E279ED8BE597E02DE133EF41E04E
:1059600050E00E94432D49015A019B01AC01A7EA76
:10597000B1E40E94622D6B017C01ACEEB4EFA50195
:1059800094010E94702DDC01CB018C0D9D1DAE1D7C
:10599000BF1DB7FF03C00197A109B0488883998351
:1059A000AA83BB839F77DF91CF91FF90EF90DF9029
:1059B000CF90BF90AF909F908F9008950E94952CAC
:1059C000089580E091E00E94952C0895A0E0B0E059
:1059D0008093000190930101A0930201B093030111
:1059E0000895DC01CB01FC01F999FECF06C0F2BDA0
:1059F000E1BDF89A319600B40D9241505040B8F78D
:105A00000895F999FECF92BD81BDF89A992780B586
:105A10000895A8E1B0E042E050E00C94F32CDC01E2
:105A2000A40FB51F4150504048F0CB01840F951F83
:105A30002E910E94202D41505040D0F70895262FDE
:105A4000F999FECF92BD81BDF89A019700B4021674
:105A500039F01FBA20BD0FB6F894FA9AF99A0FBE22
:105A600008950396272F0E94202D0E941F2D252F79
:105A70000E94202D242F0C94202D0196272F0E9468
:105A8000202D0C941F2D052E97FB1EF400940E94D0
:105A90005A2D57FD07D00E94752D07FC03D04EF4F8
:105AA0000C945A2D50954095309521953F4F4F4F6E
:105AB0005F4F089590958095709561957F4F8F4FBA
:105AC0009F4F08950E94972DA59F900DB49F900D14
:105AD000A49F800D911D11240895B7FF0C94622D91
