:100000000C946F060C94B6060C94B6060C94B606C7
:100010000C94B6060C94B6060C94B6060C94B60670
:100020000C94B6060C94B6060C94A5270C94E12605
:100030000C94D01E0C94B6060C94B6060C94B6061E
:100040000C94B6060C94B6060C94B6060C94B60640
:100050000C94B6060C948F1E0C94B6060C94B6063F
:100060000C94B6060C94B6060C94B6060C94B60620
:100070000C94B6060C94B6060C94B6060C94B60610
:100080000C94B6060C94B6060C94B6060C94B60600
:100090000C94B6060C94B6060C94B6060C94B606F0
:1000A0000C94B6060C94B6060C94B606810C840C1F
:1000B000AA0CB70CBE0CDE0CE10C1E0D400DE10DC0
:1000C000E10D4B0D4D0D510D760D980D9B0D9E0DB7
:1000D000C10D0A130A13441344139D13B9134F158A
:1000E0004F15C413A214B314B314EF241625C3265A
:1000F0001625C32662258525C3267B268B26FF2D44
:10010000FF2D122E122E082E122E122E122EFF2D21
:10011000FF2D0D2E122E122E0D2E7267626C696746
:1001200068745F636F6E6669672E737065656420BF
:100130003D2025640A007267626C696768745F63BA
:100140006F6E6669672E76616C203D2025640A001B
:100150007267626C696768745F636F6E6669672E49
:10016000736174203D2025640A007267626C6967C0
:1001700068745F636F6E6669672E687565203D20E1
:1001800025640A007267686C696768745F636F6EE4
:100190006669672E6D6F6465203D2025640A0072D4
:1001A00067626C696768745F636F6E6669672E6506
:1001B0006E61626C65203D2025640A007267626C86
:1001C000696768745F636F6E666967204545505262
:1001D0004F4D3A0A007267626C696768745F696EB6
:1001E0006974207267626C696768745F636F6E66BA
:1001F00069672E6D6F6465203D20302E205772692F
:1002000074652064656661756C742076616C7565D3
:100210007320746F20454550524F4D2E0A0072676F
:10022000626C696768745F696E6974206565636F85
:100230006E666967206973206E6F7420656E6162F7
:100240006C65642E0A007267626C696768745F6926
:100250006E6974207374617274210A007267626C33
:10026000696768745F696E69742063616C6C65644A
:100270002E0A000A002530313662003A200025306F
:100280003258000A722F632030313233343536371A
:1002900038394142434445460A001E0F0500047F99
:1002A0003F1F643214643214783C1E1E140A050A7F
:1002B0000025303258006B6579626F6172645F733C
:1002C00065745F6C65643A20007267626C69676888
:1002D0007420736574207370656564205B4E4F45B0
:1002E0004550524F4D5D3A2025750A005B735D0005
:1002F0004B6579626F6172642073746172742E0A47
:1003000000000000000000000000000000000000ED
:1003100000000000000000000000000000000000DD
:1003200000000000007E0F00D4FFFFFFC7000000A8
:100330007800000000000000002A2B2800000000C8
:100340000000000000000000000000002900000084
:10035000002C1E3420212224342627252E362D372A
:1003600038271E1F202122232425263333362E37FB
:10037000381F0405060708090A0B0C0D0E0F101193
:1003800012131415161718191A1B1C1D2F313023A0
:100390002D350405060708090A0B0C0D0E0F101168
:1003A00012131415161718191A1B1C1D2F3130356E
:1003B0004C7267626C696768742064697361626C0F
:1003C00065205B454550524F4D5D3A207267626C27
:1003D000696768745F636F6E6669672E656E6162D8
:1003E0006C65203D2025750A007267626C6967683C
:1003F0007420656E61626C65205B454550524F4DBF
:100400005D3A207267626C696768745F636F6E66DD
:1004100069672E656E61626C65203D2025750A0056
:100420007267626C6967687420746F67676C6520B7
:100430005B454550524F4D5D3A207267626C69676B
:1004400068745F636F6E6669672E656E61626C6566
:10045000203D2025750A0044454255473A206469ED
:100460007361626C65642E0A0044454255473A2028
:10047000656E61626C65642E0A00290A00257500AC
:100480002F002575005D28002564002000256400EC
:10049000200025640020002564007C0025303258AF
:1004A000006D6F7573656B6579205B62746E7C7827
:1004B0002079207620685D287265702F61636C2931
:1004C0003A205B000001010101010101010102026A
:1004D00002020202020202030303030303030304F2
:1004E00004040404040405050505050606060606BD
:1004F000070707070708080808090909090A0A0A77
:100500000B0B0B0C0C0C0D0D0D0E0E0E0F0F0F1018
:1005100010111111121213131414151516161717A2
:10052000181819191A1A1B1B1C1D1D1E1E1F20200E
:10053000212222232424252626272829292A2B2C58
:100540002D2D2E2F30313232333435363738393A7B
:100550003B3C3D3E3F404142434445464748494A73
:100560004C4D4E4F50515354555658595A5B5D5E41
:100570005F616264656668696B6C6D6F70727375DC
:1005800077787A7B7D7E8082838587888A8C8E8F40
:1005900091939596989A9C9EA0A2A3A5A7A9ABAD6E
:1005A000AFB1B3B5B7BABCBEC0C2C4C6C9CBCDCF5C
:1005B000D1D4D6D8DBDDDFE2E4E7E9EBEEF0F3F50A
:1005C000F8FAFDFF7267626C69676874206D6F648A
:1005D00065205B4E4F454550524F4D5D3A20257585
:1005E0000A007267626C69676874206D6F646520C9
:1005F0005B454550524F4D5D3A2025750A007267A4
:10060000626C6967687420656E61626C65205B4E20
:100610004F454550524F4D5D3A207267626C696795
:1006200068745F636F6E6669672E656E61626C6584
:10063000203D2025750A007267626C696768742026
:1006400064697361626C65205B4E4F454550524F43
:100650004D5D3A207267626C696768745F636F6EA4
:100660006669672E656E61626C65203D2025750A9E
:10067000007267626C6967687420736574206873C0
:1006800076205B4E4F454550524F4D5D3A202575C3
:100690002C25752C25750A007267626C6967687471
:1006A0002073657420687376205B454550524F4D2A
:1006B0005D3A2025752C25752C25750A0072676218
:1006C0006C69676874207261696E626F7720736508
:1006D00074206873763A2025642C25642C25642CBC
:1006E00025750A00FFAA7F55404F6E6573686F74C9
:1006F0003A206163746976653A2025640A000A002D
:100700002530325820006B6579626F6172645F72C8
:1007100065706F72743A20006164645F6B65795F25
:100720006269743A2063616E2774206164643A20C0
:10073000253032580A0064656C5F6B65795F6269C9
:10074000743A2063616E27742064656C3A2025300A
:1007500032580A000631FF0974A1010975150026F7
:10076000FF009520750881020976150026FF009587
:100770002075089102C005010902A1018502090145
:10078000A100050919012908150025019508750121
:1007900081020501093009311581257F950275080F
:1007A000810609381581257F950175088106050C9C
:1007B0000A38021581257F950175088106C0C0059C
:1007C000010980A101850319012AB700150126B787
:1007D00000950175108100C0050C0901A101850477
:1007E00019012AA002150126A002950175108100A9
:1007F000C005010906A1018505050719E029E715CE
:100800000025019508750181020507190029EF15DA
:1008100000250195F075018102050819012905954A
:100820000575019102950175039101C00660FF09EC
:1008300061A1010962150026FF009520750881025B
:100840000963150026FF00952075089102C0050177
:100850000906A101050719E029E7150025019508FA
:10086000750181029501750881010507190029FFAD
:10087000150026FF00950675088100050819012955
:1008800005950575019102950175039101C05B43C2
:100890005D005B445D005B535D005B575D005B5238
:1008A0005D0009027B00040100A0FA0904000001B8
:1008B0000301010009211101000122400007058107
:1008C0000308000A090401000203000000092111C5
:1008D0000100012222000705820320000107050311
:1008E0000320000109040200010300000009211196
:1008F00001000122B6000705840320000A09040351
:10090000000203000000092111010001222200075A
:1009100005850320000107050503200001120110D1
:100920000100000008424B03010100010200010C1C
:10093000034C004200420036003500000010034B1B
:100940000042004400460061006E00730000000495
:100950000309047267626C696768742074696D6565
:100960007220656E61626C65642E0A007267626C4B
:10097000696768742074696D657220646973616267
:100980006C652E0A002223252628292A2C2D2F309B
:1009900032333536383A3B3D3E4042434547494A7B
:1009A0004C4E5051535557595A5C5E6062646668AC
:1009B000696B6D6F71737577797B7D7F81838587B7
:1009C000898A8C8E90929496989A9C9E9FA1A3A5BA
:1009D000A7A8AAACAEAFB1B3B4B6B8B9BBBCBEBFE2
:1009E000C1C2C3C5C6C7C9CACBCCCDCED0D1D2D265
:1009F000D3D4D5D6D7D7D8D9D9DADADBDBDBDCDC70
:100A0000DCDCDCDDDDDDDDDCDCDCDCDCDBDBDBDA27
:100A1000DAD9D9D8D7D7D6D5D4D3D2D2D1D0CECD92
:100A2000CCCBCAC9C7C6C5C3C2C1BFBEBCBBB9B89F
:100A3000B6B4B3B1AFAEACAAA8A7A5A3A19F9E9C24
:100A40009A98969492908E8C8A89878583817F7DEF
:100A50007B79777573716F6D6B6968666462605ED0
:100A60005C5A5957555351504E4C4A494745434299
:100A7000403E3D3B3A3836353332302F2D2C2A2933
:100A8000282625232229001E001F002000210022E5
:100A900000230024002500260027002D002E002A18
:100AA000004A002B0014001A000800150017001C53
:100AB0000018000C00120013002F00300031004B12
:100AC00000390004001600070009000A000B000DA1
:100AD000000E000F00330034004C0028004E00E1EF
:100AE0000064001D001B0006001900050011001025
:100AF00000360037003800E50052004D00E00000ED
:100B000000E2000000000000002C000000000000D7
:100B1000000000E600500051004F0035003A003B55
:100B2000003C003D003E003F0040004100420043C9
:100B300000440045004C0049000100010052000142
:100B4000000100010001000100460047004800527A
:100B5000000100010001000100500051004F0001A0
:100B6000000100010001004A004B0050004F00A8A6
:100B7000000100010001000100010001000100016D
:100B8000000100010001004D004E00510001004B2A
:100B90000001000100000001000000000000000151
:100BA00000000000000000000001004A004E004D5F
:100BB0000035003A003B003C003D003E003F004055
:100BC00000410042004300440045004C0049000140
:100BD0000001005200010001000100010001004677
:100BE00000470048005200010001000100010050D0
:100BF0000051004F0001000100010001004A004BBC
:100C00000050004F00A80001000100010001000198
:100C1000000100010001000100010001004D004E33
:100C200000510001004B0001000100000001000024
:100C300000000000000100000000000000000001B2
:100C4000004A004E004D0035003A003B003C003D9C
:100C5000003E003F00400041004200430044004588
:100C6000004C004900010001005200010001000198
:100C70000001000100460047004800520001000149
:100C80000001000100500051004F0001000100016F
:100C90000001004A004B0050004F00A80001000175
:100CA000000100010001000100010001000100013C
:100CB0000001004D004E00510001004B00010001F9
:100CC0000000000100000000000000010000000022
:100CD000000000000001004A004E004D00001124F9
:100CE0001FBECFEFDAE0DEBFCDBF04B603FE27C0E4
:100CF0008091D9029091DA02A091DB02B091DC02DE
:100D00008730904BA740B04BD1F41092D90210928B
:100D1000DA021092DB021092DC0214BE84B7877FE5
:100D200084BF0FB6F894A895809160008861809385
:100D30006000109260000FBEE0E0F8E3099511E05A
:100D4000A0E0B1E0E8E9F3E602C005900D92A23A16
:100D5000B107D9F722E0A2EAB1E001C01D92A93D96
:100D6000B207E1F70E9466070C94CA310C940000A8
:100D7000FF93EF93E091A201F091A301309709F066
:100D80000995EF91FF910895FC018591803011F054
:100D9000EFDFFBCF0895FF27E0E230E247FF0CC012
:100DA000419597FF09C0EDE260957095809590950B
:100DB000611D711D811D911D27FF02C0219530E32A
:100DC00050E2AA27660F771F881F991FAA1FA41732
:100DD00010F0A41B63955A95A9F7AA3008F0A95FF3
:100DE000A05DAF93F395611571058105910541F7FC
:100DF000ED3211F4EF93F395F21718F43F93F39556
:100E0000FBCF8F91B5DFFA95E1F70895E991F9915C
:100E10008591803021F0853219F0AADFF9CF08954D
:100E200020E0E89455915532C1F3503311F46894A1
:100E300055915A3348F4505390F3220F022E220F4B
:100E4000220F200D250FF4CF0EF421958991999151
:100E5000533619F3533729F1533559F1BC0188271B
:100E60009927E8945C3621F4899199916894559179
:100E7000543639F446EF7EF077FF0DC08FEF9FEFC9
:100E80000AC055374AE039F0583540E121F0523672
:100E900042E009F00895FF93EF937DDFEF91FF911A
:100EA000B7CFFF93EF93FC0181918030B9F360DFFE
:100EB000FBCFFF93EF9368DFF1CFDF93CF93CDB7F5
:100EC000DEB72596A3DFCF91DF910895CF93DF930F
:100ED000CDB7DEB7AF970FB6F894DEBF0FBECDBF6C
:100EE00084B7877F84BF0FB6F894A895809160007F
:100EF000886180936000109260000FBE90E080E8EF
:100F00000FB6F89480936100909361000FBE85B78F
:100F1000806885BF85B7806885BF8EE69DE1909328
:100F2000A3018093A201549A0E9425270E9444277E
:100F30008091E20084608093E20078948091A9021D
:100F40008823A1F01091E9001F709091EC00892F87
:100F5000817090FD80E8182B1092E9008091E800E4
:100F600083FD0E9408241F701093E90082E084BD75
:100F700093E095BD9AEF97BD80936E0080E30E9449
:100F8000E71A81E30E94E71A82E30E94E71A83E3EB
:100F90000E94E71A84E30E94E71A02E211E071E37B
:100FA000E72E71E0F72EF80181918F010E94E71A78
:100FB000E016F106C1F7E6EAF1E080EB91E0ABED77
:100FC000B1E0119211921D921D928E179F07C9F7E1
:100FD00080E090E00E94C2308A3E9E4F11F00E9455
:100FE000891F82E090E00E94B4308093D5010E9476
:100FF000781F9093A5018093A4010E94FE1A8FE3AD
:101000009CE90197F1F700C000000E94FE1A809150
:10101000DB0180FF17C06FEF83E290E00E94C830D1
:101020006FEF84E290E00E94C8306FEF85E290E0BD
:101030000E94C8306FEF7FEF80E090E00E94E630C2
:101040000E946B1E83E090E00E94B430682F70E035
:1010500080E090E00E94BB21579A5F9A569A5E9A70
:1010600083E290E00E94B430813281F484E290E027
:101070000E94B430883051F485E290E00E94B43090
:1010800091E0883009F090E0892F01C080E080FF76
:10109000CBC58091B0018111E0C08091D50180FF66
:1010A00008C08CE592E09F938F930E945D070F909C
:1010B0000F908091D50180FF08C086E492E09F9355
:1010C0008F930E945D070F900F9080E090E00E9448
:1010D000C2308A3E9E4F81F08091D50180FF08C0CA
:1010E0008EE192E09F938F930E945D070F900F9087
:1010F0000E94891F0E94B01688E090E00E94BC30D8
:101100006093D6017093D7018093D8019093D90151
:101110006E7FD1F48091D50180FF08C085ED91E00C
:101120009F938F930E945D070F900F900E94B016BF
:1011300088E090E00E94BC306093D6017093D701A4
:101140008093D8019093D9010E9462168091D501B5
:1011500080FF08C08CEB91E09F938F930E945D0706
:101160000F900F908091D50180FF0FC08091D60124
:1011700081701F928F938FE991E09F938F930E94CC
:101180005D070F900F900F900F908091D50180FF19
:101190000FC08091D60186951F928F9384E891E0CD
:1011A0009F938F930E945D070F900F900F900F9069
:1011B0008091D50180FF0EC08091D7011F928F933F
:1011C0008AE691E09F938F930E945D070F900F90A6
:1011D0000F900F908091D50180FF0EC08091D801B3
:1011E0001F928F9380E591E09F938F930E945D07FC
:1011F0000F900F900F900F908091D50180FF0EC03F
:101200008091D9011F928F9386E391E09F938F93F2
:101210000E945D070F900F900F900F908091D50165
:1012200080FF0EC08091DA011F928F938AE191E0D6
:101230009F938F930E945D070F900F900F900F90D8
:101240001092BD018091D60180FF04C060E08695B8
:101250000E94841881E08093B00184E091E0909333
:10126000B2018093B10180EF92E00E94C4068E012A
:101270000F5F1F4F2E01FBE04F0E511C8091A90202
:10128000853009F07DC08CEE92E00E94C40680910A
:10129000A902853009F065C08091A902843009F463
:1012A00037C080E00E944D1D0E94BC2D8091B50189
:1012B00081110AC081E08093B5018091D6018170CF
:1012C0008093B4010E9440161092B30180E428E19B
:1012D00030E00FB6F894A895209360000FBE80937D
:1012E000600083B7817F846083BF83B7816083BFE1
:1012F0007894889583B78E7F83BF0FB6F894A895AE
:1013000080916000886180936000109260000FBE41
:101310008091A802882329F10E94FE1AEBEDF1E0EA
:1013200081919191892B31F445EE51E04E175F0781
:10133000B9F717C080E189BD82E189BD09B400FE1B
:10134000FDCF8091D8008F7D8093D8008091E00000
:1013500082608093E0008091E00081FDFCCF0E94DC
:10136000332E0E94332E0E94AE2C0E944D1D1092EF
:10137000B5018091B40181110E94DE180E94CB2D2D
:101380000E94FE1A882359F08FB7F8944091E50126
:101390005091E6016091E7017091E8018FBF8BECFD
:1013A00091E09EA78DA7EBEDF1E0FCA7EBA7E12C68
:1013B000F12CEFA6EBA5FCA5A190B190FCA7EBA7A3
:1013C000EDA5FEA561907190FEA7EDA76A247B2490
:1013D00061147104C1F4FFEFEF1AFF0A25E0E21671
:1013E000F10439F78FEF8EA38FA318A60E94C41EB5
:1013F0008160782F9AA789A74EA15FA168A58AA5C9
:101400000E94E42B77C08091D50181FD05C080E06A
:10141000CC24C394D12C48C083E892E00E94C40637
:101420005BED852E51E0952EC12CD12CDF92CF9211
:101430004EE752E05F934F930E945D078BE792E087
:101440000E94C406F40180812180F2E08F0E911C7D
:101450000E94591D382E822D0E94591D232D30E0E7
:10146000322F2227A901482BCA019F938F9385E72A
:1014700092E09F938F930E945D0783E792E00E9422
:10148000C406FFEFCF1ADF0A0FB6F894DEBF0FBE17
:10149000CDBF35E0C316D10449F6B9CF8F5FCC0C70
:1014A000DD1C8F3009F497CF960126213721232B9D
:1014B000A9F389A34FA54AA3AC20BD2081E0AB28A6
:1014C00009F480E08BA30E94C41E8160782F9DA345
:1014D0008CA349A15AA16BA18DA10E94E42BF70115
:1014E000EE0FFF1FE553FE4F80819181C826D9265C
:1014F000D182C0828091BD01882309F4AAC0809165
:10150000BC01E091D601E695E81BE093B80182307A
:1015100059F4F0E0E555FD4FE491EE2EF12C90EDFD
:10152000C92E9BE2D92E70C0863059F4F0E0E85500
:10153000FD4FE491EE2EF12C80ECC82E8BE2D82EDC
:1015400063C0893061F4E695F0E0EB55FD4FE4911E
:10155000EE2EF12CB5EBCB2EBAE2DB2E55C08F3040
:1015600061F4E695F0E0EE55FD4FE491EE2EF12C9E
:10157000A8E4CA2EAAE2DA2E47C0853159F4F0E079
:10158000E156FD4FE491EE2EF12CF1EFCF2EF9E272
:10159000DF2E3AC08831F9F0833249F4EDE9F2E008
:1015A000E590F490E0E8CE2EEBE2DE2E2DC0843202
:1015B000D1F0853209F58E2F63E00E945F31E92F6B
:1015C000F0E0E656FD4FE491EE2EF12C7FEDC72EB4
:1015D0007AE2D72E19C058E2E52EF12C67E6C62E26
:1015E00069E2D62E11C034EFE32EFF24F3944EE2CD
:1015F000C42E49E2D42E08C090EDE92E97E0F92ED2
:101600002DE2C22E29E2D22E8091B901882361F009
:101610001092B9010E94C41E9093B7018093B60145
:101620001092BB011092BA010E94C41EE091B60153
:10163000F091B7018E1B9F0B8F3F9F4750F4EE0E2A
:10164000FF1EF092B701E092B60186EB91E0F60141
:10165000099586E0E4ECF1E0D80101900D928A95BD
:10166000E1F7C090C601D090C701E090C801F090AA
:10167000C9011092C6011092C7011092C8011092C0
:10168000C901C11003C0DD2009F451C08091C2011D
:101690009091C3010E94B51E9C019091C1019923B4
:1016A00009F4DBC22333310508F441C09F3F19F030
:1016B0009F5F9093C101CC2061F00E946C1A1C14B2
:1016C00014F491E001C09FEF899F802D1124809335
:1016D000C601DD2061F00E946C1A1D1414F491E023
:1016E00001C09FEF899F802D11248093C701309105
:1016F000C6013323E1F02091C7012223C1F045EB5D
:101700003403C0011124992319F09093C60103C03A
:1017100081E08093C60155EB2503C0011124992374
:1017200019F09093C70103C081E08093C701E110D5
:1017300003C0FF2009F451C08091BF019091C00106
:101740000E94B51E9C019091BE01992309F48AC2A2
:101750002536310508F441C09F3F19F09F5F9093F3
:10176000BE01EE2061F00E944A1A1E1414F491E0AA
:1017700001C09FEF899F802D11248093C801FF2015
:1017800061F00E944A1A1F1414F491E001C09FEF07
:10179000899F802D11248093C9013091C801332382
:1017A000E1F02091C9012223C1F045EB3403C001CF
:1017B0001124992319F09093C80103C081E080930C
:1017C000C80155EB2503C0011124992319F090930A
:1017D000C90103C081E08093C9018091C6018111D4
:1017E0000BC08091C701811107C08091C801811190
:1017F00003C08091C90181110E942719CB82DC822C
:10180000ED82FE8286E0F801A4ECB1E001900D9239
:101810008A95E1F70E94AE2C9091CA01891751F187
:101820000E94AE2CF82E8093CA018091D50182FFD0
:101830001EC080FF04C086EB92E00E94C406809127
:10184000D50180FF0CC01F92FF9281EB92E09F9325
:101850008F930E945D070F900F900F900F908091D3
:10186000D50180FF04C08FEA92E00E94C4068F2D4C
:101870000E944D1D8091A902843009F0FFCC83E0C5
:101880008093E9008091E80082FFF8CC8091E80025
:1018900085FF21C00E94CE2881111BC080E2E82E66
:1018A000F12C680109C08091F100F60181936F016C
:1018B000F1E0EF1AF10869F08091E80085FDF3CFBF
:1018C0008091E8008B778093E8000E94CE288823DF
:1018D00099F391E001C090E08091E8008B778093CC
:1018E000E800992309F4CACCE9818E2F90E0FC012D
:1018F0003197E331F10508F064C1EA5AFF4F0C94C7
:10190000A1311A8289E0B5C08A81823009F483C18D
:10191000833089F0813009F054C12FB7F894809159
:10192000E5019091E601A091E701B091E8012FBF98
:10193000BB83AC8321C0F801ABEDB1E08C91119673
:101940009C91119712969283838332964E165F066E
:10195000A9F739C18A81823009F033C16B817C815A
:101960008D819E810E94A73186E290E024C04C8147
:101970006B818A810E94712D9D8354C1CD80DE8050
:10198000DC24CD24DC248C81EB809A812EE1E29E44
:101990007001112436E9939FE00CF11C1124E80E2C
:1019A000F11CE80EF11C6D2DC70187960E94C8300E
:1019B0006C2DC70188960E94C83005C10E943D2D3C
:1019C00002C18A818138B1F050F4803809F0FBC03F
:1019D00020E04B816091D8018091D7012CC08238E2
:1019E000B1F0833809F0EFC020E04091D9016C815B
:1019F0008B8121C060E08B810E9484188B818111D2
:101A000003C00E944016DFC00E94DE18DCC08B813C
:101A10008093DA019091D50190FFD5C01F928F93EA
:101A200089EC92E09F938F930E945D070F900F9037
:101A30000F900F90C8C00E945917C5C08A81813885
:101A400099F030F4803809F0BEC08091D90111C0FE
:101A5000823899F0833809F0B6C08091D7018B8322
:101A60008091D8018C83AFC08091D60180FF03C0E4
:101A700086958B83A8C080E0FCCF8091DA01F9CFF6
:101A80006091D6017091D7018091D8019091D901D0
:101A90000E947C1698C080E14FC081E08A8381E873
:101AA000E8CFEA80FB80FE24EF24FE24AC80B12C3A
:101AB0006801C70181589D4F9601201B310B2A15E3
:101AC0003B0508F080C041E8E41641E0F40628F444
:101AD0000E94B430F601848302C0F6011482FFEF45
:101AE000EF1AFF0A2FEFC21AD20AE3CFEA80FB8077
:101AF000FE24EF24FE24AC80B12C6801C70181587C
:101B00009D4F9601201B310B2A153B0508F05BC049
:101B100031E8E31631E0F30620F4F60164810E9417
:101B2000C830FFEFEF1AFF0A2FEFC21AD20AE6CF32
:101B30000E942D2D48C084E08A8345C0EA80FB8046
:101B4000FE24EF24FE24AC80B12C6801C7018796E7
:101B50009601201B310B2A153B05A8F538E5E31645
:101B600032E0F30628F40E94B430F601848302C008
:101B7000F6011482FFEFEF1AFF0A2FEFC21AD20A02
:101B8000E5CFEA80FB80FE24EF24FE24AC80B12C5C
:101B90006801C70187969601201B310B2A153B056A
:101BA00090F438E5E31632E0F30620F4F6016481A0
:101BB0000E94C830FFEFEF1AFF0A2FEFC21AD20AB5
:101BC000E8CF8FEF89838091A902843009F056CB4A
:101BD0008091E9008F702091EC00922F917020FD90
:101BE00090E8F92EF82A82E08093E9008091E800DD
:101BF00080FF0CC040E050E060E270E0C8010E944D
:101C000001298091E8008E778093E8008F2D8F70F6
:101C10008093E90033CB86E290E00E94B4301B82CF
:101C20001C821D828E83CFCF60E086E290E00E940E
:101C3000C8300E943D2D0E942D2D61E283E290E08C
:101C40000E94C83068E084E290E00E94C83068E0FA
:101C500085E290E00E94C8301CCA2D32314008F065
:101C600027CD65CD2D32314008F078CDB6CD3F92ED
:101C70004F925F926F927F928F929F92AF92BF929C
:101C8000CF92DF92EF92FF920F931F93CF93DF9348
:101C9000CDB7DEB729970FB6F894DEBF0FBECDBF24
:101CA000FC018081918123813481232B31F09F3F7E
:101CB00031F491E08F3F19F403C091E001C090E04E
:101CC00090FD2CC77F0185E0DE01119601900D92F9
:101CD0008A95E1F7F701228189819A81222349F0CF
:101CE0000E94AA20182F682F89819A810E9423219F
:101CF00003C00E94F720182F69817A81812F0E94EA
:101D0000972D8C01F7018281882309F4F2C0980194
:101D100022513F452031310508F019C18FEF93E082
:101D20000E94B4308111EFC002513FE7832E32E0B0
:101D3000932E002379F08114F4E09F0609F4E3C0A8
:101D4000C4010E94B430811101C001501FEF811AFB
:101D5000910AEFCF1E821F8218861986442443946D
:101D60002AE0322E84010F5F1F4FC4010E94B4305D
:101D70008E831F82882309F4C6C09FEF980F93308B
:101D800060F48F834E8222E0820E911CC8010E9473
:101D9000B4308887811102C0B6C048018E010A5F45
:101DA0001F4FF80120812223E9F2213009F04CC0B5
:101DB0008181813049F46801F2E0CF0ED11CF80135
:101DC00082810E94882F0AC0823051F46801F2E0BB
:101DD000CF0ED11CF80182810E94C42E860186C0DC
:101DE000833049F46801F2E0CF0ED11CF801828102
:101DF0000E945D2EF3CF843019F00F5F1F4F76C025
:101E0000F80122810E5F1F4F80E090E030E0205308
:101E100031092A30310568F4389EA001399E500DF1
:101E20001124C901840F951F0F5F1F4FF8012081F6
:101E3000EDCF009709F45AC0EFE9FFE03197F1F7D1
:101E400000C000000197F5CFE22FF0E0EF5CFC4FFF
:101E50005490822F86958695869590E0FC01EF5DE3
:101E6000FC4F64902770712C022E02C07594679409
:101E70000A94E2F7F1E06F227724FC01EF5EFC4F59
:101E8000A490B12C022E02C0B594A7940A94E2F754
:101E900031E0A322BB24FC01EF5FFC4FC490D12CA6
:101EA00002C0D594C7942A95E2F781E0C822DD24C8
:101EB0006114710419F081EE0E94C42EA114B104C2
:101EC00019F086EE0E94C42E852D0E94882FAB2823
:101ED00019F086EE0E945D2E672819F081EE0E94AF
:101EE0005D2ECD2819F08CE20E94882F0F5F1F4FC6
:101EF00058CF00313FE5130709F007C681E00E9483
:101F000058210E94EA2380917802877009F406C65E
:101F1000F7018281882309F401C682E029960FB671
:101F2000F894DEBF0FBECDBFDF91CF911F910F910F
:101F3000FF90EF90DF90CF90BF90AF909F908F90E9
:101F40007F906F905F904F903F900C947D21003177
:101F5000FFE51F0711F481E005C001312FE51207ED
:101F600021F482E00E949A21CCCF033FFCE51F07B9
:101F700049F406E221EE40EE63EF7CE5C7010E94E2
:101F8000BA2CC1CF043F2CE5120708F049C1083D27
:101F90003CE5130731F407E225EE45EE68ED7CE5FC
:101FA000EDCF093D9CE5190731F408E221E045EE4B
:101FB00069ED7CE5E3CF073DECE51E0731F406E271
:101FC00021EE41EE67ED7CE5D9CF882309F45DC1B0
:101FD0001092E90102309CE5190708F440C106316E
:101FE000ECE51E0730F0C8018A5F9C45099708F0B0
:101FF00036C10E94781F9093A5018093A4010031FF
:10200000FCE51F0709F4C3C008F041C008303CE5F7
:10201000130709F49AC0F0F404309CE5190709F499
:1020200087C068F40230FCE51F0709F477C003306D
:102030001C4509F0E5C08091A401826076C006309D
:102040003CE5130709F46EC008F07BC08091A40141
:1020500088606BC00C309CE5190709F485C068F4F2
:102060000A30FCE51F0709F474C008F079C00E942B
:10207000332E8091A401806858C00E303CE51307D0
:1020800009F476C008F07FC08091A4018BC00B3F9B
:102090009CE5190709F44FC018F50331FCE51F074B
:1020A00009F47DC078F401313CE5130709F473C0ED
:1020B00002311C4509F0A4C00E94332E8091A40176
:1020C0008F7733C005319CE5190709F472C008F415
:1020D00086C00A3F1C4509F093C08091A5013EC00F
:1020E0000F3F2CE5120709F45FC058F40D3F8CE553
:1020F000180709F444C008F43FC08091A50182602C
:102100002DC00130EDE51E0709F475C008F45DC06F
:1021100002301D4509F074C060E06EC08091A401DA
:10212000816003C08091A40180618093A40168C094
:102130008091A40111C08091A50182608093A501C6
:102140005FC08091A4018062F0CF8091A40180647F
:10215000ECCF8091A40188608460E7CF8160EECFEE
:102160008091A4018E7FE1CF8091A4018D7FDDCF8E
:102170008091A401877FD9CF8091A50118C080915B
:10218000A5018D7FDBCF8091A4018F7ECECF809182
:10219000A4018F7DCACF8091A4018F7BC6CF80918F
:1021A000A401877F8B7FC1CF8091A5018D7F8E7F1A
:1021B000C5CF8091A40182FB222720F991E09227CC
:1021C00090FB82F990FB83F9B0CF8091A501982F05
:1021D000909591708E7F892B90FB81F9AFCF0E94F3
:1021E000332E8091A40187FB222720F991E09227CA
:1021F00090FB87F99ACF61E08EE090E00E94C830B2
:102200006091A4011091A50184E090E00E94C83083
:10221000612F82E290E00E94C8300E94332E73CE7C
:10222000053FFCE51F0731F406E221EE42EE65EFC3
:102230007CE5A4CE053F2CE5120730F407E225EE3D
:1022400044EE64EF7CE59ACE063F3CE5130709F0C7
:10225000BCCE07E225EE46EE66EF7CE58FCE8091A0
:102260007B0206319CE5190709F58A7A91E009F4A9
:1022700090E09093EA01882311F065E301C069E2E0
:102280008EEE91E00E94321F0EC006311C4509F00F
:102290007BC18091EA01882309F43EC465E38EEE98
:1022A00091E00E94F91E0E94FA1F2DCE82720C3C12
:1022B0003CE5130709F4FEC008F045C0063CECE518
:1022C0001E0709F4E3C0D8F4033C2CE5120709F417
:1022D000D3C030F4023C8CE5180709F46EC00BC182
:1022E000043C9CE5190709F4CCC0053CECE51E074D
:1022F00009F001C142E758E16BE778E1DFC0093C32
:10230000FCE51F0709F4CCC078F4073C3CE5130753
:1023100009F4C1C0083C9CE5190709F0ECC046E689
:1023200058E16AE578E1CAC00A3CECE51E0709F409
:10233000BCC00B3CFCE51F0709F0DDC04EE856E1D0
:102340006FE976E1BBC0013D2CE5120709F4C2C07C
:10235000A0F40E3C8CE5180709F4B6C008F4B1C02F
:102360000F3CECE51E0709F4B2C0003DFCE51F0779
:1023700009F0C1C06EE089E0BBC0043D2CE5120746
:1023800009F4AEC068F4023D8CE5180709F4A5C055
:10239000033D9CE5190709F0AEC061E088E1A5C0E6
:1023A000053DECE51E0709F49EC00D35FDE51F0750
:1023B00009F0A1C06AE285E29BC08091D50180FF4F
:1023C00010C08091D601809581701F928F9380E21A
:1023D00094E09F938F930E945D070F900F900F9052
:1023E0000F908091D60180FF2EC08E7F8093D60102
:1023F0006091D6017091D7018091D8019091D90157
:102400000E947C168091D50180FF0FC08091D6017B
:1024100081701F928F9381EB93E09F938F930E9423
:102420005D070F900F900F900F900E94BC2D0FEF43
:1024300010E722E0015010402040E1F700C000000A
:102440000E94E91560CD81608093D6018091D5010D
:1024500080FF0DC01F9281E08F9389EE93E09F93E0
:102460008F930E945D070F900F900F900F908091B7
:10247000D60161E0869539C04AEF58E163E079E121
:102480001DC043E059E16AEF78E118C04BE758E11D
:1024900062E778E113C04AE558E166E678E10EC0EC
:1024A00042E458E16EE478E109C04EE458E162E4A8
:1024B00078E104C04FE956E16EE876E10E94B62D5E
:1024C00022CD61E081E011C065E082E011C068E0EA
:1024D00086E00EC064E18FE00BC067E185E108C0D3
:1024E00062E289E105C061E083E20E9484180BCDBD
:1024F0000E94A42D08CD0E3D3CE51307B9F140F430
:1025000001159CE5190789F001301C45E1F03CC03C
:102510000B35FDE51F07A9F10C352DE5120749F133
:102520000A351D4589F581E02DC00E94332E8FEFBD
:1025300094E3ECE081509040E040E1F700C00000FF
:102540000E946B1EE0CC8091D501982F90959170E0
:1025500090FB80F98093D501992319F089E694E0E6
:1025600002C087E594E00E94C406CDCC0E94891F7A
:10257000CACC8091A50182FB882780F991E0892748
:1025800001C080E00E947E20F701828100811181DC
:10259000882349F0C8010E94AA20D82E682FC801BC
:1025A0000E94232104C0C8010E94F720D82EB80140
:1025B0008D2D0E94BE1B8C01982EF701D280A58024
:1025C000A2949FE0A92280917802877099F0DD2083
:1025D00089F0812F807F803421F080E2800F883065
:1025E00048F082E00E947D21809178028770CC249F
:1025F000C3948111C12CB12EB2948FE0B8228B2DDF
:1026000090E08C30910508F04AC2FC01E759FF4F79
:102610000C94A131812F807F1F70882311F01295B7
:10262000107FDD20B9F0112309F424C280E2800F6D
:10263000883010F0911006C080917B02182B109307
:102640007B0205C080917A02182B10937A020E94B7
:10265000FA1F10C2802F0E945D2E112309F41FC2A1
:10266000005E1095083010F0911006C080917B023A
:10267000182310937B0205C080917A0218231093CF
:102680007A020E94FA1F0BC2812F807F1F70803256
:1026900011F01295107F992021F0F1E09F1611F1B1
:1026A00030C0DD20B1F0AA2081F001E0A0120DC001
:1026B0008091A50182FDF3C180917C02182B18172F
:1026C00009F4EDC110937C02EAC180917C02812B58
:1026D00010C0AA2021F021E0A21609F4E0C10E9456
:1026E000F41F27C0DD2041F035E03A1508F4D7C1CA
:1026F000812F0E94532ED3C184E08A1508F4CFC1E4
:1027000018C0DD2049F0AA2099F3F701858180FFE8
:10271000B1C18F708583ECCFAA2059F0093309F03D
:10272000BBC1FFEF17EE23E0F15010402040E1F76E
:10273000B1C1812F0E94482EB2C1812F8695869506
:10274000837019F0813059F0AAC1DD2019F0C80159
:10275000937002C080E090E00E94982CA8C1DD2018
:1027600019F0C801937002C080E090E00E94822CB2
:102770009EC1802FDD2019F00E948C1A02C00E9499
:10278000D3190E94271993C1812F837009F069C062
:10279000D11089C1902F929596959770990F990FA6
:1027A000802F8F70882E912CA12CB12C092E04C063
:1027B000880C991CAA1CBB1C0A94D2F704FF12C0F7
:1027C0004FE050E060E070E004C0440F551F661F0A
:1027D000771F9A95D2F7DB01CA0180959095A09555
:1027E000B09503C080E090E0DC0116951695412F6E
:1027F0004370423019F1C8F400917D0210917E02BD
:1028000020917F0230918002413059F08829992926
:10281000AA29BB29BC01CD01602371238223932304
:102820000AC0802A912AA22AB32ABC01CD016829B4
:1028300079298A299B290E94BB2135C18829992998
:10284000AA29BB2900917D0210917E0220917F026E
:1028500030918002BC01CD01602771278227932728
:10286000EACFDD2019F0812F817001C08695882381
:1028700009F419C1902F929596959770990F990F19
:10288000802F8F70882E912CA12CB12C092E04C082
:10289000880C991CAA1CBB1C0A94D2F704FF12C016
:1028A0004FE050E060E070E004C0440F551F661F29
:1028B000771F9A95D2F7DB01CA0180959095A09574
:1028C000B09503C080E090E0DC0116951695412F8D
:1028D00043704230D9F068F50091B3021091B40210
:1028E0002091B5023091B602413059F088299929DA
:1028F000AA29BB29BC01CD01602371238223932324
:102900001EC0802A912AA22AB32A13C08829992995
:10291000AA29BB290091B3021091B4022091B502FB
:102920003091B602BC01CD01602771278227932721
:1029300006C0BC01CD01682979298A299B290E94FA
:102940004E21B1C01F70DD2039F0812F0E949A21E5
:10295000802F0E94532EA7C0802F0E94482E812FC7
:102960000E945821A0C0802F32EF931609F440C076
:10297000391538F090EF991661F0E1EF9E1699F154
:1029800074C0F3EF9F16D9F124EF921609F44EC0EC
:102990006CC0DD2019F134E03A1508F480C01F71D5
:1029A00081E090E0A0E0B0E0AC01BD0104C0440FC4
:1029B000551F661F771F1A95D2F78091B302909129
:1029C000B402A091B502B091B6028A019B0108271A
:1029D00019272A273B27C901B80125C025E02A1558
:1029E00008F45DC0DCCFDD2029F0812F8F7130C06D
:1029F000DD20D9F3812F8F710E94582150C0DD2036
:102A000079F01F7181E090E0A0E0B0E0BC01CD0161
:102A100004C0660F771F881F991F1A95D2F703C04D
:102A200060E070E0CB010E944E2139C0DD2099F0BA
:102A30001F71812F0E949A218091A50182FD07C0FC
:102A400038E0139FC0011124836080937802812FA6
:102A50000E949A2124C081E00E947D2181E08A1594
:102A6000F0F482E00E947D211AC0DD2039F0AA2016
:102A700009F4BBCF802F0E94C42E11C0AA2009F4F4
:102A8000B9CF893349F49FEFE7EEF3E09150E0408E
:102A9000F040E1F700C00000802F0E945D2E88EF1B
:102AA0008B0D843020F40E94AE2C0E944D1DCC2052
:102AB000A9F18091780280FD31C0F70112828595DD
:102AC000859585950E949A21C7010E94370E8091B5
:102AD000780285958595859529960FB6F894DEBF81
:102AE0000FBECDBFDF91CF911F910F91FF90EF905F
:102AF000DF90CF90BF90AF909F908F907F906F901E
:102B00005F904F903F900C94582101319FE5190739
:102B100009F02BCA82E0F3C969E2C1CB29960FB64E
:102B2000F894DEBF0FBECDBFDF91CF911F910F9103
:102B3000FF90EF90DF90CF90BF90AF909F908F90DD
:102B40007F906F905F904F903F9008959091A40177
:102B500092FF0DC0282F2871283019F4877F8460D8
:102B600006C0282F2471243011F48B7F886093FFD6
:102B70000DC0282F2871283119F4877E846106C082
:102B8000282F2471243111F48B7E88612091A501B6
:102B900020FF0DC0382F3871383019F4877F8160DD
:102BA00006C0382F3171313011F48E7F886021FFDB
:102BB0000DC0282F2871283119F4877E816106C045
:102BC000282F2171213111F48E7E886194FD877E3A
:102BD00008958091D60180FF0AC0269A85B18F7B27
:102BE00095B190642FB7F894EAEBF2E013C010921D
:102BF000BB021092BA021092BC021092BE02109256
:102C0000BD021092BF021092C1021092C002109237
:102C1000C202E3CF32E0E33CF30789F0319148E0B0
:102C200095B9000000C037FF85B9330F000000C020
:102C300000C000C085B900C04A9591F7EBCF2FBF07
:102C40008FE594E00197F1F700C00000089590919E
:102C5000D60190FF14C08093BB026093BA024093E8
:102C6000BC028093BE026093BD024093BF0280937A
:102C7000C1026093C0024093C2020C94E91508950A
:102C80008091D6018E7F8093D6018091D50180FFFF
:102C90000CC01F921F9287E396E09F938F930E9430
:102CA0005D070F900F900F900F900E94BC2D2FEF9B
:102CB00080E792E0215080409040E1F700C00000A2
:102CC0000C94E9158091D601282F269530E0211526
:102CD000310519F48170826005C02B32310524F072
:102CE000817084658093D6018091D901893C18F068
:102CF00088EC8093D9010895CF92DF92EF92FF92F2
:102D00006B017C010E946216B701A60188E090E089
:102D1000FF90EF90DF90CF900C94DA308091DA0141
:102D2000882319F081508093DA016091D601709167
:102D3000D7018091D8019091D9010C947C16809193
:102D4000DA01833018F48F5F8093DA016091D60145
:102D50007091D7018091D8019091D9010C947C1683
:102D6000E6EDF1E083E0808311828FEF828388ECCF
:102D70008383148260817181828193810C947C169B
:102D8000AF92BF92CF92DF92EF92FF920F931F9379
:102D9000CF93DF93E82EF62EE901493C08F048EC8A
:102DA000E42FF0E0F11006C0EC53FB4FE4914E2FFE
:102DB0002E2F71C00F2D10E0EC53FB4F4491F42FD8
:102DC000C42ED12C26E0E29EC00111242FEF30E06A
:102DD000B9010E9479315BEA5603C001579F900DFB
:102DE00011248E0D911D8E0D911D582F550F580FCA
:102DF000D901A01BB10BAC9DC001AD9D900DBC9D38
:102E0000900D1124E92FF59ED0011124AB2FBB2783
:102E10007901EA1AFB0AEC9CD001ED9CB00DFC9CF8
:102E2000B00D11245901A51AB108A09E7001A19EF0
:102E3000F00CB09EF00C1124EF2CFF242E193F094A
:102E40002C9D80012D9D100D3C9D100D1124212FD6
:102E50006230710591F048F461157105E1F061305F
:102E60007105B9F4242F4B2F16C06430710569F039
:102E700040F06630710579F00CC0242F492FE12F06
:102E80000AC0492FEF2F2B2F06C0292FE42F412FE7
:102E900002C0292FEB2F49832883EA83DF91CF914A
:102EA0001F910F91FF90EF90DF90CF90BF90AF9068
:102EB00008952F923F924F925F926F927F928F92DE
:102EC0009F92AF92BF92CF92DF92EF92FF920F93B9
:102ED0001F93CF93DF9300D000D0CDB7DEB7182F6C
:102EE000462E542E222E9091D60190FFB4C0E92F89
:102EF000E695AE2FB0E0AF5CBE4F8C918093BC01E5
:102F00009E7F923061F49E012F5F3F4F812F0E9480
:102F1000C0164B8169818A810E94271662C0823067
:102F200019F45090D9015DC0863019F41091D70181
:102F300058C08930D9F3893109F053C0E9518E2F37
:102F40008170382E81E083258C83E695F0E0EC518A
:102F5000F94FC590D4908AEBA82E82E0B82EE12CD0
:102F6000F12CDD2493E0692E712C2DEB822E26E0CE
:102F7000922EEC9CC001ED9C900DFC9C900D1124B8
:102F8000B3010E947931012F311002C0060F01C038
:102F9000061B8091D50180FF12C0DF92CF921F9255
:102FA0009C819F931F920F93FF92EF929F928F921B
:102FB0000E945D070FB6F894DEBF0FBECDBF95012E
:102FC000452D642D802F0E94C0169FEFE91AF90A43
:102FD00083E0A80EB11C93E0E916F10451F60E94BB
:102FE000E9151093D7014092D8015092D9012220BF
:102FF000E9F06091D6017091D7018091D80190914C
:10300000D9010E947C168091D50180FF24C0809157
:10301000D9011F928F938091D8011F928F93809135
:10302000D7011F928F9388E996E00CC08091D5015B
:1030300080FF11C01F925F921F924F921F921F93A9
:1030400081E796E09F938F930E945D070FB6F894F7
:10305000DEBF0FBECDBF0F900F900F900F90DF918E
:10306000CF911F910F91FF90EF90DF90CF90BF9085
:10307000AF909F908F907F906F905F904F903F9018
:103080002F900895E6EDF1E0438128E0421B08F41B
:1030900040E021E0628181810C945917E6EDF1E076
:1030A000438128E0420F08F44FEF21E062818181E3
:1030B0000C945917E6EDF1E0628128E0621B08F4F8
:1030C00060E021E0438181810C945917E6EDF1E045
:1030D000628128E0620F08F46FEF21E04381818173
:1030E0000C945917E6EDF1E0818121E04381628182
:1030F00088500C945917E6EDF1E0818121E043817D
:103100006281885F0C9459179091D60190FF55C049
:103110009170811102C0926006C08B3210F09465EC
:1031200002C0880F982B9093D6016623B1F060916E
:10313000D6017091D7018091D8019091D9010E9458
:103140007C168091D50180FF1BC08091D6018695A9
:103150001F928F9382EE95E00BC08091D50180FF86
:103160000FC08091D60186951F928F9384EC95E0D5
:103170009F938F930E945D070F900F900F900F9079
:103180006091D601669570E04BE050E08FE091E0F1
:103190000E94BD31892B19F00E94BC2D02C00E94F3
:1031A000CB2D81E08093B90120E04091D90160915D
:1031B000D8018091D7010C94591708958091D601B8
:1031C00081608093D6018091D50180FF0DC01F9250
:1031D00081E08F938EEF95E09F938F930E945D0720
:1031E0000F900F900F900F908091D60160E0869520
:1031F0000C9484188091D6018695815009F48AE256
:1032000061E00C9484188091D60186958F5F8B3293
:1032100008F081E061E00C948418CF93DF9300D034
:103220001F92CDB7DEB79091D60190FF0AC09E01E4
:103230002F5F3F4F0E94C0164B8169818A810E9497
:1032400027160F900F900F90DF91CF9108958091E6
:10325000D50183FF7EC081EA94E00E94C40680917C
:10326000C5011F928F938CE994E09F938F930E94E6
:103270005D078AE994E00E94C4068091C601282F68
:10328000082E000C330B3F938F9387E994E09F93B4
:103290008F930E945D0785E994E00E94C4068091A7
:1032A000C701282F082E000C330B3F938F9382E920
:1032B00094E09F938F930E945D0780E994E00E94C1
:1032C000C4068091C801282F082E000C330B3F93B1
:1032D0008F938DE894E09F938F930E945D078BE816
:1032E00094E00E94C4068091C901282F082E000C8A
:1032F000330B3F938F9388E894E09F938F930E94C2
:103300005D0785E894E00E94C4068091C1011F9288
:103310008F9382E894E09F938F930E945D0780E8EB
:1033200094E00E94C4068091D8021F928F938DE78B
:1033300094E09F938F930E945D078AE794E00E9438
:10334000C4068DB79EB74C960FB6F8949EBF0FBEBD
:103350008DBF0E94C41E2091C601211104C020917E
:10336000C701222321F09093C3018093C2012091D1
:10337000C801211104C02091C901222321F090939A
:10338000C0018093BF01E091B101F091B20130978B
:1033900049F082E08093C4010480F581E02D84EC43
:1033A00091E009940895803F39F49091C70197FF07
:1033B00035C01092C70159C0813F29F49091C701CF
:1033C0001916BCF32BC09091C601823F29F497FFD8
:1033D00025C01092C60149C0833F19F41916CCF3D9
:1033E0001DC09091C801893F29F41916BCF41092B0
:1033F000C8013BC08A3F19F497FF10C0F8CF8B3F3C
:1034000039F49091C90197FF09C01092C9012DC0EC
:103410008C3F21F49091C9011916BCF39CE0980FE0
:10342000953080F421E030E0A90102C0440F551F1F
:103430009A95E2F7CA0180959091C50189238093FE
:10344000C50113C08D3F21F48091D8028E7F0BC03F
:103450008E3F21F48091D8028D7F05C08F3F29F4E3
:103460008091D8028B7F8093D8028091C601811110
:1034700006C08091C701811102C01092C1018091E4
:10348000C801811106C08091C901811102C010924A
:10349000BE0108958091D80280FD16C081FD16C03E
:1034A00082FD18C08091BE01882391F0883290F48B
:1034B00028E0829FC001112468E270E00E948D31F3
:1034C000862F672B29F007C082E0089584E00895D5
:1034D00081E0089588E008958091D80280FD14C0AD
:1034E00081FD14C082FD16C08091C101882381F046
:1034F000843180F422E3829FC001112464E170E0F2
:103500000E948D31862F08958CE0089589E10895F9
:1035100085E0089582E30895803F21F40E946C1AAB
:10352000819504C0813F29F40E946C1A8093C701E1
:103530000895823F21F40E946C1A819504C0833F54
:1035400029F40E946C1A8093C6010895893F19F4EA
:103550000E944A1A05C08A3F31F40E944A1A819596
:103560008093C80108958B3F21F40E944A1A8195E7
:1035700004C08C3F29F40E944A1A8093C90108951F
:103580009CE0980F953078F421E030E0A90102C06A
:10359000440F551F9A95E2F7CA019091C501892BF6
:1035A0008093C50108958D3F21F48091D8028160F8
:1035B0000BC08E3F21F48091D802826005C08F3FFE
:1035C00029F48091D80284608093D8020895F894F9
:1035D000E82FE295EF70F0E031A1282F2F7081E005
:1035E00090E001C0880F2A95EAF7982F90959323D1
:1035F00091A392A1892B82A3789408959F92AF9270
:10360000BF92CF92DF92EF92FF920F931F93CF93CF
:10361000DF930DE111E0C6EAD1E080EBE82E81E016
:10362000F82E912CCC24C394D12CB801D8018C91C4
:10363000F894E82FE295EF70F0E021A18F70A601D9
:1036400002C0440F551F8A95E2F7CA01922F982BAA
:1036500091A392A18095892382A3789400C0E2E28D
:10366000F1E020E030E0A12CB12C4191842F829533
:103670008F7090E0DC0190968C9190E04F7002C0CA
:10368000959587954A95E2F780FD08C0C601022E00
:1036900002C0880F991F0A94E2F702C080E090E010
:1036A000A82AB92A2F5F3F4F2F303105F1F60F5F5F
:1036B0001F4FFB0180810E94E71AF0EAFA95F1F7AB
:1036C00088819981A816B90621F0B982A88281E083
:1036D00001C080E0982A2296EC16FD0609F0A5CFDD
:1036E000992049F081E08093ED010E94C41E9093DF
:1036F000EC018093EB018091ED01882391F18091A1
:10370000EB019091EC010E94B51E069750F180915B
:10371000A6019091A7019093DC018093DB01809139
:10372000A8019091A9019093DE018093DD01809121
:10373000AA019091AB019093E0018093DF01809109
:10374000AC019091AD019093E2018093E1018091F1
:10375000AE019091AF019093E4018093E301109248
:10376000ED01892DDF91CF911F910F91FF90EF9087
:10377000DF90CF90BF90AF909F900895CF93DF934D
:103780000E94972DEC018238910559F1A0F4813304
:10379000910509F473C040F48932910509F467C0BA
:1037A0008A9709F472C084C08533910509F458C022
:1037B000C997B9F07DC0833E910571F138F4803E20
:1037C0009105B1F0823E910511F172C0863E9105DE
:1037D000B9F1873E9105C9F1843E910509F068C0B1
:1037E00024C08091A40180FD5DC081FD5BC060C0EC
:1037F0008091A40180FD50C08091A50180FF49C146
:103800008091A40184FD43C1C3EED0E042C1809108
:10381000A40182FF3EC1F4CF8091A40182FD3FC08C
:103820008091A50180FD3EC0EBCF8091A50181FF75
:1038300030C18091A40184FD2AC1C7EED0E029C126
:103840008091A40183FF25C1F4CF8091A40183FD61
:103850002CC08091A50181FFECCFC4EED0E019C14E
:103860008091A40185FF15C1C9E2D0E012C1809109
:10387000A40185FF0EC1C5E3D0E00BC18091A40176
:1038800086FF07C1CAE2D0E004C18091A40186FF8F
:1038900000C1C1E3D0E0FDC0C9E3D0E0FAC0C2EE90
:1038A000D0E0F7C0C0EED0E0F4C0C6EED0E0F1C08A
:1038B000C11581E5D80708F066C0C11520E5D2071B
:1038C000E0F0CE0174E0969587957A95E1F78370E4
:1038D0009C2F937021E030E002C0220F331F9A9595
:1038E000E2F73C68382BCF70C695C69540E2C49F7E
:1038F000E0011124C22BD32BCCC0C83ED10560F50A
:10390000C03ED10508F0C5C0C83AD105B0F4C53AEB
:10391000D10540F0C55AD0E0C059DE4FC881D0E093
:10392000D064B7C0C130D10509F4B3C008F4AFC04A
:10393000C430D10508F4ABC0ACC0CF3BD10508F012
:10394000A6C0C85AD0E0CC0FDD1FCD58DE4F09907D
:10395000D881C02DD4649DC0C11540E2D40758F46D
:10396000C11581E0D80708F094C0C03FD10508F424
:103970008EC0D0658EC0C11520E4D20708F487C080
:10398000DF70D06A86C0C11545E5D40708F042C093
:10399000C11584E5D80728F0DC2FCC27C46FD06A86
:1039A00078C0C11523E5D207B0F0CE018370992706
:1039B00021E030E002C0220F331F8A95E2F78C2FFE
:1039C0008695869540E2849FC0011124E901C82BA9
:1039D000D92BDA685EC0C11542E5D40728F4DC2F84
:1039E000CC27C16FD06A55C0CE018370992721E0E2
:1039F00030E002C0220F331F8A95E2F78C2F8695A4
:103A0000869540E2849FC0011124E901C82BD92B7F
:103A1000DC683FC0C11589E5D807B8F4C11528E5B1
:103A2000D20728F0DC2FCC27C06FD06A32C0C11576
:103A300046E5D40760F58C2F0E94A6158F71C82F1C
:103A4000D0E0DC2FCC27D06224C0C1158AE5D8078E
:103A500080F48C2F8F700E94A61594E0D695C795A0
:103A60009A95E1F7CF70D0E0DC2FCC27D069C82B36
:103A700010C0CE0190568115904248F48D2F8F7161
:103A80000E94A615DD27D0628F71D82B02C0C0E03E
:103A9000D0E0CE01DF91CF910895809580FF02C0E4
:103AA0005F9A01C05F9881FF02C05E9A08955E9898
:103AB00008958295982F937344E0949F9001112468
:103AC0008C7C86958695282B822F8575880F2A7A7F
:103AD0002695822B08958091860208959FB7F894C9
:103AE000109282029FBF9091A902943009F057C0B2
:103AF0009091E9009F703091EC00232F217030FDF0
:103B000020E8922B25E02093E9002091EB0020FF94
:103B100043C02091EE0027FF3FC020918102222365
:103B200021F02091E80025FF37C01092810226E0A5
:103B30003091E80035FD15C03091A902343061F5AF
:103B40003091EB0035FD28C0215021F481E08093B5
:103B5000810222C0EFE9FFE03197F1F700C00000D9
:103B6000E7CF8093F1008091E80085FD0AC0809145
:103B7000E80080FFFCCF8091E8008E778093E8001A
:103B800006C08FB7F89421E0209382028FBF9F7008
:103B90009093E90080E008959F709093E9008FEF83
:103BA0000895CF93DF9300D01F92CDB7DEB79091E9
:103BB000A902943011F589837B836A839093E9008D
:103BC0008FEF9091E800815095FD06C095ED9A9594
:103BD000F1F700008111F5CF8091E80085FF0DC05D
:103BE00040E050E063E070E0CE0101960E940129C0
:103BF0008091E8008E778093E8000F900F900F90EF
:103C0000DF91CF910895BC0184E00C94D11DBC01DB
:103C100083E00C94D11D24E02093E9002FEF309134
:103C2000E800215035FD06C035ED3A95F1F700006A
:103C30002111F5CF2091E80025FF0BC040E050E0B6
:103C400066E070E00E9401298091E8008E77809301
:103C5000E8000895CF93DF9320910E01222339F0DD
:103C60002091A40127FF03C060E224E002C068E0C5
:103C700021E02093E9002FEF3091E800215035FD3D
:103C800006C035ED3A95F1F700002111F5CF2091EE
:103C9000E80025FF1DC0EC0180910E01811105C0D7
:103CA00040E050E068E070E003C070E040E050E0C9
:103CB000CE010E9401298091E8008E778093E80070
:103CC00080E2FE01A7E8B2E001900D928A95E1F74B
:103CD000DF91CF91089581E08093E00080E28093AE
:103CE000D8001092C9008FE19EE40197F1F700C05F
:103CF000000087E090EBDC018093D9029093DA0218
:103D0000A093DB02B093DC029CE088E10FB6F8944C
:103D1000A895809360000FBE90936000FFCF7894C9
:103D20001F920F920FB60F9211248F939F93AF9310
:103D3000BF938091E5019091E601A091E701B091D8
:103D4000E8010196A11DB11D8093E5019093E60164
:103D5000A093E701B093E801BF91AF919F918F913C
:103D60000F900FBE0F901F9018959C014FB7F894BD
:103D70008091E5019091E601A091E701B091E80101
:103D80004FBF821B930B08952FB7F8948091E501E4
:103D90009091E601A091E701B091E8012FBF08954D
:103DA0001F920F920FB60F9211248F939F93AF9390
:103DB000BF938091B301811113C08091E50190916F
:103DC000E601A091E701B091E8014196A11DB11D66
:103DD0008093E5019093E601A093E701B093E80199
:103DE000BF91AF919F918F910F900FBE0F901F9039
:103DF000189520910E01222351F12091A40127FF53
:103E000026C0262F2695269526952E3178F4FC017E
:103E1000E20FF11D677081E090E001C0880F6A95A4
:103E2000EAF7809592818923828308958091D50154
:103E300080FF17C01F926F9386E397E09F938F9345
:103E40000E945D070F900F900F900F900895FC0156
:103E500006962281621301C012823196E817F90793
:103E6000C1F7089520910E01222349F12091A40168
:103E700027FF25C0262F2695269526952E3170F4EE
:103E8000FC01E20FF11D677081E090E001C0880F36
:103E90006A95EAF79281892B828308958091D501F2
:103EA00080FF25C01F926F9388E197E09F938F93C7
:103EB0000E945D070F900F900F900F900895FC01E6
:103EC00032962FEF30E04191641789F02F3F19F4BB
:103ED000411101C0232F3F5F3630A9F72F3F39F042
:103EE000FC01E20FF11D27FDFA9562830895089504
:103EF000CF9384E090E00E94B430C82F82E290E03B
:103F00000E94B4302C2F30E0A901582BCA01CF9168
:103F100008956AEE7EEF80E090E00E94E63060E077
:103F200082E090E00E94C83060E083E090E00E9470
:103F3000C83010927D0210927E0210927F02109281
:103F4000800260E084E090E00E94C83060E082E29D
:103F500090E00E94C83060E085E090E00E94C830A8
:103F600060E086E090E00E94C8306FEF87E090E06C
:103F70000E94C83040E050E0BA0188E090E00E9422
:103F8000DA3060E08DE090E00E94C83040E050E020
:103F9000BA0188E190E00E94DA3060E087E190E0C9
:103FA0000E94C83040E050E0BA018CE190E00E94ED
:103FB000DA3060E070E080E290E00E94E63040E0BD
:103FC00050E0BA0188E190E00E94DA3040E050E031
:103FD000BA018FE090E00E94DA3040E050E0BA0190
:103FE00083E190E00C94DA3080917C028111109290
:103FF0007C020895EF92FF920F931F93CF939091BD
:104000007B0280917A02892B20917902982F922B42
:104010009093EE0180917C028823D9F0892B8093C4
:10402000EE0180910E01882331F08091A40187FF79
:1040300002C08EE101C086E0E0EFF1E090E0815047
:1040400028F021912223D9F39F5FF9CF91110E948B
:10405000F41FE091B101F091B201309709F448C02A
:1040600080910E01882359F08091A40187FF07C039
:104070008091EE018093EF0185E08093EE01028054
:10408000F381E02D8EEE91E009958091D50182FFBC
:104090002FC080FF04C086E097E00E94C4060EEEA9
:1040A00011E0C8E080E0E82E87E0F82E8091D5018D
:1040B00080FF0CC0F80180811F928F93FF92EF92D6
:1040C0000E945D070F900F900F900F90C1500F5FEF
:1040D0001F4FC111EBCF8091D50180FF09C08EEF3A
:1040E00096E0CF911F910F91FF90EF900C94C40632
:1040F000CF911F910F91FF90EF900895CF93DF9391
:10410000C091A501C2FB992790F9981701F1D82F0A
:1041100080FBC2F9C093A5016091A40184E090E006
:104120000E94C8306C2F82E290E00E94C8308091DB
:10413000D50180FF0CC01F92DF9389EE96E09F931C
:104140008F930E945D070F900F900F900F90DF915B
:10415000CF910895BF92CF92DF92EF92FF920F938B
:104160001F93CF93DF938C01C090B302D090B40221
:10417000E090B502F090B60280917D0290917E02AF
:10418000A0917F02B0918002C82AD92AEA2AFB2A8C
:10419000CFE1D0E0D701C6010C2E04C0B695A7959B
:1041A000979587950A94D2F780FD04C0219790F7E0
:1041B000B12C07C0BC2EB8018C2F0E94BE1B0197EA
:1041C000A9F38B2DDF91CF911F910F91FF90EF906D
:1041D000DF90CF90BF900895CF93DF93EC010E94C2
:1041E000AA20BE010E94BE1BDF91CF9108952FE04F
:1041F000929F800D1124682F669566956695982F7D
:10420000977085E0689FB001112440E050E080E0A5
:10421000FB01E40FF51FEA5BFD4F208130E0092E22
:1042200002C0369527950A94E2F721703327042EB1
:1042300001C0220F0A94EAF7822B4F5F5F4F45308F
:10424000510531F708952FE0929F800D1124E82F3A
:10425000E695E695E695877051E001C0550F8A9581
:10426000EAF785E0E89FF0011124EA5BFD4F20E0CA
:1042700030E070E04081CB01022E02C09695879518
:104280000A94E2F78170819584278523842781939E
:104290002F5F3F4F2530310569F708956093B302D2
:1042A0007093B4028093B5029093B6020C94162ECC
:1042B0000F931F9341E050E060E070E004C0440FB2
:1042C000551F661F771F8A95D2F7409550956095C8
:1042D00070958091B3029091B402A091B502B09113
:1042E000B6028A019B01082319232A233B23C90113
:1042F000B8011F910F910C944E2120917802809566
:10430000822380937802982F977041F430E0482FF1
:10431000082E000C550B2417350721F49091A501A8
:1043200092FF07C08595859585950E94582110922A
:10433000780208950F931F9341E050E060E070E031
:1043400004C0440F551F661F771F8A95D2F78091CE
:10435000B3029091B402A091B502B091B6028A0165
:104360009B01082B192B2A2B3B2BC901B8011F914C
:104370000F910C944E2160937D0270937E02809386
:104380007F02909380020C94162E809145029091AA
:104390001402891719F08F5F8770FBCF08950F9370
:1043A0001F93CF93DF938091130282958F7009F052
:1043B0005DC080911002882309F458C080914502A5
:1043C0001091140260910E0270910F02C0911102BF
:1043D000D091120291E06F3F09F090E0292F06E0A2
:1043E000811709F443C0209721F07F3F21F030E08E
:1043F00003C031E001C0322F90E030FD34C0089F8F
:10440000F001099FF00D1124DF01AB5EBD4F119645
:104410003C911197371327C03C91361324C0129654
:104420003C91129731111FC013964D915C911497D6
:104430004C1B5D0B483C5105B0F4809113028F700A
:10444000806180931302E65EFD4F80818F708061F2
:1044500080838EE092E00E94370EDF91CF911F9112
:104460000F910C94C52101968770BACFDF91CF913F
:104470001F910F9108959F92AF92BF92CF92DF92BA
:10448000EF92FF920F931F93CF93DF93CDB7DEB7D9
:1044900061970FB6F894DEBF0FBECDBF8C0185E0EB
:1044A000F801DE011D9601900D928A95E1F7F80161
:1044B00090818181E28030910E0260910F024091E3
:1044C0001102509112024115510531F06F3F31F444
:1044D00021E03F3F19F403C021E001C020E0F22FAA
:1044E000F1709F2E20FD23C1F801C380D4802EE0FF
:1044F000A22E22E0B22EF0901002F601E41BF50B82
:10450000FF2009F4CEC020911302E83CF10508F029
:1045100099C0422F407F09F051C0681311C0391370
:104520000FC0FE2CE1100CC02F70206120931302ED
:10453000C5010E94370E80911302F801858337C1AF
:10454000CD2831F08F3F31F421E09F3F19F403C0B3
:1045500021E001C020E020FD03C021E02E2502C0A3
:1045600020E030E0F22FF170FF2E20FF1DC02091DF
:1045700045024091140256E0241709F4F6C030E0D9
:10458000529FF001539FF00D1124EB5EFD4F6181AE
:10459000861306C06081961303C06281E61204C0D0
:1045A0002F5F3F4F2770E8CFFE2CEE2009F4FFC0AD
:1045B0008091130281608093130250C0681307C07A
:1045C000391305C0E11003C0F80125838DC09D8714
:1045D0008E878D859E850E94ED2D882369F1EE20C2
:1045E00059F120911302822F82958F7090E00297EB
:1045F00074F080910E0290910F0298878F83198634
:10460000DB86CA862C87CE0107960E94370E86E08D
:10461000F801AEE0B2E001900D928A95E1F70E94B8
:10462000CF210DC06817E1F09D878E878D859E850F
:104630000E94ED2D81111EC0C8010E94370EFF247B
:10464000F394B5C0422F407F69F78EE092E00E945C
:10465000370E86E0F50111928A95E9F7F12CA7C093
:104660003913E2CFE110E0CFF8012583C8010E94A1
:10467000370E57C0EE2001F320911302822F82954E
:104680008F7090E002971CF280910E0290910F02C1
:104690009A8389831B82DD82CC822E83CE01019690
:1046A000B4CFE83CF105E8F5FE2CEE2029F26813C2
:1046B00027C0391325C02091130220FD18C0822F76
:1046C00082958F70482F50E04115510581F0F80117
:1046D00025834F30510541F08F5F982F9295907F41
:1046E000822F8F70892B8583C8010E94370E86E048
:1046F000F801AEE0B2E001900D928A95E1F757C063
:104700009D878E878D859E850E94ED2D81117FCF9F
:1047100080911302816080931302C8010E94370EBA
:1047200046C086E0F50111928A95E9F740C0EE2077
:1047300009F482CF9D878E878D859E850E94ED2D01
:10474000F82E882309F478CF86E0F801AEE0B2E0D5
:1047500001900D928A95E1F780910E0290910F02DF
:104760000E94EC200E94CF2122C09D878E878D85DC
:104770009E850E94EC20292F22952F70223028F44C
:104780009F7039F0811105C00BC0243028F49F7050
:1047900049F4805E883020F0C8010E94370E9F2CBB
:1047A000F92C05C0F8019581907F99F7F9CF8F2DED
:1047B00061960FB6F894DEBF0FBECDBFDF91CF91EB
:1047C0001F910F91FF90EF90DF90CF90BF90AF902F
:1047D0009F9008950F931F938091B3029091B4021C
:1047E000A091B502B091B6028C019D01067011270F
:1047F00022273327BC01CD010630110521053105E3
:1048000011F4686001C0677F1F910F910C944E21D5
:104810001F93CF93DF93CDB7DEB7AA970FB6F89467
:10482000DEBF0FBECDBFEBEAF2E083EB92E020915A
:10483000F10021938E179F07D1F78091AC0283304E
:1048400009F462C030F4813071F0823009F49CC008
:10485000B3C08A3009F488C08B3009F46DC0893048
:1048600009F0AAC020C08091AB02813A09F0A4C02F
:104870008091E800877F8093E8008091AF0290915B
:10488000B002892B21F460E287E892E003C060E087
:1048900080E090E070E00E94FA2F8091E8008B7732
:1048A0008093E80089C08091AB02813209F084C016
:1048B0008091AF029091B002009719F0029709F031
:1048C0007BC08091E800877F8093E8008091E800BA
:1048D00082FD05C08091A9028111F8CF6DC02091A1
:1048E000F3008091F20090E0922B029729F48091DE
:1048F000F1008B7F813021F48091F100809386025A
:104900008091E8008B7754C08091AB02813A09F026
:1049100053C08091AF029091B002892B09F04CC036
:104920008091E800877F8093E8008091E80080FF15
:10493000FCCF80910E0137C08091AB028132E1F54E
:104940008091AF029091B002892BB1F58091E8007F
:10495000877F8093E8000E94A62F8091AD0280930C
:104960000E010E94332E28C08091AB02813221F5C6
:104970008091E800877F8093E8000E94A62F8091B5
:10498000AE028093850218C08091AB02813AA1F4F7
:104990008091E800877F8093E8008091E80080FFA5
:1049A000FCCF809185028093F1008091E8008E77A2
:1049B0008093E8000E94A62F8091E80083FFE3C166
:1049C0008091AB029091AC02492F50E04A305105E2
:1049D00008F0D9C1FA01EB58FF4F0C94A13180388F
:1049E00021F0823809F0CFC108C08091A7029091D0
:1049F000A802992389F082600FC08091AF028F7066
:104A0000873008F0C0C18093E9008091EB0085FBFE
:104A1000882780F91092E9009091E800977F9093A1
:104A2000E8008093F1001092F10071C1282F2D7FD2
:104A300009F0A9C1882319F0823061F0A4C18091E6
:104A4000AD02813009F09FC1933009F080E080937E
:104A5000A8022EC08091AD0281112AC08091AF02C0
:104A60008F702FEF280F263008F08DC18093E9005A
:104A70002091EB0020FF1CC0933021F48091EB00CB
:104A8000806214C09091EB0090619093EB0021E064
:104A900030E0A90102C0440F551F8A95E2F7409308
:104AA000EA001092EA008091EB0088608093EB00AE
:104AB0001092E9008091E800877F8093E8000E94CF
:104AC000A62F61C181115FC11091AD021F77809146
:104AD000E3008078812B8093E3008091E800877F5A
:104AE0008093E8000E94A62F8091E80080FFFCCF11
:104AF0008091E30080688093E300111102C082E09E
:104B000001C083E08093A9023EC18058823008F042
:104B10003AC12091AD023091AE022C3D53E03507F1
:104B200079F583E08A838AE289834FB7F894DE01BE
:104B3000139620E03EE051E2E32FF0E0509357005F
:104B4000E49120FF03C0E295EF703F5FEF708E2F7E
:104B500090E0EA3010F0C79601C0C0968D939D9307
:104B60002F5F243149F74FBF8091E800877F809302
:104B7000E8006AE270E0CE0101960E94FA2FB5C00B
:104B80008091AF029091B002432F552743305105D9
:104B9000A9F068F44130510509F404C142305105CF
:104BA00009F0F1C08BE790E0E2EAF8E04BC0413257
:104BB000510529F14232510589F1E5C0C901992712
:104BC00081309105A1F058F0029709F0DCC0EFE2C6
:104BD000F9E0E4918E2F90E0EFE2F9E030C0EFE4ED
:104BE000F9E0E4918E2F90E0EFE4F9E028C0EDE3E6
:104BF000F9E0E4918E2F90E0EDE3F9E020C08430FD
:104C0000910508F0C0C0880F991FFC01E859FE4FBC
:104C10000190F081E02D89E090E014C0843091058E
:104C200008F0B1C0FC01EE0FFF1FE05AFE4F0190EB
:104C3000F081E02DDC01A45ABE4F8C9190E00097EA
:104C400009F4A1C02091E800277F2093E80020917B
:104C5000B1023091B2028217930708F49C0140E040
:104C60002115310589F18091A902882309F43DC0FD
:104C70008530D9F18091E80083FD37C08091E8004C
:104C800082FD2FC08091E80080FFEACF4091F300C1
:104C90008091F20090E0942B2115310559F0883075
:104CA000910540F444914093F1003196215031092F
:104CB0000196F2CF41E0089709F040E08091E800CA
:104CC0008E778093E800CCCF4111CDCF0AC0809180
:104CD000A902882351F0853041F08091E80083FDDE
:104CE00004C08091E80082FFF2CF8091E8008B77CA
:104CF0008093E80048C0803809F045C08091E80002
:104D0000877F8093E8008091AA028093F1008091D0
:104D1000E8008E77D2CE811136C08091AD0290919D
:104D2000AE02992702977CF58091E800877F8093F7
:104D3000E8001091AD021093AA020E94A62F111153
:104D400006C08091E30087FD02C081E001C084E0DD
:104D50008093A90242E061EC81E00E94C52F42E20B
:104D600061EC84E00E94C52F42E261EC82E00E9487
:104D7000C52F42E260EC83E00E94C52F42E261EC65
:104D800085E00E94C52F8091E80083FF10C08091CC
:104D9000E800877F8093E8008091EB008062809339
:104DA000EB0005C082E190E0EDE1F9E04BCFAA967F
:104DB0000FB6F894DEBF0FBECDBFDF91CF911F912C
:104DC00008951F920F920FB60F9211242F933F93C5
:104DD0004F935F936F937F938F939F93AF93BF9303
:104DE000CF93DF93EF93FF93C091E900CF70809151
:104DF000EC00D82FD17080FDD0E81092E9008091AE
:104E0000F000877F8093F00078940E94082410922D
:104E1000E9008091F00088608093F000CD2BCF7086
:104E2000C093E900FF91EF91DF91CF91BF91AF91D6
:104E30009F918F917F916F915F914F913F912F91B2
:104E40000F900FBE0F901F901895E8EDF0E0808155
:104E50008E7F80831092E2001092DA001092E100BF
:104E6000A0EEB0E08C9181608C9380818F778083FD
:104E700019BCA7EDB0E08C918E7F8C9380818F7EE2
:104E80008083109284020895CF92DF92EF92FF9276
:104E90000F931F93CF93DF93C8EDD0E088818F7E6F
:104EA0008883E7EDF0E080818160808384E082BFC9
:104EB00081E08093840288818E7F888302EE10E0F7
:104EC000F80110821092DA0081EEC82ED12CF60182
:104ED000108288818F778883888180688883888121
:104EE0008F7D888319BC1092A9021092AA02109299
:104EF000A8021092A70290EEE92EF12CF701808112
:104F00008B7F808388818160888342E060E080E0DD
:104F10000E94C52FF60180818E7F8083F8018081F9
:104F200081608083808188608083F70180818E7FAB
:104F30008083888180618883DF91CF911F910F9159
:104F4000FF90EF90DF90CF9008951F920F920FB6D1
:104F50000F9211242F933F934F935F936F937F93FF
:104F60008F939F93AF93BF93EF93FF938091E10053
:104F700082FF49C08091E20082FF45C08091E1003C
:104F80008B7F8093E100209183022F5F822F62E369
:104F90000E945F31992319F02093830234C010924C
:104FA000830280918202882371F18091A90284306A
:104FB00041F58091E9008F702091EC00922F917063
:104FC00020FD90E8892B95E09093E9009091EB000B
:104FD00090FF14C09091EE0097FF10C09091E800F0
:104FE00095FF03C01092F100F9CF9091E80090FF77
:104FF00005C09091E8009E779093E8008F708093B1
:10500000E900109282028091DA0080FF32C0809124
:10501000D80080FF2EC08091DA008E7F8093DA0066
:105020008091D90080FF1CC080E189BD82E189BDEB
:1050300009B400FEFDCF81E08093A9028EE898E0DC
:105040000E94C40680918402811113C00E9425270A
:105050000E9444278091E20084608093E20009C0AE
:1050600019BC1092A90282E998E00E94C40610922D
:1050700084028091E10080FF1BC08091E20080FFEC
:1050800017C08091E2008E7F8093E2008091E20061
:1050900080618093E2008091D80080628093D80084
:1050A00019BC85E08093A90286E998E00E94C406B5
:1050B0008091E10084FF32C08091E20084FF2EC025
:1050C00080E189BD82E189BD09B400FEFDCF8091F8
:1050D000D8008F7D8093D8008091E1008F7E8093EF
:1050E000E1008091E2008F7E8093E2008091E200F7
:1050F00081608093E2008091AA02882311F084E00D
:1051000007C08091E30087FD02C081E001C083E019
:105110008093A9028AE998E00E94C4068091E10088
:1051200083FF2BC08091E20083FF27C08091E100C4
:10513000877F8093E10082E08093A9021092AA0207
:105140008091E1008E7F8093E1008091E2008E7F6C
:105150008093E2008091E20080618093E20042E06F
:1051600060E080E00E94C52F8091F000886080930D
:10517000F0008EE998E00E94C406FF91EF91BF9184
:10518000AF919F918F917F916F915F914F913F91DF
:105190002F910F900FBE0F901F9018952091E40053
:1051A0003091E50095E64091EC00842F817040FF3E
:1051B00023C08091E80080FD1DC08091A902882352
:1051C00099F0853099F08091EB0085FD11C04091F8
:1051D000E4005091E5002417350729F3915011F0B0
:1051E0009A01E1CF84E0089582E0089583E0089574
:1051F00081E0089580E008954091E80042FFDDCF0E
:105200000895EF92FF920F931F93CF93DF937C014A
:105210008B010E94CE28811119C0E70101151105EB
:10522000A1F08091E80085FD0AC08091E8008E77AA
:105230008093E8000E94CE28882381F307C08991DB
:105240008093F10001501109E9CF80E0DF91CF9107
:105250001F910F91FF90EF9008950895EF92FF92A4
:105260000F931F93CF93DF938C01CAEBD2E0E12C15
:10527000F12CF8018481E114F10419F4882339F048
:1052800002C0811104C09E014091D90102C09E015B
:1052900040E06091D8018091D7010E94C016FFEFD5
:1052A000EF1AFF0A239683E0E816F10411F70E9433
:1052B000E915F801848190E0019681709927848333
:1052C000DF91CF911F910F91FF90EF9008958F92F2
:1052D0009F92AF92BF92CF92DF92EF92FF920F9385
:1052E0001F93CF93DF93EC014C81042F10E09801C2
:1052F000D8010E9450319B01AC010E941B316B010F
:105300007C01E0E2F0E0E01BF10BA5E5B0E09B01E1
:10531000AC010E941B314B015C019F01DF010E9427
:10532000AE319B01AC010E9426319B01AC012C0DDA
:105330003D1D4E1D5F1DC501B4010E942E31822FFF
:10534000F22E99E2921728F093E0299F9001112400
:105350000DC025E530E0281B3109C901880F991FD0
:10536000280F391F37FF02C02F5F3F4F3595279514
:10537000122F10959AEBC92E92E0D92E00E085E508
:10538000E82EEF18802F869511F48E2D01C08F2DF9
:105390009601412F6091D8010E94C0160F5F83E0F3
:1053A000C80ED11C033071F70E94E9158C81811160
:1053B00002C091E003C0803219F49FEF90931C016A
:1053C00090911C01890F8C83DF91CF911F910F91D8
:1053D000FF90EF90DF90CF90BF90AF909F908F9015
:1053E00008950F931F93CF93DF931092BB021092F7
:1053F000BA021092BC021092BE021092BD0210922C
:10540000BF021092C1021092C0021092C202CAEBF7
:10541000D2E000E010E08091B802082E000C990B59
:105420000817190794F080911B01082E000C990BA6
:105430008017910754F09E014091D9016091D801E5
:105440008091D7010E94C01603C0198218821A8267
:105450000F5F1F4F239603301105E9F60E94E915EF
:1054600080911A019091B802980F9093B802209100
:105470001B01280F20931B01121614F492301CF00C
:10548000819580931A01DF91CF911F910F9108951B
:10549000BF92CF92DF92EF92FF920F931F93CF9321
:1054A000DF93FC01828180FF03C0DD24DA9402C017
:1054B000DD24D3940AEB12E0C0E0D0E023E0B22E6A
:1054C000F80111821082128294E0E92EF12CC12C95
:1054D0008091B7028C0D84302CF06B2D0E946B31C3
:1054E000892F02C087FD8D5F082E000C990BC8170D
:1054F000D90791F48091D9018E9DA0018F9D500D07
:105500001124559547955595479598016091D80177
:105510008091D7010E94C016CD0CF1E0EF1AF1087E
:10552000B9F621960D5F1F4FC330D10549F60E9491
:10553000E9158091B70291E0D91206C0811102C02D
:1055400082E007C0815005C090E00196BE010E9434
:105550008D318093B702DF91CF911F910F91FF9012
:10556000EF90DF90CF90BF900895EF92FF921F933E
:10557000CF93DF93EC018AEBE82E82E0F82E10E067
:105580008C8197014091D9016091D801810F0E94CF
:10559000C0161B5A83E0E80EF11C1F3F89F70E94DA
:1055A000E9159A818C8190FF02C08F5F01C0815004
:1055B0008C83DF91CF911F91FF90EF9008959F9280
:1055C000AF92BF92CF92DF92EF92FF920F931F9311
:1055D000CF93DF93FC01A280948081E08483E5E88F
:1055E000F9E0B490E4E0FAE0E491C3ECD2E0FAEB45
:1055F000EF2EF2E0FF2ECC24CA94D12CEB190E2F03
:1056000010E022E02A1530F08091D7018883809144
:10561000D8018983911003C01B821A8255C08B81E7
:105620008823F9F081508B832FEF829FC0011124D2
:105630006C8170E00E947931FB01FF27EB57F64F38
:105640008491E82FEB192FEFE29FC0011124B801DC
:105650000E9479318091D901689FB00111247A8329
:1056600033C00E94A4302091D9012695215830E002
:10567000A901440F551F322F2227240F351F232F36
:1056800033278217930704F582E08A1588F40E9475
:10569000A430B6010E948D3188830E94A4302091ED
:1056A000D8012695622F70E00E948D31280F298342
:1056B0001A828091D901843120F0893C18F088EC5D
:1056C00001C084E18C838B8397014A816981888141
:1056D0000E94C016259623E0E20EF11C82E0C23D36
:1056E000D80709F08ECFDF91CF911F910F91FF90D6
:1056F000EF90DF90CF90BF90AF909F900C94E91502
:105700000F931F93CF93DF9300D01F92CDB7DEB7D7
:105710008C018091B90281110AC09E012F5F3F4F19
:1057200048EC6FEF0E94C0168A818093B902F8019D
:105730008481813051F028F0823061F44091B902C7
:105740000AC08091B90240E007C06091B90240E010
:1057500080E003C040E080E060E00E942716F8018E
:10576000848190E0019663E070E00E948D31848333
:105770000F900F900F90DF91CF911F910F9108958F
:10578000CF93DF93EC01E6EDF1E0438162818C8100
:105790000E940D198C818F5F8C83DF91CF910895CA
:1057A000CF93DF93EC01EC81F0E0EB57F64F44919F
:1057B000E6EDF1E0628181810E940D198C818F5F9D
:1057C0008C83DF91CF9108951F93CF93DF93CDB753
:1057D000DEB767970FB6F894DEBF0FBECDBF342F8C
:1057E0004B8B252F5C8B6D8B7E8B8F8B4E895F89CE
:1057F000611110927A0286E0FE013D96DF01982F3A
:105800001D929A95E9F73D872E876F87598B488BB4
:10581000DE01179601900D928A95E1F7CE01079669
:105820000E943B2281113EC086E0FE013796DE01D8
:10583000119601900D928A95E1F7FF81E8856A85BE
:105840007B856115710531F0EF3F31F481E0FF3F59
:1058500019F403C081E001C080E080FD23C02091E5
:10586000140230E0C90101968770992740914502E2
:1058700050E08417950779F1F983EA837D836C837F
:1058800096E0929FD001939FB00D1124AB5EBD4F67
:10589000FE01319601900D929A95E1F780931402E2
:1058A0000E94C52116E0809145029091140289174B
:1058B000F9F0189FC00111248B5E9D4F0E943B227E
:1058C0008823B1F08091450290E001968770992776
:1058D00080934502E8CF0E94332E1092140210925A
:1058E0004502EEE0F2E086E0DF011D928A95E9F7DD
:1058F00067960FB6F894DEBF0FBECDBFDF91CF9194
:105900001F9108952091D6023091D70228173907A8
:1059100071F09093D7028093D602E091B101F0919B
:10592000B201309721F00084F185E02D09940895AB
:105930002091D4023091D5022817390771F0909345
:10594000D5028093D402E091B101F091B201309779
:1059500021F00680F781E02D09940895E091B101CE
:10596000F091B201309721F00190F081E02D09947F
:1059700080E008950F931F93CF93DF93C42FD22F0E
:10598000FC0182818823C9F04093E9010E94C41E72
:105990009093D3028093D20280E28C0F883008F07B
:1059A00057C0C77081E001C0880FCA95EAF7DF9140
:1059B000CF911F910F910C94532E8091E9014813C0
:1059C00030C08091D2029091D3020E94B51E883CD3
:1059D000910538F510E21D0FCD17B9F080E28C0F5C
:1059E000883040F4C77081E001C0880FCA95EAF79B
:1059F0000E94482E183028F581E09D2F977001C035
:105A0000880F9A95EAF70E94532E802F0E94882FC4
:105A10001830F0F4D77081E001C0880FDA95EAF70A
:105A20000AC080E28C0F883098F4C77081E001C012
:105A3000880FCA95EAF7DF91CF911F910F910C94CF
:105A4000482E802FDF91CF911F910F910C94882FBA
:105A5000DF91CF911F910F910895CF93DF93CFE7FF
:105A6000D2E060E0CE010E94C8302196C11584E0EA
:105A7000D807B9F7DF91CF910895CF92DF92EF92D7
:105A8000FF920F931F93CF93DF93C0E0D0E08E017E
:105A90000A561F4F6E018EE1C80ED11CFE01EB5756
:105AA000F54FE590F4906F2DCE0187960E94C83097
:105AB0006E2DCE0188960E94C8302296CC15DD0549
:105AC00069F70C171D0731F7E80108351240F9F6A0
:105AD000DF91CF911F910F91FF90EF90DF90CF90CA
