:100000000C946D030C94B4030C94B4030C94B403DB
:100010000C94B4030C94B4030C94B4030C94B40384
:100020000C94B4030C94B4030C942E2A0C94E3287F
:100030000C94F61D0C94B4030C94B4030C94B40308
:100040000C94B4030C94B4030C94B4030C94B40354
:100050000C94B4030C94B81D0C94B4030C94B40326
:100060000C94B4030C94B4030C94B4030C94B40334
:100070000C94B4030C94B4030C94B4030C94B40324
:100080000C94B4030C94B4030C94B4030C94B40314
:100090000C94B4030C94B4030C94B4030C94B40304
:1000A0000C94B4030C94B4030C94B40367076A076C
:1000B0008C079907A007C0075E085E085E085E0807
:1000C0005E08C307C507CA07F00713081608190812
:1000D0003D08CF06C908FA0838097709BA09030AA2
:1000E000060A0B0A0E0A130A160A190A1C0A1F0A24
:1000F000220A250A280A2B0A2E0A330A360A390A46
:100100003E0A7D0AC10A0B0B0E0B110B140B190BC7
:10011000240B270B320B350B400B430B4E0B510BB3
:100120005C0B841A841ABE1ABE1A171BBE1CBE1C96
:10013000BE1C331B111C221C221CD01FD01FE31F0E
:10014000E31FD91FE31FE31FE31FD01FD01FDE1FD4
:10015000E31FE31FDE1FF7261E27C5281E27C5281D
:100160006A278D27C52882289228000101010101F4
:100170000101010102020202020202020203030360
:100180000303030303040404040404040505050530
:1001900005060606060607070707070808080809F0
:1001A0000909090A0A0A0B0B0B0C0C0C0D0D0D0E9C
:1001B0000E0E0F0F0F101011111112121313141431
:1001C000151516161717181819191A1A1B1B1C1DA6
:1001D0001D1E1E1F202021222223242425262627FF
:1001E0002829292A2B2C2D2D2E2F30313232333431
:1001F00035363738393A3B3C3D3E3F404142434437
:1002000045464748494A4C4D4E4F50515354555618
:1002100058595A5B5D5E5F616264656668696B6CC4
:100220006D6F7072737577787A7B7D7E808283853F
:1002300087888A8C8E8F91939596989A9C9EA0A27F
:10024000A3A5A7A9ABADAFB1B3B5B7BABCBEC0C289
:10025000C4C6C9CBCDCFD1D4D6D8DBDDDFE2E4E74D
:10026000E9EBEEF0F3F5F8FAFDFF29001E001F00A0
:100270002000210022002300240025002600270062
:100280002D002E002A004A002B0014001A0008003E
:10029000150017001C0018000C00120013002F009E
:1002A000300031004B00390004001600070009003F
:1002B0000A000B000D000E000F0033003400000098
:1002C00028004E00E1001D001B000600190005007B
:1002D00011001000360037003800E5000000520021
:1002E0004D00E000E300E200000000002C000000F0
:1002F0000000E6000000E4005000000051004F0044
:10030000165C3A003B003C003D003E003F004000D0
:10031000410042004300440045004C004A000100F7
:10032000C25CC35CC55CC65CC75CC85CC95CCA5CBB
:100330000100460047004800005C4B000100CB5C18
:10034000CC5C01000100010001000100010001007E
:10035000010001000000DE5C4E00E1000100010030
:100360000100010001000100010001000100010085
:1003700001000000A900A800010001000100000028
:100380000000010000000000010000000100AC00BE
:100390000000AA00AB000100010001000100010003
:1003A0000100010001000100010001000100010045
:1003B0000100010001000100010001000100010035
:1003C0000100010001000100010001000100010025
:1003D0000100010001000100010001000100010015
:1003E0000100010001000100010000000100010006
:1003F00001000100010001000100010001000100F5
:1004000001000100010001000000010001000100E5
:1004100001000100000000000100000000000100D8
:1004200000000100010000000100010001000100C6
:1004300001000100010001000100010001000100B4
:1004400001000100010001000100010001000100A4
:100450000100010001000100010001000100010094
:100460000100010001000100010001000100010084
:100470000100010001000100010001000100010074
:100480000000010001000100010001000100010065
:100490000100010001000100010001000100000055
:1004A0000100010001000100010000000000010046
:1004B0000000000001000000010001000000010038
:1004C000010000000000000000000000000000002B
:1004D000000000000000000000000000000000001C
:1004E0000000000000007E0F00D4FFFFFFC70000E7
:1004F000007800000000000000002A2B2800000007
:1005000000000000000000000000000000290000C2
:1005100000002C1E3420212224342627252E362D9F
:100520003738271E1F202122232425263333362E39
:1005300037381F0405060708090A0B0C0D0E0F10AB
:100540001112131415161718191A1B1C1D2F3130F0
:10055000232D350405060708090A0B0C0D0E0F1094
:100560001112131415161718191A1B1C1D2F3130D0
:10057000354C05010980A101850319012AB7001531
:100580000126B700950175108100C0050C0901A175
:1005900001850419012AA002150126A00295017502
:1005A000108100C005010906A1018505050719E0B4
:1005B00029E7150025019508750181020507190035
:1005C00029EF1500250195F0750181020508190133
:1005D0002905950575019102950175039101C006E4
:1005E00060FF0961A1010962150026FF00952075D1
:1005F0000881020963150026FF0095207508910205
:10060000C005010906A101050719E029E715002524
:100610000195087501810295017508810105071989
:100620000029FF150026FF009506750881000508C2
:10063000190129059505750191029501750391012F
:10064000C009025B00030100A0FA090400000103D5
:100650000101000921110100012240000705810369
:1006600008000A0904010002030000000921110129
:100670000001222200070582032000010705030371
:1006800020000109040200010300000009211101FA
:100690000001226D000705840320000A12011001E9
:1006A00000000008424B0010010001020001140389
:1006B00042004F004F005000360035005200470006
:1006C0004200000010034B0042004400460041007D
:1006D0004E00530000000403090411241FBECFEF95
:1006E000DAE0DEBFCDBF04B603FE27C08091350837
:1006F00090913608A0913708B09138088730904B18
:10070000A740B04BD1F410923508109236081092E1
:1007100037081092380814BE84B7877F84BF0FB69D
:10072000F894A89580916000886180936000109291
:1007300060000FBEE0E0F8E3099514E0A0E0B1E04E
:10074000ECE7FCE502C005900D92A831B107D9F79E
:1007500028E0A8E1B4E001C01D92A533B207E1F79B
:100760000E94B6030C943C2E0C940000CF93DF93B0
:10077000CDB7DEB7AD970FB6F894DEBF0FBECDBFD5
:1007800084B7877F84BF0FB6F894A89580916000E6
:10079000886180936000109260000FBE90E080E856
:1007A0000FB6F89480936100909361000FBE85B7F7
:1007B000806885BF85B7806885BF87E19DE190939C
:1007C0001904809318040E9427290E94CD29809142
:1007D000E20084608093E20078948091F30788239C
:1007E000A1F01091E9001F709091EC00892F8170A9
:1007F00090FD80E8182B1092E9008091E80083FDBD
:100800000E9411261F701093E90082E084BD93E0DE
:1008100095BD9AEF97BD80936E0080EF0E94801384
:1008200081EF0E94801384EF0E94801386EC0E9467
:10083000801386E60E94801301E311E040E4E42E79
:1008400041E0F42ED8018D918D010E948013E016B5
:10085000F106C1F7EAE1F4E084E294E0A7E6B4E04F
:10086000119211921D921D928E179F07C9F780E079
:1008700090E00E94612D8A3E9E4F11F00E949A1EC8
:1008800082E090E00E94592D80935C040E94891EB2
:1008900090932504809324040E949215EFE3FCE9D1
:1008A0003197F1F700C000000E9492158091670413
:1008B00080FF17C06FEF83E290E00E94772D6FEF0B
:1008C00084E290E00E94772D6FEF85E290E00E9435
:1008D000772D6FEF7FEF80E090E00E94952D0E94D2
:1008E000941D83E090E00E94592D682F70E080E015
:1008F00090E00E94AB200E94490F1092FD07E6E1B4
:10090000F8E086E298E02FEF3FEF219331938E17C6
:100910009F07D9F710922904E2E4F4E082E594E01D
:100920002FEF3FEF219331938E179F07D9F780E088
:1009300090E00E94612D8A3E9E4F21F00E949A1EF7
:100940000E94CC1146E050E06CE170E08AE298E051
:100950000E94492D80912A088C7F11F40E94CC11AD
:1009600083E290E00E94592D813281F484E290E08C
:100970000E94592D863051F485E290E00E94592D55
:1009800091E0863109F090E0892F01C080E080FF7E
:10099000C8C3809124048068809324048091240437
:1009A000909125040E947C1E86E091E0909327049C
:1009B0008093260433E5232E312C8E010F5F1F4FC9
:1009C0009E01255F3F4F3CA72BA78091F307853001
:1009D00009F06FC08091F307853009F064C0809101
:1009E000F307843061F140E060E080E00E94AC11E8
:1009F00081E080935A041092280480E4A8E1B0E0DA
:100A00000FB6F894A895A09360000FBE8093600085
:100A100083B7817F846083BF83B7816083BF78940D
:100A2000889583B78E7F83BF0FB6F894A895809181
:100A30006000886180936000109260000FBE80911A
:100A4000F207882381F10E949215E7E6F4E0819194
:100A50009191892B31F421E734E02E173F07B9F744
:100A600022C0F0E1F9BD82E189BD09B400FEFDCFED
:100A70008091D8008F7D8093D8008091E0008260C3
:100A80008093E0008091E00081FDFCCF0E94DA229B
:100A90003FEF53E284EF315050408040E1F700C017
:100AA00000000E94DA220E94DA220E942311109292
:100AB0005A040E94921581110E94DE1DADE5B4E03A
:100AC000E7E6F4E0E12CF12C4E2D819091908D9190
:100AD0009D9188259925009709F4AFC0D12CAA24AF
:100AE000A394B12C9C012A213B21232B09F49FC004
:100AF000D9A24AA38A209B2081E08114910409F4A1
:100B000080E08BA30E94EA1D8160782F9DA38CA3B7
:100B100049A15AA16BA18DA10E945910F701EE0FB6
:100B2000FF1FE35AFB4F80819181A826B926B1822D
:100B3000A082892889F08FE08E9DF0018F9DF00DB5
:100B40001124ED55FD4FED0DF11D80818F3F21F0FA
:100B50008DA7DD24D39401C0D12C90902904ED2CD5
:100B6000F12CC701890D911D0997A4F1E8E0AE2E83
:100B7000B12CAE18BF08B7016F5F7F4F675D7B4F29
:100B8000A5018AE294E00E94332EB701675F7F4F90
:100B9000675D7B4FA50182E394E00E94332EA5019F
:100BA000440F551FB701660F771F675E7F4F675D64
:100BB0007B4F82E494E00E94332EB7016F5E7F4F3B
:100BC000675D7B4FA5018AE394E00E94332E9A94DF
:100BD000909229048091290490E0EDA5AE2FB0E019
:100BE0009D01220F331F22513D4FAA0FBB1FBD0194
:100BF00061517D4F41E0480F9D15B0F490E0FC013C
:100C0000E75DFB4FD9015C915183DB015C9151871A
:100C1000BDA5B18B880F991FFC01E75DFB4F128EBC
:100C2000118E91E0842FE6CF809329041EC0D394C7
:100C3000AA0CBB1C2FE0D21255CF3FEFE31AF30AE8
:100C400055E0E516F10409F03FCF8FEF8EA38FA397
:100C500018A60E94EA1D8160782F9AA789A74EA145
:100C60005FA168A58AA50E945910809152049091B5
:100C70005304A0915404B09155042FB7F894809078
:100C8000560490905704A0905804B09059042FBF78
:100C9000881A990AAA0ABB0A0E94DE1D60935204B0
:100CA000709353048093540490935504A0912904A5
:100CB000E9E2F4E02A2F30E044244A94542C612CD9
:100CC000712C481859086A087B08A31799F0418DC0
:100CD000528D6A01E12CF12C4C145D046E047F04EA
:100CE00010F4215004C0480D591D528F418F3F5FB1
:100CF0003296EBCF2093290420915A04211109C088
:100D000020912A08322F337021F0F22EF694F694B7
:100D100001C0F12C209128012130E9F038F0223077
:100D200009F45BC0233009F462C07EC01092250133
:100D300060932608709327088093280890932908C9
:100D400089E2E9E2F4E0ADEFB7E001900D928A9517
:100D5000E1F781E03FC080910501F8120DC02091BC
:100D60002A08237030E04091040150E081E024170C
:100D7000350719F480E001C081E08170809327017C
:100D800080912F0890912601981709F4E3C1809370
:100D9000260140E060E080E00E94AC11DBC1809160
:100DA0002701882329F040E060E080E00E94AC1138
:100DB00080E0909125019F5F909325018111D5C11D
:100DC00082E080932801809127018111CEC1F1102A
:100DD000CFC183E08093280127C0F0920501809164
:100DE0002A088370809304010E94EC0EF2CF409198
:100DF00026085091270860912808709129082FB77C
:100E0000F8948091560490915704A0915804B091A1
:100E100059042FBF841B950BA60BB70B4A97A1054E
:100E2000B10510F0109228010E94231190915B04EB
:100E3000891721F00E94231180935B048091F307AE
:100E4000843009F0C2CD83E08093E9008091E8000E
:100E500082FFBBCD8091E80085FF23C00E94462918
:100E600081111DC080E2E82EF12CCE0101965C01BB
:100E700009C08091F100D5018D935D01B1E0EB1ABD
:100E8000F10869F08091E80085FDF3CF8091E800DA
:100E90008B778093E8000E944629882399F391E09C
:100EA00001C090E08091E8008B778093E80099235F
:100EB00009F48BCDE9818E2F90E0FC013197E3316D
:100EC000F10508F0FBC0EA5AFF4F0C94262E1A8257
:100ED00089E05EC08A81823009F41AC1833051F002
:100EE000813009F0EBC00E94DE1D9B838C837D83E3
:100EF0006E83E6C0FE013196A7E6B4E08C911196B0
:100F00009C91119712969283838332962BA53CA5D0
:100F10002E173F0799F7D4C08A81823009F0CEC0DE
:100F20006B817C818D819E810E942C2E86E290E0D7
:100F300024C04C816B818A810E9473119D83EFC014
:100F4000AD80BE80BA24AB24BA248C81EB809A8118
:100F50003EE1E39E7001112456E9959FE00CF11CDF
:100F60001124E80EF11CE80EF11C6B2DC7018796C9
:100F70000E94772D6A2DC70188960E94772DA0C008
:100F80000E943F119DC080E152C081E08A8381E8C8
:100F90008B8396C0EA80FB80FE24EF24FE248C80A5
:100FA000912C5801C70181589D4F9501201B310B91
:100FB0002815390508F084C0A1E8EA16A1E0FA0670
:100FC00028F40E94592DF501848303C0D50114969D
:100FD0001C92BFEFEB1AFB0AEFEFAE1ABE0AE2CF8C
:100FE000EA80FB80FE24EF24FE248C80912C5801A3
:100FF000C70181589D4F9501201B310B28153905DC
:1010000008F05EC0F1E8EF16F1E0FF0628F4D50124
:1010100014966C910E94772DBFEFEB1AFB0AEFEF4D
:10102000AE1ABE0AE5CF0E942F114AC084E08A831F
:1010300047C0EA80FB80FE24EF24FE248C80912CA4
:101040005801C70187969501201B310B28153905DA
:10105000B8F5F8E5EF16F2E0FF0630F40E94592DDE
:10106000D50114968C9302C0F5011482FFEFEF1A9C
:10107000FF0A2FEFA21AB20AE4CFEA80FB80FE2417
:10108000EF24FE248C80912C5801C701879695018E
:10109000201B310B2815390598F438E5E31632E0AA
:1010A000F30628F4D50114966C910E94772DBFEFBA
:1010B000EB1AFB0AEFEFAE1ABE0AE7CF8FEF898378
:1010C0008091F307843009F080CC8091E9008F7023
:1010D0002091EC00922F917020FD90E8F92EF82AD3
:1010E00082E08093E9008091E80080FF0CC040E03E
:1010F00050E060E270E0C8010E94E5258091E800C0
:101100008E778093E8008F2D8F708093E9005DCCFF
:1011100086E290E00E94592D1B821C821D828E83E4
:10112000CFCF60E086E290E00E94772D0E943F11D1
:101130000E942F1161E283E290E00E94772D66E029
:1011400084E290E00E94772D66E185E290E00E94C3
:10115000772D1FCC8F2D90E088329105A8F08091DB
:1011600025018F5F809325012BCEFF2009F45CCEF3
:101170000E94231181FF58CE2FEF4FEF6FEF8EE1CA
:1011800090E00E94AE1150CEFC01E759FF4F0C9445
:10119000262EE0902501EE0CEE0CA4E0DA2EDE0CFB
:1011A00083E58D1510F4F3E5DF2E60912B08709127
:1011B0002C0880912D080E948812B62EA72E982EFA
:1011C000ED1490F4EE2DF0E0DF01AC56BC4F8C91A5
:1011D00090912601982331F0292D4B2D6A2DCF01B6
:1011E0000E94AE11E394ECCF81E092E59D1508F0EA
:1011F000E0CDDECDE0902501EE0CEE0CE4E0DE2E3D
:10120000DE0CA3E5AD1510F473E5D72EA0902C08E5
:10121000B0902D0890902B08692D7A2D8B2D0E946F
:101220008812862E772E682E60912E08690D7A2DF1
:101230008B2D0E948812B62EA72E982EED1408F042
:10124000E4C18E2D90E0FC01EC56FC4F30812091E2
:101250002601232359F030FF04C0292D4B2D6A2D80
:1012600003C0262D482D672D0E94AE11E394E6CFD2
:10127000E0902501EE0CEE0C64E0D62EDE0CE3E5EA
:10128000ED1510F453E5D52E80902C0870902D08A4
:1012900020912E0840E4942E392D329F312D1124B7
:1012A000932EED1408F0A9C0AE2CB12CF501EC562C
:1012B000FC4F9081809126018923B9F0F501EE0F52
:1012C000FF1FE151FD4F808182958F7060912B0847
:1012D000899D600D1124782D872D0E948812462F3C
:1012E000282F672FC5010E94AE11E394DACFE0905A
:1012F0002501EE0CEE0C24E0D22EDE0C83E58D15DC
:1013000010F493E5D92E80902C0870902D08209130
:101310002E0880E4982E392D329F312D1124932EE2
:10132000ED1408F06AC0AE2CB12CF501EC56FC4F60
:101330009081809126018923D9F0F501EE0FFF1FDE
:10134000E251FD4F6081969EB0011124B5E0759584
:101350006795BA95E1F780912B08680F782D872D56
:101360000E948812462F282F672FC5010E94AE11B8
:10137000E394D6CFE0902501EE0CEE0CE4E0DE2EF7
:10138000DE0C83E58D1510F473E5D72EA0902B08A5
:10139000B0902C0890902D0860912E086695669567
:1013A000669580912608909127080E947E120E94DF
:1013B000DF11805887FD8195880F282F392D239FB5
:1013C000212D1124822FB5010E948812B62EA72E3E
:1013D000982EED1490F4EE2DF0E0DF01AC56BC4FEA
:1013E0008C9190912601982331F0292D4B2D6A2D57
:1013F000CF010E94AE11E394ECCF81E052E55D1580
:1014000008F0D7CCD5CC82EB9DE002C086E89DE009
:101410000E94F723CECC8BE89EE002C08CE69EE0D3
:101420000E949D23C6CC81E59EE01AC085E39EE024
:1014300017C084E89DE0ECCF8BE79DE0E9CF82E721
:101440009DE0E6CF87E59DE0E3CF88E49DE008C01E
:1014500085E592E1E5CF84E29EE0E2CF80E19EE087
:101460000E942323A6CC8AE19DE005C088EE9CE083
:1014700002C08AEA9CE00E943F249BCC8091270115
:1014800081111DC060912E0820E1620F08F46FEFFA
:1014900080912608909127080E947E126AE070E0F1
:1014A0000E94FE2D892B09F083CC0E94392DB101B9
:1014B0000E94122E609126010E94181379CCA090F0
:1014C00025018A2D880F880F64E0E62EE80E33E5AB
:1014D0003E1510F453E5E52EA82EB12C8E2C912C40
:1014E000A814B9040CF047C060912601C5010E9400
:1014F00018135FEFA51AB50AF3CF80912701811168
:101500001DC060912E0820E1620F08F46FEF8091FA
:101510002608909127080E947E1265E070E00E94E4
:10152000FE2D892B09F044CC0E94392DB1010E9477
:10153000122E609126010E945E133ACCA0902501E4
:101540008A2D880F880F44E0E42EE80E33E53E151F
:1015500010F433E5E32EA82EB12C8E2C912CA81478
:10156000B9044CF460912601C5010E945E135FEF3F
:10157000A51AB50AF4CF81E092E59E1508F019CCC2
:1015800017CCE0902501EE0CEE0C24E0D22EDE0C00
:10159000A3E5AD1510F493E5D92EA0902C08B090DA
:1015A0002D0890902B0860912E086695669566959B
:1015B00080912608909127080E947E120E94DF11D8
:1015C000805887FD8195880F682F2CE0629F612DE0
:1015D0001124690D7A2D8B2D0E948812B62EA72E0C
:1015E000982EED1490F4EE2DF0E0DF01AC56BC4FD8
:1015F0008C9190912601982331F0292D4B2D6A2D45
:10160000CF010E94AE11E394ECCF81E0B2E5BD15AD
:1016100008F0CFCBCDCB80E092E1FACE89E99CE017
:10162000F7CE82E99CE002C08CE89CE00E949E24F8
:10163000C0CB8091FD0721E0382F321B08F430E049
:10164000832F63E77CE03BC063E77CE037C0809199
:10165000FD0721E0582F521B08F450E0852F6BE363
:101660007CE02DC06BE37CE029C08091FD0721E088
:10167000382F321B08F430E0832F69E07CE01FC074
:1016800069E07CE01BC08091FD0721E0582F521BD0
:1016900008F450E0852F61EF7BE011C061EF7BE043
:1016A0000DC08091FD0721E0382F321B08F430E097
:1016B000832F6BED7BE003C06BED7BE080E00E944D
:1016C000082577CB0F931F93CF93DF938335910535
:1016D00008F052C0880F991F880F991FFC01E75B23
:1016E000FE4F508152955F703181732F7295707FDC
:1016F000C72FC52B32953F70D32FD370FC01E65B0B
:10170000FE4F308132953695369533705181752F65
:10171000770F770FA72FA32BB52FB295B695B69558
:10172000B370FC01E85BFE4F8081382F3370982F37
:10173000969596958181582F5295550F550F507C4F
:10174000052F092B86958695182F1370EFE5F1E08C
:101750003E9FC0013F9F900D11248B529A4FFC0178
:10176000E00FF11F6083C80FD91F4883A80FB91F6E
:101770002C9381E08093D405DF91CF911F910F913D
:101780000895FF920F931F93CF93DF93182F062F87
:10179000F42EC0E0D0E02F2D402F612FCE010E940B
:1017A000620B2196C335D105B1F7DF91CF911F911F
:1017B0000F91FF900895EF92FF920F939701201BD6
:1017C00031092F3F310519F010F02FEF30E020954F
:1017D000382F320F08F43FEF832F0F91FF90EF90D7
:1017E0000895EF92FF920F939701201B31092F3F2D
:1017F000310519F010F02FEF30E0322F3095482FDF
:10180000430F08F44FEF842F620F0F91FF90EF907A
:101810000895EF92FF920F93972F093438F4B70190
:10182000601B71096F3F710519F010F06FEF70E0E8
:10183000485F5F4F4131510540F0A901485F5F4F5C
:101840004131510510F06FEF70E06095482F460F61
:1018500008F44FEF842F37FF02C02D5F3F4F3595BF
:1018600027953595279560912B08620F792F0F9159
:10187000FF90EF900895EF92FF920F93E00EF11C0E
:10188000F90137FF03C0F195E195F10924E0EE0F6E
:10189000FF1F2A95E1F7EF3FF10519F014F0EFEF84
:1018A000F0E09A0157FF03C031952195310994E08A
:1018B000220F331F9A95E1F72E173F070CF4F90119
:1018C000EE0DFF1DEF3FF10519F010F0EFEFF0E026
:1018D0002E2F2095382F320F08F43FEF832F0F91D2
:1018E000FF90EF900895EF92FF920F93970195E08C
:1018F000099F200D311D11242F3F310519F010F0E3
:101900002FEF30E02095382F320F08F43FEF832F70
:101910000F91FF90EF90089522E8241B08F420E037
:10192000620F08954095282F429F412D1124842F46
:101930000895E42FF0E0EE0FFF1FE251FD4F90817C
:10194000921B97FD9195292F38E1239F212D11247A
:10195000620F08950F931F9310E0F801EE0FFF1F21
:10196000E251FD4F9081905797FD9195000F111F07
:10197000F801E151FD4FE081F0E0B097DF01AA0FDF
:10198000BB1F8D010E0F1F1F2003D001219FB00D23
:101990001124E8E3F0E0E91BF10997FDF3959F01BD
:1019A000220F331F89010E0F1F1F40039001419F1B
:1019B000300D11242A0F3B1F37FF02C021583F4F23
:1019C000220F232F221F330B620F1F910F910895B7
:1019D0000F931F93522F10E0F801EE0FFF1FE151FC
:1019E000FD4FE081F0E0B097EE0FFF1F9F01520323
:1019F000D001539FB00D1124000F111FF801E251C7
:101A0000FD4F008110E000571109000F111F400326
:101A10009001419F300D11242A0F3B1F37FF02C058
:101A200021583F4F220F232F221F330B620F1F918C
:101A30000F9108950F931F93522F10E0F801EE0FAE
:101A4000FF1FE151FD4FE081F0E0B0979F0152038D
:101A5000D001539FB00D1124000F111FF801E25166
:101A6000FD4F008110E00057110940039001419F94
:101A7000300D11242A0F3B1F37FF02C021583F4F62
:101A8000220F232F221F330B620F1F910F910895F6
:101A9000EF920F931F9393E0099F800111241595F6
:101AA00007956E2D600F1F910F91EF900895A22F53
:101AB00050E0FA01EE0FFF1FE151FD4F908190526F
:101AC00097FD9195440F551FFA01E251FD4F30816A
:101AD000232F30E02A1B3109290F311D97FD3A953C
:101AE000620F0895E42FF0E0EE0FFF1FE151FD4F6C
:101AF0006081621B0895E42FF0E0EE0FFF1FE251BA
:101B0000FD4F6081621B0895622F0895E42FF0E07D
:101B1000EE0FFF1FE251FD4F408134EE439F412DF8
:101B20001124E82FF0E050E0445E5F4FDA01A21B81
:101B3000B1099D01B7FF03C031952195310993E0AB
:101B4000220F331F9A95E1F7AF01421B530B9A0105
:101B500057FF02C020E030E0582F259F212D11248F
:101B6000822F0895E42FF0E0EE0FFF1FE251FD4FAA
:101B7000408134EE439F412D1124E72FF0E050E0E7
:101B8000445E5F4FDA01A21BB1099D01B7FF03C09C
:101B900031952195310993E0220F331F9A95E1F792
:101BA000AF01421B530B9A0157FF02C020E030E007
:101BB000279F212D1124722F0895FC019B0100976E
:101BC00021F477FF2BC080E80895AC0197FF04C093
:101BD00044275527481B590BB901640F751F37FD62
:101BE0000CC0241B350BC901A5E0880F991FAA95CD
:101BF000E1F70E94122E80E20CC0CB0165E0880F55
:101C0000991F6A95E1F7BA01621B730B0E94122EAD
:101C100080E6861BF7FF03C08195089580E0089554
:101C2000EF920F93CF93DF93D72FC82FC9010E19CF
:101C3000BA010E94DD0D602F681B7D2F8C2FDF9174
:101C4000CF910F91EF9008950F93CF93DF93D72FFC
:101C5000C82FC901BA010E94DD0D682F600F7D2FCA
:101C60008C2FDF91CF910F910895EF920F931F93D7
:101C7000CF93DF93D62FC72F182FC9010E19010F4D
:101C8000BA010E94DD0D081B202F219F212D112458
:101C9000822F6D2F7C2FDF91CF911F910F91EF90AD
:101CA0000895EF920F931F93CF93DF93D62F172FA3
:101CB000C82FC9010E19070FBA010E94DD0D702F40
:101CC000781B719F712D11246D2F8C2FDF91CF9177
:101CD0001F910F91EF900895FF920F931F93CF9351
:101CE000DF93F62ED72F182FC901C12FC01BBA01C1
:101CF0000E94DD0D982F990F890FC81B2C2F219F53
:101D0000212D1124822F6F2D7D2FDF91CF911F91D7
:101D10000F91FF900895FF920F931F93CF93DF933E
:101D2000F62E172FD82FC901C72FC01BBA010E944A
:101D3000DD0D982F990F890F7C2F781B719F712DC6
:101D400011246F2D8D2FDF91CF911F910F91FF9057
:101D500008959091240492FF0DC0282F28712830F7
:101D600019F4877F846006C0282F2471243011F471
:101D70008B7F886093FF0DC0282F2871283119F4BC
:101D8000877E846106C0282F2471243111F48B7E54
:101D900088612091250420FF0DC0382F387138301C
:101DA00019F4877F816006C0382F3171313011F40A
:101DB0008E7F886021FF0DC0282F2871283119F4EB
:101DC000877E816106C0282F2171213111F48E7E1A
:101DD000886194FD877E08950F931F93CF93DF93BF
:101DE0008091D405882309F44DC065EC8EEF0E94E4
:101DF000D92560E08DEF0E94D925C0E0D0E004EB4A
:101E000010E0CE01B8010E94122E8093110182E1F0
:101E1000FE01EB52FA4FA2E1B1E001900D928A95DA
:101E2000E1F724E630E043E150E061E171E080E673
:101E30000E94C62C892B31F56296C63581E0D80701
:101E400061F0C43BD105E9F665EC8EEF0E94D9251F
:101E500061E08DEF0E94D925D4CF82EA80931101F1
:101E600089E0EBE2F7E0A2E1B1E001900D928A9502
:101E7000E1F724E630E04AE050E061E171E080E61D
:101E80000E94C62C1092D405DF91CF911F910F9123
:101E90000895EF92FF920F931F93CF93DF930E94C9
:101EA000392C65EC8EEF0E94D92564E08DEF0E94FD
:101EB000D92561E080E00E94D9256FEF81E00E9482
:101EC000D92567E782E00E94D9258FE39CE9019735
:101ED000F1F700C00000A0E0B0E0CFE5D1E0FF24C2
:101EE000FA94EE24E394CD01880F991F880F991F6F
:101EF000FC01E75BFE4F308132953F702181422F1C
:101F00004295407F642F632B22952F70722F737040
:101F1000FC01E65BFE4F4081429546954695437035
:101F20005181E52FEE0FEE0F2E2F242B352F3295FA
:101F3000369536953370FC01E85BFE4F4081842F67
:101F4000837090E0542F569556954181E42FE29589
:101F5000EE0FEE0FE07C0E2F052B46954695142FC5
:101F600013708C9FA0018D9F500D9C9F500D1124CC
:101F70004C585B4FFA01E00FF11FF082FA01E60FB7
:101F8000F71FF082FA01E20FF31FF082FC01ED521D
:101F9000FA4FE0821196A335B10509F0A4CF8091E4
:101FA000D305882351F165EC8EEF0E94D92562E0BC
:101FB0008DEF0E94D92504E714E0C0E0F80161919B
:101FC0008F018C2F0E94D925CF5FC43BB9F765ECF8
:101FD0008EEF0E94D92563E08DEF0E94D92508E29B
:101FE00015E0C0E0F80161918F018C2F0E94D92586
:101FF000CF5FCB3AB9F71092D305DF91CF911F9104
:102000000F91FF90EF900895EAE2F8E0438120E11C
:10201000421B08F440E08181628190E00C94C92564
:10202000EAE2F8E0438120E1420F08F44FEF8181BA
:10203000628190E00C94C925EAE2F8E0628120E137
:10204000621B08F460E08181438190E00C94C92513
:10205000EAE2F8E0628120E1620F08F46FEF81812B
:10206000438190E00C94C925EAE2F8E0818190E098
:102070004381628108970C94C925EAE2F8E08181E6
:1020800090E04381628108960C94C92580912A08CA
:1020900086958695815009F487E20C940D238091F2
:1020A0002A08869586958F5F883208F081E00C9427
:1020B0000D231F93CF93DF93CDB7DEB767970FB68E
:1020C000F894DEBF0FBECDBF342F4B8B252F5C8B1A
:1020D0006D8B7E8B8F8B4E895F8961111092C80743
:1020E00086E0FE013D96DF01982F1D929A95E9F753
:1020F0003D872E876F87598B488BDE01179601909D
:102100000D928A95E1F7CE0107960E942B2181114D
:102110003EC086E0FE013796DE01119601900D92D9
:102120008A95E1F7FF81E8856A857B8561157105F0
:1021300031F0EF3F31F481E0FF3F19F403C081E05B
:1021400001C080E080FD23C02091620730E0C9011A
:102150000196877099274091930750E0841795075F
:1021600079F1F983EA837D836C8396E0929FD001B5
:10217000939FB00D1124AD59B84FFE0131960190D7
:102180000D929A95E1F7809362070E94B52016E0C0
:1021900080919307909162078917F9F0189FC00109
:1021A00011248D59984F0E942B218823B1F08091E2
:1021B000930790E001968770992780939307E8CF63
:1021C0000E94DA221092620710929307ECE5F7E082
:1021D00086E0DF011D928A95E9F767960FB6F894BD
:1021E000DEBF0FBECDBFDF91CF911F91089520912B
:1021F0003807309139072817390771F0909339075C
:1022000080933807E0912604F0912704309721F05D
:102210000084F185E02D09940895209136073091CE
:1022200037072817390771F09093370780933607DF
:10223000E0912604F0912704309721F00680F78181
:10224000E02D09940895E0912604F0912704309739
:1022500021F00190F081E02D099480E00895CF9362
:10226000DF93CFE7D2E060E0CE010E94772D219688
:10227000C11584E0D807B9F7DF91CF910895CF92C7
:10228000DF92EF92FF920F931F93CF93DF93C0E003
:10229000D0E08E010A561F4F6E018EE1C80ED11C90
:1022A000FE01E659FD4FE590F4906F2DCE01879623
:1022B0000E94772D6E2DCE0188960E94772D229652
:1022C000CC15DD0569F70C171D0731F7E801083556
:1022D0001240F9F6DF91CF911F910F91FF90EF908F
:1022E000DF90CF9008950F931F93CF93DF93C42F68
:1022F000D0E0CC0FDD1F2EE1629FC00DD11D112457
:1023000036E9839FC00DD11D1124CE0187960E940E
:10231000592D082F10E0102F0027CE0188960E941B
:10232000592D9801282BC901DF91CF911F910F9151
:102330000895462F843038F4753028F46F3018F43F
:10234000672F0C94731180E090E00895882311F0BA
:10235000FA0101C0FB0109940C94C10B0C94620BAF
:1023600046E050E06CE170E08AE298E00C94672D62
:10237000EAE2F8E0248130E1230F08F42FEF248310
:102380000C94B011EAE2F8E0248130E1231B08F458
:1023900020E024830C94B011EAE2F8E081E380832A
:1023A0008091290190912A01A0912B018183928330
:1023B000A3838FE784838FEF85830C94B011482F1C
:1023C000982F46FD9095E92FEF739F7046FD9F5F14
:1023D000E295EF70EE0FF0E0E05CFE4F2181299F67
:1023E000802D212D112482958F702295207F822BA4
:1023F0003081982F930F892F47FD8195805808953C
:102400000F931F93CF93DF93D62F072F182FC42F2F
:10241000822F0E94DF11EC2FF0E0EE0FFF1FE25140
:10242000FD4F90819058890F87FD8195880F682F07
:102430002CE0629F612D11246D0F702F812FDF9191
:10244000CF911F910F910895BC018230910508F43E
:102450000895613E8EE1780748F49B0195E036953A
:1024600027959A95E1F748E0420F01C04FEF91E0C0
:10247000242F30E0290F311D35952795229FF0013B
:10248000239FF00DF00D11246E177F0718F44FEF06
:10249000420F04C02F3F39F091E0920F491740F7E7
:1024A0008FEF890F08958FEF08950F93CF93DF93E8
:1024B000D72FC82F47FD4195E8E3F0E0CF01841BFB
:1024C000910947FD9395889FB001899F700D700D0C
:1024D0001124229FC001239F900D900D1124860F7F
:1024E000971F0E942412682F660F860F682F600FB7
:1024F0007D2F8C2FDF91CF910F91089520E030E058
:10250000869F212D969F200D311D1124C90108950C
:10251000CF92DF92EF92FF920F931F93CF93DF93AF
:10252000F62E472FE82FF0E0711106C0E659FE4F56
:102530008491782F682F73C0272F30E0E659FE4F23
:10254000E491FE2F0E2F10E056E0659FC00111248C
:10255000CFEFD0E0BE010E94FE2D5BEA5603C00122
:10256000579F900D11248F0D911D8F0D911D982F48
:10257000990F980F7E01E21AF30AE09ED001E19EC6
:10258000B00DF09EB00D11248B2F499FA001112496
:10259000452F55277E01E41AF50AE09EA001E19E31
:1025A000500DF09E500D11246E01C91AD108C29E23
:1025B0007001C39EF00CD29EF00C11242F2D3327F6
:1025C000C21BD30BC09F9001C19F300DD09F300D17
:1025D0001124932F6230710591F048F46115710553
:1025E000E1F061307105B9F49E2FE52F16C064301B
:1025F000710569F040F06630710579F00CC09E2FCE
:10260000EB2F832F0AC0EB2F8F2F952F06C09B2F08
:102610008E2FE32F02C09B2F852F7E2F692FDF91F6
:10262000CF911F910F91FF90EF90DF90CF90089581
:10263000DF92EF92FF920F931F93CF93DF93EC0102
:10264000FC01EC56FC4F9081692381F1D0902C085D
:1026500000912D0810912B08E12EF12C0E94392DAC
:10266000282FC7018C549F4F68E671E00E94122EFC
:102670008E199F0997FD0396959587959595879552
:102680002370612F289F600D11247D2D802F0E94C3
:102690008812462F282F672FCE01DF91CF911F91EF
:1026A0000F91FF90EF90DF900C94AE11DF91CF91DE
:1026B0001F910F91FF90EF90DF9008951F93CF939C
:1026C000DF93FC01EC56FC4F20816223A9F0EC0162
:1026D0000E94392D182F0E94392D612F782F80915B
:1026E0002D080E948812462F282F672FCE01DF91D8
:1026F000CF911F910C94AE11DF91CF911F9108954E
:10270000F894E82FE295EF70F0E031A1282F2F70B8
:1027100081E090E001C0880F2A95EAF7982F909504
:10272000932391A392A1892B82A378940895CF93A8
:10273000DF930E949911EC018238910559F1A0F4C0
:102740008133910509F473C040F48932910509F48D
:1027500067C08A9709F472C084C08533910509F473
:1027600058C0C997B9F07DC0833E910571F138F426
:10277000803E9105B1F0823E910511F172C0863E16
:102780009105B9F1873E9105C9F1843E910509F0A3
:1027900068C024C08091240480FD5DC081FD5BC0C1
:1027A00060C08091240480FD50C08091250480FF8A
:1027B00036C18091240484FD30C1C3EED0E02FC126
:1027C0008091240482FF2BC1F4CF8091240482FDE8
:1027D0003FC08091250480FD3EC0EBCF8091250451
:1027E00081FF1DC18091240484FD17C1C7EED0E094
:1027F00016C18091240483FF12C1F4CF8091240478
:1028000083FD2CC08091250481FFECCFC4EED0E085
:1028100006C18091240485FF02C1C9E2D0E0FFC057
:102820008091240485FFFBC0C5E3D0E0F8C080910F
:10283000240486FFF4C0CAE2D0E0F1C080912404F1
:1028400086FFEDC0C1E3D0E0EAC0C9E3D0E0E7C055
:10285000C2EED0E0E4C0C0EED0E0E1C0C6EED0E011
:10286000DEC0C11582E5D80708F066C0C11591E544
:10287000D90728F0DC2FCC27C16FD06AD0C0C83E62
:10288000D10560F5C03ED10508F0C9C0C83AD105F0
:10289000B0F4C53AD10540F0C55AD0E0C951DC4F7B
:1028A000C881D0E0D064BBC0C130D10509F4B7C045
:1028B00008F4B3C0C430D10508F4AFC0B0C0CF3BFA
:1028C000D10508F0AAC0C85AD0E0CC0FDD1FC65110
:1028D000DC4F0990D881C02DD464A1C0C11520E57A
:1028E000D207E0F0CE0174E0969587957A95E1F7EE
:1028F00083709C2F937021E030E002C0220F331FC1
:102900009A95E2F73C68382BCF70C695C69580E261
:10291000C89FE0011124C22BD32B81C0C11580E4D4
:10292000D80718F0DF70D06A7AC0CE019A95811569
:102930009F4108F474C071C0C11586E5D807F0F551
:10294000C11595E5D90750F08C2F0E94A90E8F7103
:10295000C82FD0E0DC2FCC27D06261C0C11524E5A0
:10296000D20728F0DC2FCC27C46FD06A58C09E0154
:10297000237033278C2F86958695C115D34578F41F
:10298000C1E0D0E002C0CC0FDD1F2A95E2F720E2C3
:10299000829FC0011124C82BD92BDC6840C0C1E044
:1029A000D0E002C0CC0FDD1F2A95E2F720E2829F23
:1029B000C0011124C82BD92BDA6831C0C1152AE512
:1029C000D207E8F4C11589E5D80780F08C2F8F7005
:1029D0000E94A90E94E0D695C7959A95E1F7CF701D
:1029E000D0E0DC2FCC27D069C82B19C0C11598E5E1
:1029F000D90798F0DC2FCC27C06FD06A10C0CE0169
:102A000090568115904248F48D2F8F710E94A90E27
:102A1000DD27D0628F71D82B02C0C0E0D0E0CE019C
:102A2000DF91CF9108950F931F93CF93DF93C42F1E
:102A3000122FFC0182818823C9F040933A070E943B
:102A4000EA1D909335078093340780E28C0F88301D
:102A500008F063C0C77081E001C0880FCA95EAF72B
:102A6000DF91CF911F910F910C946C2B80913A07BD
:102A700048133CC020913407309135074FB7F89484
:102A80008091560490915704A0915804B091590434
:102A90004FBF821B930B883C910540F5D0E2D10FCC
:102AA000C117B9F080E28C0F883040F4C77081E024
:102AB00001C0880FCA95EAF70E94612BD83030F523
:102AC00081E0912F977001C0880F9A95EAF70E94D4
:102AD0006C2B802F0E941B2CD830F8F4212F2770EC
:102AE00081E001C0880F2A95EAF70AC080E28C0FC6
:102AF000883098F4C77081E001C0880FCA95EAF762
:102B0000DF91CF911F910F910C94612B802FDF915A
:102B1000CF911F910F910C941B2CDF91CF911F919E
:102B20000F9108959F92AF92BF92CF92DF92EF9252
:102B3000FF920F931F93CF93DF930CE211E0CAE152
:102B4000D4E084E2E82E84E0F82E912CCC24C394C7
:102B5000D12CB801D8018C91F894E82FE295EF7050
:102B6000F0E021A18F70A60102C0440F551F8A9585
:102B7000E2F7CA01922F982B91A392A18095892305
:102B800082A3789400C0E1E3F1E020E030E0A12CE2
:102B9000B12C4191842F82958F7090E0DC0190964A
:102BA0008C9190E04F7002C0959587954A95E2F719
:102BB00080FD08C0C601022E02C0880F991F0A942A
:102BC000E2F702C080E090E0A82AB92A2F5F3F4FC9
:102BD0002F303105F1F60F5F1F4FFB0180810E94FE
:102BE0008013F0EAFA95F1F788819981A816B90661
:102BF00021F0B982A88281E001C080E0982A229663
:102C0000EC16FD0609F0A5CF992049F081E08093EC
:102C100073040E94EA1D9093720480937104809162
:102C200073048823E9F120917104309172044FB745
:102C3000F8948091560490915704A0915804B09153
:102C400059044FBF821B930B069750F180911A04D1
:102C500090911B04909368048093670480911C04F6
:102C600090911D0490936A048093690480911E04DE
:102C700090911F0490936C0480936B0480912004C6
:102C80009091210490936E0480936D0480912204AE
:102C9000909123049093700480936F0410927304B6
:102CA000892DDF91CF911F910F91FF90EF90DF90D1
:102CB000CF90BF90AF909F9008953F924F925F92B8
:102CC0006F927F928F929F92AF92BF92CF92DF923C
:102CD000EF92FF920F931F93CF93DF93CDB7DEB7A1
:102CE00029970FB6F894DEBF0FBECDBFFC018081DF
:102CF000918123813481232B31F09F3F31F491E086
:102D00008F3F19F403C091E001C090E090FD73C6BD
:102D10007F0185E0DE01119601900D928A95E1F721
:102D2000F701228189819A81222349F00E94711F33
:102D3000182F682F89819A810E94132003C00E9456
:102D4000E71F182F69817A81812F0E9499118C01C8
:102D5000F7018281882309F4F2C0980122513F458E
:102D60002031310508F019C18FEF93E00E94592DF1
:102D70008111EFC002513FE7832E32E0932E0023F2
:102D800079F08114F4E09F0609F4E3C0C4010E94C5
:102D9000592D811101C001501FEF811A910AEFCF07
:102DA0001E821F8218861986442443942AE0322EFC
:102DB00084010F5F1F4FC4010E94592D8E831F8213
:102DC000882309F4C6C09FEF980F933060F48F8377
:102DD0004E8222E0820E911CC8010E94592D8887E4
:102DE000811102C0B6C048018E010A5F1F4FF80171
:102DF00020812223E9F2213009F04CC08181813009
:102E000049F46801F2E0CF0ED11CF80182810E94E2
:102E10001B2C0AC0823051F46801F2E0CF0ED11CA5
:102E2000F80182810E94A82B860186C0833049F474
:102E30006801F2E0CF0ED11CF80182810E94762B4E
:102E4000F3CF843019F00F5F1F4F76C0F801228155
:102E50000E5F1F4F80E090E030E0205331092A30B0
:102E6000310568F4389EA001399E500D1124C90126
:102E7000840F951F0F5F1F4FF8012081EDCF009742
:102E800009F45AC0EFE9FFE03197F1F700C0000004
:102E90000197F5CFE22FF0E0EE50FB4F5490822FD8
:102EA00086958695869590E0FC01EE51FB4F6490E7
:102EB0002770712C022E02C0759467940A94E2F771
:102EC000F1E06F227724FC01EE52FB4FA490B12C6D
:102ED000022E02C0B594A7940A94E2F731E0A3222F
:102EE000BB24FC01EE53FB4FC490D12C02C0D594FF
:102EF000C7942A95E2F781E0C822DD2461147104A9
:102F000019F081EE0E94A82BA114B10419F086EEED
:102F10000E94A82B852D0E941B2CAB2819F086EE51
:102F20000E94762B672819F081EE0E94762BCD281F
:102F300019F08CE20E941B2C0F5F1F4F58CF0031FD
:102F40003FE5130709F04EC581E00E9448200E942A
:102F5000EF228091C607877009F44DC5F701828181
:102F6000882309F448C582E029960FB6F894DEBF9D
:102F70000FBECDBFDF91CF911F910F91FF90EF90CA
:102F8000DF90CF90BF90AF909F908F907F906F9089
:102F90005F904F903F900C946D200031FFE51F072C
:102FA00011F481E005C001312FE5120721F482E020
:102FB0000E948A20CCCF033FFCE51F0749F406E2BC
:102FC00021EE40EE63EF7CE5C7010E941315C1CFEF
:102FD000043F2CE5120708F042C1083D3CE5130709
:102FE00031F407E225EE45EE68ED7CE5EDCF093DD5
:102FF0009CE5190731F408E221E045EE69ED7CE536
:10300000E3CF073DECE51E0731F406E221EE41EE89
:1030100067ED7CE5D9CF882309F456C110923A07B1
:1030200002309CE5190708F439C10631ECE51E07AA
:1030300030F0C8018A5F9C45099708F02FC10E94B3
:10304000891E90932504809324040031FCE51F071A
:1030500009F4C3C008F041C008303CE5130709F487
:103060009AC0F0F404309CE5190709F487C068F4AD
:103070000230FCE51F0709F477C003301C4509F056
:10308000E5C080912404826076C006303CE51307D9
:1030900009F46EC008F07BC08091240488606BC086
:1030A0000C309CE5190709F485C068F40A30FCE58A
:1030B0001F0709F474C008F079C00E94DA228091D9
:1030C0002404806858C00E303CE5130709F476C02C
:1030D00008F07FC0809124048BC00B3F9CE519074A
:1030E00009F44FC018F50331FCE51F0709F47DC052
:1030F00078F401313CE5130709F473C002311C4533
:1031000009F0A4C00E94DA22809124048F7733C092
:1031100005319CE5190709F472C008F486C00A3F1E
:103120001C4509F093C0809125043EC00F3F2CE55B
:10313000120709F45FC058F40D3F8CE5180709F435
:1031400044C008F43FC08091250482602DC0013046
:10315000EDE51E0709F475C008F45DC002301D4599
:1031600009F074C060E06EC080912404816003C0E7
:103170008091240480618093240468C08091240499
:1031800011C0809125048260809325045FC08091E6
:1031900024048062F0CF809124048064ECCF80917D
:1031A000240488608460E7CF8160EECF809124049E
:1031B0008E7FE1CF809124048D7FDDCF8091240428
:1031C000877FD9CF8091250418C0809125048D7FF9
:1031D000DBCF809124048F7ECECF809124048F7D1D
:1031E000CACF809124048F7BC6CF80912404877F2F
:1031F0008B7FC1CF809125048D7F8E7FC5CF80913D
:10320000240482FB222720F991E0922790FB82F987
:1032100090FB83F9B0CF80912504982F9095917001
:103220008E7F892B90FB81F9AFCF0E94DA228091AB
:10323000240487FB222720F991E0922790FB87F94D
:103240009ACF61E08EE090E00E94772D8091240477
:10325000909125040E947C1E0E94DA227ACE053FBE
:10326000FCE51F0731F406E221EE42EE65EF7CE556
:10327000ABCE053F2CE5120730F407E225EE44EE15
:1032800064EF7CE5A1CE063F3CE5130709F0C3CE11
:1032900007E225EE46EE66EF7CE596CE8091C90703
:1032A00006319CE5190709F58A7A91E009F490E066
:1032B00090933B07882311F065E301C069E28CE33A
:1032C00097E00E94471E0EC006311C4509F0D6C08B
:1032D00080913B07882309F48CC365E38CE397E076
:1032E0000E941F1E0E940B1F34CE82720A3C3CE5D6
:1032F000130709F47BC098F5053CECE51E0709F4BB
:1033000061C0B8F4033C2CE5120709F451C008F081
:1033100054C0023C8CE5180709F07FC090912A0840
:1033200081E0892780932A08109228010E94B01119
:1033300010CE073C9CE5190709F44EC008F447C0BD
:10334000083CFCE51F0709F44CC0093C2CE51207BA
:1033500009F063C044E050E160E170E155C00F3C0A
:103360003CE5130709F455C098F40C3CECE51E0746
:1033700009F446C008F43FC00D3C2CE5120709F4DF
:1033800046C00E3C3CE5130709F047C085E042C04B
:10339000063D8CE5180730F4013D1C4508F0D9CDF9
:1033A00082E138C00D35EDE51E0709F4D2CD35C0F8
:1033B00046E450E16FE470E127C04FE450E166E479
:1033C00070E122C044E350E16DE370E11DC04DE3C4
:1033D00050E164E370E118C04CE150E168E270E153
:1033E00013C048E250E16CE170E10EC040E150E1F1
:1033F00064E070E109C042EC51E168EB71E104C0A6
:1034000048EB51E162EC71E10E94A611A2CD81E08E
:1034100001C08DE00E940D239CCD0A35FDE51F07FC
:1034200041F150F401153CE51307A9F00E3D1C4590
:1034300029F50E949A1E8DCD0B359DE51907D9F00F
:103440000C351D45D9F48091250482FB882780F92D
:1034500091E0892711C00E94DA22FFEF04E31CE00B
:10346000F15000401040E1F700C000000E94941DA0
:1034700070CD81E001C080E00E945F1FF701828172
:1034800000811181882349F0C8010E94711FD82E44
:10349000682FC8010E94132004C0C8010E94E71FC2
:1034A000D82EB8018D2D0E9497138C01982EF7010C
:1034B000B280A580A2949FE0A9228091C607877060
:1034C00099F0BB2089F0812F807F803421F080E249
:1034D000800F883048F082E00E946D208091C607FE
:1034E0008770DD24D3948111D12CC12EC2948FE03A
:1034F000C8228C2D90E08C30910508F03FC2FC0171
:10350000EF56FF4F0C94262E812F807F1F7088234B
:1035100011F01295107FBB20B9F0112309F419C2E4
:1035200080E2800F883010F0911006C08091C907AA
:10353000182B1093C90705C08091C807182B10934A
:10354000C8070E940B1F05C2802F0E94762B1123F3
:1035500009F414C2005E1095083010F0911006C0F6
:103560008091C90718231093C90705C08091C80727
:1035700018231093C8070E940B1F00C2812F807F61
:103580001F70803211F01295107F992021F0F1E028
:103590009F1611F130C0BB20B1F0AA2081F001E0EC
:1035A000A0120DC08091250482FDE8C18091CA0758
:1035B000182B181709F4E2C11093CA07DFC18091D4
:1035C000CA07812B10C0AA2021F021E0A21609F41D
:1035D000D5C10E94051F27C0BB2041F035E03A1538
:1035E00008F4CCC1812F0E946C2BC8C184E08A15DD
:1035F00008F4C4C118C0BB2049F0AA2099F3F70110
:10360000858180FFA6C18F708583ECCFAA2059F0F9
:10361000093309F0B0C1FFEF17EE23E0F15010407D
:103620002040E1F7A6C1812F0E94612BA7C1812F05
:1036300086958695837019F0813059F09FC1BB2023
:1036400019F0C801937002C080E090E00E940D1153
:103650009BC1BB2019F0C801937002C080E090E0CC
:103660000E94F71091C1812F837009F069C0B110D9
:1036700089C1902F929596959770990F990F802FE9
:103680008F70882E912CA12CB12C092E04C0880C8F
:10369000991CAA1CBB1C0A94D2F704FF12C04FE06D
:1036A00050E060E070E004C0440F551F661F771FB4
:1036B0009A95D2F7DB01CA0180959095A095B095B7
:1036C00003C080E090E0DC0116951695412F437011
:1036D000423019F1C8F40091CB071091CC0720912A
:1036E000CD073091CE07413059F088299929AA2970
:1036F000BB29BC01CD0160237123822393230AC01F
:10370000802A912AA22AB32ABC01CD0168297929ED
:103710008A299B290E94AB2035C188299929AA2989
:10372000BB290091CB071091CC072091CD07309198
:10373000CE07BC01CD016027712782279327EACFEE
:10374000BB2019F0812F817001C08695882309F470
:1037500019C1902F929596959770990F990F802F78
:103760008F70882E912CA12CB12C092E04C0880CAE
:10377000991CAA1CBB1C0A94D2F704FF12C04FE08C
:1037800050E060E070E004C0440F551F661F771FD3
:103790009A95D2F7DB01CA0180959095A095B095D6
:1037A00003C080E090E0DC0116951695412F437030
:1037B0004230D9F068F5009130081091310820911D
:1037C000320830913308413059F088299929AA29C3
:1037D000BB29BC01CD0160237123822393231EC02A
:1037E000802A912AA22AB32A13C088299929AA29B2
:1037F000BB29009130081091310820913208309196
:103800003308BC01CD01602771278227932706C0AA
:10381000BC01CD01682979298A299B290E943E2073
:10382000B1C01F70BB2039F0812F0E948A20802FE9
:103830000E946C2BA7C0802F0E94612B812F0E94B9
:103840004820A0C0802F32EF931609F440C03915EC
:1038500038F090EF991661F0E1EF9E1699F174C07F
:10386000F3EF9F16D9F124EF921609F44EC06CC005
:10387000BB2019F134E03A1508F480C01F7181E0D3
:1038800090E0A0E0B0E0AC01BD0104C0440F551FC2
:10389000661F771F1A95D2F78091300890913108F2
:1038A000A0913208B09133088A019B01082719279B
:1038B0002A273B27C901B80125C025E02A1508F4AD
:1038C0005DC0DCCFBB2029F0812F8F7130C0BB20C1
:1038D000D9F3812F8F710E94482050C0BB2079F00E
:1038E0001F7181E090E0A0E0B0E0BC01CD0104C018
:1038F000660F771F881F991F1A95D2F703C060E0E3
:1039000070E0CB010E943E2039C0BB2099F01F71AE
:10391000812F0E948A208091250482FD07C038E013
:10392000139FC001112483608093C607812F0E94DA
:103930008A2024C081E00E946D2081E08A15F0F485
:1039400082E00E946D201AC0BB2039F0AA2009F441
:10395000BBCF802F0E94A82B11C0AA2009F4B9CF99
:10396000893349F49FEFE7EEF3E09150E040F040F7
:10397000E1F700C00000802F0E94762B88EF8C0DAD
:10398000843010F40E942311DD20A9F18091C60734
:1039900080FD31C0F70112828595859585950E943D
:1039A0008A20C7010E945D168091C607859585957E
:1039B000859529960FB6F894DEBF0FBECDBFDF9177
:1039C000CF911F910F91FF90EF90DF90CF90BF901C
:1039D000AF909F908F907F906F905F904F903F90AF
:1039E0000C94482001319FE5190709F0E4CA82E0F0
:1039F000ACCA69E273CC29960FB6F894DEBF0FBE4D
:103A0000CDBFDF91CF911F910F91FF90EF90DF908D
:103A1000CF90BF90AF909F908F907F906F905F906E
:103A20004F903F90089508958091D007089580E0C9
:103A30000895CF93DF9300D01F92CDB7DEB790915A
:103A4000F307943011F589837B836A839093E900AF
:103A50008FEF9091E800815095FD06C095ED9A9505
:103A6000F1F700008111F5CF8091E80085FF0DC0CE
:103A700040E050E063E070E0CE0101960E94E52551
:103A80008091E8008E778093E8000F900F900F9060
:103A9000DF91CF910895BC0184E00C94191DBC0105
:103AA00083E00C94191DCF93DF9320911001222302
:103AB00039F02091240427FF03C060E224E002C013
:103AC00068E021E02093E9002FEF3091E8002150D9
:103AD00035FD06C035ED3A95F1F700002111F5CF1F
:103AE0002091E80025FF1DC0EC018091100181119B
:103AF00005C040E050E068E070E003C070E040E0E6
:103B000050E0CE010E94E5258091E8008E778093F9
:103B1000E80080E2FE01A1EDB7E001900D928A95E8
:103B2000E1F7DF91CF91089581E08093E00080E29A
:103B30008093D8001092C9008FE19EE40197F1F7BD
:103B400000C0000087E090EBDC0180933508909383
:103B50003608A0933708B09338089CE088E10FB688
:103B6000F894A895809360000FBE90936000FFCFFB
:103B700078941F920F920FB60F9211248F939F93F8
:103B8000AF93BF938091560490915704A09158042D
:103B9000B09159040196A11DB11D809356049093D4
:103BA0005704A0935804B0935904BF91AF919F91CB
:103BB0008F910F900FBE0F901F9018952FB7F8940C
:103BC0006091560470915704809158049091590463
:103BD0002FBF08952FB7F894809156049091570401
:103BE000A0915804B09159042FBF08951F920F92CD
:103BF0000FB60F9211248F939F93AF93BF93809131
:103C00002804811113C08091560490915704A0910B
:103C10005804B09159044196A11DB11D80935604DA
:103C200090935704A0935804B0935904BF91AF9157
:103C30009F918F910F900FBE0F901F90189520911C
:103C400010012223C9F02091240427FF15C0262F3C
:103C50002695269526952E31C8F4FC01E20FF11D1C
:103C6000677081E090E001C0880F6A95EAF780955F
:103C70009281892382830895FC0106962281621332
:103C800001C012823196E817F907C1F70895209113
:103C900010012223C1F02091240427FF14C0262FF5
:103CA0002695269526952E3130F5FC01E20FF11D63
:103CB000677081E090E001C0880F6A95EAF7928111
:103CC000892B82830895FC0132962FEF30E04191D9
:103CD000641789F02F3F19F4411101C0232F3F5F72
:103CE0003630A9F72F3F39F0FC01E20FF11D27FD17
:103CF000FA95628308950895CF93C92F682F84E0C1
:103D000090E00E94772D6C2F82E290E0CF910C948E
:103D1000772DCF9384E090E00E94592DC82F82E246
:103D200090E00E94592D2C2F30E0A901582BCA0198
:103D3000CF9108956AEE7EEF80E090E00E94952D8D
:103D400060E082E090E00E94772D60E083E090E008
:103D50000E94772D1092CB071092CC071092CD07BE
:103D60001092CE0760E084E090E00E94772D60E042
:103D700082E290E00E94772D60E085E090E00E9472
:103D8000772D60E086E090E00E94772D6FEF87E06E
:103D900090E00E94772D40E050E0BA0188E090E08A
:103DA0000E94892D60E08DE090E00E94772D40E038
:103DB00050E0BA0188E190E00E94892D60E087E13F
:103DC00090E00E94772D40E050E0BA018CE190E055
:103DD0000E94892D60E070E080E290E00E94952DC5
:103DE00040E050E0BA0188E190E00E94892D40E077
:103DF00050E0BA018FE090E00E94892D40E050E051
:103E0000BA0183E190E00C94892D8091CA07811159
:103E10001092CA0708959091C9078091C807892B0D
:103E20002091C707982F922B90933C078091CA0747
:103E30008823D9F0892B80933C0780911001882337
:103E400031F08091240487FF02C08EE101C086E03A
:103E5000EEE3F7E090E0815028F021912223D9F39E
:103E60009F5FF9CF91110E94051FE0912604F09108
:103E700027043097A9F080911001882359F0809190
:103E8000240487FF07C080913C0780933D0785E0AD
:103E900080933C070280F381E02D8CE397E0099446
:103EA000089580E090E00E940D1180E090E00E9473
:103EB000F7101092C8071092C7070C940B1F90912F
:103EC000250492FB222720F9281751F080FB92F954
:103ED0009093250480912404909125040C947C1ED9
:103EE0000895BF92CF92DF92EF92FF920F931F93AC
:103EF000CF93DF938C01C0903008D0903108E090D0
:103F00003208F09033088091CB079091CC07A091B4
:103F1000CD07B091CE07C82AD92AEA2AFB2ACFE1D9
:103F2000D0E0D701C6010C2E04C0B695A795979591
:103F300087950A94D2F780FD04C0219790F7B12CA1
:103F400007C0BC2EB8018C2F0E9497130197A9F3CC
:103F50008B2DDF91CF911F910F91FF90EF90DF900C
:103F6000CF90BF900895CF93DF93EC010E94711F13
:103F7000BE010E949713DF91CF9108950E94B31F55
:103F8000292F2F70E92FE295EF704E2F50E0FA01A4
:103F90003297EE30F105B8F4E356FF4F0C94262E1D
:103FA000803F99F018F4883E70F40FC0843F59F4B4
:103FB0000CC0883E50F0813F31F407C0822F8695B7
:103FC00086958695089580E0089581E008952FE014
:103FD000929F800D1124682F669566956695982F9F
:103FE000977085E0689FB001112440E050E080E0C8
:103FF000FB01E40FF51FEC56F84F208130E0092E4D
:1040000002C0369527950A94E2F721703327042ED3
:1040100001C0220F0A94EAF7822B4F5F5F4F4530B1
:10402000510531F708952FE0929F800D1124E82F5C
:10403000E695E695E695877051E001C0550F8A95A3
:10404000EAF785E0E89FF0011124EC56F84F20E0F4
:1040500030E070E04081CB01022E02C0969587953A
:104060000A94E2F7817081958427852384278193C0
:104070002F5F3F4F2530310569F708956093300871
:104080007093310880933208909333080C94511F39
:104090000F931F9341E050E060E070E004C0440FD4
:1040A000551F661F771F8A95D2F7409550956095EA
:1040B00070958091300890913108A0913208B091AC
:1040C00033088A019B01082319232A233B23C901B2
:1040D000B8011F910F910C943E202091C607809546
:1040E00082238093C607982F977041F430E0482FC1
:1040F000082E000C550B2417350721F49091250448
:1041000092FF07C08595859585950E94482010925D
:10411000C60708950F931F9341E050E060E070E000
:1041200004C0440F551F661F771F8A95D2F78091F0
:10413000300890913108A0913208B09133088A017B
:104140009B01082B192B2A2B3B2BC901B8011F916E
:104150000F910C943E206093CB077093CC07809313
:10416000CD079093CE070C94511F809193079091A7
:104170006207891719F08F5F8770FBCF08950F933F
:104180001F93CF93DF938091610782958F7009F021
:104190005DC080915E07882309F458C08091930721
:1041A0001091620760915C0770915D07C0915F0795
:1041B000D091600791E06F3F09F090E0292F06E071
:1041C000811709F443C0209721F07F3F21F030E0B0
:1041D00003C031E001C0322F90E030FD34C0089FB1
:1041E000F001099FF00D1124DF01AD59B84F119670
:1041F0003C911197371327C03C91361324C0129677
:104200003C91129731111FC013964D915C911497F8
:104210004C1B5D0B483C5105B0F4809161078F70D9
:10422000806180936107E859F84F80818F708061C9
:1042300080838CE597E00E945D16DF91CF911F91FE
:104240000F910C94B52001968770BACFDF91CF9172
:104250001F910F9108959F92AF92BF92CF92DF92DC
:10426000EF92FF920F931F93CF93DF93CDB7DEB7FB
:1042700061970FB6F894DEBF0FBECDBF8C0185E00D
:10428000F801DE011D9601900D928A95E1F7F80183
:1042900090818181E28030915C0760915D0740915F
:1042A0005F07509160074115510531F06F3F31F4C0
:1042B00021E03F3F19F403C021E001C020E0F22FCC
:1042C000F1709F2E20FD23C1F801C380D4802CE51E
:1042D000A22E27E0B22EF0905E07F601E41BF50B4C
:1042E000FF2009F4CEC020916107E83CF10508F0F9
:1042F00099C0422F407F09F051C0681311C0391393
:104300000FC0FE2CE1100CC02F70206120936107BC
:10431000C5010E945D1680916107F801858337C150
:10432000CD2831F08F3F31F421E09F3F19F403C0D5
:1043300021E001C020E020FD03C021E02E2502C0C5
:1043400020E030E0F22FF170FF2E20FF1DC0209101
:1043500093074091620756E0241709F4F6C030E055
:10436000529FF001539FF00D1124ED59F84F6181D8
:10437000861306C06081961303C06281E61204C0F2
:104380002F5F3F4F2770E8CFFE2CEE2009F4FFC0CF
:104390008091610781608093610750C0681307C0F6
:1043A000391305C0E11003C0F80125838DC09D8736
:1043B0008E878D859E850E94BE1F882369F1EE2021
:1043C00059F120916107822F82958F7090E00297BA
:1043D00074F080915C0790915D0798878F831986B0
:1043E000DB86CA862C87CE0107960E945D1686E082
:1043F000F801ACE5B7E001900D928A95E1F70E94D3
:10440000BF200DC06817E1F09D878E878D859E8542
:104410000E94BE1F81111EC0C8010E945D16FF24AC
:10442000F394B5C0422F407F69F78CE597E00E9476
:104430005D1686E0F50111928A95E9F7F12CA7C087
:104440003913E2CFE110E0CFF8012583C8010E94C3
:104450005D1657C0EE2001F320916107822F8295EF
:104460008F7090E002971CF280915C0790915D073D
:104470009A8389831B82DD82CC822E83CE010196B2
:10448000B4CFE83CF105E8F5FE2CEE2029F26813E4
:1044900027C0391325C02091610720FD18C0822F45
:1044A00082958F70482F50E04115510581F0F80139
:1044B00025834F30510541F08F5F982F9295907F63
:1044C000822F8F70892B8583C8010E945D1686E03C
:1044D000F801ACE5B7E001900D928A95E1F757C07D
:1044E0009D878E878D859E850E94BE1F81117FCFFF
:1044F00080916107816080936107C8010E945D1609
:1045000046C086E0F50111928A95E9F740C0EE2099
:1045100009F482CF9D878E878D859E850E94BE1F60
:10452000F82E882309F478CF86E0F801ACE5B7E0EF
:1045300001900D928A95E1F780915C0790915D075B
:104540000E94B31F0E94BF2022C09D878E878D8549
:104550009E850E94B31F292F22952F70223028F4A8
:104560009F7039F0811105C00BC0243028F49F7072
:1045700049F4805E883020F0C8010E945D169F2CAF
:10458000F92C05C0F8019581907F99F7F9CF8F2D0F
:1045900061960FB6F894DEBF0FBECDBFDF91CF910D
:1045A0001F910F91FF90EF90DF90CF90BF90AF9051
:1045B0009F9008951092C90780911001882331F0CF
:1045C0008091240487FF02C08EE101C086E0EEE303
:1045D000F7E0DF011D928A95E9F70C94511F0F93C4
:1045E0001F938091300890913108A0913208B091CA
:1045F00033088C019D010670112722273327BC0147
:10460000CD01063011052105310511F4686001C0A6
:10461000677F1F910F910C943E2090912A08937010
:1046200089F0811102C0946007C0883210F09C6943
:1046300003C0880F880F982B90932A0810922801A6
:104640000C94B01108956F927F928F929F92AF92C7
:10465000BF92CF92DF92EF920F931F93CF93DF938E
:104660003C01C0912501CC0FCC0FD4E0DC0FD43538
:1046700008F0D3E560912E08669580912608909108
:1046800027080E947E12182FCD1708F044C08C2EE8
:10469000912CF401EC56FC4F9081809126018923E6
:1046A000C1F1F401EE0FFF1FE251FD4FC080D12C8C
:1046B00080E7C81AD108F401EE0FFF1FE151FD4F4A
:1046C000A080B12CE0E2AE1AB108CC9C9001CD9C48
:1046D000300D300D1124AA9CC001AB9C900D900DA3
:1046E0001124820F931F0E942412082F60912B081F
:1046F00070912C0880912D08E12E9501A601F301FF
:1047000009950E948812462F282F672FC4010E9406
:10471000AE11CF5FB9CF81E0D33508F080E0DF91F3
:10472000CF911F910F91EF90DF90CF90BF90AF90FE
:104730009F908F907F906F900895CF92DF92EF922D
:10474000FF920F931F93CF93DF936C01C0912501CC
:10475000CC0FCC0FD4E0DC0FD43508F0D3E560915A
:104760002E08669580912608909127080E947E1257
:10477000182FCD1778F5EC2EF12CF701EC56FC4FE5
:10478000908180912601892319F1F701EE0FFF1F17
:10479000E151FD4F208130E020523109F701EE0F49
:1047A000FF1FE251FD4F408150E040575109609199
:1047B0002B0870912C0880912D08012FF601099586
:1047C0000E948812462F282F672FC7010E94AE1122
:1047D000CF5FCFCF81E0D33508F080E0DF91CF917C
:1047E0001F910F91FF90EF90DF90CF900895DF928F
:1047F000EF92FF920F931F93CF93DF937C01C091B1
:104800002501CC0FCC0FD4E0DC0FD43508F0D3E574
:1048100060912E08669566958091260890912708EC
:104820000E947E12D82ECD17F0F40C2F10E0F80164
:10483000EC56FC4F908180912601892391F0609184
:104840002B0870912C0880912D082D2D4C2FF701ED
:1048500009950E948812462F282F672FC8010E94B1
:10486000AE11CF5FE0CF81E0D33508F080E0DF917B
:10487000CF911F910F91FF90EF90DF9008959F923D
:10488000AF92BF92CF92DF92EF92FF920F931F935E
:10489000CF93DF936C01C0912501CC0FCC0FD4E0F6
:1048A000DC0FD43508F0D3E560912E086695669547
:1048B00080912608909127080E947E12182F80E48C
:1048C000810F0E94DF1190E8F92EF80E812F0E94CF
:1048D000DF1120E8922E980ECD1700F5AC2EB12CEA
:1048E000F501EC56FC4F9081809126018923A1F0BF
:1048F00060912B0870912C0880912D08E12E0C2FCF
:10490000292D4F2DF60109950E948812462F282F38
:10491000672FC5010E94AE11CF5FDECF81E0D33596
:1049200008F080E0DF91CF911F910F91FF90EF9001
:10493000DF90CF90BF90AF909F900895CF92DF927D
:10494000EF92FF920F931F93CF93DF936C01C0916F
:104950002501CC0FCC0FD4E0DC0FD43508F0D3E523
:1049600020912E0830E040E050E06FEF7FEF80E0D4
:1049700090E00E949B2D8901CD17E8F5EC2EF12CDB
:10498000F701EC56FC4F908180912601892389F133
:104990009091FD07915097FD15C0492F092E000CED
:1049A000550BFA01E350F84F8189C813F3CF440F38
:1049B000551FFA01E350F84F218D328D2017310732
:1049C00048F701C0980160912E08C9010E947E122B
:1049D000AC0160912B0870912C0880912D08F60194
:1049E00009950E948812462F282F672FC7010E9421
:1049F000AE11CF5FC1CF81E0D33508F080E0DF9109
:104A0000CF911F910F91FF90EF90DF90CF9008957D
:104A10002F923F924F925F926F927F928F929F92CE
:104A2000AF92BF92CF92DF92EF92FF920F931F93BC
:104A3000CF93DF93CDB7DEB727970FB6F894DEBFDD
:104A40000FBECDBF282E4B0120912501220F220F32
:104A50002E83122F1C5F143508F013E53091FD07EB
:104A60003983AE81A11708F077C08E81682E712C32
:104A7000F301EC56FC4F908180912601892309F4C3
:104A800067C030902B0840902C08522C1F82C30125
:104A9000880F991FDC01A251BD4FBB83AA83C301BC
:104AA000880F991FFC01E151FD4FFD83EC83F981D3
:104AB0005F16E0F5E52CF12CAA81BB81CC90D12CBE
:104AC000F701E350F84F8181C81AD108AC81BD814C
:104AD000AC90B12C8185A81AB108CC9C9001CD9CDA
:104AE000300D300D1124AA9CC001AB9C900D900D8F
:104AF0001124820F931F0E942412082FF701EE0F3A
:104B0000FF1FE350F84F60912E08818D928D0E9417
:104B10007E127C019501A601632D742D8F81F40115
:104B20000995362E472E8F835394C1CF20912D089F
:104B30008F81382F329F312D1124832F632D742DB7
:104B40000E948812462F282F672FC3010E94AE11A2
:104B50008E818F5F8E8385CF81E0133508F080E0F2
:104B600027960FB6F894DEBF0FBECDBFDF91CF9171
:104B70001F910F91FF90EF90DF90CF90BF90AF907B
:104B80009F908F907F906F905F904F903F902F906D
:104B9000089590912A08937059F080932B086093A0
:104BA0002C08493C08F048EC40932D080C94B011B7
:104BB0000895E1E1F1E08083618324E630E042E0A2
:104BC00050E0BF0180E60C94C62CEF92FF920F9349
:104BD0001F93CF93DF937C018B010E9446298111A3
:104BE00019C0E70101151105A1F08091E80085FDCC
:104BF0000AC08091E8008E778093E8000E944629E1
:104C0000882381F307C089918093F1000150110935
:104C1000E9CF80E0DF91CF911F910F91FF90EF904E
:104C200008951F93CF93DF93CDB7DEB7AA970FB642
:104C3000F894DEBF0FBECDBFE5EFF7E08091F10045
:104C4000819347E0ED3FF407C9F78091F607833081
:104C500009F462C030F4813071F0823009F49CC0F4
:104C6000B3C08A3009F488C08B3009F46DC0893034
:104C700009F0AAC020C08091F507813A09F0A4C0CC
:104C80008091E800877F8093E8008091F9079091F8
:104C9000FA07892B21F460E281ED97E003C060E020
:104CA00080E090E070E00E94032B8091E8008B7719
:104CB0008093E80089C08091F507813209F084C0B3
:104CC0008091F9079091FA07009719F0029709F07F
:104CD0007BC08091E800877F8093E8008091E800A6
:104CE00082FD05C08091F3078111F8CF6DC020913E
:104CF000F3008091F20090E0922B029729F48091CA
:104D0000F1008B7F813021F48091F1008093D007F6
:104D10008091E8008B7754C08091F507813A09F0C3
:104D200053C08091F9079091FA07892B09F04CC084
:104D30008091E800877F8093E8008091E80080FF01
:104D4000FCCF8091100137C08091F5078132E1F5E9
:104D50008091F9079091FA07892BB1F58091E800CD
:104D6000877F8093E8000E9479298091F7078093DC
:104D700010010E94DA2228C08091F507813221F5C6
:104D80008091E800877F8093E8000E9479298091D4
:104D9000F8078093CF0718C08091F507813AA1F4F6
:104DA0008091E800877F8093E8008091E80080FF91
:104DB000FCCF8091CF078093F1008091E8008E773F
:104DC0008093E8000E9479298091E80083FFDDC18B
:104DD0008091F5079091F607492F50E04A30510530
:104DE00008F0D3C1FA01E555FF4F0C94262E803808
:104DF00021F0823809F0C9C108C08091F107909173
:104E0000F207992389F082600FC08091F9078F70B3
:104E1000873008F0BAC18093E9008091EB0085FBF0
:104E2000882780F91092E9009091E800977F90938D
:104E3000E8008093F1001092F10070C1282F2D7FBF
:104E400009F0A3C1882319F0823061F09EC18091DE
:104E5000F707813009F099C1933009F080E0809321
:104E6000F2072EC08091F70781112AC08091F907BF
:104E70008F702FEF280F263008F087C18093E9004C
:104E80002091EB0020FF1CC0933021F48091EB00B7
:104E9000806214C09091EB0090619093EB0021E050
:104EA00030E0A90102C0440F551F8A95E2F74093F4
:104EB000EA001092EA008091EB0088608093EB009A
:104EC0001092E9008091E800877F8093E8000E94BB
:104ED00079295BC1811159C11091F7071F77809122
:104EE000E3008078812B8093E3008091E800877F46
:104EF0008093E8000E9479298091E80080FFFCCF30
:104F00008091E30080688093E300111102C082E089
:104F100001C083E08093F30738C18058823008F0E5
:104F200034C12091F7073091F8072C3D53E0350745
:104F300079F583E08A838AE289834FB7F894DE01AA
:104F4000139620E03EE051E2E32FF0E0509357004B
:104F5000E49120FF03C0E295EF703F5FEF708E2F6A
:104F600090E0EA3010F0C79601C0C0968D939D93F3
:104F70002F5F243149F74FBF8091E800877F8093EE
:104F8000E8006AE270E0CE0101960E94032BB4C0F3
:104F90008091F9079091FA07432F55274330510527
:104FA000A9F068F44130510509F4FEC042305105C2
:104FB00009F0EBC08BE590E0E1E4F6E04BC0413254
:104FC000510529F14232510589F1DFC0C901992704
:104FD00081309105A1F058F0029709F0D6C0EEEAB1
:104FE000F6E0E4918E2F90E0EEEAF6E030C0E6EDD8
:104FF000F6E0E4918E2F90E0E6EDF6E028C0E4ECD8
:10500000F6E0E4918E2F90E0E4ECF6E020C08330EF
:10501000910508F0BAC0880F991FFC01E356FD4FB7
:105020000190F081E02D89E090E014C0833091057B
:1050300008F0ABC0FC01EE0FFF1FE956FD4F0190D9
:10504000F081E02DDC01AC56BD4F8C9190E00097D3
:1050500009F49BC02091E800277F2093E80020916D
:10506000FB073091FC072817390708F4C90140E015
:10507000009789F12091F307222309F43DC02530E0
:10508000D9F12091E80023FD37C02091E80022FDEE
:105090002FC02091E80020FFEBCF4091F30020913A
:1050A000F20030E0342B009759F02830310540F4FD
:1050B00044914093F100319601972F5F3F4FF3CF1A
:1050C00041E02830310509F040E02091E8002E77DA
:1050D0002093E800CDCF4111CDCF0AC08091F307D6
:1050E000882351F0853041F08091E80083FD04C0B1
:1050F0008091E80082FFF2CF8091E8008B77809367
:10510000E80043C0803809F040C08091E800877F04
:105110008093E8008091F4078093F1008091E8008B
:105120008E77D3CE811131C08091F7079091F80727
:105130009927029754F58091E800877F8093E800D3
:105140001091F7071093F4070E947929111106C0F6
:105150008091E30087FD02C081E001C084E080937C
:10516000F30742E061EC81E00E94982942E261ECA1
:1051700084E00E94982942E261EC82E00E94982932
:1051800042E260EC83E00E9498298091E80083FF6E
:1051900010C08091E800877F8093E8008091EB0049
:1051A00080628093EB0005C082E190E0ECE9F6E0DC
:1051B00051CFAA960FB6F894DEBF0FBECDBFDF91D8
:1051C000CF911F9108951F920F920FB60F92112445
:1051D0002F933F934F935F936F937F938F939F93FF
:1051E000AF93BF93CF93DF93EF93FF93C091E90009
:1051F000CF708091EC00D82FD17080FDD0E8109254
:10520000E9008091F000877F8093F00078940E94FD
:1052100011261092E9008091F00088608093F000E0
:10522000CD2BCF70C093E900FF91EF91DF91CF912B
:10523000BF91AF919F918F917F916F915F914F91AE
:105240003F912F910F900FBE0F901F901895E8ED92
:10525000F0E080818E7F80831092E2001092DA006D
:105260001092E100A0EEB0E08C9181608C9380817F
:105270008F77808319BCA7EDB0E08C918E7F8C93E3
:1052800080818F7E80831092340808952091E400FD
:105290003091E50095E64091EC00842F817040FF4D
:1052A00023C08091E80080FD1DC08091F307882312
:1052B00099F0853099F08091EB0085FD11C0409107
:1052C000E4005091E5002417350729F3915011F0BF
:1052D0009A01E1CF84E0089582E0089583E0089583
:1052E00081E0089580E008954091E80042FFDDCF1D
:1052F00008958091F50787FF11C08091E80082FD35
:1053000005C08091F3078111F8CF11C08091E800AA
:105310008B770BC08091F307882349F08091E800D8
:1053200080FFF8CF8091E8008E778093E8000895A1
:10533000982F973068F59093E900981739F070919D
:10534000EC002091ED005091F00003C0242F762F47
:1053500050E021FD02C09F5FECCF3091EB003E7F1B
:105360003093EB003091ED003D7F3093ED003091B4
:10537000EB0031603093EB007093EC002093ED0074
:105380005093F0002091EE0027FDE5CF80E00895D6
:105390008F708093E90081E00895CF92DF92EF92C1
:1053A000FF920F931F93CF93DF93C8EDD0E08881D6
:1053B0008F7E8883E7EDF0E080818160808384E0E8
:1053C00082BF81E08093340888818E7F888302EEDB
:1053D00010E0F80110821092DA0081EEC82ED12C74
:1053E000F601108288818F7788838881806888831E
:1053F00088818F7D888319BC1092F3071092F4077F
:105400001092F2071092F10790EEE92EF12CF701BD
:1054100080818B7F808388818160888342E060E027
:1054200080E00E949829F60180818E7F8083F801B8
:10543000808181608083808188608083F7018081A2
:105440008E7F8083888180618883DF91CF911F91D7
:105450000F91FF90EF90DF90CF9008951F920F92E1
:105460000FB60F9211242F933F934F935F936F9337
:105470007F938F939F93AF93BF93EF93FF9380910D
:10548000E10082FF09C08091E20082FF05C08091A7
:10549000E1008B7F8093E1008091DA0080FF2AC0D9
:1054A0008091D80080FF26C08091DA008E7F8093A3
:1054B000DA008091D90080FF18C080E189BD82E1C7
:1054C00089BD09B400FEFDCF81E08093F307809190
:1054D000340881110FC00E9427290E94CD29809194
:1054E000E20084608093E20005C019BC1092F307CB
:1054F000109234088091E10080FF17C08091E20093
:1055000080FF13C08091E2008E7F8093E200809143
:10551000E20080618093E2008091D80080628093F5
:10552000D80019BC85E08093F3078091E10084FFE7
:105530002EC08091E20084FF2AC080E189BD82E113
:1055400089BD09B400FEFDCF8091D8008F7D809386
:10555000D8008091E1008F7E8093E1008091E2008D
:105560008F7E8093E2008091E20081608093E20070
:105570008091F407882311F084E007C08091E30054
:1055800087FD02C081E001C083E08093F307809132
:10559000E10083FF27C08091E20083FF23C0809158
:1055A000E100877F8093E10082E08093F30710920F
:1055B000F4078091E1008E7F8093E1008091E2000A
:1055C0008E7F8093E2008091E20080618093E20010
:1055D00042E060E080E00E9498298091F0008860BD
:1055E0008093F000FF91EF91BF91AF919F918F91C8
:1055F0007F916F915F914F913F912F910F900FBECF
:105600000F901F9018952091FB073091FC072617EB
:10561000370748F06115710539F42091E8002E77BD
:105620002093E80001C0B901FC0120E0611571057B
:1056300079F18091F3078823F1F18530F1F18091C0
:10564000E80083FD3CC08091E80082FD2EC080917F
:10565000E80080FFEBCF2091F3008091F20090E012
:10566000922B6115710551F08830910538F4219124
:105670002093F100615071090196F3CF21E0089762
:1056800009F020E08091E8008E778093E800CECF8B
:105690002111CFCF0AC08091F307882361F08530B4
:1056A00061F08091E80083FD0AC08091E80082FFEC
:1056B000F2CF80E0089582E0089583E0089581E0CC
:1056C0000895882341F080959091C907892380939C
:1056D000C9070C940B1F0895882339F09091C907CE
:1056E000892B8093C9070C940B1F0895882379F1A7
:1056F0009CEF980F913A30F4682F8CE397E00E946A
:105700001F1E14C090E2980F983090F4877021E02B
:1057100030E0A90102C0440F551F8A95E2F7CA0183
:1057200080959091C90789238093C9070C940B1F1A
:105730009BE5980F933020F480E090E00C940D11DD
:10574000885A873120F480E090E00C94F710089597
:10575000CF93882309F46DC09CEF980F913AC8F558
:10576000C82F809110018823E1F08091240487FFE5
:1057700018C0EC2FE695E695E695F0E0E45CF84F6E
:105780008281282F30E04C2F477081E090E002C0EA
:10579000880F991F4A95E2F782239323892B61F49E
:1057A00012C0EEE3F7E084E497E02191C21721F004
:1057B0008E179F07D1F707C06C2F8CE397E00E94EC
:1057C0001F1E0E940B1F6C2F8CE397E00E94471E48
:1057D00013C090E2980F983090F4877021E030E089
:1057E000A90102C0440F551F8A95E2F7CA019091A2
:1057F000C907892B8093C907CF910C940B1FEBE548
:10580000E80FE33040F4F0E0E951FC4F808190E094
:10581000CF910C940D11885A873158F4E82FF0E09D
:10582000EE0FFF1FE651FC4F80819181CF910C94C8
:10583000F710CF9108951F93CF93DF93182F8933DB
:1058400019F0C0E0D0E002C0C0E5D0E0812F0E9496
:10585000A82B209741F08FE99FE00197F1F700C056
:1058600000002197F6CF812FDF91CF911F910C94EB
:10587000762B1092B9008CE08093B8000895EF92D7
:10588000FF920F931F93CF93DF93182FEB0110928A
:10589000BC0084EA8093BC000E94EA1D7C018091D8
:1058A000BC0087FD0EC0CF3F8FEFD807C1F30E9429
:1058B000EA1D8E199F098C179D0788F38EEF9FEFC5
:1058C0002EC08091B900887F883041F08091B90066
:1058D000887F803119F08FEF9FEF21C01093BB00BC
:1058E00084E88093BC000E94EA1D8C018091BC007A
:1058F00087FD0CC0CF3F8FEFD807C1F30E94EA1D90
:10590000801B910B8C179D0788F3D8CF8091B9002D
:10591000887F883111F08034F1F680E090E0DF91EB
:10592000CF911F910F91FF90EF9008950F931F93C8
:10593000CF93DF93EB018093BB0084E88093BC009E
:105940000E94EA1D8C018091BC0087FD0EC0CF3FF4
:105950008FEFD807C1F30E94EA1D801B910B8C17B3
:105960009D0788F38EEF9FEF0CC02091B900287F30
:1059700081E090E0283211F480E090E091958195EB
:105980009109DF91CF911F910F910895CF92DF92EE
:10599000EF92FF920F931F93CF93DF936B018A01D6
:1059A0007901B9010E943F2CE6010C0D1D1DC017A5
:1059B000D10761F424E92093BC00DF91CF911F91BE
:1059C0000F91FF90EF90DF90CF90089597FDF2CF69
:1059D000B70189910E94962CEACF8F929F92AF9245
:1059E000BF92CF92DF92EF92FF92CF93DF93EC01C1
:1059F000688179818A819B81611571058105910595
:105A000021F464E279ED8BE597E02DE133EF41E09D
:105A100050E00E949B2D49015A019B01AC01A7EA6D
:105A2000B1E40E94BA2D6B017C01ACEEB4EFA5018C
:105A300094010E94C82DDC01CB018C0D9D1DAE1D73
:105A4000BF1DB7FF03C00197A109B04888839983A0
:105A5000AA83BB839F77DF91CF91FF90EF90DF9078
:105A6000CF90BF90AF909F908F9008950E94ED2CA3
:105A7000089580E091E00E94ED2C0895A0E0B0E050
:105A80008093000190930101A0930201B093030160
:105A90000895DC01CB01FC01F999FECF06C0F2BDEF
:105AA000E1BDF89A319600B40D9241505040B8F7DC
:105AB0000895F999FECF92BD81BDF89A992780B5D6
:105AC0000895A8E1B0E042E050E00C944B2DDC01D9
:105AD000A40FB51F4150504048F0CB01840F951FD3
