:100000000C944A040C9491040C9491040C94910463
:100010000C9491040C9491040C9491040C9491040C
:100020000C9491040C9491040C94BD270C94F92623
:100030000C943B130C9491040C9491040C94910433
:100040000C9491040C9491040C9491040C949104DC
:100050000C9491040C94FA120C9491040C94910455
:100060000C9491040C9491040C9491040C949104BC
:100070000C9491040C9491040C9491040C949104AC
:100080000C9491040C9491040C9491040C9491049C
:100090000C9491040C9491040C9491040C9491048C
:1000A0000C9491040C9491040C949104AA08AD084A
:1000B000D308E008E70807090A095B099209320A30
:1000C000320AA109A309A609CA09EB09EE09F10937
:1000D000130A720F720FAC0FAC0F05102110B7117D
:1000E000B7112C100A111B111B111F151F153215EA
:1000F000321528153215321532151F151F152D15FD
:10010000321532152D150D253425DB263425DB2639
:100110008025A325DB269826A8261E0F0500047F30
:100120003F1F643214643214783C1E1E140A05000A
:1001300000000000000000000000000000000000BF
:1001400000000000000000000000000000000000AF
:100150000000007E0F00D4FFFFFFC7000000780002
:10016000000000000000002A2B2800000000000012
:100170000000000000000000000029000000002C2A
:100180001E3420212224342627252E362D373827C9
:100190001E1F202122232425263333362E37381FD5
:1001A0000405060708090A0B0C0D0E0F1011121397
:1001B0001415161718191A1B1C1D2F3130232D3535
:1001C0000405060708090A0B0C0D0E0F1011121377
:1001D0001415161718191A1B1C1D2F3130354C0019
:1001E00001010101010101010102020202020202F8
:1001F00002020303030303030303040404040404CB
:100200000405050505050606060606070707070790
:1002100008080808090909090A0A0A0B0B0B0C0C43
:100220000C0D0D0D0E0E0E0F0F0F101011111112DF
:100230001213131414151516161717181819191A5E
:100240001A1B1B1C1D1D1E1E1F20202122222324C1
:1002500024252626272829292A2B2C2D2D2E2F3000
:10026000313232333435363738393A3B3C3D3E3F14
:10027000404142434445464748494A4C4D4E4F5001
:10028000515354555658595A5B5D5E5F61626465BF
:100290006668696B6C6D6F7072737577787A7B7D49
:1002A0007E8082838587888A8C8E8F91939596989D
:1002B0009A9C9EA0A2A3A5A7A9ABADAFB1B3B5B7B9
:1002C000BABCBEC0C2C4C6C9CBCDCFD1D4D6D8DB90
:1002D000DDDFE2E4E7E9EBEEF0F3F5F8FAFDFFFF2E
:1002E000AA7F55402223252628292A2C2D2F30325B
:1002F000333536383A3B3D3E4042434547494A4C08
:100300004E5051535557595A5C5E60626466686935
:100310006B6D6F71737577797B7D7F81838587893D
:100320008A8C8E90929496989A9C9E9FA1A3A5A742
:10033000A8AAACAEAFB1B3B4B6B8B9BBBCBEBFC16E
:10034000C2C3C5C6C7C9CACBCCCDCED0D1D2D2D3F9
:10035000D4D5D6D7D7D8D9D9DADADBDBDBDCDCDC0D
:10036000DCDCDDDDDDDDDCDCDCDCDCDBDBDBDADAD0
:10037000D9D9D8D7D7D6D5D4D3D2D2D1D0CECDCC47
:10038000CBCAC9C7C6C5C3C2C1BFBEBCBBB9B8B65C
:10039000B4B3B1AFAEACAAA8A7A5A3A19F9E9C9AE7
:1003A00098969492908E8C8A89878583817F7D7BB5
:1003B00079777573716F6D6B6968666462605E5C96
:1003C0005A5957555351504E4C4A4947454342405C
:1003D0003E3D3B3A3836353332302F2D2C2A2928F2
:1003E0002625232229003A003B003C003D003E0028
:1003F0003F004000410042004300440045004600E9
:1004000001514C0035001E001F0020002100220079
:10041000230024002500260027002D002E004C007C
:100420002A004A002B00000014001A0008001500E2
:1004300017001C0018000C00120013002F003000E1
:1004400031004B00390000000400160007000900CD
:100450000A000B000D000E000F00330034002800CE
:1004600000004E00E10001511D001B0006001900B4
:100470000500110010003600370038000000E500CC
:1004800052004D00E000E3000000E2002C000000FC
:100490002C0000002C000000E6000151E400500098
:1004A00051004F00010001000100010001000100A6
:1004B0000100010001000100010001000100010034
:1004C0000100010001000100010001000100010024
:1004D0000100010001000100010001000100010014
:1004E000005C010001000000C25CC35CC55CC65C2E
:1004F000C75CC85CC95CCA5C010001000100010066
:1005000001000100010000000100010001000100E4
:1005100001000100010001000100010001000100D3
:10052000000001000100010001000100BD5CBF5C92
:10053000BE5CC05C01000100010001000000010080
:1005400001000100010001000000010001000000A5
:100550000100000001000000010001000100010095
:100560000100010001000100010001000100010083
:100570000100010001000100010001000100010073
:100580000100010001000100010001000100010063
:100590000100010001000100010001000100010053
:1005A0000100010001000000010001000100010044
:1005B0000100010001000100010001000100010033
:1005C0000100010001000000010001000100010024
:1005D0000100010001000100010001000100010013
:1005E0000000010001000100010001000100010004
:1005F00001000100010001000100010000000100F4
:1006000001000100010001000000010001000000E4
:1006100001000000010000000100010001000100D4
:1006200001000100010001000100010001000100C2
:1006300001000100010001000100010001000100B2
:1006400001000100010001000100010001000100A2
:100650000100010001000100010001000100010092
:100660000100010001000000010001000100010083
:100670000100010001000100010001000100010072
:100680000100010001000000010001000100010063
:100690000100010001000100010001000100010052
:1006A0000000010001000100010001000100010043
:1006B0000100010001000100010001000000010033
:1006C0000100010001000100000001000100000024
:1006D0000100000001000000010001000100010014
:1006E0000100010005010902A10185020901A10023
:1006F00005091901290815002501950875018102D0
:100700000501093009311581257F9502750881069B
:1007100009381581257F950175088106050C0A3871
:10072000021581257F950175088106C0C005010964
:1007300080A101850319012AB700150126B700958C
:100740000175108100C0050C0901A1018504190182
:100750002AA002150126A002950175108100C0058E
:10076000010906A1018505050719E029E7150025FE
:10077000019508750181020507190029EF1500256B
:100780000195F07501810205081901290595057586
:10079000019102950175039101C00660FF0961A1F5
:1007A000010962150026FF00952075088102096382
:1007B000150026FF00952075089102C00501090665
:1007C000A101050719E029E7150025019508750124
:1007D00081029501750881010507190029FF15009F
:1007E00026FF009506750881000508190129059561
:1007F0000575019102950175039101C009025B0025
:10080000030100A0FA09040000010301010009210D
:1008100011010001224000070581030800010904BD
:100820000100020300000009211101000122220041
:1008300007058203200001070503032000010904C6
:100840000200010300000009211101000122B6008D
:100850000705840320000112011001000000084276
:100860004B61600200010200010C034B0042004496
:1008700000370035000000160371006D006B006248
:1008800000750069006C00640065007200000004DF
:100890000309040011241FBECFEFDAE0DEBFCDBF95
:1008A00004B603FE27C080914B0390914C03A091A6
:1008B0004D03B0914E038730904BA740B04BD1F41D
:1008C00010924B0310924C0310924D0310924E0362
:1008D00014BE84B7877F84BF0FB6F894A895809123
:1008E0006000886180936000109260000FBEE0E0BD
:1008F000F8E3099511E0A0E0B1E0EEEEF8E502C002
:1009000005900D92AE39B107D9F723E0AEE9B1E019
:1009100001C01D92AB34B207E1F70E9493040C941E
:10092000752C0C940000CF93DF93CDB7DEB7AA9758
:100930000FB6F894DEBF0FBECDBF84B7877F84BFEC
:100940000FB6F894A895809160008861809360004C
:10095000109260000FBE90E080E80FB6F89480938C
:100960006100909361000FBE85B7806885BF85B731
:10097000806885BF8AE392E190939F0180939E01F6
:100980000E943D270E945C278091E2008460809352
:10099000E200789480913D038823A1F01091E90052
:1009A0001F709091EC00892F817090FD80E8182BCA
:1009B0001092E9008091E80083FD0E9427241F70B7
:1009C0001093E90082E084BD93E095BD9AEF97BD56
:1009D00080936E000DE111E0F80181918F010E947A
:1009E000FD1BF1E003321F07B9F703E211E073E3E7
:1009F000E72E71E0F72EF80181918F010E94FD1B17
:100A0000E016F106C1F7E2EAF1E08EEA91E0ACED22
:100A1000B1E0119211921D921D928E179F07C9F796
:100A200080E090E00E946B2B8A3E9E4F11F00E9466
:100A3000D21382E090E00E945D2B8093C7010E9458
:100A4000C1139093A1018093A0010E94141C8FE315
:100A50009CE90197F1F700C000000E94141C8091EE
:100A6000DC0180FF17C06FEF83E290E00E94712BE2
:100A70006FEF84E290E00E94712B6FEF85E290E0CF
:100A80000E94712B6FEF7FEF80E090E00E948F2B30
:100A90000E94D61283E090E00E945D2B682F70E0E8
:100AA00080E090E00E94FA15229A2A9A269A2E98BF
:100AB00082E28093800089E1809381008FEF9FEF35
:100AC00090938700809386000E94372183E290E014
:100AD0000E945D2B813281F484E290E00E945D2BC4
:100AE000883051F485E290E00E945D2B91E08131E5
:100AF00009F090E0892F01C080E080FFE6C40E94E9
:100B000037218091AE01811136C080E090E00E94D3
:100B10006B2B8A3E9E4F21F00E94D2130E94D9185F
:100B200088E090E00E94652B6093D7017093D80114
:100B30008093D9019093DA016E7F71F40E94D918E5
:100B400088E090E00E94652B6093D7017093D801F4
:100B50008093D9019093DA010E9492181092D601E5
:100B60008091D70180FF04C060E086950E94711AD1
:100B700081E08093AE0184E091E09093B001809396
:100B8000AF0158E1452E512C6DE1662E61E0762EC5
:100B90008E010F5F1F4F6E01FDE0CF0ED11C8091C3
:100BA0003D03853009F090C080913D03853009F008
:100BB00072C080913D03843009F445C080E00E94FA
:100BC000B42080E00E946B1E1092D6018091B30188
:100BD000811117C081E08093B3018091D701982FD4
:100BE00091709093B2018E7F8093D7012FEF30E701
:100BF00042E0215030404040E1F700C000000E9438
:100C000093211092B10180E40FB6F894A895409218
:100C100060000FBE8093600083B7817F846083BFD4
:100C200083B7816083BF7894889583B78E7F83BFB5
:100C30000FB6F894A8958091600088618093600059
:100C4000109260000FBE80913C03882321F10E9426
:100C5000141CECEDF1E081919191892B29F481E054
:100C6000E83EF807C1F717C080E189BD82E189BD80
:100C700009B400FEFDCF8091D8008F7D8093D8000D
:100C80008091E00082608093E0008091E00081FD2F
:100C9000FCCF0E9429180E9429180E9437210E9427
:100CA000A01F0E946B1E1092B3018091B201882395
:100CB00049F08091D70181608093D70160E08695EB
:100CC0000E94711A0E947D210E94141C882359F0F1
:100CD0008FB7F8944091E8015091E9016091EA01E1
:100CE0007091EB018FBFA8ECB1E0ECEDF1E0E12CED
:100CF000F12C7E2D219131918D919D918227932709
:100D0000009779F160E0AA24A394B12CAC014A21A8
:100D10005B21452B09F169A37AA32A213B2181E0BC
:100D2000232B09F480E08BA30E942F138160782F7E
:100D30009DA38CA349A15AA16BA18DA10E94D61E8F
:100D4000F701EE0FFF1FE853FE4F80819181A82627
:100D5000B926B182A0821CC06F5FAA0CBB1C603197
:100D6000A9F69FEFE91AF90A26E0E216F10409F65E
:100D70008FEF8EA38FA318A60E942F138160782F68
:100D80009AA789A74EA15FA168A58AA50E94D61E31
:100D90008091D601882309F4A9C08091D501E09102
:100DA000D701E695E81BE093B601823059F4F0E0F4
:100DB000E55DFE4FE491EE2EF12C92ECA92E9EE122
:100DC000B92E6FC0863059F4F0E0E85DFE4FE49133
:100DD000EE2EF12C82EBA82E8EE1B82E62C0893067
:100DE00061F4E695F0E0EB5DFE4FE491EE2EF12C20
:100DF000BFEDAB2EB3E2BB2E54C08F3061F4E6954D
:100E0000F0E0EE5DFE4FE491EE2EF12CABE7AA2E62
:100E1000A3E2BA2E46C0853159F4F0E0E15EFE4F00
:100E2000E491EE2EF12CFDE2AF2EF3E2BF2E39C09D
:100E30008831F1F0833241F4F301E590F490E2E778
:100E4000AE2EEEE1BE2E2DC08432D1F0853209F5F2
:100E50008E2F63E00E94182CE92FF0E0E65EFE4F33
:100E6000E491EE2EF12C79ECA72E71E2B72E19C089
:100E700058E2E52EF12C64EAA62E62E2B62E11C0ED
:100E800034EFE32EFF24F3944AE6A42E42E2B42E7C
:100E900008C090EDE92E97E0F92E21E7A22E2EE171
:100EA000B22E8091B701882361F01092B7010E94A1
:100EB0002F139093B5018093B4011092B901109251
:100EC000B8010E942F13E091B401F091B5018E1B7F
:100ED0009F0B8F3F9F4750F4EE0EFF1EF092B5011F
:100EE000E092B40184EB91E0F501099586E0E0EC35
:100EF000F1E0D80101900D928A95E1F7A090C2012E
:100F0000B090C301E090C401F090C5011092C201FD
:100F10001092C3011092C4011092C501A11003C028
:100F2000BB2009F451C08091BE019091BF010E9485
:100F300020139C019091BD01992309F4DFC2233352
:100F4000310508F441C09F3F19F09F5F9093BD01A8
:100F5000AA2061F00E94821B1A1414F491E001C0CF
:100F60009FEF899F802D11248093C201BB2061F0E7
:100F70000E94821B1B1414F491E001C09FEF899F13
:100F8000802D11248093C3013091C2013323E1F0FD
:100F90002091C3012223C1F045EB3403C001112489
:100FA000992319F09093C20103C081E08093C2019C
:100FB00035EB2303C0011124992319F09093C30149
:100FC00003C081E08093C301E11003C0FF2009F456
:100FD00051C08091BB019091BC010E9420139C01E3
:100FE0009091BA01992309F48EC22536310508F48F
:100FF00041C09F3F19F09F5F9093BA01EE2061F0CE
:101000000E94601B1E1414F491E001C09FEF899FA1
:10101000802D11248093C401FF2061F00E94601B89
:101020001F1414F491E001C09FEF899F802D1124BB
:101030008093C5013091C4013323E1F02091C501B3
:101040002223C1F045EB3403C0011124992319F088
:101050009093C40103C081E08093C40135EB230366
:10106000C0011124992319F09093C50103C081E0B8
:101070008093C5018091C20181110BC08091C30191
:10108000811107C08091C401811103C08091C50105
:1010900081110E94BF1AAB82BC82ED82FE8286E083
:1010A000F801A0ECB1E001900D928A95E1F70E9461
:1010B000A01F9091C601891731F00E94A01F809354
:1010C000C6010E946B1E80913D03843009F067CDFC
:1010D00083E08093E9008091E80082FF60CD8091F9
:1010E000E80085FF21C00E94922881111BC080E288
:1010F000E82EF12C580109C08091F100F50181938F
:101100005F01F1E0EF1AF10869F08091E80085FDD8
:10111000F3CF8091E8008B778093E8000E949228BB
:10112000882399F391E001C090E08091E8008B77EB
:101130008093E800992309F432CDE9818E2F90E065
:10114000FC013197E331F10508F08CC1EA5AFF4FF9
:101150000C944C2C1A8289E0E3C08A81823009F415
:10116000ABC1833089F0813009F07CC12FB7F8948E
:101170008091E8019091E901A091EA01B091EB0121
:101180002FBFBB83AC8321C0F801ACEDB1E08C91E3
:1011900011969C9111971296928383833296CE1664
:1011A000DF06A9F761C18A81823009F05BC16B81DA
:1011B0007C818D819E810E94522C86E290E024C029
:1011C0004C816B818A810E9481209D837CC1AD808E
:1011D000BE80BA24AB24BA248C81EB809A8120E2B1
:1011E000E29E7001112430EC939FE00CF11C11245D
:1011F000E80EF11CE80EF11C6B2DC70187960E94CA
:10120000712B6A2DC70188960E94712B2DC10E94F7
:101210002F202AC18A81893061F48B8145E0849F27
:10122000C00111246FEF70E00E94242C862F0E94D1
:101230001E218A818138B1F050F4803809F014C140
:1012400020E04B816091D9018091D80131C0823872
:1012500059F1833809F008C120E04091DA016C812E
:101260008B8126C060E08B810E94711A9B818091E6
:10127000D701911111C08E7F8093D7011092D601B2
:101280008FEF90E7E2E081509040E040E1F700C04E
:1012900000000E949321E8C081608093D70160E044
:1012A00086950E94711AE0C08B818093DB01DCC0BF
:1012B0000E949819D9C08A81893021F08A3089F436
:1012C0001B82D2C08091D401869586958695FFEFCA
:1012D0008F9FC001112465E070E00E94242C6B8375
:1012E000C3C0813899F030F4803809F0BDC08091D6
:1012F000DA0116C0823891F0833809F0B5C08091C8
:10130000D8018B838091D9018C83AEC08091D701A5
:1013100080FF02C0869504C080E002C08091DB019E
:101320008B83A2C08091D4010E9419216091D701C2
:101330007091D8018091D9019091DA010E94A5188D
:1013400093C080E14CC01A8289EDEACFEA80FB802D
:10135000FE24EF24FE248C80912C5801C701895D66
:101360009C4F9501201B310B2815390508F07CC0D6
:1013700029EDE216F10428F40E945D2BF501848327
:1013800002C0F5011482FFEFEF1AFF0A2FEFA21A35
:10139000B20AE4CFEA80FB80FE24EF24FE248C8096
:1013A000912C5801C701895D9C4F9501201B310B81
:1013B0002815390508F058C039EDE316F10420F47A
:1013C000F50164810E94712BFFEFEF1AFF0A2FEFE6
:1013D000A21AB20AE7CF0E941F2046C084E08A8387
:1013E00043C0EA80FB80FE24EF24FE248C80912CF5
:1013F0005801C70187969501201B310B2815390527
:1014000098F5E11433E0F30628F40E945D2BF50112
:10141000848302C0F5011482FFEFEF1AFF0A2FEF59
:10142000A21AB20AE6CFEA80FB80FE24EF24FE2453
:101430008C80912C5801C70187969501201B310B98
:101440002815390588F4E11433E0F30620F4F5019A
:1014500064810E94712BFFEFEF1AFF0A2FEFA21A8F
:10146000B20AE9CF8FEF898380913D03843009F080
:1014700096CB8091E9008F702091EC00922F9170B3
:1014800020FD90E8F92EF82A82E08093E90080910F
:10149000E80080FF0CC040E050E060E270E0C8016E
:1014A0000E94C5288091E8008E778093E8008F2DF8
:1014B0008F708093E90073CB86E290E00E945D2BF1
:1014C0001B821C821D828E83CFCF60E086E290E07B
:1014D0000E94712B0E942F200E941F2061E283E254
:1014E00090E00E94712B68E084E290E00E94712BF2
:1014F00061E185E290E00E94712B01CB2D323140F9
:1015000008F023CD61CD2D32314008F074CDB2CD3D
:101510003F924F925F926F927F928F929F92AF9283
:10152000BF92CF92DF92EF92FF920F931F93CF93D0
:10153000DF93CDB7DEB729970FB6F894DEBF0FBEA5
:10154000CDBFFC018081918123813481232B31F037
:101550009F3F31F491E08F3F19F403C091E001C047
:1015600090E090FD6CC77F0185E0DE01119601904F
:101570000D928A95E1F7F701228189819A812223D0
:1015800049F00E94C014182F682F89819A810E9407
:10159000621503C00E943615182F69817A81812F48
:1015A0000E94A7208C01F7018281882309F4F2C0F0
:1015B000980122513F452031310508F019C18FEFC4
:1015C00093E00E945D2B8111EFC0025137E2832E20
:1015D00033E0932E002379F08114F4E09F0609F4A0
:1015E000E3C0C4010E945D2B811101C001501FEFB7
:1015F000811A910AEFCF1E821F8218861986442411
:1016000043942AE0322E84010F5F1F4FC4010E94D1
:101610005D2B8E831F82882309F4C6C09FEF980F2D
:10162000933060F48F834E8222E0820E911CC801B9
:101630000E945D2B8887811102C0B6C048018E01CF
:101640000A5F1F4FF80120812223E9F2213009F0BF
:101650004CC08181813049F46801F2E0CF0ED11C89
:10166000F80182810E94312A0AC0823051F4680157
:10167000F2E0CF0ED11CF80182810E946D29860113
:1016800086C0833049F46801F2E0CF0ED11CF80126
:1016900082810E940629F3CF843019F00F5F1F4F1B
:1016A00076C0F80122810E5F1F4F80E090E030E0AD
:1016B000205331092A30310568F4389EA001399E43
:1016C000500D1124C901840F951F0F5F1F4FF801A2
:1016D0002081EDCF009709F45AC0EFE9FFE0319780
:1016E000F1F700C000000197F5CFE22FF0E0E15ADA
:1016F000FE4F5490822F86958695869590E0FC014A
:10170000E15BFE4F64902770712C022E02C075942D
:1017100067940A94E2F7F1E06F227724FC01E15C20
:10172000FE4FA490B12C022E02C0B594A7940A9447
:10173000E2F731E0A322BB24FC01E15DFE4FC4903F
:10174000D12C02C0D594C7942A95E2F781E0C82233
:10175000DD246114710419F081EE0E946D29A11439
:10176000B10419F086EE0E946D29852D0E94312A60
:10177000AB2819F086EE0E940629672819F081EE41
:101780000E940629CD2819F08CE20E94312A0F5FB1
:101790001F4F58CF0031EFE51E0709F047C681E023
:1017A0000E9497150E94092480918302877009F492
:1017B00046C6F7018281882309F441C682E0299652
:1017C0000FB6F894DEBF0FBECDBFDF91CF911F9152
:1017D0000F91FF90EF90DF90CF90BF90AF909F90D0
:1017E0008F907F906F905F904F903F900C94BC15BE
:1017F00000313FE5130711F481E005C001319FE599
:10180000190721F482E00E94D915CCCF0D3BFCE5ED
:101810001F0781F48091D401982F969596959695FF
:10182000C9F1915E990F990F990F8770892B809359
:10183000D40124C00E3B2CE5120708F43EC00F3B38
:10184000ECE51E0769F108F4D4C5003C2CE512074D
:1018500009F045C09091D401892F8695869586958B
:101860008F5F8F71863008F0DDC5880F880F880F75
:101870009770892B8093D4018091D401887F91E067
:1018800009F490E08091D40190FB80F98093D40119
:101890000E9419218091D4018695869586950AC06B
:1018A0008091D40180FF9AC58E7F8093D4010E94DD
:1018B000192180E00E94B42077CF0B3B3CE5130751
:1018C00011F485E005C00C3B9CE5190741F480E06C
:1018D0000E941E218091D4010E94192165CF033FEF
:1018E000FCE51F0799F406E221EE40EE63EF7CE58C
:1018F00009C0073DECE51E0711F506E221EE41EEB9
:1019000067ED7CE5C7010E94AC1F4ECF043F2CE57C
:10191000120708F03FC1083D3CE5130731F407E228
:1019200025EE45EE68ED7CE5EDCF093D9CE5190718
:1019300001F708E221E045EE69ED7CE5E3CF88237D
:1019400009F45DC11092EC0102309CE5190708F41E
:1019500040C10631ECE51E0730F0C8018A5F9C45A6
:10196000099708F036C10E94C1139093A10180939A
:10197000A0010031FCE51F0709F4C3C008F041C015
:1019800008303CE5130709F49AC0F0F404309CE5F4
:10199000190709F487C068F40230FCE51F0709F451
:1019A00077C003301C4509F0E5C08091A00182603A
:1019B00076C006303CE5130709F46EC008F07BC022
:1019C0008091A00188606BC00C309CE5190709F478
:1019D00085C068F40A30FCE51F0709F474C008F0FC
:1019E00079C00E9429188091A001806858C00E30EB
:1019F0003CE5130709F476C008F07FC08091A00190
:101A00008BC00B3F9CE5190709F44FC018F5033153
:101A1000FCE51F0709F47DC078F401313CE51307AC
:101A200009F473C002311C4509F0A4C00E942918B2
:101A30008091A0018F7733C005319CE5190709F427
:101A400072C008F486C00A3F1C4509F093C080911B
:101A5000A1013EC00F3F2CE5120709F45FC058F406
:101A60000D3F8CE5180709F444C008F43FC080918D
:101A7000A10182602DC00130EDE51E0709F475C09B
:101A800008F45DC002301D4509F074C060E06EC00E
:101A90008091A001816003C08091A001806180934A
:101AA000A00168C08091A00111C08091A101826055
:101AB0008093A1015FC08091A0018062F0CF8091EE
:101AC000A0018064ECCF8091A00188608460E7CFA2
:101AD0008160EECF8091A0018E7FE1CF8091A00147
:101AE0008D7FDDCF8091A001877FD9CF8091A1012B
:101AF00018C08091A1018D7FDBCF8091A0018F7EE6
:101B0000CECF8091A0018F7DCACF8091A0018F7B25
:101B1000C6CF8091A001877F8B7FC1CF8091A1012B
:101B20008D7F8E7FC5CF8091A00182FB222720F977
:101B300091E0922790FB82F990FB83F9B0CF8091DE
:101B4000A101982F909591708E7F892B90FB81F940
:101B5000AFCF0E9429188091A00187FB222720F98E
:101B600091E0922790FB87F99ACF61E08EE090E0B8
:101B70000E94712B6091A0011091A10184E090E07E
:101B80000E94712B612F82E290E00E94712B0E94D3
:101B900029180ACE053FFCE51F0731F406E221EEC5
:101BA00042EE65EF7CE5AECE053F2CE5120730F442
:101BB00007E225EE44EE64EF7CE5A4CE063F3CE56B
:101BC000130709F0BCCE07E225EE46EE66EF7CE592
:101BD00099CE8091860206319CE5190709F58A7A2B
:101BE00091E009F490E09093ED01882311F065E312
:101BF00001C069E28EEE91E00E948C130EC00631A6
:101C00001C4509F029C18091ED01882309F415C410
:101C100065E38EEE91E00E9464130E944314C4CDEC
:101C200082720C3C3CE5130709F4C4C008F045C0BF
:101C3000063CECE51E0709F4A9C0D8F4033C2CE5EA
:101C4000120709F499C030F4023C8CE5180709F436
:101C50006EC0D1C0043C9CE5190709F492C0053C54
:101C6000ECE51E0709F0C7C04FE55AE168E67AE1E6
:101C7000A5C0093CFCE51F0709F492C078F4073CB5
:101C80003CE5130709F487C0083C9CE5190709F0F7
:101C9000B2C043E55AE167E47AE190C00A3CECE562
:101CA0001E0709F482C00B3CFCE51F0709F0A3C026
:101CB00047EB58E168EC78E181C0013D2CE5120763
:101CC00009F488C0A0F40E3C8CE5180709F47CC028
:101CD00008F477C00F3CECE51E0709F478C0003D1E
:101CE000FCE51F0709F087C06EE089E081C0043D74
:101CF0002CE5120709F474C068F4023D8CE518075E
:101D000009F46BC0033D9CE5190709F074C061E05C
:101D100088E16BC0053DECE51E0709F464C00D3594
:101D2000FDE51F0709F067C06AE285E261C08091A6
:101D3000D70180FF1BC08E7F8093D7016091D701B0
:101D40007091D8018091D9019091DA010E94A51873
:101D50001092D6010FEF10E722E001501040204012
:101D6000E1F700C000000E9493211ECD81608093A6
:101D7000D70161E0869539C04CEA5AE165EB7AE11A
:101D80001DC045EB5AE16CEA7AE118C048E65AE119
:101D90006FE57AE113C047E45AE163E57AE10EC0EA
:101DA0004FE25AE16BE37AE109C04BE35AE16FE29B
:101DB0007AE104C048EC58E167EB78E10E947721B2
:101DC000F3CC61E081E011C065E082E011C068E021
:101DD00086E00EC064E18FE00BC067E185E108C0DA
:101DE00062E289E105C061E083E20E94711ADCCC05
:101DF0000E946521D9CC0A353DE5130741F150F425
:101E000001159CE51907A9F00E3D1C4529F50E9416
:101E1000D213CACC0B35FDE51F07D9F00C351D4593
:101E2000D9F48091A10182FB882780F991E089276C
:101E300011C00E9429183FEF84E39CE0315080409C
:101E40009040E1F700C000000E94D612ADCC81E0C6
:101E500001C080E00E94A614F701828100811181F7
:101E6000882349F0C8010E94C014D82E682FC801E9
:101E70000E94621504C0C8010E943615D82EB80110
:101E80008D2D0E94DC1C8C01982EF701D280A5803C
:101E9000A2949FE0A92280918302877099F0DD20AF
:101EA00089F0812F807F803421F080E2800F88309C
:101EB00048F082E00E94BC15809183028770CC2498
:101EC000C3948111C12CB12EB2948FE0B8228B2D16
:101ED00090E08C30910508F04AC2FC01E759FF4FB1
:101EE0000C944C2C812F807F1F70882311F0129549
:101EF000107FDD20B9F0112309F424C280E2800FA5
:101F0000883010F0911006C080918602182B109333
:101F1000860205C080918502182B109385020E94CD
:101F2000431410C2802F0E940629112309F41FC2F6
:101F3000005E1095083010F0911006C08091860266
:101F400018231093860205C08091850218231093F0
:101F500085020E9443140BC2812F807F1F70803244
:101F600011F01295107F992021F0F1E09F1611F1E8
:101F700030C0DD20B1F0AA2081F001E0A0120DC038
:101F80008091A10182FDF3C180918702182B18175F
:101F900009F4EDC110938702EAC180918702812B79
:101FA00010C0AA2021F021E0A21609F4E0C10E948D
:101FB0003D1427C0DD2041F035E03A1508F4D7C1C3
:101FC000812F0E94FC28D3C184E08A1508F4CFC178
:101FD00018C0DD2049F0AA2099F3F701858180FF20
:101FE000B1C18F708583ECCFAA2059F0093309F075
:101FF000BBC1FFEF17EE23E0F15010402040E1F7A6
:10200000B1C1812F0E94F128B2C1812F869586959A
:10201000837019F0813059F0AAC1DD2019F0C80190
:10202000937002C080E090E00E948A1FA8C1DD206A
:1020300019F0C801937002C080E090E00E94741F04
:102040009EC1802FDD2019F00E94A21B02C00E94B9
:10205000E91A0E94BF1A93C1812F837009F069C0E9
:10206000D11089C1902F929596959770990F990FDD
:10207000802F8F70882E912CA12CB12C092E04C09A
:10208000880C991CAA1CBB1C0A94D2F704FF12C02E
:102090004FE050E060E070E004C0440F551F661F41
:1020A000771F9A95D2F7DB01CA0180959095A0958C
:1020B000B09503C080E090E0DC0116951695412FA5
:1020C0004370423019F1C8F40091880210918902DE
:1020D00020918A0230918B02413059F08829992948
:1020E000AA29BB29BC01CD0160237123822393233C
:1020F0000AC0802A912AA22AB32ABC01CD016829EC
:1021000079298A299B290E94FA1535C1882999299C
:10211000AA29BB29009188021091890220918A0284
:1021200030918B02BC01CD01602771278227932754
:10213000EACFDD2019F0812F817001C086958823B8
:1021400009F419C1902F929596959770990F990F50
:10215000802F8F70882E912CA12CB12C092E04C0B9
:10216000880C991CAA1CBB1C0A94D2F704FF12C04D
:102170004FE050E060E070E004C0440F551F661F60
:10218000771F9A95D2F7DB01CA0180959095A095AB
:10219000B09503C080E090E0DC0116951695412FC4
:1021A00043704230D9F068F500914703109148031D
:1021B0002091490330914A03413059F088299929E7
:1021C000AA29BB29BC01CD0160237123822393235B
:1021D0001EC0802A912AA22AB32A13C088299929CD
:1021E000AA29BB2900914703109148032091490374
:1021F00030914A03BC01CD016027712782279327C4
:1022000006C0BC01CD01682979298A299B290E9431
:102210008D15B1C01F70DD2039F0812F0E94D915B6
:10222000802F0E94FC28A7C0802F0E94F128812FB8
:102230000E949715A0C0802F32EF931609F440C07A
:10224000391538F090EF991661F0E1EF9E1699F18B
:1022500074C0F3EF9F16D9F124EF921609F44EC023
:102260006CC0DD2019F134E03A1508F480C01F710C
:1022700081E090E0A0E0B0E0AC01BD0104C0440FFB
:10228000551F661F771F1A95D2F7809147039091CB
:102290004803A0914903B0914A038A019B01082792
:1022A00019272A273B27C901B80125C025E02A158F
:1022B00008F45DC0DCCFDD2029F0812F8F7130C0A4
:1022C000DD20D9F3812F8F710E94971550C0DD203A
:1022D00079F01F7181E090E0A0E0B0E0BC01CD0199
:1022E00004C0660F771F881F991F1A95D2F703C085
:1022F00060E070E0CB010E948D1539C0DD2099F0BF
:102300001F71812F0E94D9158091A10182FD07C004
:1023100038E0139FC0011124836080938302812FD2
:102320000E94D91524C081E00E94BC1581E08A1565
:10233000F0F482E00E94BC151AC0DD2039F0AA201A
:1023400009F4BBCF802F0E946D2911C0AA2009F487
:10235000B9CF893349F49FEFE7EEF3E09150E040C5
:10236000F040E1F700C00000802F0E94062988EFAE
:102370008B0D843020F40E94A01F0E946B1ECC2085
:1023800009F45DC08091830280FD59C0F70112827B
:102390008595859585950E94D915C7010E94880A63
:1023A0008091830285958595859529960FB6F89439
:1023B000DEBF0FBECDBFDF91CF911F910F91FF9078
:1023C000EF90DF90CF90BF90AF909F908F907F90D5
:1023D0006F905F904F903F900C9497158160809321
:1023E000D401813019F489E08093D4018091D40123
:1023F0004FCA2091D401822F869586958695482FC5
:1024000050E04530510554F48F5F982F990F990F84
:10241000990F822F8770892B8093D4018091D401EA
:10242000816034CA97709093D40126CA0131FFE5C8
:102430001F0709F054CA82E0B3C969E2EACB2996C2
:102440000FB6F894DEBF0FBECDBFDF91CF911F91C5
:102450000F91FF90EF90DF90CF90BF90AF909F9043
:102460008F907F906F905F904F903F9008958091F4
:102470001A03089580E00895CF93DF9300D01F9250
:10248000CDB7DEB790913D03943011F589837B83FE
:102490006A839093E9008FEF9091E800815095FD59
:1024A00006C095ED9A95F1F700008111F5CF809166
:1024B000E80085FF0DC040E050E063E070E0CE0131
:1024C00001960E94C5288091E8008E778093E800ED
:1024D0000F900F900F90DF91CF910895BC0184E091
:1024E0000C943C12BC0183E00C943C1224E0209339
:1024F000E9002FEF3091E800215035FD06C035EDA1
:102500003A95F1F700002111F5CF2091E80025FF61
:102510000BC040E050E066E070E00E94C52880916A
:10252000E8008E778093E8000895CF93DF932091A1
:102530001C01222339F02091A00127FF03C060E293
:1025400024E002C068E021E02093E9002FEF309101
:10255000E800215035FD06C035ED3A95F1F7000051
:102560002111F5CF2091E80025FF1DC0EC018091DD
:102570001C01811105C040E050E068E070E003C03C
:1025800070E040E050E0CE010E94C5288091E80054
:102590008E778093E80080E2FE01ABE1B3E001902A
:1025A0000D928A95E1F7DF91CF91089581E08093B4
:1025B000E00080E28093D8001092C9008FE19EE491
:1025C0000197F1F700C0000087E090EBDC018093F9
:1025D0004B0390934C03A0934D03B0934E039CE0A8
:1025E00088E10FB6F894A895809360000FBE909391
:1025F0006000FFCF78941F920F920FB60F921124B4
:102600008F939F93AF93BF938091E8019091E901DD
:10261000A091EA01B091EB010196A11DB11D80933B
:10262000E8019093E901A093EA01B093EB01BF9117
:10263000AF919F918F910F900FBE0F901F901895A3
:102640009C014FB7F8948091E8019091E901A09125
:10265000EA01B091EB014FBF821B930B08952FB796
:10266000F8948091E8019091E901A091EA01B0917C
:10267000EB012FBF08951F920F920FB60F921124F6
:102680008F939F93AF93BF938091B101811113C03A
:102690008091E8019091E901A091EA01B091EB01EC
:1026A0004196A11DB11D8093E8019093E901A0938B
:1026B000EA01B093EB01BF91AF919F918F910F9081
:1026C0000FBE0F901F90189520911C012223C9F076
:1026D0002091A00127FF15C0262F26952695269527
:1026E0002E31C8F4FC01E20FF11D677081E090E02B
:1026F00001C0880F6A95EAF78095928189238283C9
:102700000895FC0106962281621301C0128231965F
:10271000E817F907C1F7089520911C012223C1F0A1
:102720002091A00127FF14C0262F269526952695D7
:102730002E3130F5FC01E20FF11D677081E090E071
:1027400001C0880F6A95EAF79281892B82830895E8
:10275000FC0132962FEF30E04191641789F02F3F52
:1027600019F4411101C0232F3F5F3630A9F72F3FE5
:1027700039F0FC01E20FF11D27FDFA9562830895FF
:102780000895CF9384E090E00E945D2BC82F82E2F1
:1027900090E00E945D2B2C2F30E0A901582BCA013C
:1027A000CF9108956AEE7EEF80E090E00E948F2B3B
:1027B00060E082E090E00E94712B60E083E090E0B6
:1027C0000E94712B109288021092890210928A0244
:1027D00010928B0260E084E090E00E94712B60E038
:1027E00082E290E00E94712B60E085E090E00E9420
:1027F000712B60E086E090E00E94712B6FEF87E024
:1028000090E00E94712B40E050E0BA0188E090E037
:102810000E94832B60E08DE090E00E94712B40E0ED
:1028200050E0BA0188E190E00E94832B60E087E1EC
:1028300090E00E94712B40E050E0BA018CE190E002
:102840000E94832B60E070E080E290E00E948F2B7A
:1028500040E050E0BA0188E190E00E94832B40E024
:1028600050E0BA018FE090E00E94832B40E050E0FE
:10287000BA0183E190E00C94832B8091870281114F
:102880001092870208959091860280918502892B8B
:1028900020918402982F922B9093EE0180918702D1
:1028A0008823D9F0892B8093EE0180911C01882325
:1028B00031F08091A00187FF02C08EE101C086E067
:1028C000E0EFF1E090E0815028F021912223D9F34C
:1028D0009F5FF9CF91110E943D14E091AF01F091FB
:1028E000B0013097A9F080911C01882359F08091A4
:1028F000A00187FF07C08091EE018093EF0185E082
:102900008093EE010280F381E02D8EEE91E0099438
:10291000089580E090E00E948A1F80E090E00E948D
:10292000741F10928502109284020E944314E0ECFE
:10293000F1E086E0DF011D928A95E9F71092BD0172
:102940001092BA0110920E020C94BF1ACF93C0914C
:10295000A101C2FB992790F9981781F080FBC2F979
:10296000C093A1016091A00184E090E00E94712BCE
:102970006C2F82E290E0CF910C94712BCF9108954F
:10298000BF92CF92DF92EF92FF920F931F93CF935C
:10299000DF938C01C0904703D0904803E090490337
:1029A000F0904A038091880290918902A0918A0256
:1029B000B0918B02C82AD92AEA2AFB2ACFE1D0E0BB
:1029C000D701C6010C2E04C0B695A795979587959B
:1029D0000A94D2F780FD04C0219790F7B12C07C06C
:1029E000BC2EB8018C2F0E94DC1C0197A9F38B2D03
:1029F000DF91CF911F910F91FF90EF90DF90CF90DB
:102A0000BF900895CF93DF93EC010E94C014BE01E4
:102A10000E94DC1CDF91CF9108950E940215292F9E
:102A20002F70E92FE295EF704E2F50E0FA013297A8
:102A3000EE30F105B8F4EB58FF4F0C944C2C803F6E
:102A400099F018F4883E70F40FC0843F59F40CC01C
:102A5000883E50F0813F31F407C0822F86958695DD
:102A60008695089580E0089581E0089520E1929F81
:102A7000800D1124682F669566956695982F97703E
:102A800085E0689FB001112440E050E080E0FB0148
:102A9000E40FF51FE95BFD4F208130E0092E02C0F5
:102AA000369527950A94E2F721703327042E01C04A
:102AB000220F0A94EAF7822B4F5F5F4F4530510592
:102AC00031F7089520E1929F800D1124E82FE695BB
:102AD000E695E695877051E001C0550F8A95EAF7B3
:102AE00085E0E89FF0011124E95BFD4F20E030E034
:102AF00070E04081CB01022E02C0969587950A9422
:102B0000E2F78170819584278523842781932F5F45
:102B10003F4F2530310569F708956093470370935F
:102B200048038093490390934A030C9489140F93AC
:102B30001F9341E050E060E070E004C0440F551F77
:102B4000661F771F8A95D2F74095509560957095CE
:102B50008091470390914803A0914903B0914A03A3
:102B60008A019B01082319232A233B23C901B801A9
:102B70001F910F910C948D152091830280958223D3
:102B800080938302982F977041F430E0482F082EED
:102B9000000C550B2417350721F49091A10192FFE9
:102BA00007C08595859585950E949715109283029B
:102BB00008950F931F9341E050E060E070E004C07F
:102BC000440F551F661F771F8A95D2F780914703E0
:102BD00090914803A0914903B0914A038A019B0157
:102BE000082B192B2A2B3B2BC901B8011F910F91E0
:102BF0000C948D15609388027093890280938A02E9
:102C000090938B020C948914809146029091150246
:102C1000891719F08F5F8770FBCF08950F931F936B
:102C2000CF93DF938091140282958F7009F05DC07D
:102C300080911102882309F458C0809146021091B6
:102C4000150260910F0270911002C0911202D09192
:102C5000130291E06F3F09F090E0292F06E0811701
:102C600009F443C0209721F07F3F21F030E003C0FA
:102C700031E001C0322F90E030FD34C0089FF001F8
:102C8000099FF00D1124DF01AA5EBD4F11963C9102
:102C90001197371327C03C91361324C012963C91EC
:102CA000129731111FC013964D915C9114974C1BD4
:102CB0005D0B483C5105B0F4809114028F70806127
:102CC00080931402E55EFD4F80818F708061808368
:102CD0008FE092E00E94880ADF91CF911F910F91BF
:102CE0000C94041601968770BACFDF91CF911F9193
:102CF0000F9108959F92AF92BF92CF92DF92EF9281
:102D0000FF920F931F93CF93DF93CDB7DEB76197F9
:102D10000FB6F894DEBF0FBECDBF8C0185E0F80181
:102D2000DE011D9601900D928A95E1F7F8019081E0
:102D30008181E28030910F02609110024091120275
:102D4000509113024115510531F06F3F31F421E0EC
:102D50003F3F19F403C021E001C020E0F22FF170E1
:102D60009F2E20FD23C1F801C380D4802FE0A22E26
:102D700022E0B22EF0901102F601E41BF50BFF20C9
:102D800009F4CEC020911402E83CF10508F099C086
:102D9000422F407F09F051C0681311C039130FC092
:102DA000FE2CE1100CC02F70206120931402C5018D
:102DB0000E94880A80911402F801858337C1CD28CA
:102DC00031F08F3F31F421E09F3F19F403C021E03F
:102DD00001C020E020FD03C021E02E2502C020E03C
:102DE00030E0F22FF170FF2E20FF1DC0209146022F
:102DF0004091150256E0241709F4F6C030E0529FC6
:102E0000F001539FF00D1124EA5EFD4F618186139E
:102E100006C06081961303C06281E61204C02F5F72
:102E20003F4F2770E8CFFE2CEE2009F4FFC08091C1
:102E3000140281608093140250C0681307C03913D4
:102E400005C0E11003C0F80125838DC09D878E87E2
:102E50008D859E850E940D15882369F1EE2059F11C
:102E600020911402822F82958F7090E0029774F067
:102E700080910F029091100298878F831986DB86CC
:102E8000CA862C87CE0107960E94880A86E0F80140
:102E9000AFE0B2E001900D928A95E1F70E940E1624
:102EA0000DC06817E1F09D878E878D859E850E94F5
:102EB0000D1581111EC0C8010E94880AFF24F394D9
:102EC000B5C0422F407F69F78FE092E00E94880AE8
:102ED00086E0F50111928A95E9F7F12CA7C0391324
:102EE000E2CFE110E0CFF8012583C8010E94880AF3
:102EF00057C0EE2001F320911402822F82958F702B
:102F000090E002971CF280910F02909110029A8338
:102F100089831B82DD82CC822E83CE010196B4CFC1
:102F2000E83CF105E8F5FE2CEE2029F2681327C0F5
:102F3000391325C02091140220FD18C0822F8295DC
:102F40008F70482F50E04115510581F0F80125831D
:102F50004F30510541F08F5F982F9295907F822FCF
:102F60008F70892B8583C8010E94880A86E0F8014A
:102F7000AFE0B2E001900D928A95E1F757C09D87CE
:102F80008E878D859E850E940D1581117FCF809142
:102F90001402816080931402C8010E94880A46C00E
:102FA00086E0F50111928A95E9F740C0EE2009F418
:102FB00082CF9D878E878D859E850E940D15F82E68
:102FC000882309F478CF86E0F801AFE0B2E0019001
:102FD0000D928A95E1F780910F02909110020E9464
:102FE00002150E940E1622C09D878E878D859E85B4
:102FF0000E940215292F22952F70223028F49F70ED
:1030000039F0811105C00BC0243028F49F7049F4B9
:10301000805E883020F0C8010E94880A9F2CF92C1D
:1030200005C0F8019581907F99F7F9CF8F2D6196B2
:103030000FB6F894DEBF0FBECDBFDF91CF911F91C9
:103040000F91FF90EF90DF90CF90BF90AF909F9047
:1030500008951092860280911C01882331F080919E
:10306000A00187FF02C08EE101C086E0E0EFF1E041
:10307000DF011D928A95E9F70C9489149091A001C3
:1030800092FF0DC0282F2871283019F4877F8460A3
:1030900006C0282F2471243011F48B7F886093FFA1
:1030A0000DC0282F2871283119F4877E846106C04D
:1030B000282F2471243111F48B7E88612091A10185
:1030C00020FF0DC0382F3871383019F4877F8160A8
:1030D00006C0382F3171313011F48E7F886021FFA6
:1030E0000DC0282F2871283119F4877E816106C010
:1030F000282F2171213111F48E7E886194FD877E05
:1031000008959091D70190FF0CC0E2E9F2E081832D
:1031100060834283339692E0E23CF907C1F70C9456
:10312000932108958091D701282F269530E021150D
:10313000310519F48170826005C02B32310524F00D
:10314000817084658093D7010895CF92DF92EF92CA
:10315000FF926B017C010E949218B701A60188E0E2
:1031600090E0FF90EF90DF90CF900C94832B8091B4
:10317000DB01882319F081508093DB016091D70136
:103180007091D8018091D9019091DA010C94A51821
:103190008091DB01833018F48F5F8093DB016091B5
:1031A000D7017091D8018091D9019091DA010C94E6
:1031B000A518E7EDF1E08DE0808311828FEF828327
:1031C0008383148260817181828193810C94A5181C
:1031D000AF92BF92CF92DF92EF92FF920F931F9325
:1031E000CF93DF93E82EF62EE901E42FF0E0611192
:1031F00006C0E152FE4FE4914E2F2E2F71C0062FD4
:1032000010E0E152FE4F4491F42FC42ED12C26E061
:10321000829FC00111242FEF30E0B9010E94242CBD
:103220005BEA5603C001579F900D11248E0D911D2E
:103230008E0D911D582F550F580FD901A01BB10BA2
:10324000AC9DC001AD9D900DBC9D900D1124E92F4A
:10325000F59ED0011124AB2FBB277901EA1AFB0A96
:10326000EC9CD001ED9CB00DFC9CB00D11245901DB
:10327000A51AB108A09E7001A19EF00CB09EF00CA2
:103280001124EF2CFF242E193F092C9D80012D9D28
:10329000100D3C9D100D1124212F6230710591F00D
:1032A00048F461157105E1F061307105B9F4242F1E
:1032B0004B2F16C06430710569F040F0663071051F
:1032C00079F00CC0242F492FE12F0AC0492FEF2F8E
:1032D0002B2F06C0292FE42F412F02C0292FEB2FBF
:1032E00049832883EA83DF91CF911F910F91FF904B
:1032F000EF90DF90CF90BF90AF900895CF93DF9382
:1033000000D01F92CDB7DEB79091D70190FF0AC0D1
:103310009E012F5F3F4F0E94E8184B8169818A818F
:103320000E9481180F900F900F90DF91CF91089518
:103330007F928F929F92AF92BF92CF92DF92EF9245
:10334000FF920F931F93CF93DF9300D01F92CDB7BF
:10335000DEB7182FD62E042FC22E9091D70190FFE2
:103360006DC0E92FE695AE2FB0E0AD5CBE4F8C91FD
:103370008093D5019E7F923061F49E012F5F3F4F75
:10338000812F0E94E8184B8169818A810E948118EF
:1033900043C0823019F40091DA013EC0863019F43E
:1033A0001091D80139C08930D9F38931A9F5E95193
:1033B0002E2F2170722EE695F0E0E152FD4F8590A0
:1033C000949032E9A32E32E0B32EE12CF12C992413
:1033D0008E9CC0018F9C900D9E9C900D112424E02A
:1033E000969587952A95E1F7711002C0810F03C069
:1033F000212F281B822F9501402F6D2D0E94E81848
:103400008FEFE81AF80A23E0A20EB11C80E1E8165B
:10341000F104F1F60E9493211093D801D092D901C2
:103420000093DA01CC2051F06091D7017091D8015E
:103430008091D9019091DA010E94A5180F900F9008
:103440000F90DF91CF911F910F91FF90EF90DF9040
:10345000CF90BF90AF909F908F907F900895E7EDB1
:10346000F1E0438128E0421B08F440E021E0628162
:1034700081810C949819E7EDF1E0438128E0420F37
:1034800008F44FEF21E0628181810C949819E7EDF7
:10349000F1E0628128E0621B08F460E021E04381F2
:1034A00081810C949819E7EDF1E0628128E0620FC8
:1034B00008F46FEF21E0438181810C949819E7EDC6
:1034C000F1E0818121E04381628188500C94981958
:1034D000E7EDF1E0818121E043816281885F0C9416
:1034E00098199091D70190FF36C09170811102C058
:1034F000926006C08B3210F0946502C0880F982B42
:103500009093D701662351F06091D7017091D80153
:103510008091D9019091DA010E94A5186091D7019C
:10352000669570E04BE050E08EE091E00E94682CE0
:10353000892B19F01092D60102C00E947D2181E0F2
:103540008093B70120E04091DA016091D901809128
:10355000D8010C94981908958091D70186958150CF
:1035600009F48AE261E00C94711A8091D701869582
:103570008F5F8B3208F081E061E00C94711A0E9439
:103580002F132091C201211104C02091C3012223D5
:1035900021F09093BF018093BE012091C4012111BD
:1035A00004C02091C501222321F09093BC01809397
:1035B000BB01E091AF01F091B001309749F082E09A
:1035C0008093C0010480F581E02D80EC91E00994A6
:1035D0000895803F39F49091C30197FF35C0109250
:1035E000C30159C0813F29F49091C3011916BCF35E
:1035F0002BC09091C201823F29F497FF25C0109201
:10360000C20149C0833F19F41916CCF31DC0909133
:10361000C401893F29F41916BCF41092C4013BC0BF
:103620008A3F19F497FF10C0F8CF8B3F39F490917F
:10363000C50197FF09C01092C5012DC08C3F21F430
:103640009091C5011916BCF39CE0980F953080F459
:1036500021E030E0A90102C0440F551F9A95E2F71E
:10366000CA0180959091C10189238093C10113C043
:103670008D3F21F480910E028E7F0BC08E3F21F48E
:1036800080910E028D7F05C08F3F29F480910E023C
:103690008B7F80930E028091C201811106C08091C0
:1036A000C301811102C01092BD018091C40181113A
:1036B00006C08091C501811102C01092BA0108951F
:1036C00080910E0280FD16C081FD16C082FD18C0DB
:1036D0008091BA01882391F0883290F428E0829F8B
:1036E000C001112468E270E00E94382C862F672BFD
:1036F00029F007C082E0089584E0089581E00895EC
:1037000088E0089580910E0280FD14C081FD14C0F0
:1037100082FD16C08091BD01882381F0843180F440
:1037200022E3829FC001112464E170E00E94382CE2
:10373000862F08958CE0089589E1089585E0089525
:1037400082E30895803F21F40E94821B819504C08A
:10375000813F29F40E94821B8093C3010895823F18
:1037600021F40E94821B819504C0833F29F40E94AA
:10377000821B8093C2010895893F19F40E94601B47
:1037800005C08A3F31F40E94601B81958093C4017B
:1037900008958B3F21F40E94601B819504C08C3FEB
:1037A00029F40E94601B8093C50108959CE0980F46
:1037B000953078F421E030E0A90102C0440F551F94
:1037C0009A95E2F7CA019091C101892B8093C101BA
:1037D00008958D3F21F480910E0281600BC08E3FD1
:1037E00021F480910E02826005C08F3F29F4809100
:1037F0000E02846080930E020895F894E82FE295FB
:10380000EF70F0E031A1282F2F7081E090E001C02F
:10381000880F2A95EAF7982F9095932391A392A168
:10382000892B82A3789408959F92AF92BF92CF92F2
:10383000DF92EF92FF920F931F93CF93DF930DE1EF
:1038400011E0C2EAD1E08EEAE82E81E0F82E912C58
:10385000CC24C394D12CB801D8018C91F894E82FD2
:10386000E295EF70F0E021A18F70A60102C0440F35
:10387000551F8A95E2F7CA01922F982B91A392A126
:103880008095892382A3789400C0E3E2F1E020E0F0
:1038900030E0A12CB12C4191842F82958F7090E063
:1038A000DC0190968C9190E04F7002C095958795C1
:1038B0004A95E2F780FD08C0C601022E02C0880FBB
:1038C000991F0A94E2F702C080E090E0A82AB92A82
:1038D0002F5F3F4F20313105F1F60F5F1F4FFB0186
:1038E00080810E94FD1BF0EAFA95F1F788819981A9
:1038F000A816B90621F0B982A88281E001C080E053
:10390000982A2296EC16FD0609F0A5CF992049F0D9
:1039100081E080938E020E942F1390938D028093FA
:103920008C0280918E028823D1F180918C0290913B
:103930008D020E942013069790F18091A201909130
:10394000A3019093DD018093DC018091A40190910B
:10395000A5019093DF018093DE018091A6019091F3
:10396000A7019093E1018093E0018091A8019091DB
:10397000A9019093E3018093E2018091AA019091C3
:10398000AB019093E5018093E4018091AC019091AB
:10399000AD019093E7018093E60110928E02892D8C
:1039A000DF91CF911F910F91FF90EF90DF90CF901B
:1039B000BF90AF909F900895CF93DF930E94A72070
:1039C000EC018238910559F1A0F48133910509F495
:1039D00073C040F48932910509F467C08A9709F4ED
:1039E00072C084C08533910509F458C0C997B9F0F5
:1039F0007DC0833E910571F138F4803E9105B1F0B0
:103A0000823E910511F172C0863E9105B9F1873E63
:103A10009105C9F1843E910509F068C024C08091E8
:103A2000A00180FD5DC081FD5BC060C08091A001F0
:103A300080FD50C08091A10180FF49C18091A0010B
:103A400084FD43C1C3EED0E042C18091A00182FF5A
:103A50003EC1F4CF8091A00182FD3FC08091A101C1
:103A600080FD3EC0EBCF8091A10181FF30C18091EC
:103A7000A00184FD2AC1C7EED0E029C18091A00138
:103A800083FF25C1F4CF8091A00183FD2CC08091DC
:103A9000A10181FFECCFC4EED0E019C18091A0015B
:103AA00085FF15C1C9E2D0E012C18091A00185FF58
:103AB0000EC1C5E3D0E00BC18091A00186FF07C114
:103AC000CAE2D0E004C18091A00186FF00C1C1E339
:103AD000D0E0FDC0C9E3D0E0FAC0C2EED0E0F7C04C
:103AE000C0EED0E0F4C0C6EED0E0F1C0C11581E573
:103AF000D80708F066C0C11520E5D207E0F0CE0176
:103B000074E0969587957A95E1F783709C2F937072
:103B100021E030E002C0220F331F9A95E2F73C68A3
:103B2000382BCF70C695C69540E2C49FE0011124A2
:103B3000C22BD32BCCC0C83ED10560F5C03ED10509
:103B400008F0C5C0C83AD105B0F4C53AD10540F077
:103B5000C55AD0E0C359DE4FC881D0E0D064B7C0A9
:103B6000C130D10509F4B3C008F4AFC0C430D105E9
:103B700008F4ABC0ACC0CF3BD10508F0A6C0C85A12
:103B8000D0E0CC0FDD1FC059DE4F0990D881C02D89
:103B9000D4649DC0C11540E2D40758F4C11581E03A
:103BA000D80708F094C0C03FD10508F48EC0D06596
:103BB0008EC0C11520E4D20708F487C0DF70D06A38
:103BC00086C0C11545E5D40708F042C0C11584E59B
:103BD000D80728F0DC2FCC27C46FD06A78C0C11575
:103BE00023E5D207B0F0CE018370992721E030E0C1
:103BF00002C0220F331F8A95E2F78C2F8695869597
:103C000040E2849FC0011124E901C82BD92BDA6856
:103C10005EC0C11542E5D40728F4DC2FCC27C16F64
:103C2000D06A55C0CE018370992721E030E002C0F0
:103C3000220F331F8A95E2F78C2F8695869540E2F6
:103C4000849FC0011124E901C82BD92BDC683FC037
:103C5000C11589E5D807B8F4C11528E5D20728F0C1
:103C6000DC2FCC27C06FD06A32C0C11546E5D4071F
:103C700060F58C2F0E943E188F71C82FD0E0DC2F8A
:103C8000CC27D06224C0C1158AE5D80780F48C2FD8
:103C90008F700E943E1894E0D695C7959A95E1F7EB
:103CA000CF70D0E0DC2FCC27D069C82B10C0CE015C
:103CB00090568115904248F48D2F8F710E943E18C6
:103CC000DD27D0628F71D82B02C0C0E0D0E0CE01DA
:103CD000DF91CF91089581FD02C02A9A08952A9814
:103CE000089508950F931F93CF93DF9300D01F92F1
:103CF000CDB7DEB78C018091910281110AC09E017F
:103D00002F5F3F4F4FEF6FEF0E94E8188A8180933B
:103D10009102F8018481813051F028F0823061F401
:103D2000409191020AC08091910240E007C06091E9
:103D3000910240E080E003C040E080E060E00E944B
:103D40008118F801848190E0019663E070E00E94A0
:103D5000382C84830F900F900F90DF91CF911F919B
:103D60000F910895CF93DF93EC01E7EDF1E04381EC
:103D700062818C810E947E198C818F5F8C83DF91A0
:103D8000CF910895CF93DF93EC01EC81F0E0EC51FB
:103D9000FD4F4491E7EDF1E0628181810E947E193F
:103DA0008C818F5F8C83DF91CF9108951F93CF9388
:103DB000DF93CDB7DEB767970FB6F894DEBF0FBEBF
:103DC000CDBF342F4B8B252F5C8B6D8B7E8B8F8BD8
:103DD0004E895F8961111092850286E0FE013D9651
:103DE000DF01982F1D929A95E9F73D872E876F87FF
:103DF000598B488BDE01179601900D928A95E1F759
:103E0000CE0107960E947A1681113EC086E0FE011F
:103E10003796DE01119601900D928A95E1F7FF81A8
:103E2000E8856A857B856115710531F0EF3F31F4D6
:103E300081E0FF3F19F403C081E001C080E080FD14
:103E400023C02091150230E0C9010196877099279F
:103E50004091460250E08417950779F1F983EA838F
:103E60007D836C8396E0929FD001939FB00D1124C7
:103E7000AA5EBD4FFE01319601900D929A95E1F731
:103E8000809315020E94041616E0809146029091DC
:103E900015028917F9F0189FC00111248A5E9D4F01
:103EA0000E947A168823B1F08091460290E0019634
:103EB0008770992780934602E8CF0E9429181092B4
:103EC000150210924602EFE0F2E086E0DF011D925B
:103ED0008A95E9F767960FB6F894DEBF0FBECDBF9F
:103EE000DF91CF911F910895209116033091170310
:103EF0002817390771F09093170380931603E09108
:103F0000AF01F091B001309721F00084F185E02DF0
:103F10000994089520911403309115032817390747
:103F200071F09093150380931403E091AF01F09129
:103F3000B001309721F00680F781E02D09940895B3
:103F4000E091AF01F091B001309721F00190F08144
:103F5000E02D099480E008950F931F93CF93DF9392
:103F6000C42FD22FFC0182818823C9F04093EC0139
:103F70000E942F13909313038093120380E28C0FFF
:103F8000883008F057C0C77081E001C0880FCA951B
:103F9000EAF7DF91CF911F910F910C94FC2880914B
:103FA000EC01481330C080911203909113030E94DA
:103FB0002013883C910538F510E21D0FCD17B9F09C
:103FC00080E28C0F883040F4C77081E001C0880F18
:103FD000CA95EAF70E94F128183028F581E09D2F54
:103FE000977001C0880F9A95EAF70E94FC28802FED
:103FF0000E94312A1830F0F4D77081E001C0880F98
:10400000DA95EAF70AC080E28C0F883098F4C7701E
:1040100081E001C0880FCA95EAF7DF91CF911F9127
:104020000F910C94F128802FDF91CF911F910F9168
:104030000C94312ADF91CF911F910F910895CF9366
:10404000DF93C7E2D3E060E0CE010E94712B21969E
:10405000C11584E0D807B9F7DF91CF9108956F9229
:104060007F928F929F92AF92BF92CF92DF92EF9208
:10407000FF920F931F93CF93DF93C0E0D0E000E057
:1040800010E03E0187E2680E711C6301C00ED11E74
:10409000E12CF12C4E01800E911EF401EE0DFF1D5E
:1040A000EC51FC4FA590B4906B2DC6010E94712B72
:1040B0006A2DC60101960E94712B82E0E80EF11C68
:1040C00082E0C80ED11C80E2E816F10431F7005EF0
:1040D0001F4F003C1105C9F6C054DF4FC11583E0E6
:1040E000D80769F6DF91CF911F910F91FF90EF9064
:1040F000DF90CF90BF90AF909F908F907F906F9008
:1041000008950F931F93CF93DF93C42FD0E0CC0F6C
:10411000DD1F20E2629FC00DD11D112430EC839F72
:10412000C00DD11D1124CE0187960E945D2B082F52
:1041300010E0102F0027CE0188960E945D2B980179
:10414000282BC901DF91CF911F910F910895462F20
:10415000843038F4763028F4603118F4672F0C94EA
:10416000812080E090E00895CF92DF92EF92FF925D
:10417000863048F4811108C0909180009F7D909313
:1041800080002E9806C085E0909180009062909308
:104190008000282F30E0AFEFBFEF0E94F92B25E021
:1041A00030E040E050E00E94D72BB42FA32F922F95
:1041B0008827492F5A2F6B2F7727CA014C3724E1C4
:1041C000520728F469E070E00E94242C29C0DB012A
:1041D000CA018A50974DAF4FBF4F6627782F892F5E
:1041E0009A2F25EF38E241E050E00E94D72B690179
:1041F0007A01CA01B9010E94082C9B01AC01C701D8
:10420000B6010E94082CBB27A92F982F872F009753
:1042100021E0A207B10511F0BC0102C06FEF7FEFF2
:1042200070938B0060938A00FF90EF90DF90CF90A7
:104230000895682F86E090E00C94712B863008F08A
:1042400085E09091D4019770282F220F220F220F22
:10425000922B9093D401987F21E009F420E0909173
:10426000D40120FB90F99093D4010C94B42080E009
:1042700090E00E946B2B8A3E9E4F51F00E94D21319
:104280008091D401847089628093D4010E941921A5
:1042900086E090E00E945D2B8093D401282F269524
:1042A0002695269530E02630310524F08770886207
:1042B0008093D4018091D40180FF04C086958695B7
:1042C000869501C080E00C94B4209091D70190FFB6
:1042D00004C09695981740F003C0811105C090E086
:1042E000961710F40C94B51A61E00C94711A882397
:1042F00011F0FA0101C0FB0109946091D7016695A4
:1043000070E04BE050E08EE091E00E94682C892B39
:1043100019F481E08093D6010E942F139093B50188
:104320008093B40108958091D70180FF0AC06A9AF2
:104330008EB18B7F9EB194602FB7F894E2E9F2E0E2
:104340000BC0E2E9F2E0118210821282339632E071
:10435000E23CF307C1F7EBCF32E0E23CF30789F030
:10436000319148E09EB9000000C037FF8EB9330F8D
:10437000000000C000C000C08EB900C04A9591F78F
:10438000EBCF2FBF8FE594E00197F1F700C000005D
:1043900008959F92AF92BF92CF92DF92EF92FF92D9
:1043A0000F931F93CF93DF93FC01A280948081E051
:1043B0008483E4EEF2E0B490E3E6F3E0E491C2EC4F
:1043C000D2E0F2E9EF2EF2E0FF2ECC24CA94D12CF9
:1043D000EB190E2F10E022E02A1530F08091D80161
:1043E00088838091D9018983911003C01B821A822E
:1043F00055C08B818823F9F081508B832FEF829FEA
:10440000C00111246C8170E00E94242CFB01FF2765
:10441000EC51FD4F8491E82FEB192FEFE29FC00183
:104420001124B8010E94242C8091DA01689FB00108
:1044300011247A8333C00E944D2B2091DA012695F6
:10444000215830E0A901440F551F322F2227240F95
:10445000351F232F33278217930704F582E08A152F
:1044600088F40E944D2BB6010E94382C88830E944C
:104470004D2B2091D9012695622F70E00E94382C97
:10448000280F29831A828091DA01843120F0893C37
:1044900018F088EC01C084E18C838B8397014A81FA
:1044A000698188810E94E818259623E0E20EF11CBC
:1044B00083E0C231D80709F08ECFDF91CF911F91F1
:1044C0000F91FF90EF90DF90CF90BF90AF909F90B3
:1044D0000C949321EF92FF920F931F93CF93DF934E
:1044E0008C01C2E9D2E0E12CF12CF8018481F8E0E2
:1044F000EF16F1041CF4882339F002C0811104C0C6
:104500009E014091DA0102C09E0140E06091D90114
:104510008091D8010E94E8188FEFE81AF80A2396D4
:1045200090E1E916F10409F70E949321F8018481D2
:1045300090E00196817099278483DF91CF911F913C
:104540000F91FF90EF9008958F929F92AF92BF923C
:10455000CF92DF92EF92FF920F931F93CF93DF934F
:10456000EC014C81042F10E09801D8010E94F92B36
:104570009B01AC010E94C42B6B017C01E0E2F0E0E6
:10458000E01BF10BA5E5B0E09B01AC010E94C42B40
:104590004B015C019F01DF010E94592C9B01AC0182
:1045A0000E94CF2B9B01AC012C0D3D1D4E1D5F1DAC
:1045B000C501B4010E94D72B822FF22E99E29217E7
:1045C00028F093E0299F900111240DC025E530E0EB
:1045D000281B3109C901880F991F280F391F37FF80
:1045E00002C02F5F3F4F35952795122F109592E906
:1045F000C92E92E0D92E00E085E5E82EEF1801FDE6
:1046000002C08E2D01C08F2D9601412F6091D901DE
:104610000E94E8180F5F83E0C80ED11C003179F7C3
:104620000E9493218C81811102C091E003C08032ED
:1046300019F49FEF90931B0190911B01890F8C83BC
:10464000DF91CF911F910F91FF90EF90DF90CF906E
:10465000BF90AF909F908F9008950F931F93CF932B
:10466000DF93C2E9D2E0FE011182108212823396FA
:1046700082E0E23CF807C1F700E010E08091900290
:10468000082E000C990B0817190794F080911A0155
:10469000082E000C990B8017910754F09E01409151
:1046A000DA016091D9018091D8010E94E81803C015
:1046B000198218821A820F5F1F4F2396003111054D
:1046C000E9F60E9493218091190190919002980F30
:1046D0009093900220911A01280F20931A0112162C
:1046E00014F49F301CF0819580931901DF91CF91D4
:1046F0001F910F910895CF92DF92EF92FF920F9347
:104700001F93CF93DF93FC01828180FF03C0DD24E0
:10471000DA9402C0DD24D394C2E9D2E000E010E0D4
:10472000198218821A8294E0E92EF12CC12C809112
:104730008F028C0D813114F08F7002C087FD805F75
:10474000082E000C990B0817190791F48091DA01D3
:104750008E9DA0018F9D500D11245595479555951F
:1047600047959E016091D9018091D8010E94E81877
:10477000CD0CF1E0EF1AF108D1F60F5F1F4F239631
:104780000031110569F60E94932180918F0291E01A
:10479000D91206C0811102C08FE006C0815004C04A
:1047A00090E001968F70992780938F02DF91CF91CF
:1047B0001F910F91FF90EF90DF90CF900895EF92AF
:1047C000FF921F93CF93DF93EC0182E9E82E82E002
:1047D000F82E10E08C8197014091DA016091D901A7
:1047E000810F0E94E818115F83E0E80EF11C103F72
:1047F00089F70E9493219A818C8190FF02C08F5F7C
:1048000001C081508C83DF91CF911F91FF90EF9079
:1048100008950F931F938091470390914803A091AF
:104820004903B0914A038C019D010670112722278C
:104830003327BC01CD01063011052105310511F4E6
:10484000686001C0677F1F910F910C948D151F93B5
:10485000CF93DF93CDB7DEB7AA970FB6F894DEBF3C
:104860000FBECDBFEFE3F3E08091F100819343E011
:10487000E734F407C9F780914003833009F462C03C
:1048800030F4813071F0823009F49CC0B3C08A30BA
:1048900009F488C08B3009F46DC0893009F0AAC0D2
:1048A00020C080913F03813A09F0A4C08091E800C4
:1048B000877F8093E8008091430390914403892B84
:1048C00021F460E28BE193E003C060E080E090E0DF
:1048D00070E00E94A32A8091E8008B778093E80023
:1048E00089C080913F03813209F084C080914303E5
:1048F00090914403009719F0029709F07BC08091D2
:10490000E800877F8093E8008091E80082FD05C081
:1049100080913D038111F8CF6DC02091F30080910B
:10492000F20090E0922B029729F48091F1008B7FA6
:10493000813021F48091F10080931A038091E80086
:104940008B7754C080913F03813A09F053C0809126
:10495000430390914403892B09F04CC08091E800F7
:10496000877F8093E8008091E80080FFFCCF8091F2
:104970001C0137C080913F038132E1F580914303F0
:1049800090914403892BB1F58091E800877F809353
:10499000E8000E944F2A8091410380931C010E94ED
:1049A000291828C080913F03813221F58091E800C9
:1049B000877F8093E8000E944F2A80914203809372
:1049C000190318C080913F03813AA1F48091E80057
:1049D000877F8093E8008091E80080FFFCCF809182
:1049E00019038093F1008091E8008E778093E800AE
:1049F0000E944F2A8091E80083FFDDC180913F0330
:104A000090914003492F50E04A30510508F0D3C13E
:104A1000FA01ED57FF4F0C944C2C803821F082386E
:104A200009F0C9C108C080913B0390913C039923D0
:104A300089F082600FC0809143038F70873008F047
:104A4000BAC18093E9008091EB0085FB882780F94B
:104A50001092E9009091E800977F9093E80080938E
:104A6000F1001092F10070C1282F2D7F09F0A3C131
:104A7000882319F0823061F09EC18091410381301A
:104A800009F099C1933009F080E080933C032EC077
:104A90008091410381112AC0809143038F702FEFD1
:104AA000280F263008F087C18093E9002091EB00A1
:104AB00020FF1CC0933021F48091EB00806214C071
:104AC0009091EB0090619093EB0021E030E0A90120
:104AD00002C0440F551F8A95E2F74093EA001092F6
:104AE000EA008091EB0088608093EB001092E9006F
:104AF0008091E800877F8093E8000E944F2A5BC185
:104B0000811159C1109141031F778091E300807892
:104B1000812B8093E3008091E800877F8093E800F9
:104B20000E944F2A8091E80080FFFCCF8091E30033
:104B300080688093E300111102C082E001C083E02D
:104B400080933D0338C18058823008F034C12091F1
:104B50004103309142032C3D53E0350779F583E062
:104B60008A838AE289834FB7F894DE01139620E0A6
:104B70003EE051E2E32FF0E050935700E49120FF34
:104B800003C0E295EF703F5FEF708E2F90E0EA3048
:104B900010F0C79601C0C0968D939D932F5F24316E
:104BA00049F74FBF8091E800877F8093E8006AE271
:104BB00070E0CE0101960E94A32AB4C08091430305
:104BC00090914403432F552743305105A9F068F4D1
:104BD0004130510509F4FEC04230510509F0EBC0E7
:104BE0008BE590E0ECEFF7E04BC04132510529F145
:104BF0004232510589F1DFC0C90199278130910501
:104C0000A1F058F0029709F0D6C0E9E6F8E0E49187
:104C10008E2F90E0E9E6F8E030C0EFE8F8E0E491AC
:104C20008E2F90E0EFE8F8E028C0E7E7F8E0E491A5
:104C30008E2F90E0E7E7F8E020C08330910508F080
:104C4000BAC0880F991FFC01E959FE4F0190F0810D
:104C5000E02D89E090E014C08330910508F0ABC0EE
:104C6000FC01EE0FFF1FEF59FE4F0190F081E02D88
:104C7000DC01A25ABE4F8C9190E0009709F49BC0D2
:104C80002091E800277F2093E80020914503309190
:104C900046032817390708F4C90140E0009789F155
:104CA00020913D03222309F43DC02530D9F1209104
:104CB000E80023FD37C02091E80022FD2FC020919D
:104CC000E80020FFEBCF4091F3002091F20030E0AC
:104CD000342B009759F02830310540F4449140932B
:104CE000F100319601972F5F3F4FF3CF41E028301D
:104CF000310509F040E02091E8002E772093E8008C
:104D0000CDCF4111CDCF0AC080913D03882351F012
:104D1000853041F08091E80083FD04C08091E80077
:104D200082FFF2CF8091E8008B778093E80043C048
:104D3000803809F040C08091E800877F8093E800C8
:104D400080913E038093F1008091E8008E77D3CE6E
:104D5000811131C0809141039091420399270297BC
:104D600054F58091E800877F8093E800109141031B
:104D700010933E030E944F2A111106C08091E30058
:104D800087FD02C081E001C084E080933D0342E0E2
:104D900061EC81E00E946E2A42E261EC84E00E94B4
:104DA0006E2A42E261EC82E00E946E2A42E260ECEE
:104DB00083E00E946E2A8091E80083FF10C08091FA
:104DC000E800877F8093E8008091EB008062809309
:104DD000EB0005C082E190E0E7E5F8E051CFAA964C
:104DE0000FB6F894DEBF0FBECDBFDF91CF911F91FC
:104DF00008951F920F920FB60F9211242F933F9395
:104E00004F935F936F937F938F939F93AF93BF93D2
:104E1000CF93DF93EF93FF93C091E900CF70809120
:104E2000EC00D82FD17080FDD0E81092E90080917D
:104E3000F000877F8093F00078940E9427241092DE
:104E4000E9008091F00088608093F000CD2BCF7056
:104E5000C093E900FF91EF91DF91CF91BF91AF91A6
:104E60009F918F917F916F915F914F913F912F9182
:104E70000F900FBE0F901F901895E8EDF0E0808125
:104E80008E7F80831092E2001092DA001092E1008F
:104E9000A0EEB0E08C9181608C9380818F778083CD
:104EA00019BCA7EDB0E08C918E7F8C9380818F7EB2
:104EB0008083109218030895CF92DF92EF92FF92B1
:104EC0000F931F93CF93DF93C8EDD0E088818F7E3F
:104ED0008883E7EDF0E080818160808384E082BF99
:104EE00081E08093180388818E7F888302EE10E032
:104EF000F80110821092DA0081EEC82ED12CF60152
:104F0000108288818F7788838881806888838881F0
:104F10008F7D888319BC10923D0310923E0310923E
:104F20003C0310923B0390EEE92EF12CF7018081B7
:104F30008B7F808388818160888342E060E080E0AD
:104F40000E946E2AF60180818E7F8083F801808125
:104F500081608083808188608083F70180818E7F7B
:104F60008083888180618883DF91CF911F910F9129
:104F7000FF90EF90DF90CF9008951F920F920FB6A1
:104F80000F9211242F933F934F935F936F937F93CF
:104F90008F939F93AF93BF93EF93FF938091E10023
:104FA00082FF09C08091E20082FF05C08091E1008C
:104FB0008B7F8093E1008091DA0080FF2AC080918E
:104FC000D80080FF26C08091DA008E7F8093DA00BF
:104FD0008091D90080FF18C080E189BD82E189BD40
:104FE00009B400FEFDCF81E080933D03809118035A
:104FF00081110FC00E943D270E945C278091E20032
:1050000084608093E20005C019BC10923D031092A9
:1050100018038091E10080FF17C08091E20080FFBB
:1050200013C08091E2008E7F8093E2008091E200C5
:1050300080618093E2008091D80080628093D800E4
:1050400019BC85E080933D038091E10084FF2EC070
:105050008091E20084FF2AC080E189BD82E189BDA0
:1050600009B400FEFDCF8091D8008F7D8093D800D9
:105070008091E1008F7E8093E1008091E2008F7E3D
:105080008093E2008091E20081608093E200809151
:105090003E03882311F084E007C08091E30087FD80
:1050A00002C081E001C083E080933D038091E10074
:1050B00083FF27C08091E20083FF23C08091E1003D
:1050C000877F8093E10082E080933D0310923E034E
:1050D0008091E1008E7F8093E1008091E2008E7FDD
:1050E0008093E2008091E20080618093E20042E0E0
:1050F00060E080E00E946E2A8091F00088608093DA
:10510000F000FF91EF91BF91AF919F918F917F91AF
:105110006F915F914F913F912F910F900FBE0F9024
:105120001F9018952091E4003091E50095E640919C
:10513000EC00842F817040FF23C08091E80080FD47
:105140001DC080913D03882399F0853099F08091AE
:10515000EB0085FD11C04091E4005091E50024175B
:10516000350729F3915011F09A01E1CF84E00895B9
:1051700082E0089583E0089581E0089580E0089535
:105180004091E80042FFDDCF0895EF92FF920F9328
:105190001F93CF93DF937C018B010E949228811192
:1051A00019C0E70101151105A1F08091E80085FD06
:1051B0000AC08091E8008E778093E8000E949228D0
:1051C000882381F307C089918093F1000150110970
:1051D000E9CF80E0DF91CF911F910F91FF90EF9089
:1051E0000895882341F080959091860289238093C9
:1051F00086020C9443140895882339F09091860216
:10520000892B809386020C9443140895882309F413
:1052100063C0823869F40E94A01F81FF5DC069E30A
:105220008EEE91E00E948C130E94431469E30EC03D
:10523000833891F40E94A01F80FF4EC063E58EEE7C
:1052400091E00E948C130E94431463E58EEE91E07E
:105250000E9464130C944314843869F40E94A01FC4
:1052600082FF3AC067E48EEE91E00E948C130E94A8
:10527000431467E4EBCF9CEF980F913A10F4682F3A
:10528000E5CF90E2980F983088F4877021E030E005
:10529000A90102C0440F551F8A95E2F7CA01809503
:1052A00090918602892380938602D4CF9BE5980F44
:1052B000933020F480E090E00C948A1F98E5980FDA
:1052C000973120F480E090E00C94741F803F20F030
:1052D0000E94E91A0C94BF1A0895CF93882309F409
:1052E000BEC0C82F8238B1F40E94A01F81FDB7C094
:1052F00069E38EEE91E00E948C130E9443142FEF1D
:1053000081EE94E0215080409040E1F700C0000021
:1053100069E317C08338E1F40E94A01F80FD9FC09D
:1053200063E58EEE91E00E948C130E9443142FEFF0
:1053300081EE94E0215080409040E1F700C00000F1
:1053400063E58EEE91E00E946413CF910C944314B8
:105350008438B1F40E94A01F82FD81C067E48EEE04
:1053600091E00E948C130E9443142FEF81EE94E091
:10537000215080409040E1F700C0000067E4E1CF99
:105380008CEF8C0F813AC0F580911C018823E1F0ED
:105390008091A00187FF18C0EC2FE695E695E69571
:1053A000F0E0E251FE4F8281282F30E04C2F477011
:1053B00081E090E002C0880F991F4A95E2F78223AE
:1053C0009323892B61F412C0E0EFF1E086EF91E0C6
:1053D0002191C21721F08E179F07D1F707C06C2FBC
:1053E0008EEE91E00E9464130E9443146C2F8EEEA7
:1053F00091E00E948C13A9CF80E28C0F883068F472
:10540000C77081E090E001C0880FCA95EAF79091DB
:105410008602892B8093860298CFEBE5EC0FE33070
:1054200040F4F0E0E359FE4F808190E0CF910C947E
:105430008A1FE8E5EC0FE73150F4F0E0EE0FFF1FB4
:10544000E059FE4F80819181CF910C94741FC03F31
:1054500030F08C2F0E94A21BCF910C94BF1ACF91D9
:1054600008951F93CF93DF93182F893319F0C0E06D
:10547000D0E002C0C0E5D0E0812F0E946D292097C6
:1054800041F08FE99FE00197F1F700C000002197FC
:10549000F6CF812FDF91CF911F910C940629809137
:1054A0003F0387FF11C08091E80082FD05C0809115
:1054B0003D038111F8CF11C08091E8008B770BC0BC
:1054C00080913D03882349F08091E80080FFF8CF68
:1054D0008091E8008E778093E8000895982F9730A8
:1054E00068F59093E900981739F07091EC002091DD
:1054F000ED005091F00003C0242F762F50E021FDE5
:1055000002C09F5FECCF3091EB003E7F3093EB0009
:105510003091ED003D7F3093ED003091EB00316034
:105520003093EB007093EC002093ED005093F0006B
:105530002091EE0027FDE5CF80E008958F708093E5
:10554000E90081E008952091450330914603261734
:10555000370748F06115710539F42091E8002E777E
:105560002093E80001C0B901FC0120E0611571053C
:1055700079F180913D038823F1F18530F1F180913B
:10558000E80083FD3CC08091E80082FD2EC0809140
:10559000E80080FFEBCF2091F3008091F20090E0D3
:1055A000922B6115710551F08830910538F42191E5
:1055B0002093F100615071090196F3CF21E0089723
:1055C00009F020E08091E8008E778093E800CECF4C
:1055D0002111CFCF0AC080913D03882361F085302F
:1055E00061F08091E80083FD0AC08091E80082FFAD
:1055F000F2CF80E0089582E0089583E0089581E08D
:1056000008958F929F92AF92BF92CF92DF92EF92C6
:10561000FF92CF93DF93EC01688179818A819B812E
:10562000611571058105910521F464E279ED8BE541
:1056300097E02DE133EF41E050E00E94A52B4901B6
:105640005A019B01AC01A7EAB1E40E94C42B6B0193
:105650007C01ACEEB4EFA50194010E94D22BDC01D9
:10566000CB018C0D9D1DAE1DBF1DB7FF03C0019763
:10567000A109B04888839983AA83BB839F77DF9170
:10568000CF91FF90EF90DF90CF90BF90AF909F9021
:105690008F9008950E94012B089580E091E00E9470
:1056A000012B0895A0E0B0E08093000190930101E8
:1056B000A0930201B09303010895F999FECF92BD22
:1056C00081BDF89A992780B50895A6E1B0E044E03D
:1056D00050E00C94972BA8E1B0E042E050E00C942D
:1056E000972B262FF999FECF92BD81BDF89A01978D
:1056F00000B4021639F01FBA20BD0FB6F894FA9A1A
:10570000F99A0FBE08950396272F0E94722B0E94CC
:10571000712B252F0E94722B242F0C94722B019633
:10572000272F0E94722B0C94712BDC01CB01FC0102
:10573000F999FECF06C0F2BDE1BDF89A319600B4EA
:105740000D9241505040B8F70895052E97FB1EF476
:1057500000940E94BC2B57FD07D00E94D72B07FC5A
:1057600003D04EF40C94BC2B509540953095219568
:105770003F4F4F4F5F4F089590958095709561957D
:105780007F4F8F4F9F4F08950E94F92BA59F900D3B
:10579000B49F900DA49F800D911D11240895B7FF13
:1057A0000C94C42B0E94C42B821B930B0895A1E27E
:1057B0001A2EAA1BBB1BFD010DC0AA1FBB1FEE1F8B
:1057C000FF1FA217B307E407F50720F0A21BB30BD6
:1057D000E40BF50B661F771F881F991F1A9469F752
:1057E00060957095809590959B01AC01BD01CF01AE
:1057F0000895A29FB001B39FC001A39F700D811DAA
:105800001124911DB29F700D811D1124911D0895C9
:10581000DB018F939F930E94C42BBF91AF91A29FF6
:10582000800D911DA39F900DB29F900D112408959E
:10583000991B79E004C0991F961708F0961B881FE2
:105840007A95C9F780950895AA1BBB1B51E107C043
:10585000AA1FBB1FA617B70710F0A61BB70B881F00
:10586000991F5A95A9F780959095BC01CD0108958F
:1058700097FB072E16F4009407D077FD09D00E94FD
:10588000242C07FC05D03EF4909581959F4F0895F8
:10589000709561957F4F0895EE0FFF1F0590F4916D
:1058A000E02D099469279627692778278727782785
:1058B00008950E94F92B332312F48A1B9B0B0C943E
:1058C000632C0E94F92BB7FF0895821B930B089558
:1058D000FC014150504030F001900616D1F731974D
:0E58E000CF010895882799270895F894FFCFE7
:1058EE000100000037129512761272126E12011913
:1058FE001A1B1C1D1E1F20212201020101909192D4
:10590E00939537F0F1C66766F59431303534979636
:10591E0033F4F6000102020202060606090909091D
:10592E0009090F0F0F0F0F0F151515181919191942
:10593E00191919191919232425252525252540223C
:10594E00B6BC079A07E4060E08270847088182832B
:10595E00E200E900EA00B500B600B700CD00830111
:10596E00CC008A0192019401210223022402250215
:0E597E00260227022A02B300B4006F00700058
:00000001FF
