:100000000C9409040C9450040C9450040C94500467
:100010000C9450040C9450040C9450040C94500410
:100020000C9450040C9450040C94B6270C94F226B3
:100030000C942C130C9450040C9450040C94500405
:100040000C9450040C9450040C9450040C945004E0
:100050000C9450040C94EB120C9450040C94500427
:100060000C9450040C9450040C9450040C945004C0
:100070000C9450040C9450040C9450040C945004B0
:100080000C9450040C9450040C9450040C945004A0
:100090000C9450040C9450040C9450040C94500490
:1000A0000C9450040C9450040C9450048608890855
:1000B000C708DE08E608060909095A099009360A40
:1000C000360A9F09A109A609CB09ED09F009F30930
:1000D000160A630F630F9D0F9D0FF60F1210A811E4
:1000E000A8111D10FB100C110C1115151515281554
:1000F00028151E152815281528151515151523154D
:1001000028152815231506252D25D4262D25D4267A
:1001100079259C25D4269126A1261E0F0500047F53
:100120003F1F643214643214783C1E1E140A05000A
:1001300000000000000000000000000000000000BF
:1001400000000000000000000000000000000000AF
:100150000000007E0F00D4FFFFFFC7000000780002
:10016000000000000000002A2B2800000000000012
:100170000000000000000000000029000000002C2A
:100180001E3420212224342627252E362D373827C9
:100190001E1F202122232425263333362E37381FD5
:1001A0000405060708090A0B0C0D0E0F1011121397
:1001B0001415161718191A1B1C1D2F3130232D3535
:1001C0000405060708090A0B0C0D0E0F1011121377
:1001D0001415161718191A1B1C1D2F3130354C0019
:1001E00001010101010101010102020202020202F8
:1001F00002020303030303030303040404040404CB
:100200000405050505050606060606070707070790
:1002100008080808090909090A0A0A0B0B0B0C0C43
:100220000C0D0D0D0E0E0E0F0F0F101011111112DF
:100230001213131414151516161717181819191A5E
:100240001A1B1B1C1D1D1E1E1F20202122222324C1
:1002500024252626272829292A2B2C2D2D2E2F3000
:10026000313232333435363738393A3B3C3D3E3F14
:10027000404142434445464748494A4C4D4E4F5001
:10028000515354555658595A5B5D5E5F61626465BF
:100290006668696B6C6D6F7072737577787A7B7D49
:1002A0007E8082838587888A8C8E8F91939596989D
:1002B0009A9C9EA0A2A3A5A7A9ABADAFB1B3B5B7B9
:1002C000BABCBEC0C2C4C6C9CBCDCFD1D4D6D8DB90
:1002D000DDDFE2E4E7E9EBEEF0F3F5F8FAFDFFFF2E
:1002E000AA7F55402223252628292A2C2D2F30325B
:1002F000333536383A3B3D3E4042434547494A4C08
:100300004E5051535557595A5C5E60626466686935
:100310006B6D6F71737577797B7D7F81838587893D
:100320008A8C8E90929496989A9C9E9FA1A3A5A742
:10033000A8AAACAEAFB1B3B4B6B8B9BBBCBEBFC16E
:10034000C2C3C5C6C7C9CACBCCCDCED0D1D2D2D3F9
:10035000D4D5D6D7D7D8D9D9DADADBDBDBDCDCDC0D
:10036000DCDCDDDDDDDDDCDCDCDCDCDBDBDBDADAD0
:10037000D9D9D8D7D7D6D5D4D3D2D2D1D0CECDCC47
:10038000CBCAC9C7C6C5C3C2C1BFBEBCBBB9B8B65C
:10039000B4B3B1AFAEACAAA8A7A5A3A19F9E9C9AE7
:1003A00098969492908E8C8A89878583817F7D7BB5
:1003B00079777573716F6D6B6968666462605E5C96
:1003C0005A5957555351504E4C4A4947454342405C
:1003D0003E3D3B3A3836353332302F2D2C2A2928F2
:1003E0002625232229001E001F00200021002200B4
:1003F000230024002500260027002D002E002A00BF
:100400004C004A002B00000014001A0008001500E0
:1004100017001C0018000C00120013002F00300001
:1004200031004B00390000000400160007000900ED
:100430000A000B000D000E000F00330034002800EE
:1004400000004E00E10064001D001B0006001900C2
:100450000500110010003600370038000000E500EC
:1004600052004D00E000E3000000E2003A0000000E
:100470002C0000003B000000E600E700E400500014
:1004800051004F0035003A003B003C003D003E006B
:100490003F004000410042004300440045004C0042
:1004A00001004900010000000100520001000100AC
:1004B0000100010001004600470048005200010011
:1004C0000100010001000000500051004F00010038
:1004D0000100010001004A004B0050004F000100E4
:1004E0000000010001000100010001000100010005
:1004F0000100010001004D004E005100000001000C
:100500004B0001000100010000000100010000009B
:1005100001000000010000000100010001004A008C
:100520004E004D0035003A003B003C003D003E00CF
:100530003F004000410042004300440045004C00A1
:10054000010049000100000001005200010001000B
:100550000100010001004600470048005200010070
:100560000100010001000000500051004F00010097
:100570000100010001004A004B0050004F00010043
:100580000000010001000100010001000100010064
:100590000100010001004D004E005100000001006B
:1005A0004B000100010001000000010001000000FB
:1005B00001000000010000000100010001004A00EC
:1005C0004E004D0035003A003B003C003D003E002F
:1005D0003F004000410042004300440045004C0001
:1005E000010049000100000001005200010001006B
:1005F00001000100010046004700480052000100D0
:100600000100010001000000500051004F000100F6
:100610000100010001004A004B0050004F000100A2
:1006200000000100010001000100010001000100C3
:100630000100010001004D004E00510000000100CA
:100640004B0001000100010000000100010000005A
:1006500001000000010000000100010001004A004B
:100660004E004D0005010902A10185020901A1000A
:100670000509190129081500250195087501810250
:100680000501093009311581257F9502750881061C
:1006900009381581257F950175088106050C0A38F2
:1006A000021581257F950175088106C0C0050109E5
:1006B00080A101850319012AB700150126B700950D
:1006C0000175108100C0050C0901A1018504190103
:1006D0002AA002150126A002950175108100C0050F
:1006E000010906A1018505050719E029E71500257F
:1006F000019508750181020507190029EF150025EC
:100700000195F07501810205081901290595057506
:10071000019102950175039101C00660FF0961A175
:10072000010962150026FF00952075088102096302
:10073000150026FF00952075089102C005010906E5
:10074000A101050719E029E71500250195087501A4
:1007500081029501750881010507190029FF15001F
:1007600026FF0095067508810005081901290595E1
:100770000575019102950175039101C009025B00A5
:10078000030100A0FA09040000010301010009218E
:10079000110100012240000705810308000A090435
:1007A00001000203000000092111010001222200C2
:1007B0000705820320000107050303200001090447
:1007C0000200010300000009211101000122B6000E
:1007D0000705840320000A120110010000000842EE
:1007E0004B676002000102000110034B004200440D
:1007F000003600370076003200000010034B004244
:10080000004400460061006E00730000000403090C
:10081000040011241FBECFEFDAE0DEBFCDBF04B667
:1008200003FE27C080913B0390913C03A0913D03C0
:10083000B0913E038730904BA740B04BD1F410925B
:100840003B0310923C0310923D0310923E0314BEF2
:1008500084B7877F84BF0FB6F894A8958091600015
:10086000886180936000109260000FBEE0E0F8E3C2
:10087000099511E0A0E0B1E0ECEEF7E502C00590CB
:100880000D92AE39B107D9F723E0AEE9B1E001C06E
:100890001D92AB33B207E1F70E9452040C94F42B83
:1008A0000C940000CF93DF93CDB7DEB7AA970FB6B5
:1008B000F894DEBF0FBECDBF84B7877F84BF0FB66D
:1008C000F894A895809160008861809360001092F0
:1008D00060000FBE90E080E80FB6F894809361004E
:1008E000909361000FBE85B7806885BF85B780682B
:1008F00085BF8BE292E190939F0180939E010E94BD
:1009000036270E9455278091E20084608093E200A0
:10091000789480912D038823A1F01091E9001F7035
:100920009091EC00892F817090FD80E8182B109237
:10093000E9008091E80083FD0E9420241F7010933D
:10094000E90082E084BD93E095BD9AEF97BD809366
:100950006E0087E30E94FE1B80E90E94FE1B80EF71
:100960000E94FE1B81EF0E94FE1B84EF0E94FE1B73
:1009700002E211E0A2E3EA2EA1E0FA2EF801819151
:100980008F010E94FE1BE016F106C1F7E0EAF1E0DC
:100990008AEA91E0A8EDB1E0119211921D921D92A8
:1009A0008E179F07C9F780E090E00E94EA2A8A3EEE
:1009B0009E4F11F00E94D01382E090E00E94DC2A4A
:1009C0008093C5010E94BF139093AC018093AB014B
:1009D0000E94151C8FE39CE90197F1F700C000000D
:1009E0000E94151C8091D80180FF17C06FEF83E231
:1009F00090E00E94F02A6FEF84E290E00E94F02ADB
:100A00006FEF85E290E00E94F02A6FEF7FEF80E0C9
:100A100090E00E940E2B0E94C71283E090E00E949B
:100A2000DC2A682F70E080E090E00E94F015549A74
:100A30005C9A259A2D9882E88093800089E18093C2
:100A400081008FEF9FEF90938700809386000E9434
:100A5000302183E290E00E94DC2A813281F484E23A
:100A600090E00E94DC2A883051F485E290E00E94F8
:100A7000DC2A91E0853109F090E0892F01C080E007
:100A800080FD1DC060E087E290E00E94F02A60E0F7
:100A900086E290E00E94F02A0E9428200E941820FE
:100AA00061E283E290E00E94F02A68E084E290E054
:100AB0000E94F02A65E185E290E00E94F02A0E94FF
:100AC00030218091AA01811136C080E090E00E941F
:100AD000EA2A8A3E9E4F21F00E94D0130E94D61827
:100AE00088E090E00E94E42A6093D3017093D401DF
:100AF0008093D5019093D6016E7F71F40E94D61831
:100B000088E090E00E94E42A6093D3017093D401BE
:100B10008093D5019093D6010E9488181092D2013B
:100B20008091D30180FF04C060E086950E94581A2E
:100B300081E08093AA018091AB0180688093AB0132
:100B40008091AB019091AC010E94B21384E091E0DE
:100B50009093AE018093AD0178E1472E512CE0E4F3
:100B60003E2EF2EE6F2EF1E07F2E8E010F5F1F4FB3
:100B70006E01FBE0CF0ED11C80912D03853009F072
:100B80007EC0BB24B39450E1E52E62E1F62E809145
:100B90002D03853009F05AC080912D03843009F46B
:100BA00043C080E00E94AD2080E00E94641E10924D
:100BB000D2018091B101811116C0B092B101809132
:100BC000D301982F91709093B0018E7F8093D301C1
:100BD0002FEF30E742E0215030404040E1F700C0C5
:100BE00000000E948C211092AF010FB6F894A895D6
:100BF000409260000FBE3092600083B7817F8460B6
:100C000083BF83B7816083BF7894889583B78E7FD5
:100C100083BF0FB6F894A895809160008861809397
:100C20006000109260000FBE80912C03882309F4AD
:100C3000AECF0E94151CE8EDF1E081919191892BD6
:100C400009F03EC46E167F06C1F7A1CF0E941F189F
:100C50000E9430210E94991F0E94641E1092B101CF
:100C60008091B001882349F08091D3018160809305
:100C7000D30160E086950E94581A0E9476210E9456
:100C8000151C882359F08FB7F8944091E2015091D8
:100C9000E3016091E4017091E5018FBFA6ECB1E042
:100CA000E8EDF1E0E12CF12C7E2D219131918D9137
:100CB0009D9182279327009779F160E0AA24A3945D
:100CC000B12CA50148235923452B09F169A37AA327
:100CD0002A213B2181E0232B09F480E08BA30E9491
:100CE00020138160782F9DA38CA349A15AA16BA1E9
:100CF0008DA10E94CF1EF701EE0FFF1FEA53FE4F9A
:100D000080819181A826B926B182A0821CC06F5F24
:100D1000AA0CBB1C6031A9F68FEFE81AF80A95E01F
:100D2000E916F10409F68FEF8EA38FA318A60E948F
:100D300020138160782F9AA789A74EA15FA168A58B
:100D40008AA50E94CF1E8091D201882309F4AAC0EF
:100D50008091D101E091D301E695E81BE093B401C5
:100D6000823059F4F0E0E55DFE4FE491EE2EF12C77
:100D70003BEBA32E3EE1B32E70C0863059F4F0E079
:100D8000E85DFE4FE491EE2EF12C2BEAA22E2EE12F
:100D9000B22E63C0893061F4E695F0E0EB5DFE4F62
:100DA000E491EE2EF12C98EDA92E93E2B92E55C0C8
:100DB0008F3061F4E695F0E0EE5DFE4FE491EE2EAB
:100DC000F12C84E7A82E83E2B82E47C0853159F470
:100DD000F0E0E15EFE4FE491EE2EF12CB6E2AB2E98
:100DE000B3E2BB2E3AC08831F9F0833249F4EDE129
:100DF000F1E0E590F490ABE6AA2EAEE1BA2E2DC05C
:100E00008432D1F0853209F58E2F63E00E94972B52
:100E1000E92FF0E0E65EFE4FE491EE2EF12CF2ECCD
:100E2000AF2EF1E2BF2E19C078E2E72EF12CEDE9EA
:100E3000AE2EE2E2BE2E11C054EFE52EFF24F39455
:100E400063E6A62E62E2B62E08C030EDE32E37E050
:100E5000F32E4AE6A42E4EE1B42E8091B5018823EC
:100E600061F01092B5010E9420139093B30180931A
:100E7000B2011092B7011092B6010E942013E091C6
:100E8000B201F091B3018E1B9F0B8F3F9F4750F42F
:100E9000EE0EFF1EF092B301E092B20182EB91E000
:100EA000F501099586E0EEEBF1E0D80101900D9295
:100EB0008A95E1F7A090C001B090C101E090C20115
:100EC000F090C3011092C0011092C1011092C201B2
:100ED0001092C301A11003C0BB2009F451C080913E
:100EE000BC019091BD010E9411139C019091BB0126
:100EF000992309F4FBC22333310508F441C09F3F15
:100F000019F09F5F9093BB01AA2061F00E94831BA0
:100F10001A1414F491E001C09FEF899F802D1124D1
:100F20008093C001BB2061F00E94831B1B1414F44A
:100F300091E001C09FEF899F802D11248093C10112
:100F40003091C0013323E1F02091C1012223C1F08F
:100F500045EB3403C0011124992319F09093C0018B
:100F600003C081E08093C00135EB2303C00111244D
:100F7000992319F09093C10103C081E08093C101CE
:100F8000E11003C0FF2009F451C08091B901909194
:100F9000BA010E9411139C019091B801992309F4A0
:100FA000AAC22536310508F441C09F3F19F09F5F62
:100FB0009093B801EE2061F00E94611B1E1414F49E
:100FC00091E001C09FEF899F802D11248093C20181
:100FD000FF2061F00E94611B1F1414F491E001C016
:100FE0009FEF899F802D11248093C3013091C2010E
:100FF0003323E1F02091C3012223C1F045EB3403F8
:10100000C0011124992319F09093C20103C081E01B
:101010008093C20135EB2303C0011124992319F0F9
:101020009093C30103C081E08093C3018091C0010C
:1010300081110BC08091C101811107C08091C20153
:10104000811103C08091C30181110E94C01AAB823B
:10105000BC82ED82FE8286E0F801AEEBB1E0019049
:101060000D928A95E1F70E94991F9091C40189170A
:1010700031F00E94991F8093C4010E94641E8091E8
:101080002D03843009F078CD83E08093E9008091CE
:10109000E80082FF71CD8091E80085FF21C00E94A9
:1010A0008B2881111BC020E2E22EF12C580109C0CF
:1010B0008091F100F50181935F01F1E0EF1AF108F1
:1010C00069F08091E80085FDF3CF8091E8008B778F
:1010D0008093E8000E948B28882399F391E001C057
:1010E00090E08091E8008B778093E800992309F4E1
:1010F00043CDE9818E2F90E0FC013197E331F1057A
:1011000008F0B4C1EA5AFF4F0C94CB2B1A8289E045
:101110001BC18A81823099F0833051F1813009F00E
:10112000A5C12FB7F8948091E2019091E301A091BD
:10113000E401B091E5012FBFBB83AC8344C086E2DC
:1011400090E00E94DC2AF82E87E290E00E94DC2AE0
:101150004F2D50E060E070E0762F652F542F44272C
:101160004A015B01882AD501C4011B821C822BC065
:10117000F801A8EDB1E08C9111969C91119712960F
:10118000928383833296EC15FD05A9F771C18A819C
:10119000823009F06BC16B817C818D819E810E94C0
:1011A000D12B4B015C0187E290E00E94F02A992745
:1011B0008B2D7A2D692D86E290E025C04C816B81C4
:1011C0008A810E947A209D838E8352C1AD80BE8029
:1011D000BA24AB24BA248C81EB809A8120E2E29E6F
:1011E0007001112430EA939FE00CF11C1124E80EE9
:1011F000F11CE80EF11C6B2DC70188960E94F02AA5
:101200006A2DC70189960E94F02A32C10E942820C7
:101210002FC18A81893061F48B8143E0849FC001B2
:1012200011246FEF70E00E94A32B862F0E941721DC
:101230008A818138B1F050F4803809F019C120E07A
:101240004B816091D5018091D40131C0823859F130
:10125000833809F00DC120E04091D6016C818B816B
:1012600026C060E08B810E94581A9B818091D30137
:10127000911111C08E7F8093D3011092D2018FEF14
:1012800090E7E2E081509040E040E1F700C00000CC
:101290000E948C21EDC081608093D30160E086952F
:1012A0000E94581AE5C08B818093D701E1C00E944B
:1012B0007F19DEC08A81893021F08A3089F41B824F
:1012C000D7C08091D001869586958695FFEF8F9F38
:1012D000C001112463E070E00E94A32B6B83C8C09F
:1012E000813899F030F4803809F0C2C08091D6017D
:1012F0002BC0823891F0833809F0BAC08091D401B4
:101300008B838091D5018C83B3C08091D30180FF02
:1013100002C0869519C080E017C08091D70114C023
:101320008091D0010E9412216091D3017091D4016B
:101330008091D5019091D6010E94A21899C080E1B8
:1013400050C081E08A8388E58B8392C0EA80FB806D
:10135000FE24EF24FE248C80912C5801C70188556F
:101360009D4F9501201B310B2815390508F080C0D1
:1013700028E5E21621E0F20628F40E94DC2AF501B5
:10138000848302C0F5011482FFEFEF1AFF0A2FEFEA
:10139000A21AB20AE3CFEA80FB80FE24EF24FE24E7
:1013A0008C80912C5801C70188559D4F9501201BB9
:1013B000310B2815390508F05BC038E5E31631E03C
:1013C000F30620F4F50164810E94F02AFFEFEF1A82
:1013D000FF0A2FEFA21AB20AE6CF0E94182048C0D7
:1013E00084E08A8345C0EA80FB80FE24EF24FE244B
:1013F0008C80912C5801C70188969501201B310BD8
:1014000028153905A8F530E8E31632E0F30628F48C
:101410000E94DC2AF501848302C0F5011482FFEFEB
:10142000EF1AFF0A2FEFA21AB20AE5CFEA80FB807B
:10143000FE24EF24FE248C80912C5801C70188964D
:101440009501201B310B2815390590F430E8E3167F
:1014500032E0F30620F4F50164810E94F02AFFEFE8
:10146000EF1AFF0A2FEFA21AB20AE8CF8FEF898393
:1014700080912D03843009F07FCB8091E9008F703B
:101480002091EC00922F917020FD90E8F92EF82A1F
:1014900082E08093E9008091E80080FF0CC040E08A
:1014A00050E060E270E0C8010E94BE288091E80030
:1014B0008E778093E8008F2D8F708093E9005CCB4E
:1014C000E9BCF9BC09B400FEFDCF8091D8008F7D46
:1014D0008093D8008091E00082608093E00080914A
:1014E000E00081FDFCCF0E941F1851CB2D3231400E
:1014F00008F007CD45CD2D32314008F058CD96CDBE
:101500003F924F925F926F927F928F929F92AF9293
:10151000BF92CF92DF92EF92FF920F931F93CF93E0
:10152000DF93CDB7DEB729970FB6F894DEBF0FBEB5
:10153000CDBFFC018081918123813481232B31F047
:101540009F3F31F491E08F3F19F403C091E001C057
:1015500090E090FD65C77F0185E0DE011196019066
:101560000D928A95E1F7F701228189819A812223E0
:1015700049F00E94B614182F682F89819A810E9421
:10158000581503C00E942C15182F69817A81812F6C
:101590000E94A0208C01F7018281882309F4F2C007
:1015A000980122513F452031310508F019C18FEFD4
:1015B00093E00E94DC2A8111EFC0025138EA832EA9
:1015C00032E0932E002379F08114F4E09F0609F4B1
:1015D000E3C0C4010E94DC2A811101C001501FEF49
:1015E000811A910AEFCF1E821F8218861986442421
:1015F00043942AE0322E84010F5F1F4FC4010E94E2
:10160000DC2A8E831F82882309F4C6C09FEF980FBF
:10161000933060F48F834E8222E0820E911CC801C9
:101620000E94DC2A8887811102C0B6C048018E0161
:101630000A5F1F4FF80120812223E9F2213009F0CF
:101640004CC08181813049F46801F2E0CF0ED11C99
:10165000F80182810E94B0290AC0823051F46801E9
:10166000F2E0CF0ED11CF80182810E943829860158
:1016700086C0833049F46801F2E0CF0ED11CF80136
:1016800082810E94FF28F3CF843019F00F5F1F4F33
:1016900076C0F80122810E5F1F4F80E090E030E0BD
:1016A000205331092A30310568F4389EA001399E53
:1016B000500D1124C901840F951F0F5F1F4FF801B2
:1016C0002081EDCF009709F45AC0EFE9FFE0319790
:1016D000F1F700C000000197F5CFE22FF0E0E15AEA
:1016E000FE4F5490822F86958695869590E0FC015A
:1016F000E15BFE4F64902770712C022E02C075943E
:1017000067940A94E2F7F1E06F227724FC01E15C30
:10171000FE4FA490B12C022E02C0B594A7940A9457
:10172000E2F731E0A322BB24FC01E15DFE4FC4904F
:10173000D12C02C0D594C7942A95E2F781E0C82243
:10174000DD246114710419F081EE0E943829A1147E
:10175000B10419F086EE0E943829852D0E94B02927
:10176000AB2819F086EE0E94FF28672819F081EE59
:101770000E94FF28CD2819F08CE20E94B0290F5F4B
:101780001F4F58CF0031EFE51E0709F040C681E03A
:101790000E948D150E94022480917302877009F4C3
:1017A0003FC6F7018281882309F43AC682E0299670
:1017B0000FB6F894DEBF0FBECDBFDF91CF911F9162
:1017C0000F91FF90EF90DF90CF90BF90AF909F90E0
:1017D0008F907F906F905F904F903F900C94B215D8
:1017E00000313FE5130711F481E005C001319FE5A9
:1017F000190721F482E00E94CF15CCCF0D3BFCE508
:101800001F0781F48091D001982F96959695969513
:10181000C9F1915E990F990F990F8770892B809369
:10182000D00124C00E3B2CE5120708F43EC00F3B4C
:10183000ECE51E0769F108F4CDC5003C2CE5120764
:1018400009F045C09091D001892F8695869586959F
:101850008F5F8F71843008F0D6C5880F880F880F8E
:101860009770892B8093D0018091D001887F91E07F
:1018700009F490E08091D00190FB80F98093D00131
:101880000E9412218091D0018695869586950AC086
:101890008091D00180FF93C58E7F8093D0010E94FC
:1018A000122180E00E94AD2077CF0B3B3CE513076F
:1018B00011F483E005C00C3B9CE5190741F480E07E
:1018C0000E9417218091D0010E94122165CF033F11
:1018D000FCE51F0799F406E221EE40EE63EF7CE59C
:1018E00009C0073DECE51E0711F506E221EE41EEC9
:1018F00067ED7CE5C7010E94A51F4ECF043F2CE594
:10190000120708F038C1083D3CE5130731F407E23F
:1019100025EE45EE68ED7CE5EDCF093D9CE5190728
:1019200001F708E221E045EE69ED7CE5E3CF88238D
:1019300009F456C11092E60102309CE5190708F43B
:1019400039C10631ECE51E0730F0C8018A5F9C45BD
:10195000099708F02FC10E94BF139093AC018093A8
:10196000AB010031FCE51F0709F4C3C008F041C01A
:1019700008303CE5130709F49AC0F0F404309CE504
:10198000190709F487C068F40230FCE51F0709F461
:1019900077C003301C4509F0E5C08091AB0182603F
:1019A00076C006303CE5130709F46EC008F07BC032
:1019B0008091AB0188606BC00C309CE5190709F47D
:1019C00085C068F40A30FCE51F0709F474C008F00C
:1019D00079C00E941F188091AB01806858C00E30FA
:1019E0003CE5130709F476C008F07FC08091AB0195
:1019F0008BC00B3F9CE5190709F44FC018F5033164
:101A0000FCE51F0709F47DC078F401313CE51307BC
:101A100009F473C002311C4509F0A4C00E941F18CC
:101A20008091AB018F7733C005319CE5190709F42C
:101A300072C008F486C00A3F1C4509F093C080912B
:101A4000AC013EC00F3F2CE5120709F45FC058F40B
:101A50000D3F8CE5180709F444C008F43FC080919D
:101A6000AC0182602DC00130EDE51E0709F475C0A0
:101A700008F45DC002301D4509F074C060E06EC01E
:101A80008091AB01816003C08091AB018061809344
:101A9000AB0168C08091AB0111C08091AC01826044
:101AA0008093AC015FC08091AB018062F0CF8091E8
:101AB000AB018064ECCF8091AB0188608460E7CF9C
:101AC0008160EECF8091AB018E7FE1CF8091AB0141
:101AD0008D7FDDCF8091AB01877FD9CF8091AC0125
:101AE00018C08091AC018D7FDBCF8091AB018F7EE0
:101AF000CECF8091AB018F7DCACF8091AB018F7B20
:101B0000C6CF8091AB01877F8B7FC1CF8091AC0125
:101B10008D7F8E7FC5CF8091AB0182FB222720F97C
:101B200091E0922790FB82F990FB83F9B0CF8091EE
:101B3000AC01982F909591708E7F892B90FB81F945
:101B4000AFCF0E941F188091AB0187FB222720F99D
:101B500091E0922790FB87F99ACF61E08EE090E0C8
:101B60000E94F02A8091AB019091AC010E94B213C7
:101B70000E941F1811CE053FFCE51F0731F406E255
:101B800021EE42EE65EF7CE5B5CE053F2CE5120770
:101B900030F407E225EE44EE64EF7CE5ABCE063F81
:101BA0003CE5130709F0C3CE07E225EE46EE66EFEB
:101BB0007CE5A0CE8091760206319CE5190709F5F7
:101BC0008A7A91E009F490E09093E701882311F07C
:101BD00065E301C069E288EE91E00E947D130EC0CA
:101BE00006311C4509F029C18091E701882309F4D9
:101BF00015C465E388EE91E00E9455130E944114DC
:101C0000CBCD82720C3C3CE5130709F4C4C008F04C
:101C100045C0063CECE51E0709F4A9C0D8F4033C16
:101C20002CE5120709F499C030F4023C8CE5180742
:101C300009F46EC0D1C0043C9CE5190709F492C0B8
:101C4000053CECE51E0709F0C7C046E45AE16FE425
:101C50007AE1A5C0093CFCE51F0709F492C078F4BD
:101C6000073C3CE5130709F487C0083C9CE51907CD
:101C700009F0B2C04AE35AE16EE27AE190C00A3C50
:101C8000ECE51E0709F482C00B3CFCE51F0709F0D8
:101C9000A3C044EB58E165EC78E181C0013D2CE53F
:101CA000120709F488C0A0F40E3C8CE5180709F46B
:101CB0007CC008F477C00F3CECE51E0709F478C03F
:101CC000003DFCE51F0709F087C06EE089E081C098
:101CD000043D2CE5120709F474C068F4023D8CE55C
:101CE000180709F46BC0033D9CE5190709F074C09F
:101CF00061E088E16BC0053DECE51E0709F464C0B6
:101D00000D35FDE51F0709F067C06AE285E261C095
:101D10008091D30180FF1BC08E7F8093D30160919F
:101D2000D3017091D4018091D5019091D6010E9488
:101D3000A2181092D2010FEF10E722E001501040DC
:101D40002040E1F700C000000E948C2125CD816079
:101D50008093D30161E0869539C043E95AE16CE98B
:101D60007AE11DC04CE95AE163E97AE118C04FE419
:101D70005AE166E47AE113C04EE25AE16AE37AE19D
:101D80000EC046E15AE162E27AE109C042E25AE15C
:101D900066E17AE104C045EC58E164EB78E10E9429
:101DA0007021FACC61E081E011C065E082E011C0F1
:101DB00068E086E00EC064E18FE00BC067E185E17A
:101DC00008C062E289E105C061E083E20E94581A1E
:101DD000E3CC0E945E21E0CC0A353DE5130741F1DA
:101DE00050F401159CE51907A9F00E3D1C4529F595
:101DF0000E94D013D1CC0B35FDE51F07D9F00C356F
:101E00001D45D9F48091AC0182FB882780F991E0CF
:101E1000892711C00E941F183FEF84E39CE03150D6
:101E200080409040E1F700C000000E94C712B4CC8F
:101E300081E001C080E00E94A414F701828100814A
:101E40001181882349F0C8010E94B614D82E682F4A
:101E5000C8010E94581504C0C8010E942C15D82E34
:101E6000B8018D2D0E94D51C8C01982EF701D280CF
:101E7000A580A2949FE0A92280917302877099F0B7
:101E8000DD2089F0812F807F803421F080E2800F77
:101E9000883048F082E00E94B2158091730287700A
:101EA000CC24C3948111C12CB12EB2948FE0B822FE
:101EB0008B2D90E08C30910508F04AC2FC01E75967
:101EC000FF4F0C94CB2B812F807F1F70882311F044
:101ED0001295107FDD20B9F0112309F424C280E2AD
:101EE000800F883010F0911006C080917602182B78
:101EF0001093760205C080917502182B109375021D
:101F00000E94411410C2802F0E94FF28112309F45F
:101F10001FC2005E1095083010F0911006C080912D
:101F2000760218231093760205C08091750218235B
:101F3000109375020E9441140BC2812F807F1F7085
:101F4000803211F01295107F992021F0F1E09F1658
:101F500011F130C0DD20B1F0AA2081F001E0A01223
:101F60000DC08091AC0182FDF3C180917702182BE6
:101F7000181709F4EDC110937702EAC18091770236
:101F8000812B10C0AA2021F021E0A21609F4E0C1A3
:101F90000E943B1427C0DD2041F035E03A1508F4DB
:101FA000D7C1812F0E94F528D3C184E08A1508F497
:101FB000CFC118C0DD2049F0AA2099F3F70185812F
:101FC00080FFB1C18F708583ECCFAA2059F009330F
:101FD00009F0BBC1FFEF17EE23E0F15010402040A5
:101FE000E1F7B1C1812F0E94EA28B2C1812F869505
:101FF0008695837019F0813059F0AAC1DD2019F05F
:10200000C801937002C080E090E00E94831FA8C1C5
:10201000DD2019F0C801937002C080E090E00E94BA
:102020006D1F9EC1802FDD2019F00E94A31B02C0EE
:102030000E94EA1A0E94C01A93C1812F837009F08E
:1020400069C0D11089C1902F929596959770990F7C
:10205000990F802F8F70882E912CA12CB12C092ED6
:1020600004C0880C991CAA1CBB1C0A94D2F704FF5C
:1020700012C04FE050E060E070E004C0440F551F14
:10208000661F771F9A95D2F7DB01CA01809590955C
:10209000A095B09503C080E090E0DC011695169500
:1020A000412F4370423019F1C8F400917802109129
:1020B000790220917A0230917B02413059F08829CF
:1020C0009929AA29BB29BC01CD0160237123822350
:1020D00093230AC0802A912AA22AB32ABC01CD01E7
:1020E000682979298A299B290E94F01535C18829F8
:1020F0009929AA29BB29009178021091790220918F
:102100007A0230917B02BC01CD01602771278227C2
:102110009327EACFDD2019F0812F817001C08695C9
:10212000882309F419C1902F929596959770990F6D
:10213000990F802F8F70882E912CA12CB12C092EF5
:1021400004C0880C991CAA1CBB1C0A94D2F704FF7B
:1021500012C04FE050E060E070E004C0440F551F33
:10216000661F771F9A95D2F7DB01CA01809590957B
:10217000A095B09503C080E090E0DC01169516951F
:10218000412F43704230D9F068F500913703109128
:1021900038032091390330913A03413059F08829AE
:1021A0009929AA29BB29BC01CD016023712382236F
:1021B00093231EC0802A912AA22AB32A13C08829F9
:1021C0009929AA29BB29009137031091380320913E
:1021D000390330913A03BC01CD0160277127822772
:1021E000932706C0BC01CD01682979298A299B293A
:1021F0000E948315B1C01F70DD2039F0812F0E942D
:10220000CF15802F0E94F528A7C0802F0E94EA28B2
:10221000812F0E948D15A0C0802F32EF931609F4F4
:1022200040C0391538F090EF991661F0E1EF9E1635
:1022300099F174C0F3EF9F16D9F124EF921609F4C7
:102240004EC06CC0DD2019F134E03A1508F480C0AE
:102250001F7181E090E0A0E0B0E0AC01BD0104C0DE
:10226000440F551F661F771F1A95D2F780913703C9
:1022700090913803A0913903B0913A038A019B01F0
:10228000082719272A273B27C901B80125C025E0BF
:102290002A1508F45DC0DCCFDD2029F0812F8F7175
:1022A00030C0DD20D9F3812F8F710E948D1550C071
:1022B000DD2079F01F7181E090E0A0E0B0E0BC018A
:1022C000CD0104C0660F771F881F991F1A95D2F79A
:1022D00003C060E070E0CB010E94831539C0DD20AF
:1022E00099F01F71812F0E94CF158091AC0182FD62
:1022F00007C038E0139FC0011124836080937302EC
:10230000812F0E94CF1524C081E00E94B21581E088
:102310008A15F0F482E00E94B2151AC0DD2039F06F
:10232000AA2009F4BBCF802F0E94382911C0AA200F
:1023300009F4B9CF893349F49FEFE7EEF3E0915008
:10234000E040F040E1F700C00000802F0E94FF282D
:1023500088EF8B0D843020F40E94991F0E94641E28
:10236000CC2009F45DC08091730280FD59C0F70153
:1023700012828595859585950E94CF15C7010E948B
:10238000800A8091730285958595859529960FB66B
:10239000F894DEBF0FBECDBFDF91CF911F910F919B
:1023A000FF90EF90DF90CF90BF90AF909F908F9075
:1023B0007F906F905F904F903F900C948D1581604F
:1023C0008093D001813019F489E08093D00180910D
:1023D000D00156CA2091D001822F86958695869588
:1023E000482F50E04330510554F48F5F982F990FD8
:1023F000990F990F822F8770892B8093D00180913C
:10240000D00181603BCA97709093D0012DCA0131F1
:10241000FFE51F0709F05BCA82E0BAC969E2EACBAF
:1024200029960FB6F894DEBF0FBECDBFDF91CF91D6
:102430001F910F91FF90EF90DF90CF90BF90AF90E2
:102440009F908F907F906F905F904F903F900895F6
:1024500080910A03089580E00895CF93DF9300D020
:102460001F92CDB7DEB790912D03943011F589837B
:102470007B836A839093E9008FEF9091E80081500D
:1024800095FD06C095ED9A95F1F700008111F5CF05
:102490008091E80085FF0DC040E050E063E070E00F
:1024A000CE0101960E94BE288091E8008E7780932D
:1024B000E8000F900F900F90DF91CF910895BC012D
:1024C00084E00C942D12BC0183E00C942D1224E0C6
:1024D0002093E9002FEF3091E800215035FD06C030
:1024E00035ED3A95F1F700002111F5CF2091E80084
:1024F00025FF0BC040E050E066E070E00E94BE287F
:102500008091E8008E778093E8000895CF93DF9361
:1025100020911C01222339F02091AB0127FF03C039
:1025200060E224E002C068E021E02093E9002FEFA0
:102530003091E800215035FD06C035ED3A95F1F7B0
:1025400000002111F5CF2091E80025FF1DC0EC010E
:1025500080911C01811105C040E050E068E070E00E
:1025600003C070E040E050E0CE010E94BE288091A0
:10257000E8008E778093E80080E2FE01ABE0B3E0F4
:1025800001900D928A95E1F7DF91CF91089581E056
:102590008093E00080E28093D8001092C9008FE120
:1025A0009EE40197F1F700C0000087E090EBDC01AA
:1025B00080933B0390933C03A0933D03B0933E0371
:1025C0009CE088E10FB6F894A895809360000FBE58
:1025D00090936000FFCF78941F920F920FB60F92E6
:1025E00011248F939F93AF93BF938091E2019091B9
:1025F000E301A091E401B091E5010196A11DB11D97
:102600008093E2019093E301A093E401B093E5018C
:10261000BF91AF919F918F910F900FBE0F901F9020
:1026200018959C014FB7F8948091E2019091E301D5
:10263000A091E401B091E5014FBF821B930B089577
:102640002FB7F8948091E2019091E301A091E40109
:10265000B091E5012FBF08951F920F920FB60F9210
:1026600011248F939F93AF93BF938091AF018111FA
:1026700013C08091E2019091E301A091E401B09137
:10268000E5014196A11DB11D8093E2019093E30104
:10269000A093E401B093E501BF91AF919F918F9119
:1026A0000F900FBE0F901F90189520911C012223B0
:1026B000C9F02091AB0127FF15C0262F269526953E
:1026C00026952E31C8F4FC01E20FF11D677081E000
:1026D00090E001C0880F6A95EAF78095928189237E
:1026E00082830895FC0106962281621301C0128242
:1026F0003196E817F907C1F7089520911C012223AC
:10270000C1F02091AB0127FF14C0262F26952695F6
:1027100026952E3130F5FC01E20FF11D677081E046
:1027200090E001C0880F6A95EAF79281892B828335
:102730000895FC0132962FEF30E04191641789F043
:102740002F3F19F4411101C0232F3F5F3630A9F705
:102750002F3F39F0FC01E20FF11D27FDFA9562834E
:1027600008950895CF93C92F682F84E090E00E94C8
:10277000F02A6C2F82E290E0CF910C94F02ACF9354
:1027800084E090E00E94DC2AC82F82E290E00E9460
:10279000DC2A2C2F30E0A901582BCA01CF910895D3
:1027A0006AEE7EEF80E090E00E940E2B60E082E017
:1027B00090E00E94F02A60E083E090E00E94F02A1E
:1027C000109278021092790210927A0210927B0293
:1027D00060E084E090E00E94F02A60E082E290E015
:1027E0000E94F02A60E085E090E00E94F02A60E01C
:1027F00086E090E00E94F02A6FEF87E090E00E9470
:10280000F02A40E050E0BA0188E090E00E94022BFC
:1028100060E08DE090E00E94F02A40E050E0BA01D4
:1028200088E190E00E94022B60E087E190E00E9446
:10283000F02A40E050E0BA018CE190E00E94022BC7
:1028400060E070E080E290E00E940E2B40E050E0FB
:10285000BA0188E190E00E94022B40E050E0BA010A
:102860008FE090E00E94022B40E050E0BA0183E14B
:1028700090E00C94022B80917702811110927702E4
:1028800008959091760280917502892B20917402AF
:10289000982F922B9093E801809177028823D9F0AA
:1028A000892B8093E80180911C01882331F080916D
:1028B000AB0187FF02C08EE101C086E0EAEEF1E0E5
:1028C00090E0815028F021912223D9F39F5FF9CF26
:1028D00091110E943B14E091AD01F091AE0130974F
:1028E000A9F080911C01882359F08091AB0187FFEA
:1028F00007C08091E8018093E90185E08093E801B9
:102900000280F381E02D88EE91E00994089580E043
:1029100090E00E94831F80E090E00E946D1F109263
:102920007502109274020E944114EEEBF1E086E011
:10293000DF011D928A95E9F71092BB011092B80150
:10294000109208020C94C01A9091AC0192FB2227BD
:1029500020F9281751F080FB92F99093AC018091F7
:10296000AB019091AC010C94B2130895BF92CF9239
:10297000DF92EF92FF920F931F93CF93DF938C011F
:10298000C0903703D0903803E0903903F0903A03B9
:102990008091780290917902A0917A02B0917B02A5
:1029A000C82AD92AEA2AFB2ACFE1D0E0D701C601FA
:1029B0000C2E04C0B695A795979587950A94D2F7E3
:1029C00080FD04C0219790F7B12C07C0BC2EB80140
:1029D0008C2F0E94D51C0197A9F38B2DDF91CF91ED
:1029E0001F910F91FF90EF90DF90CF90BF900895CF
:1029F000CF93DF93EC010E94B614BE010E94D51C58
:102A0000DF91CF9108950E94F814292F2F70E92F9C
:102A1000E295EF704E2F50E0FA013297EE30F1055B
:102A2000B8F4EB58FF4F0C94CB2B803F99F018F47F
:102A3000883E70F40FC0843F59F40CC0883E50F0BB
:102A4000813F31F407C0822F86958695869508953B
:102A500080E0089581E0089520E1929F800D112487
:102A6000682F669566956695982F977085E0689FA4
:102A7000B001112440E050E080E0FB01E40FF51FBD
:102A8000EF5BFD4F208130E0092E02C0369527957F
:102A90000A94E2F721703327042E01C0220F0A9412
:102AA000EAF7822B4F5F5F4F4530510531F70895AC
:102AB00020E1929F800D1124E82FE695E695E6959A
:102AC000877051E001C0550F8A95EAF785E0E89FCD
:102AD000F0011124EF5BFD4F20E030E070E0408119
:102AE000CB01022E02C0969587950A94E2F7817079
:102AF000819584278523842781932F5F3F4F25303D
:102B0000310569F708956093370370933803809314
:102B1000390390933A030C9487140F931F9341E069
:102B200050E060E070E004C0440F551F661F771F3F
:102B30008A95D2F7409550956095709580913703AE
:102B400090913803A0913903B0913A038A019B0117
:102B5000082319232A233B23C901B8011F910F9190
:102B60000C948315209173028095822380937302C5
:102B7000982F977041F430E0482F082E000C550B29
:102B80002417350721F49091AC0192FF07C0859579
:102B9000859585950E948D151092730208950F9367
:102BA0001F9341E050E060E070E004C0440F551F07
:102BB000661F771F8A95D2F780913703909138036B
:102BC000A0913903B0913A038A019B01082B192B7C
:102BD0002A2B3B2BC901B8011F910F910C9483152F
:102BE000609378027093790280937A0290937B02CB
:102BF0000C9487148091400290910F02891719F06C
:102C00008F5F8770FBCF08950F931F93CF93DF9350
:102C100080910E0282958F7009F05DC080910B0249
:102C2000882309F458C08091400210910F026091EE
:102C3000090270910A02C0910C02D0910D0291E03C
:102C40006F3F09F090E0292F06E0811709F443C097
:102C5000209721F07F3F21F030E003C031E001C038
:102C6000322F90E030FD34C0089FF001099FF00D35
:102C70001124DF01A05FBD4F11963C9111973713CE
:102C800027C03C91361324C012963C911297311103
:102C90001FC013964D915C9114974C1B5D0B483CE3
:102CA0005105B0F480910E028F70806180930E0206
:102CB000EB5EFD4F80818F708061808389E092E0C0
:102CC0000E94800ADF91CF911F910F910C94FA1509
:102CD00001968770BACFDF91CF911F910F91089520
:102CE0009F92AF92BF92CF92DF92EF92FF920F939B
:102CF0001F93CF93DF93CDB7DEB761970FB6F894EC
:102D0000DEBF0FBECDBF8C0185E0F801DE011D9650
:102D100001900D928A95E1F7F80190818181E2801E
:102D20003091090260910A0240910C0250910D020B
:102D30004115510531F06F3F31F421E03F3F19F467
:102D400003C021E001C020E0F22FF1709F2E20FD92
:102D500023C1F801C380D48029E0A22E22E0B22E44
:102D6000F0900B02F601E41BF50BFF2009F4CEC036
:102D700020910E02E83CF10508F099C0422F407FF7
:102D800009F051C0681311C039130FC0FE2CE110B7
:102D90000CC02F70206120930E02C5010E94800A92
:102DA00080910E02F801858337C1CD2831F08F3F25
:102DB00031F421E09F3F19F403C021E001C020E07D
:102DC00020FD03C021E02E2502C020E030E0F22FDC
:102DD000F170FF2E20FF1DC02091400240910F0294
:102DE00056E0241709F4F6C030E0529FF001539FDB
:102DF000F00D1124E05FFD4F6181861306C06081F4
:102E0000961303C06281E61204C02F5F3F4F277004
:102E1000E8CFFE2CEE2009F4FFC080910E02816005
:102E200080930E0250C0681307C0391305C0E1102B
:102E300003C0F80125838DC09D878E878D859E8573
:102E40000E940315882369F1EE2059F120910E02AA
:102E5000822F82958F7090E0029774F08091090222
:102E600090910A0298878F831986DB86CA862C8701
:102E7000CE0107960E94800A86E0F801A9E0B2E040
:102E800001900D928A95E1F70E9404160DC0681713
:102E9000E1F09D878E878D859E850E9403158111A7
:102EA0001EC0C8010E94800AFF24F394B5C0422FBF
:102EB000407F69F789E092E00E94800A86E0F50190
:102EC00011928A95E9F7F12CA7C03913E2CFE110EE
:102ED000E0CFF8012583C8010E94800A57C0EE2088
:102EE00001F320910E02822F82958F7090E002975D
:102EF0001CF28091090290910A029A8389831B82B5
:102F0000DD82CC822E83CE010196B4CFE83CF10560
:102F1000E8F5FE2CEE2029F2681327C0391325C0EE
:102F200020910E0220FD18C0822F82958F70482FAD
:102F300050E04115510581F0F80125834F305105CE
:102F400041F08F5F982F9295907F822F8F70892B01
:102F50008583C8010E94800A86E0F801A9E0B2E0FA
:102F600001900D928A95E1F757C09D878E878D85D8
:102F70009E850E94031581117FCF80910E02816092
:102F800080930E02C8010E94800A46C086E0F501C7
:102F900011928A95E9F740C0EE2009F482CF9D870F
:102FA0008E878D859E850E940315F82E882309F44F
:102FB00078CF86E0F801A9E0B2E001900D928A9501
:102FC000E1F78091090290910A020E94F8140E9490
:102FD000041622C09D878E878D859E850E94F814D9
:102FE000292F22952F70223028F49F7039F08111FB
:102FF00005C00BC0243028F49F7049F4805E8830EF
:1030000020F0C8010E94800A9F2CF92C05C0F8010D
:103010009581907F99F7F9CF8F2D61960FB6F8942F
:10302000DEBF0FBECDBFDF91CF911F910F91FF90FB
:10303000EF90DF90CF90BF90AF909F900895109247
:10304000760280911C01882331F08091AB0187FFCB
:1030500002C08EE101C086E0EAEEF1E0DF011D92E0
:103060008A95E9F70C9487149091AB0192FF0DC0FB
:10307000282F2871283019F4877F846006C0282FF4
:103080002471243011F48B7F886093FF0DC0282FAA
:103090002871283119F4877E846106C0282F247195
:1030A000243111F48B7E88612091AC0120FF0DC08A
:1030B000382F3871383019F4877F816006C0382F77
:1030C0003171313011F48E7F886021FF0DC0282FBF
:1030D0002871283119F4877E816106C0282F21715B
:1030E000213111F48E7E886194FD877E0895909140
:1030F000D30190FF0CC0E2E8F2E081836083428359
:10310000339692E0E23BF907C1F70C948C210895C5
:103110008091D301282F269530E02115310519F42F
:103120008170826005C02B32310524F08170846586
:103130008093D3018091D601813F18F080EF809376
:10314000D6010895CF92DF92EF92FF926B017C013E
:103150000E948818B701A60188E090E0FF90EF90E8
:10316000DF90CF900C94022B8091D701882319F027
:1031700081508093D7016091D3017091D4018091E7
:10318000D5019091D6010C94A2188091D70183307B
:1031900018F48F5F8093D7016091D3017091D401AF
:1031A0008091D5019091D6010C94A218E3EDF1E045
:1031B00081E1808311828FEF828380EF8383148289
:1031C00060817181828193810C94A218AF92BF9229
:1031D000CF92DF92EF92FF920F931F93CF93DF93E3
:1031E000E82EF62EE901413F08F040EFE42FF0E031
:1031F000F11006C0E152FE4FE4914E2F2E2F71C008
:103200000F2D10E0E152FE4F4491F42FC42ED12C2B
:1032100026E0E29EC00111242FEF30E0B9010E94A8
:10322000A32B5BEA5603C001579F900D11248E0D0E
:10323000911D8E0D911D582F550F580FD901A01BB0
:10324000B10BAC9DC001AD9D900DBC9D900D1124A6
:10325000E92FF59ED0011124AB2FBB277901EA1A83
:10326000FB0AEC9CD001ED9CB00DFC9CB00D112430
:103270005901A51AB108A09E7001A19EF00CB09E44
:10328000F00C1124EF2CFF242E193F092C9D8001F6
:103290002D9D100D3C9D100D1124212F62307105C4
:1032A00091F048F461157105E1F061307105B9F4F0
:1032B000242F4B2F16C06430710569F040F0663042
:1032C000710579F00CC0242F492FE12F0AC0492F36
:1032D000EF2F2B2F06C0292FE42F412F02C0292FBB
:1032E000EB2F49832883EA83DF91CF911F910F91C0
:1032F000FF90EF90DF90CF90BF90AF9008957F92B6
:103300008F929F92AF92BF92CF92DF92EF92FF92F5
:103310000F931F93CF93DF9300D01F92CDB7DEB7EB
:10332000182FD62E042FC22E9091D30190FF6DC07E
:10333000E92FE695AE2FB0E0AE5CBE4F8C91809346
:10334000D1019E7F923061F49E012F5F3F4F812F0C
:103350000E94E6184B8169818A810E94771843C0D8
:10336000823019F40091D6013EC0863019F41091D4
:10337000D40139C08930D9F38931A9F5E9512E2F0B
:103380002170722EE695F0E0E152FD4F8590949009
:1033900032E8A32E32E0B32EE12CF12C99248E9C3E
:1033A000C0018F9C900D9E9C900D112424E0969559
:1033B00087952A95E1F7711002C0810F03C0212F74
:1033C000281B822F9501402F6D2D0E94E6188FEF4C
:1033D000E81AF80A23E0A20EB11C80E1E816F10415
:1033E000F1F60E948C211093D401D092D501009364
:1033F000D601CC2051F06091D3017091D40180911D
:10340000D5019091D6010E94A2180F900F900F90B5
:10341000DF91CF911F910F91FF90EF90DF90CF90B0
:10342000BF90AF909F908F907F900895E3EDF1E073
:10343000438128E0421B08F440E021E06281818161
:103440000C947F19E3EDF1E0438128E0420F08F48A
:103450004FEF21E0628181810C947F19E3EDF1E06F
:10346000628128E0621B08F460E021E043818181F1
:103470000C947F19E3EDF1E0628128E0620F08F41B
:103480006FEF21E0438181810C947F19E3EDF1E03E
:10349000818121E04381628188500C947F19E3EDA2
:1034A000F1E0818121E043816281885F0C947F1982
:1034B0009091D30190FF36C09170811102C092604B
:1034C00006C08B3210F0946502C0880F982B909341
:1034D000D301662351F06091D3017091D4018091A2
:1034E000D5019091D6010E94A2186091D3016695F2
:1034F00070E04BE050E08EE091E00E94E72B892BDA
:1035000019F01092D20102C00E94762181E08093CE
:10351000B50120E04091D6016091D5018091D401A0
:103520000C947F1908958091D3018695815009F4F8
:103530008AE261E00C94581A8091D30186958F5FDE
:103540008B3208F081E061E00C94581ACF93DF933E
:1035500000D01F92CDB7DEB79091D30190FF0AC083
:103560009E012F5F3F4F0E94E6184B8169818A813F
:103570000E9477180F900F900F90DF91CF910895D0
:103580000E9420132091C001211104C02091C1018B
:10359000222321F09093BD018093BC012091C201B0
:1035A000211104C02091C301222321F09093BA017C
:1035B0008093B901E091AD01F091AE01309749F0EF
:1035C00082E08093BE010480F581E02D8EEB91E0D6
:1035D00009940895803F39F49091C10197FF35C057
:1035E0001092C10159C0813F29F49091C10119166F
:1035F000BCF32BC09091C001823F29F497FF25C0F6
:103600001092C00149C0833F19F41916CCF31DC0B4
:103610009091C201893F29F41916BCF41092C2019D
:103620003BC08A3F19F497FF10C0F8CF8B3F39F4A5
:103630009091C30197FF09C01092C3012DC08C3F28
:1036400021F49091C3011916BCF39CE0980F9530BA
:1036500080F421E030E0A90102C0440F551F9A9583
:10366000E2F7CA0180959091BF0189238093BF0141
:1036700013C08D3F21F4809108028E7F0BC08E3FD6
:1036800021F4809108028D7F05C08F3F29F480913D
:1036900008028B7F809308028091C001811106C0CF
:1036A0008091C101811102C01092BB018091C201C1
:1036B000811106C08091C301811102C01092B8012E
:1036C00008958091080280FD16C081FD16C082FD1C
:1036D00018C08091B801882391F0883290F428E0D6
:1036E000829FC001112468E270E00E94B72B862FF0
:1036F000672B29F007C082E0089584E0089581E0F7
:10370000089588E008958091080280FD14C081FD2D
:1037100014C082FD16C08091BB01882381F08431E2
:1037200080F422E3829FC001112464E170E00E94D2
:10373000B72B862F08958CE0089589E1089585E0E0
:10374000089582E30895803F21F40E94831B8195B0
:1037500004C0813F29F40E94831B8093C101089516
:10376000823F21F40E94831B819504C0833F29F48A
:103770000E94831B8093C0010895893F19F40E9421
:10378000611B05C08A3F31F40E94611B81958093C3
:10379000C20108958B3F21F40E94611B819504C0F2
:1037A0008C3F29F40E94611B8093C30108959CE023
:1037B000980F953078F421E030E0A90102C0440F61
:1037C000551F9A95E2F7CA019091BF01892B80930A
:1037D000BF0108958D3F21F48091080281600BC0E4
:1037E0008E3F21F480910802826005C08F3F29F44A
:1037F000809108028460809308020895F894E82F6D
:10380000E295EF70F0E031A1282F2F7081E090E079
:1038100001C0880F2A95EAF7982F9095932391A3DA
:1038200092A1892B82A3789408959F92AF92BF9220
:10383000CF92DF92EF92FF920F931F93CF93DF937C
:103840000DE111E0C0EAD1E08AEAE82E81E0F82E2D
:10385000912CCC24C394D12CB801D8018C91F8942C
:10386000E82FE295EF70F0E021A18F70A60102C071
:10387000440F551F8A95E2F7CA01922F982B91A306
:1038800092A18095892382A3789400C0E2E2F1E0BE
:1038900020E030E0A12CB12C4191842F82958F70D3
:1038A00090E0DC0190968C9190E04F7002C095956D
:1038B00087954A95E2F780FD08C0C601022E02C036
:1038C000880F991F0A94E2F702C080E090E0A82ACE
:1038D000B92A2F5F3F4F20313105F1F60F5F1F4F9F
:1038E000FB0180810E94FE1BF0EAFA95F1F78881C6
:1038F0009981A816B90621F0B982A88281E001C099
:1039000080E0982A2296EC16FD0609F0A5CF9920B2
:1039100049F081E080937E020E94201390937D0203
:1039200080937C0280917E02882391F180917C02B9
:1039300090917D020E941113069750F18091A00191
:103940009091A1019093D9018093D8018091A20117
:103950009091A3019093DB018093DA018091A401FF
:103960009091A5019093DD018093DC018091A601E7
:103970009091A7019093DF018093DE018091A801CF
:103980009091A9019093E1018093E00110927E0251
:10399000892DDF91CF911F910F91FF90EF90DF90D4
:1039A000CF90BF90AF909F900895CF93DF930E94E8
:1039B000A020EC018238910559F1A0F481339105E2
:1039C00009F473C040F48932910509F467C08A97FD
:1039D00009F472C084C08533910509F458C0C997B1
:1039E000B9F07DC0833E910571F138F4803E9105B8
:1039F000B1F0823E910511F172C0863E9105B9F198
:103A0000873E9105C9F1843E910509F068C024C044
:103A10008091AB0180FD5DC081FD5BC060C0809185
:103A2000AB0180FD50C08091AC0180FF49C1809105
:103A3000AB0184FD43C1C3EED0E042C18091AB0134
:103A400082FF3EC1F4CF8091AB0182FD3FC08091E7
:103A5000AC0180FD3EC0EBCF8091AC0181FF30C155
:103A60008091AB0184FD2AC1C7EED0E029C18091CD
:103A7000AB0183FF25C1F4CF8091AB0183FD2CC046
:103A80008091AC0181FFECCFC4EED0E019C18091F0
:103A9000AB0185FF15C1C9E2D0E012C18091AB0135
:103AA00085FF0EC1C5E3D0E00BC18091AB0186FF5D
:103AB00007C1CAE2D0E004C18091AB0186FF00C11A
:103AC000C1E3D0E0FDC0C9E3D0E0FAC0C2EED0E06F
:103AD000F7C0C0EED0E0F4C0C6EED0E0F1C0C11532
:103AE00081E5D80708F066C0C11520E5D207E0F0EF
:103AF000CE0174E0969587957A95E1F783709C2FB7
:103B0000937021E030E002C0220F331F9A95E2F754
:103B10003C68382BCF70C695C69540E2C49FE00143
:103B20001124C22BD32BCCC0C83ED10560F5C03EBA
:103B3000D10508F0C5C0C83AD105B0F4C53AD105E1
:103B400040F0C55AD0E0C459DE4FC881D0E0D064FF
:103B5000B7C0C130D10509F4B3C008F4AFC0C43058
:103B6000D10508F4ABC0ACC0CF3BD10508F0A6C06E
:103B7000C85AD0E0CC0FDD1FC159DE4F0990D88163
:103B8000C02DD4649DC0C11540E2D40758F4C115BE
:103B900081E0D80708F094C0C03FD10508F48EC07A
:103BA000D0658EC0C11520E4D20708F487C0DF704D
:103BB000D06A86C0C11545E5D40708F042C0C115DA
:103BC00084E5D80728F0DC2FCC27C46FD06A78C0F2
:103BD000C11523E5D207B0F0CE018370992721E00B
:103BE00030E002C0220F331F8A95E2F78C2F8695B2
:103BF000869540E2849FC0011124E901C82BD92B8E
:103C0000DA685EC0C11542E5D40728F4DC2FCC2762
:103C1000C16FD06A55C0CE018370992721E030E092
:103C200002C0220F331F8A95E2F78C2F8695869566
:103C300040E2849FC0011124E901C82BD92BDC6824
:103C40003FC0C11589E5D807B8F4C11528E5D207EA
:103C500028F0DC2FCC27C06FD06A32C0C11546E5F2
:103C6000D40760F58C2F0E9434188F71C82FD0E0D4
:103C7000DC2FCC27D06224C0C1158AE5D80780F498
:103C80008C2F8F700E94341894E0D695C7959A9522
:103C9000E1F7CF70D0E0DC2FCC27D069C82B10C063
:103CA000CE0190568115904248F48D2F8F710E945D
:103CB0003418DD27D0628F71D82B02C0C0E0D0E06D
:103CC000CE01DF91CF91089581FD02C05C9A0895E5
:103CD0005C98089508950F931F93CF93DF9300D0BE
:103CE0001F92CDB7DEB78C018091810281110AC08D
:103CF0009E012F5F3F4F40EF6FEF0E94E6188A81D1
:103D000080938102F8018481813051F028F0823063
:103D100061F4409181020AC08091810240E007C0B5
:103D20006091810240E080E003C040E080E060E01C
:103D30000E947718F801848190E0019663E070E0BA
:103D40000E94B72B84830F900F900F90DF91CF913B
:103D50001F910F910895CF93DF93EC01E3EDF1E014
:103D6000438162818C810E94A61A8C818F5F8C8333
:103D7000DF91CF910895CF93DF93EC01EC81F0E0D8
:103D8000EC51FD4F4491E3EDF1E0628181810E94AD
:103D9000A61A8C818F5F8C83DF91CF9108951F933A
:103DA000CF93DF93CDB7DEB767970FB6F894DEBF3A
:103DB0000FBECDBF342F4B8B252F5C8B6D8B7E8B35
:103DC0008F8B4E895F8961111092750286E0FE012A
:103DD0003D96DF01982F1D929A95E9F73D872E8732
:103DE0006F87598B488BDE01179601900D928A954B
:103DF000E1F7CE0107960E94701681113EC086E061
:103E0000FE013796DE01119601900D928A95E1F739
:103E1000FF81E8856A857B856115710531F0EF3F8B
:103E200031F481E0FF3F19F403C081E001C080E07C
:103E300080FD23C020910F0230E0C90101968770F8
:103E400099274091400250E08417950779F1F98352
:103E5000EA837D836C8396E0929FD001939FB00D9F
:103E60001124A05FBD4FFE01319601900D929A95ED
:103E7000E1F780930F020E94FA1516E0809140024C
:103E800090910F028917F9F0189FC0011124805FEB
:103E90009D4F0E9470168823B1F08091400290E0FF
:103EA00001968770992780934002E8CF0E941F18DF
:103EB00010920F0210924002E9E0F2E086E0DF018A
:103EC0001D928A95E9F767960FB6F894DEBF0FBE8C
:103ED000CDBFDF91CF911F910895209106033091BE
:103EE00007032817390771F090930703809306039F
:103EF000E091AD01F091AE01309721F00084F185A1
:103F0000E02D0994089520910403309105032817AA
:103F1000390771F09093050380930403E091AD019C
:103F2000F091AE01309721F00680F781E02D0994E1
:103F30000895E091AD01F091AE01309721F001902C
:103F4000F081E02D099480E008950F931F93CF93A3
:103F5000DF93C42FD22FFC0182818823C9F04093C4
:103F6000E6010E942013909303038093020380E2F2
:103F70008C0F883008F057C0C77081E001C0880FEF
:103F8000CA95EAF7DF91CF911F910F910C94F52814
:103F90008091E601481330C08091020390910303A1
:103FA0000E941113883C910538F510E21D0FCD17C2
:103FB000B9F080E28C0F883040F4C77081E001C016
:103FC000880FCA95EAF70E94EA28183028F581E0A0
:103FD0009D2F977001C0880F9A95EAF70E94F528E7
:103FE000802F0E94B0291830F0F4D77081E001C012
:103FF000880FDA95EAF70AC080E28C0F883098F4CF
:10400000C77081E001C0880FCA95EAF7DF91CF91B0
:104010001F910F910C94EA28802FDF91CF911F916F
:104020000F910C94B029DF91CF911F910F910895BA
:10403000CF93DF93C8EAD2E060E0CE010E94F02A7D
:104040002196C11584E0D807B9F7DF91CF91089583
:104050006F927F928F929F92AF92BF92CF92DF9298
:10406000EF92FF920F931F93CF93DF93C0E0D0E0C6
:1040700000E010E03E0188E2680E711C6301C00E92
:10408000D11EE12CF12C4E01800E911EF401EE0D9B
:10409000FF1DEC51FC4FA590B4906B2DC6010E9402
:1040A000F02A6A2DC60101960E94F02A82E0E80EED
:1040B000F11C82E0C80ED11C80E2E816F10431F751
:1040C000005E1F4F003A1105C9F6C056DF4FC038D9
:1040D00082E0D80769F6DF91CF911F910F91FF9091
:1040E000EF90DF90CF90BF90AF909F908F907F9098
:1040F0006F9008950F931F93CF93DF93C42FD0E059
:10410000CC0FDD1F20E2629FC00DD11D112430EACB
:10411000839FC00DD11D1124CE0188960E94DC2AF8
:10412000082F10E0102F0027CE0189960E94DC2A6C
:104130009801282BC901DF91CF911F910F9108950C
:10414000462F843038F4753028F4603118F4672F26
:104150000C947A2080E090E00895CF92DF92EF9265
:10416000FF92843048F4811108C0909180009F77BD
:10417000909380002D9806C083E090918000906815
:1041800090938000282F30E0AFEFBFEF0E94782B94
:1041900023E030E040E050E00E94562BB42FA32FE4
:1041A000922F8827492F5A2F6B2F7727CA014C3718
:1041B00024E1520728F469E070E00E94A32B29C093
:1041C000DB01CA018A50974DAF4FBF4F6627782F4A
:1041D000892F9A2F25EF38E241E050E00E94562BBC
:1041E00069017A01CA01B9010E94872B9B01AC01C8
:1041F000C701B6010E94872BBB27A92F982F872FB5
:10420000009721E0A207B10511F0BC0102C06FEFD9
:104210007FEF7093890060938800FF90EF90DF90AC
:10422000CF900895682F86E090E00C94F02A8430B7
:1042300008F083E09091D0019770282F220F220F71
:10424000220F922B9093D001987F21E009F420E077
:104250009091D00120FB90F99093D0010C94AD2067
:1042600080E090E00E94EA2A8A3E9E4F51F00E9430
:10427000D0138091D001847089618093D0010E9415
:10428000122186E090E00E94DC2A8093D001282F42
:1042900026952695269530E02430310524F0877048
:1042A00088618093D0018091D00180FF04C0869501
:1042B0008695869501C080E00C94AD209091D30145
:1042C00090FF04C09695981740F003C0811105C077
:1042D00090E0961710F40C949C1A61E00C94581A14
:1042E000882311F0FA0101C0FB0109946091D30108
:1042F000669570E04BE050E08EE091E00E94E72B85
:10430000892B19F481E08093D2010E9420139093AD
:10431000B3018093B20108958091D30180FF0AC058
:104320006A9A8EB18B7F9EB194602FB7F894E2E8C1
:10433000F2E00BC0E2E8F2E01182108212823396C2
:1043400032E0E23BF307C1F7EBCF32E0E23BF307A9
:1043500089F0319148E09EB9000000C037FF8EB966
:10436000330F000000C000C000C08EB900C04A95E5
:1043700091F7EBCF2FBF8FE594E00197F1F700C0E5
:10438000000008959F92AF92BF92CF92DF92EF927A
:10439000FF920F931F93CF93DF93FC01A280948031
:1043A00081E08483E4EEF2E0B490E3E6F3E0E491AC
:1043B000C2EBD2E0F2E8EF2EF2E0FF2ECC24CA945A
:1043C000D12CEB190E2F10E022E02A1530F080914D
:1043D000D40188838091D5018983911003C01B8209
:1043E0001A8255C08B818823F9F081508B832FEF7F
:1043F000829FC00111246C8170E00E94A32BFB01FD
:10440000FF27EC51FD4F8491E82FEB192FEFE29F2E
:10441000C0011124B8010E94A32B8091D601689F8E
:10442000B00111247A8333C00E94CC2A2091D60196
:104430002695215830E0A901440F551F322F22271D
:10444000240F351F232F33278217930704F582E0AB
:104450008A1588F40E94CC2AB6010E94B72B888363
:104460000E94CC2A2091D5012695622F70E00E94EF
:10447000B72B280F29831A828091D601843120F02E
:10448000893C18F088EC01C084E18C838B83970110
:104490004A81698188810E94E618259623E0E20E10
:1044A000F11C83E0C230D80709F08ECFDF91CF91A5
:1044B0001F910F91FF90EF90DF90CF90BF90AF9042
:1044C0009F900C948C21EF92FF920F931F93CF93A8
:1044D000DF938C01C2E8D2E0E12CF12CF801848159
:1044E000F8E0EF16F1041CF4882339F002C08111C2
:1044F00004C09E014091D60102C09E0140E060913F
:10450000D5018091D4010E94E6188FEFE81AF80ACD
:10451000239690E1E916F10409F70E948C21F80135
:10452000848190E00196817099278483DF91CF91F7
:104530001F910F91FF90EF9008958F929F92AF92ED
:10454000BF92CF92DF92EF92FF920F931F93CF9380
:10455000DF93EC014C81042F10E09801D8010E94F8
:10456000782B9B01AC010E94432B6B017C01E0E2A4
:10457000F0E0E01BF10BA5E5B0E09B01AC010E946F
:10458000432B4B015C019F01DF010E94D82B9B0153
:10459000AC010E944E2B9B01AC012C0D3D1D4E1D0C
:1045A0005F1DC501B4010E94562B822FF22E99E2A5
:1045B000921728F093E0299F900111240DC025E562
:1045C00030E0281B3109C901880F991F280F391FB6
:1045D00037FF02C02F5F3F4F35952795122F10955B
:1045E00092E8C92E92E0D92E00E085E5E82EEF187A
:1045F00001FD02C08E2D01C08F2D9601412F6091CB
:10460000D5010E94E6180F5F83E0C80ED11C00316F
:1046100079F70E948C218C81811102C091E003C046
:10462000803219F49FEF90931B0190911B01890F29
:104630008C83DF91CF911F910F91FF90EF90DF90CE
:10464000CF90BF90AF909F908F9008950F931F933E
:10465000CF93DF93C2E8D2E0FE0111821082128272
:10466000339682E0E23BF807C1F700E010E080916A
:104670008002082E000C990B0817190794F08091FE
:104680001A01082E000C990B8017910754F09E0117
:104690004091D6016091D5018091D4010E94E61825
:1046A00003C0198218821A820F5F1F4F23960031B0
:1046B0001105E9F60E948C218091190190918002E8
:1046C000980F9093800220911A01280F20931A01CD
:1046D000121614F49F301CF0819580931901DF911C
:1046E000CF911F910F910895CF92DF92EF92FF9299
:1046F0000F931F93CF93DF93FC01828180FF03C050
:10470000DD24DA9402C0DD24D394C2E8D2E000E0D4
:1047100010E0198218821A8294E0E92EF12CC12C43
:1047200080917F028C0D813114F08F7002C087FD63
:10473000805F082E000C990B0817190791F48091DF
:10474000D6018E9DA0018F9D500D11245595479542
:10475000559547959E016091D5018091D4010E94A5
:10476000E618CD0CF1E0EF1AF108D1F60F5F1F4FFC
:1047700023960031110569F60E948C2180917F02F9
:1047800091E0D91206C0811102C08FE006C08150AD
:1047900004C090E001968F70992780937F02DF918B
:1047A000CF911F910F91FF90EF90DF90CF900895E0
:1047B000EF92FF921F93CF93DF93EC0182E8E82EF4
:1047C00082E0F82E10E08C8197014091D601609133
:1047D000D501810F0E94E618115F83E0E80EF11CFD
:1047E000103F89F70E948C219A818C8190FF02C032
:1047F0008F5F01C081508C83DF91CF911F91FF901B
:10480000EF9008950F931F93809137039091380391
:10481000A0913903B0913A038C019D0106701127D4
:1048200022273327BC01CD010630110521053105B2
:1048300011F4686001C0677F1F910F910C9483157C
:104840001F93CF93DF93CDB7DEB7AA970FB6F89437
:10485000DEBF0FBECDBFEFE2F3E08091F1008193A8
:1048600043E0E733F407C9F780913003833009F45C
:1048700062C030F4813071F0823009F49CC0B3C062
:104880008A3009F488C08B3009F46DC0893009F092
:10489000AAC020C080912F03813A09F0A4C0809162
:1048A000E800877F8093E800809133039091340380
:1048B000892B21F460E28BE093E003C060E080E0AC
:1048C00090E070E00E94222A8091E8008B7780932C
:1048D000E80089C080912F03813209F084C0809163
:1048E000330390913403009719F0029709F07BC0CD
:1048F0008091E800877F8093E8008091E80082FD46
:1049000005C080912D038111F8CF6DC02091F30077
:104910008091F20090E0922B029729F48091F100AF
:104920008B7F813021F48091F10080930A03809184
:10493000E8008B7754C080912F03813A09F053C06F
:104940008091330390913403892B09F04CC08091FE
:10495000E800877F8093E8008091E80080FFFCCF2B
:1049600080911C0137C080912F038132E1F5809145
:10497000330390913403892BB1F58091E800877F50
:104980008093E8000E94CE298091310380931C011E
:104990000E941F1828C080912F03813221F5809139
:1049A000E800877F8093E8000E94CE29809132033F
:1049B0008093090318C080912F03813AA1F480915C
:1049C000E800877F8093E8008091E80080FFFCCFBB
:1049D000809109038093F1008091E8008E778093A5
:1049E000E8000E94CE298091E80083FFDDC180911C
:1049F0002F0390913003492F50E04A30510508F0C1
:104A0000D3C1FA01ED57FF4F0C94CB2B803821F026
:104A1000823809F0C9C108C080912B0390912C0302
:104A2000992389F082600FC0809133038F708730A3
:104A300008F0BAC18093E9008091EB0085FB8827DC
:104A400080F91092E9009091E800977F9093E80038
:104A50008093F1001092F10070C1282F2D7F09F092
:104A6000A3C1882319F0823061F09EC18091310387
:104A7000813009F099C1933009F080E080932C03D4
:104A80002EC08091310381112AC0809133038F7031
:104A90002FEF280F263008F087C18093E90020917E
:104AA000EB0020FF1CC0933021F48091EB0080626A
:104AB00014C09091EB0090619093EB0021E030E006
:104AC000A90102C0440F551F8A95E2F74093EA00FE
:104AD0001092EA008091EB0088608093EB001092C6
:104AE000E9008091E800877F8093E8000E94CE294A
:104AF0005BC1811159C1109131031F778091E3008F
:104B00008078812B8093E3008091E800877F8093F9
:104B1000E8000E94CE298091E80080FFFCCF8091C0
:104B2000E30080688093E300111102C082E001C0BD
:104B300083E080932D0338C18058823008F034C15F
:104B400020913103309132032C3D53E0350779F544
:104B500083E08A838AE289834FB7F894DE01139653
:104B600020E03EE051E2E32FF0E050935700E49163
:104B700020FF03C0E295EF703F5FEF708E2F90E053
:104B8000EA3010F0C79601C0C0968D939D932F5FB9
:104B9000243149F74FBF8091E800877F8093E80078
:104BA0006AE270E0CE0101960E94222AB4C0809190
:104BB000330390913403432F552743305105A9F017
:104BC00068F44130510509F4FEC04230510509F046
:104BD000EBC08BE590E0ECE7F7E04BC041325105CC
:104BE00029F14232510589F1DFC0C901992781308D
:104BF0009105A1F058F0029709F0D6C0E9EEF7E070
:104C0000E4918E2F90E0E9EEF7E030C0EDE0F8E0BF
:104C1000E4918E2F90E0EDE0F8E028C0EBEFF7E0B4
:104C2000E4918E2F90E0EBEFF7E020C08330910508
:104C300008F0BAC0880F991FFC01EA59FE4F019095
:104C4000F081E02D89E090E014C08330910508F0F8
:104C5000ABC0FC01EE0FFF1FE05AFE4F0190F08148
:104C6000E02DDC01A35ABE4F8C9190E0009709F42F
:104C70009BC02091E800277F2093E8002091350316
:104C8000309136032817390708F4C90140E000972E
:104C900089F120912D03222309F43DC02530D9F15B
:104CA0002091E80023FD37C02091E80022FD2FC0AD
:104CB0002091E80020FFEBCF4091F3002091F2001B
:104CC00030E0342B009759F02830310540F44491FE
:104CD0004093F100319601972F5F3F4FF3CF41E0B2
:104CE0002830310509F040E02091E8002E7720932C
:104CF000E800CDCF4111CDCF0AC080912D0388238C
:104D000051F0853041F08091E80083FD04C080912E
:104D1000E80082FFF2CF8091E8008B778093E80073
:104D200043C0803809F040C08091E800877F8093BD
:104D3000E80080912E038093F1008091E8008E7747
:104D4000D3CE811131C080913103909132039927E4
:104D5000029754F58091E800877F8093E8001091D6
:104D6000310310932E030E94CE29111106C08091A9
:104D7000E30087FD02C081E001C084E080932D0341
:104D800042E061EC81E00E94ED2942E261EC84E0C6
:104D90000E94ED2942E261EC82E00E94ED2942E2AC
:104DA00060EC83E00E94ED298091E80083FF10C051
:104DB0008091E800877F8093E8008091EB0080621B
:104DC0008093EB0005C082E190E0E7EDF7E051CF82
:104DD000AA960FB6F894DEBF0FBECDBFDF91CF917C
:104DE0001F9108951F920F920FB60F9211242F93C7
:104DF0003F934F935F936F937F938F939F93AF9363
:104E0000BF93CF93DF93EF93FF93C091E900CF70EF
:104E10008091EC00D82FD17080FDD0E81092E9008D
:104E20008091F000877F8093F00078940E94202486
:104E30001092E9008091F00088608093F000CD2B03
:104E4000CF70C093E900FF91EF91DF91CF91BF91B7
:104E5000AF919F918F917F916F915F914F913F9112
:104E60002F910F900FBE0F901F901895E8EDF0E076
:104E700080818E7F80831092E2001092DA0010927F
:104E8000E100A0EEB0E08C9181608C9380818F77FF
:104E9000808319BCA7EDB0E08C918E7F8C938081CC
:104EA0008F7E8083109208030895CF92DF92EF9255
:104EB000FF920F931F93CF93DF93C8EDD0E08881CB
:104EC0008F7E8883E7EDF0E080818160808384E0DD
:104ED00082BF81E08093080388818E7F888302EE01
:104EE00010E0F80110821092DA0081EEC82ED12C69
:104EF000F601108288818F77888388818068888313
:104F000088818F7D888319BC10922D0310922E0307
:104F100010922C0310922B0390EEE92EF12CF70146
:104F200080818B7F808388818160888342E060E01C
:104F300080E00E94ED29F60180818E7F8083F80158
:104F4000808181608083808188608083F701808197
:104F50008E7F8083888180618883DF91CF911F91CC
:104F60000F91FF90EF90DF90CF9008951F920F92D6
:104F70000FB60F9211242F933F934F935F936F932C
:104F80007F938F939F93AF93BF93EF93FF93809102
:104F9000E10082FF09C08091E20082FF05C080919C
:104FA000E1008B7F8093E1008091DA0080FF2AC0CE
:104FB0008091D80080FF26C08091DA008E7F809398
:104FC000DA008091D90080FF18C080E189BD82E1BC
:104FD00089BD09B400FEFDCF81E080932D0380914F
:104FE000080381110FC00E9436270E945527809127
:104FF000E20084608093E20005C019BC10922D038A
:10500000109208038091E10080FF17C08091E200B8
:1050100080FF13C08091E2008E7F8093E200809138
:10502000E20080618093E2008091D80080628093EA
:10503000D80019BC85E080932D038091E10084FFA6
:105040002EC08091E20084FF2AC080E189BD82E108
:1050500089BD09B400FEFDCF8091D8008F7D80937B
:10506000D8008091E1008F7E8093E1008091E20082
:105070008F7E8093E2008091E20081608093E20065
:1050800080912E03882311F084E007C08091E30013
:1050900087FD02C081E001C083E080932D038091F1
:1050A000E10083FF27C08091E20083FF23C080914D
:1050B000E100877F8093E10082E080932D031092CE
:1050C0002E038091E1008E7F8093E1008091E200C9
:1050D0008E7F8093E2008091E20080618093E20005
:1050E00042E060E080E00E94ED298091F00088605D
:1050F0008093F000FF91EF91BF91AF919F918F91BD
:105100007F916F915F914F913F912F910F900FBEC3
:105110000F901F9018952091E4003091E50095E6DE
:105120004091EC00842F817040FF23C08091E80003
:1051300080FD1DC080912D03882399F0853099F062
:105140008091EB0085FD11C04091E4005091E50095
:105150002417350729F3915011F09A01E1CF84E02B
:10516000089582E0089583E0089581E0089580E045
:1051700008954091E80042FFDDCF0895EF92FF923D
:105180000F931F93CF93DF937C018B010E948B2899
:10519000811119C0E70101151105A1F08091E80006
:1051A00085FD0AC08091E8008E778093E8000E9418
:1051B0008B28882381F307C089918093F1000150E7
:1051C0001109E9CF80E0DF91CF911F910F91FF90FE
:1051D000EF900895882341F080959091760289237D
:1051E000809376020C9441140895882339F09091AD
:1051F0007602892B809376020C94411408958823BB
:10520000B1F19CEF980F913A30F4682F88EE91E05D
:105210000E94551314C090E2980F983090F4877054
:1052200021E030E0A90102C0440F551F8A95E2F742
:10523000CA018095909176028923809376020C941E
:1052400041149BE5980F933020F480E090E00C949B
:10525000831F98E5980F973120F480E090E00C943C
:105260006D1F803F20F00E94EA1A0C94C01A089526
:10527000CF93882309F472C0C82F8CEF8C0F813A2A
:10528000C0F580911C018823E1F08091AB0187FF7C
:1052900018C0EC2FE695E695E695F0E0E851FE4F54
:1052A0008281282F30E04C2F477081E090E002C0CF
:1052B000880F991F4A95E2F782239323892B61F483
:1052C00012C0EAEEF1E080EF91E02191C21721F0E7
:1052D0008E179F07D1F707C06C2F88EE91E00E94D0
:1052E00055130E9441146C2F88EE91E00E947D13AB
:1052F00010C080E28C0F883078F4C77081E090E0B5
:1053000001C0880FCA95EAF790917602892B8093A5
:105310007602CF910C944114EBE5EC0FE33040F4AE
:10532000F0E0E459FE4F808190E0CF910C94831F10
:10533000E8E5EC0FE73150F4F0E0EE0FFF1FE15924
:10534000FE4F80819181CF910C946D1FC03F30F052
:105350008C2F0E94A31BCF910C94C01ACF9108955B
:105360001F93CF93DF93182F893319F0C0E0D0E05B
:1053700002C0C0E5D0E0812F0E943829209741F07B
:105380008FE99FE00197F1F700C000002197F6CF69
:10539000812FDF91CF911F910C94FF2880912F03D3
:1053A00087FF11C08091E80082FD05C080912D0328
:1053B0008111F8CF11C08091E8008B770BC08091EC
:1053C0002D03882349F08091E80080FFF8CF809179
:1053D000E8008E778093E8000895982F973068F55D
:1053E0009093E900981739F07091EC002091ED004E
:1053F0005091F00003C0242F762F50E021FD02C011
:105400009F5FECCF3091EB003E7F3093EB0030910B
:10541000ED003D7F3093ED003091EB003160309333
:10542000EB007093EC002093ED005093F00020917E
:10543000EE0027FDE5CF80E008958F708093E900AE
:1054400081E0089520913503309136032617370700
:1054500048F06115710539F42091E8002E7720930A
:10546000E80001C0B901FC0120E06115710579F186
:1054700080912D038823F1F18530F1F18091E800CE
:1054800083FD3CC08091E80082FD2EC08091E80041
:1054900080FFEBCF2091F3008091F20090E0922BFF
:1054A0006115710551F08830910538F421912093F0
:1054B000F100615071090196F3CF21E0089709F0DE
:1054C00020E08091E8008E778093E800CECF211114
:1054D000CFCF0AC080912D03882361F0853061F021
:1054E0008091E80083FD0AC08091E80082FFF2CF3E
:1054F00080E0089582E0089583E0089581E00895B2
:105500008F929F92AF92BF92CF92DF92EF92FF92D3
:10551000CF93DF93EC01688179818A819B8161154A
:1055200071058105910521F464E279ED8BE597E041
:105530002DE133EF41E050E00E94242B49015A0154
:105540009B01AC01A7EAB1E40E94432B6B017C01F3
:10555000ACEEB4EFA50194010E94512BDC01CB010C
:105560008C0D9D1DAE1DBF1DB7FF03C00197A10986
:10557000B04888839983AA83BB839F77DF91CF91BB
:10558000FF90EF90DF90CF90BF90AF909F908F9063
:1055900008950E94802A089580E091E00E94802A68
:1055A0000895A0E0B0E08093000190930101A093E2
:1055B0000201B09303010895F999FECF92BD81BD18
:1055C000F89A992780B50895A6E1B0E044E050E04C
:1055D0000C94162BA8E1B0E042E050E00C94162B9E
:1055E000262FF999FECF92BD81BDF89A019700B49C
:1055F000021639F01FBA20BD0FB6F894FA9AF99A3C
:105600000FBE08950396272F0E94F12A0E94F02AC8
:10561000252F0E94F12A242F0C94F12A0196272F7E
:105620000E94F12A0C94F02ADC01CB01FC01F999CB
:10563000FECF06C0F2BDE1BDF89A319600B40D92DE
:1056400041505040B8F70895052E97FB1EF4009482
:105650000E943B2B57FD07D00E94562B07FC03D01E
:105660004EF40C943B2B50954095309521953F4F2F
:105670004F4F5F4F089590958095709561957F4F3E
:105680008F4F9F4F08950E94782BA59F900DB49F38
:10569000900DA49F800D911D11240895B7FF0C94C7
:1056A000432B0E94432B821B930B0895A1E21A2ED9
:1056B000AA1BBB1BFD010DC0AA1FBB1FEE1FFF1FB6
:1056C000A217B307E407F50720F0A21BB30BE40B06
:1056D000F50B661F771F881F991F1A9469F760954D
:1056E0007095809590959B01AC01BD01CF01089507
:1056F000A29FB001B39FC001A39F700D811D112413
:10570000911DB29F700D811D1124911D0895DB0123
:105710008F939F930E94432BBF91AF91A29F800DC7
:10572000911DA39F900DB29F900D11240895991B78
:1057300079E004C0991F961708F0961B881F7A9588
:10574000C9F780950895AA1BBB1B51E107C0AA1F8A
:10575000BB1FA617B70710F0A61BB70B881F991F12
:105760005A95A9F780959095BC01CD01089597FBB6
:10577000072E16F4009407D077FD09D00E94A32BC2
:1057800007FC05D03EF4909581959F4F0895709544
:1057900061957F4F0895EE0FFF1F0590F491E02D66
:1057A00009946927962769277827872778270895F6
:1057B0000E94782B332312F48A1B9B0B0C94E22B50
:1057C0000E94782BB7FF0895821B930B0895FC016C
:1057D0004150504030F001900616D1F73197CF017B
:0C57E0000895882799270895F894FFCFBA
:1057EC000100000028128612671263125F12011961
:1057FC001A1B1C1D1E1F202122010201013790F0D3
:10580C00F1F430313233919293969734366667F7D0
:10581C00F6F5000102020202060606090909090949
:10582C00090F0F0F0F0F0F15151518191919191935
:10583C00191919191923242525252525254022B6A2
:10584C003C071A0764068E07A707C707818283E205
:10585C0000E900EA00B500B600B700CD008301CC2A
:10586C00008A0192019401210223022402250226BE
:0E587C000227022A02B300B4006F0070000081
:00000001FF
