:100000000C9405030C944C030C944C030C944C037B
:100010000C944C030C944C030C944C030C944C0324
:100020000C944C030C944C030C9418290C94CD277D
:100030000C94351D0C944C030C944C030C944C0301
:100040000C944C030C944C030C944C030C944C03F4
:100050000C944C030C94F71C0C944C030C944C0320
:100060000C944C030C944C030C944C030C944C03D4
:100070000C944C030C944C030C944C030C944C03C4
:100080000C944C030C944C030C944C030C944C03B4
:100090000C944C030C944C030C944C030C944C03A4
:1000A0000C944C030C944C030C944C035E066106B8
:1000B000830690069706B7064D074D074D074D0777
:1000C0004D07BA06BC06C106E506060709070C0778
:1000D0002E07B507DA070B084E088D08D008190956
:1000E0001C092109240929092C092F09320935097C
:1000F00038093B093E094109440949094C094F099E
:1001000054099109D2091C0A1F0A220A250A2A0A3F
:10011000350A380A430A460A510A540A5F0A620A33
:100120006D0AC319C319FD19FD19561AFD1BFD1BD4
:10013000FD1B721A501B611B611BE1250826AF27AE
:100140000826AF2754267726AF276C277C27632AFB
:10015000632A762A762A6C2A762A762A762A632ACF
:10016000632A712A762A762A712A00010101010187
:100170000101010102020202020202020203030360
:100180000303030303040404040404040505050530
:1001900005060606060607070707070808080809F0
:1001A0000909090A0A0A0B0B0B0C0C0C0D0D0D0E9C
:1001B0000E0E0F0F0F101011111112121313141431
:1001C000151516161717181819191A1A1B1B1C1DA6
:1001D0001D1E1E1F202021222223242425262627FF
:1001E0002829292A2B2C2D2D2E2F30313232333431
:1001F00035363738393A3B3C3D3E3F404142434437
:1002000045464748494A4C4D4E4F50515354555618
:1002100058595A5B5D5E5F616264656668696B6CC4
:100220006D6F7072737577787A7B7D7E808283853F
:1002300087888A8C8E8F91939596989A9C9EA0A27F
:10024000A3A5A7A9ABADAFB1B3B5B7BABCBEC0C289
:10025000C4C6C9CBCDCFD1D4D6D8DBDDDFE2E4E74D
:10026000E9EBEEF0F3F5F8FAFDFF290000003A00A3
:100270003B003C003D003E003F00400041000000CC
:1002800042004300440045004B0035001E001F00A3
:100290002000210022002300240025002600270042
:1002A0002D002E0000002A0049002B0014001A0027
:1002B0000800150017001C0018000C0012001300A5
:1002C0002F003000310000004C00390004001600FF
:1002D000070009000A000B000D000E000F0033009C
:1002E00034000000280000004E00E10064001D0002
:1002F0001B00060019000500110010003600370031
:100300003800E500000052000000E000E300E200D9
:100310000000000000002C00000000000000E600CB
:1003200001515000000051004F0001000000010089
:1003300001000100010001000100010001000000B6
:1003400001000100010001000100010001000100A5
:100350000100010001000100010001000100010095
:10036000010001000000010001000100C35C010068
:100370000100010001000100010001000100010075
:1003800001000100005C000001000100010001000B
:100390000100010001000100010001000100010055
:1003A00001000000DE5C000001000100010001000E
:1003B0000100010001000100010001000100010035
:1003C0000100010000000100000001000100010027
:1003D000000000000000010000000000000001001B
:1003E0000100010000000100010000000000000009
:1003F00000000000000000000000000000000000FD
:1004000000000000000000000000000000007E0F5F
:1004100000D4FFFFFFC700000078000000000000CC
:1004200000002A2B2800000000000000000000004F
:10043000000000000029000000002C1E34202122B2
:1004400024342627252E362D3738271E1F2021221B
:10045000232425263333362E37381F040506070894
:10046000090A0B0C0D0E0F10111213141516171884
:10047000191A1B1C1D2F3130232D350405060708C2
:10048000090A0B0C0D0E0F10111213141516171864
:10049000191A1B1C1D2F3130354C05010980A10193
:1004A000850319012AB700150126B70095017510BB
:1004B0008100C0050C0901A101850419012AA002CF
:1004C000150126A002950175108100C005010906DD
:1004D000A1018505050719E029E715002501950803
:1004E000750181020507190029EF1500250195F016
:1004F000750181020508190129059505750191020B
:10050000950175039101C00660FF0961A1010962AF
:10051000150026FF00952075088102096315002645
:10052000FF00952075089102C005010906A101058B
:100530000719E029E7150025019508750181029545
:1005400001750881010507190029FF150026FF0024
:10055000950675088100050819012905950575019D
:100560009102950175039101C009025B000301002E
:10057000A0FA090400000103010100092111010092
:10058000012240000705810308000A090401000256
:100590000300000009211101000122220007058249
:1005A00003200001070503032000010904020001E4
:1005B00003000000092111010001226D00070584DC
:1005C0000320000A1201100100000008424B09003C
:1005D0000100010200011C03420045004C004C00D8
:1005E0004100200052004700420020004900530013
:1005F0004F00000010034B00420044004600410041
:100600004E00530000000403090411241FBECFEF65
:10061000DAE0DEBFCDBF04B603FE27C08091120929
:1006200090911309A0911409B09115098730904B4E
:10063000A740B04BD1F410921209109213091092F6
:1006400014091092150914BE84B7877F84BF0FB6B2
:10065000F894A89580916000886180936000109262
:1006600060000FBEE0E0F8E3099514E0A0E0B1E01F
:10067000E4EFFAE502C005900D92A63EB107D9F766
:1006800029E0A6EEB4E001C01D92A231B207E1F765
:100690000E944E030C94782D0C940000CF93DF93AE
:1006A000CDB7DEB7E1970FB6F894DEBF0FBECDBF72
:1006B00084B7877F84BF0FB6F894A89580916000B7
:1006C000886180936000109260000FBE90E080E827
:1006D0000FB6F89480936100909361000FBE85B7C8
:1006E000806885BF85B7806885BF86E59CE190936B
:1006F000E7048093E6040E9411280E94B7288091A5
:10070000E20084608093E20078948091CF0888238F
:10071000A1F01091E9001F709091EC00892F817079
:1007200090FD80E8182B1092E9008091E80083FD8D
:100730000E94FB241F701093E90082E084BD93E0C7
:1007400095BD9AEF97BD80936E000CE211E042E3F5
:10075000E42E41E0F42ED8018D918D010E94AF125C
:10076000E016F106C1F702E311E032E4E32E31E0D6
:10077000F32EF80181918F010E94AF12E016F1066D
:10078000C1F7EAEEF4E086EF94E0A7E3B5E011925A
:1007900011921D921D928E179F07C9F780E090E07D
:1007A0000E949D2C8A3E9E4F11F00E94C81D82E03F
:1007B00090E00E94952C80932A050E94B71D90938B
:1007C000E9048093E8040E94C1148FE39CE9019737
:1007D000F1F700C000000E94C1148091370580FF2E
:1007E00017C06FEF83E290E00E94B32C6FEF84E2BA
:1007F00090E00E94B32C6FEF85E290E00E94B32C52
:100800006FEF7FEF80E090E00E94D12C0E94D31C1C
:1008100083E090E00E94952C682F70E080E090E0EB
:100820000E94AA1F0E945A0E1092D908E2EFF8E027
:1008300082E099E02FEF3FEF219331938E179F07CE
:10084000D9F71092F604EFE0F5E08FEF9FEF819378
:100850009193A5E0EF31FA07D1F780E090E00E9494
:100860009D2C8A3E9E4F21F00E94C81D0E94FB10C5
:1008700046E050E06CE170E086E099E00E94852C53
:10088000809106098C7F11F40E94FB1083E290E0B6
:100890000E94952C813281F484E290E00E94952C94
:1008A000863051F485E290E00E94952C91E08431ED
:1008B00009F090E0892F01C080E080FF1EC386E030
:1008C00091E09093240580932305FF24FA94FE0180
:1008D00031961F018E01035F1F4F1CA70BA70E94BB
:1008E000C11481110E941D1DABE2B5E0E7E3F5E004
:1008F00000E010E0402FA190B1908D919D918A254C
:100900009B25009709F4AFC0E12CCC24C394D12CD3
:100910009C012C213D21232B09F49FC0E9A24AA36D
:10092000AC20BD2081E0A114B10409F480E08BA3C8
:100930000E94291D8160782F9DA38CA349A15AA1F3
:100940006BA18DA10E946A0FF801EE0FFF1FE55DFC
:10095000FA4F80819181C826D926D182C082AB28E6
:1009600089F0F801B4E0EE0FFF1FBA95E1F7E35FFD
:10097000FC4FEE0DF11D80818F3F21F08DA7EE24FD
:10098000E39401C0E12CB090F6040E2D10E0C801F4
:100990008B0D911D0997A4F1E8E0CE2ED12CC01A41
:1009A000D10AB8016F5F7F4F6A507B4FA60187EF76
:1009B00094E00E946F2DB801675F7F4F6A507B4FB4
:1009C000A6018FEF94E00E946F2DA601440F551FE2
:1009D000B801660F771F675E7F4F6A507B4F8FE0CD
:1009E00095E00E946F2DB8016F5E7F4F6A507B4F7C
:1009F000A60187E095E00E946F2DBA94B092F604AC
:100A00008091F60490E01DA5A12FB0E09D01220F7A
:100A1000331F23593C4FAA0FBB1FBD0162597C4FA6
:100A200041E0480F9E15B0F490E0FC01EA50FB4F06
:100A3000D9015C915183DB015C9151870DA5018B3C
:100A4000880F991FFC01EA50FB4F128E118E91E026
:100A5000842FE6CF8093F6041BC0E394CC0CDD1CFE
:100A600020E1E21255CF0F5F1F4F0630110509F04C
:100A700041CFFEA2FFA218A60E94291D8160782FF7
:100A80009AA789A74EA15FA168A58AA50E946A0FAF
:100A900080911F0590912005A0912105B09122051C
:100AA0002FB7F8948090250590902605A0902705F3
:100AB000B09028052FBF881A990AAA0ABB0A0E947B
:100AC0001D1D60931F057093200580932105909351
:100AD0002205A091F604E6EFF4E0EA2EB0E044240B
:100AE0004A94542C612C712C481859086A087B08C8
:100AF000AB1799F0418D528D8A0120E030E040160D
:100B000051066206730610F4EA9404C0480D591D9C
:100B1000528F418FBF5F3296EBCFE092F604209167
:100B20001109211108C010910609212F237019F015
:100B30001695169501C010E0209128012130F9F09A
:100B400038F0223009F43FC0233009F449C065C0B1
:100B500010922501609302097093030980930409A0
:100B60009093050989E2E6EFF4E0A9EDB8E0019081
:100B70000D928A95E1F711E0109328014EC0809103
:100B8000050118130DC020910609237030E0409133
:100B9000040150E081E02417350719F480E001C01A
:100BA00081E081708093270180910B09909126014B
:100BB000981709F4BBC18093260140E060E080E013
:100BC0000E94DB10B3C11093050180910609837068
:100BD000809304010E94FD0D83E0809328011DC0D5
:100BE000409102095091030960910409709105092F
:100BF0002FB7F8948091250590912605A09127059F
:100C0000B09128052FBF841B950BA60BB70B4A97F5
:100C1000A105B10510F0109228010E9434109091A6
:100C20002905891721F00E943410809329058091AD
:100C3000CF08843009F053CE83E08093E90080919F
:100C4000E80082FF4CCE8091E80085FF21C00E9421
:100C5000302881111BC000E210E0CE0101966C012A
:100C600008C08091F100D6018D936D0101501109EA
:100C700069F08091E80085FDF4CF8091E8008B77E2
:100C80008093E8000E943028882399F391E001C006
:100C900090E08091E8008B778093E800992309F435
:100CA0001ECEE9818E2F90E0FC013197E331F105F2
:100CB00008F0F3C0EA5AFF4F0C94622D1A8289E0C3
:100CC0005EC08A81823009F40FC1833051F08130D7
:100CD00009F0E3C00E941D1D9B838C837D836E837E
:100CE000DDC0FE013196A7E3B5E08C9111969C9191
:100CF000119712969283838332960BA51CA50E172B
:100D00001F0799F7CBC08A81823009F0C6C06B817A
:100D10007C818D819E810E94682D86E290E024C0B6
:100D20004C816B818A810E94A2109D83E4C0CD809A
:100D3000DE80DC24CD24DC248C810B819A8120E2AE
:100D4000029F8001112430EC939F000D111D11248E
:100D5000080F111D080F111D6D2DC80187960E94E7
:100D6000B32C6C2DC80188960E94B32C97C00E94AA
:100D7000501094C080E14EC082E08A8389E58B8365
:100D80008DC00A811B81102701271027AC80B12C50
:100D90006101C80189559E4F9601221933092A1510
:100DA0003B0508F07BC0093552E0150730F40E947E
:100DB000952CD60114968C9302C0F60114820F5F15
:100DC0001F4FFFEFCF1ADF0AE4CF0A811B811027E4
:100DD00001271027AC80B12C6101C80189559E4FB5
:100DE0009601221933092A153B0508F057C0093529
:100DF00022E0120728F4D60114966C910E94B32CBD
:100E00000F5F1F4FBFEFCB1ADB0AE7CF0E944010E6
:100E100045C082E08A8342C00A811B8110270127D6
:100E20001027AC80B12C6101C80187969601221968
:100E300033092A153B0590F50038E1E01E0730F430
:100E40000E94952CD60114968C9302C0F601148250
:100E50000F5F1F4FFFEFCF1ADF0AE6CF0A811B811A
:100E6000102701271027AC80B12C6101C80187969B
:100E70009601221933092A153B0580F4003821E038
:100E8000120728F4D60114966C910E94B32C0F5FC0
:100E90001F4FBFEFCB1ADB0AE9CFF9828091CF0851
:100EA000843009F01CCD1091E9001F709091EC0086
:100EB000892F817090FD80E8182B82E08093E900F3
:100EC0008091E80080FF0CC040E050E060E270E0FC
:100ED000C1010E94CF248091E8008E778093E800C2
:100EE0001F701093E900FBCC86E290E00E94952CE5
:100EF0001B821C821D828E83D1CF60E086E290E04F
:100F00000E94B32C0E9450100E94401061E283E2C4
:100F100090E00E94B32C66E084E290E00E94B32C43
:100F200064E185E290E00E94B32CC9CC812F90E06F
:100F300088329105D0F1809125018F5F8093250142
:100F400082E0809328018091270181111FC0112325
:100F500009F442CEE0912305F09124053097D1F0B9
:100F60000190F081E02D099516C08091270188231A
:100F700029F040E060E080E00E94DB1080E090918A
:100F800025019F5F909325018823D1F2112309F455
:100F900044CEE0CF80E081FF40CE2FEF4FEF6FEFE8
:100FA0008CE290E00E94DD1038CEFC01E759FF4F43
:100FB0000C94622D00912501000F000F54E0E52EE6
:100FC000E00E2DE62E1510F44DE6E42E6091070993
:100FD00070910809809109090E94B711D62EC72E79
:100FE000B82E0E1590F4E02FF0E0DF01A95BBB4FA7
:100FF0008C9190912601982331F02B2D4D2D6C2D45
:10100000CF010E94DD100F5FECCF81E03CE63E1582
:1010100008F0B5CFB3CF00912501000F000F34E0E9
:10102000E32EE00E5DE65E1510F42DE6E22EC09094
:101030000809D0900909B09007096B2D7C2D8D2DE2
:101040000E94B711A62E972E882E60910A096B0D6B
:101050007C2D8D2D0E94B711D62EC72EB82E0E15C1
:10106000B8F4802F90E0FC01E95BFB4F30812091C8
:101070002601232359F030FF04C02B2D4D2D6C2D5C
:1010800003C0282D4A2D692D0E94DD100F5FE7CF88
:1010900081E09CE69E1508F072CF70CF009125018B
:1010A000000F000F94E0E92EE00EADE6AE1510F44F
:1010B0008DE6E82EA09008099090090920910A0970
:1010C000B0E4BB2E3B2D329F312D1124B32E0E15D3
:1010D00008F0A9C0C02ED12CF601E95BFB4F90812E
:1010E000809126018923B9F0F601EE0FFF1FE25926
:1010F000FC4F808182958F70609107098B9D600DF8
:1011000011247A2D892D0E94B711462F282F672F81
:10111000C6010E94DD100F5FDACF00912501000F9C
:10112000000FE4E0EE2EE00E8DE68E1510F47DE665
:10113000E72EA09008099090090920910A0960E41F
:10114000B62E3B2D329F312D1124B32E0E1508F0F3
:101150006AC0C02ED12CF601E95BFB4F90818091D3
:1011600026018923D9F0F601EE0FFF1FE359FC4F4A
:101170006081B69EB001112455E0759567955A952A
:10118000E1F780910709680F7A2D892D0E94B71128
:10119000462F282F672FC6010E94DD100F5FD6CF84
:1011A00000912501000F000F34E0E32EE00E8DE6E4
:1011B0008E1510F42DE6E22EC0900709D090080994
:1011C000B090090960910A096695669566958091C7
:1011D0000209909103090E94AD110E940E118058DE
:1011E00087FD8195880F282F3B2D239F212D1124CA
:1011F000822FB6010E94B711D62EC72EB82E0E151B
:1012000090F4E02FF0E0DF01A95BBB4F8C9190914F
:101210002601982331F02B2D4D2D6C2DCF010E94EE
:10122000DD100F5FECCF81E05CE65E1508F0A7CE25
:10123000A5CE83EC9CE002C087E99CE00E94E122FD
:101240009ECE8CE99DE002C08DE79DE00E94872242
:1012500096CE82E69DE01AC086E49DE017C085E93F
:101260009CE0ECCF8CE89CE0E9CF83E89CE0E6CF03
:1012700088E69CE0E3CF89E59CE008C084E891E142
:10128000E5CF85E39DE0E2CF81E29DE00E940D2263
:1012900076CE8BE29CE005C089EF9BE002C08BEB31
:1012A0009BE00E9429236BCE8091270181111EC0F3
:1012B00060910A0920E1620F08F46FEF8091020942
:1012C000909103090E94AD116AE070E00E943A2DEE
:1012D000892B09F053CE0E94752C6DE670E00E94B8
:1012E0004E2D609126010E94471248CEA090250104
:1012F0008A2D880F880F04E0080F0E3608F00DE6DF
:10130000A82EB12CC02ED12CAC14BD040CF045C0BD
:1013100060912601C5010E9447128FEFA81AB80AF2
:10132000F3CF8091270181111EC060910A0920E14D
:10133000620F08F46FEF80910209909103090E94F7
:10134000AD1165E070E00E943A2D892B09F016CEB0
:101350000E94752C6DE670E00E944E2D6091260172
:101360000E948D120BCEA09025018A2D880F880F28
:1013700004E0080F0E3608F00DE6A82EB12CC02EA2
:10138000D12CAC14BD044CF460912601C5010E941F
:101390008D129FEFA91AB90AF4CF81E00D3608F437
:1013A000EECDECCD00912501000F000F94E0E92E69
:1013B000E00EADE6AE1510F48DE6E82EC0900809FB
:1013C000D0900909B090070960910A096695669561
:1013D000669580910209909103090E94AD110E94C7
:1013E0000E11805887FD8195880F682F2CE0629F31
:1013F000612D11246B0D7C2D8D2D0E94B711D62EE1
:10140000C72EB82E0E1590F4E02FF0E0DF01A95B97
:10141000BB4F8C9190912601982331F02B2D4D2DAF
:101420006C2DCF010E94DD100F5FECCF81E0BCE698
:10143000BE1508F0A4CDA2CD8FE291E1FFCE8AEADD
:101440009BE0FCCE83EA9BE002C08DE99BE00E941A
:10145000882395CD8091D908082F21E0021B08F43C
:1014600000E0802F64E87BE03BC064E87BE037C0AD
:101470008091D908382F51E0351B08F430E0832FD4
:101480006CE47BE02DC06CE47BE029C08091D9083E
:10149000082F21E0021B08F400E0802F6AE17BE0C6
:1014A0001FC06AE17BE01BC08091D908382F51E052
:1014B000351B08F430E0832F62E07BE011C062E06E
:1014C0007BE00DC08091D908082F21E0021B08F4B1
:1014D00000E0802F6CEE7AE003C06CEE7AE080E0F2
:1014E0000E94F2234CCD0F931F93CF93DF938D3641
:1014F000910508F052C0880F991F880F991FFC01B1
:10150000E55BFE4F508152955F703181732F72956C
:10151000707FC72FC52B32953F70D32FD370FC013E
:10152000E45BFE4F308132953695369533705181AC
:10153000752F770F770FA72FA32BB52FB295B695E1
:10154000B695B370FC01E65BFE4F8081382F337097
:10155000982F969596958181582F5295550F550F36
:10156000507C052F092B86958695182F1370EFE573
:10157000F1E03E9FC0013F9F900D11248955994F86
:10158000FC01E00FF11F6083C80FD91F4883A80F2B
:10159000B91F2C9381E08093A606DF91CF911F9114
:1015A0000F910895FF920F931F93CF93DF93182FFE
:1015B000062FF42EC0E0D0E02F2D402F612FCE015A
:1015C0000E94730A2196CD36D105B1F7DF91CF91F4
:1015D0001F910F91FF900895EF92FF920F93970143
:1015E000201B31092F3F310519F010F02FEF30E0AB
:1015F0002095382F320F08F43FEF832F0F91FF9083
:10160000EF900895EF92FF920F939701201B3109FD
:101610002F3F310519F010F02FEF30E0322F3095C9
:10162000482F430F08F44FEF842F620F0F91FF9064
:10163000EF900895EF92FF920F93972F093438F4AB
:10164000B701601B71096F3F710519F010F06FEF62
:1016500070E0485F5F4F4131510540F0A901485F9C
:101660005F4F4131510510F06FEF70E06095482FEA
:10167000460F08F44FEF842F37FF02C02D5F3F4F16
:10168000359527953595279560910709620F792F34
:101690000F91FF90EF900895EF92FF920F93E00E5D
:1016A000F11CF90137FF03C0F195E195F10924E040
:1016B000EE0FFF1F2A95E1F7EF3FF10519F014F047
:1016C000EFEFF0E09A0157FF03C031952195310902
:1016D00094E0220F331F9A95E1F72E173F070CF481
:1016E000F901EE0DFF1DEF3FF10519F010F0EFEFDE
:1016F000F0E02E2F2095382F320F08F43FEF832F84
:101700000F91FF90EF900895EF92FF920F93970142
:1017100095E0099F200D311D11242F3F310519F04F
:1017200010F02FEF30E02095382F320F08F43FEF04
:10173000832F0F91FF90EF90089522E8241B08F467
:1017400020E0620F08954095282F429F412D1124DB
:10175000842F0895E42FF0E0EE0FFF1FE359FC4FB4
:101760009081921B97FD9195292F38E1239F212D80
:101770001124620F08950F931F9310E0F801EE0FEC
:10178000FF1FE359FC4F9081905797FD9195000FF3
:10179000111FF801E259FC4FE081F0E0B097DF0142
:1017A000AA0FBB1F8D010E0F1F1F2003D001219F09
:1017B000B00D1124E8E3F0E0E91BF10997FDF39582
:1017C0009F01220F331F89010E0F1F1F400390013D
:1017D000419F300D11242A0F3B1F37FF02C02158B3
:1017E0003F4F220F232F221F330B620F1F910F91A8
:1017F00008950F931F93522F10E0F801EE0FFF1F73
:10180000E259FC4FE081F0E0B097EE0FFF1F9F011F
:101810005203D001539FB00D1124000F111FF80186
:10182000E359FC4F008110E000571109000F111F10
:1018300040039001419F300D11242A0F3B1F37FFB9
:1018400002C021583F4F220F232F221F330B620F5C
:101850001F910F9108950F931F93522F10E0F801DD
:10186000EE0FFF1FE259FC4FE081F0E0B0979F01BF
:101870005203D001539FB00D1124000F111FF80126
:10188000E359FC4F008110E000571109400390011B
:10189000419F300D11242A0F3B1F37FF02C02158F2
:1018A0003F4F220F232F221F330B620F1F910F91E7
:1018B0000895EF920F931F9393E0099F80011124E5
:1018C000159507956E2D600F1F910F91EF9008955C
:1018D000A22F50E0FA01EE0FFF1FE259FC4F90815A
:1018E000905297FD9195440F551FFA01E359FC4F13
:1018F0003081232F30E02A1B3109290F311D97FD3C
:101900003A95620F0895E42FF0E0EE0FFF1FE259C1
:10191000FC4F6081621B0895E42FF0E0EE0FFF1F83
:10192000E359FC4F6081621B0895622F0895E42FF4
:10193000F0E0EE0FFF1FE359FC4F408134EE439F70
:10194000412D1124E82FF0E050E0445E5F4FDA01B2
:10195000A21BB1099D01B7FF03C031952195310943
:1019600093E0220F331F9A95E1F7AF01421B530B0F
:101970009A0157FF02C020E030E0582F259F212D0B
:101980001124822F0895E42FF0E0EE0FFF1FE3599A
:10199000FC4F408134EE439F412D1124E72FF0E0AE
:1019A00050E0445E5F4FDA01A21BB1099D01B7FF11
:1019B00003C031952195310993E0220F331F9A9589
:1019C000E1F7AF01421B530B9A0157FF02C020E021
:1019D00030E0279F212D1124722F0895FC019B01D7
:1019E000009721F477FF2BC080E80895AC0197FFA2
:1019F00004C044275527481B590BB901640F751FB4
:101A000037FD0CC0241B350BC901A5E0880F991FB9
:101A1000AA95E1F70E944E2D80E20CC0CB0165E053
:101A2000880F991F6A95E1F7BA01621B730B0E9438
:101A30004E2D80E6861BF7FF03C08195089580E058
:101A40000895EF920F93CF93DF93D72FC82FC9013B
:101A50000E19BA010E94EE0C602F681B7D2F8C2F8F
:101A6000DF91CF910F91EF9008950F93CF93DF9374
:101A7000D72FC82FC901BA010E94EE0C682F600F42
:101A80007D2F8C2FDF91CF910F910895EF920F93BF
:101A90001F93CF93DF93D62FC72F182FC9010E198D
:101AA000010FBA010E94EE0C081B202F219F212D4F
:101AB0001124822F6D2F7C2FDF91CF911F910F91D9
:101AC000EF900895EF920F931F93CF93DF93D62F4C
:101AD000172FC82FC9010E19070FBA010E94EE0C6B
:101AE000702F781B719F712D11246D2F8C2FDF911A
:101AF000CF911F910F91EF900895FF920F931F9335
:101B0000CF93DF93F62ED72F182FC901C12FC01BFB
:101B1000BA010E94EE0C982F990F890FC81B2C2F29
:101B2000219F212D1124822F6F2D7D2FDF91CF91A9
:101B30001F910F91FF900895FF920F931F93CF93E2
:101B4000DF93F62E172FD82FC901C72FC01BBA015C
:101B50000E94EE0C982F990F890F7C2F781B719F94
:101B6000712D11246F2D8D2FDF91CF911F910F912A
:101B7000FF9008959091E80492FF0DC0282F2871DE
:101B8000283019F4877F846006C0282F2471243000
:101B900011F48B7F886093FF0DC0282F28712831A6
:101BA00019F4877E846106C0282F2471243111F432
:101BB0008B7E88612091E90420FF0DC0382F387199
:101BC000383019F4877F816006C0382F3171313089
:101BD00011F48E7F886021FF0DC0282F28712831D5
:101BE00019F4877E816106C0282F2171213111F4FB
:101BF0008E7E886194FD877E08950F931F93CF9307
:101C0000DF938091A606882309F44DC065EC8EEF22
:101C10000E94C32460E08DEF0E94C324C0E0D0E0A6
:101C200004EB10E0CE01B8010E944E2D809311010B
:101C300082E1FE01E955F94FA2E1B1E001900D9278
:101C40008A95E1F724E630E043E150E061E171E09C
:101C500080E60E94022C892B31F56296C63581E020
:101C6000D80761F0C43BD105E9F665EC8EEF0E9420
:101C7000C32461E08DEF0E94C324D4CF82EA809315
:101C8000110189E0EDEFF7E0A2E1B1E001900D92E2
:101C90008A95E1F724E630E04AE050E061E171E046
:101CA00080E60E94022C1092A606DF91CF911F9130
:101CB0000F910895EF92FF920F931F93CF93DF93AD
:101CC0000E94752B65EC8EEF0E94C32464E08DEFBB
:101CD0000E94C32461E080E00E94C3246FEF81E092
:101CE0000E94C32467E782E00E94C3248FE39CE93B
:101CF0000197F1F700C00000A0E0B0E0CFE5D1E02F
:101D0000FF24FA94EE24E394CD01880F991F880FE5
:101D1000991FFC01E55BFE4F308132953F702181B8
:101D2000422F4295407F642F632B22952F70722F94
:101D30007370FC01E45BFE4F4081429546954695E9
:101D400043705181E52FEE0FEE0F2E2F242B352FF0
:101D50003295369536953370FC01E65BFE4F408137
:101D6000842F837090E0542F569556954181E42F2F
:101D7000E295EE0FEE0FE07C0E2F052B4695469573
:101D8000142F13708C9FA0018D9F500D9C9F500DA0
:101D900011244A5B5A4FFA01E00FF11FF082FA0159
:101DA000E60FF71FF082FA01E20FF31FF082FC0149
:101DB000EB55F94FE0821196AD36B10509F0A4CF8D
:101DC0008091A506882351F165EC8EEF0E94C32413
:101DD00062E08DEF0E94C32406E415E0C0E0F80144
:101DE00061918F018C2F0E94C324CF5FC43BB9F750
:101DF00065EC8EEF0E94C32463E08DEF0E94C32444
:101E00000AEF15E0C0E0F80161918F018C2F0E946C
:101E1000C324CF5FCB3AB9F71092A506DF91CF91DB
:101E20001F910F91FF90EF900895E6E0F9E0438154
:101E300020E1421B08F440E08181628190E00C9433
:101E4000B324E6E0F9E0438120E1420F08F44FEFCC
:101E50008181628190E00C94B324E6E0F9E0628134
:101E600020E1621B08F460E08181438190E00C94E2
:101E7000B324E6E0F9E0628120E1620F08F46FEF3D
:101E80008181438190E00C94B324E6E0F9E0818104
:101E900090E04381628108970C94B324E6E0F9E076
:101EA000818190E04381628108960C94B3248091F3
:101EB000060986958695815009F487E20C94F721EE
:101EC00080910609869586958F5F883208F081E0BB
:101ED0000C94F7211F93CF93DF93CDB7DEB76797AD
:101EE0000FB6F894DEBF0FBECDBF342F4B8B252F1E
:101EF0005C8B6D8B7E8B8F8B4E895F89611110920D
:101F0000A40886E0FE013D96DF01982F1D929A9568
:101F1000E9F73D872E876F87598B488BDE0117962F
:101F200001900D928A95E1F7CE0107960E942A2032
:101F300081113EC086E0FE013796DE0111960190C8
:101F40000D928A95E1F7FF81E8856A857B856115A9
:101F5000710531F0EF3F31F481E0FF3F19F403C028
:101F600081E001C080E080FD23C02091340830E092
:101F7000C9010196877099274091650850E0841740
:101F8000950779F1F983EA837D836C8396E0929FCC
:101F9000D001939FB00D1124AB5CB74FFE01319679
:101FA00001900D929A95E1F7809334080E94B41F36
:101FB00016E080916508909134088917F9F0189F10
:101FC000C00111248B5C974F0E942A208823B1F016
:101FD0008091650890E00196877099278093650845
:101FE000E8CF0E94882A1092340810926508EEE229
:101FF000F8E086E0DF011D928A95E9F767960FB653
:10200000F894DEBF0FBECDBFDF91CF911F91089531
:1020100020910A0830910B082817390771F0909326
:102020000B0880930A08E0912305F091240530976E
:1020300021F00084F185E02D09940895209108088D
:10204000309109082817390771F090930908809397
:102050000808E0912305F0912405309721F00680CF
:10206000F781E02D09940895E0912305F09124056E
:10207000309721F00190F081E02D099480E00895DF
:10208000CF93DF93C7EAD1E060E0CE010E94B32C8A
:102090002196C11584E0D807B9F7DF91CF91089553
:1020A0006F927F928F929F92AF92BF92CF92DF9268
:1020B000EF92FF920F931F93CF93DF93C0E0D0E096
:1020C00000E010E03E0187E2680E711C6301C00E63
:1020D000D11EE12CF12C4E01800E911EF401EE0D6B
:1020E000FF1DE659FD4FA590B4906B2DC6010E94CF
:1020F000B32C6A2DC60101960E94B32C82E0E80E33
:10210000F11C82E0C80ED11C80E2E816F10431F720
:10211000005E1F4F003C1105C9F6C054DF4FC038A8
:1021200081E0D80769F6DF91CF911F910F91FF9061
:10213000EF90DF90CF90BF90AF909F908F907F9067
:102140006F9008950F931F93CF93DF93C42FD0E028
:10215000CC0FDD1F20E2629FC00DD11D112430EC99
:10216000839FC00DD11D1124CE0187960E94952C0E
:10217000082F10E0102F0027CE0188960E94952C82
:102180009801282BC901DF91CF911F910F910895DC
:10219000462F823038F4763028F4603118F4672FF7
:1021A0000C94A21080E090E00895882311F0FA01C9
:1021B00001C0FB0109940C94D20A0C94730A46E006
:1021C00050E06CE170E086E099E00C94A32CE6E02E
:1021D000F9E0248130E1230F08F42FEF24830C94DD
:1021E000DF10E6E0F9E0248130E1231B08F420E071
:1021F00024830C94DF10E6E0F9E081E38083809192
:10220000290190912A01A0912B0181839283A383BC
:102210008FE784838FEF85830C94DF10482F982FEE
:1022200046FD9095E92FEF739F7046FD9F5FE29505
:10223000EF70EE0FF0E0EE5BFE4F2181299F802DC5
:10224000212D112482958F702295207F822B308141
:10225000982F930F892F47FD8195805808950F93EC
:102260001F93CF93DF93D62F072F182FC42F822FC2
:102270000E940E11EC2FF0E0EE0FFF1FE359FC4F10
:1022800090819058890F87FD8195880F682F2CE0E9
:10229000629F612D11246D0F702F812FDF91CF91DF
:1022A0001F910F910895BC018230910508F40895A3
:1022B000613E8EE1780748F49B0195E036952795BD
:1022C0009A95E1F748E0420F01C04FEF91E0242FCB
:1022D00030E0290F311D35952795229FF001239F6E
:1022E000F00DF00D11246E177F0718F44FEF420F19
:1022F00004C02F3F39F091E0920F491740F78FEF5C
:10230000890F08958FEF08950F93CF93DF93D72F01
:10231000C82F47FD4195E8E3F0E0CF01841B910908
:1023200047FD9395889FB001899F700D700D112412
:10233000229FC001239F900D900D1124860F971F9F
:102340000E945311682F660F860F682F600F7D2F34
:102350008C2FDF91CF910F91089520E030E0869F80
:10236000212D969F200D311D1124C9010895CF9272
:10237000DF92EF92FF920F931F93CF93DF93F62E8E
:10238000472FE82FF0E0711106C0E659FE4F849107
:10239000782F682F73C0272F30E0E659FE4FE49165
:1023A000FE2F0E2F10E056E0659FC0011124CFEFE5
:1023B000D0E0BE010E943A2D5BEA5603C001579F50
:1023C000900D11248F0D911D8F0D911D982F990F38
:1023D000980F7E01E21AF30AE09ED001E19EB00D53
:1023E000F09EB00D11248B2F499FA0011124452F81
:1023F00055277E01E41AF50AE09EA001E19E500DEA
:10240000F09E500D11246E01C91AD108C29E7001B0
:10241000C39EF00CD29EF00C11242F2D3327C21B2B
:10242000D30BC09F9001C19F300DD09F300D112460
:10243000932F6230710591F048F461157105E1F058
:1024400061307105B9F49E2FE52F16C06430710517
:1024500069F040F06630710579F00CC09E2FEB2FCB
:10246000832F0AC0EB2F8F2F952F06C09B2F8E2F07
:10247000E32F02C09B2F852F7E2F692FDF91CF91F5
:102480001F910F91FF90EF90DF90CF900895DF9212
:10249000EF92FF920F931F93CF93DF93EC01FC0118
:1024A000E95BFB4F9081692381F1D090080900918D
:1024B000090910910709E12EF12C0E94752C282F93
:1024C000C7018C549F4F68E671E00E944E2D8E1913
:1024D0009F0997FD03969595879595958795237008
:1024E000612F289F600D11247D2D802F0E94B71130
:1024F000462F282F672FCE01DF91CF911F910F918B
:10250000FF90EF90DF900C94DD10DF91CF911F9141
:102510000F91FF90EF90DF9008951F93CF93DF937B
:10252000FC01E95BFB4F20816223A9F0EC010E94D2
:10253000752C182F0E94752C612F782F8091090916
:102540000E94B711462F282F672FCE01DF91CF9120
:102550001F910C94DD10DF91CF911F910895F89495
:10256000E82FE295EF70F0E031A1282F2F7081E085
:1025700090E001C0880F2A95EAF7982F9095932351
:1025800091A392A1892B82A378940895CF93DF938E
:102590000E94C810EC018238910559F1A0F48133F2
:1025A000910509F473C040F48932910509F467C0BC
:1025B0008A9709F472C084C08533910509F458C024
:1025C000C997B9F07DC0833E910571F138F4803E22
:1025D0009105B1F0823E910511F172C0863E9105E0
:1025E000B9F1873E9105C9F1843E910509F068C0B3
:1025F00024C08091E80480FD5DC081FD5BC060C0A7
:102600008091E80480FD50C08091E90480FF36C1CC
:102610008091E80484FD30C1C3EED0E02FC18091E9
:10262000E80482FF2BC1F4CF8091E80482FD3FC013
:102630008091E90480FD3EC0EBCF8091E90481FFE9
:102640001DC18091E80484FD17C1C7EED0E016C11A
:102650008091E80483FF12C1F4CF8091E80483FDE8
:102660002CC08091E90481FFECCFC4EED0E006C11C
:102670008091E80485FF02C1C9E2D0E0FFC08091EB
:10268000E80485FFFBC0C5E3D0E0F8C08091E80412
:1026900086FFF4C0CAE2D0E0F1C08091E80486FF72
:1026A000EDC0C1E3D0E0EAC0C9E3D0E0E7C0C2EECC
:1026B000D0E0E4C0C0EED0E0E1C0C6EED0E0DEC0C5
:1026C000C11582E5D80708F066C0C11591E5D907A4
:1026D00028F0DC2FCC27C16FD06AD0C0C83ED1050E
:1026E00060F5C03ED10508F0C9C0C83AD105B0F4C4
:1026F000C53AD10540F0C55AD0E0CC54DB4FC88173
:10270000D0E0D064BBC0C130D10509F4B7C008F433
:10271000B3C0C430D10508F4AFC0B0C0CF3BD105C1
:1027200008F0AAC0C85AD0E0CC0FDD1FC954DB4F57
:102730000990D881C02DD464A1C0C11520E5D2076D
:10274000E0F0CE0174E0969587957A95E1F7837075
:102750009C2F937021E030E002C0220F331F9A9526
:10276000E2F73C68382BCF70C695C69580E2C89FCB
:10277000E0011124C22BD32B81C0C11580E4D807FE
:1027800018F0DF70D06A7AC0CE019A9581159F410A
:1027900008F474C071C0C11586E5D807F0F5C115FD
:1027A00095E5D90750F08C2F0E94BA0D8F71C82F74
:1027B000D0E0DC2FCC27D06261C0C11524E5D20760
:1027C00028F0DC2FCC27C46FD06A58C09E0123703C
:1027D00033278C2F86958695C115D34578F4C1E0B3
:1027E000D0E002C0CC0FDD1F2A95E2F720E2829FE5
:1027F000C0011124C82BD92BDC6840C0C1E0D0E057
:1028000002C0CC0FDD1F2A95E2F720E2829FC001B3
:102810001124C82BD92BDA6831C0C1152AE5D2079B
:10282000E8F4C11589E5D80780F08C2F8F700E94DD
:10283000BA0D94E0D695C7959A95E1F7CF70D0E0A0
:10284000DC2FCC27D069C82B19C0C11598E5D90752
:1028500098F0DC2FCC27C06FD06A10C0CE01905604
:102860008115904248F48D2F8F710E94BA0DDD279B
:10287000D0628F71D82B02C0C0E0D0E0CE01DF91D2
:10288000CF9108950F931F93CF93DF93C42F122FEF
:10289000FC0182818823C9F040930C080E94291D05
:1028A000909307088093060880E28C0F883008F028
:1028B00063C0C77081E001C0880FCA95EAF7DF9155
:1028C000CF911F910F910C94A82A80910C08481366
:1028D0003CC020910608309107084FB7F8948091CA
:1028E000250590912605A0912705B09128054FBF99
:1028F000821B930B883C910540F5D0E2D10FC117A4
:10290000B9F080E28C0F883040F4C77081E001C0DC
:10291000880FCA95EAF70E949D2AD83030F581E0E9
:10292000912F977001C0880F9A95EAF70E94A82A04
:10293000802F0E94572BD830F8F4212F277081E088
:1029400001C0880F2A95EAF70AC080E28C0F883010
:1029500098F4C77081E001C0880FCA95EAF7DF914B
:10296000CF911F910F910C949D2A802FDF91CF91D1
:102970001F910F910C94572BDF91CF911F910F91C5
:1029800008959F92AF92BF92CF92DF92EF92FF9203
:102990000F931F93CF93DF930CE211E0CAEED4E0C4
:1029A00086EFE82E84E0F82E912CCC24C394D12C11
:1029B000B801D8018C91F894E82FE295EF70F0E01F
:1029C00021A18F70A60102C0440F551F8A95E2F71E
:1029D000CA01922F982B91A392A18095892382A35B
:1029E000789400C0E2E3F1E020E030E0A12CB12CCB
:1029F0004191842F82958F7090E0DC0190968C91AC
:102A000090E04F7002C0959587954A95E2F780FD5A
:102A100008C0C601022E02C0880F991F0A94E2F76F
:102A200002C080E090E0A82AB92A2F5F3F4F2031F2
:102A30003105F1F60F5F1F4FFB0180810E94AF123D
:102A4000F0EAFA95F1F788819981A816B90621F084
:102A5000B982A88281E001C080E0982A2296EC1613
:102A6000FD0609F0A5CF992049F081E08093450546
:102A70000E94291D9093440580934305809145054C
:102A8000882309F445C020914305309144054FB790
:102A9000F8948091250590912605A0912705B09185
:102AA00028054FBF821B930B069790F18091EA0493
:102AB0009091EB0490933805809337058091EC0456
:102AC0009091ED0490933A05809339058091EE043E
:102AD0009091EF0490933C0580933B058091F00426
:102AE0009091F10490933E0580933D058091F2040E
:102AF0009091F3049093400580933F058091F404F6
:102B00009091F504909342058093410510924505FC
:102B1000892DDF91CF911F910F91FF90EF90DF9062
:102B2000CF90BF90AF909F9008953F924F925F9249
:102B30006F927F928F929F92AF92BF92CF92DF92CD
:102B4000EF92FF920F931F93CF93DF93CDB7DEB732
:102B500029970FB6F894DEBF0FBECDBFFC01808170
:102B6000918123813481232B31F09F3F31F491E017
:102B70008F3F19F403C091E001C090E090FD7AC648
:102B80007F0185E0DE01119601900D928A95E1F7B3
:102B9000F701228189819A81222349F00E94991E9E
:102BA000182F682F89819A810E94121F03C00E94EA
:102BB000E61E182F69817A81812F0E94C8108C012E
:102BC000F7018281882309F4F2C0980122513F4520
:102BD0002031310508F019C18FEF93E00E94952C48
:102BE0008111EFC0025137EA832E99249394002378
:102BF00079F08114F4E09F0609F4E3C0C4010E9457
:102C0000952C811101C001501FEF811A910AEFCF5D
:102C10001E821F8218861986442443942AE0322E8D
:102C200084010F5F1F4FC4010E94952C8E831F8269
:102C3000882309F4C6C09FEF980F933060F48F8308
:102C40004E8222E0820E911CC8010E94952C88873A
:102C5000811102C0B6C048018E010A5F1F4FF80102
:102C600020812223E9F2213009F04CC0818181309A
:102C700049F46801F2E0CF0ED11CF80182810E9474
:102C8000572B0AC0823051F46801F2E0CF0ED11CFC
:102C9000F80182810E94E42A860186C0833049F4CB
:102CA0006801F2E0CF0ED11CF80182810E94B22AA5
:102CB000F3CF843019F00F5F1F4F76C0F8012281E7
:102CC0000E5F1F4F80E090E030E0205331092A3042
:102CD000310568F4389EA001399E500D1124C901B8
:102CE000840F951F0F5F1F4FF8012081EDCF0097D4
:102CF00009F45AC0EFE9FFE03197F1F700C0000096
:102D00000197F5CFE22FF0E0E65EFB4F5490822F63
:102D100086958695869590E0FC01E65FFB4F649072
:102D20002770712C022E02C0759467940A94E2F702
:102D3000F1E06F227724FC01E650FC4FA490B12C07
:102D4000022E02C0B594A7940A94E2F731E0A322C0
:102D5000BB24FC01E651FC4FC490D12C02C0D59499
:102D6000C7942A95E2F781E0C822DD24611471043A
:102D700019F081EE0E94E42AA114B10419F086EE44
:102D80000E94E42A852D0E94572BAB2819F086EE6D
:102D90000E94B22A672819F081EE0E94B22ACD283B
:102DA00019F08CE20E94572B0F5F1F4F58CF003154
:102DB0003FE5130709F055C581E00E94471F0E94B7
:102DC000D9218091A208877009F454C5F701828146
:102DD000882309F44FC582E029960FB6F894DEBF28
:102DE0000FBECDBFDF91CF911F910F91FF90EF905C
:102DF000DF90CF90BF90AF909F908F907F906F901B
:102E00005F904F903F900C946C1F0031FFE51F07BF
:102E100011F481E005C001312FE5120721F482E0B1
:102E20000E94891FCCCF033FFCE51F0749F406E24F
:102E300021EE40EE63EF7CE5C7010E944214C1CF52
:102E4000043F2CE5120708F049C1083D3CE5130793
:102E500031F407E225EE45EE68ED7CE5EDCF093D66
:102E60009CE5190731F408E221E045EE69ED7CE5C7
:102E7000E3CF073DECE51E0731F406E221EE41EE1B
:102E800067ED7CE5D9CF882309F45DC110920C0869
:102E900002309CE5190708F440C10631ECE51E0735
:102EA00030F0C8018A5F9C45099708F036C10E943E
:102EB000B71D9093E9048093E8040031FCE51F07F7
:102EC00009F4C3C008F041C008303CE5130709F419
:102ED0009AC0F0F404309CE5190709F487C068F43F
:102EE0000230FCE51F0709F477C003301C4509F0E8
:102EF000E5C08091E804826076C006303CE51307A7
:102F000009F46EC008F07BC08091E80488606BC053
:102F10000C309CE5190709F485C068F40A30FCE51B
:102F20001F0709F474C008F079C00E94882A8091B4
:102F3000E804806858C00E303CE5130709F476C0F9
:102F400008F07FC08091E8048BC00B3F9CE5190717
:102F500009F44FC018F50331FCE51F0709F47DC0E3
:102F600078F401313CE5130709F473C002311C45C4
:102F700009F0A4C00E94882A8091E8048F7733C0AA
:102F800005319CE5190709F472C008F486C00A3FB0
:102F90001C4509F093C08091E9043EC00F3F2CE529
:102FA000120709F45FC058F40D3F8CE5180709F4C7
:102FB00044C008F43FC08091E90482602DC0013014
:102FC000EDE51E0709F475C008F45DC002301D452B
:102FD00009F074C060E06EC08091E804816003C0B5
:102FE0008091E80480618093E80468C08091E804DF
:102FF00011C08091E90482608093E9045FC08091F0
:10300000E8048062F0CF8091E8048064ECCF809186
:10301000E80488608460E7CF8160EECF8091E804A7
:103020008E7FE1CF8091E8048D7FDDCF8091E80431
:10303000877FD9CF8091E90418C08091E9048D7F02
:10304000DBCF8091E8048F7ECECF8091E8048F7D26
:10305000CACF8091E8048F7BC6CF8091E804877F38
:103060008B7FC1CF8091E9048D7F8E7FC5CF80910A
:10307000E80482FB222720F991E0922790FB82F955
:1030800090FB83F9B0CF8091E904982F90959170CF
:103090008E7F892B90FB81F9AFCF0E94882A809187
:1030A000E80487FB222720F991E0922790FB87F91B
:1030B0009ACF61E08EE090E00E94B32C6091E8042A
:1030C0001091E90484E090E00E94B32C612F82E229
:1030D00090E00E94B32C0E94882A73CE053FFCE545
:1030E0001F0731F406E221EE42EE65EF7CE5A4CE47
:1030F000053F2CE5120730F407E225EE44EE64EFBD
:103100007CE59ACE063F3CE5130709F0BCCE07E20A
:1031100025EE46EE66EF7CE58FCE8091A508063160
:103120009CE5190709F58A7A91E009F490E09093FB
:103130000D08882311F065E301C069E28EE098E094
:103140000E94821D0EC006311C4509F0D6C0809138
:103150000D08882309F48CC365E38EE098E00E9493
:103160005A1D0E94391E2DCE82720A3C3CE513077F
:1031700009F47BC098F5053CECE51E0709F461C035
:10318000B8F4033C2CE5120709F451C008F054C010
:10319000023C8CE5180709F07FC09091060981E098
:1031A000892780930609109228010E94DF1009CE1A
:1031B000073C9CE5190709F44EC008F447C0083CD9
:1031C000FCE51F0709F44CC0093C2CE5120709F087
:1031D00063C045E15FE061E27FE055C00F3C3CE544
:1031E000130709F455C098F40C3CECE51E0709F4EC
:1031F00046C008F43FC00D3C2CE5120709F446C058
:103200000E3C3CE5130709F047C085E042C0063D8F
:103210008CE5180730F4013D1C4508F0D2CD82E161
:1032200038C00D35EDE51E0709F4CBCD35C047E5B7
:103230005FE060E67FE027C040E65FE067E57FE0B3
:1032400022C045E45FE06EE47FE01DC04EE45FE035
:1032500065E47FE018C04DE25FE069E37FE013C002
:1032600049E35FE06DE27FE00EC041E25FE065E1CF
:103270007FE009C041EF50E167EE70E104C047EE26
:1032800050E161EF70E10E94D5109BCD81E001C05B
:103290008DE00E94F72195CD0A35FDE51F0741F12C
:1032A00050F401153CE51307A9F00E3D1C4529F526
:1032B0000E94C81D86CD0B359DE51907D9F00C3548
:1032C0001D45D9F48091E90482FB882780F991E0BB
:1032D000892711C00E94882AFFEF04E31CE0F15007
:1032E00000401040E1F700C000000E94D31C69CDEF
:1032F00081E001C080E00E947F1EF7018281008191
:103300001181882349F0C8010E94991ED82E682F88
:10331000C8010E94121F04C0C8010E94E61ED82ED8
:10332000B8018D2D0E94C6128C01982EF701B28033
:10333000A580A2949FE0A9228091A208877099F0AD
:10334000BB2089F0812F807F803421F080E2800FC4
:10335000883048F082E00E946C1F8091A20887703C
:10336000DD24D3948111D12CC12EC2948FE0C822C8
:103370008C2D90E08C30910508F03FC2FC01EF5697
:10338000FF4F0C94622D812F807F1F70882311F0D6
:103390001295107FBB20B9F0112309F419C280E205
:1033A000800F883010F0911006C08091A508182B6E
:1033B0001093A50805C08091A408182B1093A408A9
:1033C0000E94391E05C2802F0E94B22A112309F4DF
:1033D00014C2005E1095083010F0911006C0809164
:1033E000A50818231093A50805C08091A4081823E8
:1033F0001093A4080E94391E00C2812F807F1F7085
:10340000803211F01295107F992021F0F1E09F1683
:1034100011F130C0BB20B1F0AA2081F001E0A01270
:103420000DC08091E90482FDE8C18091A608182BA7
:10343000181709F4E2C11093A608DFC18091A6080D
:10344000812B10C0AA2021F021E0A21609F4D5C1D9
:103450000E94331E27C0BB2041F035E03A1508F426
:10346000CCC1812F0E94A82AC8C184E08A1508F423
:10347000C4C118C0BB2049F0AA2099F3F701858187
:1034800080FFA6C18F708583ECCFAA2059F0093345
:1034900009F0B0C1FFEF17EE23E0F15010402040DB
:1034A000E1F7A6C1812F0E949D2AA7C1812F869591
:1034B0008695837019F0813059F09FC1BB2019F0B7
:1034C000C801937002C080E090E00E941E109BC172
:1034D000BB2019F0C801937002C080E090E00E9408
:1034E000081091C1812F837009F069C0B11089C1A2
:1034F000902F929596959770990F990F802F8F70B6
:10350000882E912CA12CB12C092E04C0880C991C5A
:10351000AA1CBB1C0A94D2F704FF12C04FE050E073
:1035200060E070E004C0440F551F661F771F9A9536
:10353000D2F7DB01CA0180959095A095B09503C0A4
:1035400080E090E0DC0116951695412F43704230E3
:1035500019F1C8F40091A7081091A8082091A908B2
:103560003091AA08413059F088299929AA29BB2904
:10357000BC01CD0160237123822393230AC0802ADA
:10358000912AA22AB32ABC01CD01682979298A2966
:103590009B290E94AA1F35C188299929AA29BB29DC
:1035A0000091A7081091A8082091A9083091AA08B5
:1035B000BC01CD016027712782279327EACFBB206A
:1035C00019F0812F817001C08695882309F419C1F3
:1035D000902F929596959770990F990F802F8F70D5
:1035E000882E912CA12CB12C092E04C0880C991C7A
:1035F000AA1CBB1C0A94D2F704FF12C04FE050E093
:1036000060E070E004C0440F551F661F771F9A9555
:10361000D2F7DB01CA0180959095A095B09503C0C3
:1036200080E090E0DC0116951695412F4370423002
:10363000D9F068F500910C0910910D0920910E093F
:1036400030910F09413059F088299929AA29BB29BD
:10365000BC01CD0160237123822393231EC0802AE5
:10366000912AA22AB32A13C088299929AA29BB29F9
:1036700000910C0910910D0920910E0930910F094C
:10368000BC01CD01602771278227932706C0BC01AA
:10369000CD01682979298A299B290E943D1FB1C043
:1036A0001F70BB2039F0812F0E94891F802F0E943C
:1036B000A82AA7C0802F0E949D2A812F0E94471F01
:1036C000A0C0802F32EF931609F440C0391538F0AE
:1036D00090EF991661F0E1EF9E1699F174C0F3EF47
:1036E0009F16D9F124EF921609F44EC06CC0BB208E
:1036F00019F134E03A1508F480C01F7181E090E0C0
:10370000A0E0B0E0AC01BD0104C0440F551F661F2E
:10371000771F1A95D2F780910C0990910D09A0910D
:103720000E09B0910F098A019B01082719272A2742
:103730003B27C901B80125C025E02A1508F45DC062
:10374000DCCFBB2029F0812F8F7130C0BB20D9F393
:10375000812F8F710E94471F50C0BB2079F01F71CD
:1037600081E090E0A0E0B0E0BC01CD0104C0660FB4
:10377000771F881F991F1A95D2F703C060E070E089
:10378000CB010E943D1F39C0BB2099F01F71812FD2
:103790000E94891F8091E90482FD07C038E0139FD1
:1037A000C001112483608093A208812F0E94891F89
:1037B00024C081E00E946C1F81E08A15F0F482E051
:1037C0000E946C1F1AC0BB2039F0AA2009F4BBCF9D
:1037D000802F0E94E42A11C0AA2009F4B9CF8933AE
:1037E00049F49FEFE7EEF3E09150E040F040E1F75D
:1037F00000C00000802F0E94B22A88EF8C0D843018
:1038000010F40E943410DD20A9F18091A20880FDFF
:1038100031C0F70112828595859585950E94891F93
:10382000C7010E9495158091A2088595859585957B
:1038300029960FB6F894DEBF0FBECDBFDF91CF91B2
:103840001F910F91FF90EF90DF90CF90BF90AF90BE
:103850009F908F907F906F905F904F903F900C94CF
:10386000471F01319FE5190709F0DDCA82E0A5CAAB
:1038700069E273CC29960FB6F894DEBF0FBECDBFB8
:10388000DF91CF911F910F91FF90EF90DF90CF903C
:10389000BF90AF909F908F907F906F905F904F9070
:1038A0003F90089508958091AC08089580E00895B0
:1038B000CF93DF9300D01F92CDB7DEB79091CF08A2
:1038C000943011F589837B836A839093E9008FEFAD
:1038D0009091E800815095FD06C095ED9A95F1F71D
:1038E00000008111F5CF8091E80085FF0DC040E018
:1038F00050E063E070E0CE0101960E94CF248091F9
:10390000E8008E778093E8000F900F900F90DF9182
:10391000CF910895BC0184E00C94581CBC0183E055
:103920000C94581CCF93DF9320911001222339F07F
:103930002091E80427FF03C060E224E002C068E0B1
:1039400021E02093E9002FEF3091E800215035FD70
:1039500006C035ED3A95F1F700002111F5CF209121
:10396000E80025FF1DC0EC0180911001811105C008
:1039700040E050E068E070E003C070E040E050E0FC
:10398000CE010E94CF248091E8008E778093E800DA
:1039900080E2FE01ADEAB8E001900D928A95E1F770
:1039A000DF91CF91089581E08093E00080E28093E1
:1039B000D8001092C9008FE19EE40197F1F700C092
:1039C000000087E090EBDC018093120990931309CB
:1039D000A0931409B09315099CE088E10FB6F89400
:1039E000A895809360000FBE90936000FFCF7894FD
:1039F0001F920F920FB60F9211248F939F93AF9344
:103A0000BF938091250590912605A0912705B0913F
:103A100028050196A11DB11D8093250590932605CB
:103A2000A0932705B0932805BF91AF919F918F91E7
:103A30000F900FBE0F901F9018952FB7F8946091BC
:103A400025057091260580912705909128052FBFA7
:103A500008952FB7F8948091250590912605A0919F
:103A60002705B09128052FBF08951F920F920FB61A
:103A70000F9211248F939F93AF93BF93809125054D
:103A800090912605A0912705B09128054196A11D8A
:103A9000B11D8093250590932605A0932705B0932B
:103AA0002805BF91AF919F918F910F900FBE0F90FE
:103AB0001F901895209110012223C9F02091E8044D
:103AC00027FF15C0262F2695269526952E31C8F45A
:103AD000FC01E20FF11D677081E090E001C0880FEA
:103AE0006A95EAF780959281892382830895FC0183
:103AF00006962281621301C012823196E817F907F7
:103B0000C1F70895209110012223C1F02091E8040B
:103B100027FF14C0262F2695269526952E3130F5A1
:103B2000FC01E20FF11D677081E090E001C0880F99
:103B30006A95EAF79281892B82830895FC01329677
:103B40002FEF30E04191641789F02F3F19F44111B4
:103B500001C0232F3F5F3630A9F72F3F39F0FC011A
:103B6000E20FF11D27FDFA95628308950895CF9322
:103B700084E090E00E94952CC82F82E290E00E94A1
:103B8000952C2C2F30E0A901582BCA01CF91089514
:103B90006AEE7EEF80E090E00E94D12C60E082E04F
:103BA00090E00E94B32C60E083E090E00E94B32C90
:103BB0001092A7081092A8081092A9081092AA08BB
:103BC00060E084E090E00E94B32C60E082E290E04C
:103BD0000E94B32C60E085E090E00E94B32C60E08E
:103BE00086E090E00E94B32C6FEF87E090E00E94A7
:103BF000B32C40E050E0BA0188E090E00E94C52C70
:103C000060E08DE090E00E94B32C40E050E0BA010B
:103C100088E190E00E94C52C60E087E190E00E947E
:103C2000B32C40E050E0BA018CE190E00E94C52C3A
:103C300060E070E080E290E00E94D12C40E050E033
:103C4000BA0188E190E00E94C52C40E050E0BA0142
:103C50008FE090E00E94C52C40E050E0BA0183E183
:103C600090E00C94C52C8091A60881111092A608B2
:103C700008959091A5088091A408892B2091A3080C
:103C8000982F922B90930E088091A6088823D9F044
:103C9000892B80930E0880911001882331F0809148
:103CA000E80487FF02C08EE101C086E0E0E1F8E0B1
:103CB00090E0815028F021912223D9F39F5FF9CF22
:103CC00091110E94331EE0912305F0912405309755
:103CD000A9F080911001882359F08091E80487FFB2
:103CE00007C080910E0880930F0885E080930E082E
:103CF0000280F381E02D8EE098E009940895CF933F
:103D0000C091E904C2FB992790F9981781F080FBD4
:103D1000C2F9C093E9046091E80484E090E00E9455
:103D2000B32C6C2F82E290E0CF910C94B32CCF9106
:103D30000895BF92CF92DF92EF92FF920F931F935D
:103D4000CF93DF938C01C0900C09D0900D09E090C7
:103D50000E09F0900F098091A7089091A808A091F2
:103D6000A908B091AA08C82AD92AEA2AFB2ACFE1D1
:103D7000D0E0D701C6010C2E04C0B695A795979543
:103D800087950A94D2F780FD04C0219790F7B12C53
:103D900007C0BC2EB8018C2F0E94C6120197A9F350
:103DA0008B2DDF91CF911F910F91FF90EF90DF90BE
:103DB000CF90BF900895CF93DF93EC010E94991E9E
:103DC000BE010E94C612DF91CF91089520E1929F1B
:103DD000800D1124682F669566956695982F9770CB
:103DE00085E0689FB001112440E050E080E0FB01D5
:103DF000E40FF51FEA59F74F208130E0092E02C089
:103E0000369527950A94E2F721703327042E01C0D6
:103E1000220F0A94EAF7822B4F5F5F4F453051051E
:103E200031F7089520E1929F800D1124E82FE69547
:103E3000E695E695877051E001C0550F8A95EAF73F
:103E400085E0E89FF0011124EA59F74F20E030E0C7
:103E500070E04081CB01022E02C0969587950A94AE
:103E6000E2F78170819584278523842781932F5FD2
:103E70003F4F2530310569F7089560930C09709321
:103E80000D0980930E0990930F090C947A2A0F93D1
:103E90001F9341E050E060E070E004C0440F551F04
:103EA000661F771F8A95D2F740955095609570955B
:103EB00080910C0990910D09A0910E09B0910F0904
:103EC0008A019B01082319232A233B23C901B80136
:103ED0001F910F910C943D1F2091A2088095822381
:103EE0008093A208982F977041F430E0482F082E55
:103EF000000C550B2417350721F49091E90492FF2B
:103F000007C08595859585950E94471F1092A20848
:103F100008950F931F9341E050E060E070E004C00B
:103F2000440F551F661F771F8A95D2F780910C09A1
:103F300090910D09A0910E09B0910F098A019B0182
:103F4000082B192B2A2B3B2BC901B8011F910F916C
:103F50000C943D1F6093A7087093A8088093A9084C
:103F60009093AA080C947A2A80916508909134085D
:103F7000891719F08F5F8770FBCF08950F931F93F8
:103F8000CF93DF938091330882958F7009F05DC0E5
:103F900080913008882309F458C0809165081091F9
:103FA000340860912E0870912F08C0913108D0918B
:103FB000320891E06F3F09F090E0292F06E0811769
:103FC00009F443C0209721F07F3F21F030E003C087
:103FD00031E001C0322F90E030FD34C0089FF00185
:103FE000099FF00D1124DF01AB5CB74F11963C9196
:103FF0001197371327C03C91361324C012963C9179
:10400000129731111FC013964D915C9114974C1B60
:104010005D0B483C5105B0F4809133088F7080618E
:1040200080933308E65CF74F80818F7080618083D6
:104030008EE298E00E949515DF91CF911F910F912C
:104040000C94B41F01968770BACFDF91CF911F9166
:104050000F9108959F92AF92BF92CF92DF92EF920D
:10406000FF920F931F93CF93DF93CDB7DEB7619786
:104070000FB6F894DEBF0FBECDBF8C0185E0F8010E
:10408000DE011D9601900D928A95E1F7F80190816D
:104090008181E28030912E0860912F084091310893
:1040A000509132084115510531F06F3F31F421E054
:1040B0003F3F19F403C021E001C020E0F22FF1706E
:1040C0009F2E20FD23C1F801C380D4802EE2A22EB2
:1040D00028E0B22EF0903008F601E41BF50BFF202B
:1040E00009F4CEC020913308E83CF10508F099C0EE
:1040F000422F407F09F051C0681311C039130FC01F
:10410000FE2CE1100CC02F70206120933308C501F4
:104110000E94951580913308F801858337C1CD2819
:1041200031F08F3F31F421E09F3F19F403C021E0CB
:1041300001C020E020FD03C021E02E2502C020E0C8
:1041400030E0F22FF170FF2E20FF1DC02091650896
:104150004091340856E0241709F4F6C030E0529F2D
:10416000F001539FF00D1124EB5CF74F6181861332
:1041700006C06081961303C06281E61204C02F5FFF
:104180003F4F2770E8CFFE2CEE2009F4FFC080914E
:10419000330881608093330850C0681307C0391317
:1041A00005C0E11003C0F80125838DC09D878E876F
:1041B0008D859E850E94512A882369F1EE2059F150
:1041C00020913308822F82958F7090E0029774F0CF
:1041D00080912E0890912F0898878F831986DB860F
:1041E000CA862C87CE0107960E94951586E0F801B5
:1041F000AEE2B8E001900D928A95E1F70E94BE1FF1
:104200000DC06817E1F09D878E878D859E850E9481
:10421000512A81111EC0C8010E949515FF24F394F4
:10422000B5C0422F407F69F78EE298E00E94951555
:1042300086E0F50111928A95E9F7F12CA7C03913B0
:10424000E2CFE110E0CFF8012583C8010E94951567
:1042500057C0EE2001F320913308822F82958F7092
:1042600090E002971CF280912E0890912F089A837B
:1042700089831B82DD82CC822E83CE010196B4CF4E
:10428000E83CF105E8F5FE2CEE2029F2681327C082
:10429000391325C02091330820FD18C0822F829544
:1042A0008F70482F50E04115510581F0F8012583AA
:1042B0004F30510541F08F5F982F9295907F822F5C
:1042C0008F70892B8583C8010E94951586E0F801BF
:1042D000AEE2B8E001900D928A95E1F757C09D8754
:1042E0008E878D859E850E94512A81117FCF809176
:1042F0003308816080933308C8010E94951546C039
:1043000086E0F50111928A95E9F740C0EE2009F4A4
:1043100082CF9D878E878D859E850E94512AF82E9B
:10432000882309F478CF86E0F801AEE2B8E0019086
:104330000D928A95E1F780912E0890912F080E94A6
:10434000DB1E0E94BE1F22C09D878E878D859E85A5
:104350000E94DB1E292F22952F70223028F49F7097
:1043600039F0811105C00BC0243028F49F7049F446
:10437000805E883020F0C8010E9495159F2CF92C92
:1043800005C0F8019581907F99F7F9CF8F2D61963F
:104390000FB6F894DEBF0FBECDBFDF91CF911F9156
:1043A0000F91FF90EF90DF90CF90BF90AF909F90D4
:1043B00008950F931F9380910C0990910D09A0917E
:1043C0000E09B0910F098C019D010670112722275B
:1043D0003327BC01CD01063011052105310511F44B
:1043E000686001C0677F1F910F910C943D1F9091F1
:1043F0000609937089F0811102C0946007C0883269
:1044000010F09C6903C0880F880F982B90930609C1
:10441000109228010C94DF1008956F927F928F9272
:104420009F92AF92BF92CF92DF92EF920F931F9322
:10443000CF93DF933C01C0912501CC0FCC0FD4E08A
:10444000DC0FDE3608F0DDE660910A0966958091A2
:104450000209909103090E94AD11182FCD1708F0A1
:1044600044C08C2E912CF401E95BFB4F908180912C
:1044700026018923C1F1F401EE0FFF1FE359FC4F20
:10448000C080D12C80E7C81AD108F401EE0FFF1FBD
:10449000E259FC4FA080B12CE0E2AE1AB108CC9CEE
:1044A0009001CD9C300D300D1124AA9CC001AB9C15
:1044B000900D900D1124820F931F0E945311082F0D
:1044C000609107097091080980910909E12E950111
:1044D000A601F30109950E94B711462F282F672FD7
:1044E000C4010E94DD10CF5FB9CF81E0DD3608F056
:1044F00080E0DF91CF911F910F91EF90DF90CF90EF
:10450000BF90AF909F908F907F906F900895CF92C3
:10451000DF92EF92FF920F931F93CF93DF936C0183
:10452000C0912501CC0FCC0FD4E0DC0FDE3608F0B3
:10453000DDE660910A096695809102099091030970
:104540000E94AD11182FCD1778F5EC2EF12CF70144
:10455000E95BFB4F908180912601892319F1F701D6
:10456000EE0FFF1FE259FC4F208130E0205231094D
:10457000F701EE0FFF1FE359FC4F408150E0405719
:104580005109609107097091080980910909012F6B
:10459000F60109950E94B711462F282F672FC701F2
:1045A0000E94DD10CF5FCFCF81E0DD3608F080E0E4
:1045B000DF91CF911F910F91FF90EF90DF90CF90FF
:1045C0000895DF92EF92FF920F931F93CF93DF93A3
:1045D0007C01C0912501CC0FCC0FD4E0DC0FDE367E
:1045E00008F0DDE660910A096695669580910209FA
:1045F000909103090E94AD11D82ECD17F0F40C2F25
:1046000010E0F801E95BFB4F90818091260189233E
:1046100091F06091070970910809809109092D2D89
:104620004C2FF70109950E94B711462F282F672FAD
:10463000C8010E94DD10CF5FE0CF81E0DD3608F0D9
:1046400080E0DF91CF911F910F91FF90EF90DF906D
:1046500008959F92AF92BF92CF92DF92EF92FF9216
:104660000F931F93CF93DF936C01C0912501CC0F63
:10467000CC0FD4E0DC0FDE3608F0DDE660910A09ED
:104680006695669580910209909103090E94AD118B
:10469000182F80E4810F0E940E1190E8F92EF80E79
:1046A000812F0E940E1120E8922E980ECD1700F552
:1046B000AC2EB12CF501E95BFB4F90818091260176
:1046C0008923A1F060910709709108098091090977
:1046D000E12E0C2F292D4F2DF60109950E94B711BF
:1046E000462F282F672FC5010E94DD10CF5FDECF38
:1046F00081E0DD3608F080E0DF91CF911F910F91CE
:10470000FF90EF90DF90CF90BF90AF909F90089573
:10471000CF92DF92EF92FF920F931F93CF93DF938D
:104720006C01C0912501CC0FCC0FD4E0DC0FDE363C
:1047300008F0DDE620910A0930E040E050E06FEF3C
:104740007FEF80E090E00E94D72C8901CD17E8F53B
:10475000EC2EF12CF701E95BFB4F90818091260153
:10476000892389F19091D908915097FD15C0492F5F
:10477000092E000C550BFA01E752F74F8189C81337
:10478000F3CF440F551FFA01E752F74F218D328DB9
:104790002017310748F701C0980160910A09C90143
:1047A0000E94AD11AC0160910709709108098091D8
:1047B0000909F60109950E94B711462F282F672F86
:1047C000C7010E94DD10CF5FC1CF81E0DD3608F068
:1047D00080E0DF91CF911F910F91FF90EF90DF90DC
:1047E000CF9008952F923F924F925F926F927F9257
:1047F0008F929F92AF92BF92CF92DF92EF92FF92F1
:104800000F931F93CF93DF93CDB7DEB727970FB6E4
:10481000F894DEBF0FBECDBF282E4B01209125019D
:10482000220F220F2E83122F1C5F1E3608F01DE66A
:104830003091D9083983AE81A11708F077C08E81F5
:10484000682E712CF301E95BFB4F9081809126016A
:10485000892309F467C03090070940900809522C59
:104860001F82C301880F991FDC01A359BC4FBB8372
:10487000AA83C301880F991FFC01E259FC4FFD83F5
:10488000EC83F9815F16E0F5E52CF12CAA81BB8160
:10489000CC90D12CF701E752F74F8181C81AD1088B
:1048A000AC81BD81AC90B12C8185A81AB108CC9C9B
:1048B0009001CD9C300D300D1124AA9CC001AB9C01
:1048C000900D900D1124820F931F0E945311082FF9
:1048D000F701EE0FFF1FE752F74F60910A09818D34
:1048E000928D0E94AD117C019501A601632D742D5E
:1048F0008F81F4010995362E472E8F835394C1CFB3
:10490000209109098F81382F329F312D1124832F57
:10491000632D742D0E94B711462F282F672FC301D6
:104920000E94DD108E818F5F8E8385CF81E01D36E2
:1049300008F080E027960FB6F894DEBF0FBECDBF1B
:10494000DF91CF911F910F91FF90EF90DF90CF906B
:10495000BF90AF909F908F907F906F905F904F909F
:104960003F902F90089590910609937059F080938D
:10497000070960930809493C08F048EC409309098D
:104980000C94DF100895E1E1F1E08083618324E677
:1049900030E042E050E0BF0180E60C94022CEF9240
:1049A000FF920F931F93CF93DF937C018B010E94A3
:1049B0003028811119C0E70101151105A1F080917E
:1049C000E80085FD0AC08091E8008E778093E800BA
:1049D0000E943028882381F307C089918093F100D9
:1049E00001501109E9CF80E0DF91CF911F910F9124
:1049F000FF90EF9008951F93CF93DF93CDB7DEB76D
:104A0000AA970FB6F894DEBF0FBECDBFE1EDF8E078
:104A10008091F100819348E0E93DF407C9F7809166
:104A2000D208833009F462C030F4813071F08230F2
:104A300009F49CC0B3C08A3009F488C08B3009F4F3
:104A40006DC0893009F0AAC020C08091D108813A98
:104A500009F0A4C08091E800877F8093E8008091EE
:104A6000D5089091D608892B21F460E28DEA98E070
:104A700003C060E080E090E070E00E94F329809144
:104A8000E8008B778093E80089C08091D10881325B
:104A900009F084C08091D5089091D608009719F04C
:104AA000029709F07BC08091E800877F8093E8003F
:104AB0008091E80082FD05C08091CF088111F8CF78
:104AC0006DC02091F3008091F20090E0922B02974C
:104AD00029F48091F1008B7F813021F48091F100E5
:104AE0008093AC088091E8008B7754C08091D10806
:104AF000813A09F053C08091D5089091D608892B4E
:104B000009F04CC08091E800877F8093E800809195
:104B1000E80080FFFCCF8091100137C08091D10860
:104B20008132E1F58091D5089091D608892BB1F5B5
:104B30008091E800877F8093E8000E94632880913D
:104B4000D308809310010E94882A28C08091D10840
:104B5000813221F58091E800877F8093E8000E94F0
:104B600063288091D4088093AB0818C08091D10845
:104B7000813AA1F48091E800877F8093E8008091DA
:104B8000E80080FFFCCF8091AB088093F10080911A
:104B9000E8008E778093E8000E9463288091E80007
:104BA00083FFDDC18091D1089091D208492F50E058
:104BB0004A30510508F0D3C1FA01E356FF4F0C9477
:104BC000622D803821F0823809F0C9C108C0809177
:104BD000CD089091CE08992389F082600FC0809112
:104BE000D5088F70873008F0BAC18093E9008091B2
:104BF000EB0085FB882780F91092E9009091E8008E
:104C0000977F9093E8008093F1001092F10070C1BB
:104C1000282F2D7F09F0A3C1882319F0823061F07D
:104C20009EC18091D308813009F099C1933009F079
:104C300080E08093CE082EC08091D30881112AC0D5
:104C40008091D5088F702FEF280F263008F087C18C
:104C50008093E9002091EB0020FF1CC0933021F4E9
:104C60008091EB00806214C09091EB009061909372
:104C7000EB0021E030E0A90102C0440F551F8A95E6
:104C8000E2F74093EA001092EA008091EB0088601E
:104C90008093EB001092E9008091E800877F809379
:104CA000E8000E9463285BC1811159C11091D308AB
:104CB0001F778091E3008078812B8093E3008091BF
:104CC000E800877F8093E8000E9463288091E800D5
:104CD00080FFFCCF8091E30080688093E300111196
:104CE00002C082E001C083E08093CF0838C18058C1
:104CF000823008F034C12091D3083091D4082C3D83
:104D000053E0350779F583E08A838AE289834FB7D8
:104D1000F894DE01139620E03EE051E2E32FF0E04C
:104D200050935700E49120FF03C0E295EF703F5F7E
:104D3000EF708E2F90E0EA3010F0C79601C0C09659
:104D40008D939D932F5F243149F74FBF8091E800E9
:104D5000877F8093E8006AE270E0CE0101960E94AE
:104D6000F329B4C08091D5089091D608432F5527D8
:104D700043305105A9F068F44130510509F4FEC0F3
:104D80004230510509F0EBC08BE590E0E9E6F5E033
:104D90004BC04132510529F14232510589F1DFC042
:104DA000C901992781309105A1F058F0029709F0C7
:104DB000D6C0E6EDF5E0E4918E2F90E0E6EDF5E06B
:104DC00030C0E6E0F6E0E4918E2F90E0E6E0F6E019
:104DD00028C0E4EFF5E0E4918E2F90E0E4EFF5E0F9
:104DE00020C08330910508F0BAC0880F991FFC01DC
:104DF000E95FFC4F0190F081E02D89E090E014C064
:104E00008330910508F0ABC0FC01EE0FFF1FEF5F90
:104E1000FC4F0190F081E02DDC01A250BD4F8C9140
:104E200090E0009709F49BC02091E800277F209331
:104E3000E8002091D7083091D8082817390708F4DE
:104E4000C90140E0009789F12091CF08222309F49D
:104E50003DC02530D9F12091E80023FD37C02091D5
:104E6000E80022FD2FC02091E80020FFEBCF409109
:104E7000F3002091F20030E0342B009759F02830F5
:104E8000310540F444914093F100319601972F5F32
:104E90003F4FF3CF41E02830310509F040E0209149
:104EA000E8002E772093E800CDCF4111CDCF0AC086
:104EB0008091CF08882351F0853041F08091E8003F
:104EC00083FD04C08091E80082FFF2CF8091E8006A
:104ED0008B778093E80043C0803809F040C0809110
:104EE000E800877F8093E8008091D0088093F100EC
:104EF0008091E8008E77D3CE811131C08091D308A4
:104F00009091D4089927029754F58091E800877F03
:104F10008093E8001091D3081093D0080E94632872
:104F2000111106C08091E30087FD02C081E001C03D
:104F300084E08093CF0842E061EC81E00E94822807
:104F400042E261EC84E00E94822842E261EC82E06D
:104F50000E94822842E260EC83E00E9482288091D5
:104F6000E80083FF10C08091E800877F8093E8000D
:104F70008091EB0080628093EB0005C082E190E0BD
:104F8000E4ECF5E051CFAA960FB6F894DEBF0FBE61
:104F9000CDBFDF91CF911F9108951F920F920FB651
:104FA0000F9211242F933F934F935F936F937F93AF
:104FB0008F939F93AF93BF93CF93DF93EF93FF9321
:104FC000C091E900CF708091EC00D82FD17080FDA6
:104FD000D0E81092E9008091F000877F8093F00084
:104FE00078940E94FB241092E9008091F000886080
:104FF0008093F000CD2BCF70C093E900FF91EF912B
:10500000DF91CF91BF91AF919F918F917F916F91E0
:105010005F914F913F912F910F900FBE0F901F9076
:105020001895E8EDF0E080818E7F80831092E20099
:105030001092DA001092E100A0EEB0E08C91816055
:105040008C9380818F77808319BCA7EDB0E08C9121
:105050008E7F8C9380818F7E8083109210090895BB
:105060002091E4003091E50095E64091EC00842F1A
:10507000817040FF23C08091E80080FD1DC08091B9
:10508000CF08882399F0853099F08091EB0085FD59
:1050900011C04091E4005091E5002417350729F331
:1050A000915011F09A01E1CF84E0089582E00895D3
:1050B00083E0089581E0089580E008954091E8003C
:1050C00042FFDDCF08958091D10887FF11C0809104
:1050D000E80082FD05C08091CF088111F8CF11C092
:1050E0008091E8008B770BC08091CF08882349F02E
:1050F0008091E80080FFF8CF8091E8008E77809360
:10510000E8000895982F973068F59093E900981774
:1051100039F07091EC002091ED005091F00003C047
:10512000242F762F50E021FD02C09F5FECCF3091FD
:10513000EB003E7F3093EB003091ED003D7F3093EC
:10514000ED003091EB0031603093EB007093EC0098
:105150002093ED005093F0002091EE0027FDE5CF65
:1051600080E008958F708093E90081E00895CF92E8
:10517000DF92EF92FF920F931F93CF93DF93C8EDCF
:10518000D0E088818F7E8883E7EDF0E080818160C8
:10519000808384E082BF81E08093100988818E7FC4
:1051A000888302EE10E0F80110821092DA0081EE9E
:1051B000C82ED12CF601108288818F778883888150
:1051C0008068888388818F7D888319BC1092CF087E
:1051D0001092D0081092CE081092CD0890EEE92ED1
:1051E000F12CF70180818B7F8083888181608883A7
:1051F00042E060E080E00E948228F60180818E7F9C
:105200008083F801808181608083808188608083D1
:10521000F70180818E7F8083888180618883DF9120
:10522000CF911F910F91FF90EF90DF90CF90089555
:105230001F920F920FB60F9211242F933F934F930B
:105240005F936F937F938F939F93AF93BF93EF93EE
:10525000FF938091E10082FF09C08091E20082FF0C
:1052600005C08091E1008B7F8093E1008091DA009E
:1052700080FF2AC08091D80080FF26C08091DA008C
:105280008E7F8093DA008091D90080FF18C080E182
:1052900089BD82E189BD09B400FEFDCF81E0809324
:1052A000CF088091100981110FC00E9411280E941F
:1052B000B7288091E20084608093E20005C019BCA9
:1052C0001092CF08109210098091E10080FF17C062
:1052D0008091E20080FF13C08091E2008E7F809376
:1052E000E2008091E20080618093E2008091D8002A
:1052F00080628093D80019BC85E08093CF088091AC
:10530000E10084FF34C08091E20084FF30C080E17E
:1053100089BD82E189BD09B400FEFDCF8091D8002E
:105320008F7D8093D8008091E1008F7E8093E10093
:105330008091E2008F7E8093E2008091E2008160A4
:105340008093E2008091D008882311F084E007C0A8
:105350008091E30087FD02C081E001C083E080937B
:10536000CF080E94882A0E9434101092110980915F
:10537000E10083FF27C08091E20083FF23C080917A
:10538000E100877F8093E10082E08093CF08109254
:10539000D0088091E1008E7F8093E1008091E2004F
:1053A0008E7F8093E2008091E20080618093E20032
:1053B00042E060E080E00E9482288091F0008860F6
:1053C0008093F000FF91EF91BF91AF919F918F91EA
:1053D0007F916F915F914F913F912F910F900FBEF1
:1053E0000F901F9018952091D7083091D808261754
:1053F000370748F06115710539F42091E8002E77E0
:105400002093E80001C0B901FC0120E0611571059D
:1054100079F18091CF088823F1F18530F1F1809105
:10542000E80083FD3CC08091E80082FD2EC08091A1
:10543000E80080FFEBCF2091F3008091F20090E034
:10544000922B6115710551F08830910538F4219146
:105450002093F100615071090196F3CF21E0089784
:1054600009F020E08091E8008E778093E800CECFAD
:105470002111CFCF0AC08091CF08882361F08530F9
:1054800061F08091E80083FD0AC08091E80082FF0E
:10549000F2CF80E0089582E0089583E0089581E0EE
:1054A00008950E94DB1E292F2F70E92FE295EF70DF
:1054B0004E2F50E0FA013297EE30F105B8F4E9557D
:1054C000FF4F0C94622D803F99F018F4883E70F4E1
:1054D0000FC0843F59F40CC0883E50F0813F31F436
:1054E00007C0822F869586958695089580E0089559
:1054F00081E0089580E090E00E941E1080E090E03E
:105500000E9408101092A4081092A3080C94391E4F
:105510001092A50880911001882331F08091E80451
:1055200087FF02C08EE101C086E0E0E1F8E0DF0124
:105530001D928A95E9F70C947A2A882341F0809588
:105540009091A50889238093A5080C94391E08958D
:10555000882339F09091A508892B8093A5080C9495
:10556000391E0895882379F19CEF980F913A30F411
:10557000682F8EE098E00E945A1D14C090E2980FA8
:10558000983090F4877021E030E0A90102C0440F08
:10559000551F8A95E2F7CA0180959091A508892345
:1055A0008093A5080C94391E9BE5980F933020F446
:1055B00080E090E00C941E10885A873120F480E03F
:1055C00090E00C9408100895CF93882309F46DC0DF
:1055D0009CEF980F913AC8F5C82F8091100188234D
:1055E000E1F08091E80487FF18C0EC2FE695E6957E
:1055F000E695F0E0E25FF74F8281282F30E04C2FF4
:10560000477081E090E002C0880F991F4A95E2F749
:1056100082239323892B61F412C0E0E1F8E086E154
:1056200098E02191C21721F08E179F07D1F707C08C
:105630006C2F8EE098E00E945A1D0E94391E6C2F3C
:105640008EE098E00E94821D13C090E2980F98307F
:1056500090F4877021E030E0A90102C0440F551F8B
:105660008A95E2F7CA019091A508892B8093A50835
:10567000CF910C94391EEBE5E80FE33040F4F0E0F5
:10568000EC54FB4F808190E0CF910C941E10885A0F
:10569000873158F4E82FF0E0EE0FFF1FE954FB4F7D
:1056A00080819181CF910C940810CF9108951F9320
:1056B000CF93DF93182F893319F0C0E0D0E002C0F8
:1056C000C0E5D0E0812F0E94E42A209741F08FE9C5
:1056D0009FE00197F1F700C000002197F6CF812FDE
:1056E000DF91CF911F910C94B22A1092B9008CE0F7
:1056F0008093B8000895EF92FF920F931F93CF937A
:10570000DF93182FEB011092BC0084EA8093BC0059
:105710000E94291D7C018091BC0087FD0EC0CF3FF7
:105720008FEFD807C1F30E94291D8E199F098C178E
:105730009D0788F38EEF9FEF2EC08091B900887F80
:10574000883041F08091B900887F803119F08FEF67
:105750009FEF21C01093BB0084E88093BC000E949F
:10576000291D8C018091BC0087FD0CC0CF3F8FEFBD
:10577000D807C1F30E94291D801B910B8C179D0730
:1057800088F3D8CF8091B900887F883111F08034B8
:10579000F1F680E090E0DF91CF911F910F91FF90A3
:1057A000EF9008950F931F93CF93DF93EB018093B6
:1057B000BB0084E88093BC000E94291D8C0180916D
:1057C000BC0087FD0EC0CF3F8FEFD807C1F30E940A
:1057D000291D801B910B8C179D0788F38EEF9FEF7F
:1057E0000CC02091B900287F81E090E0283211F4AC
:1057F00080E090E0919581959109DF91CF911F9183
:105800000F910895CF92DF92EF92FF920F931F9323
:10581000CF93DF936B018A017901B9010E947B2B41
:10582000E6010C0D1D1DC017D10761F424E920937A
:10583000BC00DF91CF911F910F91FF90EF90DF900F
:10584000CF90089597FDF2CFB70189910E94D22B96
:10585000EACF8F929F92AF92BF92CF92DF92EF9258
:10586000FF92CF93DF93EC01688179818A819B81DC
:10587000611571058105910521F464E279ED8BE5EF
:1058800097E02DE133EF41E050E00E94D72C490131
:105890005A019B01AC01A7EAB1E40E94F62C6B010E
:1058A0007C01ACEEB4EFA50194010E94042DDC0153
:1058B000CB018C0D9D1DAE1DBF1DB7FF03C0019711
:1058C000A109B04888839983AA83BB839F77DF911E
:1058D000CF91FF90EF90DF90CF90BF90AF909F90CF
:1058E0008F9008950E94292C089580E091E00E94F5
:1058F000292C0895A0E0B0E080930001909301016D
:10590000A0930201B09303010895DC01CB01FC01D7
:10591000F999FECF06C0F2BDE1BDF89A319600B408
:105920000D9241505040B8F70895F999FECF92BDBD
:1059300081BDF89A992780B50895A8E1B0E042E0CA
:1059400050E00C94872CDC01A40FB51F415050404F
:1059500048F0CB01840F951F2E910E94B42C41502A
:105960005040D0F70895262FF999FECF92BD81BD02
:10597000F89A019700B4021639F01FBA20BD0FB68D
:10598000F894FA9AF99A0FBE08950396272F0E9469
:10599000B42C0E94B32C252F0E94B42C242F0C94DD
:1059A000B42C0196272F0E94B42C0C94B32C052EF6
:1059B00097FB1EF400940E94EE2C57FD07D00E9426
:1059C000092D07FC03D04EF40C94EE2C5095409515
:1059D000309521953F4F4F4F5F4F0895909580959B
:1059E000709561957F4F8F4F9F4F08950E942B2D8B
:1059F000A59F900DB49F900DA49F800D911D112423
:105A00000895B7FF0C94F62C0E94F62C821B930B82
:105A10000895A1E21A2EAA1BBB1BFD010DC0AA1FEF
:105A2000BB1FEE1FFF1FA217B307E407F50720F007
:105A3000A21BB30BE40BF50B661F771F881F991F82
:105A40001A9469F760957095809590959B01AC01CB
:105A5000BD01CF010895A29FB001B39FC001A39FD4
:105A6000700D811D1124911DB29F700D811D112497
:105A7000911D0895AA1BBB1B51E107C0AA1FBB1FA4
:105A8000A617B70710F0A61BB70B881F991F5A95CA
:105A9000A9F780959095BC01CD01089597FB072E3D
:105AA00016F4009407D077FD09D00E943A2D07FC28
:105AB00005D03EF4909581959F4F0895709561951E
:105AC0007F4F0895EE0FFF1F0590F491E02D09948C
:105AD0006927962769277827872778270895FB0164
