:100000000C9462030C94A9030C94A9030C94A90307
:100010000C94A9030C94A9030C94A9030C94A903B0
:100020000C94A9030C94A9030C9417260C94CC24CB
:100030000C946E1B0C94A9030C94A9030C94A903B3
:100040000C94A9030C94A9030C94A9030C94A90380
:100050000C94A9030C94301B0C94A9030C94A903D1
:100060000C94A9030C94A9030C94A9030C94A90360
:100070000C94A9030C94A9030C94A9030C94A90350
:100080000C94A9030C94A9030C94A9030C94A90340
:100090000C94A9030C94A9030C94A9030C94A90330
:1000A0000C94A9030C94A9030C94A903DA06DD06A9
:1000B000FF060C0713073307C907C907C907C90794
:1000C000C907360738073D07610782078507880794
:1000D000AA076508700899083308FB083D0940091C
:1000E0004309460949094C094F095209550958095C
:1000F0005D096209650968096D09B309B609BB099B
:10010000FC17FC17361836188F18361A361A361A96
:10011000AB1889199A199A19E0220723AE240723EC
:10012000AE2453237623AE246B247B2462276227DC
:10013000752775276B27752775277527622762270F
:100140007027752775277027000101010101010142
:10015000010102020202020202020203030303037C
:10016000030303040404040404040505050505064B
:100170000606060607070707070808080809090909
:10018000090A0A0A0B0B0B0C0C0C0D0D0D0E0E0EB2
:100190000F0F0F1010111111121213131414151543
:1001A00016161717181819191A1A1B1B1C1D1D1EB5
:1001B0001E1F202021222223242425262627282909
:1001C000292A2B2C2D2D2E2F303132323334353637
:1001D0003738393A3B3C3D3E3F4041424344454637
:1001E0004748494A4C4D4E4F505153545556585913
:1001F0005A5B5D5E5F616264656668696B6C6D6FBA
:100200007072737577787A7B7D7E8082838587882C
:100210008A8C8E8F91939596989A9C9EA0A2A3A566
:10022000A7A9ABADAFB1B3B5B7BABCBEC0C2C4C667
:10023000C9CBCDCFD1D4D6D8DBDDDFE2E4E7E9EB23
:10024000EEF0F3F5F8FAFDFF29001E001F00200074
:1002500021002200230024002500260027002D0075
:100260002E002A004A002B0014001A000800150076
:1002700017001C0018000C00120013002F003000A3
:1002800031004B00390004001600070009000A0085
:100290000B000D000E000F0033003400000028009A
:1002A0004E00E1001D001B000600190005001100B2
:1002B0001000360037003800E500000052004D0005
:1002C000E000E300E200000000002C00000000005D
:1002D000E6000000E4005000000051004F00165CF2
:1002E0003A003B003C003D003E003F004000410022
:1002F00042004300440045004C004A000100C25C3B
:10030000C35CC55CC65CC75CC85CC95CCA5C0100F8
:10031000460047004800005C4B000100CB5CCC5C11
:1003200001000100010001000100010001000100C5
:1003300001000000DE5C4E00E10001000100010050
:1003400001000100010001000100010001000100A5
:100350000000A900A8000100010001000000000049
:10036000010000000000010000000100AC000000DE
:10037000AA00AB0001000100010001000100010022
:100380000100010001000100010001000100010065
:100390000100010001000100010001000100010055
:1003A0000100010001000100010001000100010045
:1003B0000100010001000100010001000100010035
:1003C0000100010001000100000001000100010026
:1003D0000100010001000100010001000100010015
:1003E0000100010001000000010001000100010006
:1003F00001000000000001000000000001000000FA
:1004000001000100000001000100010001000100E5
:1004100001000100010001000100010001000100D4
:1004200001000100010001000100010001000100C4
:1004300001000100010001000100010001000100B4
:1004400001000100010001000100010001000100A4
:100450000100010001000100010001000100000095
:100460000100010001000100010001000100010084
:100470000100010001000100010001000000010075
:100480000100010001000100000000000100000067
:100490000000010000000100010000000100010057
:1004A000000000000000000000000000000000004C
:1004B000000000000000000000000000000000003C
:1004C000000000007E0F00D4FFFFFFC7000000788F
:1004D00000000000000000002A2B2800000000009F
:1004E00000000000000000000000002900000000E3
:1004F0002C1E3420212224342627252E362D373851
:10050000271E1F202122232425263333362E373859
:100510001F0405060708090A0B0C0D0E0F10111217
:10052000131415161718191A1B1C1D2F3130232DE3
:10053000350405060708090A0B0C0D0E0F101112E1
:10054000131415161718191A1B1C1D2F3130354C92
:1005500005010980A101850319012AB700150126AB
:10056000B700950175108100C0050C0901A1018536
:100570000419012AA002150126A002950175108117
:1005800000C005010906A1018505050719E029E755
:10059000150025019508750181020507190029EF4D
:1005A0001500250195F0750181020508190129053D
:1005B000950575019102950175039101C00660FFD3
:1005C0000961A1010962150026FF009520750881C7
:1005D000020963150026FF00952075089102C005E9
:1005E000010906A101050719E029E7150025019574
:1005F0000875018102950175088101050719002917
:10060000FF150026FF0095067508810005081901F1
:100610002905950575019102950175039101C009A0
:10062000025B00030100A0FA0904000001030101BC
:100630000009211101000122400007058103080083
:100640000A09040100020300000009211101000150
:100650002222000705820320000107050303200072
:100660000109040200010300000009211101000139
:10067000226D000705840320000A1201100100000A
:100680000008424B251202000102000120036B000A
:1006900062006400360037006D006B00690069007D
:1006A0007200670062002000760032000000100334
:1006B0004B0042004400660061006E0073000000C1
:1006C0000403090411241FBECFEFDAE0DEBFCDBF63
:1006D00004B603FE27C08091480690914906A09178
:1006E0004A06B0914B068730904BA740B04BD1F4EF
:1006F000109248061092490610924A0610924B0634
:1007000014BE84B7877F84BF0FB6F894A8958091F4
:100710006000886180936000109260000FBEE0E08E
:10072000F8E3099513E0A0E0B1E0E6EFF3E502C0DD
:1007300005900D92A039B107D9F726E0A0E9B3E002
:1007400001C01D92A834B207E1F70E94AB030C94DC
:10075000F9290C940000CF93DF93CDB7DEB7E9976A
:100760000FB6F894DEBF0FBECDBF84B7877F84BFBE
:100770000FB6F894A895809160008861809360001E
:10078000109260000FBE90E080E80FB6F89480935E
:100790006100909361000FBE85B7806885BF85B703
:1007A000806885BF8FE89AE19093910380939003CE
:1007B0000E9410250E94B6258091E20084608093FB
:1007C000E200789480912E068823A1F01091E90030
:1007D0001F709091EC00892F817090FD80E8182B9C
:1007E0001092E9008091E80083FD0E94FA211F70B9
:1007F0001093E90082E084BD93E095BD9AEF97BD28
:1008000080936E0080EF0E94F11081EF0E94F11042
:1008100084EF0E94F11086EC0E94F11086E60E949F
:10082000F11009E111E048E2E42E41E0F42ED80194
:100830008D918D010E94F110E016F106C1F7E4E9F7
:10084000F3E08EE993E0A6E0B4E0119211921D92DC
:100850001D928E179F07C9F780E090E00E94402903
:100860008A3E9E4F11F00E94011C82E090E00E949F
:1008700038298093FB030E94F01B9093930380938D
:1008800092030E940313EFE3FCE93197F1F700C0F4
:1008900000000E9403138091060480FF17C06FEFD1
:1008A00083E290E00E9456296FEF84E290E00E947C
:1008B00056296FEF85E290E00E9456296FEF7FEF97
:1008C00080E090E00E9474290E940C1B83E090E07D
:1008D0000E943829682F70E080E090E00E94E31DBC
:1008E0000E94160D1092CD03E6EEF3E086EF93E042
:1008F0002FEF3FEF219331938E179F07D9F7109277
:10090000A003E9EBF3E089EC93E02FEF3FEF2193B5
:1009100031938E179F07D9F780E090E00E9440291D
:100920008A3E9E4F21F00E94011C0E949F0F46E0CC
:1009300050E06CE170E08CE396E00E942829809101
:100940003C068C7F11F40E949F0F83E290E00E948E
:100950003829813281F484E290E00E94382986307F
:1009600051F485E290E00E94382991E0843109F049
:1009700090E0892F01C080E080FF3BC382E091E0DE
:1009800090939F0380939E03DD24DA9422242A947B
:10099000322C412C512C8E010F5F1F4F7801065FC6
:1009A0001F4F1CA70BA70E94031381110E94561B07
:1009B000ACEFB3E0E6E0F4E000E010E0402F61903F
:1009C00071908D919D9186259725009709F4B0C06F
:1009D000B12C88248394912C9C0128213921232B2C
:1009E00009F49FC0B9A24AA36820792081E061146C
:1009F000710409F480E08BA30E94621B8160782F50
:100A00009DA38CA349A15AA16BA18DA10E942C0E7C
:100A1000F801EE0FFF1FE450FC4F80819181882682
:100A2000992691828082672889F02FE0209FF0012B
:100A3000219FF00D1124E55BFD4FEB0DF11D808131
:100A40008F3F21F08DA7CC24C39401C0C12C90907E
:100A5000A0030C2D10E0C801890D911D0997A4F188
:100A6000E8E0AE2EB12CA01AB10AB8016F5F7F4F3B
:100A700060567C4FA50181EA93E00E94F029B801FD
:100A8000675F7F4F60567C4FA50189EA93E00E9423
:100A9000F029A501440F551FB801660F771F675E47
:100AA0007F4F60567C4F89EB93E00E94F029B8019C
:100AB0006F5E7F4F60567C4FA50181EB93E00E94F3
:100AC000F0299A949092A0038091A00390E08DA4C5
:100AD000A82DB0E09D01220F331F2A563D4FAA0FCB
:100AE000BB1FBD0169567D4F41E0480F9C15B0F416
:100AF00090E0FC01E056FC4FD9015C915183DB0191
:100B00005C9151878DA4818A880F991FFC01E05662
:100B1000FC4F128E118E91E0842FE6CF8093A003BC
:100B20001CC0B394880C991C3FE0A32EBA1054CF7C
:100B30000F5F1F4F0530110509F040CFDEA2DFA285
:100B400018A60E94621B8160782F9AA789A74EA1E0
:100B50005FA168A58AA50E942C0E8091C90390917F
:100B6000CA03A091CB03B091CC032FB7F894809027
:100B7000F6039090F703A090F803B090F9032FBF0D
:100B800095018401081B190B2A0B3B0B0EAB1FAB05
:100B900028AF39AF0E94561B6093C9037093CA03F4
:100BA0008093CB039093CC03E091A003A0EAB3E041
:100BB000CE2EF0E0A20191018EA89FA8A8ACB9ACFE
:100BC000281939094A095B092AAB3BAB4CAB5DAB31
:100BD000EF17E9F059964D915C915A978A0120E000
:100BE00030E08AA89BA8ACA8BDA880169106A206F2
:100BF000B30610F4CA9408C0AEA8BFA84A0D5B1D86
:100C00005A965C934E935997FF5F1296E1CFC0922C
:100C1000A00320914706211109C020913C06322FE4
:100C2000337021F0922E9694969401C0912C2091CD
:100C30001001213001F138F0223009F440C0233096
:100C400009F44AC066C010920D0160933806709393
:100C5000390680933A0690933B0689E2E0EAF3E096
:100C6000ADECB3E001900D928A95E1F7BB24B3940B
:100C7000B09210014EC08091010198120DC02091D8
:100C80003C06237030E04091000150E081E02417E1
:100C9000350719F480E001C081E0817080930F0175
:100CA0008091410690910E01981709F4BBC1809381
:100CB0000E0140E060E080E00E947F0FB3C190929F
:100CC000010180913C068370809300010E94710CA9
:100CD00083E0809310011DC0409138065091390681
:100CE00060913A0670913B062FB7F8948091F60315
:100CF0009091F703A091F803B091F9032FBF841BE3
:100D0000950BA60BB70B4A97A105B10510F01092F1
:100D100010010E94F60E9091FA03891721F00E94AB
:100D2000F60E8093FA0380912E06843009F03BCEB4
:100D300083E08093E9008091E80082FF34CE8091C7
:100D4000E80085FF21C00E942F2581111BC000E211
:100D500010E0DE0111965D0108C08091F100F501FF
:100D600081935F010150110969F08091E80085FDD0
:100D7000F4CF8091E8008B778093E8000E942F25C4
:100D8000882399F391E001C090E08091E8008B778F
:100D90008093E800992309F406CEE9818E2F90E034
:100DA000FC013197E331F10508F0F3C0EA5AFF4F37
:100DB0000C94C1291A8289E05EC08A81823009F4CC
:100DC0000FC1833051F0813009F0E3C00E94561BFF
:100DD0009B838C837D836E83DDC0FE013196A6E00C
:100DE000B4E08C9111969C91119712969283838313
:100DF00032968BA49CA48E169F0699F7CBC08A814D
:100E0000823009F0C6C06B817C818D819E810E94F9
:100E1000C72986E290E024C04C816B818A810E94C0
:100E2000460F9D83E4C0AD80BE80BA24AB24BA24B3
:100E30008C810B819A812EE1029F8001112436E979
:100E4000939F000D111D1124080F111D080F111D76
:100E50006B2DC80187960E9456296A2DC801889675
:100E60000E94562997C00E94120F94C080E14EC084
:100E700041E04A8381E88B838DC00A811B81102762
:100E8000012710278C80912C5701C80181589D4F54
:100E900095012E193F092815390508F07BC0013846
:100EA00051E0150730F40E943829D50114968C932F
:100EB00002C0F50114820F5F1F4FFFEFAF1ABF0A88
:100EC000E4CF0A811B811027012710278C80912CE9
:100ED0005701C80181589D4F95012E193F092815CA
:100EE000390508F057C0013821E0120728F4D50170
:100EF00014966C910E9456290F5F1F4FBFEFAB1ADB
:100F0000BB0AE7CF0E94020F45C084E08A8342C03B
:100F10000A811B811027012710278C80912C5701F3
:100F2000C801879695012E193F092815390590F5B6
:100F30000835E2E01E0730F40E943829D5011496E6
:100F40008C9302C0F50114820F5F1F4FFFEFAF1AA1
:100F5000BF0AE6CF0A811B811027012710278C804A
:100F6000912C5701C801879695012E193F09281524
:100F7000390580F4083522E0120728F4D5011496CB
:100F80006C910E9456290F5F1F4FBFEFAB1ABB0A2F
:100F9000E9CFD98280912E06843009F004CD1091DA
:100FA000E9001F709091EC00892F817090FD80E81E
:100FB000182B82E08093E9008091E80080FF0CC04C
:100FC00040E050E060E270E0C7010E94CE218091D5
:100FD000E8008E778093E8001F701093E900E3CC5F
:100FE00086E290E00E9438291B821C821D828E833B
:100FF000D1CF60E086E290E00E9456290E94120F55
:101000000E94020F61E283E290E00E94562966E0AE
:1010100084E290E00E94562964E185E290E00E941B
:101020005629ACCC892D90E08731910508F448C051
:1010300080910D018F5F80930D0182E080931001FC
:1010400080910F01811138C0992009F441CE0E948E
:10105000F60E81FF5ECE2FEF4FEF6FEF8EE190E047
:101060000E94810F56CEC0900D01CC0CCC0C74E0C8
:10107000B72EBC0C03E40B1510F463E4B62E80907D
:101080003E0670903F062091400650E4A52E1A2D92
:10109000129F112D1124A12ECB1408F485C081E0DC
:1010A00022E42B1508F4C1C190910D019F5F90932C
:1010B0000D01882309F4C1CF992009F42ACEC7CFA6
:1010C000FC01E759FF4F0C94C12980910F0188233F
:1010D00009F4ABC140E060E080E00E947F0FA5C151
:1010E00010910D01110F110F04E0010F043408F0ED
:1010F00003E460913D0670913E0680913F060E9498
:101100006110C62EB72EA82E101708F027C1E12FA8
:10111000F0E0DF01A45EBC4F8C9190910E0198230A
:1011200031F02A2D4C2D6B2DCF010E94810F1F5FB6
:10113000EBCF10910D01110F110F04E0010F0434DA
:1011400008F003E4A0903E06B0903F0680903D0674
:10115000682D7A2D8B2D0E946110762E672EC82E59
:1011600060914006680D7A2D8B2D0E946110B62E7D
:10117000A72E882E101708F0F1C0812F90E0FC01F7
:10118000E45EFC4F308120910E01232359F030FFA3
:1011900004C0282D4B2D6A2D03C02C2D472D662D04
:1011A0000E94810F1F5FE6CF0C2D10E0F801E45E76
:1011B000FC4F908180910E018923D9F0F801EE0F48
:1011C000FF1FEA56FD4F6081A69EB001112445E045
:1011D000759567954A95E1F780913D06680F782DE2
:1011E000872D0E946110462F282F672FC8010E946B
:1011F000810FC39451CF10910D01110F110F04E015
:10120000010F043408F003E4B0903D06C0903E06A0
:10121000A0903F0660914006669566956695809120
:101220003806909139060E9457100E94B80F8058D6
:1012300087FD8195880F382F4A2D349F312D112439
:10124000832F6B2D7C2D0E946110C62EB72EA82EE9
:10125000101708F083C0E12FF0E0DF01A45EBC4F5F
:101260008C9190910E01982331F02A2D4C2D6B2DED
:10127000CF010E94810F1F5FEBCF8AE49BE078C013
:101280008AEE9BE017C08EEC9BE019C088E49BE0DF
:101290006FC08FE39BE06CC086E39BE069C08BE18D
:1012A0009BE066C08CE09BE00AC08EE290E102C049
:1012B0008DEB9BE00E94C020F7CE89EA9BE00E9464
:1012C0004620F2CE8EED9AE005C08CEA9AE002C08C
:1012D0008EE69AE00E946221E7CE10910D01110F77
:1012E000110F04E0010F043408F003E4B0903E064F
:1012F000C0903F06A0903D066091400666956695B9
:10130000669580913806909139060E9457100E9488
:10131000B80F805887FD8195880F682F5CE0659F26
:10132000612D11246A0D7B2D8C2D0E946110C62E1B
:10133000B72EA82E101790F4E12FF0E0DF01A45E85
:10134000BC4F8C9190910E01982331F02A2D4C2D99
:101350006B2DCF010E94810F1F5FECCF81E0033422
:1013600008F4A2CE62C089ED9FE002C08DE59AE04C
:101370000E941A2199CEC0900D01CC0CCC0C24E017
:10138000822E8C0C83E4881510F493E4892E20912E
:10139000400630E040E050E0C201B1010E94A229C5
:1013A0008901C814E8F5AC2CB12CF501E45EFC4FC2
:1013B000908180910E01892389F19091CD03915004
:1013C00097FD15C0292F092E000C330BF901E353AB
:1013D000FC4F8189C812F3CF220F331FF901E35369
:1013E000FC4F218D328D2017310748F701C098013D
:1013F00060914006C9010E945710AC0160913D0602
:1014000070913E0680913F060E94B20F0E946110CB
:10141000462F282F672FC5010E94810FC394C1CF8B
:1014200081E092E4981508F03FCE80E03DCE833411
:10143000910540F5880F991F880F991FFC01E05D09
:10144000FE4F52813381808183707181A82FB0E07B
:10145000E0E98E9FC0011124875D9B4FFC01E70FDF
:10146000F11DB4976083FC01E50FF11DB497408333
:10147000830F911DFC01B4972083FD01E95DFB4FB3
:1014800081E080830895FF920F931F93CF93DF93A2
:10149000182F062FF42EC0E0D0E02F2D402F612F03
:1014A000CE010E94170A2196C334D105B1F7DF910E
:1014B000CF911F910F91FF900895E42FF0E0EE0F70
:1014C000FF1FEA56FD4F9081921B97FD9195292FA2
:1014D00038E1239F212D1124620F08950F931F934C
:1014E00010E0F801EE0FFF1FEA56FD4F9081905774
:1014F00097FD9195000F111FF801E956FD4FE0810E
:10150000F0E0B097DF01AA0FBB1F8D010E0F1F1F68
:101510002003D001219FB00D1124E8E3F0E0E91B86
:10152000F10997FDF3959F01220F331F89010E0FDB
:101530001F1F40039001419F300D11242A0F3B1FB4
:1015400037FF02C021583F4F220F232F221F330B9A
:10155000620F1F910F9108950F931F93522F10E068
:10156000F801EE0FFF1FE956FD4FE081F0E0B09764
:10157000EE0FFF1F9F015203D001539FB00D1124A6
:10158000000F111FF801EA56FD4F008110E00057CF
:101590001109000F111F40039001419F300D1124CC
:1015A0002A0F3B1F37FF02C021583F4F220F232F26
:1015B000221F330B620F1F910F9108950F931F93FA
:1015C000522F10E0F801EE0FFF1FE956FD4FE081AA
:1015D000F0E0B0979F015203D001539FB00D11244A
:1015E000000F111FF801EA56FD4F008110E000576F
:1015F000110940039001419F300D11242A0F3B1F18
:1016000037FF02C021583F4F220F232F221F330BD9
:10161000620F1F910F910895EF920F931F9393E024
:10162000099F80011124159507956E2D600F1F915C
:101630000F91EF900895A22F50E0FA01EE0FFF1FD7
:10164000E956FD4F9081905297FD9195440F551F9B
:10165000FA01EA56FD4F3081232F30E02A1B310971
:10166000290F311D97FD3A95620F0895E42FF0E0A0
:10167000EE0FFF1FE956FD4F6081621B0895E42FB6
:10168000F0E0EE0FFF1FEA56FD4F6081621B0895E8
:10169000622F0895E42FF0E0EE0FFF1FEA56FD4F92
:1016A000408134EE439F412D1124E82FF0E050E0BB
:1016B000445E5F4FDA01A21BB1099D01B7FF03C071
:1016C00031952195310993E0220F331F9A95E1F767
:1016D000AF01421B530B9A0157FF02C020E030E0DC
:1016E000582F259F212D1124822F0895FC019B0145
:1016F000009721F477FF2BC080E80895AC0197FF95
:1017000004C044275527481B590BB901640F751FA6
:1017100037FD0CC0241B350BC901A5E0880F991FAC
:10172000AA95E1F70E948E2980E20CC0CB0165E00A
:10173000880F991F6A95E1F7BA01621B730B0E942B
:101740008E2980E6861BF7FF03C08195089580E00F
:101750000895EF920F93CF93DF93D72FC82FC9012E
:101760000E19BA010E94760B602F681B7D2F8C2FFB
:10177000DF91CF910F91EF9008950F93CF93DF9367
:10178000D72FC82FC901BA010E94760B682F600FAE
:101790007D2F8C2FDF91CF910F910895EF920F93B2
:1017A0001F93CF93DF93D62FC72F182FC9010E1980
:1017B000010FBA010E94760B081B202F219F212DBB
:1017C0001124822F6D2F7C2FDF91CF911F910F91CC
:1017D000EF900895FF920F931F93CF93DF93F62E10
:1017E000D72F182FC901C12FC01BBA010E94760B39
:1017F000982F990F890FC81B2C2F219F212D112461
:10180000822F6F2D7D2FDF91CF911F910F91FF9030
:1018100008959091920392FF0DC0282F28712830CF
:1018200019F4877F846006C0282F2471243011F4B6
:101830008B7F886093FF0DC0282F2871283119F401
:10184000877E846106C0282F2471243111F48B7E99
:1018500088612091930320FF0DC0382F38713830F4
:1018600019F4877F816006C0382F3171313011F44F
:101870008E7F886021FF0DC0282F2871283119F430
:10188000877E816106C0282F2171213111F48E7E5F
:10189000886194FD877E08950F931F93CF93DF9304
:1018A000082F000FEB0114E210931304E4E1F4E0BD
:1018B000DE018D91819384E0E432F807D1F724E6CC
:1018C00030E041E150E063E174E0802F0E940129A3
:1018D000105F6096143B41F7DF91CF911F910F91FC
:1018E000089580912704882329F069E274E084E751
:1018F0000E944C0C1092270480912804882329F020
:1019000069EB74E087E70E944C0C1092280408955C
:10191000E3E1F4E06083418324E630E042E050E01C
:10192000BF01880F0C940129DF92EF92FF920F9371
:101930001F93CF93DF93262F30E0A90143595A4FCD
:101940007A01FA01908191110AC0F7011082DF91AA
:10195000CF911F910F91FF90EF90DF900895D82EB7
:10196000F2E16F9FE001112400E010E0F801EC0FBC
:10197000FD1FE75BFA4F4081602F8D2D0E94880C80
:101980000F5F1F4F0231110589F7DFCFCF93DF9330
:10199000C82F4BE06DEF0E94880C40E06AE08C2F6E
:1019A0000E94880C8FE39CE90197F1F700C00000CA
:1019B00040E060E08C2F0E94880C40E061E08C2FBA
:1019C0000E94880C40E066E08C2F0E94880C40E06A
:1019D0006DEF8C2F0E94880CD0E040E06D2F8C2F93
:1019E0000E94880CDF5FD231C1F740E06D2F8C2F51
:1019F0000E94880CDF5FD432C1F740E06D2F8C2F3E
:101A00000E94880CDF5FD43BC1F74BE06DEF8C2F59
:101A10000E94880C41E06AE08C2F0E94880C40E014
:101A20006DEF8C2FDF91CF910C94880C7F928F9269
:101A30009F92AF92BF92CF92DF92EF92FF920F935D
:101A40001F93CF93DF930E94742884E70E94C60CF3
:101A500087E70E94C60C00E311E0E12CF12C42E183
:101A600038E0A32EB12CCC24C394D12C77247394CA
:101A7000D80111962C91119730E0C90184971296E4
:101A8000CC911297D0E0A4971396EC91F0E0B49724
:101A9000BC0197FF02C0695F7F4FA3E07595679512
:101AA000AA95E1F7D701AA0FBB1FAA0FBB1FA05D24
:101AB000BE4F2C91237030E0429FD001439FB00D68
:101AC0001124A75BBA4F4D01860E911CB5010E94EF
:101AD0008E29B60102C0660F771F8A95E2F7CB0107
:101AE000D4019C91892B8C93CE01D7FD079663E09E
:101AF000959587956A95E1F7429FB001439F700DD8
:101B00001124675B7A4F4B01880E911CCE01B50101
:101B10000E948E29B60102C0660F771F8A95E2F7F0
:101B2000CB01D4019C91892B8C93CF01F7FD0796B3
:101B300053E0959587955A95E1F7429FE001439FC1
:101B4000D00D1124C75BDA4FC80FD11DCF01B501ED
:101B50000E948E29F60102C0EE0FFF1F8A95E2F760
:101B6000CF019881892B8883F901E359FA4F70825C
:101B7000FFEFEF1AFF0A0C5F1F4F63E4E616F10454
:101B800009F076CF60E084E70E94940C61E087E77B
:101B9000DF91CF911F910F91FF90EF90DF90CF9049
:101BA000BF90AF909F908F907F900C94940CECE33B
:101BB000F6E0438120E1421B08F440E0818162812C
:101BC00090E00C94C121ECE3F6E0438120E1420F68
:101BD00008F44FEF8181628190E00C94C121ECE325
:101BE000F6E0628120E1621B08F460E081814381BC
:101BF00090E00C94C121ECE3F6E0628120E1620FF9
:101C000008F46FEF8181438190E00C94C121ECE3F3
:101C1000F6E0818190E04381628108970C94C121B4
:101C2000ECE3F6E0818190E04381628108960C94B8
:101C3000C12180913C0686958695815009F486E104
:101C40000C94302080913C06869586958F5F873175
:101C500008F081E00C9430201F93CF93DF93CDB731
:101C6000DEB767970FB6F894DEBF0FBECDBF342F37
:101C70004B8B252F5C8B6D8B7E8B8F8B4E895F8979
:101C800061111092030686E0FE013D96DF01982F58
:101C90001D929A95E9F73D872E876F87598B488B60
:101CA000DE01179601900D928A95E1F7CE01079615
:101CB0000E94631E81113EC086E0FE013796DE0160
:101CC000119601900D928A95E1F7FF81E8856A856A
:101CD0007B856115710531F0EF3F31F481E0FF3F05
:101CE00019F403C081E001C080E080FD23C0209191
:101CF0009D0530E0C9010196877099274091CE0576
:101D000050E08417950779F1F983EA837D836C832A
:101D100096E0929FD001939FB00D1124A256BA4F26
:101D2000FE01319601900D929A95E1F780939D0501
:101D30000E94ED1D16E08091CE0590919D058917BA
:101D4000F9F0189FC001112482569A4F0E94631E19
:101D50008823B1F08091CE0590E001968770992795
:101D60008093CE05E8CF0E94872710929D051092A0
:101D7000CE05E7E9F5E086E0DF011D928A95E9F7F7
:101D800067960FB6F894DEBF0FBECDBFDF91CF913F
:101D90001F91089520917305309174052817390714
:101DA00071F09093740580937305E0919E03F09118
:101DB0009F03309721F00084F185E02D0994089568
:101DC00020917105309172052817390771F09093B1
:101DD000720580937105E0919E03F0919F03309707
:101DE00021F00680F781E02D09940895E0919E038B
:101DF000F0919F03309721F00190F081E02D09943C
:101E000080E00895CF93DF93CFE7D2E060E0CE018A
:101E10000E9456292196C11584E0D807B9F7DF91B1
:101E2000CF910895CF92DF92EF92FF920F931F937D
:101E3000CF93DF93C0E0D0E08E010A561F4F6E01B2
:101E40008EE1C80ED11CFE01E85BFD4FE590F490D9
:101E50006F2DCE0187960E9456296E2DCE01889651
:101E60000E9456292296CC15DD0569F70C171D072F
:101E700031F7E80108351240F9F6DF91CF911F9153
:101E80000F91FF90EF90DF90CF9008950F931F93E5
:101E9000CF93DF93C42FD0E0CC0FDD1F2EE1629FE4
:101EA000C00DD11D112436E9839FC00DD11D112411
:101EB000CE0187960E943829082F10E0102F0027A6
:101EC000CE0188960E9438299801282BC901DF91FC
:101ED000CF911F910F910895462F843038F47530BB
:101EE00028F46F3018F4672F0C94460F80E090E0D0
:101EF0000895882311F0FA0101C0FB0109940C94A4
:101F0000430A0C94170A46E050E06CE170E08CE361
:101F100096E00C944629ECE3F6E0248130E1230FAF
:101F200008F42FEF24830C94830FECE3F6E0248174
:101F300030E1231B08F420E024830C94830FECE3AE
:101F4000F6E081E280838091110190911201A091CD
:101F5000130181839283A3838FE784838FEF85832B
:101F60000C94830F22E8241B08F420E0620F0895EC
:101F7000482F982F46FD9095E92FEF739F7046FDEF
:101F80009F5FE295EF70EE0FF0E0E85DFE4F21817C
:101F9000299F802D212D112482958F702295207FDD
:101FA000822B3081982F930F892F47FD8195805880
:101FB00008950F931F93CF93DF93D62F072F182FDA
:101FC000C42F822F0E94B80FEC2FF0E0EE0FFF1FFE
:101FD000EA56FD4F90819058890F87FD8195880FB3
:101FE000682F2CE0629F612D11246D0F702F812FBF
:101FF000DF91CF911F910F910895BC01823091051F
:1020000008F40895613E8EE1780748F49B0195E05D
:10201000369527959A95E1F748E0420F01C04FEFBA
:1020200091E0242F30E0290F311D35952795229F0F
:10203000F001239FF00DF00D11246E177F0718F4A7
:102040004FEF420F04C02F3F39F091E0920F491734
:1020500040F78FEF890F08958FEF08950F93CF9377
:10206000DF93D72FC82F47FD4195E8E3F0E0CF017C
:10207000841B910947FD9395889FB001899F700D3E
:10208000700D1124229FC001239F900D900D1124EB
:10209000860F971F0E94FD0F682F660F860F682F0F
:1020A000600F7D2F8C2FDF91CF910F91089520E04D
:1020B00030E0869F212D969F200D311D1124C901EE
:1020C0000895CF92DF92EF92FF920F931F93CF93D9
:1020D000DF93F62E472FE82FF0E0711106C0E85B82
:1020E000FE4F8491782F682F73C0272F30E0E85B74
:1020F000FE4FE491FE2F0E2F10E056E0659FC001C9
:102100001124CFEFD0E0BE010E947A295BEA56038A
:10211000C001579F900D11248F0D911D8F0D911DA2
:10212000982F990F980F7E01E21AF30AE09ED001D2
:10213000E19EB00DF09EB00D11248B2F499FA001A0
:102140001124452F55277E01E41AF50AE09EA001CF
:10215000E19E500DF09E500D11246E01C91AD10858
:10216000C29E7001C39EF00CD29EF00C11242F2D44
:102170003327C21BD30BC09F9001C19F300DD09F4E
:10218000300D1124932F6230710591F048F46115E0
:102190007105E1F061307105B9F49E2FE52F16C08D
:1021A0006430710569F040F06630710579F00CC05B
:1021B0009E2FEB2F832F0AC0EB2F8F2F952F06C05A
:1021C0009B2F8E2FE32F02C09B2F852F7E2F692FF1
:1021D000DF91CF911F910F91FF90EF90DF90CF9003
:1021E0000895F894E82FE295EF70F0E031A1282FE0
:1021F0002F7081E090E001C0880F2A95EAF7982FB0
:102200009095932391A392A1892B82A3789408950A
:10221000CF93DF930E946C0FEC018238910559F146
:10222000A0F48133910509F473C040F4893291051B
:1022300009F467C08A9709F472C084C08533910598
:1022400009F458C0C997B9F07DC0833E910571F17A
:1022500038F4803E9105B1F0823E910511F172C0D3
:10226000863E9105B9F1873E9105C9F1843E9105FD
:1022700009F068C024C08091920380FD5DC081FD9B
:102280005BC060C08091920380FD50C08091930339
:1022900080FF36C18091920384FD30C1C3EED0E04F
:1022A0002FC18091920382FF2BC1F4CF80919203C2
:1022B00082FD3FC08091930380FD3EC0EBCF8091B3
:1022C000930381FF1DC18091920384FD17C1C7EE66
:1022D000D0E016C18091920383FF12C1F4CF8091A8
:1022E000920383FD2CC08091930381FFECCFC4EE59
:1022F000D0E006C18091920385FF02C1C9E2D0E01F
:10230000FFC08091920385FFFBC0C5E3D0E0F8C019
:102310008091920386FFF4C0CAE2D0E0F1C08091C0
:10232000920386FFEDC0C1E3D0E0EAC0C9E3D0E08C
:10233000E7C0C2EED0E0E4C0C0EED0E0E1C0C6EE3F
:10234000D0E0DEC0C11582E5D80708F066C0C1152F
:1023500091E5D90728F0DC2FCC27C16FD06AD0C017
:10236000C83ED10560F5C03ED10508F0C9C0C83AE5
:10237000D105B0F4C53AD10540F0C55AD0E0C15AF4
:10238000DC4FC881D0E0D064BBC0C130D10509F4B6
:10239000B7C008F4B3C0C430D10508F4AFC0B0C0B2
:1023A000CF3BD10508F0AAC0C85AD0E0CC0FDD1F42
:1023B000CE59DC4F0990D881C02DD464A1C0C1157D
:1023C00020E5D207E0F0CE0174E0969587957A95E6
:1023D000E1F783709C2F937021E030E002C0220F60
:1023E000331F9A95E2F73C68382BCF70C695C69597
:1023F00080E2C89FE0011124C22BD32B81C0C115FC
:1024000080E4D80718F0DF70D06A7AC0CE019A95C0
:1024100081159F4108F474C071C0C11586E5D807C5
:10242000F0F5C11595E5D90750F08C2F0E94090CE5
:102430008F71C82FD0E0DC2FCC27D06261C0C115CE
:1024400024E5D20728F0DC2FCC27C46FD06A58C00F
:102450009E01237033278C2F86958695C115D34511
:1024600078F4C1E0D0E002C0CC0FDD1F2A95E2F77E
:1024700020E2829FC0011124C82BD92BDC6840C008
:10248000C1E0D0E002C0CC0FDD1F2A95E2F720E2C8
:10249000829FC0011124C82BD92BDA6831C0C11525
:1024A0002AE5D207E8F4C11589E5D80780F08C2F1A
:1024B0008F700E94090C94E0D695C7959A95E1F724
:1024C000CF70D0E0DC2FCC27D069C82B19C0C11544
:1024D00098E5D90798F0DC2FCC27C06FD06A10C0E0
:1024E000CE0190568115904248F48D2F8F710E9435
:1024F000090CDD27D0628F71D82B02C0C0E0D0E07C
:10250000CE01DF91CF9108950F931F93CF93DF9367
:10251000C42F122FFC0182818823C9F040937505D6
:102520000E94621B9093700580936F0580E28C0F70
:10253000883008F063C0C77081E001C0880FCA9579
:10254000EAF7DF91CF911F910F910C94A72780910B
:10255000750548133CC020916F05309170054FB749
:10256000F8948091F6039091F703A091F803B0914D
:10257000F9034FBF821B930B883C910540F5D0E2D5
:10258000D10FC117B9F080E28C0F883040F4C770CA
:1025900081E001C0880FCA95EAF70E949C27D830D5
:1025A00030F581E0912F977001C0880F9A95EAF776
:1025B0000E94A727802F0E945628D830F8F4212F98
:1025C000277081E001C0880F2A95EAF70AC080E2EF
:1025D0008C0F883098F4C77081E001C0880FCA95CD
:1025E000EAF7DF91CF911F910F910C949C27802FD8
:1025F000DF91CF911F910F910C945628DF91CF91CD
:102600001F910F9108959F92AF92BF92CF92DF9248
:10261000EF92FF920F931F93CF93DF9304E111E0AA
:10262000C4E9D3E08EE9E82E83E0F82E912CCC2487
:10263000C394D12CB801D8018C91F894E82FE2957D
:10264000EF70F0E021A18F70A60102C0440F551F6A
:102650008A95E2F7CA01922F982B91A392A18095B7
:10266000892382A3789400C0E9E1F1E020E030E022
:10267000A12CB12C4191842F82958F7090E0DC01C8
:1026800090968C9190E04F7002C0959587954A95F1
:10269000E2F780FD08C0C601022E02C0880F991F14
:1026A0000A94E2F702C080E090E0A82AB92A2F5FDE
:1026B0003F4F2F303105F1F60F5F1F4FFB01808137
:1026C0000E94F110F0EAFA95F1F788819981A81635
:1026D000B90621F0B982A88281E001C080E0982A81
:1026E0002296EC16FD0609F0A5CF992049F081E06D
:1026F000809312040E94621B909311048093100433
:10270000809112048823E9F1209110043091110482
:102710004FB7F8948091F6039091F703A091F803D6
:10272000B091F9034FBF821B930B069750F1809134
:1027300094039091950390930704809306048091ED
:1027400096039091970390930904809308048091D5
:1027500098039091990390930B0480930A048091BD
:102760009A0390919B0390930D0480930C048091A5
:102770009C0390919D0390930F0480930E041092FC
:102780001204892DDF91CF911F910F91FF90EF904F
:10279000DF90CF90BF90AF909F9008953F924F925F
:1027A0005F926F927F928F929F92AF92BF92CF92E1
:1027B000DF92EF92FF920F931F93CF93DF93CDB7EA
:1027C000DEB729970FB6F894DEBF0FBECDBFFC0170
:1027D0008081918123813481232B31F09F3F31F41B
:1027E00091E08F3F19F403C091E001C090E090FDAB
:1027F0007AC67F0185E0DE01119601900D928A95DF
:10280000E1F7F701228189819A81222349F00E9410
:10281000D21C182F682F89819A810E944B1D03C0FA
:102820000E941F1D182F69817A81812F0E946C0FD1
:102830008C01F7018281882309F4F2C098012251AA
:102840003F452031310508F019C18FEF93E00E9418
:1028500038298111EFC002513FE7832E32E0932ED9
:10286000002379F08114F4E09F0609F4E3C0C40169
:102870000E943829811101C001501FEF811A910A6D
:10288000EFCF1E821F8218861986442443942AE0C3
:10289000322E84010F5F1F4FC4010E9438298E839E
:1028A0001F82882309F4C6C09FEF980F933060F40D
:1028B0008F834E8222E0820E911CC8010E9438292B
:1028C0008887811102C0B6C048018E010A5F1F4F80
:1028D000F80120812223E9F2213009F04CC08181E6
:1028E000813049F46801F2E0CF0ED11CF8018281F9
:1028F0000E9456280AC0823051F46801F2E0CF0EDF
:10290000D11CF80182810E94E327860186C08330B2
:1029100049F46801F2E0CF0ED11CF80182810E94D7
:10292000B127F3CF843019F00F5F1F4F76C0F80145
:1029300022810E5F1F4F80E090E030E0205331098C
:102940002A30310568F4389EA001399E500D1124BB
:10295000C901840F951F0F5F1F4FF8012081EDCF34
:10296000009709F45AC0EFE9FFE03197F1F700C092
:1029700000000197F5CFE22FF0E0E053FB4F5490B9
:10298000822F86958695869590E0FC01E054FB4F5A
:1029900064902770712C022E02C0759467940A947B
:1029A000E2F7F1E06F227724FC01E055FB4FA490A1
:1029B000B12C022E02C0B594A7940A94E2F731E03C
:1029C000A322BB24FC01E056FB4FC490D12C02C0D3
:1029D000D594C7942A95E2F781E0C822DD246114DA
:1029E000710419F081EE0E94E327A114B10419F0DB
:1029F00086EE0E94E327852D0E945628AB2819F009
:102A000086EE0E94B127672819F081EE0E94B12757
:102A1000CD2819F08CE20E9456280F5F1F4F58CF27
:102A200000313FE5130709F055C581E00E94801D84
:102A30000E94122080910106877009F454C5F701A5
:102A40008281882309F44FC582E029960FB6F89455
:102A5000DEBF0FBECDBFDF91CF911F910F91FF90D1
:102A6000EF90DF90CF90BF90AF909F908F907F902E
:102A70006F905F904F903F900C94A51D0031FFE543
:102A80001F0711F481E005C001312FE5120721F481
:102A900082E00E94C21DCCCF033FFCE51F0749F432
:102AA00006E221EE40EE63EF7CE5C7010E9484124E
:102AB000C1CF043F2CE5120708F049C1083D3CE5B1
:102AC000130731F407E225EE45EE68ED7CE5EDCF26
:102AD000093D9CE5190731F408E221E045EE69ED76
:102AE0007CE5E3CF073DECE51E0731F406E221EE7D
:102AF00041EE67ED7CE5D9CF882309F45DC11092E2
:102B0000750502309CE5190708F440C10631ECE573
:102B10001E0730F0C8018A5F9C45099708F036C14E
:102B20000E94F01B90939303809392030031FCE585
:102B30001F0709F4C3C008F041C008303CE5130783
:102B400009F49AC0F0F404309CE5190709F487C031
:102B500068F40230FCE51F0709F477C003301C4518
:102B600009F0E5C080919203826076C006303CE5B2
:102B7000130709F46EC008F07BC08091920388604F
:102B80006BC00C309CE5190709F485C068F40A3065
:102B9000FCE51F0709F474C008F079C00E9487277C
:102BA00080919203806858C00E303CE5130709F409
:102BB00076C008F07FC0809192038BC00B3F9CE5EC
:102BC000190709F44FC018F50331FCE51F0709F494
:102BD0007DC078F401313CE5130709F473C002317C
:102BE0001C4509F0A4C00E948727809192038F772B
:102BF00033C005319CE5190709F472C008F486C09A
:102C00000A3F1C4509F093C0809193033EC00F3FDB
:102C10002CE5120709F45FC058F40D3F8CE5180746
:102C200009F444C008F43FC08091930382602DC032
:102C30000130EDE51E0709F475C008F45DC00230EF
:102C40001D4509F074C060E06EC080919203816000
:102C500003C08091920380618093920368C0809149
:102C6000920311C0809193038260809393035FC0AD
:102C7000809192038062F0CF809192038064ECCFC8
:102C80008091920388608460E7CF8160EECF80916D
:102C900092038E7FE1CF809192038D7FDDCF809173
:102CA0009203877FD9CF8091930318C080919303BB
:102CB0008D7FDBCF809192038F7ECECF8091920368
:102CC0008F7DCACF809192038F7BC6CF8091920374
:102CD000877F8B7FC1CF809193038D7F8E7FC5CF00
:102CE0008091920382FB222720F991E0922790FBAA
:102CF00082F990FB83F9B0CF80919303982F909540
:102D000091708E7F892B90FB81F9AFCF0E9487272E
:102D10008091920387FB222720F991E0922790FB74
:102D200087F99ACF61E08EE090E00E945629609189
:102D300092031091930384E090E00E945629612F42
:102D400082E290E00E9456290E94872773CE053FB9
:102D5000FCE51F0731F406E221EE42EE65EF7CE56B
:102D6000A4CE053F2CE5120730F407E225EE44EE31
:102D700064EF7CE59ACE063F3CE5130709F0BCCE34
:102D800007E225EE46EE66EF7CE58FCE80910406E5
:102D900006319CE5190709F58A7A91E009F490E07B
:102DA00090937605882311F065E301C069E287E717
:102DB00095E00E94BB1B0EC006311C4509F0D6C031
:102DC00080917605882309F48CC365E387E795E055
:102DD0000E94931B0E94721C2DCE82720A3C3CE51D
:102DE000130709F47BC098F5053CECE51E0709F4D0
:102DF00061C0B8F4033C2CE5120709F451C008F097
:102E000054C0023C8CE5180709F07FC090913C0645
:102E100081E0892780933C06109210010E94830F65
:102E200009CE073C9CE5190709F44EC008F447C0D9
:102E3000083CFCE51F0709F44CC0093C2CE51207CF
:102E400009F063C047ED5DE063EE7DE055C00F3CE7
:102E50003CE5130709F455C098F40C3CECE51E075B
:102E600009F446C008F43FC00D3C2CE5120709F4F4
:102E700046C00E3C3CE5130709F047C084E042C061
:102E8000063D8CE5180730F4013D1C4508F0D2CD15
:102E90008EE038C00D35EDE51E0709F4CBCD35C009
:102EA00049E15EE062E27EE027C042E25EE069E185
:102EB0007EE022C047E05EE060E17EE01DC040E1D0
:102EC0005EE067E07EE018C04FEE5DE06BEF7DE016
:102ED00013C04BEF5DE06FEE7DE00EC043EE5DE0B2
:102EE00067ED7DE009C045E95FE06BE87FE004C085
:102EF0004BE85FE065E97FE00E94790F9BCD81E0C0
:102F000001C089E00E94302095CD0A35FDE51F07FC
:102F100041F150F401153CE51307A9F00E3D1C45A5
:102F200029F50E94011C86CD0B359DE51907D9F0C6
:102F30000C351D45D9F48091930382FB882780F9D5
:102F400091E0892711C00E948727FFEF04E31CE06E
:102F5000F15000401040E1F700C000000E940C1B3F
:102F600069CD81E001C080E00E94B81CF701828138
:102F700000811181882349F0C8010E94D21CD82EFB
:102F8000682FC8010E944B1D04C0C8010E941F1D6C
:102F9000D82EB8018D2D0E9408118C01982EF701B2
:102FA000B280A580A2949FE0A9228091010687703B
:102FB00099F0BB2089F0812F807F803421F080E25E
:102FC000800F883048F082E00E94A51D80910106A4
:102FD0008770DD24D3948111D12CC12EC2948FE04F
:102FE000C8228C2D90E08C30910508F03FC2FC0186
:102FF000E058FF4F0C94C129812F807F1F708823D8
:1030000011F01295107FBB20B9F0112309F419C2F9
:1030100080E2800F883010F0911006C08091040685
:10302000182B1093040605C080910306182B1093EB
:1030300003060E94721C05C2802F0E94B127112333
:1030400009F414C2005E1095083010F0911006C00B
:103050008091040618231093040605C0809103068E
:103060001823109303060E94721C00C2812F807FD8
:103070001F70803211F01295107F992021F0F1E03D
:103080009F1611F130C0BB20B1F0AA2081F001E001
:10309000A0120DC08091930382FDE8C180910506C6
:1030A000182B181709F4E2C110930506DFC18091AF
:1030B0000506812B10C0AA2021F021E0A21609F4F8
:1030C000D5C10E946C1C27C0BB2041F035E03A15E9
:1030D00008F4CCC1812F0E94A727C8C184E08A15BB
:1030E00008F4C4C118C0BB2049F0AA2099F3F70125
:1030F000858180FFA6C18F708583ECCFAA2059F00F
:10310000093309F0B0C1FFEF17EE23E0F150104092
:103110002040E1F7A6C1812F0E949C27A7C1812FE3
:1031200086958695837019F0813059F09FC1BB2038
:1031300019F0C801937002C080E090E00E94E00E98
:103140009BC1BB2019F0C801937002C080E090E0E1
:103150000E94CA0E91C1812F837009F069C0B1101D
:1031600089C1902F929596959770990F990F802FFE
:103170008F70882E912CA12CB12C092E04C0880CA4
:10318000991CAA1CBB1C0A94D2F704FF12C04FE082
:1031900050E060E070E004C0440F551F661F771FC9
:1031A0009A95D2F7DB01CA0180959095A095B095CC
:1031B00003C080E090E0DC0116951695412F437026
:1031C000423019F1C8F400910606109107062091CB
:1031D000080630910906413059F088299929AA2911
:1031E000BB29BC01CD0160237123822393230AC034
:1031F000802A912AA22AB32ABC01CD016829792903
:103200008A299B290E94E31D35C188299929AA2969
:10321000BB290091060610910706209108063091FF
:103220000906BC01CD016027712782279327EACFC9
:10323000BB2019F0812F817001C08695882309F485
:1032400019C1902F929596959770990F990F802F8D
:103250008F70882E912CA12CB12C092E04C0880CC3
:10326000991CAA1CBB1C0A94D2F704FF12C04FE0A1
:1032700050E060E070E004C0440F551F661F771FE8
:103280009A95D2F7DB01CA0180959095A095B095EB
:1032900003C080E090E0DC0116951695412F437045
:1032A0004230D9F068F50091420610914306209112
:1032B000440630914506413059F088299929AA29B8
:1032C000BB29BC01CD0160237123822393231EC03F
:1032D000802A912AA22AB32A13C088299929AA29C7
:1032E000BB2900914206109143062091440630917B
:1032F0004506BC01CD01602771278227932706C0B0
:10330000BC01CD01682979298A299B290E94761D53
:10331000B1C01F70BB2039F0812F0E94C21D802FC9
:103320000E94A727A7C0802F0E949C27812F0E9460
:10333000801DA0C0802F32EF931609F440C03915CC
:1033400038F090EF991661F0E1EF9E1699F174C094
:10335000F3EF9F16D9F124EF921609F44EC06CC01A
:10336000BB2019F134E03A1508F480C01F7181E0E8
:1033700090E0A0E0B0E0AC01BD0104C0440F551FD7
:10338000661F771F1A95D2F78091420690914306E7
:10339000A0914406B09145068A019B010827192790
:1033A0002A273B27C901B80125C025E02A1508F4C2
:1033B0005DC0DCCFBB2029F0812F8F7130C0BB20D6
:1033C000D9F3812F8F710E94801D50C0BB2079F0EE
:1033D0001F7181E090E0A0E0B0E0BC01CD0104C02D
:1033E000660F771F881F991F1A95D2F703C060E0F8
:1033F00070E0CB010E94761D39C0BB2099F01F718F
:10340000812F0E94C21D8091930382FD07C038E086
:10341000139FC0011124836080930106812F0E94B5
:10342000C21D24C081E00E94A51D81E08A15F0F430
:1034300082E00E94A51D1AC0BB2039F0AA2009F421
:10344000BBCF802F0E94E32711C0AA2009F4B9CF77
:10345000893349F49FEFE7EEF3E09150E040F0400C
:10346000E1F700C00000802F0E94B12788EF8C0D8B
:10347000843010F40E94F60EDD20A9F1809101063F
:1034800080FD31C0F70112828595859585950E9452
:10349000C21DC7010E94CE138091010685958595B6
:1034A000859529960FB6F894DEBF0FBECDBFDF918C
:1034B000CF911F910F91FF90EF90DF90CF90BF9031
:1034C000AF909F908F907F906F905F904F903F90C4
:1034D0000C94801D01319FE5190709F0DDCA82E0D7
:1034E000A5CA69E273CC29960FB6F894DEBF0FBE69
:1034F000CDBFDF91CF911F910F91FF90EF90DF90A3
:10350000CF90BF90AF909F908F907F906F905F9083
:103510004F903F900895089580910B06089580E0A4
:103520000895CF93DF9300D01F92CDB7DEB790916F
:103530002E06943011F589837B836A839093E9008A
:103540008FEF9091E800815095FD06C095ED9A951A
:10355000F1F700008111F5CF8091E80085FF0DC0E3
:1035600040E050E063E070E0CE0101960E94CE2181
:103570008091E8008E778093E8000F900F900F9075
:10358000DF91CF910895BC0184E00C94911ABC01A5
:1035900083E00C94911ACF93DF9320910C012223A6
:1035A00039F02091920327FF03C060E224E002C0BB
:1035B00068E021E02093E9002FEF3091E8002150EE
:1035C00035FD06C035ED3A95F1F700002111F5CF34
:1035D0002091E80025FF1DC0EC0180910C018111B4
:1035E00005C040E050E068E070E003C070E040E0FB
:1035F00050E0CE010E94CE218091E8008E7780932A
:10360000E80080E2FE01ACE0B6E001900D928A9500
:10361000E1F7DF91CF91089581E08093E00080E2AF
:103620008093D8001092C9008FE19EE40197F1F7D2
:1036300000C0000087E090EBDC0180934806909387
:103640004906A0934A06B0934B069CE088E10FB66A
:10365000F894A895809360000FBE90936000FFCF10
:1036600078941F920F920FB60F9211248F939F930D
:10367000AF93BF938091F6039091F703A091F80365
:10368000B091F9030196A11DB11D8093F6039093AB
:10369000F703A093F803B093F903BF91AF919F9103
:1036A0008F910F900FBE0F901F9018952FB7F89421
:1036B0006091F6037091F7038091F8039091F903FC
:1036C0002FBF08952FB7F8948091F6039091F703D8
:1036D000A091F803B091F9032FBF08951F920F92A4
:1036E0000FB60F9211248F939F93AF93BF93809146
:1036F000F6039091F703A091F803B091F903419676
:10370000A11DB11D8093F6039093F703A093F803D6
:10371000B093F903BF91AF919F918F910F900FBE1E
:103720000F901F90189520910C012223C9F0209131
:10373000920327FF15C0262F2695269526952E3114
:10374000C8F4FC01E20FF11D677081E090E001C058
:10375000880F6A95EAF7809592818923828308957C
:10376000FC0106962281621301C012823196E8178D
:10377000F907C1F7089520910C012223C1F020918F
:10378000920327FF14C0262F2695269526952E31C5
:1037900030F5FC01E20FF11D677081E090E001C09F
:1037A000880F6A95EAF79281892B82830895FC013C
:1037B00032962FEF30E04191641789F02F3F19F4D2
:1037C000411101C0232F3F5F3630A9F72F3F39F059
:1037D000FC01E20FF11D27FDFA956283089508951B
:1037E000CF9384E090E00E943829C82F82E290E0D5
:1037F0000E9438292C2F30E0A901582BCA01CF9103
:1038000008956AEE7EEF80E090E00E94742960E007
:1038100082E090E00E94562960E083E090E00E9400
:10382000562910920606109207061092080610926A
:10383000090660E084E090E00E94562960E082E2A0
:1038400090E00E94562960E085E090E00E945629B1
:1038500060E086E090E00E9456296FEF87E090E0FC
:103860000E94562940E050E0BA0188E090E00E94B2
:10387000682960E08DE090E00E94562940E050E029
:10388000BA0188E190E00E94682960E087E190E059
:103890000E94562940E050E0BA018CE190E00E947D
:1038A000682960E070E080E290E00E94742940E0C6
:1038B00050E0BA0188E190E00E94682940E050E0C1
:1038C000BA018FE090E00E94682940E050E0BA0120
:1038D00083E190E00C946829809105068111109293
:1038E000050608959091040680910306892B209186
:1038F0000206982F922B90937705809105068823D6
:10390000D9F0892B8093770580910C01882331F0C1
:103910008091920387FF02C08EE101C086E0E9E753
:10392000F5E090E0815028F021912223D9F39F5FA8
:10393000F9CF91110E946C1CE0919E03F0919F03BE
:103940003097A9F080910C01882359F0809192035F
:1039500087FF07C0809177058093780585E0809385
:1039600077050280F381E02D87E795E009940895BB
:10397000CF93C0919303C2FB992790F9981781F0D8
:1039800080FBC2F9C09393036091920384E090E0BE
:103990000E9456296C2F82E290E0CF910C94562918
:1039A000CF910895BF92CF92DF92EF92FF920F9343
:1039B0001F93CF93DF938C01C0904206D0904306B3
:1039C000E0904406F0904506809106069091070627
:1039D000A0910806B0910906C82AD92AEA2AFB2A2A
:1039E000CFE1D0E0D701C6010C2E04C0B695A79553
:1039F000979587950A94D2F780FD04C0219790F798
:103A0000B12C07C0BC2EB8018C2F0E940811019761
:103A1000A9F38B2DDF91CF911F910F91FF90EF9024
:103A2000DF90CF90BF900895CF93DF93EC010E9479
:103A3000D21CBE010E940811DF91CF9108952FE0A2
:103A4000929F800D1124682F669566956695982F34
:103A5000977085E0689FB001112440E050E080E05D
:103A6000FB01E40FF51FE153FA4F208130E0092EEE
:103A700002C0369527950A94E2F721703327042E69
:103A800001C0220F0A94EAF7822B4F5F5F4F453047
:103A9000510531F708952FE0929F800D1124E82FF2
:103AA000E695E695E695877051E001C0550F8A9539
:103AB000EAF785E0E89FF0011124E153FA4F20E096
:103AC00030E070E04081CB01022E02C096958795D0
:103AD0000A94E2F781708195842785238427819356
:103AE0002F5F3F4F2530310569F7089560934206F7
:103AF0007093430680934406909345060C9479276F
:103B00000F931F9341E050E060E070E004C0440F69
:103B1000551F661F771F8A95D2F74095509560957F
:103B200070958091420690914306A0914406B09111
:103B300045068A019B01082319232A233B23C90137
:103B4000B8011F910F910C94761D2091010680956C
:103B5000822380930106982F977041F430E0482F1C
:103B6000082E000C550B2417350721F49091930370
:103B700092FF07C08595859585950E94801D1092BE
:103B8000010608950F931F9341E050E060E070E05C
:103B900004C0440F551F661F771F8A95D2F7809186
:103BA000420690914306A0914406B09145068A01D1
:103BB0009B01082B192B2A2B3B2BC901B8011F9104
:103BC0000F910C94761D6093060670930706809300
:103BD0000806909309060C9479278091CE05909160
:103BE0009D05891719F08F5F8770FBCF08950F939C
:103BF0001F93CF93DF9380919C0582958F7009F07E
:103C00005DC080919905882309F458C08091CE0544
:103C100010919D056091970570919805C0919A0546
:103C2000D0919B0591E06F3F09F090E0292F06E0CD
:103C3000811709F443C0209721F07F3F21F030E045
:103C400003C031E001C0322F90E030FD34C0089F46
:103C5000F001099FF00D1124DF01A256BA4F119611
:103C60003C911197371327C03C91361324C012960C
:103C70003C91129731111FC013964D915C9114978E
:103C80004C1B5D0B483C5105B0F480919C058F7036
:103C9000806180939C05ED55FA4F80818F70806123
:103CA000808387E995E00E94CE13DF91CF911F9129
:103CB0000F910C94ED1D01968770BACFDF91CF91D3
:103CC0001F910F9108959F92AF92BF92CF92DF9272
:103CD000EF92FF920F931F93CF93DF93CDB7DEB791
:103CE00061970FB6F894DEBF0FBECDBF8C0185E0A3
:103CF000F801DE011D9601900D928A95E1F7F80119
:103D000090818181E2803091970560919805409182
:103D10009A0550919B054115510531F06F3F31F4E3
:103D200021E03F3F19F403C021E001C020E0F22F61
:103D3000F1709F2E20FD23C1F801C380D48027E9B4
:103D4000A22E25E0B22EF0909905F601E41BF50BAA
:103D5000FF2009F4CEC020919C05E83CF10508F055
:103D600099C0422F407F09F051C0681311C0391328
:103D70000FC0FE2CE1100CC02F70206120939C0519
:103D8000C5010E94CE1380919C05F801858337C13F
:103D9000CD2831F08F3F31F421E09F3F19F403C06B
:103DA00021E001C020E020FD03C021E02E2502C05B
:103DB00020E030E0F22FF170FF2E20FF1DC0209197
:103DC000CE0540919D0556E0241709F4F6C030E079
:103DD000529FF001539FF00D1124E256FA4F61817A
:103DE000861306C06081961303C06281E61204C088
:103DF0002F5F3F4F2770E8CFFE2CEE2009F4FFC065
:103E000080919C05816080939C0550C0681307C019
:103E1000391305C0E11003C0F80125838DC09D87CB
:103E20008E878D859E850E945027882369F1EE201C
:103E300059F120919C05822F82958F7090E0029716
:103E400074F0809197059091980598878F831986D3
:103E5000DB86CA862C87CE0107960E94CE1386E0A9
:103E6000F801A7E9B5E001900D928A95E1F70E946B
:103E7000F71D0DC06817E1F09D878E878D859E85A3
:103E80000E94502781111EC0C8010E94CE13FF243A
:103E9000F394B5C0422F407F69F787E995E00E940F
:103EA000CE1386E0F50111928A95E9F7F12CA7C0AF
:103EB0003913E2CFE110E0CFF8012583C8010E9459
:103EC000CE1357C0EE2001F320919C05822F8295DE
:103ED0008F7090E002971CF2809197059091980561
:103EE0009A8389831B82DD82CC822E83CE01019648
:103EF000B4CFE83CF105E8F5FE2CEE2029F268137A
:103F000027C0391325C020919C0520FD18C0822FA1
:103F100082958F70482F50E04115510581F0F801CE
:103F200025834F30510541F08F5F982F9295907FF8
:103F3000822F8F70892B8583C8010E94CE1386E063
:103F4000F801A7E9B5E001900D928A95E1F757C015
:103F50009D878E878D859E850E94502781117FCFFA
:103F600080919C05816080939C05C8010E94CE13BE
:103F700046C086E0F50111928A95E9F740C0EE202F
:103F800009F482CF9D878E878D859E850E9450275C
:103F9000F82E882309F478CF86E0F801A7E9B5E088
:103FA00001900D928A95E1F780919705909198057F
:103FB0000E94141D0E94F71D22C09D878E878D854B
:103FC0009E850E94141D292F22952F70223028F4DF
:103FD0009F7039F0811105C00BC0243028F49F7008
:103FE00049F4805E883020F0C8010E94CE139F2CD7
:103FF000F92C05C0F8019581907F99F7F9CF8F2DA5
:1040000061960FB6F894DEBF0FBECDBFDF91CF91A2
:104010001F910F91FF90EF90DF90CF90BF90AF90E6
:104020009F9008950F931F938091420690914306AD
:10403000A0914406B09145068C019D0106701127A0
:1040400022273327BC01CD0106301105210531059A
:1040500011F4686001C0677F1F910F910C94761D69
:1040600090913C06937089F0811102C0946007C062
:10407000873110F0986503C0880F880F982B9093B4
:104080003C06109210010C94830F08956F927F925A
:104090008F929F92AF92BF92CF92DF92EF920F9347
:1040A0001F93CF93DF933C01C0910D01CC0FCC0F38
:1040B000D4E0DC0FD43408F0D3E460914006669578
:1040C00080913806909139060E945710182FCD170D
:1040D00008F044C08C2E912CF401E45EFC4F9081DA
:1040E00080910E018923C1F1F401EE0FFF1FEA5602
:1040F000FD4FC080D12C80E7C81AD108F401EE0F23
:10410000FF1FE956FD4FA080B12CE0E2AE1AB108C6
:10411000CC9C9001CD9C300D300D1124AA9CC00187
:10412000AB9C900D900D1124820F931F0E94FD0FE8
:10413000082F60913D0670913E0680913F06E12E6A
:104140009501A601F30109950E946110462F282FC1
:10415000672FC4010E94810FCF5FB9CF81E0D334B4
:1041600008F080E0DF91CF911F910F91EF90DF90E9
:10417000CF90BF90AF909F908F907F906F90089559
:10418000CF92DF92EF92FF920F931F93CF93DF9323
:104190006C01C0910D01CC0FCC0FD4E0DC0FD434F6
:1041A00008F0D3E4609140066695809138069091BE
:1041B00039060E945710182FCD1778F5EC2EF12CE8
:1041C000F701E45EFC4F908180910E01892319F183
:1041D000F701EE0FFF1FE956FD4F208130E020521E
:1041E0003109F701EE0FFF1FEA56FD4F408150E005
:1041F0004057510960913D0670913E0680913F06FF
:10420000012FF60109950E946110462F282F672F74
:10421000C7010E94810FCF5FCFCF81E0D33408F078
:1042200080E0DF91CF911F910F91FF90EF90DF9091
:10423000CF900895DF92EF92FF920F931F93CF9349
:10424000DF937C01C0910D01CC0FCC0FD4E0DC0FCB
:10425000D43408F0D3E46091400666956695809169
:104260003806909139060E945710D82ECD17F0F4D9
:104270000C2F10E0F801E45EFC4F908180910E015C
:10428000892391F060913D0670913E0680913F0632
:104290002D2D4C2FF70109950E946110462F282FD4
:1042A000672FC8010E94810FCF5FE0CF81E0D33438
:1042B00008F080E0DF91CF911F910F91FF90EF9078
:1042C000DF9008959F92AF92BF92CF92DF92EF92CC
:1042D000FF920F931F93CF93DF936C01C0910D0159
:1042E000CC0FCC0FD4E0DC0FD43408F0D3E46091D1
:1042F00040066695669580913806909139060E9431
:104300005710182F80E4810F0E94B80F90E8F92E03
:10431000F80E812F0E94B80F20E8922E980ECD172C
:1043200000F5AC2EB12CF501E45EFC4F908180913C
:104330000E018923A1F060913D0670913E068091A7
:104340003F06E12E0C2F292D4F2DF60109950E94D5
:104350006110462F282F672FC5010E94810FCF5F64
:10436000DECF81E0D33408F080E0DF91CF911F9160
:104370000F91FF90EF90DF90CF90BF90AF909F9004
:10438000089590913C06937041F080933D066093B0
:104390003E0640933F060C94830F0895EF92FF92E0
:1043A0000F931F93CF93DF937C018B010E942F25E6
:1043B000811119C0E70101151105A1F08091E800F4
:1043C00085FD0AC08091E8008E778093E8000E9406
:1043D0002F25882381F307C089918093F100015034
:1043E0001109E9CF80E0DF91CF911F910F91FF90EC
:1043F000EF9008951F93CF93DF93CDB7DEB7AA97C1
:104400000FB6F894DEBF0FBECDBFE0E3F6E08091BB
:10441000F100819346E0E833F407C9F78091310653
:10442000833009F462C030F4813071F0823009F4D5
:104430009CC0B3C08A3009F488C08B3009F46DC0C9
:10444000893009F0AAC020C080913006813A09F075
:10445000A4C08091E800877F8093E80080913406B3
:1044600090913506892B21F460E28CE096E003C040
:1044700060E080E090E070E00E94F2268091E80029
:104480008B778093E80089C080913006813209F0F3
:1044900084C08091340690913506009719F00297F8
:1044A00009F07BC08091E800877F8093E8008091CD
:1044B000E80082FD05C080912E068111F8CF6DC005
:1044C0002091F3008091F20090E0922B029729F462
:1044D0008091F1008B7F813021F48091F1008093F5
:1044E0000B068091E8008B7754C080913006813AAA
:1044F00009F053C08091340690913506892B09F05C
:104500004CC08091E800877F8093E8008091E800AC
:1045100080FFFCCF80910C0137C080913006813242
:10452000E1F58091340690913506892BB1F58091A3
:10453000E800877F8093E8000E9462258091320620
:1045400080930C010E94872728C080913006813219
:1045500021F58091E800877F8093E8000E94622522
:104560008091330680930A0618C080913006813A04
:10457000A1F48091E800877F8093E8008091E800B3
:1045800080FFFCCF80910A068093F1008091E800C3
:104590008E778093E8000E9462258091E80083FF77
:1045A000DDC18091300690913106492F50E04A30AC
:1045B000510508F0D3C1FA01E457FF4F0C94C1290B
:1045C000803821F0823809F0C9C108C080912C06DA
:1045D00090912D06992389F082600FC08091340656
:1045E0008F70873008F0BAC18093E9008091EB00AA
:1045F00085FB882780F91092E9009091E800977F69
:104600009093E8008093F1001092F10070C1282F80
:104610002D7F09F0A3C1882319F0823061F09EC17B
:1046200080913206813009F099C1933009F080E021
:1046300080932D062EC08091320681112AC0809170
:1046400034068F702FEF280F263008F087C1809333
:10465000E9002091EB0020FF1CC0933021F48091F1
:10466000EB00806214C09091EB0090619093EB009E
:1046700021E030E0A90102C0440F551F8A95E2F7FE
:104680004093EA001092EA008091EB0088608093EA
:10469000EB001092E9008091E800877F8093E800AA
:1046A0000E9462255BC1811159C1109132061F77AA
:1046B0008091E3008078812B8093E3008091E80073
:1046C000877F8093E8000E9462258091E80080FF48
:1046D000FCCF8091E30080688093E300111102C059
:1046E00082E001C083E080932E0638C1805882307A
:1046F00008F034C120913206309133062C3D53E04E
:10470000350779F583E08A838AE289834FB7F89485
:10471000DE01139620E03EE051E2E32FF0E05093FB
:104720005700E49120FF03C0E295EF703F5FEF7008
:104730008E2F90E0EA3010F0C79601C0C0968D939E
:104740009D932F5F243149F74FBF8091E800877F09
:104750008093E8006AE270E0CE0101960E94F226A2
:10476000B4C08091340690913506432F55274330CD
:104770005105A9F068F44130510509F4FEC04230FA
:10478000510509F0EBC08BE590E0EFE1F6E04BC09E
:104790004132510529F14232510589F1DFC0C90189
:1047A000992781309105A1F058F0029709F0D6C001
:1047B000ECE8F6E0E4918E2F90E0ECE8F6E030C013
:1047C000E0ECF6E0E4918E2F90E0E0ECF6E028C01B
:1047D000EEEAF6E0E4918E2F90E0EEEAF6E020C0FB
:1047E0008330910508F0BAC0880F991FFC01EB5B7C
:1047F000FD4F0190F081E02D89E090E014C08330FE
:10480000910508F0ABC0FC01EE0FFF1FE15CFD4F0E
:104810000190F081E02DDC01A45CBD4F8C9190E013
:10482000009709F49BC02091E800277F2093E800BF
:1048300020913606309137062817390708F4C90148
:1048400040E0009789F120912E06222309F43DC013
:104850002530D9F12091E80023FD37C02091E800F0
:1048600022FD2FC02091E80020FFEBCF4091F30004
:104870002091F20030E0342B009759F028303105B8
:1048800040F444914093F100319601972F5F3F4FE0
:10489000F3CF41E02830310509F040E02091E800F5
:1048A0002E772093E800CDCF4111CDCF0AC0809163
:1048B0002E06882351F0853041F08091E80083FD79
:1048C00004C08091E80082FFF2CF8091E8008B77EE
:1048D0008093E80043C0803809F040C08091E80030
:1048E000877F8093E80080912F068093F10080916C
:1048F000E8008E77D3CE811131C08091320690913D
:1049000033069927029754F58091E800877F8093BA
:10491000E8001091320610932F060E9462251111B3
:1049200006C08091E30087FD02C081E001C084E001
:1049300080932E0642E061EC81E00E94812542E2F4
:1049400061EC84E00E94812542E261EC82E00E94F9
:10495000812542E260EC83E00E9481258091E8009D
:1049600083FF10C08091E800877F8093E8008091EA
:10497000EB0080628093EB0005C082E190E0EAE703
:10498000F6E051CFAA960FB6F894DEBF0FBECDBFAA
:10499000DF91CF911F9108951F920F920FB60F9242
:1049A00011242F933F934F935F936F937F938F9334
:1049B0009F93AF93BF93CF93DF93EF93FF93C091F8
:1049C000E900CF708091EC00D82FD17080FDD0E845
:1049D0001092E9008091F000877F8093F000789436
:1049E0000E94FA211092E9008091F0008860809383
:1049F000F000CD2BCF70C093E900FF91EF91DF91D4
:104A0000CF91BF91AF919F918F917F916F915F9166
:104A10004F913F912F910F900FBE0F901F901895BF
:104A2000E8EDF0E080818E7F80831092E2001092AA
:104A3000DA001092E100A0EEB0E08C9181608C93DE
:104A400080818F77808319BCA7EDB0E08C918E7F39
:104A50008C9380818F7E80831092460608952091EA
:104A6000E4003091E50095E64091EC00842F8170E0
:104A700040FF23C08091E80080FD1DC080912E067C
:104A8000882399F0853099F08091EB0085FD11C065
:104A90004091E4005091E5002417350729F3915027
:104AA00011F09A01E1CF84E0089582E0089583E057
:104AB000089581E0089580E008954091E80042FF64
:104AC000DDCF08958091300687FF11C08091E80006
:104AD00082FD05C080912E068111F8CF11C0809112
:104AE000E8008B770BC080912E06882349F08091D7
:104AF000E80080FFF8CF8091E8008E778093E8008F
:104B00000895982F973068F59093E900981739F039
:104B10007091EC002091ED005091F00003C0242F23
:104B2000762F50E021FD02C09F5FECCF3091EB006B
:104B30003E7F3093EB003091ED003D7F3093ED00F0
:104B40003091EB0031603093EB007093EC002093D8
:104B5000ED005093F0002091EE0027FDE5CF80E0BE
:104B600008958F708093E90081E00895CF92DF92DD
:104B7000EF92FF920F931F93CF93DF93C8EDD0E096
:104B800088818F7E8883E7EDF0E08081816080837B
:104B900084E082BF81E08093460688818E7F88838F
:104BA00002EE10E0F80110821092DA0081EEC82EB9
:104BB000D12CF601108288818F7788838881806864
:104BC000888388818F7D888319BC10922E0610926D
:104BD0002F0610922D0610922C0690EEE92EF12C45
:104BE000F70180818B7F808388818160888342E0A8
:104BF00060E080E00E948125F60180818E7F8083C5
:104C0000F801808181608083808188608083F701E2
:104C100080818E7F8083888180618883DF91CF91BE
:104C20001F910F91FF90EF90DF90CF9008951F920A
:104C30000F920FB60F9211242F933F934F935F93D0
:104C40006F937F938F939F93AF93BF93EF93FF9354
:104C50008091E10082FF09C08091E20082FF05C0DF
:104C60008091E1008B7F8093E1008091DA0080FFEA
:104C70002AC08091D80080FF26C08091DA008E7F04
:104C80008093DA008091D90080FF18C080E189BD4F
:104C900082E189BD09B400FEFDCF81E080932E063C
:104CA0008091460681110FC00E9410250E94B625F2
:104CB0008091E20084608093E20005C019BC1092EC
:104CC0002E06109246068091E10080FF17C0809169
:104CD000E20080FF13C08091E2008E7F8093E200AB
:104CE0008091E20080618093E2008091D800806230
:104CF0008093D80019BC85E080932E068091E10056
:104D000084FF34C08091E20084FF30C080E189BD1F
:104D100082E189BD09B400FEFDCF8091D8008F7D6E
:104D20008093D8008091E1008F7E8093E100809194
:104D3000E2008F7E8093E2008091E20081608093A8
:104D4000E20080912F06882311F084E007C0809153
:104D5000E30087FD02C081E001C083E080932E065E
:104D60000E9487270E94F60E109247068091E1006C
:104D700083FF27C08091E20083FF23C08091E10080
:104D8000877F8093E10082E080932E0610922F06A9
:104D90008091E1008E7F8093E1008091E2008E7F20
:104DA0008093E2008091E20080618093E20042E023
:104DB00060E080E00E9481258091F000886080930F
:104DC000F000FF91EF91BF91AF919F918F917F91F3
:104DD0006F915F914F913F912F910F900FBE0F9068
:104DE0001F90189520913606309137062617370701
:104DF00048F06115710539F42091E8002E77209371
:104E0000E80001C0B901FC0120E06115710579F1EC
:104E100080912E068823F1F18530F1F18091E80030
:104E200083FD3CC08091E80082FD2EC08091E800A7
:104E300080FFEBCF2091F3008091F20090E0922B65
:104E40006115710551F08830910538F42191209356
:104E5000F100615071090196F3CF21E0089709F044
:104E600020E08091E8008E778093E800CECF21117A
:104E7000CFCF0AC080912E06882361F0853061F083
:104E80008091E80083FD0AC08091E80082FFF2CFA4
:104E900080E0089582E0089583E0089581E0089518
:104EA0000E94141D292F2F70E92FE295EF704E2FCD
:104EB00050E0FA013297EE30F105B8F4EA56FF4FB0
:104EC0000C94C129803F99F018F4883E70F40FC00B
:104ED000843F59F40CC0883E50F0813F31F407C044
:104EE000822F869586958695089580E0089581E0C5
:104EF000089580E090E00E94E00E80E090E00E9443
:104F0000CA0E10920306109202060C94721C1092A4
:104F1000040680910C01882331F08091920387FF71
:104F200002C08EE101C086E0E9E7F5E0DF011D92F5
:104F30008A95E9F70C947927882341F08095909120
:104F400004068923809304060C94721C0895882318
:104F500039F090910406892B809304060C94721CFE
:104F60000895882379F19CEF980F913A30F4682FD7
:104F700087E795E00E94931B14C090E2980F983049
:104F800090F4877021E030E0A90102C0440F551F62
:104F90008A95E2F7CA01809590910406892380934F
:104FA00004060C94721C9BE5980F933020F480E06B
:104FB00090E00C94E00E885A873120F480E090E075
:104FC0000C94CA0E0895CF93882309F46DC09CEF0A
:104FD000980F913AC8F5C82F80910C018823E1F011
:104FE0008091920387FF18C0EC2FE695E695E69531
:104FF000F0E0E958FA4F8281282F30E04C2F4770BB
:1050000081E090E002C0880F991F4A95E2F7822361
:105010009323892B61F412C0E9E7F5E08FE795E06F
:105020002191C21721F08E179F07D1F707C06C2F6F
:1050300087E795E00E94931B0E94721C6C2F87E704
:1050400095E00E94BB1B13C090E2980F983090F43B
:10505000877021E030E0A90102C0440F551F8A95F6
:10506000E2F7CA0190910406892B80930406CF9140
:105070000C94721CEBE5E80FE33040F4F0E0E15AE9
:10508000FC4F808190E0CF910C94E00E885A8731DC
:1050900058F4E82FF0E0EE0FFF1FEE59FC4F80812F
:1050A0009181CF910C94CA0ECF9108951F93CF9305
:1050B000DF93182F893319F0C0E0D0E002C0C0E5BB
:1050C000D0E0812F0E94E327209741F08FE99FE0F5
:1050D0000197F1F700C000002197F6CF812FDF91F3
:1050E000CF911F910C94B1271092B9008CE080935E
:1050F000B8000895EF92FF920F931F93CF93DF9321
:10510000182FEB011092BC0084EA8093BC000E942F
:10511000621B7C018091BC0087FD0EC0CF3F8FEFEA
:10512000D807C1F30E94621B8E199F098C179D0737
:1051300088F38EEF9FEF2EC08091B900887F883072
:1051400041F08091B900887F803119F08FEF9FEF97
:1051500021C01093BB0084E88093BC000E94621BB6
:105160008C018091BC0087FD0CC0CF3F8FEFD8072A
:10517000C1F30E94621B801B910B8C179D0788F363
:10518000D8CF8091B900887F883111F08034F1F652
:1051900080E090E0DF91CF911F910F91FF90EF9011
:1051A00008950F931F93CF93DF93EB018093BB0080
:1051B00084E88093BC000E94621B8C018091BC003B
:1051C00087FD0EC0CF3F8FEFD807C1F30E94621B4F
:1051D000801B910B8C179D0788F38EEF9FEF0CC0FF
:1051E0002091B900287F81E090E0283211F480E01E
:1051F00090E0919581959109DF91CF911F910F9149
:105200000895CF92DF92EF92FF920F931F93CF9367
:10521000DF936B018A017901B9010E947A28E601C6
:105220000C0D1D1DC017D10761F424E92093BC00AB
:10523000DF91CF911F910F91FF90EF90DF90CF9072
:10524000089597FDF2CFB70189910E94D128EACF46
:10525000DC01CB01FC01F999FECF06C0F2BDE1BD36
:10526000F89A319600B40D9241505040B8F7089525
:10527000F999FECF92BD81BDF89A992780B508951E
:10528000A8E1B0E042E050E00C942A29DC01A40F30
:10529000B51F4150504048F0CB01840F951F2E910F
:1052A0000E94572941505040D0F70895262FF99970
:1052B000FECF92BD81BDF89A019700B4021639F075
:1052C0001FBA20BD0FB6F894FA9AF99A0FBE089546
:1052D0000396272F0E9457290E945629252F0E94A6
:1052E0005729242F0C9457290196272F0E945729BC
:1052F0000C945629AA1BBB1B51E107C0AA1FBB1F58
:10530000A617B70710F0A61BB70B881F991F5A9551
:10531000A9F780959095BC01CD01089597FB072EC4
:1053200016F4009407D077FD09D00E947A2907FC73
:1053300005D03EF4909581959F4F089570956195A5
:105340007F4F0895052E97FB1EF400940E94B92903
:1053500057FD07D00E94CE2907FC03D04EF40C94D1
:10536000B92950954095309521953F4F4F4F5F4F4C
:10537000089590958095709561957F4F8F4F9F4FC1
:105380000895EE0FFF1F0590F491E02D0994692711
:10539000962769277827872778270895A1E21A2E6C
:1053A000AA1BBB1BFD010DC0AA1FBB1FEE1FFF1FC9
:1053B000A217B307E407F50720F0A21BB30BE40B19
:1053C000F50B661F771F881F991F1A9469F7609560
:1053D0007095809590959B01AC01BD01CF0108951A
:1053E000FB01DC0102C001900D9241505040D8F702
:0653F0000895F894FFCFC0
:1053F600FFFF8C1ACB1A8B1AC71AC31A0100FF00BB
:105406000300FFFFF0F1F4C666F7F6F567303132B8
:105416003334979694959392003131295A1B750A25
:10542600009B8B7B00AB8A7A00AA9A7900A999899E
:1054360000A8988800A7978700A6968600A5958558
:1054460000A49484003C4C5C002C4D5D002D3D5E18
:10545600002E3E4E0030405000314151002A3A4A5B
:10546600002939490028384800273747002636469C
:1054760000253556002445550034445400AC9C8C18
:1054860000AD9D8D00AE9E8E00AF9F8F00B0A090A8
:1054960000B1A19100324252002B3B4B01A99989E0
:1054A60001A8988801A7978701A6968601A59585E4
:1054B60001A49484013C4C5C012C4D5D012D3D5EA4
:1054C600012E3E4E012F3F4F0130405000334353D3
:1054D60001AB8A7A01283848012737470126364624
:1054E600012535560124455501AC9C8C01AD9D8D99
:1054F60001AE9E8E01AF9F8F013141510132425262
:105506000133435300B2A281019B8B7B012B3B4BA2
:10551600012A3A4A0134445401B1A19101B2A2814F
:1055260001A3938300A3938300B3928240226DDF8D
:1055360005BD05500531064A066A06000102030448
:1055460005060708090A0B0C0D0E0F10111213148D
:1055560015161718191A1B1C1D1E1F20212223247D
:105566002526272829FF2A2B2C2D2E2F30313233A2
:1055760034353637FF38393A3B3CFFFF3DFFFF3EB7
:10558600FF3F40FF414200000F001E002D003C007F
:105596004B005A006900780087009600A500B40009
:1055A600CB00E000041017102610351044105310DD
:1055B6006210711080108F109E10AD10BC10CE10AE
:1055C600E01006201A202920382047205620652082
:1055D600742083209220A120B020C920E020093029
:1055E6002230313040304F305E306D307C308B3081
:1055F6009A30A930BD30D230E03002401540274005
:1056060060409840AB40C340D240E04001040404EF
:10561600040404040404040404040101040404044A
:10562600040404040404040404010104040404043A
:10563600040404040404040101040404040404042A
:1056460004040404040101010104010101010181B2
:105656008283E200E900EA00B500B600B700CD009B
:105666008301CC008A0192019401210223022402C3
:105676002502260227022A02B300B4006F0070003A
:00000001FF
